:100000000C94F53D0C9400000C9400000C9400003E
:100010000C94DC3D0C94B63D0C9400000C94000054
:100020000C9400000C9400000C9400000C94303EE2
:100030000C9400000C9400000C9400000C94000040
:100040000C9400000C9400000C9400000C94000030
:100050000C940000B9D021F0662309F0CAD098941E
:100060000895F8DF09F441C0E62ED52EC42EB32E34
:10007000A22E912E802E002D112D222D332DEADF60
:1000800009F43DC0842F952F8C199D09B9F072F4A5
:100090009095809501964C2D5D2D883180F5359594
:1000A0002795179507950197D1F708C08831E8F48F
:1000B000B594A794979487940197D1F766272EF06B
:1000C000080D191D2A1D3B1D09C0801A910AA20A9C
:1000D000B30A082D192D2A2D3B2D332312F489D074
:1000E00060E832D001C018D016C0002D112D222D8D
:1000F000332DD6F757D0C1F340E83427F5CF082D7C
:10010000192D2A2D3B2D4C2D5D2D6E2D33235AF7A5
:1001100070D060E8E8CF089545D039F041585F4F7E
:10012000342F220F36952795362B0895689499DF42
:100130000895FCDF332332F035D011F001E003C025
:10014000002701C00FEF08952DD011F19F938F93D9
:100150008EE790E0332351F0369527951795079554
:1001600048175907B4F44F5F5F4FF4CF80959095CF
:10017000019622239AF0000F111F221F48175907DA
:100180001CF041505040F5CF00271127222733277C
:1001900008C033270FEF102F2FE7322F8F919F9139
:1001A000BBDF0895002329F4112319F4222309F455
:1001B00033230895E89455DF0895042E152E262E36
:1001C000372EB7DF00230895EDDF79F0632F6078D5
:1001D000220F331F432F5FE7451B552750402695BD
:1001E00030E8232B3327989403C0442755276627EC
:1001F000089500951095209530950F5F1F4F2F4F54
:100200003F4F089547E16627552726F0332312F420
:10021000F0DF60E899DF0895D7DF81F1E62ED52E73
:10022000C42EB32EA22E912E802E002D112D222D04
:10023000332DCADF19F16E254C0D5D1D4038530773
:10024000F4F441387FEF5707FCF088279927AA2755
:10025000BB2770E2B695A795979587953795279513
:100260001795079520F4880D991DAA1DBB1D7A9539
:1002700089F7032F3A2F292F182F66DF0AC00FEFB7
:10028000102F2FE73FE7FACF0027102F202F302F16
:10029000F5CF0895042E152E262E372E8BDF002E37
:1002A000112E222E332E0895042E152E262E372E93
:1002B000B3DF002E112E222E332E089585DFF1F0AC
:1002C0005523C2F04F31A8F44731C1F050F44195A5
:1002D000495E05C035952795179507954A95D1F73D
:1002E0000DC04751000F111F221F331F4A95D1F730
:1002F00005C03FE7232F132F032F03C0662309F008
:1003000078DF08955ADF1CF40024039401C0002410
:100310000895042E152E262E372E08DF002E112EBE
:10032000222E332E0895CF93DF93CDB7DEB72397D8
:10033000CDBFDEBF2196B0E85B1641F4B0E04B16AE
:1003400029F4B0E03B1611F4B0E02B16D1F4F30120
:10035000BDE2B193B2E3B193B1E3B193B4E3B1932E
:10036000B7E3B193B4E3B193B8E3B193B3E3B1931B
:10037000B6E3B193B4E3B193B8E3B193B0E0B19312
:100380007BC0B0E0BA8300E010E020E030E020164F
:1003900031064206530664F4BFEFBA8300E010E072
:1003A00020E030E002191309240935091801290158
:1003B000F301B0E2B193B0E2B193B0E2B193B0E235
:1003C000B193B0E2B193B0E2B193B0E2B193B0E2D5
:1003D000B193B0E2B193B0E2B193B0E3B193B0E0C6
:1003E000B1938301065F1F4F08831983B0E05B164A
:1003F00041F4B0E04B1629F4B0E03B1611F4B0E044
:100400002B1699F17F926F925F924F923F922F92AB
:100410004AE050E060E070E08101920150D08B0131
:100420009C012F903F904F905F90005DE881F98193
:1004300000835F924F923F922F924AE050E060E03B
:1004400070E0810192013BD089019A012F903F9089
:100450004F905F906F907F9018012901088119815A
:100460000150104008831983C1CF0A81002321F075
:10047000E881F981BDE2B0832296CDBFDEBFDF9176
:10048000CF910895002E112E222E332E042F152FDA
:10049000262F372F4EDE00231CF00024039401C0CA
:1004A00000240895E894AEDE0895B0E0B9BD28BCFC
:1004B000089523BC0895B0E0BBBD2ABC0895C901CE
:1004C0009A01AB01B80197FB092E05260ED057FD06
:1004D00004D014D00AD0001C38F4509540953095C3
:1004E00021953F4F4F4F5F4F0895F6F790958095B8
:1004F000709561957F4F8F4F9F4F0895A1E21A2EFF
:10050000AA1BBB1BFD010DC0AA1FBB1FEE1FFF1FB7
:10051000A217B307E407F50720F0A21BB30BE40B07
:10052000F50B661F771F881F991F1A9469F760954E
:100530007095809590959B01AC01BD01CF01089508
:10054000CF93DF93CDB7DEB725962F923F924F9290
:100550005F9208811981088319830A811B810A83AC
:100560001B830C810C830D811E810F81013071F47E
:100570002101B1E03B2E262C0E942F2B4880598070
:10058000B1E03B2E2C800E942F2B0CC0B1E03B2E03
:10059000262C0E942F2B4A805B80B1E03B2E2C80C2
:1005A0000E942F2B5F904F903F902F90DF91CF9123
:1005B0000895BB27AA279927882700FF04C0840F26
:1005C000951FA61FB71F440F551F661F771F36952F
:1005D00027951795079589F730502040100769F740
:1005E0009D018C010895CF93DF93CDB7DEB724979B
:1005F000CDBFDEBF2196152D110FB7E0042D069556
:10060000BA95E9F7010F0F57202F30E007FD3FEFB4
:1006100000E010E020173107DCF440E050E060E03B
:1006200070E0810192012EDF002800E009F00FEF59
:10063000002331F0B0E0B883B983BA83BB8307C02D
:10064000B0E0B883B983B0E8BA83BFE3BB832AC004
:1006500008E1021728F4288239824A825B8222C08C
:10066000810192012BDE1EDF088319832A833B83DD
:10067000A101B201088119812A813B8143DE002852
:1006800000E009F00FEF002369F0088119812A8149
:100690003B8140E050E060E87FE3FCDD08831983A4
:1006A0002A833B83088119812A813B812396CDBF10
:1006B000DEBFDF91CF910895C801BA01AA1BBB1B11
:1006C00051E107C0AA1FBB1FA617B70710F0A61B52
:1006D000B70B881F991F5A95A9F780959095089593
:1006E000CF93DF93CDB7DEB7A197CDBFDEBF219605
:1006F000B0E0BE8F81019201E1DD088319832A8376
:100700003B835F924F923F922F9240E050E060E037
:1007100070E081019201F6DD002800E009F00FEFA2
:100720002F903F904F905F90002311F0BFEFBE8F4E
:100730008E010A5F1F4F7F926F925F924F923F929E
:100740002F923801288039804A805B80ECDD2F9021
:100750003F904F905F906F907F90088119812A8120
:100760003B81A0DE5F924F923F922F92A801B90188
:1007700081019201CEDD40E050E563EC77E494DD49
:100780002F903F904F905F9099DD088319832A83C3
:100790003B8340E050E060E070E004171507260757
:1007A000370784F40880198000E010E0001911096F
:1007B0000A801B8020E030E020093109088319837A
:1007C0002A833B838E010E5E1F4F7F926F925F9252
:1007D0004F923F922F923801288039804A805B8067
:1007E000A2DD2F903F904F905F906F907F9040E000
:1007F00050E0B0E0BC83BD83F301B0E2B193B0E25E
:10080000B193B0E2B193B0E2B193B0E2B193B0E290
:10081000B193B0E2B193B0E2B193B0E2B193B0E280
:10082000B193B0E3B193B0E0B1935F934F93810183
:10083000920144DD303029F4203019F4103009F4ED
:100840000030B0E009F4BFEF0B2F08A340E050E008
:1008500060E070E08101920155DD002800E009F0C0
:100860000FEF4F915F9118A10123002341F0F30195
:10087000BDE2B08311E020E0412F522F00C02E8155
:10088000203281F40C811D8198012F5F3F4F2C8312
:100890003D838E010A5F1F4FF901E00FF11F0081B8
:1008A000202FEECF022F0030D1F0FA01E60DF71D18
:1008B00000830C811D8198012F5F3F4F2C833D8366
:1008C0008A010F5F1F4FB8018E010A5F1F4FF901A8
:1008D000E00FF11F0081202F022FAB01E4CF0E8D1E
:1008E000003010E009F41FEF503009F4403000E010
:1008F00009F40FEF012351F0FA01E60DF71DB0E303
:10090000B0838A010F5F1F4F980101C09A013030F8
:1009100009F4213010E009F41FEF0E8D012359F086
:10092000F901E60DF71DB0E3B08389010F5F1F4F9A
:10093000A8019A0100C0F901E60DF71DBEE2B083DF
:1009400089010F5F1F4FA801B6E0BC83B0E0BD83F3
:10095000288D2030F9F0203219F420E3022F01C055
:10096000022FFA01E60DF71D00830C811D8198010D
:100970002F5F3F4F2C833D838A010F5F1F4FB801CC
:100980008E010E5E1F4FF901E00FF11F0081AB01D8
:10099000202FDFCFFA01E60DF71DB0E0B083A0965F
:1009A000CDBFDEBFDF91CF910895CF93DF93CDB759
:1009B000DEB72397CDBFDEBF2196B0E83B1611F41A
:1009C000B0E02B1681F4F201BDE2B193B3E3B19331
:1009D000B2E3B193B7E3B193B6E3B193B8E3B193A4
:1009E000B0E0B19351C0B0E0BA8300E010E020164F
:1009F00031063CF4BFEFBA8300E010E0021913099E
:100A00001801F201B0E2B193B0E2B193B0E2B19358
:100A1000B0E2B193B0E2B193B0E3B193B0E0B1937F
:100A200082010B5F1F4F08831983B0E03B1611F45E
:100A3000B0E02B1611F15F924F923F922F924AE055
:100A400050E0810131D18C012F903F90005DE88111
:100A5000F98100833F922F924AE050E0810124D136
:100A60008B012F903F904F905F9018010881198162
:100A70000150104008831983D8CF0A81002321F048
:100A8000E881F981BDE2B0832296CDBFDEBFDF9160
:100A9000CF9108956894B6DB08952F92B1E02B169C
:100AA00019F4B0E82B2E14C0B2E02B1619F4B0ECF8
:100AB0002B2E0EC0B3E02B1619F4B4E92B2E08C070
:100AC000B4E02B1619F4B4ED2B2E02C0B0E82B2E97
:100AD000032D0150020D202EB0917900B460B09327
:100AE0007900202E0E94503DB0917900BB7FB093D9
:100AF0007900242C0E94503DB0917900B460B093ED
:100B000079002F9008952CBE089523BC0895B1E17B
:100B10004B1619F43BBC2ABC06C0B2E14B1619F4C3
:100B200039BC28BC00C00895CF93DF93CDB7DEB7A2
:100B30002297CDBFDEBF2196022D015010E042E387
:100B400051E01DD72AEF30E0020F131F432D415013
:100B50000883198309E910E050E011D72881398111
:100B6000020F131FF8017196B0E5B193B2E7B1938C
:100B7000BAE3B193B0E2B193B0E2B193B0E2B19312
:100B8000B0E2B193B0E2B193B0E2B193B2E3B1930A
:100B9000B0E2B193B0E2B193B0E2B193B3E3B193F9
:100BA000B0E2B193B0E2B193B0E0B193022D015045
:100BB00010E042E351E0E3D62AEF30E0020F131FCA
:100BC000432D41500883198309E910E050E0D7D63E
:100BD00028813981020F131F0D5C1F4FF801719698
:100BE000B0E5B193B2E7B193BAE3B193B0E2B19398
:100BF000B1E3B193B0E2B193B0E2B193B0E2B1939B
:100C0000B0E2B193B0E2B193B0E2B193B0E2B1938C
:100C1000B0E2B193B3E3B193B0E2B193B0E2B19378
:100C2000B0E0B193022D015010E042E351E0A7D6AD
:100C30002AEF30E0020F131F432D41500883198320
:100C400009E910E050E09BD628813981020F131F7B
:100C50000A591F4FF8017196B0E5B193B2E7B1930D
:100C6000BAE3B193B0E2B193B1E3B193B0E2B1931F
:100C7000B0E2B193B0E2B193B0E2B193B2E3B19319
:100C8000B0E2B193B0E2B193B0E2B193B0E2B1930C
:100C9000B0E2B193B0E2B193B0E0B1932196CDBF91
:100CA000DEBFDF91CF910895C801BA0197FB092EED
:100CB00007260AD077FD04D00CD006D000201AF405
:100CC000709561957F4F0895F6F7909581959F4FA8
:100CD0000895AA1BBB1B51E107C0AA1FBB1FA61783
:100CE000B70710F0A61BB70B881F991F5A95A9F7D5
:100CF00080959095BC01CD0108950895CF93DF9321
:100D0000CDB7DEB76897CDBFDEBF21962F923F9259
:100D10004F925F92AC2FBD2F0CE30D93F20173D471
:100D200000E20D9304E50D9309E60D930DE60D9396
:100D300009E60D930EE60D9307E60D930EE30D9372
:100D400000E00D938E013F922F922801B1E03B2EDF
:100D5000B1E02B2E0E942F2B2F90BDE93B2EB0E04F
:100D60004B2E0E949B2A3F90AC2FBD2F0DE40D937C
:100D700009E60D930EE60D930AE30D93EDE9F0E01D
:100D800042D400E00D938E013F922801B1E03B2E4A
:100D9000B2E02B2E0E942F2B3F90232CBDE93B2E3F
:100DA000B0E04B2E0E949B2AAC2FBD2F03E50D9384
:100DB00005E60D9303E60D930AE30D93EDE9F0E0EC
:100DC00022D400E00D938E012801B9E03B2EB2E061
:100DD0002B2E0E942F2B5F904F903F902F90679665
:100DE000CDBFDEBFDF91CF91089500917400202F19
:100DF0002F5FB0E04B1610E009F41FEF0B33B0E0AB
:100E000009F4BFEF0B2F0123022B401640F0009195
:100E10006A000F5F00936A004092740006C0009160
:100E20007400401611F04092740000918100202F50
:100E30002F5FB0E03B1610E009F41FEF0B33B0E07A
:100E400009F4BFEF0B2F0123022B301618F030925C
:100E5000810006C000918100301611F030928100AF
:100E600000916A000C3340F0B0E0B0936A0000914A
:100E700069000F5F00936900009169000C3358F01E
:100E8000B0E0B0936900B0E0B0936A0000918200D6
:100E90000F5F0093820000918200083148F0B0E0BB
:100EA000B0938200B0E0B0936900B0E0B0936A0004
:100EB00008952F923F924F925F926F927F92022DF0
:100EC00010E0432D50E05BD544E650E0F5DB8C01AB
:100ED00020E0322FDFDD4F923F922F92180129013F
:100EE00082DB2F903F904F90A801B9017F936F93C1
:100EF0005F934F934F923F922F92B8E86B2EB0E0E2
:100F00007B2E18012901ECDB2F903F904F904F91E1
:100F10005F916F917F918A019B01D0D998013F9396
:100F20002F934F923F922F92BDE94B2EB0E05B2E54
:100F300018013BDD2F903F904F902F913F91B2E0F1
:100F40004B1629F4B2E14B2E1901E1DD75C0B1E079
:100F50004B1629F4B1E14B2E1901D9DD6DC0BEE16C
:100F60004B16A9F4B0E02B1629F4232CB0E03B2E4D
:100F7000CADD0CC0231421F422243324C4DD06C0AE
:100F8000032D10E0021B130B1801BDDD55C0B1E2AB
:100F90004B1649F4B0E02B1619F41901B4DD02C068
:100FA0001901B1DD49C0B4E04B1651F4B0E02B1685
:100FB00021F422243324A9DD02C01901A6DD3CC09E
:100FC000B7E34B1619F4222E74DA36C0BDE24B1685
:100FD00029F4B2E04B2E19019ADD2EC0B2E34B1674
:100FE00019F4222E66DA28C0B9E14B1689F4B0E074
:100FF0002B1639F4032D10E0021B130B18015BDADA
:1010000006C0032D10E0021B130B180154DA14C0A4
:10101000B3E24B1689F4B0E02B1639F4032D10E03F
:10102000021B130B180141DA06C0032D10E0021B4E
:10103000130B18013ADA00C07F906F905F904F90C9
:101040003F902F900895B0917900B3FD08C0B0B3E0
:10105000B064B0BBB0917900B860B09379000895E6
:10106000CF93DF93CDB7DEB72A97CDBFDEBF2196F2
:1010700000E010E0B0E1BA83B7E2BB83B0E0B88330
:10108000B983B0E0BE83BF83B887B987B0E0BC83C3
:10109000BD8308811981F801E20DF31D0081003044
:1010A00009F446C008811981F801E20DF31D0081A1
:1010B0000D3259F4BFEFBC83B0E0BD8308811981C4
:1010C0000F5F1F4F08831983E4CF08811981F8014E
:1010D000E20DF31D00810032E1F008811981F80171
:1010E000E20DF31D008110E00053104020E0322F8C
:1010F0004A815B8160E0762F5CDA4E815F81688592
:101100007985040F151F261F371F0E831F8328871D
:1011100039874AE050E00A811B81CEDA8C010A83CC
:101120001B83088119810F5F1F4F08831983B1CF7B
:101130000C811D81B02FB12B29F0B6E0BA83B0E04D
:10114000BB8304C0B5E0BA83B0E0BB83288139819A
:101150000A811B8120173107D1F03F922F924AE07C
:1011600050E060E070E00E811F8128853985A7D9A5
:1011700089019A012F903F900E831F83288739871A
:10118000088119810F5F1F4F08831983DFCF2E81DC
:101190003F810C811D81B02FB12B39F000E010E0B0
:1011A000021B130BA8019A0100C089012996CDBF2B
:1011B000DEBFDF91CF910895CF93DF93CDB7DEB738
:1011C0002897CDBFDEBF21962F923F924F925F921C
:1011D0006F927F928F929F924F923F922F92B8E69A
:1011E0008B2EB0E09B2EB2E66B2EB0E07B2EB0E6ED
:1011F0004B2EB0E05B2EB4E62B2EB0E03B2EB0E0E1
:10120000BF93BBE6BF93B0E0BF93BDE6BF93B0E032
:10121000BF93BCE6BF930E94EE2BADB7BEB7169648
:10122000ADBFBEBF2F903F904F903F922F92B1E045
:101230002B2E9CD32F903F904F923F922F920E9443
:10124000822B2F903F902101B1E03B2EB1E02B2E5D
:101250000E942F2BFE013296B0E5B193B2E7B19315
:10126000BFE6B193B7E6B193BAE3B193B0E0B193FF
:101270008E010E5F1F4F2801B8E03B2EB1E02B2EF0
:101280000E942F2B4F908E01242C302E412E0E9435
:101290009B2A8E012801BCE03B2EB1E02B2E0E9440
:1012A0002F2BBAE3BA83B0E0BB838E010E5F1F4FD2
:1012B0002801BCE03B2EB1E02B2E0E942F2BFE011B
:1012C0003296BDE4B193B9E6B193BEE6B193BAE309
:1012D000B193B0E0B1938E010E5F1F4F2801B1E0D2
:1012E0003B2EB2E02B2E0E942F2BFE013296BCE249
:1012F000B193B3E5B193B5E6B193B3E6B193BAE375
:10130000B193B0E0B1938E010E5F1F4F2801B9E099
:101310003B2EB2E02B2E0E942F2B009162001091E9
:101320006300007F1070B4E015950795BA95E1F75A
:101330004AE050E024D320916200309163002F7086
:101340003070020F131F009362001093630000912E
:10135000600010916100007F1070B4E01595079552
:10136000BA95E1F74AE050E00AD32091600030914D
:1013700061002F703070020F131F009360001093F4
:1013800061001091690020916A00009169004AE0B3
:101390000E94CB26005D2F931F93402EB5E03B2E7D
:1013A000B2E02B2E7ADB1F914AE0012F0E94CB2660
:1013B000092F005D402EB6E03B2EB2E02B2E6DDBF8
:1013C0002F914AE0022F0E94CB26005D2F93402EE2
:1013D000BEE03B2EB2E02B2E60DB2F914AE0022FC5
:1013E0000E94CB26092F005D402EBFE03B2EB2E0CD
:1013F0002B2E53DB9F908F907F906F905F904F903C
:101400003F902F902796CDBFDEBFDF91CF910895FB
:10141000CF93DF93CDB7DEB72797CDBFDEBF219641
:10142000B1E0B883B1E0BA83B1E0B9830981201695
:1014300008F4D5C00881015010E042E351E09FD28A
:101440002AEF30E0020F131F4A8141500D831E83A3
:1014500009E910E050E093D22D813E81020F131F65
:10146000498141500D831E8303E310E050E087D291
:101470002D813E81F801E20FF31FB0E2B193B0E29B
:10148000B193B0E2B193B0E2B193B0E2B193B0E204
:10149000B193B0E2B193B0E2B193B0E2B193B0E2F4
:1014A000B193B0E2B193B0E2B193B0E2B193B0E2E4
:1014B000B193B0E2B193B0E2B193B0E0B1930881DF
:1014C000015010E042E351E05AD22AEF30E0020F1F
:1014D000131F4A8141500D831E8309E910E050E03B
:1014E0004ED22D813E81020F131F498141500D8341
:1014F0001E8303E310E050E042D22D813E81020FB3
:10150000131FF8017196B0E2B193B0E2B193B0E26B
:10151000B193B0E2B193B0E2B193B0E2B193B0E273
:10152000B193B0E2B193B0E2B193B0E2B193B0E263
:10153000B193B0E2B193B0E2B193B0E2B193B0E253
:10154000B193B0E2B193B0E0B1930881015010E0E3
:1015500042E351E014D22AEF30E0020F131F4A8118
:1015600041500D831E8309E910E050E008D22D811F
:101570003E81020F131F498141500D831E8303E3F7
:1015800010E050E0FCD12D813E81020F131FF801C5
:10159000B296B1E3B193B0E0B1930A810150202F2C
:1015A00030E0220F331F00E910E0F901E00FF11FD6
:1015B000B0E0B0830A810150202F30E0220F331FAA
:1015C00000E910E0020F131FF8013196B0E0B0837C
:1015D0000981021521F009810F5F098327CF0A8154
:1015E000023021F00A810F5F0A831ECF088102308A
:1015F00021F008810F5F088315CF2696CDBFDEBF8F
:10160000DF91CF9108950190002011F00D92D9F74C
:101610000895CF93DF93CDB7DEB72C97CDBFDEBF54
:1016200021962F923F924F925F926F927F928F926C
:10163000B0E02B1609F4A1C000915F03015010E047
:1016400042E351E09CD10A871B872AEF30E0020F6A
:10165000131F40915E0341500883198309E910E08C
:1016600050E08DD1288139810A831B83020F131F1B
:10167000442D41500883198303E310E050E07FD1EB
:1016800028813981200F311F288739872AEF30E0E0
:101690006A857B85260F371F4A815B81240F351FA2
:1016A000200F311F2F5E3F4F2E833F832AEF30E004
:1016B000260F371F240F351F020F131F0E5D1F4FFC
:1016C0000C831D830AEF10E0060F171F0883198390
:1016D00009E910E040915E0350E051D12881398141
:1016E0000A831B83020F131F422D41500883198365
:1016F00003E310E050E043D128813981702E812E20
:10170000720E831E2AEF30E06A857B85260F371F15
:101710004A815B81240F351F200F311F922FA32F89
:101720009F5EAF4F20915E03822F8F5F2AEF30E0E4
:10173000260F371F240F351F020F131FB8016E5DD0
:101740007F4F488559852E813F810C811D816F9285
:101750007F936F938F93AF939F938F927F92702E0F
:10176000812E29011A0160905E030E94A002ADB78C
:10177000BEB71896ADBFBEBFECC000915F0301506D
:1017800010E042E351E0FBD00A871B872AEF30E0EC
:10179000020F131F40915E0341500883198309E92A
:1017A00010E050E0ECD0288139810A831B83020FBE
:1017B000131F442D41500883198303E310E050E0C8
:1017C000DED02881398108871987200F311F2E83A9
:1017D0003F832AEF30E06A857B85260F371F4A81D9
:1017E0005B81240F351F200F311F2F5E3F4F2C834D
:1017F0003D832AEF30E0260F371F240F351F020FDD
:10180000131F0E5D1F4F0A831B830AEF10E0060FA4
:10181000171F0883198309E910E040915E0350E027
:10182000AED028813981200F311F68857985762EC9
:10183000872E720E831E2AEF30E04A855B85240FC7
:10184000351F200F311F260F371F922FA32F9F5EAA
:10185000AF4F20915E03822F8F5F2AEF30E0240F7D
:10186000351F020F131F060F171FB8016E5D7F4F44
:101870004E815F812C813D810A811B813F926F9255
:101880007F936F938F93AF939F938F927F92702EDE
:10189000812E29011A0160905E030E94A002ADB75B
:1018A000BEB71896ADBFBEBF3F90232CBDE93B2EFF
:1018B000B0E04B2E0E949B2A00915E030150202F26
:1018C00030E0220F331F00E910E0020F131FF80170
:1018D000319600810030B9F000915E030150202F55
:1018E00030E0220F331F00E910E0020F131FF80150
:1018F00031960081BDE94B2EB0E05B2E302E20905A
:101900005E030E942F2B00915E03202F30E0220FF8
:10191000331F00E910E0020F131FF8013196008118
:101920000030B9F000915E03402F4F5F202F30E070
:10193000220F331F00E910E0020F131FF801319648
:101940000081BDE94B2EB0E05B2E302E242E0E948C
:101950002F2B8F907F906F905F904F903F902F90A4
:101960002B96CDBFDEBFDF91CF91089508951BE088
:1019700008E50A95F1F71A95E1F700000895980136
:10198000249F8001259F100D349F100D0895CF9343
:10199000DF93CDB7DEB72397CDBFDEBF2196B0E092
:1019A000B883B0E8B983B0E0BA8309811A811030F6
:1019B00009F4003009F439C00E94C52A0E94C52AE2
:1019C000B0913400BD7FB09334000E94C52A0E94BC
:1019D000C52AB0913400BE7FB0933400B091790035
:1019E000BD7FB0937900B0913300B0FD06C0B091D7
:1019F0007900B1FF01C001C0F6CFB0913300B1FF53
:101A000004C018810981012B08830E94C52A0E9405
:101A1000C52AB0913400B160B093340009811A81B5
:101A20001695079509831A83C0CFB0913400BD7F06
:101A3000B09334000E94C52A0E94C52AB0E03B162C
:101A400011F4B0E02B1629F0B0913400B260B093DD
:101A500034000E94C52A0E94C52AB0913400BE7F7E
:101A6000B0933400B0917900BD7FB0937900B0910C
:101A70003300B0FD06C0B0917900B1FF01C001C0D4
:101A8000F6CF0E94C52A0E94C52AB0913400B160E9
:101A9000B09334000E94C52A0E94C52AB091340038
:101AA000B260B093340008812296CDBFDEBFDF91D3
:101AB000CF910895B0913400B260B09334000E9489
:101AC000C52A0E94C52AB0913400BE7FB09334006D
:101AD000B0917900BD7FB0937900B0913300B0FD33
:101AE00006C0B0917900B1FF01C001C0F6CF0E94DD
:101AF000C52A0E94C52A0E94C52A0E94C52A0E94A2
:101B0000C52A0E94C52A0E94C52A0E94C52AB091F2
:101B10003400BD7FB09334000E94C52A0E94C52ABC
:101B20000895B0917900BB7FB09379000E94503D39
:101B3000B0917900B460B09379000895B091340009
:101B4000BD7FB09334000E94C52A0E94C52AB0917F
:101B50003400BE7FB09334000E94C52A0E94C52A7B
:101B6000B0913400B260B09334000E94C52A0E9444
:101B7000C52AB0913400B160B09334000895CF937A
:101B8000DF93CDB7DEB72397CDBFDEBF2196B1E09F
:101B9000B883B0E8B983B0E0BA8309811A81103004
:101BA00009F4003009F443C00E94C52A0E94C52AE6
:101BB0000E94C52A0E94C52AB0913400B160B0933A
:101BC00034000E94C52A0E94C52A09811A81022177
:101BD0001070103009F4003031F0B0913400BD7F46
:101BE000B093340005C0B0913400B260B0933400BB
:101BF0000E94C52A0E94C52AB0913400BE7FB093CE
:101C00003400B0917900BD7FB0937900B09133007A
:101C1000B0FD06C0B0917900B1FF01C001C0F6CFA0
:101C200009811A811695079509831A83B6CFB0E00A
:101C3000B8830E94C52A0E94C52AB0913400B160C1
:101C4000B09334000E94C52A0E94C52AB091340086
:101C5000BD7FB09334000E94C52A0E94C52A0E940D
:101C6000C52A0E94C52AB0913400BE7FB0933400CB
:101C7000B0917900BD7FB0937900B0913300B0FD91
:101C800006C0B0917900B1FF01C001C0F6CFB0E04D
:101C9000B8830E94C52A0E94C52AB0913300B1FFC3
:101CA00003C00881016008830E94C52A0E94C52ADA
:101CB0000E94C52A0E94C52A0E94C52A0E94C52AE0
:101CC0000E94C52A0E94C52A0E94C52A0E94C52AD0
:101CD0000E94C52A0E94C52A0E94C52A0E94C52AC0
:101CE0000E94C52A0E94C52AB0913400B160B09309
:101CF0003400B0913400B260B09334000881229671
:101D0000CDBFDEBFDF91CF910895CF93DF93CDB7E5
:101D1000DEB7A297CDBFDEBF21968F92B1E0B09320
:101D20005F03B1E0B0935E037F926F925F924F9238
:101D30003F922F920E94822B2F903F904F905F9066
:101D40006F907F90B0E03B1611F4B0E02B1631F4A9
:101D500081010F5F1F4F0F83188702C02F823886C3
:101D6000B0916700B061B0936700B0916700BF7D2C
:101D7000B0936700B0916700B77FB0936700B0E0A1
:101D8000B987B0916700BD7FB0936700B0916700DD
:101D9000BB7FB0936700B0916700B4FFBBC3B1E0F5
:101DA000B0935F03B1E0B0935E03062D10E002151F
:101DB0001305A4F47F926F925F924F923F922F92FD
:101DC000462D50E081010E9454068C012F903F90D7
:101DD0004F905F906F907F900F8318870F811885C9
:101DE000103009F4003021F4B1E0BF83B0E0B887CF
:101DF0000985023011F4B0E0B98709850F5F0987C2
:101E00007F926F925F924F923F922F92602E4F80FF
:101E10005884322C272CFDDB2F903F904F905F9001
:101E20006F907F90B1E0B0936E0010916E0005EF5F
:101E3000011708F46CC300916E000F5F00936E00F1
:101E40007F926F925F924F923F922F92B1E06B2EF2
:101E5000B1E05B2EB1E04B2EB6E32B2EB0E03B2E73
:101E60000E946B322F903F904F905F906F907F90C9
:101E7000002309F4C3C0B0916700B062B09367005B
:101E80003F922F92B1E02B2E71DD2F903F90B6EF55
:101E9000B0936E00B1E0BB83B0E0BC83B0E0BD8323
:101EA000BE83B0E0B983BA8329E01EE105EE0A954E
:101EB000F1F71A95E1F72A95D1F7000009811A8107
:101EC000103009F4003009F099C00D811E810F5FB8
:101ED0001F4F0D831E837F926F925F924F923F92AE
:101EE0002F92B1E06B2EB4E65B2EB1E04B2EB6E341
:101EF0002B2EB0E03B2E0E946B322F903F904F90E4
:101F00005F906F907F900023A9F07F926F925F9215
:101F10004F923F922F92442D50E00D811E810E94DE
:101F200054068C012F903F904F905F906F907F9060
:101F30000B831C830B811C819801220D331D190119
:101F4000042D10E00217130724F4252CB0E03B2EDB
:101F500000C02F8138850B811C81200F311F2F83FA
:101F60003887062D10E0021713072CF4B1E0BF8369
:101F7000B0E0B88700C00F811885103009F4003038
:101F800021F4B1E0BF83B0E0B8870985023010F0DA
:101F9000B0E0B98709850F5F09877F926F925F92E2
:101FA0004F923F922F92602E4F805884322C272CD4
:101FB00030DB6624B1E05B2EB1E04B2EB6E32B2E76
:101FC000B0E03B2E0E946B322F903F904F905F907D
:101FD0006F907F9000906700112705FC13950123F7
:101FE00061F0B0916700BF7DB0936700B8E3B09334
:101FF0006E00B1E0B983B0E0BA8360CF7F926F9298
:102000005F924F923F922F92B1E06B2EB1E05B2E28
:10201000B4E04B2EB6E32B2EB0E03B2E0E946B3289
:102020002F903F904F905F906F907F90002309F426
:10203000C1C0B0916700B860B09367003F922F9223
:10204000B1E02B2E93DC2F903F90B6EFB0936E0053
:10205000B1E0BB83B0E0BC83B0E0BD83BE83B0E041
:10206000B983BA8329E01EE105EE0A95F1F71A95C6
:10207000E1F72A95D1F7000009811A81103009F49F
:10208000003009F097C00D811E810F5F1F4F0D8337
:102090001E837F926F925F924F923F922F92B1E098
:1020A0006B2EB4E65B2EB4E04B2EB6E32B2EB0E0E5
:1020B0003B2E0E946B322F903F904F905F906F901D
:1020C0007F900023A9F07F926F925F924F923F9290
:1020D0002F92442D50E00D811E810E9454068C01E8
:1020E0002F903F904F905F906F907F900B831C8359
:1020F0000B801C8081010019110918010515B0E041
:102100001B0724F4242CB0E03B2E00C00B801C8065
:102110002F813885201931092F83388701E010E09D
:102120002017310724F46F82B0E0B88700C00F8118
:102130001885103009F4003021F4B1E0BF83B0E01D
:10214000B8870985023010F0B0E0B98709850F5FC4
:1021500009877F926F925F924F923F922F92602EEB
:102160004F805884322C272C54DA6624B1E05B2E41
:10217000B4E04B2EB6E32B2EB0E03B2E0E946B3228
:102180002F903F904F905F906F907F9000906700EE
:10219000112703FC1395012361F0B0916700B77F0D
:1021A000B0936700B6EFB0936E00B1E0B983B0E0D2
:1021B000BA8362CF20927300B2E0B0935F03B09114
:1021C0006700BB7FB09367007F926F925F924F92E0
:1021D0003F922F926624B1E05B2EB2E04B2EB6E325
:1021E0002B2EB0E03B2E0E946B320030B0E009F0A5
:1021F000BFEF0B2F0E8B6624B1E05B2E4424B6E3B9
:102200002B2EB0E03B2E0E946B322F903F904F90D0
:102210005F906F907F90003010E009F01FEF0E8903
:10222000012B79F0B0916700B260B09367003F92E4
:102230002F92B1E02B2E9ADB2F903F90B6EFB09308
:102240006E007F926F925F924F923F922F92B1E019
:102250006B2EB1E05B2EB2E04B2EB6E32B2EB0E03E
:102260003B2E0E946B3200906700112701FC1395F2
:1022700001230E8B1090670000906700E89414FC17
:1022800006FE01C0689440F8B1E06B2EB1E05B2E11
:102290004424B6E32B2EB0E03B2E0E946B322F90ED
:1022A0003F904F905F906F907F90112740FC139567
:1022B00010230E89012B09F429C1B0916700BD7F5D
:1022C000B0936700B0916700BF7EB0936700B6EF30
:1022D000B0936E0000917200102F1F5F1093720078
:1022E00000916F00101719F4B1E0B09372000091E3
:1022F0005F03015010E042E351E041DB08A319A362
:102300002AEF30E0020F131F40915E0341500E8B05
:102310001F8B09E910E050E032DB2E893F89088FDE
:10232000198F020F131F4F8141500E8B1F8B03E338
:1023300010E050E024DB2E893F890E8F1F8F200F85
:10234000311F2C8F3D8F2AEF30E068A179A1260F35
:10235000371F488D598D240F351F200F311F2F5ED9
:102360003F4F2A8F3B8F2AEF30E0260F371F240F75
:10237000351F020F131F0E5D1F4F088F198F0AEFB5
:1023800010E0060F171F0E8B1F8B09E910E040911C
:102390005E0350E0F4DA2E893F89200F311F6E8DE5
:1023A0007F8D4B01820E931E2AEF30E048A159A188
:1023B000240F351F200F311F260F371F922FA32FF9
:1023C0009F5EAF4F20915E03822F8F5F2AEF30E038
:1023D000240F351F020F131F060F171FB8016E5D64
:1023E0007F4F4C8D5D8D2A8D3B8D088D198D7F9291
:1023F0006F925F924F923F922F9209850F937F9336
:102400006F938F93AF939F939F928F92702E812E95
:1024100060905E0329011A010E94A002ADB7BEB709
:102420001896ADBFBEBF2F903F904F905F906F90BA
:102430007F9000915E030150202F30E0220F331F68
:1024400000E910E0F901E00FF11F0081003041F1D7
:102450007F926F925F924F923F922F92BDE93B2EF7
:10246000B0E04B2E0E949B2A00915E030150202F6A
:1024700030E0220F331F00E910E0F901E00FF11FF7
:102480000081BDE94B2EB0E05B2E302E20905E0324
:102490000E942F2B2F903F904F905F906F907F90D6
:1024A00000915E03202F30E0220F331F00E910E07F
:1024B000F901E00FF11F0081003041F17F926F922E
:1024C0005F924F923F922F92BDE93B2EB0E04B2E90
:1024D0000E949B2A00915E03402F4F5F202F30E027
:1024E000220F331F00E910E0F901E00FF11F008116
:1024F000BDE94B2EB0E05B2E302E242E0E942F2BF8
:102500002F903F904F905F906F907F908ECC209255
:10251000730041CC00917300088329E216E900E8BA
:102520000A95F1F71A95E1F72A95D1F708818F906E
:10253000A196CDBFDEBFDF91CF910895CF93DF93FA
:10254000CDB7DEB76E97CDBFDEBF21965F926F929B
:102550007F928F929F92B1E0B093640320926303C5
:10256000B1E0B093F900B0916700B061B09367003B
:10257000B0916700BF7BB093670020926303B1E026
:10258000B0939800B1E0B0937E00B0E0B0937F00CC
:10259000B0938000B0916700B4FFC4C0B0E03B16B8
:1025A00009F045C04F923F922F926624B5E05B2E12
:1025B000B3E04B2EB0E32B2EB0E03B2E0E946B32EB
:1025C0002F903F904F90002389F0B0916700B06446
:1025D000B0936700B1E03B2EB0916700BF7EB0932F
:1025E00067002F92B1E02B2EC1D92F904F923F92CE
:1025F0002F92B1E06B2EB5E05B2EB3E04B2EB0E333
:102600002B2EB0E03B2E0E946B322F903F904F90CC
:1026100000906700112706FC1395012339F0B1E003
:102620003B2EB0916700BF7EB09367007AC0B09137
:102630006700BF7EB093670000917F00109180001B
:10264000103009F4003009F06CC04F923F922F9285
:102650000E94822BFE01B7E5B193B1E6B193B4E7D6
:10266000B193B9E6B193BEE6B193B7E6B193B0E2E8
:10267000B193B6E6B193BFE6B193B2E7B193B0E2DE
:10268000B193BAE3B193B0E0B1938E012801B1E008
:102690003B2EB1E02B2E0E942F2BFE01B0E5B19313
:1026A000B2E7B193B5E6B193B3E7B193B3E7B193B2
:1026B000B9E6B193BEE6B193B7E6B193B0E2B19398
:1026C000B8E4B193B5E6B193B1E6B193B4E7B19391
:1026D000B5E6B193B2E7B193B0E2B193BDE6B19381
:1026E000B9E6B193B3E6B193B2E7B193BFE6B19364
:1026F000B0E2B193B3E5B193B7E5B193B0E0B19374
:102700008E012801B1E03B2EB2E02B2E0E942F2B30
:102710002F903F904F90B1E0B0937F00B0E0B09326
:10272000800038CFB1E03B1609F02DC6B1E0B09380
:10273000640320926303B1E0B093F9004F923F929B
:102740002F920E94822BB8E68B2EB0E09B2EB4E72E
:102750006B2EB0E07B2EB1E84B2EB0E05B2EB4E6E2
:102760002B2EB0E03B2EB0E0BF93BBE6BF93B0E0B2
:10277000BF93BDE6BF93B0E0BF93BCE6BF930E949A
:10278000EE2BADB7BEB71696ADBFBEBFB0E0B093EF
:102790006A00B0E0B0936900B0E0B0938200B6E99F
:1027A0008B2EB0E09B2EB4E96B2EB0E07B2EB5E90A
:1027B0004B2EB0E05B2EBCE92B2EB0E03B2EB3E0FD
:1027C000BF93B2E6BF93B0E0BF93B7E9BF93B0E069
:1027D000BF93B8E9BF930E94EE2BADB7BEB7169674
:1027E000ADBFBEBF2F903F904F900E948F2B0091A6
:1027F0009400009374000091950000938100009173
:102800009C00009364004F923F922F92B6E98B2E6A
:10281000B0E09B2EB4E96B2EB0E07B2EB5E94B2ED9
:10282000B0E05B2EBCE92B2EB0E03B2EB3E0BF93B3
:10283000B2E6BF93B0E0BF93B7E9BF93B0E0BF93F8
:10284000B8E9BF930E94EE2BADB7BEB71696ADBFE9
:10285000BEBF2F903F904F900E948F2B4F923F9280
:102860002F92409094003090950020909C000E9400
:10287000F5062F903F904F90B0916700B061B093F4
:102880006700B1E04B1609F08BC0B1E0B093F900DE
:10289000B1E0B093640300916303015010E048E19C
:1028A00050E06DD821EB30E0020F131F409164031C
:1028B0004150098F1A8F0CE010E050E060D8298D4C
:1028C0003A8D200F311F0091F900015010E0000FE8
:1028D000111F000F111F020F131FF8013196BCE3E7
:1028E000B08300916303015010E048E150E047D805
:1028F00021EB30E0020F131F409164034150098F18
:102900001A8F0CE010E050E03AD8298D3A8D200F54
:10291000311F0091F900015010E0000F111F000F4E
:10292000111F020F131FF8013296BCE3B083009110
:102930006303015010E048E150E021D821EB30E082
:10294000020F131F409164034150098F1A8F0CE04E
:1029500010E050E014D8298D3A8D200F311F0091DE
:10296000F900015010E0000F111F000F111FF801B6
:10297000E20FF31FB1E0B08300916403023031F045
:10298000009164030F5F0093640385CF0091F90009
:10299000033031F00091F9000F5F0093F90078CF18
:1029A000B2E0B093640320926303B1E0B093F90006
:1029B000022D015010E048E150E00E94BF0C21EBD5
:1029C00030E0020F131F045F1F4FF80133960081A0
:1029D0004F923F922F92B3E83B2EB0E04B2E202E29
:1029E0000E949B2AB3E82B2EB0E03B2E0E943008B9
:1029F000B0916700B061B0936700B0917900B77F84
:102A0000B0937900B1E0B0938E00B6E98B2EB0E0C0
:102A10009B2EB4E96B2EB0E07B2EB5E94B2EB0E0D7
:102A20005B2EBCE92B2EB0E03B2EB3E0BF93B2E6A9
:102A3000BF93B0E0BF93B7E9BF93B0E0BF93B8E9ED
:102A4000BF930E94EE2BADB7BEB71696ADBFBEBF0B
:102A50002F903F904F900E948F2B009194000093F5
:102A60007400009195000093810000919C000093F8
:102A700064004F923F922F924090940030909500C6
:102A800020909C000E94F5062F903F904F90B0E060
:102A9000B0936A00B0E0B0936900B0E0B0938200F8
:102AA000B0916700BF7BB0936700B0E0B0938F0038
:102AB000B0E0B0938E00B2E0B0936403B0E0B093A6
:102AC0008D00B0E0B0938F00B0B3BF7BB0BBB091CE
:102AD0006700BF7BB0936700B0916700B061B093AF
:102AE0006700B0917900B77FB0937900B09167002B
:102AF000B4FF44C400916303015010E048E150E08A
:102B00000E94BF0C0B8F1C8F21EB30E0020F131FB4
:102B1000409164034150098F1A8F0CE010E050E09F
:102B20000E94BF0C298D3A8DA801420F531F20919E
:102B3000F9002150722F80E0770F881F770F881FD0
:102B4000272F382F240F351FF9013196308120911E
:102B50006900321760E009F46FEF41EB50E02B8D14
:102B60003C8D240F351F020F131F070F181FF8018C
:102B70003296108100916A000117B0E008F0BFEFB3
:102B80000B2F062309F455C000916900003010E0B6
:102B900009F01FEF00916A000030B0E009F0BFEFCC
:102BA0000B2F012309F445C0B0916700BF7EB0939D
:102BB00067004F923F922F92B6E98B2EB0E09B2E8A
:102BC000B4E96B2EB0E07B2EB5E94B2EB0E05B2E66
:102BD000BCE92B2EB0E03B2EB3E0BF93B2E6BF932F
:102BE000B0E0BF93B7E9BF93B0E0BF93B8E9BF933C
:102BF0000E94EE2BADB7BEB71696ADBFBEBF2F90ED
:102C00003F904F900E948F2B4F923F922F92409077
:102C100094003090950020909C000E94F506409012
:102C2000F900BFEF3B2E22240E9459072F903F90BE
:102C30004F90B0916700B4FB90F9B1E04B1610E0F3
:102C400009F41FEF002790FD039501230D8F0091DC
:102C50006303015010E048E150E00E94BF0C0B8F6D
:102C60001C8F21EB30E0020F131F40916403415091
:102C7000098F1A8F0CE010E050E00E94BF0C298DE4
:102C80003A8DA801420F531F2091F9002150722F55
:102C900080E0770F881F770F881F272F382F240F8A
:102CA000351FF9013196308120916900231760E0CA
:102CB00008F46FEF41EB50E02B8D3C8D240F351F56
:102CC000020F131F070F181FF80132961081009191
:102CD0006A00101700E008F00FEF162F102B0D8D73
:102CE000012B09F407C24F923F922F92B6E98B2E27
:102CF000B0E09B2EB4E96B2EB0E07B2EB5E94B2EF5
:102D0000B0E05B2EBCE92B2EB0E03B2EB3E0BF93CE
:102D1000B2E6BF93B0E0BF93B7E9BF93B0E0BF9313
:102D2000B8E9BF930E94EE2BADB7BEB71696ADBF04
:102D3000BEBF2F903F904F900E948F2B4F923F929B
:102D40002F92409094003090950020909C000E941B
:102D5000F5062F903F904F9010916A0010938D00D0
:102D600000918F001017F9F000916A0000938F0016
:102D7000FE01B8E4B193B5E6B193B1E6B193B4E71F
:102D8000B193B5E6B193B2E7B193B0E0B1938E01E0
:102D90004F923F922F924090630318010E94DC08EB
:102DA0002F903F904F9000918E000030B9F5009128
:102DB0006303015010E048E150E00E94BF0C21EB9A
:102DC00030E0020F131F409164034150098F1A8FA6
:102DD0000CE010E050E00E94BF0C298D3A8D200FCE
:102DE000311F0091F900015010E0000F111F000F7A
:102DF000111F020F131FF801339600814F923F926B
:102E00002F924090F900BFEF3B2E202E0E945907D1
:102E10002F903F904F90B1E0B0938E004F923F9231
:102E20002F926624B5E05B2EB3E04B2EB0E32B2E41
:102E3000B0E03B2E0E946B322F903F904F900023CA
:102E400019F0B2E0B0938E004F923F922F92B1E012
:102E50006B2EB5E05B2EB3E04B2EB0E32B2EB0E033
:102E60003B2E0E946B322F903F904F90002309F42D
:102E70004AC0B0916700BF7EB09367004F923F9207
:102E80002F924090F900BFEF3B2E22240E94590759
:102E900021E11CE30CEC0A95F1F71A95E1F72A956C
:102EA000D1F700916303015010E048E150E00E9427
:102EB000BF0C21EB30E0020F131F4091640341501F
:102EC000098F1A8F0CE010E050E00E94BF0C298D92
:102ED0003A8D020F131F0C5F1F4FF80133960081CC
:102EE000B2E04B2EBFEF3B2E202E0E9459072F90B1
:102EF0003F904F90B0B3BF7BB0BB2F92B1E02B2E71
:102F00000E94B60C2F900E942308B1E04B1609F0E6
:102F100088C04F923F922F92B1E06B2EB5E05B2EAE
:102F2000B3E04B2EB0E32B2EB0E03B2E0E946B3271
:102F30002F903F904F90002309F472C0B09167002A
:102F4000B064B0936700B0916700BF7EB093670034
:102F50004F923F922F924090F900BFEF3B2E2224D8
:102F60000E9459072F903F904F90B0B3BF7BB0BBEA
:102F700000916303015010E048E150E00E94BF0C53
:102F800021EB30E0020F131F409164034150098F81
:102F90001A8F0CE010E050E00E94BF0C298D3A8D92
:102FA000200F311F0091F900015010E0000F111F98
:102FB000000F111F020F131FF801319600916900D5
:102FC000008300916303015010E048E150E00E944B
:102FD000BF0C21EB30E0020F131F409164034150FE
:102FE000098F1A8F0CE010E050E00E94BF0C298D71
:102FF0003A8D200F311F0091F900015010E0000FB1
:10300000111F000F111F020F131FF80132960091BC
:103010006A0000832F92B1E02B2E0E94B60C2F90F5
:1030200068C04F923F922F926624B5E05B2EB2E0CB
:103030004B2EB0E32B2EB0E03B2E0E946B322F9034
:103040003F904F9010918E001230B0E009F4BFEF26
:103050001B2F012301F1B0916700B064B0936700AA
:10306000B0916700BF7EB0936700B0B3BF7BB0BBC9
:103070004F923F922F924090F900BFEF3B2E2224B7
:103080000E9459072F903F904F902F92B1E02B2E26
:103090000E94B60C2F904F923F922F92B1E06B2E70
:1030A000B5E05B2EB2E04B2EB0E32B2EB0E03B2E12
:1030B0000E946B322F903F904F9000906700112735
:1030C00006FC13950123A9F0B0916700BF7EB09371
:1030D00067004F923F922F924090F900BFEF3B2E36
:1030E00022240E9459072F903F904F90B0B3BF7B8E
:1030F000B0BB43C1B0B3BF7BB0BB4F923F922F92E6
:10310000B6E98B2EB0E09B2EB4E96B2EB0E07B2E9F
:10311000B5E94B2EB0E05B2EBCE92B2EB0E03B2E88
:10312000B3E0BF93B2E6BF93B0E0BF93B7E9BF93FC
:10313000B0E0BF93B8E9BF930E94EE2BADB7BEB726
:103140001696ADBFBEBF2F903F904F900E948F2B21
:103150004F923F922F924090940030909500209093
:103160009C000E94F5064090F900BFEF3B2E222400
:103170000E945907FE01B8E4B193B5E6B193B1E6F8
:10318000B193B4E7B193B5E6B193B2E7B193B0E0D0
:10319000B1938E014090630318010E94DC080E94E5
:1031A000822BBDE94B2EB0E05B2E20906303B0E094
:1031B0003B2E0E94D504BDE94B2EB0E05B2EB1E062
:1031C0003B2EB1E02B2E0E942F2BFE01B9E6B193CE
:1031D000B3E7B193B0E2B193BFE4B193B6E6B19374
:1031E000B6E6B193BAE3B193B0E0B1938E01280192
:1031F000B8E03B2EB1E02B2E0E942F2B2F903F905A
:103200004F9000918E000130D1F5FE01B8E4B193EA
:10321000B5E6B193B1E6B193B4E7B193B5E6B19336
:10322000B2E7B193B0E2B193BFE6B193B6E6B19322
:10323000B6E6B193B0E0B1938E014F923F922F92D8
:103240002801B1E03B2EB2E02B2E0E942F2BBDE9CE
:103250004B2EB0E05B2EBAE03B2EB2E02B2E0E944C
:103260002F2B2F903F904F9029E11AE502EB0A9502
:10327000F1F71A95E1F72A95D1F7000000000091C7
:103280008E000030F1F5FE01B8E4B193B5E6B193DC
:10329000B1E6B193B4E7B193B5E6B193B2E7B193B8
:1032A000B0E2B193B5E4B193B2E7B193B2E7B193B1
:1032B000BFE6B193B2E7B193B0E0B1938E014F9204
:1032C0003F922F922801B1E03B2EB2E02B2E0E94BC
:1032D0002F2BBDE94B2EB0E05B2EBAE03B2EB2E0C7
:1032E0002B2E0E942F2B2F903F904F9029E11AE513
:1032F00002EB0A95F1F71A95E1F72A95D1F700004C
:103300000000FE01BFE4B193B6E6B193B6E6B19317
:10331000B0E2B193B0E7B193B7E7B193BDE6B19333
:10332000B0E2B193B8E6B193B5E6B193B1E6B1932B
:10333000B4E7B193B5E6B193B2E7B193B0E2B1931C
:10334000BDE6B193BFE6B193B4E6B193B5E6B193F0
:10335000B0E0B1938E014F923F922F922801B1E0DD
:103360003B2EB1E02B2E0E942F2B2F903F904F90A1
:10337000B0916700BF7EB0936700B8CBB091670093
:10338000BF7EB0936700B2E0B0936403B2E0B09345
:10339000F900B0916700B061B0936700B2E0B093FC
:1033A0008700B0917900B860B09379004F923F9256
:1033B0002F920E94822BFE01B7E5B193B1E6B19343
:1033C000B4E7B193B9E6B193BEE6B193B7E6B19372
:1033D000B0E2B193B6E6B193BFE6B193B2E7B19371
:1033E000B0E2B193BAE3B193B0E0B1938E0128019A
:1033F000B1E03B2EB1E02B2E0E942F2BFE01B0E559
:10340000B193B2E7B193B5E6B193B3E7B193B3E744
:10341000B193B9E6B193BEE6B193B7E6B193B0E22A
:10342000B193BDE4B193BFE6B193B4E7B193BFE606
:10343000B193B2E7B193B0E2B193BDE6B193B9E60F
:10344000B193B3E6B193B2E7B193BFE6B193B0E203
:10345000B193B3E5B193B7E5B193B0E0B1938E0109
:103460002801B1E03B2EB2E02B2E0E942F2B2F9093
:103470003F904F9021E11CE30CEC0A95F1F71A956F
:10348000E1F72A95D1F7B0916700B6FF13C0B1E01C
:103490004B1659F4B0917900B860B0937900B091AF
:1034A0006700BF7BB093670005C0B0917900B77F1C
:1034B000B0937900B0E0B0937F00B0938000B091FA
:1034C0007900B3FF81C04F923F922F92B1E06B2EF3
:1034D000B5E05B2EB3E04B2EB0E32B2EB0E03B2EDD
:1034E0000E946B322F903F904F90002329F0B091B3
:1034F0007900B77FB093790000917F001091800030
:10350000103009F4003009F05EC0FE01B7E5B19358
:10351000B1E6B193B4E7B193B9E6B193BEE6B19326
:10352000B7E6B193B0E2B193B6E6B193BFE6B1931B
:10353000B2E7B193B0E2B193BAE3B193B0E0B19323
:103540008E014F923F922F922801B1E03B2EB1E0C5
:103550002B2E0E942F2BFE01B4E4B193BFE6B19352
:10356000B7E7B193BEE6B193B9E6B193BEE6B193C6
:10357000B7E6B193B0E2B193B4E7B193B8E6B193D3
:10358000B5E6B193B0E2B193B0E5B193B1E6B193D2
:10359000B4E6B193B0E2B193B1E2B193B1E2B193C9
:1035A000B0E0B1938E012801B1E03B2EB2E02B2EAA
:1035B0000E942F2B2F903F904F90B1E0B0937F004F
:1035C000B0E0B09380007BCFB0917900B860B09349
:1035D0007900B0916700B061B0936700B0E0B0933C
:1035E0008E00B0E0B0936A00B0E0B0936900B0E044
:1035F000B0938200B1E0B0937E004F923F922F9241
:10360000B6E98B2EB0E09B2EB4E96B2EB0E07B2E9A
:10361000B5E94B2EB0E05B2EBCE92B2EB0E03B2E83
:10362000B3E0BF93B2E6BF93B0E0BF93B7E9BF93F7
:10363000B0E0BF93B8E9BF930E94EE2BADB7BEB721
:103640001696ADBFBEBF2F903F904F900E948F2B1C
:103650000091940000937400009195000093810004
:1036600000919C0000936400B1E0B0936A00B0E068
:10367000B0936900B0E0B0938200B1E0B0938F00E6
:10368000B0916700B061B0936700B0E0B0937F0085
:10369000B0938000B0916700B4FFBAC40091630397
:1036A000015010E048E150E00E94BF0C0B8F1C8FCE
:1036B00021EB30E0020F131F409164034150098F4A
:1036C0001A8F0CE010E050E00E94BF0C298D3A8D5B
:1036D000A801420F531F2091F9002150722F80E062
:1036E000770F881F770F881F272F382F240F351F3C
:1036F000F9013196308120916900321760E009F4B8
:103700006FEF41EB50E02B8D3C8D240F351F020FE6
:10371000131F070F181FF8013296108100916A00DD
:103720000117B0E008F0BFEF0B2F062309F481C1A9
:1037300000918E00023009F0BDC04F923F922F924F
:103740004090F900BFEF3B2E22240E945907FE0152
:10375000BDE4B193BFE6B193B4E7B193BFE6B193D3
:10376000B2E7B193B0E0B1938E01409063031801CA
:103770000E94DC0821E11CE30CEC0A95F1F71A9594
:10378000E1F72A95D1F70E94822BBDE94B2EB0E0DC
:103790005B2EB1E03B2EB1E02B2E0E942F2BFE01C1
:1037A000B9E6B193B3E7B193B0E2B193BFE4B1939B
:1037B000B6E6B193B6E6B193BAE3B193B0E0B19394
:1037C0008E012801B8E03B2EB1E02B2E0E942F2B5A
:1037D000FE01B0E5B193B2E7B193BFE6B193B7E6AE
:1037E000B193B0E2B193BEE6B193B5E7B193BDE654
:1037F000B193BAE3B193B0E0B1938E012801B1E087
:103800003B2EB2E02B2E0E942F2BBDE94B2EB0E0B9
:103810005B2EBAE03B2EB2E02B2E0E942F2B21E133
:103820001CE30CEC0A95F1F71A95E1F72A95D1F70C
:10383000FE01BFE4B193B6E6B193B6E6B193B0E250
:10384000B193B0E7B193B7E7B193BDE6B193B0E2FE
:10385000B193BDE4B193BFE6B193B4E7B193BFE6D2
:10386000B193B2E7B193B0E2B193BDE6B193BFE6D5
:10387000B193B4E6B193B5E6B193B0E0B1938E01E4
:103880002801B1E03B2EB1E02B2E0E942F2BBDE989
:103890004B2EB0E05B2E20906303B0E03B2E0E94E5
:1038A000D5042F903F904F90B0916700BF7EB093AA
:1038B00067007FC000917F0010918000103009F4F4
:1038C000003009F060C04F923F922F920E94822BED
:1038D000FE01B7E5B193B1E6B193B4E7B193B9E6B0
:1038E000B193BEE6B193B7E6B193B0E2B193B6E659
:1038F000B193BFE6B193B2E7B193B0E2B193BAE34B
:10390000B193B0E0B1938E012801B1E03B2EB1E05C
:103910002B2E0E942F2BFE01B4E4B193BFE6B1938E
:10392000B7E7B193BEE6B193B9E6B193BEE6B19302
:10393000B7E6B193B0E2B193B4E7B193B8E6B1930F
:10394000B5E6B193B0E2B193B0E5B193B1E6B1930E
:10395000B4E6B193B0E2B193B1E2B193B1E2B19305
:10396000B0E0B1938E012801B1E03B2EB2E02B2EE6
:103970000E942F2B2F903F904F90B1E0B0937F008B
:10398000B0E0B09380004F923F922F926624B5E052
:103990005B2EB2E04B2EB0E32B2EB0E03B2E0E940C
:1039A0006B322F903F904F90002319F0B2E0B0930C
:1039B0008E004F923F922F92B6E98B2EB0E09B2E55
:1039C000B4E96B2EB0E07B2EB5E94B2EB0E05B2E58
:1039D000BCE92B2EB0E03B2EB3E0BF93B2E6BF9321
:1039E000B0E0BF93B7E9BF93B0E0BF93B8E9BF932E
:1039F0000E94EE2BADB7BEB71696ADBFBEBF2F90DF
:103A00003F904F900E948F2B009194000093740080
:103A1000009195000093810000919C000093640048
:103A2000B1E0B0936A00B0E0B0936900B0E0B09349
:103A30008200B0916700B4FB90F9B1E04B1610E042
:103A400009F41FEF002790FD039501230D8F0091CE
:103A50006303015010E048E150E00E94BF0C0B8F5F
:103A60001C8F21EB30E0020F131F40916403415083
:103A7000098F1A8F0CE010E050E00E94BF0C298DD6
:103A80003A8DA801420F531F2091F9002150722F47
:103A900080E0770F881F770F881F272F382F240F7C
:103AA000351FF9013196308120916900231760E0BC
:103AB00008F46FEF41EB50E02B8D3C8D240F351F48
:103AC000020F131F070F181FF80132961081009183
:103AD0006A00101700E008F00FEF162F102B0D8D65
:103AE000012B09F47BC14F923F922F92B6E98B2EA6
:103AF000B0E09B2EB4E96B2EB0E07B2EB5E94B2EE7
:103B0000B0E05B2EBCE92B2EB0E03B2EB3E0BF93C0
:103B1000B2E6BF93B0E0BF93B7E9BF93B0E0BF9305
:103B2000B8E9BF930E94EE2BADB7BEB71696ADBFF6
:103B3000BEBF2F903F904F900E948F2B4F923F928D
:103B40002F92409094003090950020909C000E940D
:103B5000F5062F903F904F9010916A0010938D00C2
:103B600000918F001017E9F000916A0000938F0018
:103B7000FE01BDE4B193BFE6B193B4E7B193BFE6F4
:103B8000B193B2E7B193B0E0B1938E014F923F92FF
:103B90002F924090630318010E94DC082F903F9001
:103BA0004F9000916303015010E048E150E00E9403
:103BB000BF0C21EB30E0020F131F40916403415012
:103BC000098F1A8F0CE010E050E00E94BF0C298D85
:103BD0003A8D200F311F0091F900015010E0000FC5
:103BE000111F000F111F020F131FF80133960081E0
:103BF0004AE00E94CB2610E0212F312F0E944A0577
:103C00004F923F922F92180129010E94F3022F90A8
:103C10003F904F9000918E000030B9F50091630302
:103C2000015010E048E150E00E94BF0C21EB30E071
:103C3000020F131F409164034150098F1A8F0CE04B
:103C400010E050E00E94BF0C298D3A8D200F311FEB
:103C50000091F900015010E0000F111F000F111F1B
:103C6000020F131FF801339600814F923F922F925B
:103C70004090F900BFEF3B2E202E0E9459072F9055
:103C80003F904F90B1E0B0938E004F923F922F92B1
:103C90006624B5E05B2EB2E04B2EB0E32B2EB0E0F5
:103CA0003B2E0E946B322F903F904F90002319F0D3
:103CB000B2E0B0938E00B1E04B1609F08EC04F9287
:103CC0003F922F92B1E06B2EB5E05B2EB2E04B2E0F
:103CD000B0E32B2EB0E03B2E0E946B322F903F9032
:103CE0004F90109194001330B0E008F0BFEF1B2FFD
:103CF000012309F472C0B0916700B064B09367000B
:103D0000B0916700BF7EB0936700B0B3BF7BB0BB1C
:103D10004F923F922F924090F900BFEF3B2E22240A
:103D20000E9459072F903F904F90009163030150DC
:103D300010E048E150E00E94BF0C21EB30E0020FA0
:103D4000131F409164034150098F1A8F0CE010E05B
:103D500050E00E94BF0C298D3A8D200F311F009139
:103D6000F900015010E0000F111F000F111F020F8A
:103D7000131FF801319600919500008300916303B1
:103D8000015010E048E150E00E94BF0C21EB30E010
:103D9000020F131F409164034150098F1A8F0CE0EA
:103DA00010E050E00E94BF0C298D3A8D200F311F8A
:103DB0000091F900015010E0000F111F000F111FBA
:103DC000020F131FF80132960091940000832F9286
:103DD000B1E02B2E0E94B60C2F9019C100918E00DD
:103DE000023009F0A1C04F923F922F924090F9000B
:103DF000BFEF3B2E22240E9459070E94822BBDE96F
:103E00004B2EB0E05B2EB1E03B2EB1E02B2E0E949A
:103E10002F2BFE01B9E6B193B3E7B193B0E2B193B2
:103E2000BFE4B193B6E6B193B6E6B193BAE3B1930A
:103E3000B0E0B1938E012801B8E03B2EB1E02B2E0B
:103E40000E942F2BFE01B0E5B193B2E7B193BFE61C
:103E5000B193B7E6B193B0E2B193BEE6B193B5E7E3
:103E6000B193BDE6B193BAE3B193B0E0B1938E01E3
:103E70002801B1E03B2EB2E02B2E0E942F2BBDE992
:103E80004B2EB0E05B2EBAE03B2EB2E02B2E0E9410
:103E90002F2B21E11CE30CEC0A95F1F71A95E1F7C1
:103EA0002A95D1F7FE01BFE4B193B6E6B193B6E629
:103EB000B193B0E2B193B0E7B193B7E7B193BDE688
:103EC000B193B0E2B193BDE4B193BFE6B193B4E76F
:103ED000B193BFE6B193B2E7B193B0E2B193BDE65F
:103EE000B193BFE6B193B4E6B193B5E6B193B0E058
:103EF000B1938E012801B1E03B2EB1E02B2E0E9440
:103F00002F2BBDE94B2EB0E05B2E20906303B0E079
:103F10003B2E0E94D5042F903F904F90B0916700A8
:103F2000BF7EB093670073C04F923F922F920E9462
:103F3000822BFE01B7E5B193B1E6B193B4E7B1933B
:103F4000B9E6B193BEE6B193B7E6B193B0E2B193EF
:103F5000B6E6B193BFE6B193B2E7B193B0E2B193E5
:103F6000BAE3B193B0E0B1938E012801B1E03B2EEA
:103F7000B1E02B2E0E942F2BFE01B4E4B193BFE6DB
:103F8000B193B7E7B193BEE6B193B9E6B193BEE69C
:103F9000B193B7E6B193B0E2B193B4E7B193B8E6A9
:103FA000B193B5E6B193B0E2B193B0E5B193B1E6A8
:103FB000B193B4E6B193B0E2B193B1E2B193B1E29F
:103FC000B193B0E0B1938E012801B1E03B2EB2E095
:103FD0002B2E0E942F2B29E216E900E80A95F1F713
:103FE0001A95E1F72A95D1F76624B5E05B2EB2E089
:103FF0004B2EB0E32B2EB0E03B2E0E946B322F9065
:104000003F904F90002319F0B2E0B0938E0042CB66
:1040100000917E00013031F000917E000F5F00932F
:104020007E00EBCA4F923F922F92B6E98B2EB0E002
:104030009B2EB4E96B2EB0E07B2EB5E94B2EB0E0A1
:104040005B2EBCE92B2EB0E03B2EB3E0BF93B2E673
:10405000BF93B0E0BF93B7E9BF93B0E0BF93B8E9B7
:10406000BF930E94EE2BADB7BEB71696ADBFBEBFD5
:104070002F903F904F90B0916700BF7EB093670044
:104080009F908F907F906F905F906D96CDBFDEBFB9
:10409000DF91CF910895CF93DF93CDB7DEB7A69789
:1040A000CDBFDEBF2196088319836F925F923F9246
:1040B0002F920E94822B2F903F905F906F90B09133
:1040C0006700B061B0936700B0916700BF7DB093A7
:1040D0006700B0916700B77FB0936700B0E0BB8323
:1040E000BC83B0916700BD7FB0936700B09167005B
:1040F000BB7FB0936700B0916700B4FF05C46F92B7
:104100005F924F923F922F92452C562C3090650033
:10411000209070000E947E062F903F904F905F90FD
:104120006F90B1E0B0936E0010916E0005EF011733
:1041300008F4E9C300916E000F5F00936E00B09128
:104140006700BF7DB0936700B0916700B77FB09301
:104150006700FE013696B8E6B193B5E6B193B1E6D5
:10416000B193B4E7B193B5E6B193B2E7B193B0E0E0
:10417000B1938E010A5F1F4F6F925F924F923F92F1
:104180002F92252C362C28010E9453292F903F90E6
:104190004F905F906F90103009F4003091F4B0911F
:1041A0006700B062B09367002F92B1E02B2E0E949F
:1041B000B60C2F90B6EFB0936E00B1E0BB83B0E0C9
:1041C000BC83FE013696BDE6B193BFE6B193B4E77A
:1041D000B193BFE6B193B2E7B193B0E0B1938E0172
:1041E0000A5F1F4F6F925F924F923F922F92252C42
:1041F000362C28010E9453292F903F904F905F90BA
:104200006F90103009F4003091F4B0916700B860FD
:10421000B09367002F92B1E02B2E0E94B60C2F9026
:10422000B6EFB0936E00B1E0BB83B0E0BC836F9299
:104230005F924F923F922F92452C562C3090650002
:10424000209070000E947E062F903F904F905F90CC
:104250006F90B0916700B5FB51F9B0916700B3FB67
:1042600050F9689451FF50FD01C0E89450F950FF97
:1042700012C229E01EE105EE0A95F1F71A95E1F761
:104280002A95D1F70000B1E0BA83B0E0BD83B091C8
:104290006700BF7DB0936700B0916700B77FB093B0
:1042A00067000A81002309F4F6C1FE013696B8E6DC
:1042B000B193B5E6B193B1E6B193B4E7B193B5E686
:1042C000B193B2E7B193B0E0B1938E010A5F1F4F93
:1042D0006F925F924F923F922F92252C362C28019D
:1042E000E2D72F903F904F905F906F90103009F47D
:1042F000003009F047C06F925F924F923F922F9229
:10430000B1E06B2EB4E65B2EB4E04B2EB6E32B2E61
:10431000B0E03B2E0E946B322F903F904F905F9009
:104320006F90003059F0BFEFBB83BC83B091670042
:10433000B860B0936700B3E0BD8323C06F925F9213
:104340004F923F922F92B1E06B2EB4E65B2EB1E01C
:104350004B2EB6E32B2EB0E03B2E0E946B322F90FB
:104360003F904F905F906F90003059F0B1E0BB8369
:10437000B0E0BC83B0916700B062B0936700B3E077
:10438000BD8346C06F925F924F923F922F92B1E0F1
:104390006B2EB4E65B2EB1E04B2EB6E32B2EB0E0D5
:1043A0003B2E0E946B322F903F904F905F906F900A
:1043B000003061F0B1E0BB83B0E0BC83B091670036
:1043C000B062B0936700B3E0BD8322C06F925F928A
:1043D0004F923F922F92B1E06B2EB4E65B2EB4E089
:1043E0004B2EB6E32B2EB0E03B2E0E946B322F906B
:1043F0003F904F905F906F90003051F0BFEFBB83C4
:10440000BC83B0916700B860B0936700B3E0BD8330
:104410006F925F924F923F922F92B1E06B2EB1E07C
:104420005B2EB2E04B2EB6E32B2EB0E03B2E0E946B
:104430006B320030B0E009F0BFEF0B2F0DA3B1E0FD
:104440006B2EB1E05B2E4424B6E32B2EB0E03B2E66
:104450000E946B322F903F904F905F906F90003092
:1044600010E009F01FEF0DA1012BF9F0B0916700EA
:10447000B260B0936700B0E0BA83B0916700BF7ECE
:10448000B0936700BAEFB0936E00E881F981B6E6A9
:10449000B193B9E6B193BEE6B193B9E6B193B3E790
:1044A000B193B8E6B193B0E0B1930D81033009F058
:1044B000ABC020916500309166000B811C81200FFC
:1044C000311F2093650030936600022D10E0021723
:1044D00013077CF400917000109171000F5F1F4F63
:1044E000009370001093710030926500B0E0B093BB
:1044F000660000916500109166000315B0E01B078F
:104500007CF40091700010917100015010400093F4
:1045100070001093710020926500B0E0B0936600C7
:10452000FE013696B8E6B193B5E6B193B1E6B19324
:10453000B4E7B193B5E6B193B2E7B193B0E0B1930C
:104540008E010A5F1F4F6F925F924F923F922F92A0
:10455000252C362C2801A7D62F903F904F905F90A6
:104560006F90103009F4003039F5209170003091CF
:1045700071000AE010E00217130754F43092700043
:10458000B0E0B093710030926500B0E0B093660087
:1045900000917000109171000315B0E01B075CF4EE
:1045A000BAE0B0937000B0E0B09371003092650053
:1045B000B0E0B093660026C0209170003091710089
:1045C00001E010E00217130754F430927000B0E0DD
:1045D000B093710030926500B0E0B0936600009136
:1045E0007000109171000315B0E01B075CF4B1E09E
:1045F000B0937000B0E0B093710030926500B0E00D
:10460000B0936600B0E0BD836F925F924F923F928D
:104610002F92452C562C30906500209070000E94FF
:104620007E066624B1E05B2EB1E04B2EB6E32B2E66
:10463000B0E03B2E0E946B3200906700112705FC12
:10464000139501230DA36624B1E05B2EB4E04B2E3D
:10465000B6E32B2EB0E03B2E0E946B322F903F90A2
:104660004F905F906F9000906700112703FC1395A7
:1046700010230DA1012B71F0B0916700BF7DB093A5
:104680006700B0916700B77FB0936700B0E0BA836E
:10469000B0E0BD8306CEB2E0B0935F03B091670097
:1046A000BB7FB09367006F925F924F923F922F92C1
:1046B000B1E06B2EB1E05B2EB1E04B2EB6E32B2EBA
:1046C000B0E03B2E0E946B322F903F904F905F9056
:1046D0006F900030B1F1FE013696BDE6B193BFE6B2
:1046E000B193B4E7B193BFE6B193B2E7B193B0E051
:1046F000B1938E010A5F1F4F6F925F924F923F926C
:104700002F92252C362C2801CED52F903F904F90FC
:104710005F906F90103009F4003099F4BAEFB093C5
:104720006E00E881F981B8E6B193B5E6B193B1E6E0
:10473000B193B4E7B193B5E6B193B2E7B193B0E00A
:10474000B1936F925F924F923F922F92B1E06B2E96
:10475000B1E05B2EB4E04B2EB6E32B2EB0E03B2E47
:104760000E946B322F903F904F905F906F9000307F
:10477000B1F1FE013696B8E6B193B5E6B193B1E674
:10478000B193B4E7B193B5E6B193B2E7B193B0E0BA
:10479000B1938E010A5F1F4F6F925F924F923F92CB
:1047A0002F92252C362C28017ED52F903F904F90AC
:1047B0005F906F90103009F4003089F4BAEFB09335
:1047C0006E00E881F981BDE6B193BFE6B193B4E72D
:1047D000B193BFE6B193B2E7B193B0E0B1936F92FA
:1047E0005F924F923F922F92B1E06B2EB1E05B2E21
:1047F000B2E04B2EB6E32B2EB0E03B2E0E946B3284
:104800000030B0E009F0BFEF0B2F0DA3B1E06B2E2D
:10481000B1E05B2E4424B6E32B2EB0E03B2E0E9489
:104820006B322F903F904F905F906F90003010E070
:1048300009F01FEF0DA1012B29F0B0916700B260C4
:10484000B09367006F925F924F923F922F926624CF
:10485000B1E05B2EB2E04B2EB6E32B2EB0E03B2E48
:104860000E946B3200906700112701FC1395012311
:104870000DA310906700009067005E7F14FC06FE99
:1048800001C051606624B1E05B2E4424B6E32B2EB8
:10489000B0E03B2E0E946B322F903F904F905F9084
:1048A0006F90112750FD139510230DA1012BC1F01E
:1048B000B0916700BD7FB0936700BAEFB0936E0010
:1048C000E881F981B6E6B193B9E6B193BEE6B1935A
:1048D000B9E6B193B3E7B193B8E6B193B0E0B19361
:1048E00000916E000A3F71F42F92B1E02B2E0E94CE
:1048F000B60C2F90B6EFB0936E00B0916700BF7EFC
:10490000B093670011CCF7CB6F925F924F923F92BA
:104910002F92F8D6FE013696B6E5B193B1E6B19383
:10492000BCE6B193B5E7B193B5E6B193B0E2B1930C
:10493000B3E7B193B5E6B193B4E7B193B0E2B19305
:10494000B6E6B193BFE6B193B2E7B193BAE3B193E0
:10495000B0E0B1938E010A5F1F4F2801B1E03B2EFA
:10496000B1E02B2E7CD62F903F904F905F906F90B0
:10497000AC2FBD2FAB5EBF4F0EE30D930EE30D9337
:104980000EE30D9300E20D93E52DF62D0E94030B2F
:1049900000E20D930CE30D930CE30D930CE30D93E8
:1049A00000E00D938E010B5E1F4F6F925F924F924E
:1049B0003F922F922801B1E03B2EB2E02B2E4FD632
:1049C0002F903F904F905F906F90A596CDBFDEBF28
:1049D000DF91CF910895CF93DF93CDB7DEB72297C4
:1049E000CDBFDEBF2196B0916700B061B093670084
:1049F000B0916700BB7FB0936700B1E0B0935F03F5
:104A0000B1E0B0935E032F92232C0E94080A2F90EE
:104A1000B1E02B2E321408F4E0C000915F03015086
:104A200010E042E351E00E94BF0C2AEF30E0020F99
:104A3000131F40915E0341500883198309E910E078
:104A400050E00E94BF0C28813981020F131F422DB4
:104A500041500883198303E310E050E00E94BF0C2B
:104A600028813981F801E20FF31FB0E5B193BCE66C
:104A7000B193B3E7B193B0E2B193B3E4B193B8E6C5
:104A8000B193B3E7B193B0E2B193B0E5B193B2E7BC
:104A9000B193B7E6B193B0E2B193BEE4B193B5E799
:104AA000B193BDE6B193B0E0B19300915F030150C3
:104AB00010E042E351E00E94BF0C2AEF30E0020F09
:104AC000131F40915E0341500883198309E910E0E8
:104AD00050E00E94BF0C28813981020F131F422D24
:104AE00041500883198303E310E050E00E94BF0C9B
:104AF00028813981020F131FF8017196B0E5B19337
:104B0000BCE6B193B3E7B193B0E2B193B3E4B19330
:104B1000B8E6B193B3E7B193B0E2B193B0E5B19326
:104B2000B2E7B193B7E6B193B0E2B193BEE4B1930B
:104B3000B5E7B193BDE6B193B0E0B19300915F03E7
:104B4000015010E042E351E00E94BF0C2AEF30E038
:104B5000020F131F0883198309E910E040915E03D7
:104B600050E00E94BF0C28813981020F131F422D93
:104B700041500883198303E310E050E00E94BF0C0A
:104B800028813981F801E20FF31FB0E5B193B2E754
:104B9000B193BAE3B193B0E2B193B0E2B193B0E2B2
:104BA000B193B0E2B193B0E2B193B0E2B193B2E3AA
:104BB000B193B0E2B193B0E2B193B0E2B193B3E399
:104BC000B193B0E2B193B0E2B193B0E0B1932314EA
:104BD00021F0022D0F5F202E1DCFB2E0B0935E03B7
:104BE0003F922F92B2E03B2E20905F030E949405EB
:104BF0002F903F90B2E0B0935F03B1E0B0935E03BB
:104C0000B1E02B2E321408F4B0C000915F030150C4
:104C100010E042E351E00E94BF0C2AEF30E0020FA7
:104C2000131F40915E0341500883198309E910E086
:104C300050E00E94BF0C28813981020F131F422DC2
:104C400041500883198303E310E050E00E94BF0C39
:104C500028813981F801E20FF31FB7E4B193BFE671
:104C6000B193B9E6B193BEE6B193B7E6B193B0E2C2
:104C7000B193B4E7B193BFE6B193B0E2B193B9E4B5
:104C8000B193B4E7B193B7E2B193B3E7B193B0E2B4
:104C9000B193B3E5B193B5E6B193B4E7B193B4E79B
:104CA000B193B9E6B193BEE6B193B7E6B193B0E084
:104CB000B19300915F03015010E042E351E00E9484
:104CC000BF0C2AEF30E0020F131F40915E034150EA
:104CD0000883198309E910E050E00E94BF0C288185
:104CE0003981020F131F422D41500883198303E3BA
:104CF00010E050E00E94BF0C28813981F801E20FDA
:104D0000F31FB0E5B193B2E7B193BFE6B193B7E655
:104D1000B193B2E7B193B1E6B193BDE6B193B0E21E
:104D2000B193B0E2B193B0E2B193B0E2B193B0E22B
:104D3000B193B9E6B193B3E7B193B0E2B193B3E7FE
:104D4000B193B5E6B193BCE6B193B3E6B193B4E7E2
:104D5000B193B5E6B193B4E6B193B0E0B193231447
:104D600021F0022D0F5F202E4DCF00915E030150E8
:104D7000202F30E0220F331F00E910E0F901E00F8F
:104D8000F11FBAE0B083B1E02B2E2196CDBFDEBF7C
:104D9000DF91CF910895992779E004C0991F941766
:104DA00008F0941B001F7A95C9F700950895CF93DA
:104DB000DF93CDB7DEB76397CDBFDEBF2196B0914D
:104DC0006700B061B0936700B0916700BB7FB0939C
:104DD0006700B1E0B0935F03B1E0B0935E032F9240
:104DE000232C0E94080A2F90B1E02B2E321408F4D5
:104DF00088C000915F03015010E042E351E00E943F
:104E0000BF0C2AEF30E0020F131F40915E034150A8
:104E1000098B1A8B09E910E050E00E94BF0C298928
:104E20003A89020F131F422D4150098B1A8B03E35D
:104E300010E050E00E94BF0C29893A89020F131F2D
:104E40009801AC2FBD2FF2010E94030B00E20D93DD
:104E5000F3010E94030B00E20D93F4010E94030B87
:104E600000E00D93A22FB32FFE010E94030B00E080
:104E70000D9300915F03015010E042E351E00E9466
:104E8000BF0C2AEF30E0020F131F40915E03415028
:104E9000098B1A8B09E910E050E00E94BF0C2989A8
:104EA0003A89020F131F422D4150098B1A8B03E3DD
:104EB00010E050E00E94BF0C29893A89020F131FAD
:104EC00098012F5E3F4FAC2FBD2FF2010E94030BC4
:104ED00000E20D93F3010E94030B00E20D93F40135
:104EE0000E94030B00E00D93A22FB32FFE010E943E
:104EF000030B00E00D93231421F0022D0F5F202EF1
:104F000075CFB2E0B0935E03B1E02B2E00915F034A
:104F1000015010E042E351E00E94BF0C2AEF30E064
:104F2000020F131F07561F4FF8017196BEE5B1938C
:104F3000BEE5B193BEE5B193BEE5B193B0E2B193E6
:104F4000B0E2B193B0E2B193B0E2B193B0E2B19309
:104F5000B0E2B193B0E2B193B0E2B193B0E2B193F9
:104F6000B0E2B193B0E2B193B0E2B193B0E0B193EB
:104F7000B2E02B2E00915F03015010E042E351E0BC
:104F80000E94BF0C2AEF30E0020F131F40915E0316
:104F90004150098B1A8B09E910E050E00E94BF0CC8
:104FA00029893A89020F131F0D5C1F4FF801719672
:104FB000B0E2B193B0E2B193B0E2B193B0E2B19399
:104FC000B0E2B193B0E2B193BEE5B193BEE5B19367
:104FD000BEE5B193BEE5B193B0E2B193B0E2B19357
:104FE000B0E2B193B0E2B193B0E2B193B0E2B19369
:104FF000B0E2B193B0E0B193B3E02B2E00915F0328
:10500000015010E042E351E00E94BF0C2AEF30E073
:10501000020F131F40915E034150098B1A8B09E95F
:1050200010E050E00E94BF0C29893A89020F131F3B
:105030000A591F4FF8017196B0E2B193B0E2B193F3
:10504000B0E2B193B0E2B193B0E2B193B0E2B19308
:10505000B0E2B193B0E2B193B0E2B193B0E2B193F8
:10506000B0E2B193BEE5B193BEE5B193BEE5B193B5
:10507000BEE5B193B0E2B193B0E0B193B2E0B093CA
:105080005F03B1E0B0935E03B1E02B2E321408F45D
:1050900045C000915F03015010E042E351E00E94DF
:1050A000BF0C2AEF30E0020F131F098B1A8B09E99E
:1050B00010E040915E0350E00E94BF0C29893A89BC
:1050C000020F131F422D4150098B1A8B03E310E08E
:1050D00050E00E94BF0C29893A89F801E20FF31FC2
:1050E000B0E2B193B9E6B193B3E7B193B0E2B19353
:1050F000B3E7B193B5E6B193BCE6B193B3E6B19330
:10510000B4E7B193B5E6B193B4E6B193B0E0B1932F
:10511000231421F0022D0F5F202EB8CFB1E02B2EEB
:1051200000915F03015010E042E351E00E94BF0C88
:105130002AEF30E0020F131F40915E034150098BAC
:105140001A8B09E910E050E00E94BF0C29893A89C6
:10515000020F131FA02FB12FF2010E94030B00E2D8
:105160000D9300E20D9303E70D9305E60D9304E71D
:105170000D9304E70D9309E60D930EE60D9307E6F4
:105180000D9300E20D9300E20D9300E20D9300E217
:105190000D9300E00D93B2E02B2E00915F030150C0
:1051A00010E042E351E00E94BF0C2AEF30E0020F12
:1051B000131F40915E034150098B1A8B09E910E0DF
:1051C00050E00E94BF0C29893A89020F131F0D5C21
:1051D0001F4FA02FB12FF3010E94030B00E20D938C
:1051E00003E70D9305E60D9304E70D9304E70D9394
:1051F00009E60D930EE60D9307E60D9300E20D937D
:1052000000E20D9300E20D9300E20D9300E00D9398
:10521000B3E02B2E00915F03015010E042E351E018
:105220000E94BF0C2AEF30E0020F131F40915E0373
:105230004150098B1A8B09E910E050E00E94BF0C25
:1052400029893A89020F131FF801EA59FF4FB5E483
:10525000B193B8E7B193B9E6B193B4E7B193B9E6C6
:10526000B193BEE6B193B7E6B193B0E2B193B0E2C9
:10527000B193B0E2B193B0E2B193B0E2B193B0E2D6
:10528000B193B0E2B193B0E2B193B0E2B193B0E2C6
:10529000B193B0E0B193B1E02B2E6296CDBFDEBFEB
:1052A000DF91CF9108959101A20100E010E05F939A
:1052B0004F93A9012F913F91F9011081FA010081CB
:1052C000011710E009F41FEF0030B0E009F0BFEF64
:1052D0000B2F012349F08A010F5F1F4FA80189019D
:1052E0000F5F1F4F9801E8CFF9011081FA0100818B
:1052F000012EB0E01B2E10E0001911099801890160
:105300000895CF93DF93CDB7DEB72297CDBFDEBF31
:1053100021962F923F92B0E0B0936003B093610367
:10532000B1E0B0936303B1E0B0936403B1E0B09334
:10533000F90000916303015010E048E150E00E9441
:10534000BF0C21EB30E0020F131F4091640341506A
:10535000088319830CE010E050E00E94BF0C288104
:105360003981200F311F0091F900015010E0000F2A
:10537000111F000F111F020F131F088319830091C3
:105380006003109161030F5F1F4F1801ABD11881AB
:105390002981E12FF22F008300916303015010E077
:1053A00048E150E00E94BF0C21EB30E0020F131FD8
:1053B000409164034150088319830CE010E050E0F1
:1053C0000E94BF0C28813981200F311F0091F90004
:1053D000015010E0000F111F000F111F020F131FCB
:1053E0000F5F1F4F088319830091600310916103C1
:1053F0000E5F1F4F180176D118812981E12FF22FFE
:10540000008300916303015010E048E150E00E94E6
:10541000BF0C21EB30E0020F131F40916403415099
:10542000088319830CE010E050E00E94BF0C288133
:105430003981200F311F0091F900015010E0000F59
:10544000111F000F111F020F131F0E5F1F4F088344
:10545000198300916003109161030D5F1F4F1801C4
:1054600041D118812981E12FF22F0083009163033C
:10547000015010E048E150E00E94BF0C21EB30E009
:10548000020F131F409164034150088319830CE0FD
:1054900010E050E00E94BF0C28813981200F311F9D
:1054A0000091F900015010E0000F111F000F111FB3
:1054B000020F131F0D5F1F4F0883198300916003B4
:1054C000109161030C5F1F4F18010CD118812981C5
:1054D000E12FF22F008300916003109161030C5FB4
:1054E0001F4F00936003109361030091F900033094
:1054F00031F00091F9000F5F0093F9001ACF00918D
:105500006403023031F0009164030F5F0093640381
:105510000DCF00916303033031F0009163030F5FFF
:105520000093630300CF3F902F902196CDBFDEBF45
:10553000DF91CF910895E32DF42DB0E2B193B0E265
:10554000B193B0E3B193B0E0B193032D142D0E5F8E
:105550001F4F9801B0E02B1681F04AE0022D1BDCB2
:10556000092F005DF90100834AE0022D14DC202E92
:105570008901015010409801EDCF089512E009E033
:105580000A95F1F71A95E1F7089505E00A95F1F704
:105590000000089513E708E40A95F1F71A95E1F77A
:1055A00000000895B1E07B1609F050C0B0E0BFBD27
:1055B000B0E0BEBDB0E0BDBDB0E0BCBD4FBC6BBC9B
:1055C0005ABC69BC58BCBBE02B1639F40FB501605E
:1055D0000FBD0EB5077E0EBD38C0BCE02B1639F4EA
:1055E000BFB5B260BFBD0EB5077E0EBD2EC0BDE01B
:1055F0002B1639F40FB503600FBD0EB5077E0EBD37
:1056000024C0BEE02B1639F40FB501600FBD0EB5F6
:1056100008600EBD1AC0BFE02B1639F40FB502604A
:105620000FBD0EB508600EBD10C0B0E12B1639F4E9
:105630000FB503600FBD0EB508600EBD06C00FB5F7
:105640000C7F0FBD0EB5077E0EBD03C00FB50C73EA
:105650000FBD30927D000EB503290EBD08952F9227
:10566000B1E02B1619F4B0E82B2E14C0B2E02B16C3
:1056700019F4B0EC2B2E0EC0B3E02B1619F4B4E9DC
:105680002B2E08C0B4E02B1619F4B4ED2B2E02C05B
:10569000B0E82B2E032D0150020D202E202E0E944B
:1056A000503DB0917900BB7FB09379009201F90130
:1056B0000081002381F0F90100813F932F932F9205
:1056C000202E0E94910D2F902F913F9189010F5F05
:1056D0001F4F9801ECCFB0917900B460B09379007E
:1056E0002F9008950FB6BCB3B1FF02C00000FBCFEE
:1056F000F8943FBA2EBABCB3B160BCBB0FBE1DB3A9
:10570000012F08952F920E941C36B1E02B2E0E948B
:10571000503DBCE02B2E0E94503D2F9008950091EB
:105720009500007F102F16951695169516950AE090
:10573000109F102D009195000F70010F00939500A0
:1057400000919C00007F102F1695169516951695C2
:105750000AE0109F102D00919C000F70010F009324
:105760009C000091980007700093980000919600AB
:10577000007F102F16951695169516950AE0109F26
:10578000102D009196000F70010F0093960000916C
:1057900097000071102F16951695169516950AE02C
:1057A000109F102D009197000F70010F009397002C
:1057B00000916203007F102F169516951695169589
:1057C0000AE0109F102D009162030F70010F0093EB
:1057D000620300919A00009394000895CF93DF93A1
:1057E000CDB7DEB725962F923F92088119810883A5
:1057F00019830A811B810A831B830C811D810C8301
:105800001D839F928F927F926F925F924F923F92F1
:105810002F920E949E0DB0ED2B2E0E94BF0D2224D0
:105820000E94BF0D0E949E0DB1ED2B2E0E94BF0D58
:10583000B1E02B2EB0E03B2E0E94C70C2F903F9082
:105840004F905F906F907F90F30100835F924F9233
:105850003F922F92B1E02B2EB0E03B2E0E94C70C5E
:105860002F903F904F905F90F20100833F922F92D4
:10587000B1E02B2EB0E03B2E0E94C70C2F903F9042
:10588000F1010083B1E02B2EB0E03B2E0E94C70C4B
:10589000E881F9810083B1E02B2EB0E03B2E0E941D
:1058A000C70C8F909F90F4010083B1E02B2EB0E0E5
:1058B0003B2E0E94C70CEA81FB8100832224332403
:1058C0000E94C70CEC81FD8100830E945A0D3F901D
:1058D0002F90DF91CF910895CF93DF93CDB7DEB7AF
:1058E000A897CDBFDEBF21965F926F927F928F9275
:1058F0009F92B3E0B887B1E0B0936403B3E0B09394
:10590000F90020926303B2E0B0936403B1E0B09376
:10591000F900022D015010E048E150E00E94BF0C58
:1059200021EB30E0020F131F045F1F4FF801319687
:1059300000814F923F922F92BDE93B2EB0E04B2E5B
:10594000202EF9DDFE013996BCE3B193B5E4B193A5
:10595000B8E7B193BEE3B193B0E0B193AE01475F56
:105960005F4FFE013E96B0E5B193B2E7B193BFE65B
:10597000B193B7E6B193B0E0B1939E01225F3F4F80
:10598000FE017396B3E5B193B5E6B193B4E7B19375
:10599000BEE6B193B7E6B193B0E0B1938E010D5E70
:1059A0001F4F4A01390128013884B1E02B2EFFD95D
:1059B0002F903F904F90FE013996B1E6B193B4E637
:1059C000B193B6E7B193B1E6B193BEE6B193B3E656
:1059D000B193B5E6B193B0E0B1938E01075F1F4F6D
:1059E0004F923F922F92232C342C28015CDC2F9075
:1059F0003F904F90103009F4003099F44F923F924D
:105A00002F9277246884B1E05B2E4884B1E02B2E7E
:105A1000B0E03B2E0E94850E2F903F904F90088360
:105A20004BC0FE013996B8E6B193B5E6B193B1E645
:105A3000B193B4E7B193B5E6B193B2E7B193B0E0F7
:105A4000B1938E01075F1F4F4F923F922F92232CED
:105A5000342C280128DC2F903F904F90103009F40F
:105A60000030B0E009F4BFEF0B2F0EA3FE017096DB
:105A7000BDE6B193BFE6B193B4E7B193BFE6B1938E
:105A8000B2E7B193B0E0B1938E01005F1F4F4F9228
:105A90003F922F92232C342C280105DC2F903F902D
:105AA0004F90103009F4003010E009F41FEF0EA100
:105AB000012B11F0B4E0B883B0916700B160B093EE
:105AC0006700B0916700B0FFFBC40881043009F0A3
:105AD00033C22A82ADE9B0E0E32DF42D0E94030B1E
