:100000000C94E8AC0C943BAC0C9400000C94B1AE96
:100010000C9400000C9400000C9400000C94EBB0C5
:100020000C9400000C9498AE0C9400000C9400000A
:100030000C9400000C9400000C9400000C94000040
:100040000C94CCAC0C9400000C9400000C940000B8
:100050000C9400000C9400000C9400000C94000020
:100060000C9400000C9400000C9400000C94000010
:100070000C9400000C9400000C9400000C94000000
:100080000C9400000C9400000C9400000000000987
:100090000D0B09000000000F080E080000001111F0
:1000A0001F000400010E140404040400000A1511CA
:1000B0000A0400000000000F09090F0042D121F0DE
:1000C000662309F053D198940895F8DF09F441C0EC
:1000D000E62ED52EC42EB32EA22E912E802E002DCC
:1000E000112D222D332DEADF09F43DC0842F952FE9
:1000F0008C199D09B9F072F49095809501964C2D5C
:100100005D2D883180F535952795179507950197D1
:10011000D1F708C08831E8F4B594A79497948794F0
:100120000197D1F766272EF0080D191D2A1D3B1DDA
:1001300009C0801A910AA20AB30A082D192D2A2D86
:100140003B2D332312F412D160E82FD001C018D018
:1001500016C0002D112D222D332DD6F71ED0C1F340
:1001600040E83427F5CF082D192D2A2D3B2D4C2D95
:100170005D2D6E2D33235AF7F9D060E8E8CF08954E
:100180000CD039F041585F4F342F220F3695279508
:10019000362B0895689499DF0895002329F41123DC
:1001A00019F4222309F433230895F7DF11F19F9303
:1001B0008F938EE790E0332351F03695279517956E
:1001C000079548175907B4F44F5F5F4FF4CF8095F8
:1001D0009095019622239AF0000F111F221F4817B5
:1001E00059071CF041505040F5CF00271127222716
:1001F000332708C033270FEF102F2FE7322F8F91AF
:100200009F91BEDF0895C6DF332332F0C6DF11F0C1
:1002100001E003C0002701C00FEF089547E1662702
:10022000552726F0332312F4A1D060E8BEDF0895ED
:10023000E8944BDF0895042E152E262E372EE3DF8B
:10024000002308957ED081F1E62ED52EC42EB32E44
:10025000A22E912E802E002D112D222D332D71D006
:1002600019F16E254C0D5D1D40385307F4F44138EB
:100270007FEF5707FCF088279927AA27BB2770E252
:10028000B695A795979587953795279517950795CF
:1002900020F4880D991DAA1DBB1D7A9589F7032F9F
:1002A0003A2F292F182F81DF0AC00FEF102F2FE7C9
:1002B0003FE7FACF0027102F202F302FF5CF0895DA
:1002C000C9019A01AB01B80197FB092E05260ED092
:1002D00057FD04D014D00AD0001C38F45095409536
:1002E000309521953F4F4F4F5F4F0895F6F790950A
:1002F0008095709561957F4F8F4F9F4F0895A1E234
:100300001A2EAA1BBB1BFD010DC0AA1FBB1FEE1F8F
:10031000FF1FA217B307E407F50720F0A21BB30BDA
:10032000E40BF50B661F771F881F991F1A9469F756
:1003300060957095809590959B01AC01BD01CF01B2
:1003400008952BDF79F0632F6078220F331F432F3E
:100350005FE7451B55275040269530E8232B332770
:10036000989403C044275527662708950095109553
:10037000209530950F5F1F4F2F4F3F4F0895002E50
:10038000112E222E332E042F152F262F372F3BDF31
:1003900000231CF00024039401C000240895E89475
:1003A0003DDF0895CEDFF1F05523C2F04F31A8F4C0
:1003B0004731C1F050F44195495E05C03595279508
:1003C000179507954A95D1F70DC04751000F111F9A
:1003D000221F331F4A95D1F705C03FE7232F132F64
:1003E000032F03C0662309F0C1DF0895042E152EE4
:1003F000262E372E1DDF002E112E222E332E08958D
:100400001ADF1CF40024039401C000240895CF9344
:10041000DF93CDB7DEB72397CDBFDEBF2196B0E81F
:100420005B1641F4B0E04B1629F4B0E03B1611F432
:10043000B0E02B16D1F4F301BDE2B193B2E3B19376
:10044000B1E3B193B4E3B193B7E3B193B4E3B19340
:10045000B8E3B193B3E3B193B6E3B193B4E3B1932B
:10046000B8E3B193B0E0B1937BC0B0E0BA8300E0F1
:1004700010E020E030E0201631064206530664F416
:10048000BFEFBA8300E010E020E030E0021913096A
:100490002409350918012901F301B0E2B193B0E252
:1004A000B193B0E2B193B0E2B193B0E2B193B0E2F4
:1004B000B193B0E2B193B0E2B193B0E2B193B0E2E4
:1004C000B193B0E3B193B0E0B1938301065F1F4FE6
:1004D00008831983B0E05B1641F4B0E04B1629F4B1
:1004E000B0E03B1611F4B0E02B1699F17F926F92B9
:1004F0005F924F923F922F924AE050E060E070E0AE
:1005000081019201DDDE8B019C012F903F904F9085
:100510005F90005DE881F98100835F924F923F9286
:100520002F924AE050E060E070E081019201C8DE65
:1005300089019A012F903F904F905F906F907F902C
:10054000180129010881198101501040088319837D
:10055000C1CF0A81002321F0E881F981BDE2B08397
:100560002296CDBFDEBFDF91CF910895042E152EC8
:10057000262E372E67DE002E112E222E332E0895C2
:100580003F932F931F930F93002D112D222D332D69
:10059000D8DE09F44BC0E62ED52EC42EB32EA22EE3
:1005A000912E802E0F911F912F913F91CADE61F104
:1005B0006E254C195D09403853073CF541387FEFF3
:1005C00057077CF180E27724632E522E412E302F84
:1005D000222711270027000F111F221F331F441C41
:1005E000551C661C771C28F0481859086A087B08B7
:1005F00004C0480C591C6A1C7B1C0AF001608A95D7
:1006000051F741505040D1DD16C00FEF102F2FE7AA
:100610003FE76623C9F3C1DDB9F3342D30E8342553
:10062000F3CF0027102F202F302FEECF0F900F90F9
:100630000F900F90EACF0895042E152E262E372EF8
:10064000A9DD002E112E222E332E0895049FD001F5
:10065000159FF001249FE00DF11D069FE00DF11D97
:10066000349FF00D259FF00D169FF00D079FF00DA4
:100670003327149FB00DE11DF31F059FB00DE11D41
:10068000F31F8D019F010895042E152E262E372E5F
:1006900077DF002E112E222E332E0895CF93DF9375
:1006A000CDB7DEB72497CDBFDEBF2196152D110F34
:1006B000B7E0042D0695BA95E9F7010F0F57202FE3
:1006C00030E007FD3FEF00E010E020173107DCF4D9
:1006D00040E050E060E070E08101920150DE0028CF
:1006E00000E009F00FEF002331F0B0E0B883B983E8
:1006F000BA83BB8307C0B0E0B883B983B0E8BA83DC
:10070000BFE3BB832AC008E1021728F4288239829C
:100710004A825B8222C08101920144DE40DE08836E
:1007200019832A833B83A101B201088119812A819F
:100730003B8166DE002800E009F00FEF002369F03E
:10074000088119812A813B8140E050E060E87FE325
:100750004DDE088319832A833B83088119812A810E
:100760003B812396CDBFDEBFDF91CF910895B1E1EC
:100770004B1619F43BBC2ABC26C0B2E14B1619F447
:1007800039BC28BC20C0B3E14B1629F43092790063
:100790002092780018C0B4E14B1629F430928700FB
:1007A0002092860010C0B5E14B1629F430928500E6
:1007B0002092840008C0B6E14B1629F430928300E1
:1007C0002092820000C00895CF93DF93CDB7DEB7AB
:1007D000A197CDBFDEBF2196B0E0BE8F810192010F
:1007E000E1DD088319832A833B835F924F923F9216
:1007F0002F9240E050E060E070E08101920100DE65
:10080000002800E009F00FEF2F903F904F905F908D
:10081000002311F0BFEFBE8F8E010A5F1F4F7F9242
:100820006F925F924F923F922F92380128803980C9
:100830004A805B80ECDD2F903F904F905F906F90EF
:100840007F90088119812A813B81A9DD5F924F92B7
:100850003F922F92A801B90181019201EDDE40E0A3
:1008600050E563EC77E482DE2F903F904F905F90ED
:1008700099DD088319832A833B8340E050E060E0E0
:1008800070E0041715072607370784F408801980DD
:1008900000E010E0001911090A801B8020E030E020
:1008A00020093109088319832A833B838E010E5E58
:1008B0001F4F7F926F925F924F923F922F9238011B
:1008C000288039804A805B80A2DD2F903F904F9036
:1008D0005F906F907F9040E050E0B0E0BC83BD83BC
:1008E000F301B0E2B193B0E2B193B0E2B193B0E200
:1008F000B193B0E2B193B0E2B193B0E2B193B0E2A0
:10090000B193B0E2B193B0E2B193B0E3B193B0E090
:10091000B1935F934F938101920144DD303029F40C
:10092000203019F4103009F40030B0E009F4BFEFC2
:100930000B2F08A340E050E060E070E081019201DD
:100940005FDD002800E009F00FEF4F915F9118A1E3
:100950000123002341F0F301BDE2B08311E020E068
:10096000412F522F00C02E81203281F40C811D8135
:1009700098012F5F3F4F2C833D838E010A5F1F4FED
:10098000F901E00FF11F0081202FEECF022F003080
:10099000D1F0FA01E60DF71D00830C811D8198014D
:1009A0002F5F3F4F2C833D838A010F5F1F4FB8019C
:1009B0008E010A5F1F4FF901E00FF11F0081202F08
:1009C000022FAB01E4CF0E8D003010E009F41FEFD1
:1009D000503009F4403000E009F40FEF012351F0EA
:1009E000FA01E60DF71DB0E3B0838A010F5F1F4FD8
:1009F000980101C09A01303009F4213010E009F467
:100A00001FEF0E8D012359F0F901E60DF71DB0E33C
:100A1000B08389010F5F1F4FA8019A0100C0F9013F
:100A2000E60DF71DBEE2B08389010F5F1F4FA801DD
:100A3000B6E0BC83B0E0BD83288D2030F9F02032D1
:100A400019F420E3022F01C0022FFA01E60DF71D71
:100A500000830C811D8198012F5F3F4F2C833D83C4
:100A60008A010F5F1F4FB8018E010E5E1F4FF90103
:100A7000E00FF11F0081AB01202FDFCFFA01E60D5F
:100A8000F71DB0E0B083A096CDBFDEBFDF91CF9160
:100A9000089521BE0895E32DF42DB0E2B193B0E2A4
:100AA000B193B0E3B193B0E0B193032D142D0E5F79
:100AB0001F4F9801B0E02B1681F04AE0022D4ED175
:100AC000092F005DF90100834AE0022D47D1202E55
:100AD0008901015010409801EDCF08950FB6BCB3C5
:100AE000B1FF02C00000FBCFF8943FBA2EBA4DBA56
:100AF000BCB3B460BCBBBCB3B260BCBB0FBE08959A
:100B0000B0913500B77FB0933500B0913500BB7F11
:100B1000B0933500B0913500BF77B0933500B091F8
:100B20003500BF7BB0933500B0913500BF7DB093E9
:100B30003500B0913500BF7EB0933500B0913400E0
:100B4000B860B0933400B0913400B460B093340016
:100B5000B0913400B061B0933400B0913400B06211
:100B6000B0933400B0913400B064B0933400B091CD
:100B70003400B068B09334000E9412630E94126384
:100B80000E941263B0913500B062B0933500B0910D
:100B90003500B061B0933500B0913500B860B093C6
:100BA00035000E940C63B0913500B77FB0933500DB
:100BB0000E941263B0913500B860B09335000E9476
:100BC0000C63B0913500B77FB09335000E9412637B
:100BD000B0913500B860B09335000E940C63B091BD
:100BE0003500B77FB09335000E941263B091350095
:100BF000BF7EB0933500B0913500B860B09335003A
:100C00000E940C63B0913500B77FB09335000E940D
:100C10001263B0913500B860B09335000E940C6348
:100C2000B0913500B77FB0933500B0913500BF7DEE
:100C3000B0933500B0913500B068B0933500B091F5
:100C40003500B860B09335000E940C63B091350058
:100C5000B77FB09335000E941263B0913500BF7723
:100C6000B0933500B0913500B061B0933500B091CC
:100C70003500B860B09335000E940C63B091350028
:100C8000B77FB0933500B0913500BF7EB09335008B
:100C9000B0913500B860B09335000E940C63B091FC
:100CA0003500B77FB09335000E941263B0913500D4
:100CB000B860B09335000E940C63B0913500B77FE7
:100CC000B0933500B0913500B061B0933500B0916C
:100CD0003500B860B09335000E940C63B0913500C8
:100CE000B77FB09335000E941263B0913500BF7E8C
:100CF000B0933500B0913500B860B09335000E94D4
:100D00000C63B0913500B77FB0933500B0913500DA
:100D1000B068B0933500B0913500B064B093350041
:100D2000B0913500B062B0933500B0913500B0613C
:100D3000B0933500B0913500B860B09335000E9493
:100D40000C63B0913500B77FB09335000E941263F9
:100D5000B0912B01B062B0932B010895992779E0EF
:100D600004C0991F941708F0941B001F7A95C9F7C7
:100D700000950895CF93DF93CDB7DEB72397CDBF0E
:100D8000DEBF2196B1E0B883B0E8B983B0E0BA83A2
:100D900009811A81103009F4003009F443C00E941F
:100DA0000C630E940C630E940C630E940C63B09160
:100DB0003400B160B09334000E940C630E940C6355
:100DC00009811A8102211070103009F4003031F0CD
:100DD000B0913400BD7FB093340005C0B0913400B1
:100DE000B260B09334000E940C630E940C63B09117
:100DF0003400BE7FB0933400B0912B01B77FB09325
:100E00002B01B0913300B0FD06C0B0912B01B3FFB0
:100E100001C001C0F6CF09811A8116950795098393
:100E20001A83B6CFB0E0B8830E940C630E940C63B3
:100E3000B0913400B160B09334000E940C630E9402
:100E40000C63B0913400BD7FB09334000E940C63FA
:100E50000E940C630E940C630E940C63B0913400EA
:100E6000BE7FB0933400B0912B01B77FB0932B01BC
:100E7000B0913300B0FD06C0B0912B01B3FF01C0AB
:100E800001C0F6CFB0E0B8830E940C630E940C63EF
:100E9000B0913300B1FF03C00881016008830E9454
:100EA0000C630E940C630E940C630E940C630E94FE
:100EB0000C630E940C630E940C630E940C630E94EE
:100EC0000C630E940C630E940C630E940C630E94DE
:100ED0000C630E940C630E940C630E940C63B0912F
:100EE0003400B160B0933400B0913400B260B0937C
:100EF000340008812296CDBFDEBFDF91CF910895E7
:100F0000B0913400BD7FB09334000E940C630E9406
:100F10000C63B0913400BE7FB09334000E940C6328
:100F20000E940C63B0913400B260B09334000E9410
:100F30000C630E940C63B0913400B160B093340034
:100F40000895B0913400B260B09334000E940C63F5
:100F50000E940C63B0913400BE7FB0933400B09116
:100F60002B01B77FB0932B01B0913300B0FD06C0C9
:100F7000B0912B01B3FF01C001C0F6CF0E940C63FA
:100F80000E940C630E940C630E940C630E940C631D
:100F90000E940C630E940C630E940C63B0913400A9
:100FA000BD7FB09334000E940C630E940C630895CF
:100FB0009801249F8001259F100D349F100D0895E6
:100FC000CF93DF93CDB7DEB72397CDBFDEBF21969A
:100FD000B0E0B883B0E8B983B0E0BA8309811A8180
:100FE000103009F4003009F439C00E940C630E94EB
:100FF0000C63B0913400BD7FB09334000E940C6349
:101000000E940C63B0913400BE7FB0933400B09165
:101010002B01B77FB0932B01B0913300B0FD06C018
:10102000B0912B01B3FF01C001C0F6CFB0913300E6
:10103000B1FF04C018810981012B08830E940C6351
:101040000E940C63B0913400B160B0933400098108
:101050001A811695079509831A83C0CFB091340081
:10106000BD7FB09334000E940C630E940C63B0E01B
:101070003B1611F4B0E02B1629F0B0913400B260A9
:10108000B09334000E940C630E940C63B091340052
:10109000BE7FB0933400B0912B01B77FB0932B018A
:1010A000B0913300B0FD06C0B0912B01B3FF01C079
:1010B00001C0F6CF0E940C630E940C63B091340013
:1010C000B160B09334000E940C630E940C63B09135
:1010D0003400B260B093340008812296CDBFDEBFE9
:1010E000DF91CF910895CF93DF93CDB7DEB72697E9
:1010F000CDBFDEBF21962F923F924F926F927F928B
:10110000022D10E0212F312F432D542D60E047FC9C
:101110006FEF762F9BDA43D95F924F923F922F92D7
:1011200040E050E068EC72E4AFDA18012901B6DA69
:101130000A831B832C833D83B3E06B2EB1E07B2EAF
:101140001801290141DB84D00A811B812C813D815A
:1011500029D908831983B7EC4B2EB7E05B2E180111
:101160000E94BF97B3E04B2EB1E05B2EB1E03B2E67
:10117000B1E02B2E0E9469A2B7EC4B2EB7E05B2E9C
:10118000B6E03B2EB2E02B2E0E9469A22F902F9248
:10119000B7EC4B2EB7E05B2EB0E03B2E0E94BF9722
:1011A000B7EC4B2EB7E05B2EB1E03B2EB2E02B2E1E
:1011B0000E9469A22F903F904F905F90B1E05B1624
:1011C00031F4B1E14B2E28803980D1DA36C0B2E05B
:1011D0005B1631F4B2E14B2E28803980C8DA2DC07D
:1011E000B3E05B1631F4B2E04B2E28803980BFDAD1
:1011F00024C0B4E05B16A9F4B0E02B1649F40880D3
:101200001980032D142D00191109180142DC08C0A2
:1012100008801980032D142D00191109180139DCDB
:101220000CC0B5E05B1609F408C0B6E05B1609F423
:1012300004C0B7E05B1609F400C07F906F904F9038
:101240003F902F902596CDBFDEBFDF91CF910895BF
:101250002F9256DCB1E02B2E0E945997BCE02B2E2A
:101260000E9459972F900895CF93DF93CDB7DEB7A3
:101270006097CDBFDEBF21960C890C8B0D890D8B3D
:101280000E890E8B0F890F8B088D088F098D098FA2
:10129000B0912B01B064B0932B01B0910001BF7DE0
:1012A000B09300019F928F927F926F925F924F92C4
:1012B0003F922F92CDDF2F903F904F905F906F9095
:1012C0007F908F909F9010902B0100902B015E7F5C
:1012D00016FC04FE01C0516050FF0C94A91B9F92A4
:1012E0008F927F926F925F924F923F922F92242C17
:1012F000BDE83B2EB7E04B2ECEDB2F903F904F90BA
:101300005F906F907F907F926F925F924F923F922B
:101310002F92B9E83B2EB7E04B2E272CBCDB2F9049
:101320003F904F905F906F907F908F908F927F92C1
:101330006F925F924F923F922F92B0E93B2EB7E0AF
:101340004B2E282CA8DB2F903F904F905F906F90F2
:101350007F908F909F909F928F927F926F925F92DB
:101360004F923F922F92B8E93B2EB7E04B2E292C9B
:1013700092DBB4E93B2EB7E04B2E2C888CDBBAE72E
:101380003B2EB7E04B2E2D8886DBB6E73B2EB7E031
:101390004B2E2E8880DBB2E73B2EB7E04B2E2F88FA
:1013A0007ADBBEE73B2EB7E04B2E288C74DBB5E82A
:1013B0003B2EB7E04B2E298C6EDB2F903F904F9049
:1013C0005F906F907F908F909F90B1E02B16B9F453
:1013D0009F928F927F926F925F924F923F922F9245
:1013E000242CB9E83B2EB7E04B2E55DB2F903F90D5
:1013F0004F905F906F907F908F909F909CC0B2E0D5
:101400002B16B9F49F928F927F926F925F924F92B8
:101410003F922F92242CB0E93B2EB7E04B2E3BDBC2
:101420002F903F904F905F906F907F908F909F9004
:1014300082C0B3E02B16B9F49F928F927F926F9285
:101440005F924F923F922F92242CB8E93B2EB7E047
:101450004B2E21DB2F903F904F905F906F907F90AD
:101460008F909F9068C0B4E02B16B9F49F928F9232
:101470007F926F925F924F923F922F92242CB4E909
:101480003B2EB7E04B2E07DB2F903F904F905F90A5
:101490006F907F908F909F904EC0B5E02B16B9F45F
:1014A0009F928F927F926F925F924F923F922F9274
:1014B000242CBAE73B2EB7E04B2EEDDA2F903F906D
:1014C0004F905F906F907F908F909F9034C0B6E068
:1014D0002B16B9F49F928F927F926F925F924F92E8
:1014E0003F922F92242CB6E73B2EB7E04B2ED3DA57
:1014F0002F903F904F905F906F907F908F909F9034
:101500001AC0B7E02B16B9F49F928F927F926F9218
:101510005F924F923F922F92242CB2E73B2EB7E07E
:101520004B2EB9DA2F903F904F905F906F907F9045
:101530008F909F9000C0B1E03B1609F0BEC09F9213
:101540008F927F926F925F924F923F922F92B4E967
:101550004B2EB7E05B2EBDE03B2EB1E02B2E0E9460
:1015600069A2BDE24B2EBDE03B2EB1E02B2E0E94C6
:10157000253AB8E94B2EB7E05B2EBAE03B2EB1E03E
:101580002B2E0E9469A2BDE24B2EBAE03B2EB1E0A9
:101590002B2E0E94253AB0E94B2EB7E05B2EB7E028
:1015A0003B2EB1E02B2E0E9469A2BDE24B2EB7E08C
:1015B0003B2EB1E02B2E0E94253AB9E84B2EB7E026
:1015C0005B2EB4E03B2EB1E02B2E0E9469A2FE01FF
:1015D000B2E5B193B5E6B193B4E6B193BAE3B19392
:1015E000B0E0B1938E012801B1E03B2EB1E02B2E8B
:1015F0000E9469A2B2E74B2EB7E05B2EBCE03B2E07
:10160000B2E02B2E0E9469A2BDE24B2EBCE03B2E25
:10161000B2E02B2E0E94253AB6E74B2EB7E05B2EA8
:10162000B9E03B2EB2E02B2E0E9469A2BDE24B2E08
:10163000B9E03B2EB2E02B2E0E94253AB2E74B2EAA
:10164000B7E05B2EB6E03B2EB2E02B2E0E9469A2E3
:10165000BDE24B2EB6E03B2EB2E02B2E0E94253A87
:10166000B6E74B2EB7E05B2EB3E03B2EB2E02B2E5D
:101670000E9469A2BDE24B2EB3E03B2EB2E02B2EBE
:101680000E94253ABAE74B2EB7E05B2E3324B2E036
:101690002B2E0E9469A22F903F904F905F906F90E9
:1016A0007F908F909F9025E01FE002EF0A95F1F761
:1016B0001A95E1F72A95D1F789C5B0E03B1609F0F4
:1016C000F9C0FE01B2E5B193B5E6B193B4E6B193CA
:1016D000BAE3B193B0E0B1938E019F928F927F9263
:1016E0006F925F924F923F922F922801B1E03B2E72
:1016F000B1E02B2E0E9469A2B0E94B2EB7E05B2E21
:10170000B7E03B2EB1E02B2E0E9469A2B8E94B2E28
:10171000B7E05B2EBAE03B2EB1E02B2E0E9469A20F
:10172000B4E94B2EB7E05B2EBDE03B2EB1E02B2E93
:101730000E9469A2BDE84B2EB7E05B2EB5E03B2EC0
:10174000B1E02B2E0E9469A2FE01BDE2B193BDE281
:10175000B193B0E2B193BDE2B193BDE2B193B0E217
:10176000B193BDE2B193BDE2B193B0E2B193BDE2FA
:10177000B193BDE2B193B0E2B193BDE2B193BDE2EA
:10178000B193B0E2B193B0E0B1938E012801B1E022
:101790003B2EB2E02B2E0E9469A225E11BE40FEB49
:1017A0000A95F1F71A95E1F72A95D1F70000B0E212
:1017B000B0938D07B0E2B0938E07B0E2B0938F077D
:1017C000B0E0B0939007FE01B2E5B193B5E6B193F6
:1017D000B4E6B193BAE3B193B0E0B1938E012801BE
:1017E000B1E03B2EB1E02B2E0E9469A2B0E94B2E56
:1017F000B7E05B2EB7E03B2EB1E02B2E0E9469A232
:10180000B8E94B2EB7E05B2EBAE03B2EB1E02B2EB1
:101810000E9469A2B4E94B2EB7E05B2EBDE03B2EDF
:10182000B1E02B2E0E9469A2BDE84B2EB7E05B2EE3
:10183000B5E03B2EB1E02B2E0E9469A2FE01BDE275
:10184000B193BDE2B193B0E2B193BDE2B193BDE219
:10185000B193B0E2B193BDE2B193BDE2B193B0E216
:10186000B193BDE2B193BDE2B193B0E2B193BDE2F9
:10187000B193BDE2B193B0E2B193B0E0B1938E0108
:101880002801B1E03B2EB2E02B2E0E9469A22F90DE
:101890003F904F905F906F907F908F909F9025E149
:1018A0001BE40FEB0A95F1F71A95E1F72A95D1F7AA
:1018B00000008CC4B2E03B1609F0BEC09F928F922C
:1018C0007F926F925F924F923F922F92B4E94B2E8C
:1018D000B7E05B2EBDE03B2EB1E02B2E0E9469A24B
:1018E000BDE24B2EBDE03B2EB1E02B2E0E94253AEF
:1018F000B8E94B2EB7E05B2EBAE03B2EB1E02B2EC1
:101900000E9469A2BDE24B2EBAE03B2EB1E02B2E25
:101910000E94253AB0E94B2EB7E05B2EB7E03B2E94
:10192000B1E02B2E0E9469A2BDE24B2EB7E03B2E08
:10193000B1E02B2E0E94253AB9E84B2EB7E05B2E82
:10194000B4E03B2EB1E02B2E0E9469A2FE01B7E469
:10195000B193B2E7B193BEE6B193BAE3B193B0E00D
:10196000B1938E012801B1E03B2EB1E02B2E0E94F5
:1019700069A2B2E74B2EB7E05B2EBCE03B2EB2E093
:101980002B2E0E9469A2BDE24B2EBCE03B2EB2E0A2
:101990002B2E0E94253AB6E74B2EB7E05B2EB9E01E
:1019A0003B2EB2E02B2E0E9469A2BDE24B2EB9E085
:1019B0003B2EB2E02B2E0E94253AB2E74B2EB7E029
:1019C0005B2EB6E03B2EB2E02B2E0E9469A2BDE258
:1019D0004B2EB6E03B2EB2E02B2E0E94253AB6E706
:1019E0004B2EB7E05B2EB3E03B2EB2E02B2E0E94D5
:1019F00069A2BDE24B2EB3E03B2EB2E02B2E0E943B
:101A0000253ABAE74B2EB7E05B2E3324B2E02B2EFB
:101A10000E9469A22F903F904F905F906F907F90AF
:101A20008F909F9025E01FE002EF0A95F1F71A953D
:101A3000E1F72A95D1F7CAC3B3E03B1609F0BEC05F
:101A40009F928F927F926F925F924F923F922F92CE
:101A5000B4E94B2EB7E05B2EBDE03B2EB1E02B2E60
:101A60000E9469A2BDE24B2EBDE03B2EB1E02B2EC1
:101A70000E94253AB8E94B2EB7E05B2EBAE03B2E28
:101A8000B1E02B2E0E9469A2BDE24B2EBAE03B2EA4
:101A9000B1E02B2E0E94253AB0E94B2EB7E05B2E29
:101AA000B7E03B2EB1E02B2E0E9469A2BDE24B2E87
:101AB000B7E03B2EB1E02B2E0E94253AB9E84B2E21
:101AC000B7E05B2EB4E03B2EB1E02B2E0E9469A262
:101AD000FE01B2E4B193BCE6B193B5E7B193BAE3CA
:101AE000B193B0E0B1938E012801B1E03B2EB1E09B
:101AF0002B2E0E9469A2B2E74B2EB7E05B2EBCE012
:101B00003B2EB2E02B2E0E9469A2BDE24B2EBCE020
:101B10003B2EB2E02B2E0E94253AB6E74B2EB7E0C3
:101B20005B2EB9E03B2EB2E02B2E0E9469A2BDE2F3
:101B30004B2EB9E03B2EB2E02B2E0E94253AB2E7A5
:101B40004B2EB7E05B2EB6E03B2EB2E02B2E0E9470
:101B500069A2BDE24B2EB6E03B2EB2E02B2E0E94D6
:101B6000253AB6E74B2EB7E05B2EB3E03B2EB2E052
:101B70002B2E0E9469A2BDE24B2EB3E03B2EB2E0B9
:101B80002B2E0E94253ABAE74B2EB7E05B2E33246A
:101B9000B2E02B2E0E9469A22F903F904F905F9051
:101BA0006F907F908F909F9025E01FE002EF0A9545
:101BB000F1F71A95E1F72A95D1F708C3B4E03B167F
:101BC00009F0BEC09F928F927F926F925F924F9268
:101BD0003F922F92B4E94B2EB7E05B2EBDE03B2E37
:101BE000B1E02B2E0E9469A2BDE24B2EBDE03B2E40
:101BF000B1E02B2E0E94253AB8E94B2EB7E05B2EC0
:101C0000BAE03B2EB1E02B2E0E9469A2BDE24B2E22
:101C1000BAE03B2EB1E02B2E0E94253AB0E94B2EC4
:101C2000B7E05B2EB7E03B2EB1E02B2E0E9469A2FD
:101C3000BDE24B2EB7E03B2EB1E02B2E0E94253AA1
:101C4000B9E84B2EB7E05B2EB4E03B2EB1E02B2E73
:101C50000E9469A2FE01B7E5B193B8E6B193B4E77B
:101C6000B193BAE3B193B0E0B1938E012801B1E032
:101C70003B2EB1E02B2E0E9469A2B2E74B2EB7E0BB
:101C80005B2EBCE03B2EB2E02B2E0E9469A2BDE28F
:101C90004B2EBCE03B2EB2E02B2E0E94253AB6E73D
:101CA0004B2EB7E05B2EB9E03B2EB2E02B2E0E940C
:101CB00069A2BDE24B2EB9E03B2EB2E02B2E0E9472
:101CC000253AB2E74B2EB7E05B2EB6E03B2EB2E0F2
:101CD0002B2E0E9469A2BDE24B2EB6E03B2EB2E055
:101CE0002B2E0E94253AB6E74B2EB7E05B2EB3E0D1
:101CF0003B2EB2E02B2E0E9469A2BDE24B2EB3E038
:101D00003B2EB2E02B2E0E94253ABAE74B2EB7E0CD
:101D10005B2E3324B2E02B2E0E9469A22F903F90BD
:101D20004F905F906F907F908F909F9025E01FE085
:101D300002EF0A95F1F71A95E1F72A95D1F746C215
:101D4000B5E03B1609F0BEC09F928F927F926F92D2
:101D50005F924F923F922F92B4E94B2EB7E05B2EE9
:101D6000BDE03B2EB1E02B2E0E9469A2BDE24B2EBE
:101D7000BDE03B2EB1E02B2E0E94253AB8E94B2E58
:101D8000B7E05B2EBAE03B2EB1E02B2E0E9469A299
:101D9000BDE24B2EBAE03B2EB1E02B2E0E94253A3D
:101DA000B0E94B2EB7E05B2EB7E03B2EB1E02B2E17
:101DB0000E9469A2BDE24B2EB7E03B2EB1E02B2E74
:101DC0000E94253AB9E84B2EB7E05B2EB4E03B2EDB
:101DD000B1E02B2E0E9469A2FE01B9E5B193B5E6F0
:101DE000B193BCE6B193BAE3B193B0E0B1938E0185
:101DF0002801B1E03B2EB1E02B2E0E9469A2B2E790
:101E00004B2EB7E05B2EBCE03B2EB2E02B2E0E94A7
:101E100069A2BDE24B2EBCE03B2EB2E02B2E0E940D
:101E2000253AB6E74B2EB7E05B2EB9E03B2EB2E089
:101E30002B2E0E9469A2BDE24B2EB9E03B2EB2E0F0
:101E40002B2E0E94253AB2E74B2EB7E05B2EB6E070
:101E50003B2EB2E02B2E0E9469A2BDE24B2EB6E0D3
:101E60003B2EB2E02B2E0E94253AB6E74B2EB7E070
:101E70005B2EB3E03B2EB2E02B2E0E9469A2BDE2A6
:101E80004B2EB3E03B2EB2E02B2E0E94253ABAE750
:101E90004B2EB7E05B2E3324B2E02B2E0E9469A2BA
:101EA0002F903F904F905F906F907F908F909F907A
:101EB00025E01FE002EF0A95F1F71A95E1F72A9560
:101EC000D1F784C1B6E03B1609F0BEC09F928F9255
:101ED0007F926F925F924F923F922F92B4E94B2E76
:101EE000B7E05B2EBDE03B2EB1E02B2E0E9469A235
:101EF000BDE24B2EBDE03B2EB1E02B2E0E94253AD9
:101F0000B8E94B2EB7E05B2EBAE03B2EB1E02B2EAA
:101F10000E9469A2BDE24B2EBAE03B2EB1E02B2E0F
:101F20000E94253AB0E94B2EB7E05B2EB7E03B2E7E
:101F3000B1E02B2E0E9469A2BDE24B2EB7E03B2EF2
:101F4000B1E02B2E0E94253AB9E84B2EB7E05B2E6C
:101F5000B4E03B2EB1E02B2E0E9469A2FE01B4E456
:101F6000B193B0E7B193B2E4B193BAE3B193B0E007
:101F7000B1938E012801B1E03B2EB1E02B2E0E94DF
:101F800069A2B2E74B2EB7E05B2EBCE03B2EB2E07D
:101F90002B2E0E9469A2BDE24B2EBCE03B2EB2E08C
:101FA0002B2E0E94253AB6E74B2EB7E05B2EB9E008
:101FB0003B2EB2E02B2E0E9469A2BDE24B2EB9E06F
:101FC0003B2EB2E02B2E0E94253AB2E74B2EB7E013
:101FD0005B2EB6E03B2EB2E02B2E0E9469A2BDE242
:101FE0004B2EB6E03B2EB2E02B2E0E94253AB6E7F0
:101FF0004B2EB7E05B2EB3E03B2EB2E02B2E0E94BF
:1020000069A2BDE24B2EB3E03B2EB2E02B2E0E9424
:10201000253ABAE74B2EB7E05B2E3324B2E02B2EE5
:102020000E9469A22F903F904F905F906F907F9099
:102030008F909F9025E01FE002EF0A95F1F71A9527
:10204000E1F72A95D1F7C2C0B7E03B1609F0BEC050
:102050009F928F927F926F925F924F923F922F92B8
:10206000B4E94B2EB7E05B2EBDE03B2EB1E02B2E4A
:102070000E9469A2BDE24B2EBDE03B2EB1E02B2EAB
:102080000E94253AB8E94B2EB7E05B2EBAE03B2E12
:10209000B1E02B2E0E9469A2BDE24B2EBAE03B2E8E
:1020A000B1E02B2E0E94253AB0E94B2EB7E05B2E13
:1020B000B7E03B2EB1E02B2E0E9469A2BDE24B2E71
:1020C000B7E03B2EB1E02B2E0E94253AB9E84B2E0B
:1020D000B7E05B2EB4E03B2EB1E02B2E0E9469A24C
:1020E000FE01B5E5B193B6E5B193B0E2B193BAE3C1
:1020F000B193B0E0B1938E012801B1E03B2EB1E085
:102100002B2E0E9469A2B2E74B2EB7E05B2EBCE0FB
:102110003B2EB2E02B2E0E9469A2BDE24B2EBCE00A
:102120003B2EB2E02B2E0E94253AB6E74B2EB7E0AD
:102130005B2EB9E03B2EB2E02B2E0E9469A2BDE2DD
:102140004B2EB9E03B2EB2E02B2E0E94253AB2E78F
:102150004B2EB7E05B2EB6E03B2EB2E02B2E0E945A
:1021600069A2BDE24B2EB6E03B2EB2E02B2E0E94C0
:10217000253AB6E74B2EB7E05B2EB3E03B2EB2E03C
:102180002B2E0E9469A2BDE24B2EB3E03B2EB2E0A3
:102190002B2E0E94253ABAE74B2EB7E05B2E332454
:1021A000B2E02B2E0E9469A22F903F904F905F903B
:1021B0006F907F908F909F9025E01FE002EF0A952F
:1021C000F1F71A95E1F72A95D1F700C09F928F9207
:1021D0007F926F925F924F923F922F92242CBDE894
:1021E0003B2EB7E04B2E0E944B052F903F904F9017
:1021F0005F906F907F907F926F925F924F923F922D
:102200002F92B9E83B2EB7E04B2E272C0E944B05AE
:102210002F903F904F905F906F907F908F908F9214
:102220007F926F925F924F923F922F92B0E93B2E36
:10223000B7E04B2E282C0E944B052F903F904F90DB
:102240005F906F907F908F909F909F928F927F92E0
:102250006F925F924F923F922F92B8E93B2EB7E078
:102260004B2E292C0E944B05B4E93B2EB7E04B2E98
:102270002C880E944B05BAE73B2EB7E04B2E2D88E9
:102280000E944B05B6E73B2EB7E04B2E2E880E94EE
:102290004B05B2E73B2EB7E04B2E2F880E944B0533
:1022A000BEE73B2EB7E04B2E288C0E944B05B5E8CD
:1022B0003B2EB7E04B2E298C0E944B052F903F9070
:1022C0004F905F906F907F908F909F90B1E02B1612
:1022D00069F4B0E2B0938907B0E2B0938A07B0E244
:1022E000B0938B07B0E0B0938C0760C0B2E02B16C0
:1022F00069F4B0E2B0939007B0E2B0939107B0E216
:10230000B0939207B0E0B093930750C0B3E02B16A0
:1023100069F4B0E2B0939807B0E2B0939907B0E2E5
:10232000B0939A07B0E0B0939B0740C0B4E02B167F
:1023300069F4B0E2B0939407B0E2B0939507B0E2CD
:10234000B0939607B0E0B093970730C0B5E02B1676
:1023500069F4B0E2B0937A07B0E2B0937B07B0E2E1
:10236000B0937C07B0E0B0937D0720C0B6E02B1699
:1023700069F4B0E2B0937607B0E2B0937707B0E2C9
:10238000B0937807B0E0B093790710C0B7E02B1690
:1023900069F4B0E2B0937207B0E2B0937307B0E2B1
:1023A000B0937407B0E0B093750700C0B1E03B167E
:1023B00009F0BEC09F928F927F926F925F924F9270
:1023C0003F922F92B4E94B2EB7E05B2EBDE03B2E3F
:1023D000B1E02B2E0E9469A2BDE24B2EBDE03B2E48
:1023E000B1E02B2E0E94253AB8E94B2EB7E05B2EC8
:1023F000BAE03B2EB1E02B2E0E9469A2BDE24B2E2B
:10240000BAE03B2EB1E02B2E0E94253AB0E94B2ECC
:10241000B7E05B2EB7E03B2EB1E02B2E0E9469A205
:10242000BDE24B2EB7E03B2EB1E02B2E0E94253AA9
:10243000B9E84B2EB7E05B2EB4E03B2EB1E02B2E7B
:102440000E9469A2FE01B2E5B193B5E6B193B4E68C
:10245000B193BAE3B193B0E0B1938E012801B1E03A
:102460003B2EB1E02B2E0E9469A2B2E74B2EB7E0C3
:102470005B2EBCE03B2EB2E02B2E0E9469A2BDE297
:102480004B2EBCE03B2EB2E02B2E0E94253AB6E745
:102490004B2EB7E05B2EB9E03B2EB2E02B2E0E9414
:1024A00069A2BDE24B2EB9E03B2EB2E02B2E0E947A
:1024B000253AB2E74B2EB7E05B2EB6E03B2EB2E0FA
:1024C0002B2E0E9469A2BDE24B2EB6E03B2EB2E05D
:1024D0002B2E0E94253AB6E74B2EB7E05B2EB3E0D9
:1024E0003B2EB2E02B2E0E9469A2BDE24B2EB3E040
:1024F0003B2EB2E02B2E0E94253ABAE74B2EB7E0D6
:102500005B2E3324B2E02B2E0E9469A22F903F90C5
:102510004F905F906F907F908F909F9025E01FE08D
:1025200002EF0A95F1F71A95E1F72A95D1F789C5D7
:10253000B0E03B1609F0F9C0FE01B2E5B193B5E693
:10254000B193B4E6B193BAE3B193B0E0B1938E0125
:102550009F928F927F926F925F924F923F922F92B3
:102560002801B1E03B2EB1E02B2E0E9469A2B0E918
:102570004B2EB7E05B2EB7E03B2EB1E02B2E0E9436
:1025800069A2B8E94B2EB7E05B2EBAE03B2EB1E072
:102590002B2E0E9469A2B4E94B2EB7E05B2EBDE062
:1025A0003B2EB1E02B2E0E9469A2BDE84B2EB7E076
:1025B0005B2EB5E03B2EB1E02B2E0E9469A2FE01FE
:1025C000BDE2B193BDE2B193B0E2B193BDE2B1938C
:1025D000BDE2B193B0E2B193BDE2B193BDE2B1937C
:1025E000B0E2B193BDE2B193BDE2B193B0E2B19379
:1025F000BDE2B193BDE2B193B0E2B193B0E0B1936B
:102600008E012801B1E03B2EB2E02B2E0E9469A280
:1026100025E11BE40FEB0A95F1F71A95E1F72A95EE
:10262000D1F70000B0E2B0938D07B0E2B0938E070F
:10263000B0E2B0938F07B0E0B0939007FE01B2E52F
:10264000B193B5E6B193B4E6B193BAE3B193B0E018
:10265000B1938E012801B1E03B2EB1E02B2E0E94F8
:1026600069A2B0E94B2EB7E05B2EB7E03B2EB1E09C
:102670002B2E0E9469A2B8E94B2EB7E05B2EBAE080
:102680003B2EB1E02B2E0E9469A2B4E94B2EB7E09D
:102690005B2EBDE03B2EB1E02B2E0E9469A2BDE86F
:1026A0004B2EB7E05B2EB5E03B2EB1E02B2E0E9407
:1026B00069A2FE01BDE2B193BDE2B193B0E2B19374
:1026C000BDE2B193BDE2B193B0E2B193BDE2B1938B
:1026D000BDE2B193B0E2B193BDE2B193BDE2B1937B
:1026E000B0E2B193BDE2B193BDE2B193B0E2B19378
:1026F000B0E0B1938E012801B1E03B2EB2E02B2E69
:102700000E9469A22F903F904F905F906F907F90B2
:102710008F909F9025E11BE40FEB0A95F1F71A9536
:10272000E1F72A95D1F700008CC4B2E03B1609F01E
:10273000BEC09F928F927F926F925F924F923F9214
:102740002F92B4E94B2EB7E05B2EBDE03B2EB1E0FB
:102750002B2E0E9469A2BDE24B2EBDE03B2EB1E0C4
:102760002B2E0E94253AB8E94B2EB7E05B2EBAE03B
:102770003B2EB1E02B2E0E9469A2BDE24B2EBAE0A7
:102780003B2EB1E02B2E0E94253AB0E94B2EB7E04C
:102790005B2EB7E03B2EB1E02B2E0E9469A2BDE27A
:1027A0004B2EB7E03B2EB1E02B2E0E94253AB9E824
:1027B0004B2EB7E05B2EB4E03B2EB1E02B2E0E94F7
:1027C00069A2FE01B7E4B193B2E7B193BEE6B1935B
:1027D000BAE3B193B0E0B1938E012801B1E03B2E92
:1027E000B1E02B2E0E9469A2B2E74B2EB7E05B2E20
:1027F000BCE03B2EB2E02B2E0E9469A2BDE24B2E24
:10280000BCE03B2EB2E02B2E0E94253AB6E74B2EC1
:10281000B7E05B2EB9E03B2EB2E02B2E0E9469A2FE
:10282000BDE24B2EB9E03B2EB2E02B2E0E94253AA2
:10283000B2E74B2EB7E05B2EB6E03B2EB2E02B2E7C
:102840000E9469A2BDE24B2EB6E03B2EB2E02B2ED9
:102850000E94253AB6E74B2EB7E05B2EB3E03B2E45
:10286000B2E02B2E0E9469A2BDE24B2EB3E03B2EBC
:10287000B2E02B2E0E94253ABAE74B2EB7E05B2E32
:102880003324B2E02B2E0E9469A22F903F904F90EC
:102890005F906F907F908F909F9025E01FE002EFF8
:1028A0000A95F1F71A95E1F72A95D1F7CAC3B3E073
:1028B0003B1609F0BEC09F928F927F926F925F92FB
:1028C0004F923F922F92B4E94B2EB7E05B2EBDE0C2
:1028D0003B2EB1E02B2E0E9469A2BDE24B2EBDE043
:1028E0003B2EB1E02B2E0E94253AB8E94B2EB7E0E3
:1028F0005B2EBAE03B2EB1E02B2E0E9469A2BDE216
:102900004B2EBAE03B2EB1E02B2E0E94253AB0E9C7
:102910004B2EB7E05B2EB7E03B2EB1E02B2E0E9492
:1029200069A2BDE24B2EB7E03B2EB1E02B2E0E94F8
:10293000253AB9E84B2EB7E05B2EB4E03B2EB1E070
:102940002B2E0E9469A2FE01B2E4B193BCE6B193C2
:10295000B5E7B193BAE3B193B0E0B1938E0128012A
:10296000B1E03B2EB1E02B2E0E9469A2B2E74B2EC4
:10297000B7E05B2EBCE03B2EB2E02B2E0E9469A29A
:10298000BDE24B2EBCE03B2EB2E02B2E0E94253A3E
:10299000B6E74B2EB7E05B2EB9E03B2EB2E02B2E14
:1029A0000E9469A2BDE24B2EB9E03B2EB2E02B2E75
:1029B0000E94253AB2E74B2EB7E05B2EB6E03B2EE5
:1029C000B2E02B2E0E9469A2BDE24B2EB6E03B2E58
:1029D000B2E02B2E0E94253AB6E74B2EB7E05B2ED5
:1029E000B3E03B2EB2E02B2E0E9469A2BDE24B2E3B
:1029F000B3E03B2EB2E02B2E0E94253ABAE74B2ED5
:102A0000B7E05B2E3324B2E02B2E0E9469A22F90F8
:102A10003F904F905F906F907F908F909F9025E0B8
:102A20001FE002EF0A95F1F71A95E1F72A95D1F721
:102A300008C3B4E03B1609F0BEC09F928F927F920C
:102A40006F925F924F923F922F92B4E94B2EB7E074
:102A50005B2EBDE03B2EB1E02B2E0E9469A2BDE2B1
:102A60004B2EBDE03B2EB1E02B2E0E94253AB8E95B
:102A70004B2EB7E05B2EBAE03B2EB1E02B2E0E942E
:102A800069A2BDE24B2EBAE03B2EB1E02B2E0E9494
:102A9000253AB0E94B2EB7E05B2EB7E03B2EB1E014
:102AA0002B2E0E9469A2BDE24B2EB7E03B2EB1E077
:102AB0002B2E0E94253AB9E84B2EB7E05B2EB4E0EE
:102AC0003B2EB1E02B2E0E9469A2FE01B7E5B19327
:102AD000B8E6B193B4E7B193BAE3B193B0E0B19380
:102AE0008E012801B1E03B2EB1E02B2E0E9469A29D
:102AF000B2E74B2EB7E05B2EBCE03B2EB2E02B2EB4
:102B00000E9469A2BDE24B2EBCE03B2EB2E02B2E10
:102B10000E94253AB6E74B2EB7E05B2EB9E03B2E7C
:102B2000B2E02B2E0E9469A2BDE24B2EB9E03B2EF3
:102B3000B2E02B2E0E94253AB2E74B2EB7E05B2E77
:102B4000B6E03B2EB2E02B2E0E9469A2BDE24B2ED6
:102B5000B6E03B2EB2E02B2E0E94253AB6E74B2E74
:102B6000B7E05B2EB3E03B2EB2E02B2E0E9469A2B1
:102B7000BDE24B2EB3E03B2EB2E02B2E0E94253A55
:102B8000BAE74B2EB7E05B2E3324B2E02B2E0E9427
:102B900069A22F903F904F905F906F907F908F90A1
:102BA0009F9025E01FE002EF0A95F1F71A95E1F7F3
:102BB0002A95D1F746C2B5E03B1609F0BEC09F92F8
:102BC0008F927F926F925F924F923F922F92B4E9D1
:102BD0004B2EB7E05B2EBDE03B2EB1E02B2E0E94CA
:102BE00069A2BDE24B2EBDE03B2EB1E02B2E0E9430
:102BF000253AB8E94B2EB7E05B2EBAE03B2EB1E0A8
:102C00002B2E0E9469A2BDE24B2EBAE03B2EB1E012
:102C10002B2E0E94253AB0E94B2EB7E05B2EB7E091
:102C20003B2EB1E02B2E0E9469A2BDE24B2EB7E0F5
:102C30003B2EB1E02B2E0E94253AB9E84B2EB7E08F
:102C40005B2EB4E03B2EB1E02B2E0E9469A2FE0168
:102C5000B9E5B193B5E6B193BCE6B193BAE3B193EC
:102C6000B0E0B1938E012801B1E03B2EB1E02B2EF4
:102C70000E9469A2B2E74B2EB7E05B2EBCE03B2E70
:102C8000B2E02B2E0E9469A2BDE24B2EBCE03B2E8F
:102C9000B2E02B2E0E94253AB6E74B2EB7E05B2E12
:102CA000B9E03B2EB2E02B2E0E9469A2BDE24B2E72
:102CB000B9E03B2EB2E02B2E0E94253AB2E74B2E14
:102CC000B7E05B2EB6E03B2EB2E02B2E0E9469A24D
:102CD000BDE24B2EB6E03B2EB2E02B2E0E94253AF1
:102CE000B6E74B2EB7E05B2EB3E03B2EB2E02B2EC7
:102CF0000E9469A2BDE24B2EB3E03B2EB2E02B2E28
:102D00000E94253ABAE74B2EB7E05B2E3324B2E09F
:102D10002B2E0E9469A22F903F904F905F906F9052
:102D20007F908F909F9025E01FE002EF0A95F1F7CA
:102D30001A95E1F72A95D1F784C1B6E03B1609F060
:102D4000BEC09F928F927F926F925F924F923F92FE
:102D50002F92B4E94B2EB7E05B2EBDE03B2EB1E0E5
:102D60002B2E0E9469A2BDE24B2EBDE03B2EB1E0AE
:102D70002B2E0E94253AB8E94B2EB7E05B2EBAE025
:102D80003B2EB1E02B2E0E9469A2BDE24B2EBAE091
:102D90003B2EB1E02B2E0E94253AB0E94B2EB7E036
:102DA0005B2EB7E03B2EB1E02B2E0E9469A2BDE264
:102DB0004B2EB7E03B2EB1E02B2E0E94253AB9E80E
:102DC0004B2EB7E05B2EB4E03B2EB1E02B2E0E94E1
:102DD00069A2FE01B4E4B193B0E7B193B2E4B19358
:102DE000BAE3B193B0E0B1938E012801B1E03B2E7C
:102DF000B1E02B2E0E9469A2B2E74B2EB7E05B2E0A
:102E0000BCE03B2EB2E02B2E0E9469A2BDE24B2E0D
:102E1000BCE03B2EB2E02B2E0E94253AB6E74B2EAB
:102E2000B7E05B2EB9E03B2EB2E02B2E0E9469A2E8
:102E3000BDE24B2EB9E03B2EB2E02B2E0E94253A8C
:102E4000B2E74B2EB7E05B2EB6E03B2EB2E02B2E66
:102E50000E9469A2BDE24B2EB6E03B2EB2E02B2EC3
:102E60000E94253AB6E74B2EB7E05B2EB3E03B2E2F
:102E7000B2E02B2E0E9469A2BDE24B2EB3E03B2EA6
:102E8000B2E02B2E0E94253ABAE74B2EB7E05B2E1C
:102E90003324B2E02B2E0E9469A22F903F904F90D6
:102EA0005F906F907F908F909F9025E01FE002EFE2
:102EB0000A95F1F71A95E1F72A95D1F7C2C0B7E064
:102EC0003B1609F0BEC09F928F927F926F925F92E5
:102ED0004F923F922F92B4E94B2EB7E05B2EBDE0AC
:102EE0003B2EB1E02B2E0E9469A2BDE24B2EBDE02D
:102EF0003B2EB1E02B2E0E94253AB8E94B2EB7E0CD
:102F00005B2EBAE03B2EB1E02B2E0E9469A2BDE2FF
:102F10004B2EBAE03B2EB1E02B2E0E94253AB0E9B1
:102F20004B2EB7E05B2EB7E03B2EB1E02B2E0E947C
:102F300069A2BDE24B2EB7E03B2EB1E02B2E0E94E2
:102F4000253AB9E84B2EB7E05B2EB4E03B2EB1E05A
:102F50002B2E0E9469A2FE01B5E5B193B6E5B193AF
:102F6000B0E2B193BAE3B193B0E0B1938E0128011E
:102F7000B1E03B2EB1E02B2E0E9469A2B2E74B2EAE
:102F8000B7E05B2EBCE03B2EB2E02B2E0E9469A284
:102F9000BDE24B2EBCE03B2EB2E02B2E0E94253A28
:102FA000B6E74B2EB7E05B2EB9E03B2EB2E02B2EFE
:102FB0000E9469A2BDE24B2EB9E03B2EB2E02B2E5F
:102FC0000E94253AB2E74B2EB7E05B2EB6E03B2ECF
:102FD000B2E02B2E0E9469A2BDE24B2EB6E03B2E42
:102FE000B2E02B2E0E94253AB6E74B2EB7E05B2EBF
:102FF000B3E03B2EB2E02B2E0E9469A2BDE24B2E25
:10300000B3E03B2EB2E02B2E0E94253ABAE74B2EBE
:10301000B7E05B2E3324B2E02B2E0E9469A22F90E2
:103020003F904F905F906F907F908F909F9025E0A2
:103030001FE002EF0A95F1F71A95E1F72A95D1F70B
:1030400000C09F928F927F926F925F924F923F92B9
:103050002F9266245524B5E04B2EB2E32B2EB0E020
:103060003B2E0E941C972F903F904F905F906F9047
:103070007F908F909F90002329F0B0912B01B06832
:10308000B0932B019F928F927F926F925F924F929B
:103090003F922F92B1E06B2E5524B5E04B2EB0E35A
:1030A0002B2EB0E03B2E0E941C972F903F904F900C
:1030B0005F906F907F908F909F9000902B011127D1
:1030C00007FC13950123F9F0451411F4462C03C0B5
:1030D000042D0F5F402E9F928F927F926F925F928E
:1030E0004F923F922F92532C242CBFEF3B2EB0E0F7
:1030F0004B2E0E9473082F903F904F905F906F90DF
:103100007F908F909F90B0912B01B068B0932B016E
:103110009F928F927F926F925F924F923F922F92E7
:1031200066245524B4E04B2EB2E32B2EB0E03B2EA8
:103130000E941C972F903F904F905F906F907F90D0
:103140008F909F90002329F0B0912B01B068B0932D
:103150002B019F928F927F926F925F924F923F923C
:103160002F92B1E06B2E5524B4E04B2EB0E32B2E02
:10317000B0E03B2E0E941C972F903F904F905F90A5
:103180006F907F908F909F9000902B01112707FCEC
:1031900013950123F9F0461411F4452C03C0042DB6
:1031A0000150402E9F928F927F926F925F924F922A
:1031B0003F922F92532C242CBFEF3B2EB0E04B2E8E
:1031C0000E9473082F903F904F905F906F907F9078
:1031D0008F909F9040925B079F928F927F926F9209
:1031E0005F924F923F922F9266245524B2E04B2E6D
:1031F000B0E32B2EB0E03B2E0E941C972F903F9007
:103200004F905F906F907F908F909F90003029F04B
:10321000B0910001B062B09300019F928F927F92B3
:103220006F925F924F923F922F92B1E06B2E552496
:10323000B2E04B2EB0E32B2EB0E03B2E0E941C9749
:103240002F903F904F905F906F907F908F909F90C6
:1032500000900001112705FC1395012309F415C105
:10326000B0910001BF7DB0930001B0912B01BF7BF5
:10327000B0932B019F928F927F926F925F924F92A9
:103280003F922F920E9428092F903F904F905F907D
:103290006F907F908F909F90B1E04B1609F086C0A1
:1032A000B1E0B093C40710913401009133011017BD
:1032B00019F4B1E0B09334019F928F927F926F9294
:1032C0005F924F923F922F92B7EC3B2EB7E04B2E7E
:1032D0002090020E0E944B05FE01B3E4B193B8E6C4
:1032E000B193B1E6B193BEE6B193B5E6B193BCE656
:1032F000B193B0E0B1938E012801B1E03B2EB1E073
:103300002B2E0E9469A2B7EC4B2EB7E05B2EB8E0E3
:103310003B2EB1E02B2E0E9469A2FE01B4E7B193CF
:10332000B9E6B193BDE6B193B5E6B193B0E2B1931E
:10333000B9E6B193B3E7B193B0E2B193B0E0B19322
:103340008E012801B9E03B2EB1E02B2E0E9469A22C
:10335000FE01B3E7B193B5E6B193BCE6B193B5E630
:10336000B193B3E6B193B4E7B193B5E6B193B4E6E4
:10337000B193B0E0B1938E012801B1E03B2EB2E0F1
:103380002B2E0E9469A22F903F904F905F906F90DC
:103390007F908F909F9025E11BE40FEB0A95F1F74A
:1033A0001A95E1F72A95D1F700006FC0109134010A
:1033B00000913301101719F4B1E0B0933401FE010C
:1033C000B4E5B193B9E6B193BDE6B193B5E6B19377
:1033D000B0E2B193B4E5B193B1E6B193B2E6B19383
:1033E000BCE6B193B5E6B193B0E2B193B9E6B1935F
:1033F000B3E7B193B0E2B193B0E0B1938E019F9285
:103400008F927F926F925F924F923F922F922801FC
:10341000B1E03B2EB1E02B2E0E9469A2FE01B3E485
:10342000B193BFE6B193BDE6B193B0E7B193BCE60B
:10343000B193B5E6B193B4E7B193B5E6B193B4E611
:10344000B193B0E2B193B1E2B193B1E2B193B1E221
:10345000B193B0E0B1938E012801B1E03B2EB2E010
:103460002B2E0E9469A22F903F904F905F906F90FB
:103470007F908F909F9025E11BE40FEB0A95F1F769
:103480001A95E1F72A95D1F700009F928F927F92CB
:103490006F925F924F923F922F9266245524B6E02E
:1034A0004B2EB0E32B2EB0E03B2E0E941C972F90AA
:1034B0003F904F905F906F907F908F909F900030E3
:1034C00029F0B0912B01B068B0932B0110902B0123
:1034D00000902B015E7F16FC07FE01C051609F9299
:1034E0008F927F926F925F924F923F922F92B1E0B4
:1034F0006B2E5524B6E04B2EB0E32B2EB0E03B2EC6
:103500000E941C972F903F904F905F906F907F90FC
:103510008F909F90112750FD1395012309F415C139
:10352000B0912B01BF7BB0932B01B0912B01BF77E2
:10353000B0932B019F928F927F926F925F924F92E6
:103540003F922F920E9428092F903F904F905F90BA
:103550006F907F908F909F90B1E04B1609F086C0DE
:10356000B1E0B093C40710913401009133011017FA
:1035700019F4B1E0B09334019F928F927F926F92D1
:103580005F924F923F922F92B7EC3B2EB7E04B2EBB
:103590002090020E0E944B05FE01B3E4B193B8E601
:1035A000B193B1E6B193BEE6B193B5E6B193BCE693
:1035B000B193B0E0B1938E012801B1E03B2EB1E0B0
:1035C0002B2E0E9469A2B7EC4B2EB7E05B2EB8E021
:1035D0003B2EB1E02B2E0E9469A2FE01B4E7B1930D
:1035E000B9E6B193BDE6B193B5E6B193B0E2B1935C
:1035F000B9E6B193B3E7B193B0E2B193B0E0B19360
:103600008E012801B9E03B2EB1E02B2E0E9469A269
:10361000FE01B3E7B193B5E6B193BCE6B193B5E66D
:10362000B193B3E6B193B4E7B193B5E6B193B4E621
:10363000B193B0E0B1938E012801B1E03B2EB2E02E
:103640002B2E0E9469A22F903F904F905F906F9019
:103650007F908F909F9025E11BE40FEB0A95F1F787
:103660001A95E1F72A95D1F700006FC01091340147
:1036700000913301101719F4B1E0B0933401FE0149
:10368000B4E5B193B9E6B193BDE6B193B5E6B193B4
:10369000B0E2B193B4E5B193B1E6B193B2E6B193C0
:1036A000BCE6B193B5E6B193B0E2B193B9E6B1939C
:1036B000B3E7B193B0E2B193B0E0B1938E019F92C2
:1036C0008F927F926F925F924F923F922F9228013A
:1036D000B1E03B2EB1E02B2E0E9469A2FE01B3E4C3
:1036E000B193BFE6B193BDE6B193B0E7B193BCE649
:1036F000B193B5E6B193B4E7B193B5E6B193B4E64F
:10370000B193B0E2B193B1E2B193B1E2B193B1E25E
:10371000B193B0E0B1938E012801B1E03B2EB2E04D
:103720002B2E0E9469A22F903F904F905F906F9038
:103730007F908F909F9025E11BE40FEB0A95F1F7A6
:103740001A95E1F72A95D1F7000040925B070C9497
:1037500063092F96CDBFDEBFDF91CF910895CF9340
:10376000DF93CDB7DEB76497CDBFDEBF2196B091B2
:103770002B01B064B0932B01B0910001BF7DB093D9
:1037800000016F925F924F923F922F920E94280900
:10379000B3E83B2EB7E04B2E2090020E0E944B0563
:1037A0002F903F904F905F906F9010902B01009062
:1037B0002B014E7F16FC04FE01C0416040FF0C94BB
:1037C000822AB1E04B1609F0C6C5B1E02B1609F00C
:1037D000CFC0FE01B9E5B193B5E6B193B3E7B193BC
:1037E000BCE7B193BEE4B193BFE6B193B0E2B1934D
:1037F000B3E4B193B8E6B193B1E6B193BEE6B19349
:10380000B5E6B193BCE6B193BAE3B193B0E0B1933E
:103810008E016F925F924F923F922F922801B1E0FA
:103820003B2EB1E02B2E0E9469A2B3E84B2EB7E0ED
:103830005B2EBEE03B2EB1E02B2E0E9469A2FE0162
:10384000B0E5B193B2E7B193BAE3B193B1E3B19309
:10385000B0E2B193B2E3B193B0E2B193B3E3B19309
:10386000B0E2B193B4E3B193B0E2B193B5E3B193F5
:10387000B0E2B193B6E3B193B0E2B193B7E3B193E1
:10388000B0E0B1938E012801B1E03B2EB2E02B2EC7
:103890000E9469A225E01FE002EF0A95F1F71A9550
:1038A000E1F72A95D1F7FE01B0E2B193B0E2B1930E
:1038B000B0E2B193BCE7B193BEE4B193BFE6B1937C
:1038C000B0E2B193B3E4B193B8E6B193B1E6B1938A
:1038D000BEE6B193B5E6B193BCE6B193BAE3B1935A
:1038E000B0E2B193B0E2B193B0E0B1938E012801A0
:1038F000B1E03B2EB1E02B2E0E9469A2FE01B4E4A0
:10390000B193B9E7B193BAE3B193B0E2B193B0E246
:10391000B193B2E3B193B0E2B193B3E3B193B0E248
:10392000B193B4E3B193B0E2B193B5E3B193B0E234
:10393000B193B6E3B193B0E2B193B7E3B193B0E022
:10394000B1938E012801B1E03B2EB2E02B2E0E94F4
:1039500069A22F903F904F905F906F9025E01FE0FD
:1039600002EF0A95F1F71A95E1F72A95D1F7F2C41B
:10397000B2E02B1609F0CFC0FE01B9E5B193B5E670
:10398000B193B3E7B193BCE7B193BEE4B193BFE6A3
:10399000B193B0E2B193B3E4B193B8E6B193B1E6B9
:1039A000B193BEE6B193B5E6B193BCE6B193BAE389
:1039B000B193B0E0B1938E016F925F924F923F92BC
:1039C0002F922801B1E03B2EB1E02B2E0E9469A27C
:1039D000B3E84B2EB7E05B2EBEE03B2EB1E02B2EC2
:1039E0000E9469A2FE01B0E5B193B2E7B193BAE3D8
:1039F000B193B1E3B193B0E2B193B2E3B193B0E26A
:103A0000B193B3E3B193B0E2B193B4E3B193B0E255
:103A1000B193B5E3B193B0E2B193B6E3B193B0E241
:103A2000B193B7E3B193B0E0B1938E012801B1E057
:103A30003B2EB2E02B2E0E9469A225E01FE002EF90
:103A40000A95F1F71A95E1F72A95D1F7FE01B0E250
:103A5000B193B0E2B193B0E2B193BCE7B193BEE4ED
:103A6000B193BFE6B193B0E2B193B3E4B193B8E6DA
:103A7000B193B1E6B193BEE6B193B5E6B193BCE6BE
:103A8000B193BAE3B193B0E2B193B0E2B193B0E0D5
:103A9000B1938E012801B1E03B2EB1E02B2E0E94A4
:103AA00069A2FE01B0E5B193B2E7B193BAE3B19375
:103AB000B1E3B193B0E2B193B0E2B193B0E2B193AC
:103AC000B3E3B193B0E2B193B4E3B193B0E2B19395
:103AD000B5E3B193B0E2B193B6E3B193B0E2B19381
:103AE000B7E3B193B0E0B1938E012801B1E03B2E72
:103AF000B2E02B2E0E9469A22F903F904F905F90D2
:103B00006F9025E01FE002EF0A95F1F71A95E1F7B3
:103B10002A95D1F71FC4B3E02B1609F0CFC0FE01E0
:103B2000B9E5B193B5E6B193B3E7B193BCE7B1930F
:103B3000BEE4B193BFE6B193B0E2B193B3E4B19305
:103B4000B8E6B193B1E6B193BEE6B193B5E6B193F1
:103B5000BCE6B193BAE3B193B0E0B1938E016F923A
:103B60005F924F923F922F922801B1E03B2EB1E03D
:103B70002B2E0E9469A2B3E84B2EB7E05B2EBEE06D
:103B80003B2EB1E02B2E0E9469A2FE01B0E5B1935D
:103B9000B2E7B193BAE3B193B1E3B193B0E2B193B9
:103BA000B2E3B193B0E2B193B3E3B193B0E2B193B6
:103BB000B4E3B193B0E2B193B5E3B193B0E2B193A2
:103BC000B6E3B193B0E2B193B7E3B193B0E0B19390
:103BD0008E012801B1E03B2EB2E02B2E0E9469A29B
:103BE00025E01FE002EF0A95F1F71A95E1F72A9513
:103BF000D1F7FE01B0E2B193B0E2B193B0E2B1937C
:103C0000BCE7B193BEE4B193BFE6B193B0E2B19328
:103C1000B3E4B193B8E6B193B1E6B193BEE6B19324
:103C2000B5E6B193BCE6B193BAE3B193B0E2B19318
:103C3000B0E2B193B0E0B1938E012801B1E03B2E28
:103C4000B1E02B2E0E9469A2FE01B0E5B193B2E76C
:103C5000B193BAE3B193B1E3B193B0E2B193B2E3FC
:103C6000B193B0E2B193B0E2B193B0E2B193B4E3F7
:103C7000B193B0E2B193B5E3B193B0E2B193B6E3DF
:103C8000B193B0E2B193B7E3B193B0E0B1938E01D9
:103C90002801B1E03B2EB2E02B2E0E9469A22F90AA
:103CA0003F904F905F906F9025E01FE002EF0A95E4
:103CB000F1F71A95E1F72A95D1F74CC3B4E02B162A
:103CC00009F0CFC0FE01B9E5B193B5E6B193B3E712
:103CD000B193BCE7B193BEE4B193BFE6B193B0E258
:103CE000B193B3E4B193B8E6B193B1E6B193BEE654
:103CF000B193B5E6B193BCE6B193BAE3B193B0E04A
:103D0000B1938E016F925F924F923F922F92280152
:103D1000B1E03B2EB1E02B2E0E9469A2B3E84B2EFE
:103D2000B7E05B2EBEE03B2EB1E02B2E0E9469A2D5
:103D3000FE01B0E5B193B2E7B193BAE3B193B1E359
:103D4000B193B0E2B193B2E3B193B0E2B193B3E314
:103D5000B193B0E2B193B4E3B193B0E2B193B5E300
:103D6000B193B0E2B193B6E3B193B0E2B193B7E3EC
:103D7000B193B0E0B1938E012801B1E03B2EB2E0E7
:103D80002B2E0E9469A225E01FE002EF0A95F1F7B1
:103D90001A95E1F72A95D1F7FE01B0E2B193B0E2AE
:103DA000B193B0E2B193BCE7B193BEE4B193BFE687
:103DB000B193B0E2B193B3E4B193B8E6B193B1E695
:103DC000B193BEE6B193B5E6B193BCE6B193BAE365
:103DD000B193B0E2B193B0E2B193B0E0B1938E0190
:103DE0002801B1E03B2EB1E02B2E0E9469A2FE011A
:103DF000B0E5B193B2E7B193BAE3B193B1E3B19354
:103E0000B0E2B193B2E3B193B0E2B193B3E3B19353
:103E1000B0E2B193B0E2B193B0E2B193B5E3B19344
:103E2000B0E2B193B6E3B193B0E2B193B7E3B1932B
:103E3000B0E0B1938E012801B1E03B2EB2E02B2E11
:103E40000E9469A22F903F904F905F906F9025E065
:103E50001FE002EF0A95F1F71A95E1F72A95D1F7DD
:103E600079C2B5E02B1609F0CFC0FE01B9E5B193D8
:103E7000B5E6B193B3E7B193BCE7B193BEE4B193B8
:103E8000BFE6B193B0E2B193B3E4B193B8E6B193B6
:103E9000B1E6B193BEE6B193B5E6B193BCE6B1939A
:103EA000BAE3B193B0E0B1938E016F925F924F92FB
:103EB0003F922F922801B1E03B2EB1E02B2E0E94C1
:103EC00069A2B3E84B2EB7E05B2EBEE03B2EB1E01B
:103ED0002B2E0E9469A2FE01B0E5B193B2E7B19327
:103EE000BAE3B193B1E3B193B0E2B193B2E3B1936A
:103EF000B0E2B193B3E3B193B0E2B193B4E3B19361
:103F0000B0E2B193B5E3B193B0E2B193B6E3B1934C
:103F1000B0E2B193B7E3B193B0E0B1938E01280161
:103F2000B1E03B2EB2E02B2E0E9469A225E01FE0FB
:103F300002EF0A95F1F71A95E1F72A95D1F7FE01FC
:103F4000B0E2B193B0E2B193B0E2B193BCE7B19308
:103F5000BEE4B193BFE6B193B0E2B193B3E4B193E1
:103F6000B8E6B193B1E6B193BEE6B193B5E6B193CD
:103F7000BCE6B193BAE3B193B0E2B193B0E2B193CE
:103F8000B0E0B1938E012801B1E03B2EB1E02B2EC1
:103F90000E9469A2FE01B0E5B193B2E7B193BAE322
:103FA000B193B1E3B193B0E2B193B2E3B193B0E2B4
:103FB000B193B3E3B193B0E2B193B4E3B193B0E2A0
:103FC000B193B0E2B193B0E2B193B6E3B193B0E292
:103FD000B193B7E3B193B0E0B1938E012801B1E0A2
:103FE0003B2EB2E02B2E0E9469A22F903F904F9063
:103FF0005F906F9025E01FE002EF0A95F1F71A95A8
:10400000E1F72A95D1F7A6C1B6E02B1609F0CFC08B
:10401000FE01B9E5B193B5E6B193B3E7B193BCE75F
:10402000B193BEE4B193BFE6B193B0E2B193B3E410
:10403000B193B8E6B193B1E6B193BEE6B193B5E6FC
:10404000B193BCE6B193BAE3B193B0E0B1938E0102
:104050006F925F924F923F922F922801B1E03B2ED8
:10406000B1E02B2E0E9469A2B3E84B2EB7E05B2E85
:10407000BEE03B2EB1E02B2E0E9469A2FE01B0E50E
:10408000B193B2E7B193BAE3B193B1E3B193B0E2C4
:10409000B193B2E3B193B0E2B193B3E3B193B0E2C1
:1040A000B193B4E3B193B0E2B193B5E3B193B0E2AD
:1040B000B193B6E3B193B0E2B193B7E3B193B0E09B
:1040C000B1938E012801B1E03B2EB2E02B2E0E946D
:1040D00069A225E01FE002EF0A95F1F71A95E1F7D2
:1040E0002A95D1F7FE01B0E2B193B0E2B193B0E20C
:1040F000B193BCE7B193BEE4B193BFE6B193B0E234
:10410000B193B3E4B193B8E6B193B1E6B193BEE62F
:10411000B193B5E6B193BCE6B193BAE3B193B0E223
:10412000B193B0E2B193B0E0B1938E012801B1E058
:104130003B2EB1E02B2E0E9469A2FE01B0E5B193A7
:10414000B2E7B193BAE3B193B1E3B193B0E2B19303
:10415000B2E3B193B0E2B193B3E3B193B0E2B19300
:10416000B4E3B193B0E2B193B5E3B193B0E2B193EC
:10417000B0E2B193B0E2B193B7E3B193B0E0B193E1
:104180008E012801B1E03B2EB2E02B2E0E9469A2E5
:104190002F903F904F905F906F9025E01FE002EFCF
:1041A0000A95F1F71A95E1F72A95D1F7D3C0B7E050
:1041B0002B1609F0CFC0FE01B9E5B193B5E6B19376
:1041C000B3E7B193BCE7B193BEE4B193BFE6B1935B
:1041D000B0E2B193B3E4B193B8E6B193B1E6B19371
:1041E000BEE6B193B5E6B193BCE6B193BAE3B19341
:1041F000B0E0B1938E016F925F924F923F922F92F7
:104200002801B1E03B2EB1E02B2E0E9469A2B3E859
:104210004B2EB7E05B2EBEE03B2EB1E02B2E0E9472
:1042200069A2FE01B0E5B193B2E7B193BAE3B193ED
:10423000B1E3B193B0E2B193B2E3B193B0E2B19321
:10424000B3E3B193B0E2B193B4E3B193B0E2B1930D
:10425000B5E3B193B0E2B193B6E3B193B0E2B193F9
:10426000B7E3B193B0E0B1938E012801B1E03B2EEA
:10427000B2E02B2E0E9469A225E01FE002EF0A9512
:10428000F1F71A95E1F72A95D1F7FE01B0E2B19363
:10429000B0E2B193B0E2B193BCE7B193BEE4B193A5
:1042A000BFE6B193B0E2B193B3E4B193B8E6B19392
:1042B000B1E6B193BEE6B193B5E6B193BCE6B19376
:1042C000BAE3B193B0E2B193B0E2B193B0E0B1938D
:1042D0008E012801B1E03B2EB1E02B2E0E9469A295
:1042E000FE01B0E5B193B2E7B193BAE3B193B1E3A4
:1042F000B193B0E2B193B2E3B193B0E2B193B3E35F
:10430000B193B0E2B193B4E3B193B0E2B193B5E34A
:10431000B193B0E2B193B6E3B193B0E2B193B0E23E
:10432000B193B0E0B1938E012801B1E03B2EB2E031
:104330002B2E0E9469A22F903F904F905F906F901C
:1043400025E01FE002EF0A95F1F71A95E1F72A95AB
:10435000D1F700C0C5C5B1E02B1609F0CFC0FE01F2
:10436000B9E5B193B5E6B193B3E7B193BCE7B193C7
:10437000BEE4B193BFE6B193B0E2B193B3E4B193BD
:10438000B8E6B193B1E6B193BEE6B193B5E6B193A9
:10439000BCE6B193BAE3B193B0E0B1938E016F92F2
:1043A0005F924F923F922F922801B1E03B2EB1E0F5
:1043B0002B2E0E9469A2B3E84B2EB7E05B2EBEE025
:1043C0003B2EB1E02B2E0E9469A2FE01B0E5B19315
:1043D000B2E7B193BAE3B193B1E3B193B0E2B19371
:1043E000B2E3B193B0E2B193B3E3B193B0E2B1936E
:1043F000B4E3B193B0E2B193B5E3B193B0E2B1935A
:10440000B6E3B193B0E2B193B7E3B193B0E0B19347
:104410008E012801B1E03B2EB2E02B2E0E9469A252
:1044200025E01FE002EF0A95F1F71A95E1F72A95CA
:10443000D1F7FE01B4E4B193B9E7B193BAE3B19314
:10444000B9E5B193B5E6B193B3E7B193BCE7B193E6
:10445000B0E2B193B0E2B193B0E2B193B3E4B193FF
:10446000B8E6B193B1E6B193BEE6B193B5E6B193C8
:10447000BCE6B193BAE3B193B0E2B193B0E2B193C9
:10448000B0E0B1938E012801B1E03B2EB1E02B2EBC
:104490000E9469A2FE01B0E2B193B0E2B193B2E32F
:1044A000B193B0E2B193B3E3B193B0E2B193B4E3AB
:1044B000B193B0E2B193B5E3B193B0E2B193B6E397
:1044C000B193B0E2B193B7E3B193B0E0B1938E0191
:1044D0002801B1E03B2EB2E02B2E0E9469A22F9062
:1044E0003F904F905F906F9025E01FE002EF0A959C
:1044F000F1F71A95E1F72A95D1F7F2C4B2E02B163D
:1045000009F0CFC0FE01B9E5B193B5E6B193B3E7C9
:10451000B193BCE7B193BEE4B193BFE6B193B0E20F
:10452000B193B3E4B193B8E6B193B1E6B193BEE60B
:10453000B193B5E6B193BCE6B193BAE3B193B0E001
:10454000B1938E016F925F924F923F922F9228010A
:10455000B1E03B2EB1E02B2E0E9469A2B3E84B2EB6
:10456000B7E05B2EBEE03B2EB1E02B2E0E9469A28D
:10457000FE01B0E5B193B2E7B193BAE3B193B1E311
:10458000B193B0E2B193B2E3B193B0E2B193B3E3CC
:10459000B193B0E2B193B4E3B193B0E2B193B5E3B8
:1045A000B193B0E2B193B6E3B193B0E2B193B7E3A4
:1045B000B193B0E0B1938E012801B1E03B2EB2E09F
:1045C0002B2E0E9469A225E01FE002EF0A95F1F769
:1045D0001A95E1F72A95D1F7FE01B9E5B193B5E651
:1045E000B193B3E7B193BCE7B193B0E2B193B0E25A
:1045F000B193B0E2B193B3E4B193B8E6B193B1E64D
:10460000B193BEE6B193B5E6B193BCE6B193BAE31C
:10461000B193B0E2B193B0E2B193B0E0B1938E0147
:104620002801B1E03B2EB1E02B2E0E9469A2FE01D1
:10463000B0E5B193B2E7B193BAE3B193B1E3B1930B
:10464000B0E2B193B0E2B193B0E2B193B3E3B1930E
:10465000B0E2B193B4E3B193B0E2B193B5E3B193F7
:10466000B0E2B193B6E3B193B0E2B193B7E3B193E3
:10467000B0E0B1938E012801B1E03B2EB2E02B2EC9
:104680000E9469A22F903F904F905F906F9025E01D
:104690001FE002EF0A95F1F71A95E1F72A95D1F795
:1046A0001FC4B3E02B1609F0CFC0FE01B9E5B193EA
:1046B000B5E6B193B3E7B193BCE7B193BEE4B19370
:1046C000BFE6B193B0E2B193B3E4B193B8E6B1936E
:1046D000B1E6B193BEE6B193B5E6B193BCE6B19352
:1046E000BAE3B193B0E0B1938E016F925F924F92B3
:1046F0003F922F922801B1E03B2EB1E02B2E0E9479
:1047000069A2B3E84B2EB7E05B2EBEE03B2EB1E0D2
:104710002B2E0E9469A2FE01B0E5B193B2E7B193DE
:10472000BAE3B193B1E3B193B0E2B193B2E3B19321
:10473000B0E2B193B3E3B193B0E2B193B4E3B19318
:10474000B0E2B193B5E3B193B0E2B193B6E3B19304
:10475000B0E2B193B7E3B193B0E0B1938E01280119
:10476000B1E03B2EB2E02B2E0E9469A225E01FE0B3
:1047700002EF0A95F1F71A95E1F72A95D1F7FE01B4
:10478000B9E5B193B5E6B193B3E7B193BCE7B193A3
:10479000B0E2B193B0E2B193B0E2B193B3E4B193BC
:1047A000B8E6B193B1E6B193BEE6B193B5E6B19385
:1047B000BCE6B193BAE3B193B0E2B193B0E2B19386
:1047C000B0E0B1938E012801B1E03B2EB1E02B2E79
:1047D0000E9469A2FE01B0E5B193B2E7B193BAE3DA
:1047E000B193B1E3B193B0E2B193B2E3B193B0E26C
:1047F000B193B0E2B193B0E2B193B4E3B193B0E25C
:10480000B193B5E3B193B0E2B193B6E3B193B0E243
:10481000B193B7E3B193B0E0B1938E012801B1E059
:104820003B2EB2E02B2E0E9469A22F903F904F901A
:104830005F906F9025E01FE002EF0A95F1F71A955F
:10484000E1F72A95D1F74CC3B4E02B1609F0CFC09D
:10485000FE01B9E5B193B5E6B193B3E7B193BCE717
:10486000B193BEE4B193BFE6B193B0E2B193B3E4C8
:10487000B193B8E6B193B1E6B193BEE6B193B5E6B4
:10488000B193BCE6B193BAE3B193B0E0B1938E01BA
:104890006F925F924F923F922F922801B1E03B2E90
:1048A000B1E02B2E0E9469A2B3E84B2EB7E05B2E3D
:1048B000BEE03B2EB1E02B2E0E9469A2FE01B0E5C6
:1048C000B193B2E7B193BAE3B193B1E3B193B0E27C
:1048D000B193B2E3B193B0E2B193B3E3B193B0E279
:1048E000B193B4E3B193B0E2B193B5E3B193B0E265
:1048F000B193B6E3B193B0E2B193B7E3B193B0E053
:10490000B1938E012801B1E03B2EB2E02B2E0E9424
:1049100069A225E01FE002EF0A95F1F71A95E1F789
:104920002A95D1F7FE01B9E5B193B5E6B193B3E7A6
:10493000B193BCE7B193B0E2B193B0E2B193B0E20E
:10494000B193B3E4B193B8E6B193B1E6B193BEE6E7
:10495000B193B5E6B193BCE6B193BAE3B193B0E2DB
:10496000B193B0E2B193B0E0B1938E012801B1E010
:104970003B2EB1E02B2E0E9469A2FE01B0E5B1935F
:10498000B2E7B193BAE3B193B1E3B193B0E2B193BB
:10499000B2E3B193B0E2B193B3E3B193B0E2B193B8
:1049A000B0E2B193B0E2B193B5E3B193B0E2B193A9
:1049B000B6E3B193B0E2B193B7E3B193B0E0B19392
:1049C0008E012801B1E03B2EB2E02B2E0E9469A29D
:1049D0002F903F904F905F906F9025E01FE002EF87
:1049E0000A95F1F71A95E1F72A95D1F779C2B5E062
:1049F0002B1609F0CFC0FE01B9E5B193B5E6B1932E
:104A0000B3E7B193BCE7B193BEE4B193BFE6B19312
:104A1000B0E2B193B3E4B193B8E6B193B1E6B19328
:104A2000BEE6B193B5E6B193BCE6B193BAE3B193F8
:104A3000B0E0B1938E016F925F924F923F922F92AE
:104A40002801B1E03B2EB1E02B2E0E9469A2B3E811
:104A50004B2EB7E05B2EBEE03B2EB1E02B2E0E942A
:104A600069A2FE01B0E5B193B2E7B193BAE3B193A5
:104A7000B1E3B193B0E2B193B2E3B193B0E2B193D9
:104A8000B3E3B193B0E2B193B4E3B193B0E2B193C5
:104A9000B5E3B193B0E2B193B6E3B193B0E2B193B1
:104AA000B7E3B193B0E0B1938E012801B1E03B2EA2
:104AB000B2E02B2E0E9469A225E01FE002EF0A95CA
:104AC000F1F71A95E1F72A95D1F7FE01B9E5B1930F
:104AD000B5E6B193B3E7B193BCE7B193B0E2B1935C
:104AE000B0E2B193B0E2B193B3E4B193B8E6B1935D
:104AF000B1E6B193BEE6B193B5E6B193BCE6B1932E
:104B0000BAE3B193B0E2B193B0E2B193B0E0B19344
:104B10008E012801B1E03B2EB1E02B2E0E9469A24C
:104B2000FE01B0E5B193B2E7B193BAE3B193B1E35B
:104B3000B193B0E2B193B2E3B193B0E2B193B3E316
:104B4000B193B0E2B193B4E3B193B0E2B193B0E208
:104B5000B193B0E2B193B6E3B193B0E2B193B7E3EE
:104B6000B193B0E0B1938E012801B1E03B2EB2E0E9
:104B70002B2E0E9469A22F903F904F905F906F90D4
:104B800025E01FE002EF0A95F1F71A95E1F72A9563
:104B9000D1F7A6C1B6E02B1609F0CFC0FE01B9E5EA
:104BA000B193B5E6B193B3E7B193BCE7B193BEE47B
:104BB000B193BFE6B193B0E2B193B3E4B193B8E679
:104BC000B193B1E6B193BEE6B193B5E6B193BCE65D
:104BD000B193BAE3B193B0E0B1938E016F925F925B
:104BE0004F923F922F922801B1E03B2EB1E02B2E45
:104BF0000E9469A2B3E84B2EB7E05B2EBEE03B2ECD
:104C0000B1E02B2E0E9469A2FE01B0E5B193B2E79C
:104C1000B193BAE3B193B1E3B193B0E2B193B2E32C
:104C2000B193B0E2B193B3E3B193B0E2B193B4E323
:104C3000B193B0E2B193B5E3B193B0E2B193B6E30F
:104C4000B193B0E2B193B7E3B193B0E0B1938E0109
:104C50002801B1E03B2EB2E02B2E0E9469A225E094
:104C60001FE002EF0A95F1F71A95E1F72A95D1F7BF
:104C7000FE01B9E5B193B5E6B193B3E7B193BCE7F3
:104C8000B193B0E2B193B0E2B193B0E2B193B3E4C7
:104C9000B193B8E6B193B1E6B193BEE6B193B5E690
:104CA000B193BCE6B193BAE3B193B0E2B193B0E291
:104CB000B193B0E0B1938E012801B1E03B2EB1E099
:104CC0002B2E0E9469A2FE01B0E5B193B2E7B19329
:104CD000BAE3B193B1E3B193B0E2B193B2E3B1936C
:104CE000B0E2B193B3E3B193B0E2B193B4E3B19363
:104CF000B0E2B193B5E3B193B0E2B193B0E2B19356
:104D0000B0E2B193B7E3B193B0E0B1938E01280163
:104D1000B1E03B2EB2E02B2E0E9469A22F903F9073
:104D20004F905F906F9025E01FE002EF0A95F1F73A
:104D30001A95E1F72A95D1F7D3C0B7E02B1609F001
:104D4000CFC0FE01B9E5B193B5E6B193B3E7B19336
:104D5000BCE7B193BEE4B193BFE6B193B0E2B193C7
:104D6000B3E4B193B8E6B193B1E6B193BEE6B193C3
:104D7000B5E6B193BCE6B193BAE3B193B0E0B193B9
:104D80008E016F925F924F923F922F922801B1E075
:104D90003B2EB1E02B2E0E9469A2B3E84B2EB7E068
:104DA0005B2EBEE03B2EB1E02B2E0E9469A2FE01DD
:104DB000B0E5B193B2E7B193BAE3B193B1E3B19384
:104DC000B0E2B193B2E3B193B0E2B193B3E3B19384
:104DD000B0E2B193B4E3B193B0E2B193B5E3B19370
:104DE000B0E2B193B6E3B193B0E2B193B7E3B1935C
:104DF000B0E0B1938E012801B1E03B2EB2E02B2E42
:104E00000E9469A225E01FE002EF0A95F1F71A95CA
:104E1000E1F72A95D1F7FE01B9E5B193B5E6B19373
:104E2000B3E7B193BCE7B193B0E2B193B0E2B19311
:104E3000B0E2B193B3E4B193B8E6B193B1E6B19304
:104E4000BEE6B193B5E6B193BCE6B193BAE3B193D4
:104E5000B0E2B193B0E2B193B0E0B1938E0128011A
:104E6000B1E03B2EB1E02B2E0E9469A2FE01B0E51D
:104E7000B193B2E7B193BAE3B193B1E3B193B0E2C6
:104E8000B193B2E3B193B0E2B193B3E3B193B0E2C3
:104E9000B193B4E3B193B0E2B193B5E3B193B0E2AF
:104EA000B193B6E3B193B0E2B193B0E2B193B0E0A5
:104EB000B1938E012801B1E03B2EB2E02B2E0E946F
:104EC00069A22F903F904F905F906F9025E01FE078
:104ED00002EF0A95F1F71A95E1F72A95D1F700C08C
:104EE0006F925F924F923F922F9266245524B5E0C5
:104EF0004B2EB2E32B2EB0E03B2E0E941C972F903E
:104F00003F904F905F906F90002329F0B0912B015C
:104F1000B068B0932B016F925F924F923F922F92A5
:104F2000B1E06B2E5524B5E04B2EB0E32B2EB0E054
:104F30003B2E0E941C972F903F904F905F906F9058
:104F400000902B01112707FC1395012339F045141C
:104F500011F4462C03C0042D0F5F402EB0912B019D
:104F6000B068B0932B016F925F924F923F922F9255
:104F700066245524B4E04B2EB2E32B2EB0E03B2E3A
:104F80000E941C972F903F904F905F906F9000234E
:104F900029F0B0912B01B068B0932B016F925F9212
:104FA0004F923F922F92B1E06B2E5524B4E04B2EDE
:104FB000B0E32B2EB0E03B2E0E941C972F903F9029
:104FC0004F905F906F9000902B01112707FC139575
:104FD000012339F0461411F4452C03C0042D01506F
:104FE000402E40925B076F925F924F923F922F92BA
:104FF00066245524B2E04B2EB0E32B2EB0E03B2EBE
:105000000E941C972F903F904F905F906F900030C0
:1050100029F0B0910001B062B09300016F925F92ED
:105020004F923F922F92B1E06B2E5524B2E04B2E5F
:10503000B0E32B2EB0E03B2E0E941C972F903F90A8
:105040004F905F906F9000900001112705FC139521
:10505000012309F40AC1B0910001BF7DB0930001A2
:10506000B0912B01BF7BB0932B016F925F924F9257
:105070003F922F920E9428092F903F904F905F906F
:105080006F90B1E04B1609F087C0109134011250B7
:1050900010933401B1E0B093C407032D0F5F009368
:1050A000020E00913301101719F4B1E0B0933401EE
:1050B0006F925F924F923F922F92B7EC3B2EB7E0E8
:1050C0004B2E2090020E0E944B05FE01B3E4B193DB
:1050D000B8E6B193B1E6B193BEE6B193B5E6B1934C
:1050E000BCE6B193B0E0B1938E012801B1E03B2E54
:1050F000B1E02B2E0E9469A2B7EC4B2EB7E05B2EDD
:10510000B8E03B2EB1E02B2E0E9469A2FE01B4E76D
:10511000B193B9E6B193BDE6B193B5E6B193B0E210
:10512000B193B9E6B193B3E7B193B0E2B193B0E014
:10513000B1938E012801B9E03B2EB1E02B2E0E94E5
:1051400069A2FE01B3E7B193B5E6B193BCE6B193B2
:10515000B5E6B193B3E6B193B4E7B193B5E6B193D5
:10516000B4E6B193B0E0B1938E012801B1E03B2EDB
:10517000B2E02B2E0E9469A22F903F904F905F903B
:105180006F9025E11BE40FEB0A95F1F71A95E1F713
:105190002A95D1F7000069C01091340100913301C4
:1051A000101719F4B1E0B0933401FE01B4E5B193E6
:1051B000B9E6B193BDE6B193B5E6B193B0E2B19370
:1051C000B4E5B193B1E6B193B2E6B193BCE6B19365
:1051D000B5E6B193B0E2B193B9E6B193B3E7B19359
:1051E000B0E2B193B0E0B1938E016F925F924F92B3
:1051F0003F922F922801B1E03B2EB1E02B2E0E946E
:1052000069A2FE01B3E4B193BFE6B193BDE6B193E9
:10521000B0E7B193BCE6B193B5E6B193B4E7B1930F
:10522000B5E6B193B4E6B193B0E2B193B1E2B19314
:10523000B1E2B193B1E2B193B0E0B1938E01280134
:10524000B1E03B2EB2E02B2E0E9469A22F903F903E
:105250004F905F906F9025E11BE40FEB0A95F1F7FB
:105260001A95E1F72A95D1F700006F925F924F925D
:105270003F922F9266245524B6E04B2EB0E32B2E9E
:10528000B0E03B2E0E941C972F903F904F905F9074
:105290006F90003029F0B0912B01B068B0932B01D2
:1052A00010902B0100902B014E7F16FC07FE01C0D1
:1052B00041606F925F924F923F922F92B1E06B2EBE
:1052C0005524B6E04B2EB0E32B2EB0E03B2E0E94CF
:1052D0001C972F903F904F905F906F90112740FD4B
:1052E0001395012309F40AC1B0912B01BF7BB09340
:1052F0002B01B0912B01BF77B0932B016F925F927E
:105300004F923F922F920E9428092F903F904F90EA
:105310005F906F90B1E04B1609F087C01091340197
:10532000125010933401B1E0B093C407032D0F5F06
:105330000093020E00913301101719F4B1E0B093FD
:1053400034016F925F924F923F922F92B7EC3B2EB7
:10535000B7E04B2E2090020E0E944B05FE01B3E4F5
:10536000B193B8E6B193B1E6B193BEE6B193B5E6B9
:10537000B193BCE6B193B0E0B1938E012801B1E0E6
:105380003B2EB1E02B2E0E9469A2B7EC4B2EB7E06A
:105390005B2EB8E03B2EB1E02B2E0E9469A2FE01ED
:1053A000B4E7B193B9E6B193BDE6B193B5E6B19375
:1053B000B0E2B193B9E6B193B3E7B193B0E2B19380
:1053C000B0E0B1938E012801B9E03B2EB1E02B2E65
:1053D0000E9469A2FE01B3E7B193B5E6B193BCE6C2
:1053E000B193B5E6B193B3E6B193B4E7B193B5E643
:1053F000B193B4E6B193B0E0B1938E012801B1E06E
:105400003B2EB2E02B2E0E9469A22F903F904F902E
:105410005F906F9025E11BE40FEB0A95F1F71A9569
:10542000E1F72A95D1F7000069C01091340100918D
:105430003301101719F4B1E0B0933401FE01B4E563
:10544000B193B9E6B193BDE6B193B5E6B193B0E2DD
:10545000B193B4E5B193B1E6B193B2E6B193BCE6D2
:10546000B193B5E6B193B0E2B193B9E6B193B3E7C6
:10547000B193B0E2B193B0E0B1938E016F925F92BD
:105480004F923F922F922801B1E03B2EB1E02B2E9C
:105490000E9469A2FE01B3E4B193BFE6B193BDE6F9
:1054A000B193B0E7B193BCE6B193B5E6B193B4E77D
:1054B000B193B5E6B193B4E6B193B0E2B193B1E282
:1054C000B193B1E2B193B1E2B193B0E0B1938E0187
:1054D0002801B1E03B2EB2E02B2E0E9469A22F9052
:1054E0003F904F905F906F9025E11BE40FEB0A9582
:1054F000F1F71A95E1F72A95D1F7000040925B0782
:105500000C94D51B6396CDBFDEBFDF91CF9108957C
:1055100001900D920197E1F70895CF93DF93CDB7F6
:10552000DEB72997CDBFDEBF21965F926F92B09113
:105530002B01B064B0932B01B0910001BF7DB093FB
:105540000001B0912B01B6FFD1C14F923F922F9233
:105550006624B2E05B2EB5E04B2EB2E32B2EB0E01A
:105560003B2E0E941C972F903F904F90002329F0D4
:10557000B0912B01B068B0932B014F923F922F92C4
:10558000B1E06B2EB2E05B2EB5E04B2EB0E32B2EDC
:10559000B0E03B2E0E941C972F903F904F900090C0
:1055A0002B01112707FC1395012309F443C0231491
:1055B00011F4242C03C0022D0F5F202E4F923F9236
:1055C0002F92BEE54B2EB7E05B2EB0E03B2E0E9443
:1055D000BF97BEE54B2EB7E05B2EB9E03B2EB2E0A5
:1055E0002B2E0E9469A2FE01B6E5B193B1E6B193FC
:1055F000BCE6B193B5E7B193B5E6B193B0E2B19330
:10560000BAE3B193B0E2B193B0E0B1938E01280157
:10561000B5E03B2EB2E02B2E0E9469A22F903F9066
:105620004F9021E11CE30CEC0A95F1F71A95E1F794
:105630002A95D1F7B0912B01B068B0932B014F920E
:105640003F922F926624B2E05B2EB4E04B2EB2E381
:105650002B2EB0E03B2E0E941C972F903F904F9036
:10566000002329F0B0912B01B068B0932B014F9229
:105670003F922F92B1E06B2EB2E05B2EB4E04B2E46
:10568000B0E32B2EB0E03B2E0E941C972F903F9052
:105690004F9000902B01112707FC1395012309F46B
:1056A00043C0241411F4232C03C0022D0150202EDA
:1056B0004F923F922F92BEE54B2EB7E05B2EB0E0AB
:1056C0003B2E0E94BF97BEE54B2EB7E05B2EB9E0A4
:1056D0003B2EB2E02B2E0E9469A2FE01B6E5B193EB
:1056E000B1E6B193BCE6B193B5E7B193B5E6B1933A
:1056F000B0E2B193BAE3B193B0E2B193B0E0B19349
:105700008E012801B5E03B2EB2E02B2E0E9469A24B
:105710002F903F904F9021E11CE30CEC0A95F1F79C
:105720001A95E1F72A95D1F720925B074F923F92A5
:105730002F926624B2E05B2EB2E04B2EB0E32B2E0C
:10574000B0E03B2E0E941C972F903F904F9000306E
:1057500029F0B0910001B062B09300014F923F92E6
:105760002F92B1E06B2EB2E05B2EB2E04B2EB0E395
:105770002B2EB0E03B2E0E941C972F903F904F9015
:1057800000900001112705FC1395012301F1B09150
:105790000001BF7DB0930001B0912B01BF7BB0939E
:1057A0002B0100913401102F1F5F109334010091E1
:1057B0003301101719F4B1E0B093340121E11CE377
:1057C0000CEC0A95F1F71A95E1F72A95D1F74F926B
:1057D0003F922F926624B2E05B2EB6E04B2EB0E3F0
:1057E0002B2EB0E03B2E0E941C972F903F904F90A5
:1057F000003029F0B0912B01B068B0932B011090CC
:105800002B0100902B014E7F16FC07FE01C041606A
:105810004F923F922F92B1E06B2EB2E05B2EB6E03A
:105820004B2EB0E32B2EB0E03B2E0E941C972F9006
:105830003F904F90112740FD1395012309F453C069
:10584000B0912B01BF7BB0932B01B0912B01BF779F
:10585000B0932B014F923F922F92BEE54B2EB7E0B3
:105860005B2E20905B07B0E03B2E0E94BF97BEE509
:105870004B2EB7E05B2EBBE03B2EB2E02B2E0E94FE
:1058800069A2FE01B6E5B193B1E6B193BCE6B1936E
:10589000B5E7B193B5E6B193B0E2B193BAE3B19392
:1058A000B0E0B1938E012801B5E03B2EB2E02B2E83
:1058B0000E9469A22F903F904F9021E11CE30CECD5
:1058C0000A95F1F71A95E1F72A95D1F7009134017D
:1058D000102F1F5F1093340100913301101719F43A
:1058E000B1E0B093340120925B072BCE6F905F90B4
:1058F0002896CDBFDEBFDF91CF910895CF93DF9380
:10590000CDB7DEB76197CDBFDEBF21966F92B09164
:105910002B01B064B0932B01B0910001BF7DB09317
:10592000000110902B0100902B014E7F16FC04FE0D
:1059300001C0416040FF0C941E3AB1E03B1609F0F3
:105940008EC5B1E02B1609F0C7C0FE01B0E2B193DD
:10595000B0E2B193B3E5B193B1E6B193B6E7B193D9
:10596000B5E6B193BFE2B193BEE4B193BFE6B193A4
:10597000B0E2B193B3E5B193B1E6B193B6E7B193B9
:10598000B5E6B193B0E2B193B0E2B193B0E0B193B8
:105990008E015F924F923F922F922801B1E03B2EF1
:1059A000B1E02B2E0E9469A2FE01B0E5B193B2E7EF
:1059B000B193BAE3B193B1E3B193B0E2B193B2E37F
:1059C000B193B0E2B193B3E3B193B0E2B193B4E376
:1059D000B193B0E2B193B5E3B193B0E2B193B6E362
:1059E000B193B0E2B193B7E3B193B0E0B1938E015C
:1059F0002801B1E03B2EB2E02B2E0E9469A225E0E7
:105A00001FE002EF0A95F1F71A95E1F72A95D1F711
:105A1000FE01B0E2B193B0E2B193B0E2B193B0E273
:105A2000B193B0E2B193B0E2B193BFE2B193BEE4FF
:105A3000B193BFE6B193B0E2B193B3E5B193B1E6F0
:105A4000B193B6E7B193B5E6B193B0E2B193B0E2EA
:105A5000B193B0E0B1938E012801B1E03B2EB1E0EB
:105A60002B2E0E9469A2FE01B4E4B193B9E7B19371
:105A7000BAE3B193B0E2B193B0E2B193B2E3B193C0
:105A8000B0E2B193B3E3B193B0E2B193B4E3B193B5
:105A9000B0E2B193B5E3B193B0E2B193B6E3B193A1
:105AA000B0E2B193B7E3B193B0E0B1938E012801B6
:105AB000B1E03B2EB2E02B2E0E9469A22F903F90C6
:105AC0004F905F9025E01FE002EF0A95F1F71A95DD
:105AD000E1F72A95D1F7C2C4B2E02B1609F0C7C08E
