:100000000C94D2380C9400000C9400000C94000066
:100010000C949D380C9400000C9400000C9400008B
:100020000C9400000C9400000C9400000C94B63862
:100030000C9400000C9400000C9400000C94000040
:100040000C9400000C9400000C9400000C94000030
:100050000C940000C3D021F0662309F0D4D098940A
:100060000895F8DF09F441C0E62ED52EC42EB32E34
:10007000A22E912E802E002D112D222D332DEADF60
:1000800009F43DC0842F952F8C199D09B9F072F4A5
:100090009095809501964C2D5D2D883180F5359594
:1000A0002795179507950197D1F708C08831E8F48F
:1000B000B594A794979487940197D1F766272EF06B
:1000C000080D191D2A1D3B1D09C0801A910AA20A9C
:1000D000B30A082D192D2A2D3B2D332312F493D06A
:1000E00060E82FD001C018D016C0002D112D222D90
:1000F000332DD6F71ED0C1F340E83427F5CF082DB5
:10010000192D2A2D3B2D4C2D5D2D6E2D33235AF7A5
:100110007AD060E8E8CF08950CD039F041585F4FAD
:10012000342F220F36952795362B0895689499DF42
:100130000895002329F4112319F4222309F4332309
:100140000895F7DF11F19F938F938EE790E03323AB
:1001500051F0369527951795079548175907B4F428
:100160004F5F5F4FF4CF80959095019622239AF0D0
:10017000000F111F221F481759071CF04150504013
:10018000F5CF002711272227332708C033270FEF89
:10019000102F2FE7322F8F919F91BEDF0895C6DF7A
:1001A000332332F0C6DF11F001E003C0002701C0A5
:1001B0000FEF0895042E152E262E372EF0DF002384
:1001C0000895E8944EDF089547E16627552726F005
:1001D000332312F418D060E8B4DF0895AADF79F071
:1001E000632F6078220F331F432F5FE7451B55278E
:1001F0005040269530E8232B3327989403C044279A
:1002000055276627089500951095209530950F5F26
:100210001F4F2F4F3F4F0895C9019A01AB01B801FD
:1002200097FB092E05260ED057FD04D014D00AD016
:10023000001C38F450954095309521953F4F4F4F15
:100240005F4F0895F6F790958095709561957F4F73
:100250008F4F9F4F0895A1E21A2EAA1BBB1BFD01D1
:100260000DC0AA1FBB1FEE1FFF1FA217B307E40795
:10027000F50720F0A21BB30BE40BF50B661F771FED
:10028000881F991F1A9469F76095709580959095CD
:100290009B01AC01BD01CF010895A0DF81F1E62EE5
:1002A000D52EC42EB32EA22E912E802E002D112DD0
:1002B000222D332D93DF19F16E254C0D5D1D403835
:1002C0005307F4F441387FEF5707FCF0882799274C
:1002D000AA27BB2770E2B695A7959795879537957E
:1002E00027951795079520F4880D991DAA1DBB1D0C
:1002F0007A9589F7032F3A2F292F182F22DF0AC06A
:100300000FEF102F2FE73FE7FACF0027102F202FF6
:10031000302FF5CF0895E89457DF0895042E152E59
:10032000262E372EBADF002E112E222E332E0895C0
:10033000C801BA0197FB092E07260AD077FD04D021
:100340000CD006D000201AF4709561957F4F089567
:10035000F6F7909581959F4F0895AA1BBB1B51E11D
:1003600007C0AA1FBB1FA617B70710F0A61BB70B25
:10037000881F991F5A95A9F780959095BC01CD01CA
:10038000089508952BDFF1F05523C2F04F31A8F402
:100390004731C1F050F44195495E05C03595279528
:1003A000179507954A95D1F70DC04751000F111FBA
:1003B000221F331F4A95D1F705C03FE7232F132F84
:1003C000032F03C0662309F01EDF0895002E112EAF
:1003D000222E332E042F152F262F372FE0DE002359
:1003E0001CF00024039401C000240895CF93DF93F0
:1003F000CDB7DEB72397CDBFDEBF2196B0E85B1641
:1004000041F4B0E04B1629F4B0E03B1611F4B0E033
:100410002B16D1F4F301BDE2B193B2E3B193B1E392
:10042000B193B4E3B193B7E3B193B4E3B193B8E359
:10043000B193B3E3B193B6E3B193B4E3B193B8E34B
:10044000B193B0E0B1937BC0B0E0BA8300E010E0BC
:1004500020E030E0201631064206530664F4BFEF78
:10046000BA8300E010E020E030E00219130924090B
:10047000350918012901F301B0E2B193B0E2B1935B
:10048000B0E2B193B0E2B193B0E2B193B0E2B19314
:10049000B0E2B193B0E2B193B0E2B193B0E2B19304
:1004A000B0E3B193B0E0B1938301065F1F4F0883BF
:1004B0001983B0E05B1641F4B0E04B1629F4B0E0CC
:1004C0003B1611F4B0E02B1699F17F926F925F9278
:1004D0004F923F922F924AE050E060E070E081013D
:1004E00092019ADE8B019C012F903F904F905F907C
:1004F000005DE881F98100835F924F923F922F92D5
:100500004AE050E060E070E08101920185DE8901FF
:100510009A012F903F904F905F906F907F901801BD
:100520002901088119810150104008831983C1CF26
:100530000A81002321F0E881F981BDE2B08322968F
:10054000CDBFDEBFDF91CF910895042E152E262E4C
:10055000372E37DE002E112E222E332E08952ADE5E
:100560001CF40024039401C000240895042E152EC9
:10057000262E372EDBDD002E112E222E332E08954F
:100580002CBE089523BC089523BC0895B1E14B16F9
:1005900019F43BBC2ABC06C0B2E14B1619F439BCB5
:1005A00028BC00C00895CF93DF93CDB7DEB7A197E5
:1005B000CDBFDEBF2196B0E0BE8F81019201E2DEA9
:1005C000088319832A833B835F924F923F922F9235
:1005D00040E050E060E070E081019201C0DF00285F
:1005E00000E009F00FEF2F903F904F905F900023B5
:1005F00011F0BFEFBE8F8E010A5F1F4F7F926F9287
:100600005F924F923F922F923801288039804A8022
:100610005B80ECDE2F903F904F905F906F907F90CB
:10062000088119812A813B8176DE5F924F923F9249
:100630002F92A801B9018101920198DF40E050E5B5
:1006400063EC77E46BDE2F903F904F905F909ADEE3
:10065000088319832A833B8340E050E060E070E028
:10066000041715072607370784F40880198000E06F
:1006700010E0001911090A801B8020E030E02009F9
:100680003109088319832A833B838E010E5E1F4F35
:100690007F926F925F924F923F922F923801288003
:1006A00039804A805B80A2DE2F903F904F905F9010
:1006B0006F907F9040E050E0B0E0BC83BD83F301D9
:1006C000B0E2B193B0E2B193B0E2B193B0E2B193D2
:1006D000B0E2B193B0E2B193B0E2B193B0E2B193C2
:1006E000B0E2B193B0E2B193B0E3B193B0E0B193B3
:1006F0005F934F938101920145DE303029F4203021
:1007000019F4103009F40030B0E009F4BFEF0B2FFA
:1007100008A340E050E060E070E0810192011FDF3B
:10072000002800E009F00FEF4F915F9118A101231D
:10073000002341F0F301BDE2B08311E020E0412F3E
:10074000522F00C02E81203281F40C811D8198012E
:100750002F5F3F4F2C833D838E010A5F1F4FF901AE
:10076000E00FF11F0081202FEECF022F0030D1F0DB
:10077000FA01E60DF71D00830C811D8198012F5FA2
:100780003F4F2C833D838A010F5F1F4FB8018E01BD
:100790000A5F1F4FF901E00FF11F0081202F022F88
:1007A000AB01E4CF0E8D003010E009F41FEF5030A4
:1007B00009F4403000E009F40FEF012351F0FA0191
:1007C000E60DF71DB0E3B0838A010F5F1F4F98015C
:1007D00001C09A01303009F4213010E009F41FEF14
:1007E0000E8D012359F0F901E60DF71DB0E3B0833A
:1007F00089010F5F1F4FA8019A0100C0F901E60DA2
:10080000F71DBEE2B08389010F5F1F4FA801B6E05C
:10081000BC83B0E0BD83288D2030F9F0203219F47C
:1008200020E3022F01C0022FFA01E60DF71D00831D
:100830000C811D8198012F5F3F4F2C833D838A01DE
:100840000F5F1F4FB8018E010E5E1F4FF901E00FC1
:10085000F11F0081AB01202FDFCFFA01E60DF71D5C
:10086000B0E0B083A096CDBFDEBFDF91CF910895F9
:10087000CF93DF93CDB7DEB72497CDBFDEBF2196F0
:10088000152D110FB7E0042D0695BA95E9F7010F64
:100890000F57202F30E007FD3FEF00E010E020175A
:1008A0003107DCF440E050E060E070E0810192014B
:1008B0008DDD002800E009F00FEF002331F0B0E0FB
:1008C000B883B983BA83BB8307C0B0E0B883B98368
:1008D000B0E8BA83BFE3BB832AC008E1021728F45B
:1008E000288239824A825B8222C0810192014ADDDC
:1008F00012DD088319832A833B83A101B201088199
:1009000019812A813B812BDE002800E009F00FEFDE
:10091000002369F0088119812A813B8140E050E081
:1009200060E87FE312DE088319832A833B83088112
:1009300019812A813B812396CDBFDEBFDF91CF9104
:100940000895CF93DF93CDB7DEB72397CDBFDEBF3A
:100950002196B0E83B1611F4B0E02B1681F4F201B9
:10096000BDE2B193B3E3B193B2E3B193B7E3B19313
:10097000B6E3B193B8E3B193B0E0B19351C0B0E046
:10098000BA8300E010E0201631063CF4BFEFBA83D2
:1009900000E010E0021913091801F201B0E2B1936E
:1009A000B0E2B193B0E2B193B0E2B193B0E2B193EF
:1009B000B0E3B193B0E0B19382010B5F1F4F0883A6
:1009C0001983B0E03B1611F4B0E02B1611F15F92E1
:1009D0004F923F922F924AE050E08101A9DC8C01B6
:1009E0002F903F90005DE881F98100833F922F9224
:1009F0004AE050E081019CDC8B012F903F904F90AA
:100A00005F901801088119810150104008831983F3
:100A1000D8CF0A81002321F0E881F981BDE2B083BB
:100A20002296CDBFDEBFDF91CF910895C801BA01F4
:100A3000AA1BBB1B51E107C0AA1FBB1FA617B70704
:100A400010F0A61BB70B881F991F5A95A9F7809520
:100A5000909508956894B8DB0895B0E0B9BD28BCBE
:100A60000895B0E0BBBD2ABC0895CF93DF93CDB706
:100A7000DEB725962F923F924F925F92088119819F
:100A8000088319830A811B810A831B830C810C83D1
:100A90000D811E810F81013071F42101B1E03B2EE7
:100AA000262C0E94023248805980B1E03B2E2C80D7
:100AB0000E9402320CC0B1E03B2E262C0E94023272
:100AC0004A805B80B1E03B2E2C800E9402325F9016
:100AD0004F903F902F90DF91CF910895CF93DF9368
:100AE000CDB7DEB72797CDBFDEBF2196B1E0B88383
:100AF000B1E0BA83B1E0B9830981201608F4DEC001
:100B00000881015010E04AEC52E00E9497152EE552
:100B100031E0020F131F4A8141500D831E8305E609
:100B200011E050E00E9497152D813E81020F131FA6
:100B3000498141500D831E8303E310E050E00E9481
:100B400097152D813E81F801E20FF31FB0E2B193BA
:100B5000B0E2B193B0E2B193B0E2B193B0E2B1933D
:100B6000B0E2B193B0E2B193B0E2B193B0E2B1932D
:100B7000B0E2B193B0E2B193B0E2B193B0E2B1931D
:100B8000B0E2B193B0E2B193B0E2B193B0E0B1930F
:100B90000881015010E04AEC52E00E9497152EE5C2
:100BA00031E0020F131F4A8141500D831E8305E679
:100BB00011E050E00E9497152D813E81020F131F16
:100BC000498141500D831E8303E310E050E00E94F1
:100BD00097152D813E81020F131FF8017196B0E227
:100BE000B193B0E2B193B0E2B193B0E2B193B0E2AD
:100BF000B193B0E2B193B0E2B193B0E2B193B0E29D
:100C0000B193B0E2B193B0E2B193B0E2B193B0E28C
:100C1000B193B0E2B193B0E2B193B0E2B193B0E07E
:100C2000B1930881015010E04AEC52E00E94971500
:100C30002EE531E0020F131F4A8141500D831E83C0
:100C400005E611E050E00E9497152D813E81020FCC
:100C5000131F498141500D831E8303E310E050E0D0
:100C60000E9497152D813E81020F131FF801B29645
:100C7000B1E3B193B0E0B1930A810150202F30E08D
:100C8000220F331F07E511E0F901E00FF11FB0E07B
:100C9000B0830A810150202F30E0220F331F07E577
:100CA00011E0020F131FF8013196B0E0B083098103
:100CB000021521F009810F5F09831ECF0A810230DE
:100CC00021F00A810F5F0A8315CF0881023021F0DD
:100CD00008810F5F08830CCF2696CDBFDEBFDF9162
:100CE000CF9108950190002011F00D92D9F7089549
:100CF000CF93DF93CDB7DEB72C97CDBFDEBF219664
:100D00002F923F924F925F926F927F928F92B0E0BC
:100D10002B1609F4A4C000918F00015010E04AEC9A
:100D200052E00E9497150A871B872EE531E0020FDB
:100D3000131F40916E0041500883198305E611E0AE
:100D400050E00E949715288139810A831B83020F86
:100D5000131F452D41500883198303E310E050E031
:100D60000E94971528813981200F311F28873987E4
:100D70002EE531E06A857B85260F371F4A815B812E
:100D8000240F351F200F311F2F5E3F4F2E833F83CF
:100D90002EE531E0260F371F240F351F020F131FDA
:100DA0000E5D1F4F0C831D830EE511E0060F171F0C
:100DB0000883198305E611E040916E0050E00E941F
:100DC0009715288139810A831B83020F131F422D37
:100DD00041500883198303E310E050E00E94971507
:100DE000288139814801820E931E2EE531E06A8503
:100DF0007B85260F371F4A815B81240F351F200F0B
:100E0000311F922FA32F9F5EAF4F20916E00822F34
:100E10008F5F2EE531E0260F371F240F351F020F9D
:100E2000131FB8016E5D7F4F488559852E813F8124
:100E30000C811D817F927F936F938F93AF939F93CC
:100E40009F928F9260906E0029011A01702E812E60
:100E50000CDEADB7BEB71896ADBFBEBFF0C00091F7
:100E60008F00015010E04AEC52E00E9497150A876B
:100E70001B872EE531E0020F131F40916E00415099
:100E80000883198305E611E050E00E949715288138
:100E900039810A831B83020F131F452D415008839C
:100EA000198303E310E050E00E94971528813981EF
:100EB00008871987200F311F2E833F832EE531E0ED
:100EC0006A857B85260F371F4A815B81240F351F7A
:100ED000200F311F2F5E3F4F2C833D832EE531E0E5
:100EE000260F371F240F351F020F131F0E5D1F4FD4
:100EF0000A831B830EE511E0060F171F0883198371
:100F000005E611E040916E0050E00E94971528819F
:100F10003981200F311F688579854B01820E931E20
:100F20002EE531E04A855B85240F351F200F311FE8
:100F3000260F371F922FA32F9F5EAF4F20916E0079
:100F4000822F8F5F2EE531E0240F351F020F131F14
:100F5000060F171FB8016E5D7F4F4E815F812C8198
:100F60003D810A811B814F923F927F927F936F93C5
:100F70008F93AF939F939F928F9260906E00290101
:100F80001A01702E812E71DDADB7BEB71896ADBFB8
:100F9000BEBF3F904F90232CB1E93B2EB0E04B2ECB
:100FA0000E94532400916E000150202F30E0220F48
:100FB000331F07E511E0020F131FF801319600817E
:100FC0000030B9F000916E000150202F30E0220F68
:100FD000331F07E511E0020F131FF801319600815E
:100FE000B1E94B2EB0E05B2E302E20906E000E94B7
:100FF000023200916E00202F30E0220F331F07E5F0
:1010000011E0020F131FF801319600810030B9F092
:1010100000916E00402F4F5F202F30E0220F331FD2
:1010200007E511E0020F131FF80131960081B1E9C5
:101030004B2EB0E05B2E302E242E0E9402328F9079
:101040007F906F905F904F903F902F902B96CDBFE9
:10105000DEBFDF91CF910895CF93DF93CDB7DEB799
:101060002297CDBFDEBF2196022D015010E04AEC41
:1010700052E00E9497152EE531E0020F131F432D19
:1010800041500883198305E611E050E00E9497154E
:1010900028813981020F131FF8017196B0E5B193D1
:1010A000B2E7B193BAE3B193B0E2B193B0E2B193D6
:1010B000B2E3B193B0E2B193B3E3B193B0E2B193D1
:1010C000B4E3B193B0E2B193B5E3B193B0E2B193BD
:1010D000B6E3B193B0E2B193B7E3B193B0E0B193AB
:1010E000022D015010E04AEC52E00E9497152EE5C7
:1010F00031E0020F131F432D41500883198305E689
:1011000011E050E00E94971528813981020F131FCA
:101110000D5C1F4FF8017196B0E5B193B2E7B19342
:10112000BAE3B193B1E3B193B0E2B193B0E2B1935A
:10113000B0E2B193B3E3B193B0E2B193B4E3B1934E
:10114000B0E2B193B5E3B193B0E2B193B6E3B1933A
:10115000B0E2B193B7E3B193B0E0B193022D015087
:1011600010E04AEC52E00E9497152EE531E0020FA4
:10117000131F432D41500883198305E611E050E009
:101180000E94971528813981020F131F0A591F4F9A
:10119000F8017196B0E5B193B2E7B193BAE3B193B8
:1011A000B1E3B193B0E2B193B2E3B193B0E2B193E2
:1011B000B0E2B193B0E2B193B4E3B193B0E2B193D2
:1011C000B5E3B193B0E2B193B6E3B193B0E2B193BA
:1011D000B7E3B193B0E0B193022D015010E04AECB7
:1011E00052E00E9497152EE531E0020F131F432DA8
:1011F00041500883198305E611E050E00E949715DD
:1012000028813981020F131F07561F4FF80171966D
:10121000B0E5B193B2E7B193BAE3B193B1E3B1935F
:10122000B0E2B193B2E3B193B0E2B193B3E3B1935F
:10123000B0E2B193B0E2B193B0E2B193B5E3B19350
:10124000B0E2B193B6E3B193B0E2B193B7E3B19337
:10125000B0E0B193022D015010E04AEC52E00E9440
:1012600097152EE531E0020F131F432D41500883DF
:10127000198305E611E050E00E9497152881398115
:10128000020F131F04531F4FF8017196B0E5B1937D
:10129000B2E7B193BAE3B193B1E3B193B0E2B193E2
:1012A000B2E3B193B0E2B193B3E3B193B0E2B193DF
:1012B000B4E3B193B0E2B193B0E2B193B0E2B193D1
:1012C000B6E3B193B0E2B193B7E3B193B0E0B193B9
:1012D000022D015010E04AEC52E00E9497152EE5D5
:1012E00031E0020F131F432D41500883198305E697
:1012F00011E050E00E94971528813981020F131FD9
:1013000001501F4FF8017196B0E5B193B2E7B19368
:10131000BAE3B193B1E3B193B0E2B193B2E3B19365
:10132000B0E2B193B3E3B193B0E2B193B4E3B1935C
:10133000B0E2B193B5E3B193B0E2B193B0E2B1934F
:10134000B0E2B193B7E3B193B0E0B193022D015095
:1013500010E04AEC52E00E9497152EE531E0020FB2
:10136000131F432D41500883198305E611E050E017
:101370000E94971528813981020F131F0E5C1E4FA2
:10138000F8017196B0E5B193B2E7B193BAE3B193C6
:10139000B1E3B193B0E2B193B2E3B193B0E2B193F0
:1013A000B3E3B193B0E2B193B4E3B193B0E2B193DC
:1013B000B5E3B193B0E2B193B6E3B193B0E2B193C8
:1013C000B0E2B193B0E0B1932196CDBFDEBFDF9123
:1013D000CF910895BB27AA279927882700FF04C02B
:1013E000840F951FA61FB71F440F551F661F771F39
:1013F000369527951795079589F7305020401007A7
:1014000069F79D018C0108952F92B1E02B1619F414
:10141000B0E82B2E14C0B2E02B1619F4B0EC2B2E32
:101420000EC0B3E02B1619F4B4E92B2E08C0B4E0BB
:101430002B1619F4B4ED2B2E02C0B0E82B2E032D81
:101440000150020D202EB0916100B860B093610090
:10145000202E0E94AC36B0916100B77FB09361003E
:10146000242C0E94AC36B0916100B860B09361004A
:101470002F9008952F923F924F925F926F927F929A
:10148000022D10E0432D50E00E94971544E650E0F5
:10149000CDDA8C0120E0322FDDDA4F923F922F928D
:1014A00018012901E5D92F903F904F90A801B9016B
:1014B0007F936F935F934F934F923F922F92B7E832
:1014C0006B2EB0E07B2E180129016DD82F903F9034
:1014D0004F904F915F916F917F918A019B010E9484
:1014E000C20198013F932F934F923F922F92B1E9FF
:1014F0004B2EB0E05B2E180124DA2F903F904F90D6
:101500002F913F91B2E04B1649F4B2E14B2E1901F5
:101510003DD8B2E14B2E190139D88AC0B1E04B1643
:1015200049F4B1E14B2E190131D8B1E14B2E19012B
:101530002DD87EC0BEE14B16A9F4B0E02B1629F4DD
:10154000232CB0E03B2E1CD80CC0231421F4222401
:10155000332416D806C0032D10E0021B130B18010C
:101560000FD866C0B1E24B1649F4B0E02B1619F45F
:10157000190106D802C0190103D85AC0B4E04B16AD
:1015800061F4B0E02B1629F4222433240E94C20215
:1015900003C019010E94C2024BC0B7E34B1621F4ED
:1015A000222E0E94C40244C0BDE24B1631F4B2E0C8
:1015B0004B2E19010E94C6023BC0B2E34B1621F428
:1015C000222E0E94C40234C0B9E14B1689F4B0E067
:1015D0002B1639F4032D10E0021B130B180141DA0E
:1015E00006C0032D10E0021B130B18013ADA20C0CD
:1015F000B3E24B1689F4B0E02B1639F4032D10E05A
:10160000021B130B180129DA06C0032D10E0021B80
:10161000130B180122DA0CC0B5E04B1609F408C010
:10162000B6E04B1609F404C0B7E04B1609F400C04D
:101630007F906F905F904F903F902F900895B09162
:101640003400BD7FB09334000E9413240E94132401
:10165000B0913400BE7FB09334000E9413240E94E6
:101660001324B0913400B260B09334000E9413246C
:101670000E941324B0913400B160B09334000895F7
:10168000CF93DF93CDB7DEB72297CDBFDEBF2196D4
:10169000B0915601B160B0935601B0916100BF772F
:1016A000B0936100B1E0B0938F00B1E0B0936E00F1
:1016B0002F92232C13DA2F90B1E02B2E321408F442
:1016C000E0C000918F00015010E04AEC52E00E940F
:1016D00097152EE531E0020F131F40916E00415027
:1016E0000883198305E611E050E00E9497152881D0
:1016F0003981020F131F422D41500883198303E3E0
:1017000010E050E00E94971528813981F801E20F1E
:10171000F31FB0E5B193BCE6B193B3E7B193B0E288
:10172000B193B3E4B193B8E6B193B3E7B193B0E248
:10173000B193B0E5B193B2E7B193B7E6B193B0E23C
:10174000B193BEE4B193B5E7B193BDE6B193B0E018
:10175000B19300918F00015010E04AEC52E00E94DA
:1017600097152EE531E0020F131F40916E00415096
:101770000883198305E611E050E00E94971528813F
:101780003981020F131F422D41500883198303E34F
:1017900010E050E00E94971528813981020F131F35
:1017A000F8017196B0E5B193BCE6B193B3E7B1939C
:1017B000B0E2B193B3E4B193B8E6B193B3E7B193B8
:1017C000B0E2B193B0E5B193B2E7B193B7E6B193AC
:1017D000B0E2B193BEE4B193B5E7B193BDE6B19386
:1017E000B0E0B19300918F00015010E04AEC52E05C
:1017F0000E9497152EE531E0020F131F088319830D
:1018000005E611E040916E0050E00E949715288196
:101810003981020F131F422D41500883198303E3BE
:1018200010E050E00E94971528813981F801E20FFD
:10183000F31FB0E5B193B2E7B193BAE3B193B1E36B
:10184000B193B0E2B193B2E3B193B0E2B193B3E339
:10185000B193B0E2B193B4E3B193B0E2B193B5E325
:10186000B193B0E2B193B6E3B193B0E2B193B7E311
:10187000B193B0E0B193231421F0022D0F5F202E1D
:101880001DCFB2E0B0936E003F922F92B2E03B2E9C
:1018900020908F00E1DB2F903F90B2E0B0938F005B
:1018A000B1E0B0936E00B1E02B2E321408F4B0C05A
:1018B00000918F00015010E04AEC52E00E94971511
:1018C0002EE531E0020F131F40916E004150088356
:1018D000198305E611E050E00E94971528813981AF
:1018E000020F131F422D41500883198303E310E0B8
:1018F00050E00E94971528813981F801E20FF31F0B
:10190000B0E5B193B2E7B193BFE6B193B7E6B19357
:10191000B2E7B193B1E6B193BDE6B193B0E2B19352
:10192000B0E2B193B0E2B193B0E2B193B0E2B1935F
:10193000B9E6B193B3E7B193B0E2B193B3E7B19332
:10194000B5E6B193BCE6B193B3E6B193B4E7B19316
:10195000B5E6B193B4E6B193B0E0B19300918F00D6
:10196000015010E04AEC52E00E9497152EE531E05C
:10197000020F131F40916E0041500883198305E642
:1019800011E050E00E94971528813981020F131F42
:10199000422D41500883198303E310E050E00E9478
:1019A000971528813981F801E20FF31FB7E4B1934D
:1019B000BFE6B193B9E6B193BEE6B193B7E6B19392
:1019C000B0E2B193B4E7B193BFE6B193B0E2B193A3
:1019D000B9E4B193B4E7B193B7E2B193B3E7B1938C
:1019E000B0E2B193B3E5B193B5E6B193B4E7B19387
:1019F000B4E7B193B9E6B193BEE6B193B7E6B1935C
:101A0000B0E0B193231421F0022D0F5F202E4DCFB3
:101A100000916E000150202F30E0220F331F07E5A8
:101A200011E0F901E00FF11FBAE0B083B1E02B2E15
:101A30002196CDBFDEBFDF91CF910895B0916100B7
:101A4000B77FB09361000E94AC36B0916100B8607E
:101A5000B09361000895CF93DF93CDB7DEB72A9797
:101A6000CDBFDEBF219600E010E0B0E1BA83B7E25F
:101A7000BB83B0E0B883B983B0E0BE83BF83B887CF
:101A8000B987B0E0BC83BD8308811981F801E20DFC
:101A9000F31D0081003009F447C008811981F80165
:101AA000E20DF31D00810D3259F4BFEFBC83B0E0AD
:101AB000BD83088119810F5F1F4F08831983E4CF0D
:101AC00008811981F801E20DF31D00810032E1F077
:101AD00008811981F801E20DF31D008110E0005327
:101AE000104020E0322F4A815B8160E0762F72DC6B
:101AF0004E815F8168857985040F151F261F371F6A
:101B00000E831F83288739874AE050E00A811B81B2
:101B10000E9416058C010A831B83088119810F5FBF
:101B20001F4F08831983B0CF0C811D81B02FB12BBB
:101B300029F0B6E0BA83B0E0BB8304C0B5E0BA8355
:101B4000B0E0BB83288139810A811B8120173107CE
:101B5000D9F03F922F924AE050E060E070E00E81B1
:101B60001F81288539850E940C0189019A012F90D7
:101B70003F900E831F8328873987088119810F5F63
:101B80001F4F08831983DECF2E813F810C811D8179
:101B9000B02FB12B39F000E010E0021B130BA801AD
:101BA0009A0100C089012996CDBFDEBFDF91CF9198
:101BB0000895992779E004C0991F941708F0941BA1
:101BC000001F7A95C9F700950895CF93DF93CDB79D
:101BD000DEB72397CDBFDEBF2196B0E0B883B0E873
:101BE000B983B0E0BA8309811A81103009F400305A
:101BF00009F439C00E9413240E941324B0913400C8
:101C0000BD7FB09334000E9413240E941324B0912E
:101C10003400BE7FB0933400B0916100BF7EB093BA
:101C20006100B0913300B0FD06C0B0916100B4FF17
:101C300001C001C0F6CFB0913300B1FF04C01881DC
:101C40000981012B08830E9413240E941324B09160
:101C50003400B160B093340009811A81169507955C
:101C600009831A83C0CFB0913400BD7FB093340094
:101C70000E9413240E941324B0E03B1611F4B0E03C
:101C80002B1629F0B0913400B260B09334000E945A
:101C900013240E941324B0913400BE7FB09334000B
:101CA000B0916100BF7EB0936100B0913300B0FD90
:101CB00006C0B0916100B4FF01C001C0F6CF0E9420
:101CC00013240E941324B0913400B160B093340007
:101CD0000E9413240E941324B0913400B260B09388
:101CE000340008812296CDBFDEBFDF91CF910895E9
:101CF00016E00BE20A95F1F71A95E1F700000000F3
:101D000008952F923F924F92B1E02B16C9F4B3E0A1
:101D10004B2EBFEF3B2EB4E62B2EACDB2DE01DE2AD
:101D200008ED0A95F1F71A95E1F72A95D1F7000029
:101D30000000B3E04B2EBFEF3B2E22249BDB18C0EC
:101D4000B3E04B2EBFEF3B2E222494DB2DE01DE2AF
:101D500008ED0A95F1F71A95E1F72A95D1F70000F9
:101D60000000B3E04B2EBFEF3B2EB4E62B2E82DB00
:101D70004F903F902F900895CF93DF93CDB7DEB76C
:101D80006297CDBFDEBF2196B0915601B160B0938E
:101D90005601B0916100BF77B0936100B1E0B0939C
:101DA0008F00B1E0B0936E002F92B7E02B2E0E940F
:101DB0006E052F90B1E02B2E321408F4D6C000919E
:101DC0008F00015010E04AEC52E0B1D62EE531E030
:101DD000020F131F40916E004150088B198B05E6CE
:101DE00011E050E0A4D628893989020F131F422D33
:101DF0004150088B198B03E310E050E098D62889F6
:101E00003989020F131F9801AC2FBD2FF2010E94D8
:101E100072060AE30D930EE30D930EE30D930EE3AA
:101E20000D93F3010E9472060CE30D930CE30D93E6
:101E30000CE30D9300E00D93A22FB32FFE010E943F
:101E4000720600E00D9300918F00015010E04AEC03
:101E500052E06DD62EE531E0020F131F40916E0067
:101E60004150088B198B05E611E050E060D62889B7
:101E70003989020F131F422D4150088B198B03E340
:101E800010E050E054D628893989020F131F9801B9
:101E90002F5E3F4FAC2FBD2FF2010E9472060AE366
:101EA0000D930EE30D930EE30D930EE30D93F301EB
:101EB0000E9472060CE30D930CE30D930CE30D935B
:101EC00000E00D93A22FB32FFE010E94720600E0E6
:101ED0000D9300918F00015010E04AEC52E027D69C
:101EE0002EE531E0020F131F088B198B05E611E078
:101EF00040916E0050E01BD628893989020F131FCC
:101F0000422D4150088B198B03E310E050E00FD6AF
:101F100028893989F801E20FF31FB0E2B193B0E2EA
:101F2000B193B0E2B193B0E2B193B0E2B193B0E259
:101F3000B193B0E2B193B0E2B193B0E2B193B0E249
:101F4000B193B0E2B193B0E2B193B0E2B193B0E239
:101F5000B193B0E2B193B0E2B193B0E0B193231486
:101F600021F0022D0F5F202E27CFB2E0B0938F001B
:101F7000B1E0B0936E00B1E02B2E321408F485C0AE
:101F800000918F00015010E04AEC52E0D0D52EE5D0
:101F900031E0020F131F40916E004150088B198BE6
:101FA00005E611E050E0C3D528893989020F131FD7
:101FB000422D4150088B198B03E310E050E0B7D558
:101FC00028893989020F131FA02FB12FF2010E9417
:101FD000720600E20D9304E50D9309E60D930DE6FC
:101FE0000D9305E60D9302E70D9300E20D9303E5D3
:101FF0000D9305E60D9304E70D9304E70D9300E0C0
:102000000D9300918F00015010E04AEC52E08FD503
:102010002EE531E0020F131F088B198B05E611E046
:1020200040916E0050E083D528893989020F131F33
:10203000422D4150088B198B03E310E050E077D517
:1020400028893989F801E20FF31FB9E6B193BEE69A
:10205000B193B7E6B193B0E2B193B9E6B193B3E708
:10206000B193B0E2B193B3E7B193B5E6B193B4E7FE
:10207000B193B5E6B193B4E6B193B0E0B193231454
:1020800021F0022D0F5F202E78CF00916E00202FBF
:1020900030E0220F331F07E511E0F901E00FF11FD7
:1020A000B1E0B08300916E00202F30E0220F331F8B
:1020B00007E511E0020F131FF8013196B9E0B08374
:1020C000B1E02B2E6196CDBFDEBFDF91CF91089599
:1020D000CF93DF93CDB7DEB72897CDBFDEBF219674
:1020E0002F923F924F925F926F927F928F929F9228
:1020F0004F923F922F92BCE68B2EB0E09B2EB3E71F
:102100006B2EB0E07B2EB1E74B2EB0E05B2EB6E736
:102110002B2EB0E03B2EB0E0BF93B0E6BF93B0E013
:10212000BF93B3E6BF93B0E0BF93B2E6BF930E9404
:102130002121ADB7BEB71696ADBFBEBFB1E02B2E05
:10214000E0DD0E9454322F903F902101B1E03B2E00
:10215000B1E02B2E0E940232FE013296B0E5B1931F
:10216000B2E7B193BFE6B193B7E6B193BAE3B193E7
:10217000B0E0B1938E010E5F1F4F2801B8E03B2EF7
:10218000B1E02B2E0E9402324F908E01242C302E73
:10219000412E0E9453248E012801BCE03B2EB1E069
:1021A0002B2E0E940232BAE3BA83B0E0BB838E01C9
:1021B0000E5F1F4F2801BCE03B2EB1E02B2E0E948A
:1021C0000232FE013296BDE4B193B9E6B193BEE6A8
:1021D000B193BAE3B193B0E0B1938E010E5F1F4F9C
:1021E0002801B1E03B2EB2E02B2E0E940232FE010C
:1021F0003296BCE2B193B3E5B193B5E6B193B3E6E1
:10220000B193BAE3B193B0E0B1938E010E5F1F4F6B
:102210002801B9E03B2EB2E02B2E0E940232009141
:10222000730010917400007F1070B4E0159507954D
:10223000BA95E1F74AE050E07AD4209173003091EA
:1022400074002F703070020F131F009373001093EF
:1022500074000091710010917200007F1070B4E062
:1022600015950795BA95E1F74AE050E060D42091C2
:102270007100309172002F703070200F311F209349
:10228000710030937200122F509173004AE0022FB8
:1022900090DC005D5F931F93402EB5E03B2EB2E0D3
:1022A0002B2EB2D81F914AE0012F83DC092F005D4D
:1022B000402EB6E03B2EB2E02B2EA6D85F914AE02E
:1022C000052F77DC005D5F93402EBEE03B2EB2E031
:1022D0002B2E9AD85F914AE0052F6BDC092F005D09
:1022E000402EBFE03B2EB2E02B2E8ED89F908F90D9
:1022F0007F906F905F904F903F902F902796CDBF2B
:10230000DEBFDF91CF910895CF93DF93CDB7DEB7D6
:10231000A597CDBFDEBF21968F92B1E0B0938F001D
:10232000B1E0B0936E007F926F925F924F923F92B6
:102330002F920E9454322F903F904F905F906F9059
:102340007F90B0E03B1611F4B0E02B1631F4810120
:102350000F5F1F4F0F83188702C02F823886B091FE
:102360005601B160B0935601B0E0BC87B0E0BB87C6
:10237000B0916100BF77B0936100B0915601B0FF9A
:10238000C1C3B1E0B0938F00B1E0B0936E00062DF1
:1023900010E002151305A4F47F926F925F924F92A2
:1023A0003F922F92462D50E081010E9498018C01AE
:1023B0002F903F904F905F906F907F900F83188782
:1023C0000F811885103009F4003021F4B1E0BF838B
:1023D000B0E0B8870C85023011F4B0E0BC870C8502
:1023E0000F5F0C877F926F925F924F923F922F9276
:1023F0005F806884432C322C272C702E0E94780634
:102400002F903F904F905F906F907F90B1E0B0938E
:102410006F0010916F0005E0011708F470C3009180
:102420006F000F5F00936F007F926F925F924F92E9
:102430003F922F92B1E06B2EB5E05B2EB1E04B2EB8
:10244000B6E32B2EB0E03B2E0E94B8222F903F9097
:102450004F905F906F907F90002309F4C3C0B1E06C
:10246000B9877F926F925F924F923F922F92B1E025
:102470002B2E47DC2F903F904F905F906F907F9076
:10248000B6E0B0936F00B1E0BB83B0E0BC83B0E0D6
:10249000BD83BE83B0E0B983BA8309811A8110304D
:1024A00009F4003009F09EC00D811E810F5F1F4F9F
:1024B0000D831E837F926F925F924F923F922F9275
:1024C000B1E06B2EB4E65B2EB1E04B2EB6E32B2EC3
:1024D000B0E03B2E0E94B8222F903F904F905F902B
:1024E0006F907F900023A9F07F926F925F924F923E
:1024F0003F922F92442D50E00D811E810E94980141
:102500008C012F903F904F905F906F907F900B8346
:102510001C830B811C819801220D331D1901042D90
:1025200010E00217130724F4252CB0E03B2E00C066
:102530002F8138850B811C81200F311F2F83388715
:10254000062D10E0021713072CF4B1E0BF83B0E0B2
:10255000B88700C00F811885103009F4003021F4CD
:10256000B1E0BF83B0E0B8870C85023010F0B0E076
:10257000BC870C850F5F0C877F926F925F924F92A2
:102580003F922F925F806884432C322C272C702E30
:102590000E9478066624B3E05B2EB1E04B2EB6E3D2
:1025A0002B2EB0E03B2E0E94B8222F903F904F90F0
:1025B0005F906F907F901985012349F0B0E0B98753
:1025C000B6E0B0936F00B1E0B983B0E0BA8329E020
:1025D0001EE105EE0A95F1F71A95E1F72A95D1F774
:1025E00000005BCF7F926F925F924F923F922F924B
:1025F000B1E06B2EB5E05B2EB4E04B2EB6E32B2E94
:10260000B0E03B2E0E94B8222F903F904F905F90F9
:102610006F907F90002309F4C1C0B1E0BA877F9228
:102620006F925F924F923F922F92B1E02B2E69DB17
:102630002F903F904F905F906F907F90B6E0B09357
:102640006F00B1E0BB83B0E0BC83B0E0BD83BE836C
:10265000B0E0B983BA8309811A81103009F40030DF
:1026600009F09CC00D811E810F5F1F4F0D831E83DB
:102670007F926F925F924F923F922F92B1E06B2EBA
:10268000B4E65B2EB4E04B2EB6E32B2EB0E03B2E2F
:102690000E94B8222F903F904F905F906F907F9054
:1026A0000023A9F07F926F925F924F923F922F92F8
:1026B000442D50E00D811E810E9498018C012F90C5
:1026C0003F904F905F906F907F900B831C830B80A7
:1026D0001C8081010019110918010515B0E01B07C4
:1026E00024F4242CB0E03B2E00C00B801C802F81F2
:1026F0003885201931092F83388701E010E0201731
:10270000310724F46F82B0E0B88700C00F811885CC
:10271000103009F4003021F4B1E0BF83B0E0B88795
:102720000C85023010F0B0E0BC870C850F5F0C8781
:102730007F926F925F924F923F922F925F80688458
:10274000432C322C272C702E0E9478066624B3E08E
:102750005B2EB4E04B2EB6E32B2EB0E03B2E0E9456
:10276000B8222F903F904F905F906F907F901A8586
:10277000012349F0B0E0BA87B6E0B0936F00B1E052
:10278000B983B0E0BA8329E01EE105EE0A95F1F7BE
:102790001A95E1F72A95D1F700005DCF20926D00E0
:1027A000B2E0B0938F00B0916100BF77B093610049
:1027B0007F926F925F924F923F922F926624B5E084
:1027C0005B2EB2E04B2EB6E32B2EB0E03B2E0E94E8
:1027D000B8220030B0E009F0BFEF0B2F098F66245C
:1027E000B5E05B2E4424B6E32B2EB0E03B2E0E94D6
:1027F000B8222F903F904F905F906F907F90003065
:1028000010E009F01FEF098D012BA1F0B1E0BB87AB
:102810007F926F925F924F923F922F92B1E02B2E58
:1028200070DA2F903F904F905F906F907F90B6E05E
:10283000B0936F007F926F925F924F923F922F9270
:10284000B1E06B2EB5E05B2EB2E04B2EB6E32B2E43
:10285000B0E03B2E0E94B8221B850123098F109007
:10286000560100906100E89410FC01FE01C06894DC
:1028700040F8B1E06B2EB5E05B2E4424B6E32B2E7E
:10288000B0E03B2E0E94B8222F903F904F905F9077
:102890006F907F90112740FC13951023098D012B19
:1028A00009F426C1B0E0BB87B0915601BE7FB0935A
:1028B0005601B6E0B0936F0000917000102F1F5FBB
:1028C0001093700000917500101719F4B1E0B093E7
:1028D000700000918F00015010E04AEC52E027D1C7
:1028E0000BA31CA32EE531E0020F131F40916E00D5
:1028F0004150098F1A8F05E611E050E018D1298D5B
:102900003A8D0B8F1C8F020F131F4F814150098F7F
:102910001A8F03E310E050E00AD1298D3A8D09A304
:102920001AA3200F311F2F8F38A32EE531E06BA1A2
:102930007CA1260F371F4B8D5C8D240F351F200F78
:10294000311F2F5E3F4F2D8F3E8F2EE531E0260F3A
:10295000371F240F351F020F131F0E5D1F4F0B8FE4
:102960001C8F0EE511E0060F171F098F1A8F05E661
:1029700011E040916E0050E0DAD0298D3A8D200FA1
:10298000311F69A17AA14B01820E931E2EE531E021
:102990004BA15CA1240F351F200F311F260F371FBD
:1029A000922FA32F9F5EAF4F20916E00822F8F5FDB
:1029B0002EE531E0240F351F020F131F060F171FDE
:1029C000B8016E5D7F4F4F8D58A12D8D3E8D0B8DC3
:1029D0001C8D7F926F925F924F923F922F920C8547
:1029E0000F937F936F938F93AF939F939F928F9249
:1029F000702E812E60906E0029011A010E9435050B
:102A0000ADB7BEB71896ADBFBEBF2F903F904F90E9
:102A10005F906F907F9000916E000150202F30E00A
:102A2000220F331F07E511E0F901E00FF11F0081CC
:102A3000003041F17F926F925F924F923F922F92BE
:102A4000B1E93B2EB0E04B2E0E94532400916E0062
:102A50000150202F30E0220F331F07E511E0F9016C
:102A6000E00FF11F0081B1E94B2EB0E05B2E302E5C
:102A700020906E000E9402322F903F904F905F9006
:102A80006F907F9000916E00202F30E0220F331F57
:102A900007E511E0F901E00FF11F0081003041F17D
:102AA0007F926F925F924F923F922F92B1E93B2EAD
:102AB000B0E04B2E0E94532400916E00402F4F5FD8
:102AC000202F30E0220F331F07E511E0F901E00F5E
:102AD000F11F0081B1E94B2EB0E05B2E302E242E89
:102AE0000E9402322F903F904F905F906F907F90A6
:102AF00018E605EE0A95F1F71A95E1F78ACC2092CF
:102B00006D003BCC00916D00088325E11BE40FEBC9
:102B10000A95F1F71A95E1F72A95D1F70000088197
:102B20008F90A496CDBFDEBFDF91CF91089598011D
:102B3000249F8001259F100D349F100D0895B091A2
:102B40006100B0FD08C0B0B3B064B0BBB09161002B
:102B5000B160B09361000895CF93DF93CDB7DEB736
:102B60002397CDBFDEBF2196B1E0B883B0E8B9832B
:102B7000B0E0BA8309811A81103009F4003009F4F9
:102B800043C00E9413240E9413240E9413240E9415
:102B90001324B0913400B160B09334000E94132428
:102BA0000E94132409811A8102211070103009F447
:102BB000003031F0B0913400BD7FB093340005C0D7
:102BC000B0913400B260B09334000E9413240E948C
:102BD0001324B0913400BE7FB0933400B0916100F3
:102BE000BF7EB0936100B0913300B0FD06C0B091DC
:102BF0006100B4FF01C001C0F6CF09811A811695AA
:102C0000079509831A83B6CFB0E0B8830E941324D6
:102C10000E941324B0913400B160B09334000E943C
:102C200013240E941324B0913400BD7FB09334006C
:102C30000E9413240E9413240E9413240E94132430
:102C4000B0913400BE7FB0933400B0916100BF7E7C
:102C5000B0936100B0913300B0FD06C0B091610047
:102C6000B4FF01C001C0F6CFB0E0B8830E941324C6
:102C70000E941324B0913300B1FF03C008810160AA
:102C800008830E9413240E9413240E9413240E948C
:102C900013240E9413240E9413240E9413240E94D0
:102CA00013240E9413240E9413240E9413240E94C0
:102CB00013240E9413240E9413240E9413240E94B0
:102CC0001324B0913400B160B0933400B09134005B
:102CD000B260B093340008812296CDBFDEBFDF9191
:102CE000CF910895B0913400B260B09334000E9447
:102CF00013240E941324B0913400BE7FB09334009B
:102D0000B0916100BF7EB0936100B0913300B0FD1F
:102D100006C0B0916100B4FF01C001C0F6CF0E94AF
:102D200013240E9413240E9413240E9413240E943F
:102D300013240E9413240E9413240E941324B09190
:102D40003400BD7FB09334000E9413240E941324EA
:102D50000895CF93DF93CDB7DEB76397CDBFDEBFC6
:102D60002196B0915601B160B0935601B0916100C7
:102D7000BF77B0936100B1E0B0938F00B1E0B09342
:102D80006E002F92232C0E946E052F90B1E02B2E07
:102D9000321408F482C000918F00015010E04AEC18
:102DA00052E0C5DE2EE531E0020F131F40916E00A8
:102DB0004150098B1A8B05E611E050E0B8DE2989F5
:102DC0003A89020F131F422D4150098B1A8B03E3DE
:102DD00010E050E0ACDE29893A89020F131F9801F8
:102DE000AC2FBD2FF2010E94720600E20D93F30199
:102DF0000E94720600E20D93F4010E94720600E048
:102E00000D93A22FB32FFE010E94720600E00D93D6
:102E100000918F00015010E04AEC52E088DE2EE570
:102E200031E0020F131F40916E004150098B1A8B45
:102E300005E611E050E07BDE29893A89020F131F75
:102E4000422D4150098B1A8B03E310E050E06FDEF6
:102E500029893A89020F131F98012F5E3F4FAC2F2B
:102E6000BD2FF2010E94720600E20D93F3010E9451
:102E7000720600E20D93F4010E94720600E00D93C9
:102E8000A22FB32FFE010E94720600E00D932314BF
:102E900021F0022D0F5F202E7BCFB2E0B0936E00A9
:102EA000B1E02B2E00918F00015010E04AEC52E06F
:102EB0003EDE2EE531E0020F131F0B591E4FF801C5
:102EC0007196BEE5B193BEE5B193BEE5B193BEE5A3
:102ED000B193B0E2B193B0E2B193B0E2B193B0E29A
:102EE000B193B0E2B193B0E2B193B0E2B193B0E28A
:102EF000B193B0E2B193B0E2B193B0E2B193B0E27A
:102F0000B193B0E0B193B2E02B2E00918F0001504D
:102F100010E04AEC52E00BDE2EE531E0020F131F09
:102F200040916E004150098B1A8B05E611E050E08C
:102F3000FEDD29893A89020F131F0D5C1F4FF8012E
:102F40007196B0E2B193B0E2B193B0E2B193B0E266
:102F5000B193B0E2B193BEE5B193BEE5B193BEE5E6
:102F6000B193BEE5B193B0E2B193B0E2B193B0E2F8
:102F7000B193B0E2B193B0E2B193B0E2B193B0E2F9
:102F8000B193B0E0B193B3E02B2E00918F000150CC
:102F900010E04AEC52E0CBDD2EE531E0020F131FCA
:102FA00040916E004150098B1A8B05E611E050E00C
:102FB000BEDD29893A89020F131F0A591F4FF801F4
:102FC0007196B0E2B193B0E2B193B0E2B193B0E2E6
:102FD000B193B0E2B193B0E2B193B0E2B193B0E299
:102FE000B193B0E2B193B0E2B193B0E2B193BEE578
:102FF000B193BEE5B193BEE5B193BEE5B193B0E246
:10300000B193B0E0B193B2E0B0938F00B1E0B09370
:103010006E00B1E02B2E321408F442C000918F00F4
:10302000015010E04AEC52E082DD2EE531E0020F63
:10303000131F098B1A8B05E611E040916E0050E0DA
:1030400076DD29893A89020F131F422D4150098BE1
:103050001A8B03E310E050E06ADD29893A89F80110
:10306000E20FF31FB0E2B193B9E6B193B3E7B193C6
:10307000B0E2B193B3E7B193B5E6B193BCE6B193D7
:10308000B3E6B193B4E7B193B5E6B193B4E6B193C7
:10309000B0E0B193231421F0022D0F5F202EBBCF9F
:1030A000B1E02B2E00918F00015010E04AEC52E06D
:1030B0003EDD2EE531E0020F131F40916E004150BE
:1030C000098B1A8B05E611E050E031DD29893A8938
:1030D000020F131FA02FB12FF2010E94720600E20F
:1030E0000D9300E20D9303E70D9305E60D9304E7BE
:1030F0000D9304E70D9309E60D930EE60D9307E695
:103100000D9300E20D9300E20D9300E20D9300E2B7
:103110000D9300E00D93B2E02B2E00918F00015033
:1031200010E04AEC52E003DD2EE531E0020F131F00
:1031300040916E004150098B1A8B05E611E050E07A
:10314000F6DC29893A89020F131F0D5C1F4FA02F4F
:10315000B12FF3010E94720600E20D9303E70D9375
:1031600005E60D9304E70D9304E70D9309E60D932F
:103170000EE60D9307E60D9300E20D9300E20D932A
:1031800000E20D9300E20D9300E00D93B3E02B2ECF
:1031900000918F00015010E04AEC52E0C8DC2EE5AF
:1031A00031E0020F131F40916E004150098B1A8BC2
:1031B00005E611E050E0BBDC29893A89020F131FB4
:1031C000F801EA59FF4FB5E4B193B8E7B193B9E616
:1031D000B193B4E7B193B9E6B193BEE6B193B7E664
:1031E000B193B0E2B193B0E2B193B0E2B193B0E287
:1031F000B193B0E2B193B0E2B193B0E2B193B0E277
:10320000B193B0E2B193B0E2B193B0E0B193B1E069
:103210002B2E6296CDBFDEBFDF91CF910895009136
:10322000A700007F102F16951695169516950AE0A3
:10323000109F102D0091A7000F70010F0093A700A1
:103240000091A500007F102F1695169516951695DE
:103250000AE0109F102D0091A5000F70010F009340
:10326000A50000919000007F102F169516951695D9
:1032700016950AE0109F102D009190000F70010F1D
:103280000093900000915D01077000935D01009133
:10329000A600007F102F16951695169516950AE034
:1032A000109F102D0091A6000F70010F0093A60033
:1032B00000915C010071102F1695169516951695C4
:1032C0000AE0109F102D00915C010F70010F009318
:1032D0005C0100915B01007F102F169516951695E5
:1032E00016950AE0109F102D00915B010F70010FE1
:1032F00000935B010895CF93DF93CDB7DEB7A0971E
:10330000CDBFDEBF21963F924F925F926F927F9228
:103310008F929F92B3E0B0935501B1E0B093AB00B0
:10332000B3E0B09354012092A800FE013896BCE3AC
:10333000B193B5E4B193B8E7B193BEE3B193B0E014
:10334000B193AE01485F5F4FFE013D96B3E5B19387
:10335000B5E6B193B4E7B193BEE6B193B7E6B193E6
:10336000B0E0B1939E01235F3F4FFE017396B0E53D
:10337000B193B2E7B193BFE6B193B7E6B193B0E0D2
:10338000B1938E010D5E1F4F2F924A013901280122
:1033900030905501B1E02B2EDCDC77246090550194
:1033A000B1E05B2E40905501B2E02B2EB0E03B2EF9
:1033B0000E9484112F900883B0916100B064B09393
:1033C0006100B0916100B6FF33C50881013009F09A
:1033D00040C0B7E0B0935501B0916100BF7BB0939E
:1033E0006100B2E0B093AB00B3E0B093540120921F
:1033F000A8002F92B7E03B2EB1E02B2E0E94400B8D
:103400002F902F92772460905501B1E05B2E409071
:103410005501B0E03B2E0E9484110A830091AB005D
:10342000015010E04CE050E082DB2CE331E0200F53
:10343000311F00915401015010E0000F111F000FC7
:10344000111FF801E20FF31F0A81008378D72F9034
:10345000EEC40881023009F06AC4B3E0B0935501AC
:10346000B0916100BF7BB0936100B2E0B093AB005C
:10347000B3E0B09354012092A800FE013896BCE35B
:10348000B193B5E4B193B8E7B193BEE3B193B0E0C3
:10349000B193AE01485F5F4FFE013D96BDE4B1932D
:1034A000B1E6B193BEE6B193B5E7B193BCE6B19393
:1034B000B0E0B1939E01235F3F4FFE017396B1E4EC
:1034C000B193B5E7B193B4E7B193BFE6B193B0E080
:1034D000B1938E010D5E1F4F2F924A0139012801D1
:1034E00030905501B1E02B2E34DC772460905501EB
:1034F000B1E05B2E40905501B2E02B2EB0E03B2EA8
:103500000E9484112F900983B0915601B160B0934D
:103510005601B0915601B0FF09C40981013009F08C
:1035200003C1B7E0B0935501B0915601BE7FB0938F
:103530005601B2E0B093AB00B3E0B09354012092D7
:10354000A8002F92B7E03B2EB1E02B2E0E94400B3B
:103550002F902F92772460905501B1E05B2E409020
:103560005501B0E03B2E0E9484110A830091AB000C
:10357000015010E04CE050E0DADA2CE331E0200FAB
:10358000311F00915401015010E0000F111F000F76
:10359000111FF801E20FF31F0A810083B2E0B0931C
:1035A000AB00B2E0B09354010A810093A8000E94DE
:1035B0005432FE013896B0E5B193BCE6B193B3E75F
:1035C000B193B0E2B193B4E4B193BFE6B193B0E28A
:1035D000B193BEE6B193BFE6B193B2E7B193BDE656
:1035E000B193B1E6B193BCE6B193B0E2B193B7E564
:1035F000B193BFE6B193B0E0B1938E01085F1F4F66
:103600002801B1E03B2EB1E02B2E0E940232FE01D8
:103610003896B2E7B193BBE6B193B0E2B193B7E7A6
:10362000B193B5E6B193B0E2B193B3E7B193B1E62C
:10363000B193B6E7B193B5E6B193B0E2B193B4E715
:10364000B193B9E6B193BDE6B193B5E6B193B3E7F3
:10365000B193B1E2B193B1E2B193B1E2B193B0E011
:10366000B1938E01085F1F4F2801B1E03B2EB2E0FD
:103670002B2E0E94023229E01EE105EE0A95F1F799
:103680001A95E1F72A95D1F70000B1E04B2E3324CB
:103690002A800E94F5240E945432FE013896B3E538
:1036A000B193B1E6B193B6E7B193B9E6B193BEE693
:1036B000B193B7E6B193B0E2B193B9E6B193BEE688
:1036C000B193B0E0B1938E01085F1F4F2801B1E0C4
:1036D0003B2EB1E02B2E0E940232FE013896BDE453
:1036E000B193B5E6B193BDE6B193BFE6B193B2E74E
:1036F000B193B9E7B193B0E0B1938E01085F1F4F6A
:103700002801B1E03B2EB2E02B2E0E94023229E0CC
:103710001EE105EE0A95F1F71A95E1F72A95D1F722
:1037200000000DD62F9001C30981023009F07DC23F
:10373000B7E0B09355012F92B7E03B2EB1E02B2EAE
:103740000E94400B2F902F92772460905501B1E09A
:103750005B2E40905501B0E03B2E0E9484112F90CB
:103760000A83B2E0B093AB00B3E0B093540120926F
:10377000A8002CE030E00CE311E0020F131FF80169
:1037800038960A810083B2E0B0935501B2E0B0935D
:10379000AB00B1E0B09354010A810093A800BDE4EE
:1037A000B887B9E6B987BEE6BA87B0E0BB879E01A5
:1037B000285F3F4FFE013C96B8E4B193B5E6B19364
:1037C000B1E6B193B4E7B193B5E6B193B2E7B19383
:1037D000B0E0B1938E01045F1F4F2F923901280191
:1037E00030905501B1E02B2E0E94BC0E0091A80034
:1037F000015010E048E150E09AD92CEA30E0020F85
:10380000131F4091AB0041500E8F1F8F0CE010E052
:1038100050E08DD92E8D3F8D200F311F0091540126
:10382000015010E0000F111F000F111F020F131F96
:10383000F8013196008110E07724609055015524FD
:10384000BBE34B2E18010E9484110B83B3E5B887AC
:10385000B5E6B987B3E6BA87B0E0BB879E01285FBB
:103860003F4FFE013C96B8E4B193B5E6B193B1E6A3
:10387000B193B4E7B193B5E6B193B2E7B193B0E0D9
:10388000B1938E01045F1F4F39012801309055011B
:10389000B1E02B2E0E94BC0E0091A800015010E058
:1038A00048E150E044D92CEA30E0020F131F409168
:1038B000AB0041500E8F1F8F0CE010E050E037D965
:1038C0002E8D3F8D200F311F00915401015010E0CB
:1038D000000F111F000F111F020F131FF801329666
:1038E000008110E07724609055015524BBE34B2EF6
:1038F00018010E9484110C830091A800015010E06F
:1039000048E150E014D92CEA30E0020F131F409137
:10391000AB0041500E8F1F8F0CE010E050E007D934
:103920002E8D3F8D200F311F00915401015010E06A
:10393000000F111F000F111F020F131FF801319606
:103940000B8100830091A800015010E048E150E095
:10395000EED82CEA30E0020F131F4091AB0041502B
:103960000E8F1F8F0CE010E050E0E1D82E8D3F8DC0
:10397000200F311F00915401015010E0000F111F62
:10398000000F111F020F131FF80132960C810083E4
:10399000B2E0B093AB00B2E0B09354010A8100935F
:1039A000A800BDE4B887B9E6B987BEE6BA87B0E03B
:1039B000BB879E01285F3F4FFE013C96BDE4B1935B
:1039C000BFE6B193B4E7B193BFE6B193B2E7B19369
:1039D000B0E0B1938E01045F1F4F39012801309090
:1039E0005501B1E02B2E0E94BC0E0091A8000150A1
:1039F00010E048E150E09BD82CEA30E0020F131FA2
:103A00004091AB0041500E8F1F8F0CE010E050E052
:103A10008ED82E8D3F8D200F311F00915401015003
:103A200010E0000F111F000F111F020F131FF801EC
:103A30003196008110E07724609055015524BBE356
:103A40004B2E18010E9484110D83B3E5B887B5E6AB
:103A5000B987B3E6BA87B0E0BB879E01285F3F4FC6
:103A6000FE013C96BDE4B193BFE6B193B4E7B193D8
:103A7000BFE6B193B2E7B193B0E0B1938E01045FBA
:103A80001F4F3901280130905501B1E02B2E0E94C3
:103A9000BC0E0091A800015010E048E150E047D86A
:103AA0002CEA30E0020F131F4091AB0041500E8F03
:103AB0001F8F0CE010E050E03AD82E8D3F8D200F84
:103AC000311F00915401015010E0000F111F000F31
:103AD000111F020F131FF8013296008110E07724A6
:103AE000609055015524BBE34B2E18010E948411B0
:103AF0000E830091A800015010E048E150E017D873
:103B00002CEA30E0020F131F4091AB0041500E8FA2
:103B10001F8F0CE010E050E00AD82E8D3F8D200F53
:103B2000311F00915401015010E0000F111F000FD0
:103B3000111F020F131FF80131960D8100830091B0
:103B4000A800015010E048E150E00E9497152CEACF
:103B500030E0020F131F4091AB0041500E8F1F8FBA
:103B60000CE010E050E00E9497152E8D3F8D200F45
:103B7000311F00915401015010E0000F111F000F80
:103B8000111F020F131FF80132960E8100830E944D
:103B90005432FE013896B3E5B193B1E6B193B6E77E
:103BA000B193B9E6B193BEE6B193B7E6B193B0E293
:103BB000B193B9E6B193BEE6B193B0E0B1938E0193
:103BC000085F1F4F2801B1E03B2EB1E02B2E0E9471
:103BD0000232FE013896BDE4B193B5E6B193BDE67D
:103BE000B193BFE6B193B2E7B193B9E7B193B0E057
:103BF000B1938E01085F1F4F2801B1E03B2EB2E068
:103C00002B2E0E94023229E01EE105EE0A95F1F703
:103C10001A95E1F72A95D1F7000091D32F90B09132
:103C20005601BE7FB093560180C00981033009F070
:103C30007CC0B0915601BE7FB09356012F920E9476
:103C40005432FE013896B5E4B193B8E7B193B9E6C2
:103C5000B193B4E7B193B0E2B193B6E4B193B2E7F4
:103C6000B193BFE6B193BDE6B193B0E2B193B3E5D2
:103C7000B193B5E6B193B4E7B193B4E7B193B9E6C4
:103C8000B193BEE6B193B7E6B193B0E0B1938E01C4
:103C9000085F1F4F2801B1E03B2EB1E02B2E0E94A0
:103CA0000232FE013896B0E5B193BCE6B193B3E7BA
:103CB000B193B0E2B193B0E5B193B2E7B193B5E699
:103CC000B193B3E7B193B3E7B193B0E2B193B8E482
:103CD000B193B4E7B193B0E2B193BDE6B193B9E665
:103CE000B193B3E6B193B2E7B193BFE6B193B0E25B
:103CF000B193B3E5B193B7E5B193B0E0B1938E0161
:103D0000085F1F4F2801B1E03B2EB2E02B2E0E942E
:103D100002322F9029E01EE105EE0A95F1F71A957F
:103D2000E1F72A95D1F7000000C0F3CB80C00881ED
:103D3000033009F07CC0B0916100BF7BB09361009B
:103D40002F920E945432FE013896B5E4B193B8E741
:103D5000B193B9E6B193B4E7B193B0E2B193B6E4ED
:103D6000B193B2E7B193BFE6B193BDE6B193B0E2D0
:103D7000B193B3E5B193B5E6B193B4E7B193B4E7CA
:103D8000B193B9E6B193BEE6B193B7E6B193B0E0B3
:103D9000B1938E01085F1F4F2801B1E03B2EB1E0C7
:103DA0002B2E0E940232FE013896B0E5B193BCE69C
:103DB000B193B3E7B193B0E2B193B0E5B193B2E799
:103DC000B193B5E6B193B3E7B193B3E7B193B0E282
:103DD000B193B8E4B193B4E7B193B0E2B193BDE667
:103DE000B193B9E6B193B3E6B193B2E7B193BFE64D
:103DF000B193B0E2B193B3E5B193B7E5B193B0E05D
:103E0000B1938E01085F1F4F2801B1E03B2EB2E055
:103E10002B2E0E9402322F9029E01EE105EE0A951A
:103E2000F1F71A95E1F72A95D1F7000000C0C9CA49
:103E30009F908F907F906F905F904F903F906F9684
:103E4000CDBFDEBFDF91CF910895CF93DF93CDB784
:103E5000DEB76A97CDBFDEBF21965F924F923F9249
:103E60002F920E945432FE013396B9E4B193BEE61C
:103E7000B193B9E6B193B4E7B193B9E6B193B1E6C2
:103E8000B193BCE6B193B3E7B193B9E6B193B9E6A8
:103E9000B193BEE6B193B7E6B193B0E2B193BDE49E
:103EA000B193BFE6B193B4E7B193BFE6B193B2E784
:103EB000B193B0E0B1938E010D5F1F4F2801B1E0C7
:103EC0003B2EB1E02B2E0E9402322F903F904F905C
:103ED0005F9025E01FE002EF0A95F1F71A95E1F7F0
:103EE0002A95D1F7B1E0B983B2E0BA83B2E0B883E2
:103EF0000981015010E048E150E00E9497152CEA3A
:103F000030E0020F131F4A814150088F198F0CE0D7
:103F100010E050E00E949715288D398D200F311F39
:103F20000881015010E0000F111F000F111FF80150
:103F3000E20FF31F20820981015010E048E150E0B8
:103F40000E9497152CEA30E0020F131F4A8141505E
:103F5000088F198F0CE010E050E00E949715288D13
:103F6000398D200F311F0881015010E0000F111F03
:103F7000000F111F020F131FF801319630820981C3
:103F8000015010E048E150E00E9497152CEA30E023
:103F9000020F131F4A814150088F198F0CE010E067
:103FA00050E00E949715288D398D200F311F088110
:103FB000015010E0000F111F000F111F020F131FFF
:103FC000F801329640820981015010E048E150E04A
:103FD0000E9497152CEA30E0020F131F4A814150CE
:103FE000088F198F0CE010E050E00E949715288D83
:103FF000398D200F311F0881015010E0000F111F73
:10400000000F111F020F131FF80133965082088111
:10401000033021F008810F5F08836ACF0A810230E4
:1040200021F00A810F5F0A8361CF0981073021F0F7
:1040300009810F5F098358CF6996CDBFDEBFDF913D
:10404000CF910895CF93DF93CDB7DEB76B97CDBFF8
:10405000DEBF21965F924F923F922F920E94543280
:10406000FE013396B9E4B193BEE6B193B9E6B193DC
:10407000B4E7B193B9E6B193B1E6B193BCE6B193BD
:10408000B3E7B193B9E6B193B9E6B193BEE6B193A4
:10409000B7E6B193B0E2B193B8E4B193B5E6B193AA
:1040A000B1E6B193B4E7B193B5E6B193B2E7B1939A
:1040B000B0E0B1938E010D5F1F4F2801B1E03B2EA0
:1040C000B1E02B2E0E9402322F903F904F905F90D4
:1040D00025E01FE002EF0A95F1F71A95E1F72A951E
:1040E000D1F7B1E0B983B1E0BA83B1E0B883098117
:1040F000015010E048E150E00E9497152CEA30E0B2
:10410000020F131F4A814150098F1A8F0CE010E0F3
:1041100050E00E949715298D3A8D200F311F08819C
:10412000015010E0000F111F000F111FF801E20FE6
:10413000F31F20820981015010E048E150E00E9405
:1041400097152CEA30E0020F131F4A814150098F66
:104150001A8F0CE010E050E00E949715298D3A8DDF
:10416000200F311F0881015010E0000F111F000FB8
:10417000111F020F131FF80131963082098101507F
:1041800010E048E150E00E9497152CEA30E0020F61
:10419000131F4A814150098F1A8F0CE010E050E044
:1041A0000E949715298D3A8D200F311F08810150EB
:1041B00010E0000F111F000F111F020F131FF80155
:1041C000329640820981015010E048E150E00E949F
:1041D00097152CEA30E0020F131F4A814150098FD6
:1041E0001A8F0CE010E050E00E949715298D3A8D4F
:1041F000200F311F0881015010E0000F111F000F28
:10420000111F020F131FF8013396508208810330EB
:1042100021F008810F5F08836ACF0A81023021F004
:104220000A810F5F0A8361CF0981073021F009817C
:104230000F5F098358CF6A96CDBFDEBFDF91CF9164
:104240000895CF93DF93CDB7DEB725962F923F9297
:1042500008811981088319830A811B810A831B83C2
:104260000C811D810C831D839F928F927F926F9290
:104270005F924F923F922F920E941F0BB0ED2B2E18
:104280000E94AC1522240E94AC150E941F0BB1EDB8
:104290002B2E0E94AC15B1E02B2EB0E03B2E0E94DD
:1042A000E50D2F903F904F905F906F907F90F301BE
:1042B00000835F924F923F922F92B1E02B2EB0E09D
:1042C0003B2E0E94E50D2F903F904F905F90F201A2
:1042D00000833F922F92B1E02B2EB0E03B2E0E9444
:1042E000E50D2F903F90F1010083B1E02B2EB0E05F
:1042F0003B2E0E94E50DE881F9810083B1E02B2E71
:10430000B0E03B2E0E94E50D8F909F90F40100835A
:10431000B1E02B2EB0E03B2E0E94E50DEA81FB813F
:104320000083222433240E94E50DEC81FD8100836B
:104330000E9472163F902F90DF91CF910895CF93F6
:10434000DF93CDB7DEB72497CDBFDEBF21962F9286
:104350003F924F92B0E0B093A900B093AA00B1E0B1
:10436000B093A800B1E0B093AB00B1E0B0935401BA
:104370000091A9001091AA000F5F1F4F0A831B83B1
:104380000091A800015010E048E150E00E9497150C
:104390002CEA30E0020F131F4091AB00415008831C
:1043A00019830CE010E050E00E94971528813981B4
:1043B000200F311F00915401015010E0000F111F18
:1043C000000F111FF801E20FF31F20810A811B81EA
:1043D000422E180196D20091A9001091AA000E5FFA
:1043E0001F4F0A831B830091A800015010E048E191
:1043F00050E00E9497152CEA30E0020F131F409105
:10440000AB004150088319830CE010E050E00E949B
:10441000971528813981200F311F009154010150D7
:1044200010E0000F111F000F111F020F131FF801E2
:10443000319620810A811B81422E180162D200919F
:10444000A9001091AA000D5F1F4F0A831B830091E2
:10445000A800015010E048E150E00E9497152CEAB6
:1044600030E0020F131F4091AB00415008831983C5
:104470000CE010E050E00E94971528813981200F50
:10448000311F00915401015010E0000F111F000F67
:10449000111F020F131FF801329620810A811B8120
:1044A000422E18012ED20091A9001091AA000C5F93
:1044B0001F4F0A831B830091A800015010E048E1C0
:1044C00050E00E9497152CEA30E0020F131F409134
:1044D000AB004150088319830CE010E050E00E94CB
:1044E000971528813981200F311F00915401015007
:1044F00010E0000F111F000F111F020F131FF80112
:10450000339620810A811B81422E1801FAD1009135
:10451000A9001091AA000C5F1F4F0093A9001093EF
:10452000AA0000915401033031F0009154010F5F53
:10453000009354011DCF0091AB00023031F0009187
:10454000AB000F5F0093AB0010CF0091A8000730C5
:1045500031F00091A8000F5F0093A80003CF4F90A7
:104560003F902F902396CDBFDEBFDF91CF9108956E
:10457000CF93DF93CDB7DEB72197CDBFDEBF2196B6
:10458000B0E0B883B42D11E0BB2319F0110FBA9538
:10459000E9F7F1010081102300E0103009F001E09B
:1045A0000615E9F400E0051540F40E94780E0E941B
:1045B000780E052D0150502EF5CFB42D11E0BB2300
:1045C00019F0110FBA95E9F7F1010081102300E00D
:1045D000103009F001E0061511F4BFEFB88308812F
:1045E000CDBFDEBFDF91CF910895CF93DF93CDB7DD
:1045F000DEB72297CDBFDEBF21962F923F92B0E06B
:10460000B093A900B093AA00B1E0B093A800B1E0C4
:10461000B093AB00B1E0B09354010091A8000150F9
:1046200010E048E150E00E9497152CEA30E0020FBC
:10463000131F4091AB004150088319830CE010E038
:1046400050E00E94971528813981200F311F009179
:104650005401015010E0000F111F000F111F020F35
:10466000131F088319830091A9001091AA000F5FFE
:104670001F4F18010E94443218812981E12FF22F27
:1046800000830091A800015010E048E150E00E9432
:1046900097152CEA30E0020F131F4091AB004150F8
:1046A000088319830CE010E050E00E9497152881E0
:1046B0003981200F311F00915401015010E0000F8B
:1046C000111F000F111F020F131F0F5F1F4F0883D1
:1046D00019830091A9001091AA000E5F1F4F1801C5
:1046E0000E94443218812981E12FF22F008300912A
:1046F000A800015010E048E150E00E9497152CEA14
:1047000030E0020F131F4091AB0041500883198322
:104710000CE010E050E00E94971528813981200FAD
:10472000311F00915401015010E0000F111F000FC4
:10473000111F020F131F0E5F1F4F08831983009173
:10474000A9001091AA000D5F1F4F18010E9444326A
:1047500018812981E12FF22F00830091A8000150D8
:1047600010E048E150E00E9497152CEA30E0020F7B
:10477000131F4091AB004150088319830CE010E0F7
:1047800050E00E94971528813981200F311F009138
:104790005401015010E0000F111F000F111F020FF4
:1047A000131F0D5F1F4F088319830091A9001091FB
:1047B000AA000C5F1F4F18010E9444321881298102
:1047C000E12FF22F00830091A9001091AA000C5F45
:1047D0001F4F0093A9001093AA00009154010330C9
:1047E00031F0009154010F5F0093540116CF0091F6
:1047F000AB00023031F00091AB000F5F0093AB00D3
:1048000009CF0091A800073031F00091A8000F5F98
:104810000093A800FCCE3F902F902196CDBFDEBF25
:10482000DF91CF91089502E00A95F1F700000000B2
:1048300008952F928F927F926F925F924F923F9244
:104840002F920E941F0BB0ED2B2E0E94AC1522243C
:104850000E94AC152F903F904F903F922F92242CA6
:104860000E94AC152F903F902F92232C0E94AC15E4
:104870002F900E94AC155F906F905F92262C0E9443
:10488000AC155F90252C0E94AC157F90272C0E94C0
:10489000AC158F90282C0E94AC150E9472160E94B5
:1048A00072162F900895E32DF42DB0E2B193B0E28B
:1048B000B193B0E3B193B0E0B193032D142D0E5F2B
:1048C0001F4F9801B0E02B1691F04AE0022D0E9494
:1048D000D90D092F005DF90100834AE0022D0E94E5
:1048E000D90D202E8901015010409801EBCF089579
:1048F0001AE303E20A95F1F71A95E1F700000000C8
:1049000008950FB6BCB3B1FF02C00000FBCFF8940E
:104910003FBA2EBA4DBABCB3B460BCBBBCB3B26034
:10492000BCBB0FBE0895B1E07B1609F050C0B0E0EB
:10493000BFBDB0E0BEBDB0E0BDBDB0E0BCBD4FBCD2
:104940006BBC5ABC69BC58BCBBE02B1639F40FB524
:1049500001600FBD0EB5077E0EBD38C0BCE02B1642
:1049600039F4BFB5B260BFBD0EB5077E0EBD2EC017
:10497000BDE02B1639F40FB503600FBD0EB5077EF1
:104980000EBD24C0BEE02B1639F40FB501600FBD7B
:104990000EB508600EBD1AC0BFE02B1639F40FB576
:1049A00002600FBD0EB508600EBD10C0B0E12B1641
:1049B00039F40FB503600FBD0EB508600EBD06C01B
:1049C0000FB50C7F0FBD0EB5077E0EBD03C00FB532
:1049D0000C730FBD309281000EB503290EBD0895F2
:1049E00005E80A95F1F700000895CF93DF93CDB75E
:1049F000DEB7A097CDBFDEBF21965F926F927F9208
:104A00008F929F92B1E0B093AB002092A800B1E0EA
:104A1000B0935401B0915601B160B0935601B0917A
:104A20006100BD7FB09361002092A800B1E0B09317
:104A30005D01B1E0B0936400B0915601B0FFC8C011
:104A4000B0E03B1609F048C04F923F922F92662487
:104A5000B5E05B2EB3E04B2EB0E32B2EB0E03B2E47
:104A600087DD2F903F904F900023B1F0B09161000F
:104A7000B260B0936100B1E03B2EB0915601BE7FB1
:104A8000B09356014F923F922F92B1E02B2E0E948D
:104A9000810E2F903F904F904F923F922F92B1E016
:104AA0006B2EB5E05B2EB3E04B2EB0E32B2EB0E0C7
:104AB0003B2E5EDD2F903F904F90009061001127BC
:104AC00001FC1395012339F0B1E03B2EB091560162
:104AD000BE7FB09356017BC0B0915601BE7FB093AC
:104AE00056014F923F922F920E945432FE0132960D
:104AF000B7E5B193B1E6B193B4E7B193B9E6B19339
:104B0000BEE6B193B7E6B193B0E2B193B6E6B19326
:104B1000BFE6B193B2E7B193B0E2B193BAE3B19318
:104B2000B0E0B1938E010E5F1F4F2801B1E03B2E24
:104B3000B1E02B2E0E940232FE013296B0E5B19315
:104B4000B2E7B193B5E6B193B3E7B193B3E7B193ED
:104B5000B9E6B193BEE6B193B7E6B193B0E2B193D3
:104B6000B8E4B193B5E6B193B1E6B193B4E7B193CC
:104B7000B5E6B193B2E7B193B0E2B193BDE6B193BC
:104B8000B9E6B193B3E6B193B2E7B193BFE6B1939F
:104B9000B0E2B193B3E5B193B7E5B193B0E0B193AF
:104BA0008E010E5F1F4F2801B1E03B2EB2E02B2E8D
:104BB0000E9402322F903F904F9029E01EE105EEB7
:104BC0000A95F1F71A95E1F72A95D1F7000034CF4D
:104BD000B1E03B1609F02CC6B1E0B093AB002092D7
:104BE000A800B1E0B09354014F923F922F920E94DF
:104BF0005432BCE68B2EB0E09B2EBBE66B2EB0E0B1
:104C00007B2EBAE64B2EB0E05B2EB6E72B2EB0E043
:104C10003B2EB0E0BF93B0E6BF93B0E0BF93B3E6E6
:104C2000BF93B0E0BF93B2E6BF930BDBADB7BEB7A7
:104C30001696ADBFBEBFB6EA8B2EB0E09B2EB7EA8C
:104C40006B2EB0E07B2EB5EA4B2EB0E05B2EB0E9C8
:104C50002B2EB0E03B2EB1E0BF93BBE5BF93B1E09C
:104C6000BF93BCE5BF93B1E0BF93BDE5BF93E9DA65
:104C7000ADB7BEB71696ADBFBEBF2F903F904F9059
:104C8000B0915601B160B0935601B1E04B1609F0F6
:104C900091C0B1E0B0935401B1E0B093AB0000918A
:104CA000A800015010E048E150E00E9497152CEA5E
:104CB00030E0020F131F4091AB0041500B8F1C8F4F
:104CC0000CE010E050E00E9497152B8D3C8D200FDA
:104CD000311F00915401015010E0000F111F000F0F
:104CE000111F020F131FF8013196BCE3B08300912E
:104CF000A800015010E048E150E00E9497152CEA0E
:104D000030E0020F131F4091AB0041500B8F1C8FFE
:104D10000CE010E050E00E9497152B8D3C8D200F89
:104D2000311F00915401015010E0000F111F000FBE
:104D3000111F020F131FF8013296BCE3B0830091DC
:104D4000A800015010E048E150E00E9497152CEABD
:104D500030E0020F131F4091AB0041500B8F1C8FAE
:104D60000CE010E050E00E9497152B8D3C8D200F39
:104D7000311F00915401015010E0000F111F000F6E
:104D8000111FF801E20FF31FB1E0B0830091AB00F7
:104D9000023031F00091AB000F5F0093AB007FCF8A
:104DA00000915401033031F0009154010F5F0093E2
:104DB000540172CFB2E0B093AB002092A800B1E0F2
:104DC000B0935401022D015010E048E150E00E94E0
:104DD00097152CEA30E0020F131F045F1F4FF801F4
:104DE000339600814F923F922F92B5E63B2EB0E072
:104DF0004B2E202E58DDB5E62B2EB0E03B2E0E9428
:104E00002B0D2F903F904F9008831983B09156013E
:104E1000B160B0935601B0916100BE7FB093610064
:104E2000B1E0B0936900B1E04B1600E009F40FEF78
:104E30000F8F0091A800015010E048E150E00E945F
:104E400097150D8F1E8F2CEA30E0020F131F409133
:104E5000AB0041500B8F1C8F0CE010E050E00E9423
:104E600097152B8D3C8DA801420F531F20915401A3
:104E70002150722F80E0770F881F770F881F272F10
:104E8000382F240F351FF901319630812091A5006C
:104E9000321740E008F04FEF2CEA30E05D8D6E8D68
:104EA000250F361F200F311F270F381FF9013296AB
:104EB00030812091A700321720E008F02FEF422325
:104EC0002CEA30E0250F361F020F131FE72FF82FB3
:104ED000E00FF11F00810030B0E009F0BFEF0B2FB1
:104EE000142F10230F8D012B09F4E0C04F923F9235
:104EF0002F92B1E94B2EB0E05B2E288039800E94C2
:104F0000A104B1E94B2EB0E05B2E2090A500B0E0EB
:104F10003B2E0E94A104B1E94B2EB0E05B2EB1E024
:104F20003B2EB2E02B2E0E940232FE013296B1E3FC
:104F3000B193B0E2B193B3E6B193B8E6B193B3E6FF
:104F4000B193BBE6B193B5E6B193B4E6B193BAE3DE
:104F5000B193B0E0B1938E010E5F1F4F2801B1E015
:104F60003B2EB1E02B2E0E9402322F903F904F90AB
:104F700025E11BE40FEB0A95F1F71A95E1F72A9565
:104F8000D1F70000009169000030B1F50091A80050
:104F9000015010E048E150E00E9497152CEA30E003
:104FA000020F131F0B8F1C8F0CE010E04091AB0021
:104FB00050E00E9497152B8D3C8D200F311F0091E2
:104FC0005401015010E0000F111F000F111F020FBC
:104FD000131FF801339600814F923F922F92409019
:104FE0005401BFEF3B2E202E0E943A0A2F903F9093
:104FF0004F90B1E0B093690025E01FE002EF0A9501
:10500000F1F71A95E1F72A95D1F74F923F922F9237
:105010006624B5E05B2EB2E04B2EB0E32B2EB0E061
:105020003B2EA6DA2F903F904F90002391F0B09145
:105030006100B260B0936100B0915601BE7FB09341
:105040005601B0B3BF7BB0BBB0915601BE7FB093E9
:1050500056014F923F922F92B1E06B2EB5E05B2E3E
:10506000B2E04B2EB0E32B2EB0E03B2E81DA2F9036
:105070003F904F9000906100112701FC1395012390
:10508000A9F0B0915601BE7FB09356014F923F9266
:105090002F9240905401BFEF3B2E22240E943A0AE7
:1050A0002F903F904F90B0B3BF7BB0BB4F923F92D9
:1050B0002F9240905401BFEF3B2E22240E943A0AC7
:1050C00080905B0170905C0160905D015090A60043
:1050D0004424332420909000ACDBB6EA8B2EB0E061
:1050E0009B2EB7EA6B2EB0E07B2EB5EA4B2EB0E0DC
:1050F0005B2EB0E92B2EB0E03B2EB1E0BF93BBE5B9
:10510000BF93B1E0BF93BCE5BF93B1E0BF93BDE5F2
:10511000BF9397D8ADB7BEB71696ADBFBEBF2F90A1
:105120003F904F90B0916100BD7FB0936100B0E0BF
:10513000B0936900B2E0B093AB00B0E0B0937700F9
:10514000B0E0B0937800B0B3BF7BB0BBB09161006A
:10515000BD7FB0936100B0915601B160B09356012C
:10516000B0916100BE7FB0936100B0915601B0FF75
:105170005AC30091A800015010E048E150E00E949D
:1051800097150D8F1E8F2CEA30E0020F131F4091F0
:10519000AB0041500B8F1C8F0CE010E050E00E94E0
:1051A00097152B8D3C8DA801420F531F2091540160
:1051B0002150722F80E0770F881F770F881F272FCD
:1051C000382F240F351FF901319630812091A50029
:1051D000321760E009F46FEF4CEA50E02D8D3E8D00
:1051E000240F351F020F131F070F181FF8013296E7
:1051F00010810091A700101700E008F40FEF0623BC
:1052000029F0B0915601BE7FB0935601B09156017E
:10521000B0FB90F9B1E04B1600E009F40FEF0F8FEF
:105220000091A800015010E048E150E00E9497155D
:105230000D8F1E8F2CEA30E0020F131F4091AB0040
:1052400041500B8F1C8F0CE010E050E00E9497152E
:105250002B8D3C8DA801420F531F209154012150EA
:10526000722F80E0770F881F770F881F272F382F26
:10527000240F351FF901319630812091A500321796
:10528000B0E008F0BFEF3B2F2F8D622F632B4CEA6D
:1052900050E02D8D3E8D240F351F020F131F070F79
:1052A000181FF801329610810091A7000117B0E095
:1052B00008F4BFEF0B2F162F102B002790FD03953E
:1052C000012309F48EC14F923F922F92B6EA8B2EA2
:1052D000B0E09B2EB7EA6B2EB0E07B2EB5EA4B2EEA
:1052E000B0E05B2EB0E92B2EB0E03B2EB1E0BF93D7
:1052F000BBE5BF93B1E0BF93BCE5BF93B1E0BF9303
:10530000BDE5BF930E942121ADB7BEB71696ADBFD4
:10531000BEBF2F903F904F900E940F194F923F9227
:105320002F92B1E93B2EB0E04B2E2090A800BBDAC3
:105330002F903F904F90009169000030B9F5009197
:10534000A800015010E048E150E00E9497152CEAB7
:1053500030E0020F131F4091AB0041500B8F1C8FA8
:105360000CE010E050E00E9497152B8D3C8D200F33
:10537000311F00915401015010E0000F111F000F68
:10538000111F020F131FF801339600814F923F92B5
:105390002F9240905401BFEF3B2E202E0E943A0ADC
:1053A0002F903F904F90B1E0B09369000E949F15FD
:1053B000B1E04B1609F085C04F923F922F92B1E0B9
:1053C0006B2EB5E05B2EB3E04B2EB0E32B2EB0E09E
:1053D0003B2ECED82F903F904F90002309F470C001
:1053E000B0916100B260B0936100B0915601BE7F90
:1053F000B09356014F923F922F9240905401BFEFCD
:105400003B2E22240E943A0AB0B3BF7BB0BB00916E
:10541000A800015010E048E150E00E9497152CEAE6
:1054200030E0020F131F4091AB0041500B8F1C8FD7
:105430000CE010E050E00E9497152B8D3C8D200F62
:10544000311F00915401015010E0000F111F000F97
:10545000111F020F131FF80131960091A500008360
:105460000091A800015010E048E150E00E9497151B
:105470002CEA30E0020F131F4091AB0041500B8F1C
:105480001C8F0CE010E050E00E9497152B8D3C8D96
:10549000200F311F00915401015010E0000F111F27
:1054A000000F111F020F131FF80132960091A70081
:1054B0000083B1E02B2E0E94810E2F903F904F90E1
:1054C0005DC04F923F922F926624B5E05B2EB2E012
:1054D0004B2EB0E32B2EB0E03B2E4AD82F903F90BE
:1054E0004F900023F1F0B0916100B260B093610081
:1054F000B0915601BE7FB0935601B0B3BF7BB0BB35
:105500004F923F922F9240905401BFEF3B2E2224A6
:105510000E943A0AB1E02B2E0E94810E2F903F90FC
:105520004F904F923F922F92B1E06B2EB5E05B2EE1
:10553000B2E04B2EB0E32B2EB0E03B2E19D82F90CB
:105540003F904F9000906100112701FC13950123BB
:10555000A9F0B0915601BE7FB09356014F923F9291
:105560002F9240905401BFEF3B2E22240E943A0A12
:105570002F903F904F90B0B3BF7BB0BB2091A7005E
:105580002093770000917800201710E009F01FEFBA
:10559000203000E009F40FEF012B11F10091A7007A
:1055A00000937800FE013296B8E4B193B5E6B1936A
:1055B000B1E6B193B4E7B193B5E6B193B2E7B19375
:1055C000B0E0B1938E010E5F1F4F4F923F922F922A
:1055D0004090A80018010E9468102F903F904F90B3
:1055E00021C1B0B3BF7BB0BB4F923F922F9240908E
:1055F0005401BFEF3B2E22240E943A0AFE0132964C
:10560000B8E4B193B5E6B193B1E6B193B4E7B19321
:10561000B5E6B193B2E7B193B0E0B1938E010E5FFE
:105620001F4F4090A80018010E94681025E01FE05D
:1056300002EF0A95F1F71A95E1F72A95D1F734D7D9
:10564000B1E94B2EB0E05B2E2090A800B0E03B2EDD
:105650000E94A104B1E94B2EB0E05B2EB1E03B2EDD
:10566000B1E02B2ECFD6FE013296B9E6B193B3E767
:10567000B193B0E2B193BFE4B193B6E6B193B6E6AD
:10568000B193BAE3B193B0E0B1938E010E5F1F4FB7
:105690002801B8E03B2EB1E02B2EB4D62F903F90DE
:1056A0004F90009169000130D9F5FE013296B8E4BF
:1056B000B193B5E6B193B1E6B193B4E7B193B5E672
:1056C000B193B2E7B193B0E2B193BFE6B193B6E65E
:1056D000B193B6E6B193B0E0B1938E010E5F1F4F68
:1056E0004F923F922F922801B1E03B2EB2E02B2E39
:1056F00089D6B1E94B2EB0E05B2EBAE03B2EB2E08A
:105700002B2E80D62F903F904F902DE01DE208ED7C
:105710000A95F1F71A95E1F72A95D1F700000000F4
:1057200000916900003009F03FC0FE013296B8E4F4
:10573000B193B5E6B193B1E6B193B4E7B193B5E6F1
:10574000B193B2E7B193B0E2B193B5E4B193B2E7EC
:10575000B193B2E7B193BFE6B193B2E7B193B0E0D2
:10576000B1938E010E5F1F4F4F923F922F922801EF
:10577000B1E03B2EB2E02B2E45D6B1E94B2EB0E086
:105780005B2EBAE03B2EB2E02B2E3CD62F903F9002
:105790004F902DE01DE208ED0A95F1F71A95E1F71B
:1057A0002A95D1F700000000FE013296BFE4B193C4
:1057B000B6E6B193B6E6B193B0E2B193B0E7B19378
:1057C000B7E7B193BDE6B193B0E2B193B8E6B19358
:1057D000B5E6B193B1E6B193B4E7B193B5E6B19351
:1057E000B2E7B193B0E2B193BDE6B193BFE6B19336
:1057F000B4E6B193B5E6B193B0E0B1938E010E5F1C
:105800001F4F4F923F922F922801B1E03B2EB1E003
:105810002B2EF8D52F903F904F90B0915601BE7F20
:10582000B0935601A2CCB0915601BE7FB093560101
:10583000B2E0B093AB00B2E0B0935401B091560126
:10584000B160B0935601B2E0B0938400B0916100B2
:10585000B160B09361004F923F922F9225D6FE0126
:105860003296B7E5B193B1E6B193B4E7B193B9E637
:10587000B193BEE6B193B7E6B193B0E2B193B6E6A9
:10588000B193BFE6B193B2E7B193B0E2B193BAE39B
:10589000B193B0E0B1938E010E5F1F4F2801B1E0CC
:1058A0003B2EB1E02B2EAED5FE013296B0E5B19382
:1058B000B2E7B193B5E6B193B3E7B193B3E7B19370
:1058C000B9E6B193BEE6B193B7E6B193B0E2B19356
:1058D000BDE4B193BFE6B193B4E7B193BFE6B19332
:1058E000B2E7B193B0E2B193BDE6B193B9E6B1933B
:1058F000B3E6B193B2E7B193BFE6B193B0E2B1932F
:10590000B3E5B193B7E5B193B0E0B1938E010E5F0B
:105910001F4F2801B1E03B2EB2E02B2E73D52F9004
:105920003F904F9029E01EE105EE0A95F1F71A9598
:10593000E1F72A95D1F70000B0916100B1FF13C0E3
:10594000B1E04B1659F4B0916100B160B0936100C1
:10595000B0916100BD7FB093610005C0B09161005E
:10596000BE7FB0936100B0916100B0FF80C04F92E4
:105970003F922F92B1E06B2EB5E05B2EB3E04B2E41
:10598000B0E32B2EB0E03B2E0E94B8222F903F9028
:105990004F90002329F0B0916100BE7FB093610069
:1059A000FE013296B7E5B193B1E6B193B4E7B19396
:1059B000B9E6B193BEE6B193B7E6B193B0E2B19365
:1059C000B6E6B193BFE6B193B2E7B193B0E2B1935B
:1059D000BAE3B193B0E0B1938E010E5F1F4F4F92C7
:1059E0003F922F922801B1E03B2EB1E02B2E0AD539
:1059F000FE013296B4E4B193BFE6B193B7E7B19339
:105A0000BEE6B193B9E6B193BEE6B193B7E6B19302
:105A1000B0E2B193B4E7B193B8E6B193B5E6B19310
:105A2000B0E2B193B0E5B193B1E6B193B4E6B1930E
:105A3000B0E2B193B1E2B193B1E2B193B0E0B1930E
:105A40008E010E5F1F4F2801B1E03B2EB2E02B2EDE
:105A5000D9D42F903F904F9029E01EE105EE0A9592
:105A6000F1F71A95E1F72A95D1F700007CCFB091B4
:105A70006100B160B0936100FE013296BDE6B19362
:105A8000BFE6B193B4E7B193BFE6B193B2E7B19388
:105A9000B0E2B193B2E7B193B5E7B193BEE6B1938B
:105AA000BEE6B193B9E6B193BEE6B193B7E6B19362
:105AB000B0E0B1938E010E5F1F4F4F923F922F9235
:105AC0002801B9E03B2EB2E02B2E9CD4FE01329689
:105AD000B6E5B193B1E6B193BCE6B193B5E7B19346
