:100000000C9445A80C9499A70C9400000C94EBA9AF
:100010000C9400000C9400000C9400000C94000060
:100020000C9400000C9424AC0C9400000C94000080
:100030000C9400000C9400000C9400000C94000040
:100040000C9429A80C9400000C9400000C9400005F
:100050000C9400000C9400000C9400000C94000020
:100060000C9400000C9400000C9400000C94000010
:100070000C9400000C9400000C9400000C94000000
:100080000C9400000C9400000C9400000000000987
:100090000D0B09000000000F080E080000001111F0
:1000A0001F000400010E140404040400000A1511CA
:1000B0000A0400000000000F09090F00F4D021F02D
:1000C000662309F005D198940895F8DF09F441C03A
:1000D000E62ED52EC42EB32EA22E912E802E002DCC
:1000E000112D222D332DEADF09F43DC0842F952FE9
:1000F0008C199D09B9F072F49095809501964C2D5C
:100100005D2D883180F535952795179507950197D1
:10011000D1F708C08831E8F4B594A79497948794F0
:100120000197D1F766272EF0080D191D2A1D3B1DDA
:1001300009C0801A910AA20AB30A082D192D2A2D86
:100140003B2D332312F4C4D060E827D001C018D06F
:1001500016C0002D112D222D332DD6F74CD0C1F312
:1001600040E83427F5CF082D192D2A2D3B2D4C2D95
:100170005D2D6E2D33235AF7ABD060E8E8CF08959C
:100180003AD039F041585F4F342F220F36952795DA
:10019000362B0895689499DF08952DD011F19F931F
:1001A0008F938EE790E0332351F03695279517957E
:1001B000079548175907B4F44F5F5F4FF4CF809508
:1001C0009095019622239AF0000F111F221F4817C5
:1001D00059071CF041505040F5CF00271127222726
:1001E000332708C033270FEF102F2FE7322F8F91BF
:1001F0009F91C6DF0895002329F4112319F42223C7
:1002000009F433230895C6DF332332F0F4DF11F00D
:1002100001E003C0002701C00FEF089544D081F131
:10022000E62ED52EC42EB32EA22E912E802E002D7A
:10023000112D222D332D37D019F16E254C0D5D1D5A
:1002400040385307F4F441387FEF5707FCF0882714
:100250009927AA27BB2770E2B695A795979587950A
:10026000379527951795079520F4880D991DAA1D98
:10027000BB1D7A9589F7032F3A2F292F182F8DDF71
:100280000AC00FEF102F2FE73FE7FACF0027102FFC
:10029000202F302FF5CF0895042E152E262E372E21
:1002A000B2DF00230895A7DF79F0632F6078220F73
:1002B000331F432F5FE7451B55275040269530E8F5
:1002C000232B3327989403C0442755276627089586
:1002D00000951095209530950F5F1F4F2F4F3F4F82
:1002E000089547E16627552726F0332312F4F0DFFF
:1002F00060E853DF0895C9019A01AB01B80197FB8B
:10030000092E05260ED057FD04D014D00AD0001CAB
:1003100038F450954095309521953F4F4F4F5F4FA2
:100320000895F6F790958095709561957F4F8F4F62
:100330009F4F0895A1E21A2EAA1BBB1BFD010DC001
:10034000AA1FBB1FEE1FFF1FA217B307E407F50785
:1003500020F0A21BB30BE40BF50B661F771F881F61
:10036000991F1A9469F760957095809590959B01F7
:10037000AC01BD01CF010895E894A7DE08953F9335
:100380002F931F930F93002D112D222D332D8BDFD3
:1003900009F44BC0E62ED52EC42EB32EA22E912EDC
:1003A000802E0F911F912F913F917DDF61F16E257E
:1003B0004C195D09403853073CF541387FEF57072A
:1003C0007CF180E27724632E522E412E302F22279B
:1003D00011270027000F111F221F331F441C551C1B
:1003E000661C771C28F0481859086A087B0804C066
:1003F000480C591C6A1C7B1C0AF001608A9551F755
:1004000041505040CADE16C00FEF102F2FE73FE7D4
:100410006623C9F3F0DEB9F3342D30E83425F3CF89
:100420000027102F202F302FEECF0F900F900F901E
:100430000F90EACF0895E89454DF089534DFF1F087
:100440005523C2F04F31A8F44731C1F050F4419523
:10045000495E05C035952795179507954A95D1F7BB
:100460000DC04751000F111F221F331F4A95D1F7AE
:1004700005C03FE7232F132F032F03C0662309F086
:1004800027DF0895CF93DF93CDB7DEB72397CDBF96
:10049000DEBF2196B0E85B1641F4B0E04B1629F4BC
:1004A000B0E03B1611F4B0E02B16D1F4F301BDE23D
:1004B000B193B2E3B193B1E3B193B4E3B193B7E3D2
:1004C000B193B4E3B193B8E3B193B3E3B193B6E3BB
:1004D000B193B4E3B193B8E3B193B0E0B1937BC00F
:1004E000B0E0BA8300E010E020E030E020163106F2
:1004F0004206530664F4BFEFBA8300E010E020E048
:1005000030E0021913092409350918012901F30102
:10051000B0E2B193B0E2B193B0E2B193B0E2B19383
:10052000B0E2B193B0E2B193B0E2B193B0E2B19373
:10053000B0E2B193B0E2B193B0E3B193B0E0B19364
:100540008301065F1F4F08831983B0E05B1641F4F7
:10055000B0E04B1629F4B0E03B1611F4B0E02B16D6
:1005600099F17F926F925F924F923F922F924AE061
:1005700050E060E070E081019201BDDE8B019C01E2
:100580002F903F904F905F90005DE881F98100834C
:100590005F924F923F922F924AE050E060E070E00D
:1005A00081019201A8DE89019A012F903F904F901E
:1005B0005F906F907F901801290108811981015087
:1005C000104008831983C1CF0A81002321F0E881FC
:1005D000F981BDE2B0832296CDBFDEBFDF91CF911E
:1005E00008955ADE1CF40024039401C000240895E9
:1005F000042E152E262E372ECDDD002E112E222E66
:10060000332E0895042E152E262E372E07DE002EAB
:10061000112E222E332E0895002E112E222E332E2F
:10062000042F152F262F372FEEDD00231CF000247A
:10063000039401C000240895042E152E262E372E73
:100640009BDE002E112E222E332E089521BE0895FA
:10065000049FD001159FF001249FE00DF11D069F1E
:10066000E00DF11D349FF00D259FF00D169FF00D4C
:10067000079FF00D3327149FB00DE11DF31F059F59
:10068000B00DE11DF31F8D019F010895CF93DF93FE
:10069000CDB7DEB7A197CDBFDEBF2196B0E0BE8F4C
:1006A00081019201CBDE088319832A833B835F9209
:1006B0004F923F922F9240E050E060E070E0810165
:1006C00092018FDF002800E009F00FEF2F903F909C
:1006D0004F905F90002311F0BFEFBE8F8E010A5F35
:1006E0001F4F7F926F925F924F923F922F923801ED
:1006F000288039804A805B80C5DE2F903F904F90E4
:100700005F906F907F90088119812A813B8193DEF1
:100710005F924F923F922F92A801B90181019201FD
:1007200067DF40E050E563EC77E46CDF2F903F90AB
:100730004F905F9083DE088319832A833B8340E0D8
:1007400050E060E070E0041715072607370784F4CF
:100750000880198000E010E0001911090A801B8050
:1007600020E030E020093109088319832A833B8384
:100770008E010E5E1F4F7F926F925F924F923F925B
:100780002F923801288039804A805B807BDE2F9051
:100790003F904F905F906F907F9040E050E0B0E0CE
:1007A000BC83BD83F301B0E2B193B0E2B193B0E298
:1007B000B193B0E2B193B0E2B193B0E2B193B0E2E1
:1007C000B193B0E2B193B0E2B193B0E2B193B0E3D0
:1007D000B193B0E0B1935F934F93810192012EDE0C
:1007E000303029F4203019F4103009F40030B0E032
:1007F00009F4BFEF0B2F08A340E050E060E070E089
:1008000081019201EEDE002800E009F00FEF4F9128
:100810005F9118A10123002341F0F301BDE2B083F1
:1008200011E020E0412F522F00C02E81203281F4B0
:100830000C811D8198012F5F3F4F2C833D838E01DA
:100840000A5F1F4FF901E00FF11F0081202FEECF4B
:10085000022F0030D1F0FA01E60DF71D00830C8164
:100860001D8198012F5F3F4F2C833D838A010F5FCD
:100870001F4FB8018E010A5F1F4FF901E00FF11FF2
:100880000081202F022FAB01E4CF0E8D003010E04D
:1008900009F41FEF503009F4403000E009F40FEF85
:1008A000012351F0FA01E60DF71DB0E3B0838A0190
:1008B0000F5F1F4F980101C09A01303009F42130B9
:1008C00010E009F41FEF0E8D012359F0F901E60D38
:1008D000F71DB0E3B08389010F5F1F4FA8019A0194
:1008E00000C0F901E60DF71DBEE2B08389010F5F7C
:1008F0001F4FA801B6E0BC83B0E0BD83288D203037
:10090000F9F0203219F420E3022F01C0022FFA017E
:10091000E60DF71D00830C811D8198012F5F3F4F6D
:100920002C833D838A010F5F1F4FB8018E010E5E3D
:100930001F4FF901E00FF11F0081AB01202FDFCF26
:10094000FA01E60DF71DB0E0B083A096CDBFDEBF83
:10095000DF91CF910895CF93DF93CDB7DEB7249782
:10096000CDBFDEBF2196152D110FB7E0042D0695E2
:10097000BA95E9F7010F0F57202F30E007FD3FEF41
:1009800000E010E020173107DCF440E050E060E0C8
:1009900070E08101920140DE002800E009F00FEFD5
:1009A000002331F0B0E0B883B983BA83BB8307C0BA
:1009B000B0E0B883B983B0E8BA83BFE3BB832AC091
:1009C00008E1021728F4288239824A825B8222C019
:1009D0008101920133DD2FDD088319832A833B8354
:1009E000A101B201088119812A813B81FADD002829
:1009F00000E009F00FEF002369F0088119812A81D6
:100A00003B8140E050E060E87FE316DE0883198315
:100A10002A833B83088119812A813B812396CDBF9C
:100A2000DEBFDF91CF910895B1E14B1619F43BBCC5
:100A30002ABC26C0B2E14B1619F439BC28BC20C030
:100A4000B3E14B1629F4309279002092780018C057
:100A5000B4E14B1629F4309287002092860010C032
:100A6000B5E14B1629F4309285002092840008C02D
:100A7000B6E14B1629F4309283002092820000C028
:100A80000895042E152E262E372E79DC002E112ED9
:100A9000222E332E0895CF93DF93CDB7DEB7239761
:100AA000CDBFDEBF2196B1E0B883B0E8B983B0E036
:100AB000BA8309811A81103009F4003009F443C067
:100AC0000E94F86F0E94F86F0E94F86F0E94F86F02
:100AD000B0913400B160B09334000E94F86F0E946E
:100AE000F86F09811A8102211070103009F400306A
:100AF00031F0B0913400BD7FB093340005C0B091A7
:100B00003400B260B09334000E94F86F0E94F86F16
:100B1000B0913400BE7FB0933400B0913901BF7EF4
:100B2000B0933901B0913300B0FD06C0B0913901E6
:100B3000B4FF01C001C0F6CF09811A81169507954F
:100B400009831A83B6CFB0E0B8830E94F86F0E9481
:100B5000F86FB0913400B160B09334000E94F86F28
:100B60000E94F86FB0913400BD7FB09334000E94B2
:100B7000F86F0E94F86F0E94F86F0E94F86FB091B2
:100B80003400BE7FB0933400B0913901BF7EB09382
:100B90003901B0913300B0FD06C0B0913901B4FF06
:100BA00001C001C0F6CFB0E0B8830E94F86F0E9488
:100BB000F86FB0913300B1FF03C008810160088372
:100BC0000E94F86F0E94F86F0E94F86F0E94F86F01
:100BD0000E94F86F0E94F86F0E94F86F0E94F86FF1
:100BE0000E94F86F0E94F86F0E94F86F0E94F86FE1
:100BF0000E94F86F0E94F86F0E94F86F0E94F86FD1
:100C0000B0913400B160B0933400B0913400B26060
:100C1000B093340008812296CDBFDEBFDF91CF9123
:100C20000895B0913500B77FB0933500B09135008D
:100C3000BB7FB0933500B0913500BF77B0933500DE
:100C4000B0913500BF7BB0933500B0913500BF7DCA
:100C5000B0933500B0913500BF7EB0933500B091B0
:100C60003400B860B0933400B0913400B460B093F5
:100C70003400B0913400B061B0933400B0913400CE
:100C8000B062B0933400B0913400B064B0933400DB
:100C9000B0913400B068B09334000E948F6F0E940E
:100CA0008F6F0E948F6FB0913500B062B0933500A6
:100CB000B0913500B061B0933500B0913500B860A7
:100CC000B09335000E94F86FB0913500B77FB093B4
:100CD00035000E948F6FB0913500B860B093350039
:100CE0000E94F86FB0913500B77FB09335000E9435
:100CF0008F6FB0913500B860B09335000E94F86FE7
:100D0000B0913500B77FB09335000E948F6FB091DE
:100D10003500BF7EB0933500B0913500B860B09318
:100D200035000E94F86FB0913500B77FB093350061
:100D30000E948F6FB0913500B860B09335000E946B
:100D4000F86FB0913500B77FB0933500B0913500A2
:100D5000BF7DB0933500B0913500B068B0933500D9
:100D6000B0913500B860B09335000E94F86FB09133
:100D70003500B77FB09335000E948F6FB09135007A
:100D8000BF77B0933500B0913500B061B0933500B6
:100D9000B0913500B860B09335000E94F86FB09103
:100DA0003500B77FB0933500B0913500BF7EB0936A
:100DB0003500B0913500B860B09335000E94F86FEF
:100DC000B0913500B77FB09335000E948F6FB0911E
:100DD0003500B860B09335000E94F86FB0913500CF
:100DE000B77FB0933500B0913500B061B093350056
:100DF000B0913500B860B09335000E94F86FB091A3
:100E00003500B77FB09335000E948F6FB0913500E9
:100E1000BF7EB0933500B0913500B860B093350017
:100E20000E94F86FB0913500B77FB0933500B09154
:100E30003500B068B0933500B0913500B064B09320
:100E40003500B0913500B062B0933500B0913500F7
:100E5000B061B0933500B0913500B860B093350003
:100E60000E94F86FB0913500B77FB09335000E94B3
:100E70008F6FB0913901B064B09339010895CF9369
:100E8000DF93CDB7DEB72397CDBFDEBF2196B0E0AD
:100E9000B883B0E8B983B0E0BA8309811A81103011
:100EA00009F4003009F439C00E94F86F0E94F86F0D
:100EB000B0913400BD7FB09334000E94F86F0E945F
:100EC000F86FB0913400BE7FB0933400B091390117
:100ED000BF7EB0933901B0913300B0FD06C0B09130
:100EE0003901B4FF01C001C0F6CFB0913300B1FFAA
:100EF00004C018810981012B08830E94F86F0E94A9
:100F0000F86FB0913400B160B093340009811A8158
:100F10001695079509831A83C0CFB0913400BD7F21
:100F2000B09334000E94F86F0E94F86FB0E03B1657
:100F300011F4B0E02B1629F0B0913400B260B093F8
:100F400034000E94F86F0E94F86FB0913400BE7FA9
:100F5000B0933400B0913901BF7EB0933901B091A4
:100F60003300B0FD06C0B0913901B4FF01C001C02B
:100F7000F6CF0E94F86F0E94F86FB0913400B16014
:100F8000B09334000E94F86F0E94F86FB091340063
:100F9000B260B093340008812296CDBFDEBFDF91EE
:100FA000CF9108959801249F8001259F100D349FB3
:100FB000100D0895B0913400BD7FB09334000E94AD
:100FC000F86F0E94F86FB0913400BE7FB093340088
:100FD0000E94F86F0E94F86FB0913400B260B09335
:100FE00034000E94F86F0E94F86FB0913400B16035
:100FF000B09334000895992779E004C0991F94179D
:1010000008F0941B001F7A95C9F700950895E32D09
:10101000F42DB0E2B193B0E2B193B0E3B193B0E09C
:10102000B193032D142D0E5F1F4F9801B0E02B16C6
:1010300081F04AE0022DDFDF092F005DF901008316
:101040004AE0022DD8DF202E89010150104098017E
:10105000EDCF0895CF93DF93CDB7DEB72697CDBF01
:10106000DEBF21962F923F924F926F927F92022D78
:1010700010E0212F312F432D542D60E047FC6FEFFE
:10108000762FE6DAD8D95F924F923F922F9240E0C6
:1010900050E068EC72E4F5DC180129015CDC0A839D
:1010A0001B832C833D83BBE26B2EB1E07B2E1801AA
:1010B0002901ECDA0E94306F0A811B812C813D816D
:1010C000BDD908831983B3ED4B2EBDE05B2E18010B
:1010D0000E94517FBBE24B2EB1E05B2EB1E03B2E74
:1010E000B1E02B2E0E94599CB3ED4B2EBDE05B2E40
:1010F000B6E03B2EB2E02B2E0E94599C2F902F92EF
:10110000B3ED4B2EBDE05B2EB0E03B2E0E94517F35
:10111000B3ED4B2EBDE05B2EB1E03B2EB2E02B2EAB
:101120000E94599C2F903F904F905F90B1E05B16CA
:1011300031F4B1E14B2E2880398076DC36C0B2E044
:101140005B1631F4B2E14B2E288039806DDC2DC066
:10115000B3E05B1631F4B2E04B2E2880398064DCBA
:1011600024C0B4E05B16A9F4B0E02B1649F4088063
:101170001980032D142D00191109180167DA08C010
:1011800008801980032D142D0019110918015EDA49
:101190000CC0B5E05B1609F408C0B6E05B1609F4B4
:1011A00004C0B7E05B1609F400C07F906F904F90C9
:1011B0003F902F902596CDBFDEBFDF91CF91089550
:1011C000B0913400B260B09334000E94F86F0E9476
:1011D000F86FB0913400BE7FB0933400B091390104
:1011E000BF7EB0933901B0913300B0FD06C0B0911D
:1011F0003901B4FF01C001C0F6CF0E94F86F0E9410
:10120000F86F0E94F86F0E94F86F0E94F86F0E94BA
:10121000F86F0E94F86F0E94F86FB0913400BD7FA4
:10122000B09334000E94F86F0E94F86F08950FB6D3
:10123000BCB3B1FF02C00000FBCFF8943FBA2EBA96
:101240004DBABCB3B460BCBBBCB3B260BCBB0FBED8
:101250000895CF93DF93CDB7DEB72997CDBFDEBF1B
:1012600021965F926F92B0910701B160B093070130
:10127000B0910701BF7EB0930701B0910701B0FFA5
:10128000D1C14F923F922F926624B2E05B2EB5E01F
:101290004B2EB2E32B2EB0E03B2E0E94AA7E2F9065
:1012A0003F904F90002329F0B0913901B062B09384
:1012B00039014F923F922F92B1E06B2EB2E05B2E3C
:1012C000B5E04B2EB0E32B2EB0E03B2E0E94AA7E61
:1012D0002F903F904F9000903901112705FC1395F6
:1012E000012309F443C0231411F4242C03C0022D5C
:1012F0000F5F202E4F923F922F92BFE34B2EB1E013
:101300005B2EB0E03B2E0E94517FBFE34B2EB1E03D
:101310005B2EB9E03B2EB2E02B2E0E94599CFE01C1
:10132000B6E5B193B1E6B193BCE6B193B5E7B1933D
:10133000B5E6B193B0E2B193BAE3B193B0E2B19341
:10134000B0E0B1938E012801B5E03B2EB2E02B2E28
:101350000E94599C2F903F904F9021E11CE30CEC90
:101360000A95F1F71A95E1F72A95D1F7B09139016D
:10137000B062B09339014F923F922F926624B2E04F
:101380005B2EB4E04B2EB2E32B2EB0E03B2E0E943E
:10139000AA7E2F903F904F90002329F0B091390101
:1013A000B062B09339014F923F922F92B1E06B2E11
:1013B000B2E05B2EB4E04B2EB0E32B2EB0E03B2E20
:1013C0000E94AA7E2F903F904F90009039011127E4
:1013D00005FC1395012309F443C0241411F4232CB4
:1013E00003C0022D0150202E4F923F922F92BFE357
:1013F0004B2EB1E05B2EB0E03B2E0E94517FBFE34D
:101400004B2EB1E05B2EB9E03B2EB2E02B2E0E94BA
:10141000599CFE01B6E5B193B1E6B193BCE6B19338
:10142000B5E7B193B5E6B193B0E2B193BAE3B19346
:10143000B0E2B193B0E0B1938E012801B5E03B2E4C
:10144000B2E02B2E0E94599C2F903F904F9021E1AB
:101450001CE30CEC0A95F1F71A95E1F72A95D1F700
:10146000209254014F923F922F926624B2E05B2E5D
:10147000B2E04B2EB0E32B2EB0E03B2E0E94AA7EB2
:101480002F903F904F90003029F0B0910701B0614C
:10149000B09307014F923F922F92B1E06B2EB2E0D2
:1014A0005B2EB2E04B2EB0E32B2EB0E03B2E0E9421
:1014B000AA7E2F903F904F9000900701112704FCC7
:1014C0001395012301F1B0910701BF7EB09307018D
:1014D000B0910701BE7FB093070100915301102F17
:1014E0001F5F1093530100917507101719F4B1E0B5
:1014F000B093530121E11CE30CEC0A95F1F71A9526
:10150000E1F72A95D1F74F923F922F926624B2E0ED
:101510005B2EB6E04B2EB0E32B2EB0E03B2E0E94AC
:10152000AA7E2F903F904F90003029F0B091390162
:10153000B062B093390110900701009039014E7FDD
:1015400010FC05FE01C041604F923F922F92B1E026
:101550006B2EB2E05B2EB6E04B2EB0E32B2EB0E04C
:101560003B2E0E94AA7E2F903F904F90112740FD66
:101570001395012309F453C0B0910701BE7FB093C6
:101580000701B0913901BF7DB09339014F923F926D
:101590002F92BFE34B2EB1E05B2E20905401B0E0C0
:1015A0003B2E0E94517FBFE34B2EB1E05B2EBBE090
:1015B0003B2EB2E02B2E0E94599CFE01B6E5B19362
:1015C000B1E6B193BCE6B193B5E7B193B5E6B1939B
:1015D000B0E2B193BAE3B193B0E0B1938E012801C8
:1015E000B5E03B2EB2E02B2E0E94599C2F903F90ED
:1015F0004F9021E11CE30CEC0A95F1F71A95E1F705
:101600002A95D1F700915301102F1F5F10935301BA
:1016100000917507101719F4B1E0B09353012092AF
:1016200054012BCE6F905F902896CDBFDEBFDF9127
:10163000CF910895CF93DF93CDB7DEB76B97CDBF32
:10164000DEBF21965F926F92B0910701B160B093B7
:101650000701B0910701BF7EB0930701B091070168
:10166000B0FF0C947E13B1E02B1609F0EDC0FE0123
:10167000B0E5B193BCE6B193B3E7B193B0E2B193F7
:10168000B3E4B193B8E6B193BFE6B193BFE6B193CB
:10169000B3E7B193B5E6B193B0E2B193B0E5B193DE
:1016A000B2E7B193BFE6B193B7E6B193B2E7B193B6
:1016B000B1E6B193BDE6B193B0E2B193BEE4B193AC
:1016C000B5E7B193BDE6B193B2E6B193B5E6B19398
:1016D000B2E7B193BAE3B193B0E0B1938E014F9208
:1016E0003F922F922801B1E03B2EB1E02B2E0E94B9
:1016F000599CFE01B0E5B193B2E7B193BAE3B1935F
:10170000B1E3B193B0E2B193B2E3B193B0E2B1937C
:10171000B3E3B193B0E2B193B4E3B193B0E2B19368
:10172000B5E3B193B0E2B193B6E3B193B0E2B19354
:10173000B7E3B193B0E0B1938E012801B1E03B2E45
:10174000B2E02B2E0E94599C25E01FE002EF0A9583
:10175000F1F71A95E1F72A95D1F7FE01B0E5B193BB
:10176000BCE6B193B3E7B193B0E2B193B3E4B19304
:10177000B8E6B193BFE6B193BFE6B193B3E7B193D7
:10178000B5E6B193B0E2B193B0E5B193B2E7B193EE
:10179000BFE6B193B7E6B193B2E7B193B1E6B193C7
:1017A000BDE6B193B0E2B193BEE4B193B5E7B193B6
:1017B000BDE6B193B2E6B193B5E6B193B2E7B193AA
:1017C000BAE3B193B0E0B1938E012801B1E03B2EB2
:1017D000B1E02B2E0E94599CFE01B4E4B193B9E70D
:1017E000B193BAE3B193B0E2B193B0E2B193B2E393
:1017F000B193B0E2B193B3E3B193B0E2B193B4E388
:10180000B193B0E2B193B5E3B193B0E2B193B6E373
:10181000B193B0E2B193B7E3B193B0E0B1938E016D
:101820002801B1E03B2EB2E02B2E0E94599C2F9054
:101830003F904F9025E01FE002EF0A95F1F71A95CF
:10184000E1F72A95D1F7A6C5B2E02B1609F0EDC055
:10185000FE01B0E5B193BCE6B193B3E7B193B0E25A
:10186000B193B3E4B193B8E6B193BFE6B193BFE6E9
:10187000B193B3E7B193B5E6B193B0E2B193B0E5FC
:10188000B193B2E7B193BFE6B193B7E6B193B2E7D4
:10189000B193B1E6B193BDE6B193B0E2B193BEE4CA
:1018A000B193B5E7B193BDE6B193B2E6B193B5E6B6
:1018B000B193B2E7B193BAE3B193B0E0B1938E01C3
:1018C0004F923F922F922801B1E03B2EB1E02B2E98
:1018D0000E94599CFE01B0E5B193B2E7B193BAE31F
:1018E000B193B1E3B193B0E2B193B2E3B193B0E29B
:1018F000B193B3E3B193B0E2B193B4E3B193B0E287
:10190000B193B5E3B193B0E2B193B6E3B193B0E272
:10191000B193B7E3B193B0E0B1938E012801B1E088
:101920003B2EB2E02B2E0E94599C25E01FE002EFD7
:101930000A95F1F71A95E1F72A95D1F7FE01B0E57E
:10194000B193BCE6B193B3E7B193B0E2B193B3E422
:10195000B193B8E6B193BFE6B193BFE6B193B3E7F5
:10196000B193B5E6B193B0E2B193B0E5B193B2E70C
:10197000B193BFE6B193B7E6B193B2E7B193B1E6E5
:10198000B193BDE6B193B0E2B193BEE4B193B5E7D4
:10199000B193BDE6B193B2E6B193B5E6B193B2E7C8
:1019A000B193BAE3B193B0E0B1938E012801B1E0F5
:1019B0003B2EB1E02B2E0E94599CFE01B0E5B19365
:1019C000B2E7B193BAE3B193B1E3B193B0E2B193AB
:1019D000B0E2B193B0E2B193B3E3B193B0E2B193AB
:1019E000B4E3B193B0E2B193B5E3B193B0E2B19394
:1019F000B6E3B193B0E2B193B7E3B193B0E0B19382
:101A00008E012801B1E03B2EB2E02B2E0E94599CA2
:101A10002F903F904F9025E01FE002EF0A95F1F7DD
:101A20001A95E1F72A95D1F7B5C4B3E02B1609F062
:101A3000EDC0FE01B0E5B193BCE6B193B3E7B1935D
:101A4000B0E2B193B3E4B193B8E6B193BFE6B1931A
:101A5000BFE6B193B3E7B193B5E6B193B0E2B1930A
:101A6000B0E5B193B2E7B193BFE6B193B7E6B193F6
:101A7000B2E7B193B1E6B193BDE6B193B0E2B193F1
:101A8000BEE4B193B5E7B193BDE6B193B2E6B193CD
:101A9000B5E6B193B2E7B193BAE3B193B0E0B193D5
:101AA0008E014F923F922F922801B1E03B2EB1E080
:101AB0002B2E0E94599CFE01B0E5B193B2E7B19381
:101AC000BAE3B193B1E3B193B0E2B193B2E3B193AE
:101AD000B0E2B193B3E3B193B0E2B193B4E3B193A5
:101AE000B0E2B193B5E3B193B0E2B193B6E3B19391
:101AF000B0E2B193B7E3B193B0E0B1938E012801A6
:101B0000B1E03B2EB2E02B2E0E94599C25E01FE055
:101B100002EF0A95F1F71A95E1F72A95D1F7FE0140
:101B2000B0E5B193BCE6B193B3E7B193B0E2B19342
:101B3000B3E4B193B8E6B193BFE6B193BFE6B19316
:101B4000B3E7B193B5E6B193B0E2B193B0E5B19329
:101B5000B2E7B193BFE6B193B7E6B193B2E7B19301
:101B6000B1E6B193BDE6B193B0E2B193BEE4B193F7
:101B7000B5E7B193BDE6B193B2E6B193B5E6B193E3
:101B8000B2E7B193BAE3B193B0E0B1938E0128010B
:101B9000B1E03B2EB1E02B2E0E94599CFE01B0E536
:101BA000B193B2E7B193BAE3B193B1E3B193B0E2C9
:101BB000B193B2E3B193B0E2B193B0E2B193B0E2CA
:101BC000B193B4E3B193B0E2B193B5E3B193B0E2B2
:101BD000B193B6E3B193B0E2B193B7E3B193B0E0A0
:101BE000B1938E012801B1E03B2EB2E02B2E0E9472
:101BF000599C2F903F904F9025E01FE002EF0A95EF
:101C0000F1F71A95E1F72A95D1F7C4C3B4E02B1682
:101C100009F0EDC0FE01B0E5B193BCE6B193B3E7C6
:101C2000B193B0E2B193B3E4B193B8E6B193BFE638
:101C3000B193BFE6B193B3E7B193B5E6B193B0E228
:101C4000B193B0E5B193B2E7B193BFE6B193B7E614
:101C5000B193B2E7B193B1E6B193BDE6B193B0E20F
:101C6000B193BEE4B193B5E7B193BDE6B193B2E6EB
:101C7000B193B5E6B193B2E7B193BAE3B193B0E0F3
:101C8000B1938E014F923F922F922801B1E03B2EEB
:101C9000B1E02B2E0E94599CFE01B0E5B193B2E752
:101CA000B193BAE3B193B1E3B193B0E2B193B2E3CC
:101CB000B193B0E2B193B3E3B193B0E2B193B4E3C3
:101CC000B193B0E2B193B5E3B193B0E2B193B6E3AF
:101CD000B193B0E2B193B7E3B193B0E0B1938E01A9
:101CE0002801B1E03B2EB2E02B2E0E94599C25E04A
:101CF0001FE002EF0A95F1F71A95E1F72A95D1F75F
:101D0000FE01B0E5B193BCE6B193B3E7B193B0E2A5
:101D1000B193B3E4B193B8E6B193BFE6B193BFE634
:101D2000B193B3E7B193B5E6B193B0E2B193B0E547
:101D3000B193B2E7B193BFE6B193B7E6B193B2E71F
:101D4000B193B1E6B193BDE6B193B0E2B193BEE415
:101D5000B193B5E7B193BDE6B193B2E6B193B5E601
:101D6000B193B2E7B193BAE3B193B0E0B1938E010E
:101D70002801B1E03B2EB1E02B2E0E94599CFE01C0
:101D8000B0E5B193B2E7B193BAE3B193B1E3B193E4
:101D9000B0E2B193B2E3B193B0E2B193B3E3B193E4
:101DA000B0E2B193B0E2B193B0E2B193B5E3B193D5
:101DB000B0E2B193B6E3B193B0E2B193B7E3B193BC
:101DC000B0E0B1938E012801B1E03B2EB2E02B2EA2
:101DD0000E94599C2F903F904F9025E01FE002EF0A
:101DE0000A95F1F71A95E1F72A95D1F7D3C2B5E034
:101DF0002B1609F0EDC0FE01B0E5B193BCE6B1933E
:101E0000B3E7B193B0E2B193B3E4B193B8E6B19361
:101E1000BFE6B193BFE6B193B3E7B193B5E6B19333
:101E2000B0E2B193B0E5B193B2E7B193BFE6B1933D
:101E3000B7E6B193B2E7B193B1E6B193BDE6B19322
:101E4000B0E2B193BEE4B193B5E7B193BDE6B1930F
:101E5000B2E6B193B5E6B193B2E7B193BAE3B19309
:101E6000B0E0B1938E014F923F922F922801B1E0E2
:101E70003B2EB1E02B2E0E94599CFE01B0E5B193A0
:101E8000B2E7B193BAE3B193B1E3B193B0E2B193E6
:101E9000B2E3B193B0E2B193B3E3B193B0E2B193E3
:101EA000B4E3B193B0E2B193B5E3B193B0E2B193CF
:101EB000B6E3B193B0E2B193B7E3B193B0E0B193BD
:101EC0008E012801B1E03B2EB2E02B2E0E94599CDE
:101ED00025E01FE002EF0A95F1F71A95E1F72A9540
:101EE000D1F7FE01B0E5B193BCE6B193B3E7B1938E
:101EF000B0E2B193B3E4B193B8E6B193BFE6B19366
:101F0000BFE6B193B3E7B193B5E6B193B0E2B19355
:101F1000B0E5B193B2E7B193BFE6B193B7E6B19341
:101F2000B2E7B193B1E6B193BDE6B193B0E2B1933C
:101F3000BEE4B193B5E7B193BDE6B193B2E6B19318
:101F4000B5E6B193B2E7B193BAE3B193B0E0B19320
:101F50008E012801B1E03B2EB1E02B2E0E94599C4E
:101F6000FE01B0E5B193B2E7B193BAE3B193B1E347
:101F7000B193B0E2B193B2E3B193B0E2B193B3E302
:101F8000B193B0E2B193B4E3B193B0E2B193B0E2F4
:101F9000B193B0E2B193B6E3B193B0E2B193B7E3DA
:101FA000B193B0E0B1938E012801B1E03B2EB2E0D5
:101FB0002B2E0E94599C2F903F904F9025E01FE0C0
:101FC00002EF0A95F1F71A95E1F72A95D1F7E2C1E8
:101FD000B6E02B1609F0EDC0FE01B0E5B193BCE60A
:101FE000B193B3E7B193B0E2B193B3E4B193B8E680
:101FF000B193BFE6B193BFE6B193B3E7B193B5E652
:10200000B193B0E2B193B0E5B193B2E7B193BFE65B
:10201000B193B7E6B193B2E7B193B1E6B193BDE640
:10202000B193B0E2B193BEE4B193B5E7B193BDE62D
:10203000B193B2E6B193B5E6B193B2E7B193BAE327
:10204000B193B0E0B1938E014F923F922F9228014D
:10205000B1E03B2EB1E02B2E0E94599CFE01B0E571
:10206000B193B2E7B193BAE3B193B1E3B193B0E204
:10207000B193B2E3B193B0E2B193B3E3B193B0E201
:10208000B193B4E3B193B0E2B193B5E3B193B0E2ED
:10209000B193B6E3B193B0E2B193B7E3B193B0E0DB
:1020A000B1938E012801B1E03B2EB2E02B2E0E94AD
:1020B000599C25E01FE002EF0A95F1F71A95E1F728
:1020C0002A95D1F7FE01B0E5B193BCE6B193B3E731
:1020D000B193B0E2B193B3E4B193B8E6B193BFE684
:1020E000B193BFE6B193B3E7B193B5E6B193B0E274
:1020F000B193B0E5B193B2E7B193BFE6B193B7E660
:10210000B193B2E7B193B1E6B193BDE6B193B0E25A
:10211000B193BEE4B193B5E7B193BDE6B193B2E636
:10212000B193B5E6B193B2E7B193BAE3B193B0E03E
:10213000B1938E012801B1E03B2EB1E02B2E0E941D
:10214000599CFE01B0E5B193B2E7B193BAE3B19304
:10215000B1E3B193B0E2B193B2E3B193B0E2B19322
:10216000B3E3B193B0E2B193B4E3B193B0E2B1930E
:10217000B5E3B193B0E2B193B0E2B193B0E2B19301
:10218000B7E3B193B0E0B1938E012801B1E03B2EEB
:10219000B2E02B2E0E94599C2F903F904F9025E04B
:1021A0001FE002EF0A95F1F71A95E1F72A95D1F7AA
:1021B000F1C0B7E02B1609F0EDC0FE01B0E5B19318
:1021C000BCE6B193B3E7B193B0E2B193B3E4B1939A
:1021D000B8E6B193BFE6B193BFE6B193B3E7B1936D
:1021E000B5E6B193B0E2B193B0E5B193B2E7B19384
:1021F000BFE6B193B7E6B193B2E7B193B1E6B1935D
:10220000BDE6B193B0E2B193BEE4B193B5E7B1934B
:10221000BDE6B193B2E6B193B5E6B193B2E7B1933F
:10222000BAE3B193B0E0B1938E014F923F922F92F7
:102230002801B1E03B2EB1E02B2E0E94599CFE01FB
:10224000B0E5B193B2E7B193BAE3B193B1E3B1931F
:10225000B0E2B193B2E3B193B0E2B193B3E3B1931F
:10226000B0E2B193B4E3B193B0E2B193B5E3B1930B
:10227000B0E2B193B6E3B193B0E2B193B7E3B193F7
:10228000B0E0B1938E012801B1E03B2EB2E02B2EDD
:102290000E94599C25E01FE002EF0A95F1F71A957C
:1022A000E1F72A95D1F7FE01B0E5B193BCE6B19311
:1022B000B3E7B193B0E2B193B3E4B193B8E6B193AD
:1022C000BFE6B193BFE6B193B3E7B193B5E6B1937F
:1022D000B0E2B193B0E5B193B2E7B193BFE6B19389
:1022E000B7E6B193B2E7B193B1E6B193BDE6B1936E
:1022F000B0E2B193BEE4B193B5E7B193BDE6B1935B
:10230000B2E6B193B5E6B193B2E7B193BAE3B19354
:10231000B0E0B1938E012801B1E03B2EB1E02B2E4D
:102320000E94599CFE01B0E5B193B2E7B193BAE3C4
:10233000B193B1E3B193B0E2B193B2E3B193B0E240
:10234000B193B3E3B193B0E2B193B4E3B193B0E22C
:10235000B193B5E3B193B0E2B193B6E3B193B0E218
:10236000B193B0E2B193B0E0B1938E012801B1E036
:102370003B2EB2E02B2E0E94599C2F903F904F9005
:1023800025E01FE002EF0A95F1F71A95E1F72A958B
:10239000D1F700C04F923F922F9266245524B5E0AA
:1023A0004B2EB2E32B2EB0E03B2E0E94AA7E2F9044
:1023B0003F904F90002329F0B0913901B062B09363
:1023C00039014F923F922F92B1E06B2E5524B5E028
:1023D0004B2EB0E32B2EB0E03B2E0E94AA7E2F9016
:1023E0003F904F9000903901112705FC1395012370
:1023F00039F0231411F4242C03C0022D0F5F202E7A
:10240000B0913901B062B09339014F923F922F924F
:1024100066245524B4E04B2EB2E32B2EB0E03B2EC5
:102420000E94AA7E2F903F904F90002329F0B091F8
:102430003901B062B09339014F923F922F92B1E0CF
:102440006B2E5524B4E04B2EB0E32B2EB0E03B2E88
:102450000E94AA7E2F903F904F9000903901112743
:1024600005FC1395012339F0241411F4232C03C027
:10247000022D0150202E209254014F923F922F9214
:1024800066245524B2E04B2EB0E32B2EB0E03B2E59
:102490000E94AA7E2F903F904F90003029F0B0917B
:1024A0000701B061B09307014F923F922F92B1E0C4
:1024B0006B2E5524B2E04B2EB0E32B2EB0E03B2E1A
:1024C0000E94AA7E2F903F904F9000900701112705
:1024D00004FC1395012309F46BC0B0910701BF7E82
:1024E000B0930701B0910701BE7FB093070100913F
:1024F0005301102F1F5F10935301009175071017A0
:1025000019F4B1E0B09353014F923F922F920E9481
:10251000306FFE01B4E4B193B1E6B193B9E7B19382
:10252000B0E2B193B0E0B1938E012801B1E03B2E4F
:10253000B1E02B2E0E94599C2F902F92B3ED4B2E81
:10254000BDE05B2EB0E03B2E0E94517FB3ED4B2EE1
:10255000BDE05B2EB6E03B2EB1E02B2E0E94599CD5
:10256000FE01B3E7B193B5E6B193BCE6B193B5E62E
:10257000B193B3E6B193B4E7B193B5E6B193B4E6E2
:10258000B193B0E0B1938E012801B1E03B2EB2E0EF
:102590002B2E0E94599C2F903F904F9025E11BE4D9
:1025A0000FEB0A95F1F71A95E1F72A95D1F700009C
:1025B0004F923F922F9266245524B6E04B2EB0E303
:1025C0002B2EB0E03B2E0E94AA7E2F903F904F9082
:1025D000003029F0B0913901B062B0933901109008
:1025E0000701009039014E7F10FC05FE01C04160DB
:1025F0004F923F922F92B1E06B2E5524B6E04B2EB6
:10260000B0E32B2EB0E03B2E0E94AA7E2F903F908D
:102610004F90112740FD1395012309F46BC0B09131
:102620000701BE7FB0930701B0913901BF7DB09320
:10263000390100915301102F1F5F10935301009136
:102640007507101719F4B1E0B09353014F923F9200
:102650002F920E94306FFE01B4E4B193B1E6B193C2
:10266000B9E7B193B0E2B193B0E0B1938E01280124
:10267000B1E03B2EB1E02B2E0E94599C2F902F925F
:10268000B3ED4B2EBDE05B2EB0E03B2E0E94517FA0
:10269000B3ED4B2EBDE05B2EB6E03B2EB1E02B2E12
:1026A0000E94599CFE01B3E7B193B5E6B193BCE635
:1026B000B193B5E6B193B3E6B193B4E7B193B5E6A0
:1026C000B193B4E6B193B0E0B1938E012801B1E0CB
:1026D0003B2EB2E02B2E0E94599C2F903F904F90A2
:1026E00025E11BE40FEB0A95F1F71A95E1F72A951E
:1026F000D1F70000209254010C942E0B6F905F9044
:102700006A96CDBFDEBFDF91CF910895CF93DF935F
:10271000CDB7DEB76197CDBFDEBF21966F92B09186
:102720000701B160B0930701B0910701BF7EB0937C
:102730000701B0910701B0FF0C94F720B1E03B1600
:1027400009F072C5B1E02B1609F0C3C0FE01B8E272
:10275000B193BFE4B193BEE6B193BAE3B193BFE4E2
:10276000B193B6E6B193B6E6B193B9E2B193B0E2F4
:10277000B193B0E2B193B8E2B193B0E5B193B7E5EC
:10278000B193BDE4B193B9E2B193B0E0B1938E01DE
:102790005F924F923F922F922801B1E03B2EB1E021
:1027A0002B2E0E94599CFE01B0E5B193B2E7B19384
:1027B000BAE3B193B1E3B193B0E2B193B2E3B193B1
:1027C000B0E2B193B3E3B193B0E2B193B4E3B193A8
:1027D000B0E2B193B5E3B193B0E2B193B6E3B19394
:1027E000B0E2B193B7E3B193B0E0B1938E012801A9
:1027F000B1E03B2EB2E02B2E0E94599C25E01FE059
:1028000002EF0A95F1F71A95E1F72A95D1F7FE0143
:10281000B8E2B193B0E2B193B0E2B193BAE3B1934D
:10282000BFE4B193B6E6B193B6E6B193B9E2B19322
:10283000B0E2B193B0E2B193B8E2B193B0E5B19335
:10284000B7E5B193BDE4B193B9E2B193B0E0B19310
:102850008E012801B1E03B2EB1E02B2E0E94599C45
:10286000FE01B4E4B193B9E7B193BAE3B193B0E236
:10287000B193B0E2B193B2E3B193B0E2B193B3E3F9
:10288000B193B0E2B193B4E3B193B0E2B193B5E3E5
:10289000B193B0E2B193B6E3B193B0E2B193B7E3D1
:1028A000B193B0E0B1938E012801B1E03B2EB2E0CC
:1028B0002B2E0E94599C2F903F904F905F9025E0C7
:1028C0001FE002EF0A95F1F71A95E1F72A95D1F783
:1028D000AAC4B2E02B1609F0C3C0FE01B8E2B1935E
:1028E000BFE4B193BEE6B193BAE3B193BFE4B19351
:1028F000B6E6B193B6E6B193B9E2B193B0E2B19363
:10290000B0E2B193B8E2B193B0E5B193B7E5B1935A
:10291000BDE4B193B9E2B193B0E0B1938E015F929F
:102920004F923F922F922801B1E03B2EB1E02B2E27
:102930000E94599CFE01B0E5B193B2E7B193BAE3AE
:10294000B193B1E3B193B0E2B193B2E3B193B0E22A
:10295000B193B3E3B193B0E2B193B4E3B193B0E216
:10296000B193B5E3B193B0E2B193B6E3B193B0E202
:10297000B193B7E3B193B0E0B1938E012801B1E018
:102980003B2EB2E02B2E0E94599C25E01FE002EF67
:102990000A95F1F71A95E1F72A95D1F7FE01B8E209
:1029A000B193B0E2B193B0E2B193BAE3B193BFE4B3
:1029B000B193B6E6B193B6E6B193B9E2B193B0E2A2
:1029C000B193B0E2B193B8E2B193B0E5B193B7E59A
:1029D000B193BDE4B193B9E2B193B0E0B1938E018C
:1029E0002801B1E03B2EB1E02B2E0E94599CFE0144
:1029F000B0E5B193B2E7B193BAE3B193B1E3B19368
:102A0000B0E2B193B0E2B193B0E2B193B3E3B1936A
:102A1000B0E2B193B4E3B193B0E2B193B5E3B19353
:102A2000B0E2B193B6E3B193B0E2B193B7E3B1933F
:102A3000B0E0B1938E012801B1E03B2EB2E02B2E25
:102A40000E94599C2F903F904F905F9025E01FE08F
:102A500002EF0A95F1F71A95E1F72A95D1F7E3C34A
:102A6000B3E02B1609F0C3C0FE01B8E2B193BFE496
:102A7000B193BEE6B193BAE3B193BFE4B193B6E6C6
:102A8000B193B6E6B193B9E2B193B0E2B193B0E2DB
:102A9000B193B8E2B193B0E5B193B7E5B193BDE4BA
:102AA000B193B9E2B193B0E0B1938E015F924F92CE
:102AB0003F922F922801B1E03B2EB1E02B2E0E94D5
:102AC000599CFE01B0E5B193B2E7B193BAE3B1937B
:102AD000B1E3B193B0E2B193B2E3B193B0E2B19399
:102AE000B3E3B193B0E2B193B4E3B193B0E2B19385
:102AF000B5E3B193B0E2B193B6E3B193B0E2B19371
:102B0000B7E3B193B0E0B1938E012801B1E03B2E61
:102B1000B2E02B2E0E94599C25E01FE002EF0A959F
:102B2000F1F71A95E1F72A95D1F7FE01B8E2B193D2
:102B3000B0E2B193B0E2B193BAE3B193BFE4B19321
:102B4000B6E6B193B6E6B193B9E2B193B0E2B19310
:102B5000B0E2B193B8E2B193B0E5B193B7E5B19308
:102B6000BDE4B193B9E2B193B0E0B1938E01280115
:102B7000B1E03B2EB1E02B2E0E94599CFE01B0E546
:102B8000B193B2E7B193BAE3B193B1E3B193B0E2D9
:102B9000B193B2E3B193B0E2B193B0E2B193B0E2DA
:102BA000B193B4E3B193B0E2B193B5E3B193B0E2C2
:102BB000B193B6E3B193B0E2B193B7E3B193B0E0B0
:102BC000B1938E012801B1E03B2EB2E02B2E0E9482
:102BD000599C2F903F904F905F9025E01FE002EFAF
:102BE0000A95F1F71A95E1F72A95D1F71CC3B4E0DD
:102BF0002B1609F0C3C0FE01B8E2B193BFE4B19354
:102C0000BEE6B193BAE3B193BFE4B193B6E6B19334
:102C1000B6E6B193B9E2B193B0E2B193B0E2B19349
:102C2000B8E2B193B0E5B193B7E5B193BDE4B19328
:102C3000B9E2B193B0E0B1938E015F924F923F92AF
:102C40002F922801B1E03B2EB1E02B2E0E94599C1F
:102C5000FE01B0E5B193B2E7B193BAE3B193B1E34A
:102C6000B193B0E2B193B2E3B193B0E2B193B3E305
:102C7000B193B0E2B193B4E3B193B0E2B193B5E3F1
:102C8000B193B0E2B193B6E3B193B0E2B193B7E3DD
:102C9000B193B0E0B1938E012801B1E03B2EB2E0D8
:102CA0002B2E0E94599C25E01FE002EF0A95F1F7B8
:102CB0001A95E1F72A95D1F7FE01B8E2B193B0E297
:102CC000B193B0E2B193BAE3B193BFE4B193B6E686
:102CD000B193B6E6B193B9E2B193B0E2B193B0E289
:102CE000B193B8E2B193B0E5B193B7E5B193BDE468
:102CF000B193B9E2B193B0E0B1938E012801B1E094
:102D00003B2EB1E02B2E0E94599CFE01B0E5B19301
:102D1000B2E7B193BAE3B193B1E3B193B0E2B19347
:102D2000B2E3B193B0E2B193B3E3B193B0E2B19344
:102D3000B0E2B193B0E2B193B5E3B193B0E2B19335
:102D4000B6E3B193B0E2B193B7E3B193B0E0B1931E
:102D50008E012801B1E03B2EB2E02B2E0E94599C3F
:102D60002F903F904F905F9025E01FE002EF0A9573
:102D7000F1F71A95E1F72A95D1F755C2B5E02B1670
:102D800009F0C3C0FE01B8E2B193BFE4B193BEE65F
:102D9000B193BAE3B193BFE4B193B6E6B193B6E6AB
:102DA000B193B9E2B193B0E2B193B0E2B193B8E2BA
:102DB000B193B0E5B193B7E5B193BDE4B193B9E296
:102DC000B193B0E0B1938E015F924F923F922F92F8
:102DD0002801B1E03B2EB1E02B2E0E94599CFE0150
:102DE000B0E5B193B2E7B193BAE3B193B1E3B19374
:102DF000B0E2B193B2E3B193B0E2B193B3E3B19374
:102E0000B0E2B193B4E3B193B0E2B193B5E3B1935F
:102E1000B0E2B193B6E3B193B0E2B193B7E3B1934B
:102E2000B0E0B1938E012801B1E03B2EB2E02B2E31
:102E30000E94599C25E01FE002EF0A95F1F71A95D0
:102E4000E1F72A95D1F7FE01B8E2B193B0E2B19370
:102E5000B0E2B193BAE3B193BFE4B193B6E6B193F4
:102E6000B6E6B193B9E2B193B0E2B193B0E2B193F7
:102E7000B8E2B193B0E5B193B7E5B193BDE4B193D6
:102E8000B9E2B193B0E0B1938E012801B1E03B2EDD
:102E9000B1E02B2E0E94599CFE01B0E5B193B2E740
:102EA000B193BAE3B193B1E3B193B0E2B193B2E3BA
:102EB000B193B0E2B193B3E3B193B0E2B193B4E3B1
:102EC000B193B0E2B193B0E2B193B0E2B193B6E3A3
:102ED000B193B0E2B193B7E3B193B0E0B1938E0197
:102EE0002801B1E03B2EB2E02B2E0E94599C2F907E
:102EF0003F904F905F9025E01FE002EF0A95F1F7B9
:102F00001A95E1F72A95D1F78EC1B6E02B1609F094
:102F1000C3C0FE01B8E2B193BFE4B193BEE6B19382
:102F2000BAE3B193BFE4B193B6E6B193B6E6B19319
:102F3000B9E2B193B0E2B193B0E2B193B8E2B19328
:102F4000B0E5B193B7E5B193BDE4B193B9E2B19304
:102F5000B0E0B1938E015F924F923F922F92280181
:102F6000B1E03B2EB1E02B2E0E94599CFE01B0E552
:102F7000B193B2E7B193BAE3B193B1E3B193B0E2E5
:102F8000B193B2E3B193B0E2B193B3E3B193B0E2E2
:102F9000B193B4E3B193B0E2B193B5E3B193B0E2CE
:102FA000B193B6E3B193B0E2B193B7E3B193B0E0BC
:102FB000B1938E012801B1E03B2EB2E02B2E0E948E
:102FC000599C25E01FE002EF0A95F1F71A95E1F709
:102FD0002A95D1F7FE01B8E2B193B0E2B193B0E225
:102FE000B193BAE3B193BFE4B193B6E6B193B6E659
:102FF000B193B9E2B193B0E2B193B0E2B193B8E268
:10300000B193B0E5B193B7E5B193BDE4B193B9E243
:10301000B193B0E0B1938E012801B1E03B2EB1E055
:103020002B2E0E94599CFE01B0E5B193B2E7B193FB
:10303000BAE3B193B1E3B193B0E2B193B2E3B19328
:10304000B0E2B193B3E3B193B0E2B193B4E3B1931F
:10305000B0E2B193B5E3B193B0E2B193B0E2B19312
:10306000B0E2B193B7E3B193B0E0B1938E01280120
:10307000B1E03B2EB2E02B2E0E94599C2F903F9046
:103080004F905F9025E01FE002EF0A95F1F71A9547
:10309000E1F72A95D1F7C7C0B7E02B1609F0C3C0F6
:1030A000FE01B8E2B193BFE4B193BEE6B193BAE3D7
:1030B000B193BFE4B193B6E6B193B6E6B193B9E28A
:1030C000B193B0E2B193B0E2B193B8E2B193B0E59D
:1030D000B193B7E5B193BDE4B193B9E2B193B0E078
:1030E000B1938E015F924F923F922F922801B1E0EF
:1030F0003B2EB1E02B2E0E94599CFE01B0E5B1930E
:10310000B2E7B193BAE3B193B1E3B193B0E2B19353
:10311000B2E3B193B0E2B193B3E3B193B0E2B19350
:10312000B4E3B193B0E2B193B5E3B193B0E2B1933C
:10313000B6E3B193B0E2B193B7E3B193B0E0B1932A
:103140008E012801B1E03B2EB2E02B2E0E94599C4B
:1031500025E01FE002EF0A95F1F71A95E1F72A95AD
:10316000D1F7FE01B8E2B193B0E2B193B0E2B1930E
:10317000BAE3B193BFE4B193B6E6B193B6E6B193C7
:10318000B9E2B193B0E2B193B0E2B193B8E2B193D6
:10319000B0E5B193B7E5B193BDE4B193B9E2B193B2
:1031A000B0E0B1938E012801B1E03B2EB1E02B2EAF
:1031B0000E94599CFE01B0E5B193B2E7B193BAE326
:1031C000B193B1E3B193B0E2B193B2E3B193B0E2A2
:1031D000B193B3E3B193B0E2B193B4E3B193B0E28E
:1031E000B193B5E3B193B0E2B193B6E3B193B0E27A
:1031F000B193B0E2B193B0E0B1938E012801B1E098
:103200003B2EB2E02B2E0E94599C2F903F904F9066
:103210005F9025E01FE002EF0A95F1F71A95E1F7BC
:103220002A95D1F700C06DC5B1E02B1609F0C3C0D7
:10323000FE01B8E2B193BFE4B193BEE6B193BAE345
:10324000B193BFE4B193B6E6B193B6E6B193B9E2F8
:10325000B193B0E2B193B0E2B193B8E2B193B0E50B
:10326000B193B7E5B193BDE4B193B9E2B193B0E0E6
:10327000B1938E015F924F923F922F922801B1E05D
:103280003B2EB1E02B2E0E94599CFE01B0E5B1937C
:10329000B2E7B193BAE3B193B1E3B193B0E2B193C2
:1032A000B2E3B193B0E2B193B3E3B193B0E2B193BF
:1032B000B4E3B193B0E2B193B5E3B193B0E2B193AB
:1032C000B6E3B193B0E2B193B7E3B193B0E0B19399
:1032D0008E012801B1E03B2EB2E02B2E0E94599CBA
:1032E00025E01FE002EF0A95F1F71A95E1F72A951C
:1032F000D1F7FE01B8E2B193BFE4B193BEE6B1935A
:10330000BAE3B193B0E2B193B0E2B193B0E2B1935A
:10331000B9E2B193B0E2B193B0E2B193B8E2B19344
:10332000B0E5B193B7E5B193BDE4B193B9E2B19320
:10333000B0E0B1938E012801B1E03B2EB1E02B2E1D
:103340000E94599CFE01B4E4B193B9E7B193BAE38A
:10335000B193B0E2B193B0E2B193B2E3B193B0E212
:10336000B193B3E3B193B0E2B193B4E3B193B0E2FC
:10337000B193B5E3B193B0E2B193B6E3B193B0E2E8
:10338000B193B7E3B193B0E0B1938E012801B1E0FE
:103390003B2EB2E02B2E0E94599C2F903F904F90D5
:1033A0005F9025E01FE002EF0A95F1F71A95E1F72B
:1033B0002A95D1F7A6C4B2E02B1609F0C3C0FE01CE
:1033C000B8E2B193BFE4B193BEE6B193BAE3B1936F
:1033D000BFE4B193B6E6B193B6E6B193B9E2B19367
:1033E000B0E2B193B0E2B193B8E2B193B0E5B1937A
:1033F000B7E5B193BDE4B193B9E2B193B0E0B19355
:103400008E015F924F923F922F922801B1E03B2EA6
:10341000B1E02B2E0E94599CFE01B0E5B193B2E7BA
:10342000B193BAE3B193B1E3B193B0E2B193B2E334
:10343000B193B0E2B193B3E3B193B0E2B193B4E32B
:10344000B193B0E2B193B5E3B193B0E2B193B6E317
:10345000B193B0E2B193B7E3B193B0E0B1938E0111
:103460002801B1E03B2EB2E02B2E0E94599C25E0B2
:103470001FE002EF0A95F1F71A95E1F72A95D1F7C7
:10348000FE01B8E2B193BFE4B193BEE6B193BAE3F3
:10349000B193B0E2B193B0E2B193B0E2B193B9E2CB
:1034A000B193B0E2B193B0E2B193B8E2B193B0E5B9
:1034B000B193B7E5B193BDE4B193B9E2B193B0E094
:1034C000B1938E012801B1E03B2EB1E02B2E0E947A
:1034D000599CFE01B0E5B193B2E7B193BAE3B19361
:1034E000B1E3B193B0E2B193B0E2B193B0E2B19382
:1034F000B3E3B193B0E2B193B4E3B193B0E2B1936B
:10350000B5E3B193B0E2B193B6E3B193B0E2B19356
:10351000B7E3B193B0E0B1938E012801B1E03B2E47
:10352000B2E02B2E0E94599C2F903F904F905F90BD
:1035300025E01FE002EF0A95F1F71A95E1F72A95C9
:10354000D1F7DFC3B3E02B1609F0C3C0FE01B8E228
:10355000B193BFE4B193BEE6B193BAE3B193BFE4D4
:10356000B193B6E6B193B6E6B193B9E2B193B0E2E6
:10357000B193B0E2B193B8E2B193B0E5B193B7E5DE
:10358000B193BDE4B193B9E2B193B0E0B1938E01D0
:103590005F924F923F922F922801B1E03B2EB1E013
:1035A0002B2E0E94599CFE01B0E5B193B2E7B19376
:1035B000BAE3B193B1E3B193B0E2B193B2E3B193A3
:1035C000B0E2B193B3E3B193B0E2B193B4E3B1939A
:1035D000B0E2B193B5E3B193B0E2B193B6E3B19386
:1035E000B0E2B193B7E3B193B0E0B1938E0128019B
:1035F000B1E03B2EB2E02B2E0E94599C25E01FE04B
:1036000002EF0A95F1F71A95E1F72A95D1F7FE0135
:10361000B8E2B193BFE4B193BEE6B193BAE3B1931C
:10362000B0E2B193B0E2B193B0E2B193B9E2B19339
:10363000B0E2B193B0E2B193B8E2B193B0E5B19327
:10364000B7E5B193BDE4B193B9E2B193B0E0B19302
:103650008E012801B1E03B2EB1E02B2E0E94599C37
:10366000FE01B0E5B193B2E7B193BAE3B193B1E330
:10367000B193B0E2B193B2E3B193B0E2B193B0E2EF
:10368000B193B0E2B193B4E3B193B0E2B193B5E3D7
:10369000B193B0E2B193B6E3B193B0E2B193B7E3C3
:1036A000B193B0E0B1938E012801B1E03B2EB2E0BE
:1036B0002B2E0E94599C2F903F904F905F9025E0B9
:1036C0001FE002EF0A95F1F71A95E1F72A95D1F775
:1036D00018C3B4E02B1609F0C3C0FE01B8E2B193E1
:1036E000BFE4B193BEE6B193BAE3B193BFE4B19343
:1036F000B6E6B193B6E6B193B9E2B193B0E2B19355
:10370000B0E2B193B8E2B193B0E5B193B7E5B1934C
:10371000BDE4B193B9E2B193B0E0B1938E015F9291
:103720004F923F922F922801B1E03B2EB1E02B2E19
:103730000E94599CFE01B0E5B193B2E7B193BAE3A0
:10374000B193B1E3B193B0E2B193B2E3B193B0E21C
:10375000B193B3E3B193B0E2B193B4E3B193B0E208
:10376000B193B5E3B193B0E2B193B6E3B193B0E2F4
:10377000B193B7E3B193B0E0B1938E012801B1E00A
:103780003B2EB2E02B2E0E94599C25E01FE002EF59
:103790000A95F1F71A95E1F72A95D1F7FE01B8E2FB
:1037A000B193BFE4B193BEE6B193BAE3B193B0E293
:1037B000B193B0E2B193B0E2B193B9E2B193B0E2A8
:1037C000B193B0E2B193B8E2B193B0E5B193B7E58C
:1037D000B193BDE4B193B9E2B193B0E0B1938E017E
:1037E0002801B1E03B2EB1E02B2E0E94599CFE0136
:1037F000B0E5B193B2E7B193BAE3B193B1E3B1935A
:10380000B0E2B193B2E3B193B0E2B193B3E3B19359
:10381000B0E2B193B0E2B193B0E2B193B5E3B1934A
:10382000B0E2B193B6E3B193B0E2B193B7E3B19331
:10383000B0E0B1938E012801B1E03B2EB2E02B2E17
:103840000E94599C2F903F904F905F9025E01FE081
:1038500002EF0A95F1F71A95E1F72A95D1F751C2CF
:10386000B5E02B1609F0C3C0FE01B8E2B193BFE486
:10387000B193BEE6B193BAE3B193BFE4B193B6E6B8
:10388000B193B6E6B193B9E2B193B0E2B193B0E2CD
:10389000B193B8E2B193B0E5B193B7E5B193BDE4AC
:1038A000B193B9E2B193B0E0B1938E015F924F92C0
:1038B0003F922F922801B1E03B2EB1E02B2E0E94C7
:1038C000599CFE01B0E5B193B2E7B193BAE3B1936D
:1038D000B1E3B193B0E2B193B2E3B193B0E2B1938B
:1038E000B3E3B193B0E2B193B4E3B193B0E2B19377
:1038F000B5E3B193B0E2B193B6E3B193B0E2B19363
:10390000B7E3B193B0E0B1938E012801B1E03B2E53
:10391000B2E02B2E0E94599C25E01FE002EF0A9591
:10392000F1F71A95E1F72A95D1F7FE01B8E2B193C4
:10393000BFE4B193BEE6B193BAE3B193B0E2B19301
:10394000B0E2B193B0E2B193B9E2B193B0E2B19316
:10395000B0E2B193B8E2B193B0E5B193B7E5B193FA
:10396000BDE4B193B9E2B193B0E0B1938E01280107
:10397000B1E03B2EB1E02B2E0E94599CFE01B0E538
:10398000B193B2E7B193BAE3B193B1E3B193B0E2CB
:10399000B193B2E3B193B0E2B193B3E3B193B0E2C8
:1039A000B193B4E3B193B0E2B193B0E2B193B0E2BA
:1039B000B193B6E3B193B0E2B193B7E3B193B0E0A2
:1039C000B1938E012801B1E03B2EB2E02B2E0E9474
:1039D000599C2F903F904F905F9025E01FE002EFA1
:1039E0000A95F1F71A95E1F72A95D1F78AC1B6E061
:1039F0002B1609F0BFC0FE01B8E2B193BFE4B1934A
:103A0000BEE6B193BAE3B193BFE4B193B6E6B19326
:103A1000B6E6B193B9E2B193B0E2B193B0E2B1933B
:103A2000B8E2B193B0E5B193B7E5B193BDE4B1931A
:103A3000B9E2B193B0E0B1938E015F924F923F92A1
:103A40002F922801B1E03B2EB1E02B2E0E94599C11
:103A5000FE01B0E5B193B2E7B193BAE3B193B1E33C
:103A6000B193B0E2B193B2E3B193B0E2B193B3E3F7
:103A7000B193B0E2B193B4E3B193B0E2B193B5E3E3
:103A8000B193B0E2B193B6E3B193B0E2B193B7E3CF
:103A9000B193B0E0B1938E012801B1E03B2EB2E0CA
:103AA0002B2E0E94599C25E01FE002EF0A95F1F7AA
:103AB0001A95E1F72A95D1F7FE01B8E2B193BFE478
:103AC000B193BEE6B193BAE3B193B0E2B193B0E281
:103AD000B193B0E2B193B9E2B193B0E2B193B0E285
:103AE000B193B8E2B193B0E5B193B7E5B193BDE45A
:103AF000B193B9E2B193B0E0B1938E012801B1E086
:103B00003B2EB1E02B2E0E94599CFE01B6E7B193EB
:103B1000B1E3B193B0E2B193B2E3B193B0E2B19348
:103B2000B3E3B193B0E2B193B4E3B193B0E2B19334
:103B3000B5E3B193B0E2B193B0E2B193B0E2B19327
:103B4000B7E3B193B0E0B1938E012801B1E03B2E11
:103B5000B2E02B2E0E94599C2F903F904F905F9087
:103B600025E01FE002EF0A95F1F71A95E1F72A9593
:103B7000D1F7C7C0B7E02B1609F0C3C0FE01B8E209
:103B8000B193BFE4B193BEE6B193BAE3B193BFE49E
:103B9000B193B6E6B193B6E6B193B9E2B193B0E2B0
:103BA000B193B0E2B193B8E2B193B0E5B193B7E5A8
:103BB000B193BDE4B193B9E2B193B0E0B1938E019A
:103BC0005F924F923F922F922801B1E03B2EB1E0DD
:103BD0002B2E0E94599CFE01B0E5B193B2E7B19340
:103BE000BAE3B193B1E3B193B0E2B193B2E3B1936D
:103BF000B0E2B193B3E3B193B0E2B193B4E3B19364
:103C0000B0E2B193B5E3B193B0E2B193B6E3B1934F
:103C1000B0E2B193B7E3B193B0E0B1938E01280164
:103C2000B1E03B2EB2E02B2E0E94599C25E01FE014
:103C300002EF0A95F1F71A95E1F72A95D1F7FE01FF
:103C4000B8E2B193BFE4B193BEE6B193BAE3B193E6
:103C5000B0E2B193B0E2B193B0E2B193B9E2B19303
:103C6000B0E2B193B0E2B193B8E2B193B0E5B193F1
:103C7000B7E5B193BDE4B193B9E2B193B0E0B193CC
:103C80008E012801B1E03B2EB1E02B2E0E94599C01
:103C9000FE01B0E5B193B2E7B193BAE3B193B1E3FA
:103CA000B193B0E2B193B2E3B193B0E2B193B3E3B5
:103CB000B193B0E2B193B4E3B193B0E2B193B5E3A1
:103CC000B193B0E2B193B6E3B193B0E2B193B0E295
:103CD000B193B0E0B1938E012801B1E03B2EB2E088
:103CE0002B2E0E94599C2F903F904F905F9025E083
:103CF0001FE002EF0A95F1F71A95E1F72A95D1F73F
:103D000000C05F924F923F922F9266245524B5E0F7
:103D10004B2EB2E32B2EB0E03B2E0E94AA7E2F90BA
:103D20003F904F905F90002329F0B0913901B0622D
:103D3000B09339015F924F923F922F92B1E06B2E78
:103D40005524B5E04B2EB0E32B2EB0E03B2E0E9465
:103D5000AA7E2F903F904F905F90009039011127DD
:103D600005FC1395012339F0341411F4352C03C0EC
:103D7000032D0F5F302EB0913901B062B09339013D
:103D80005F924F923F922F9266245524B4E04B2EBF
:103D9000B2E32B2EB0E03B2E0E94AA7E2F903F90E4
:103DA0004F905F90002329F0B0913901B062B09339
:103DB00039015F924F923F922F92B1E06B2E5524C2
:103DC000B4E04B2EB0E32B2EB0E03B2E0E94AA7E37
:103DD0002F903F904F905F9000903901112705FC84
:103DE0001395012339F0351411F4342C03C0032D3D
:103DF0000150302E309254015F924F923F922F9299
:103E000066245524B2E04B2EB0E32B2EB0E03B2EBF
:103E10000E94AA7E2F903F904F905F90003029F033
:103E2000B0910701B061B09307015F924F923F924A
:103E30002F92B1E06B2E5524B2E04B2EB0E32B2E27
:103E4000B0E03B2E0E94AA7E2F903F904F905F9053
:103E500000900701112704FC1395012309F4C4C045
:103E6000B0910701BF7EB0930701B0910701BE7FFB
:103E7000B093070100915301102F1F5F109353015E
:103E800000917507101719F4B1E0B09353015F92D8
:103E90004F923F922F920E94306F2F903F904F9001
:103EA0005F90B2E03B1609F051C0FE01BFE4B19350
:103EB000B6E6B193B6E6B193B0E2B193B4E7B1938D
:103EC000B9E6B193BDE6B193B5E6B193B0E2B19373
:103ED000B9E6B193B3E7B193B0E2B193B0E0B19377
:103EE0008E015F924F923F922F922801B1E03B2EBC
:103EF000B1E02B2E0E94599CFE01B3E7B193B5E6C9
:103F0000B193BCE6B193B5E6B193B3E6B193B4E730
:103F1000B193B5E6B193B4E6B193B0E0B1938E013D
:103F20002801B1E03B2EB2E02B2E0E94599C2F902D
:103F30003F904F905F9025E11BE40FEB0A95F1F75E
:103F40001A95E1F72A95D1F700004EC0FE01BFE4B3
:103F5000B193BEE6B193B0E2B193B4E7B193B9E6E1
:103F6000B193BDE6B193B5E6B193B0E2B193B9E6D2
:103F7000B193B3E7B193B0E2B193B0E0B1938E01E6
:103F80005F924F923F922F922801B1E03B2EB1E019
:103F90002B2E0E94599CFE01B3E7B193B5E6B19375
:103FA000BCE6B193B5E6B193B3E6B193B4E7B19390
:103FB000B5E6B193B4E6B193B0E0B1938E012801B8
:103FC000B1E03B2EB2E02B2E0E94599C2F903F90E7
:103FD0004F905F9025E11BE40FEB0A95F1F71A95DE
:103FE000E1F72A95D1F700005F924F923F922F920E
:103FF00066245524B6E04B2EB0E32B2EB0E03B2ECA
:104000000E94AA7E2F903F904F905F90003029F041
:10401000B0913901B062B09339011090070100905E
:1040200039014E7F10FC05FE01C041605F924F9246
:104030003F922F92B1E06B2E5524B6E04B2EB0E3A9
:104040002B2EB0E03B2E0E94AA7E2F903F904F90E7
:104050005F90112740FD1395012309F4C4C0B0916E
:104060000701BE7FB0930701B0913901BF7DB093C6
:1040700039015F924F923F922F920E94306F2F90A2
:104080003F904F905F9000915301102F1F5F10934E
:10409000530100917507101719F4B1E0B093530163
:1040A000B2E03B1609F051C0FE01BFE4B193B6E6A1
:1040B000B193B6E6B193B0E2B193B4E7B193B9E688
:1040C000B193BDE6B193B5E6B193B0E2B193B9E671
:1040D000B193B3E7B193B0E2B193B0E0B1938E0185
:1040E0005F924F923F922F922801B1E03B2EB1E0B8
:1040F0002B2E0E94599CFE01B3E7B193B5E6B19314
:10410000BCE6B193B5E6B193B3E6B193B4E7B1932E
:10411000B5E6B193B4E6B193B0E0B1938E01280156
:10412000B1E03B2EB2E02B2E0E94599C2F903F9085
:104130004F905F9025E11BE40FEB0A95F1F71A957C
:10414000E1F72A95D1F700004EC0FE01BFE4B1931C
:10415000BEE6B193B0E2B193B4E7B193B9E6B193DF
:10416000BDE6B193B5E6B193B0E2B193B9E6B193D0
:10417000B3E7B193B0E2B193B0E0B1938E015F9237
:104180004F923F922F922801B1E03B2EB1E02B2EAF
:104190000E94599CFE01B3E7B193B5E6B193BCE62A
:1041A000B193B5E6B193B3E6B193B4E7B193B5E695
:1041B000B193B4E6B193B0E0B1938E012801B1E0C0
:1041C0003B2EB2E02B2E0E94599C2F903F904F9097
:1041D0005F9025E11BE40FEB0A95F1F71A95E1F7E3
:1041E0002A95D1F70000309254010C9499136F90E6
:1041F0006096CDBFDEBFDF91CF910895CF93DF935F
:10420000CDB7DEB76197CDBFDEBF21966F92B0917B
:104210000701B160B0930701B0910701BF7EB09371
:104220000701B0910701B0FF4AC3B1E03B1609F0A6
:1042300071C0FE01BCE3B193B0E2B193B3E5B193B9
:10424000B1E6B193B6E7B193B5E6B193BFE2B193EE
:10425000BEE4B193BFE6B193B0E2B193B3E5B193DD
:10426000B1E6B193B6E7B193B5E6B193B0E2B193DD
:10427000BEE3B193B0E0B1938E015F924F923F9253
:104280002F922801B1E03B2EB1E02B2E0E94599CC9
:1042900021E11CE30CEC0A95F1F71A95E1F72A9558
:1042A000D1F7FE01BCE3B193B0E2B193B0E2B193B8
:1042B000B0E2B193B0E2B193B0E2B193BFE2B19397
:1042C000BEE4B193BFE6B193B0E2B193B3E5B1936D
:1042D000B1E6B193B6E7B193B5E6B193B0E2B1936D
:1042E000BEE3B193B0E0B1938E012801B1E03B2E63
:1042F000B1E02B2E0E94599C2F903F904F905F90E1
:1043000021E11CE30CEC0A95F1F71A95E1F72A95E7
:10431000D1F770C0FE01BCE3B193B0E2B193B3E555
:10432000B193B1E6B193B6E7B193B5E6B193BFE20D
:10433000B193BEE4B193BFE6B193B0E2B193B3E5FC
:10434000B193B1E6B193B6E7B193B5E6B193B0E2FC
:10435000B193BEE3B193B0E0B1938E015F924F92FF
:104360003F922F922801B1E03B2EB1E02B2E0E940C
:10437000599C21E11CE30CEC0A95F1F71A95E1F741
:104380002A95D1F7FE01BCE3B193B0E2B193B3E556
:10439000B193B1E6B193B6E7B193B5E6B193BFE29D
:1043A000B193B0E2B193B0E2B193B0E2B193B0E2B5
:1043B000B193B0E2B193B0E2B193B0E2B193B0E2A5
:1043C000B193BEE3B193B0E0B1938E012801B1E0A7
:1043D0003B2EB1E02B2E0E94599C2F903F904F9086
:1043E0005F9021E11CE30CEC0A95F1F71A95E1F7D7
:1043F0002A95D1F75F924F923F922F9266245524CF
:10440000B5E04B2EB2E32B2EB0E03B2E0E94AA7EED
:104410002F903F904F905F90002329F0B091390189
:10442000B062B09339015F924F923F922F92B1E008
:104430006B2E5524B5E04B2EB0E32B2EB0E03B2E77
:104440000E94AA7E2F903F904F905F90009039017C
:10445000112705FC1395012339F0341411F4352C80
:1044600003C0032D0F5F302EB0913901B062B093BD
:1044700039015F924F923F922F9266245524B4E007
:104480004B2EB2E32B2EB0E03B2E0E94AA7E2F9043
:104490003F904F905F90002329F0B0913901B062B6
:1044A000B09339015F924F923F922F92B1E06B2E01
:1044B0005524B4E04B2EB0E32B2EB0E03B2E0E94EF
:1044C000AA7E2F903F904F905F9000903901112766
:1044D00005FC1395012339F0351411F4342C03C075
:1044E000032D0150302E309254015F924F923F9233
:1044F0002F9266245524B2E04B2EB0E32B2EB0E071
:104500003B2E0E94AA7E2F903F904F905F900030EC
:1045100029F0B0910701B061B09307015F924F920B
:104520003F922F92B1E06B2E5524B2E04B2EB0E3B8
:104530002B2EB0E03B2E0E94AA7E2F903F904F90F2
:104540005F9000900701112704FC1395012309F4E3
:10455000BCC0B0910701BF7EB0930701B0910701C5
:10456000BE7FB093070100915301102F1F5F10937E
:10457000530100917507101719F4B1E0B09353017E
:104580005F924F923F922F920E94306F2F903F90F8
:104590004F905F90B1E03B1609F049C0FE01B3E5D2
:1045A000B193B1E6B193B6E7B193B5E6B193B0E29A
:1045B000B193B9E6B193B3E7B193B0E2B193B0E090
:1045C000B1938E015F924F923F922F922801B1E0FA
:1045D0003B2EB1E02B2E0E94599CFE01B3E7B19314
:1045E000B5E6B193BCE6B193B5E6B193B3E6B1934A
:1045F000B4E7B193B5E6B193B4E6B193B0E0B1934B
:104600008E012801B1E03B2EB2E02B2E0E94599C76
:104610002F903F904F905F9025E11BE40FEB0A95A0
:10462000F1F71A95E1F72A95D1F700004EC0FE0187
:10463000BEE4B193BFE6B193B0E2B193B3E5B193F9
:10464000B1E6B193B6E7B193B5E6B193B0E2B193F9
:10465000B9E6B193B3E7B193B0E2B193B0E0B193EF
:104660008E015F924F923F922F922801B1E03B2E34
:10467000B1E02B2E0E94599CFE01B3E7B193B5E641
:10468000B193BCE6B193B5E6B193B3E6B193B4E7A9
:10469000B193B5E6B193B4E6B193B0E0B1938E01B6
:1046A0002801B1E03B2EB2E02B2E0E94599C2F90A6
:1046B0003F904F905F9025E11BE40FEB0A95F1F7D7
:1046C0001A95E1F72A95D1F700005F924F923F9239
:1046D0002F9266245524B6E04B2EB0E32B2EB0E08B
:1046E0003B2E0E94AA7E2F903F904F905F9000300B
:1046F00029F0B0913901B062B093390110900701EF
:10470000009039014E7F10FC05FE01C041605F92B0
:104710004F923F922F92B1E06B2E5524B6E04B2E74
:10472000B0E32B2EB0E03B2E0E94AA7E2F903F904C
:104730004F905F90112740FD1395012309F4BCC0F1
:10474000B0910701BE7FB0930701B0913901BF7DE1
:10475000B09339015F924F923F922F920E94306F37
:104760002F903F904F905F9000915301102F1F5F4B
:104770001093530100917507101719F4B1E0B0932D
:104780005301B1E03B1609F049C0FE01B3E5B19316
:10479000B1E6B193B6E7B193B5E6B193B0E2B193A8
:1047A000B9E6B193B3E7B193B0E2B193B0E0B1939E
:1047B0008E015F924F923F922F922801B1E03B2EE3
:1047C000B1E02B2E0E94599CFE01B3E7B193B5E6F0
:1047D000B193BCE6B193B5E6B193B3E6B193B4E758
:1047E000B193B5E6B193B4E6B193B0E0B1938E0165
:1047F0002801B1E03B2EB2E02B2E0E94599C2F9055
:104800003F904F905F9025E11BE40FEB0A95F1F785
:104810001A95E1F72A95D1F700004EC0FE01BEE4DB
:10482000B193BFE6B193B0E2B193B3E5B193B1E612
:10483000B193B6E7B193B5E6B193B0E2B193B9E6FF
:10484000B193B3E7B193B0E2B193B0E0B1938E010D
:104850005F924F923F922F922801B1E03B2EB1E040
:104860002B2E0E94599CFE01B3E7B193B5E6B1939C
:10487000BCE6B193B5E6B193B3E6B193B4E7B193B7
:10488000B5E6B193B4E6B193B0E0B1938E012801DF
:10489000B1E03B2EB2E02B2E0E94599C2F903F900E
:1048A0004F905F9025E11BE40FEB0A95F1F71A9505
:1048B000E1F72A95D1F7000030925401B2CC6F9005
:1048C0006096CDBFDEBFDF91CF91089509E002155C
:1048D00080F44AE0022D0E94FB07000F000F000F3A
:1048E000000F102F4AE0022D0E94FB07092F012B19
:1048F00001C0022D102F012F0895CF93DF93CDB764
:10490000DEB76497CDBFDEBF2196B0910701B160DD
:10491000B0930701B0910701BF7EB09307016F927A
:104920005F924F923F922F920E94306F2F903F9054
:104930004F905F906F9010900701009007014E7F9D
:1049400010FC01FE01C0416040FFC0C76F925F9242
:104950004F923F922F92232CB4E03B2EB1E04B2E8E
:104960000E9407082F903F904F904F923F922F92B6
:10497000242CBAEB3B2EBDE04B2E0E9407088E0183
:10498000302E412E2090B60D0E9407082F903F90A8
:104990004F905F906F90B1E02B1609F0E8C08E0148
:1049A0006F925F924F923F922F922801B2E03B2E7E
:1049B000B1E02B2E0E94599CB3E4BB83B8E6BC83C4
:1049C000BAE3BD83B0E0BE838E010D5F1F4F2801A7
:1049D000B1E03B2EB1E02B2E0E94599CB4E04B2E4F
:1049E000B1E05B2EB7E03B2EB1E02B2E0E94599C2C
:1049F000BAEB4B2EBDE05B2EBAE03B2EB1E02B2E86
:104A00000E94599CBAE3BB83B0E0BC838E010D5F6A
:104A10001F4F2801BAE03B2EB1E02B2E0E94599C7B
:104A2000FE013396B0E5B193B2E7B193BAE3B19327
:104A3000B1E3B193B0E2B193B2E3B193B0E2B19319
:104A4000B3E3B193B0E2B193B4E3B193B0E2B19305
:104A5000B5E3B193B0E2B193B6E3B193B0E2B193F1
:104A6000B7E3B193B0E0B1938E010D5F1F4F280102
:104A7000B1E03B2EB2E02B2E0E94599C25E01FE0B6
:104A800002EF0A95F1F71A95E1F72A95D1F7B0E20E
:104A9000B0930401B0E2B0930501B0E0B093060119
:104AA000B0E2BB83B0E2BC83B0E2BD83B0E0BE83C2
:104AB0008E010D5F1F4F2801B7E03B2EB1E02B2E7A
:104AC0000E94599CBAEB4B2EBDE05B2EBAE03B2E08
:104AD000B1E02B2E0E94599CBAE3BB83B0E0BC83AB
:104AE0008E010D5F1F4F2801BAE03B2EB1E02B2E47
:104AF0000E94599CFE013396B4E4B193B9E7B19397
:104B0000BAE3B193B0E2B193B0E2B193B2E3B1933F
:104B1000B0E2B193B3E3B193B0E2B193B4E3B19334
:104B2000B0E2B193B5E3B193B0E2B193B6E3B19320
:104B3000B0E2B193B7E3B193B0E0B1938E010D5FF2
:104B40001F4F2801B1E03B2EB2E02B2E0E94599C52
:104B50002F903F904F905F906F9025E01FE002EF05
:104B60000A95F1F71A95E1F72A95D1F788C5B2E0D1
:104B70002B1609F0E8C08E016F925F924F923F9220
:104B80002F922801B2E03B2EB1E02B2E0E94599CBF
:104B9000B3E4BB83B8E6BC83BAE3BD83B0E0BE83B5
:104BA0008E010D5F1F4F2801B1E03B2EB1E02B2E8F
:104BB0000E94599CB4E04B2EB1E05B2EB7E03B2E37
:104BC000B1E02B2E0E94599CBAEB4B2EBDE05B2E20
:104BD000BAE03B2EB1E02B2E0E94599CBAE3BB8376
:104BE000B0E0BC838E010D5F1F4F2801BAE03B2E61
:104BF000B1E02B2E0E94599CFE013396B0E5B19393
:104C0000B2E7B193BAE3B193B1E3B193B0E2B19338
:104C1000B2E3B193B0E2B193B3E3B193B0E2B19335
:104C2000B4E3B193B0E2B193B5E3B193B0E2B19321
:104C3000B6E3B193B0E2B193B7E3B193B0E0B1930F
:104C40008E010D5F1F4F2801B1E03B2EB2E02B2EED
:104C50000E94599C25E01FE002EF0A95F1F71A9592
:104C6000E1F72A95D1F7B0E2B0930401B0E2B09336
:104C70000501B0E0B0930601B0E2BB83B0E2BC83B3
:104C8000B0E2BD83B0E0BE838E010D5F1F4F2801EF
:104C9000B7E03B2EB1E02B2E0E94599CBAEB4B2E75
:104CA000BDE05B2EBAE03B2EB1E02B2E0E94599C5A
:104CB000BAE3BB83B0E0BC838E010D5F1F4F2801B8
:104CC000BAE03B2EB1E02B2E0E94599CFE01339698
:104CD000B0E5B193B2E7B193BAE3B193B1E3B19365
:104CE000B0E2B193B0E2B193B0E2B193B3E3B19368
:104CF000B0E2B193B4E3B193B0E2B193B5E3B19351
:104D0000B0E2B193B6E3B193B0E2B193B7E3B1933C
:104D1000B0E0B1938E010D5F1F4F2801B1E03B2E33
:104D2000B2E02B2E0E94599C2F903F904F905F90A5
:104D30006F9025E01FE002EF0A95F1F71A95E1F771
:104D40002A95D1F79CC4B3E02B1609F0E8C08E0178
:104D50006F925F924F923F922F922801B2E03B2ECA
:104D6000B1E02B2E0E94599CB3E4BB83B8E6BC8310
:104D7000BAE3BD83B0E0BE838E010D5F1F4F2801F3
:104D8000B1E03B2EB1E02B2E0E94599CB4E04B2E9B
:104D9000B1E05B2EB7E03B2EB1E02B2E0E94599C78
:104DA000BAEB4B2EBDE05B2EBAE03B2EB1E02B2ED2
:104DB0000E94599CBAE3BB83B0E0BC838E010D5FB7
:104DC0001F4F2801BAE03B2EB1E02B2E0E94599CC8
:104DD000FE013396B0E5B193B2E7B193BAE3B19374
:104DE000B1E3B193B0E2B193B2E3B193B0E2B19366
:104DF000B3E3B193B0E2B193B4E3B193B0E2B19352
:104E0000B5E3B193B0E2B193B6E3B193B0E2B1933D
:104E1000B7E3B193B0E0B1938E010D5F1F4F28014E
:104E2000B1E03B2EB2E02B2E0E94599C25E01FE002
:104E300002EF0A95F1F71A95E1F72A95D1F7B0E25A
:104E4000B0930401B0E2B0930501B0E0B093060165
:104E5000B0E2BB83B0E2BC83B0E2BD83B0E0BE830E
:104E60008E010D5F1F4F2801B7E03B2EB1E02B2EC6
:104E70000E94599CBAEB4B2EBDE05B2EBAE03B2E54
:104E8000B1E02B2E0E94599CBAE3BB83B0E0BC83F7
:104E90008E010D5F1F4F2801BAE03B2EB1E02B2E93
:104EA0000E94599CFE013396B0E5B193B2E7B193ED
:104EB000BAE3B193B1E3B193B0E2B193B2E3B1938A
:104EC000B0E2B193B0E2B193B0E2B193B4E3B19385
:104ED000B0E2B193B5E3B193B0E2B193B6E3B1936D
:104EE000B0E2B193B7E3B193B0E0B1938E010D5F3F
:104EF0001F4F2801B1E03B2EB2E02B2E0E94599C9F
:104F00002F903F904F905F906F9025E01FE002EF51
:104F10000A95F1F71A95E1F72A95D1F7B0C3B4E0F5
:104F20002B1609F0E8C08E016F925F924F923F926C
:104F30002F922801B4E03B2EB1E02B2E0E94599C09
:104F4000B3E4BB83B8E6BC83BAE3BD83B0E0BE8301
:104F50008E010D5F1F4F2801B1E03B2EB1E02B2EDB
:104F60000E94599CB4E04B2EB1E05B2EB7E03B2E83
:104F7000B1E02B2E0E94599CBAEB4B2EBDE05B2E6C
:104F8000BAE03B2EB1E02B2E0E94599CBAE3BB83C2
:104F9000B0E0BC838E010D5F1F4F2801BAE03B2EAD
:104FA000B1E02B2E0E94599CFE013396B0E5B193DF
:104FB000B2E7B193BAE3B193B1E3B193B0E2B19385
:104FC000B2E3B193B0E2B193B3E3B193B0E2B19382
:104FD000B4E3B193B0E2B193B5E3B193B0E2B1936E
:104FE000B6E3B193B0E2B193B7E3B193B0E0B1935C
:104FF0008E010D5F1F4F2801B1E03B2EB2E02B2E3A
:105000000E94599C25E01FE002EF0A95F1F71A95DE
:10501000E1F72A95D1F7B0E2B0930401B0E2B09382
:105020000501B0E0B0930601B0E2BB83B0E2BC83FF
:10503000B0E2BD83B0E0BE838E010D5F1F4F28013B
:10504000B7E03B2EB1E02B2E0E94599CBAEB4B2EC1
:10505000BDE05B2EBAE03B2EB1E02B2E0E94599CA6
:10506000BAE3BB83B0E0BC838E010D5F1F4F280104
:10507000BAE03B2EB1E02B2E0E94599CFE013396E4
:10508000B0E5B193B2E7B193BAE3B193B1E3B193B1
:10509000B0E2B193B2E3B193B0E2B193B3E3B193B1
:1050A000B0E2B193B0E2B193B0E2B193B5E3B193A2
:1050B000B0E2B193B6E3B193B0E2B193B7E3B19389
:1050C000B0E0B1938E010D5F1F4F2801B1E03B2E80
:1050D000B2E02B2E0E94599C2F903F904F905F90F2
:1050E0006F9025E01FE002EF0A95F1F71A95E1F7BE
:1050F0002A95D1F7C4C2B5E02B1609F0E8C08E019D
:105100006F925F924F923F922F922801B2E03B2E16
:10511000B1E02B2E0E94599CB3E4BB83B8E6BC835C
:10512000BAE3BD83B0E0BE838E010D5F1F4F28013F
:10513000B1E03B2EB1E02B2E0E94599CB4E04B2EE7
:10514000B1E05B2EB7E03B2EB1E02B2E0E94599CC4
:10515000BAEB4B2EBDE05B2EBAE03B2EB1E02B2E1E
:105160000E94599CBAE3BB83B0E0BC838E010D5F03
:105170001F4F2801BAE03B2EB1E02B2E0E94599C14
:10518000FE013396B0E5B193B2E7B193BAE3B193C0
:10519000B1E3B193B0E2B193B2E3B193B0E2B193B2
:1051A000B3E3B193B0E2B193B4E3B193B0E2B1939E
:1051B000B5E3B193B0E2B193B6E3B193B0E2B1938A
:1051C000B7E3B193B0E0B1938E010D5F1F4F28019B
:1051D000B1E03B2EB2E02B2E0E94599C25E01FE04F
:1051E00002EF0A95F1F71A95E1F72A95D1F7B0E2A7
:1051F000B0930401B0E2B0930501B0E0B0930601B2
:10520000B0E2BB83B0E2BC83B0E2BD83B0E0BE835A
:105210008E010D5F1F4F2801B7E03B2EB1E02B2E12
:105220000E94599CBAEB4B2EBDE05B2EBAE03B2EA0
:10523000B1E02B2E0E94599CBAE3BB83B0E0BC8343
:105240008E010D5F1F4F2801BAE03B2EB1E02B2EDF
:105250000E94599CFE013396B0E5B193B2E7B19339
:10526000BAE3B193B1E3B193B0E2B193B2E3B193D6
:10527000B0E2B193B3E3B193B0E2B193B4E3B193CD
:10528000B0E2B193B0E2B193B0E2B193B6E3B193BF
:10529000B0E2B193B7E3B193B0E0B1938E010D5F8B
:1052A0001F4F2801B1E03B2EB2E02B2E0E94599CEB
:1052B0002F903F904F905F906F9025E01FE002EF9E
:1052C0000A95F1F71A95E1F72A95D1F7D8C1B6E01A
:1052D0002B1609F0E8C08E016F925F924F923F92B9
:1052E0002F922801B2E03B2EB1E02B2E0E94599C58
:1052F000B3E4BB83B8E6BC83BAE3BD83B0E0BE834E
:105300008E010D5F1F4F2801B1E03B2EB1E02B2E27
:105310000E94599CB4E04B2EB1E05B2EB7E03B2ECF
:10532000B1E02B2E0E94599CBAEB4B2EBDE05B2EB8
:10533000BAE03B2EB1E02B2E0E94599CBAE3BB830E
:10534000B0E0BC838E010D5F1F4F2801BAE03B2EF9
:10535000B1E02B2E0E94599CFE013396B0E5B1932B
:10536000B2E7B193BAE3B193B1E3B193B0E2B193D1
:10537000B2E3B193B0E2B193B3E3B193B0E2B193CE
:10538000B4E3B193B0E2B193B5E3B193B0E2B193BA
:10539000B6E3B193B0E2B193B7E3B193B0E0B193A8
:1053A0008E010D5F1F4F2801B1E03B2EB2E02B2E86
:1053B0000E94599C25E01FE002EF0A95F1F71A952B
:1053C000E1F72A95D1F7B0E2B0930401B0E2B093CF
:1053D0000501B0E0B0930601B0E2BB83B0E2BC834C
:1053E000B0E2BD83B0E0BE838E010D5F1F4F280188
:1053F000B7E03B2EB1E02B2E0E94599CBAEB4B2E0E
:10540000BDE05B2EBAE03B2EB1E02B2E0E94599CF2
:10541000BAE3BB83B0E0BC838E010D5F1F4F280150
:10542000BAE03B2EB1E02B2E0E94599CFE01339630
:10543000B0E5B193B2E7B193BAE3B193B1E3B193FD
:10544000B0E2B193B2E3B193B0E2B193B3E3B193FD
:10545000B0E2B193B4E3B193B0E2B193B5E3B193E9
:10546000B0E2B193B0E2B193B0E2B193B7E3B193DC
:10547000B0E0B1938E010D5F1F4F2801B1E03B2ECC
:10548000B2E02B2E0E94599C2F903F904F905F903E
:105490006F9025E01FE002EF0A95F1F71A95E1F70A
:1054A0002A95D1F7ECC0B7E02B1609F0E8C08E01C1
:1054B0006F925F924F923F922F922801B2E03B2E63
:1054C000B1E02B2E0E94599CB3E4BB83B8E6BC83A9
:1054D000BAE3BD83B0E0BE838E010D5F1F4F28018C
:1054E000B1E03B2EB1E02B2E0E94599CB4E04B2E34
:1054F000B1E05B2EB7E03B2EB1E02B2E0E94599C11
:10550000BAEB4B2EBDE05B2EBAE03B2EB1E02B2E6A
:105510000E94599CBAE3BB83B0E0BC838E010D5F4F
:105520001F4F2801BAE03B2EB1E02B2E0E94599C60
:10553000FE013396B0E5B193B2E7B193BAE3B1930C
:10554000B1E3B193B0E2B193B2E3B193B0E2B193FE
:10555000B3E3B193B0E2B193B4E3B193B0E2B193EA
:10556000B5E3B193B0E2B193B6E3B193B0E2B193D6
:10557000B7E3B193B0E0B1938E010D5F1F4F2801E7
:10558000B1E03B2EB2E02B2E0E94599C25E01FE09B
:1055900002EF0A95F1F71A95E1F72A95D1F7B0E2F3
:1055A000B0930401B0E2B0930501B0E0B0930601FE
:1055B000B0E2BB83B0E2BC83B0E2BD83B0E0BE83A7
:1055C0008E010D5F1F4F2801B7E03B2EB1E02B2E5F
:1055D0000E94599CBAEB4B2EBDE05B2EBAE03B2EED
:1055E000B1E02B2E0E94599CBAE3BB83B0E0BC8390
:1055F0008E010D5F1F4F2801BAE03B2EB1E02B2E2C
:105600000E94599CFE013396B0E5B193B2E7B19385
:10561000BAE3B193B1E3B193B0E2B193B2E3B19322
:10562000B0E2B193B3E3B193B0E2B193B4E3B19319
:10563000B0E2B193B5E3B193B0E2B193B6E3B19305
:10564000B0E2B193B0E2B193B0E0B1938E010D5FDF
:105650001F4F2801B1E03B2EB2E02B2E0E94599C37
:105660002F903F904F905F906F9025E01FE002EFEA
:105670000A95F1F71A95E1F72A95D1F700C06F92D4
:105680005F924F923F922F9266245524B5E04B2EA5
:10569000B2E32B2EB0E03B2E0E94AA7E2F903F90CB
:1056A0004F905F906F90002329F0B0913901B06264
:1056B000B09339016F925F924F923F922F92B1E077
:1056C0006B2E5524B5E04B2EB0E32B2EB0E03B2ED5
:1056D0000E94AA7E2F903F904F905F906F90009015
:1056E0003901112705FC1395012339F0351410F009
:1056F000362C03C0032D0F5F302EB0913901B062FC
:10570000B09339016F925F924F923F922F9266242D
:105710005524B4E04B2EB2E32B2EB0E03B2E0E947A
:10572000AA7E2F903F904F905F906F90002329F0BA
:10573000B0913901B062B09339016F925F924F928C
:105740003F922F92B1E06B2E5524B4E04B2EB0E384
:105750002B2EB0E03B2E0E94AA7E2F903F904F90C0
:105760005F906F9000903901112705FC139501237C
:1057700039F0631410F0352C03C0032D0150302E86
:10578000309254016F925F924F923F922F92662413
:105790005524B2E04B2EB0E32B2EB0E03B2E0E94FE
:1057A000AA7E2F903F904F905F906F90003029F02D
:1057B000B0910701B061B09307016F925F924F9271
:1057C0003F922F92B1E06B2E5524B2E04B2EB0E306
:1057D0002B2EB0E03B2E0E94AA7E2F903F904F9040
:1057E0005F906F9000900701112704FC139501232F
:1057F000B1F0B0910701BF7EB0930701B0910701EE
:10580000BE7FB09307016F925F924F923F922F92AB
:105810000E94306F2F903F904F905F906F906F92EB
:105820005F924F923F922F9266245524B6E04B2E02
:10583000B0E32B2EB0E03B2E0E94AA7E2F903F902B
:105840004F905F906F90003029F0B0913901B062B5
:10585000B093390110900701009039014E7F10FC80
:1058600005FE01C041606F925F924F923F922F926E
:10587000B1E06B2E5524B6E04B2EB0E32B2EB0E0FA
:105880003B2E0E94AA7E2F903F904F905F906F908A
:10589000112740FD13950123B1F0B0910701BE7FA0
:1058A000B0930701B0913901BF7DB09339016F9278
:1058B0005F924F923F922F920E94306F2F903F90B5
:1058C0004F905F906F903092540135C86396CDBF72
:1058D000DEBFDF91CF91089516E00BE20A95F1F754
:1058E0001A95E1F7000000000895CF93DF93CDB73C
:1058F000DEB72B97CDBFDEBF21962F923F924F92FE
:10590000B0E0B0937807B0937907B1E0BA83B1E023
:10591000B093B50DB1E0B093B60DB1E0B883B0E08F
:10592000B98300917807109179070F5F1F4F09879E
:105930001A870A81015010E040EE50E00E94D20721
:1059400025E937E0020F131F4091B60D41500F8338
:10595000188708E310E050E00E94D2072F813885B5
:10596000200F311F0091B50D015010E0000F111FE5
:10597000000F111F000F111F200F311F0881015050
:1059800010E0000F111F000F111FF801E20FF31FAD
:10599000208109851A85422E18010E94170900915D
:1059A0007807109179070F5F1F4F0F5F1F4F09870F
:1059B0001A870A81015010E040EE50E00E94D207A1
:1059C00025E937E0020F131F4091B60D41500F83B8
:1059D000188708E310E050E00E94D2072F81388535
:1059E000200F311F0091B50D015010E0000F111F65
:1059F000000F111F000F111F200F311F08810150D0
:105A000010E0000F111F000F111F020F131FF801EC
:105A10003196208109851A85422E18010E941709A6
:105A200000917807109179070F5F1F4F0E5F1F4F8E
:105A300009871A870A81015010E040EE50E00E9469
:105A4000D20725E937E0020F131F4091B60D4150F0
:105A50000F83188708E310E050E00E94D2072F81DF
:105A60003885200F311F0091B50D015010E0000F57
:105A7000111F000F111F000F111F200F311F088170
:105A8000015010E0000F111F000F111F020F131F14
:105A9000F8013296208109851A85422E18010E944C
:105AA000170900917807109179070F5F1F4F0D5F5D
:105AB0001F4F09871A870A81015010E040EE50E01D
:105AC0000E94D20725E937E0020F131F4091B60D5F
:105AD00041500F83188708E310E050E00E94D2077E
