:100000000C94F7270C94DF260C9400000C946A26BD
:100010000C94002A0C9400000C9400000C94000036
:100020000C9400000C9400000C9400000C94E42943
:100030000C9400000C9400000C9400000C94000040
:100040000C9400000C9400000C9400000C94000030
:100050000C940000F6D021F0662309F0ABD0989400
:100060000895F8DF09F441C0E62ED52EC42EB32E34
:10007000A22E912E802E002D112D222D332DEADF60
:1000800009F43DC0842F952F8C199D09B9F072F4A5
:100090009095809501964C2D5D2D883180F5359594
:1000A0002795179507950197D1F708C08831E8F48F
:1000B000B594A794979487940197D1F766272EF06B
:1000C000080D191D2A1D3B1D09C0801A910AA20A9C
:1000D000B30A082D192D2A2D3B2D332312F46AD093
:1000E00060E827D001C018D016C0002D112D222D98
:1000F000332DD6F74CD0C1F340E83427F5CF082D87
:10010000192D2A2D3B2D4C2D5D2D6E2D33235AF7A5
:1001100051D060E8E8CF08953AD039F041585F4FA8
:10012000342F220F36952795362B0895689499DF42
:1001300008952DD011F19F938F938EE790E0332394
:1001400051F0369527951795079548175907B4F438
:100150004F5F5F4FF4CF80959095019622239AF0E0
:10016000000F111F221F481759071CF04150504023
:10017000F5CF002711272227332708C033270FEF99
:10018000102F2FE7322F8F919F91C6DF0895002304
:1001900029F4112319F4222309F433230895C6DF27
:1001A000332332F0F4DF11F001E003C0002701C077
:1001B0000FEF089500951095209530950F5F1F4F14
:1001C0002F4F3F4F08953DD081F1E62ED52EC42EFE
:1001D000B32EA22E912E802E002D112D222D332DE7
:1001E00030D019F16E254C0D5D1D40385307F4F4E5
:1001F00041387FEF5707FCF088279927AA27BB27AC
:1002000070E2B695A7959795879537952795179599
:10021000079520F4880D991DAA1DBB1D7A9589F7B5
:10022000032F3A2F292F182F84DF0AC00FEF102F2A
:100230002FE73FE7FACF0027102F202F302FF5CFE1
:100240000895A5DF79F0632F6078220F331F432FC5
:100250005FE7451B55275040269530E8232B332771
:10026000989403C04427552766270895042E152E19
:10027000262E372E94DF00230895E894F2DE0895A9
:1002800047E16627552726F0332312F493DF60E811
:1002900050DF0895EBDF1CF40024039401C0002418
:1002A0000895E894EDDF08959801249F8001259F2B
:1002B000100D349F100D0895042E152E262E372E66
:1002C00082DF002E112E222E332E0895C801BA018E
:1002D00097FB092E07260AD077FD04D00CD006D054
:1002E00000201AF4709561957F4F0895F6F7909568
:1002F00081959F4F0895AA1BBB1B51E107C0AA1F00
:10030000BB1FA617B70710F0A61BB70B881F991FB6
:100310005A95A9F780959095BC01CD01089508954F
:10032000042E152E262E372E01DF002E112E222E02
:10033000332E089586DFF1F05523C2F04F31A8F433
:100340004731C1F050F44195495E05C03595279578
:10035000179507954A95D1F70DC04751000F111F0A
:10036000221F331F4A95D1F705C03FE7232F132FD4
:10037000032F03C0662309F01DDF0895042E152EF8
:10038000262E372E7ADF002E112E222E332E0895A0
:100390003F932F931F930F93002D112D222D332D5B
:1003A00050DF09F44BC0E62ED52EC42EB32EA22E5C
:1003B000912E802E0F911F912F913F9142DF61F17D
:1003C0006E254C195D09403853073CF541387FEFE5
:1003D00057077CF180E27724632E522E412E302F76
:1003E000222711270027000F111F221F331F441C33
:1003F000551C661C771C28F0481859086A087B08A9
:1004000004C0480C591C6A1C7B1C0AF001608A95C8
:1004100051F7415050408DDE16C00FEF102F2FE7DF
:100420003FE76623C9F3B3DEB9F3342D30E8342552
:10043000F3CF0027102F202F302FEECF0F900F90EB
:100440000F900F90EACF0895002E112E222E332EFA
:10045000042F152F262F372FA2DE00231CF0002497
:10046000039401C000240895CF93DF93CDB7DEB786
:100470002397CDBFDEBF2196B0E85B1641F4B0E014
:100480004B1629F4B0E03B1611F4B0E02B16D1F472
:10049000F301BDE2B193B2E3B193B1E3B193B4E33D
:1004A000B193B7E3B193B4E3B193B8E3B193B3E3DA
:1004B000B193B6E3B193B4E3B193B8E3B193B0E0D1
:1004C000B1937BC0B0E0BA8300E010E020E030E000
:1004D000201631064206530664F4BFEFBA8300E0EB
:1004E00010E020E030E00219130924093509180151
:1004F0002901F301B0E2B193B0E2B193B0E2B1935C
:10050000B0E2B193B0E2B193B0E2B193B0E2B19393
:10051000B0E2B193B0E2B193B0E2B193B0E3B19382
:10052000B0E0B1938301065F1F4F08831983B0E0E9
:100530005B1641F4B0E04B1629F4B0E03B1611F421
:10054000B0E02B1699F17F926F925F924F923F929B
:100550002F924AE050E060E070E08101920143D2C6
:100560008B019C012F903F904F905F90005DE88140
:10057000F98100835F924F923F922F924AE050E0C0
:1005800060E070E0810192012ED289019A012F90E2
:100590003F904F905F906F907F90180129010881E4
:1005A00019810150104008831983C1CF0A810023AB
:1005B00021F0E881F981BDE2B0832296CDBFDEBF94
:1005C000DF91CF910895B1E14B1619F43BBC2ABCE1
:1005D00006C0B2E14B1619F439BC28BC00C008951E
:1005E000CF93DF93CDB7DEB72497CDBFDEBF219683
:1005F000152D110FB7E0042D0695BA95E9F7010FF7
:100600000F57202F30E007FD3FEF00E010E02017EC
:100610003107DCF440E050E060E070E081019201DD
:1006200013DF002800E009F00FEF002331F0B0E005
:10063000B883B983BA83BB8307C0B0E0B883B983FA
:10064000B0E8BA83BFE3BB832AC008E1021728F4ED
:10065000288239824A825B8222C0810192016ADE4D
:1006600020DE088319832A833B83A101B20108811C
:1006700019812A813B810EDE002800E009F00FEF8E
:10068000002369F0088119812A813B8140E050E014
:1006900060E87FE373DE088319832A833B83088144
:1006A00019812A813B812396CDBFDEBFDF91CF9197
:1006B0000895B0913400BD7FB0933400D5D1D4D12A
:1006C000B0913400BE7FB0933400CED1CDD1B09183
:1006D0003400B260B0933400C7D1C6D1B0913400B9
:1006E000B160B09334000895992779E004C0991F50
:1006F000941708F0941B001F7A95C9F70095089588
:10070000CF93DF93CDB7DEB7A197CDBFDEBF2196E4
:10071000B0E0BE8F810192010DDE088319832A8328
:100720003B835F924F923F922F9240E050E060E017
:1007300070E081019201AEDD002800E009F00FEFCA
:100740002F903F904F905F90002311F0BFEFBE8F2E
:100750008E010A5F1F4F7F926F925F924F923F927E
:100760002F923801288039804A805B807DDE2F906F
:100770003F904F905F906F907F90088119812A8100
:100780003B818FDD5F924F923F922F92A801B9017A
:1007900081019201C5DD40E050E563EC77E48CDD3A
:1007A0002F903F904F905F90C5DD088319832A8377
:1007B0003B8340E050E060E070E004171507260737
:1007C000370784F40880198000E010E0001911094F
:1007D0000A801B8020E030E020093109088319835A
:1007E0002A833B838E010E5E1F4F7F926F925F9232
:1007F0004F923F922F923801288039804A805B8047
:1008000033DE2F903F904F905F906F907F9040E04D
:1008100050E0B0E0BC83BD83F301B0E2B193B0E23D
:10082000B193B0E2B193B0E2B193B0E2B193B0E270
:10083000B193B0E2B193B0E2B193B0E2B193B0E260
:10084000B193B0E3B193B0E0B1935F934F93810163
:10085000920170DD303029F4203019F4103009F4A1
:100860000030B0E009F4BFEF0B2F08A340E050E0E8
:1008700060E070E0810192010DDD002800E009F0E8
:100880000FEF4F915F9118A10123002341F0F30175
:10089000BDE2B08311E020E0412F522F00C02E8135
:1008A000203281F40C811D8198012F5F3F4F2C83F2
:1008B0003D838E010A5F1F4FF901E00FF11F008198
:1008C000202FEECF022F0030D1F0FA01E60DF71DF8
:1008D00000830C811D8198012F5F3F4F2C833D8346
:1008E0008A010F5F1F4FB8018E010A5F1F4FF90188
:1008F000E00FF11F0081202F022FAB01E4CF0E8DFE
:10090000003010E009F41FEF503009F4403000E0EF
:1009100009F40FEF012351F0FA01E60DF71DB0E3E2
:10092000B0838A010F5F1F4F980101C09A013030D8
:1009300009F4213010E009F41FEF0E8D012359F066
:10094000F901E60DF71DB0E3B08389010F5F1F4F7A
:10095000A8019A0100C0F901E60DF71DBEE2B083BF
:1009600089010F5F1F4FA801B6E0BC83B0E0BD83D3
:10097000288D2030F9F0203219F420E3022F01C035
:10098000022FFA01E60DF71D00830C811D819801ED
:100990002F5F3F4F2C833D838A010F5F1F4FB801AC
:1009A0008E010E5E1F4FF901E00FF11F0081AB01B8
:1009B000202FDFCFFA01E60DF71DB0E0B083A0963F
:1009C000CDBFDEBFDF91CF9108951AE303E20A9510
:1009D000F1F71A95E1F700000000089505E80A957F
:1009E000F1F700000895C9019A01AB01B80197FB26
:1009F000092E05260ED057FD04D014D00AD0001CB5
:100A000038F450954095309521953F4F4F4F5F4FAB
:100A10000895F6F790958095709561957F4F8F4F6B
:100A20009F4F0895A1E21A2EAA1BBB1BFD010DC00A
:100A3000AA1FBB1FEE1FFF1FA217B307E407F5078E
:100A400020F0A21BB30BE40BF50B661F771F881F6A
:100A5000991F1A9469F760957095809590959B0100
:100A6000AC01BD01CF01089502E00A95F1F7000045
:100A700000000895C801BA01AA1BBB1B51E107C0C1
:100A8000AA1FBB1FA617B70710F0A61BB70B881F1E
:100A9000991F5A95A9F7809590950895049FD001C4
:100AA000159FF001249FE00DF11D069FE00DF11D43
:100AB000349FF00D259FF00D169FF00D079FF00D50
:100AC0003327149FB00DE11DF31F059FB00DE11DED
:100AD000F31F8D019F010895CF93DF93CDB7DEB74C
:100AE0002397CDBFDEBF2196B0E0B883B0E8B983CD
:100AF000B0E0BA8309811A81103009F4003009F49A
:100B000033C0B2DFB1DFB0913400BD7FB0933400A9
:100B1000ABDFAADFB0913400BE7FB0933400B09158
:100B20007A00BF7EB0937A00B0913300B0FD06C06A
:100B3000B0917A00B4FF01C001C0F6CFB09133008C
:100B4000B1FF04C018810981012B08838DDF8CDF80
:100B5000B0913400B160B093340009811A811695C8
:100B6000079509831A83C6CFB0913400BD7FB09337
:100B700034007ADF79DFB0E03B1611F4B0E02B16D9
:100B800029F0B0913400B260B09334006DDF6CDFB7
:100B9000B0913400BE7FB0933400B0917A00BF7E34
:100BA000B0937A00B0913300B0FD06C0B0917A00E6
:100BB000B4FF01C001C0F6CF57DF56DFB09134005B
:100BC000B160B093340050DF4FDFB0913400B260B9
:100BD000B093340008812296CDBFDEBFDF91CF9164
:100BE0000895B0E0B9BD28BC08952F92B1E02B164E
:100BF00019F4B0E82B2E14C0B2E02B1619F4B0ECA7
:100C00002B2E0EC0B3E02B1619F4B4E92B2E08C01E
:100C1000B4E02B1619F4B4ED2B2E02C0B0E82B2E45
:100C2000032D0150020D202EB0917A00B260B093D6
:100C30007A00202E0E946F12B0917A00BD7FB0938F
:100C40007A00242C0E946F12B0917A00B260B093A7
:100C50007A002F900895B0913400B260B0933400C0
:100C600003DF02DFB0913400BE7FB0933400B09157
:100C70007A00BF7EB0937A00B0913300B0FD06C019
:100C8000B0917A00B4FF01C001C0F6CFEDDEECDE1A
:100C9000EBDEEADEE9DEE8DEE7DEE6DEB091340038
:100CA000BD7FB0933400E0DEDFDE0895CF93DF93A5
:100CB000CDB7DEB72397CDBFDEBF2196B1E0B883B5
:100CC000B0E8B983B0E0BA8309811A81103009F421
:100CD000003009F43BC0C8DEC7DEC6DEC5DEB09119
:100CE0003400B160B0933400BFDEBEDE09811A81EA
:100CF00002211070103009F4003031F0B09134004E
:100D0000BD7FB093340005C0B0913400B260B093A1
:100D10003400AADEA9DEB0913400BE7FB093340067
:100D2000B0917A00BF7EB0937A00B0913300B0FDED
:100D300006C0B0917A00B4FF01C001C0F6CF0981AE
:100D40001A811695079509831A83BECFB0E0B88340
:100D50008BDE8ADEB0913400B160B093340084DE63
:100D600083DEB0913400BD7FB09334007DDE7CDE45
:100D70007BDE7ADEB0913400BE7FB0933400B09158
:100D80007A00BF7EB0937A00B0913300B0FD06C008
:100D9000B0917A00B4FF01C001C0F6CFB0E0B883D3
:100DA00063DE62DEB0913300B1FF03C008810160F1
:100DB00008835ADE59DE58DE57DE56DE55DE54DE35
:100DC00053DE52DE51DE50DE4FDE4EDE4DDE4CDEB7
:100DD0004BDEB0913400B160B0933400B091340078
:100DE000B260B093340008812296CDBFDEBFDF91A0
:100DF000CF910895002400FD040E440F11F00695D4
:100E0000D1F7002D0895042E152E262E372EC0DA88
:100E1000002E112E222E332E0895B0E0BBBD2ABC29
:100E20000895BB27AA279927882700FF04C0840FAD
:100E3000951FA61FB71F440F551F661F771F3695B6
:100E400027951795079589F730502040100769F7C7
:100E50009D018C01089523BC0895CF93DF93CDB7F6
:100E6000DEB76497CDBFDEBF2196BEE1B887BFE194
:100E7000B987BEE1BA87BFE1BB87BFE1BC87BEE1EE
:100E8000BD87BFE1BE87BEE1BF87BFE1B88BBFE1D1
:100E9000B98BBCE1BA8BBFE1BB8B830103591D4FFA
:100EA0000A831B83088319835F924F923F922F928C
:100EB00044E050E00BDA8C010093690010936A0063
:100EC00044E650E00881198101DA8C0100931F018A
:100ED0001093200140E951E008811981F7D98C0174
:100EE0002F903F904F905F9000932101109322012B
:100EF00050911F0160912001603009F4503040E0B2
:100F000009F04FEF2091690030916A00303009F408
:100F10002030B0E009F4BFEF2B2F242320931D01D4
:100F2000B0E0B0931E01603009F4503020E009F4C5
:100F30002FEF103009F40030B0E009F4BFEF0B2FB1
:100F40000223202F30E000911D0110911E01022B81
:100F5000132BB02FB12B29F0BCE0BC83B0E0BD83D4
:100F600004C0BBE0BC83B0E0BD830A811B81302F8D
:100F7000412F3F5F4F4F403009F4303010E009F00F
:100F80001FEF403009F4303000E009F40FEF212F5B
:100F9000202310E003231423103009F40030B0E0C4
:100FA00009F4BFEF0B2F022B19F00A890F5F0A8B90
:100FB00001E010E02016310620E00CF02FEF06E0F3
:100FC00010E002151305B0E00CF0BFEF0B2F022369
:100FD00051F08101015010404FE150E065D9040DFE
:100FE000151D98010BC08101075010404EE150E0E3
:100FF0005BD906541F4F040D151D98010C811D81EE
:1010000002171307CCF00C801D800FE110E00019CF
:101010001109020F131F0093290110932A01B3E055
:10102000B0932501B0E0B09326010A811B810093A3
:1010300027011093280107C00C801D808901001929
:1010400011090E831F8340E050E08E01085F1F4F9F
:10105000FA01E00FF11F00812E813F8110E002179D
:101060001307B4F48E01085F1F4FFA01E00FF11F60
:101070000081002EB0E01B2E0E811F810019110986
:101080000E831F838A010F5F1F4FB801AB01DDCFB5
:101090000E811F810093290110932A0108E010E0BE
:1010A0000417150784F48A010850104000932501A5
:1010B000109326010A811B810F5F1F4F00932701A8
:1010C000109328010DC08A010C5F1F4F009325016A
:1010D000109326010A811B81009327011093280198
:1010E0006396CDBFDEBFDF91CF9108952CBE0895EA
:1010F00000912F010077102F1695169516951695CD
:101100000AE0109F102D00912F010F70010F009326
:101110002F0100913001007F102F1695169516951E
:1011200016950AE0109F102D009130010F70010FED
:1011300000933001009133010073102F169516951E
:10114000169516950AE0109F102D009133010F702F
:10115000010F0093330100913201077000933201B7
:1011600000912E01007F102F169516951695169555
:101170000AE0109F102D00912E010F70010F0093B7
:101180002E0100913C010071102F169516951695B1
:1011900016950AE0109F102D00913C010F70010F71
:1011A00000933C0100913B01007F102F169516958E
:1011B000169516950AE0109F102D00913B010F70B7
:1011C000010F00933B010895BFE1B0936E00BCE1B5
:1011D000B0936F00BFE1B0937000BEE1B0937100B7
:1011E000BFE1B0937200BEE1B0937300BFE1B09372
:1011F0007400BFE1B0937500BEE1B0937600BFE12B
:10120000B0937700BEE1B0937800BFE1B09379006E
:10121000BDE6B0936B00B1E0B0936C00B0E0B0936A
:101220006700B093680044E050E00091F80010912E
:10123000F9004CD88C010093690010936A0044E6D1
:1012400050E00091F8001091F90040D88C01009313
:101250001F011093200140E951E00091F800109126
:10126000F90034D88C0100932101109322014091A0
:10127000690050916A0020911F01309120012423C0
:10128000352320931D0130931E01303009F42030A6
:10129000B0E009F0BFEF2B2F103009F40030B0E0C0
:1012A00009F4BFEF0B2F022B21F0BCE1B0936F00CC
:1012B00003C0BDE1B0936F000091F8001091F900F8
:1012C0000150104000931B0110931C0144E050E0BA
:1012D0000E9466018C010093690010936A0044E645
:1012E00050E000911B0110911C010E9466018C01CD
:1012F00000931F011093200140E951E000911B0170
:1013000010911C010E9466018C0100932101109331
:1013100022014091690050916A0020911F01309193
:1013200020012423352320931D0130931E013030EA
:1013300009F42030B0E009F0BFEF2B2F103009F492
:101340000030B0E009F4BFEF0B2F022B31F0B09169
:101350007A00BF7DB0937A0005C0B0917A00B06288
:10136000B0937A00009123011091240101501040A4
:101370000093690010936A00B1E0B0932B012091B3
:101380002B010091690010916A000217B0E01B0761
:101390002CF120912B0121500EE610E0E22FF0E01D
:1013A000E00FF11F20810091670010916800020F8B
:1013B000B0E01B1F009367001093680000912B01A1
:1013C0002091690030916A0010E00217130731F094
:1013D00000912B010F5F00932B01D1CF20912C01A5
:1013E00030912D010091670010916800200F311F8E
:1013F00020936700309368000FE410E00217130792
:101400000CF0AAC020916700309168002F54304042
:101410002093690030936A000091F8001091F90060
:101420000D5612400093390110933A010AEB10E077
:10143000201731070CF044C04FE150E000916900E3
:1014400010916A000E9466018C0100931F011093A5
:1014500020014FE150E00091690010916A000E9464
:1014600066018B01009321011093220100911F015D
:1014700010912001103009F4003079F4009121011D
:101480001091220100933F0110934001BFE1B093FE
:101490003D01B0E0B0933E0112C0009121011091D6
:1014A00022010F5F1F4F00933F01109340010091F5
:1014B0001F011091200100933D0110933E014BC08C
:1014C0000091690010916A000A5B104000931F01AF
:1014D000109320014EE150E00E9466018C010093C0
:1014E0002101109322014EE150E000911F01109163
:1014F00020010E9466018B0100931D0110931E01C3
:101500000091210110912201103009F4003089F47A
:1015100000911D0110911E010A5F1F4F00933F01B2
:1015200010934001BEE1B0933D01B0E0B0933E01A5
:1015300012C000911D0110911E01095F1F4F009301
:101540003F0110934001009121011091220100936D
:101550003D0110933E016EC00091F8001091F9001A
:101560000E5612400093390110933A01B0917A005F
:10157000B5FF0BC00091670010916800055F1F4F19
:1015800000936700109368000AC0009167001091F3
:101590006800065F1F4F00936700109368004EE1DC
:1015A00050E000916700109168000E9466018C0174
:1015B00000931F01109320014EE150E0009167005D
:1015C000109168000E9466018B0100932101109325
:1015D000220100911F0110912001103009F4003008
:1015E00089F40091210110912201075F1F4F0093A0
:1015F0003F0110934001BEE1B0933D01B0E0B093D4
:101600003E0112C00091210110912201065F1F4F7F
:1016100000933F011093400100911F0110912001A0
:1016200000933D0110933E011BE003E60A95F1F79C
:101630001A95E1F7089523BC0895B0913500BF7B5A
:10164000B0933500B0913500BF77B0933500B091BD
:101650003500BF7DB0933500B0913500BF7EB093AB
:101660003500B0913500B77FB0933500B0913500AB
:10167000BB7FB0933500B0913400B064B0933400B8
:10168000B0913400B068B0933400B0913400B460CD
:10169000B0933400B0913400B860B0933400B0918E
:1016A0003400B061B0933400B0913400B062B093B4
:1016B00034008BD98AD989D9B0913500B860B093FC
:1016C0003500B0913500B460B0933500B09135006D
:1016D000B064B0933500C8D9B0913500BF7BB093EA
:1016E000350073D9B0913500B064B0933500BCD9E2
:1016F000B0913500BF7BB093350067D9B09135000C
:10170000B064B0933500B0D9B0913500BF7BB093D1
:1017100035005BD9B0913500BB7FB0933500B091F7
:101720003500B064B09335009FD9B0913500BF7BD0
:10173000B09335004AD9B0913500B064B09335000C
:1017400093D9B0913500BF7BB0933500B09135008F
:10175000B77FB0933500B0913500B062B0933500DB
:10176000B0913500B064B09335007ED9B0913500AA
:10177000BF7BB093350029D9B0913500BF7DB093C0
:101780003500B0913500B460B0933500B0913500AC
:10179000B064B093350068D9B0913500BF7BB09389
:1017A0003500B0913500BB7FB0933500B091350066
:1017B000B064B093350058D9B0913500BF7BB09379
:1017C000350003D9B0913500B064B09335004CD9E1
:1017D000B0913500BF7BB0933500B0913500B46057
:1017E000B0933500B0913500B064B09335003CD96A
:1017F000B0913500BF7BB0933500E7D8B09135008C
:10180000BB7FB0933500B0913500B064B093350024
:101810002BD9B0913500BF7BB0933500B091350026
:10182000B062B0933500B0913500B061B09335002F
:10183000B0913500B860B0933500B0913500B46018
:10184000B0933500B0913500B064B09335000CD939
:10185000B0913500BF7BB0933500B7D8B0917A0016
:10186000B260B0937A000895CF93DF93CDB7DEB71F
:101870002397CDBFDEBF2196B0E83B1611F4B0E050
:101880002B1681F4F201BDE2B193B3E3B193B2E35D
:10189000B193B7E3B193B6E3B193B8E3B193B0E0DA
:1018A000B19353C0B0E0BA8300E010E020163106D7
:1018B0003CF4BFEFBA8300E010E0021913091801ED
:1018C000F201B0E2B193B0E2B193B0E2B193B0E211
:1018D000B193B0E2B193B0E3B193B0E0B1938201C0
:1018E0000B5F1F4F08831983B0E03B1611F4B0E083
:1018F0002B1621F15F924F923F922F924AE050E0D7
:1019000081010E9466018C012F903F90005DE8816B
:10191000F98100833F922F924AE050E081010E94BA
:1019200066018B012F903F904F905F9018010881C6
:1019300019810150104008831983D6CF0A810023F2
:1019400021F0E881F981BDE2B0832296CDBFDEBFF0
:10195000DF91CF910895CF93DF93CDB7DEB7259672
:101960002F923F924F925F920881198108831983C9
:101970000A811B810A831B830C811D810C831D83BB
:10198000B0E09B1611F4B2E08B1669F4B3E5B093A6
:101990008000B5E7B0938100BEE6B0938200B0E06E
:1019A000B093830072C0B0E09B1611F4B3E08B16C5
:1019B00069F4BDE4B0938000BFE6B0938100BEE659
:1019C000B0938200B0E0B09383005FC0B0E09B169C
:1019D00011F4B4E08B1669F4B4E5B0938000B5E778
:1019E000B0938100B5E6B0938200B0E0B09383007D
:1019F0004CC0B0E09B1611F4B5E08B1669F4B7E566
:101A0000B0938000B5E6B0938100B4E6B093820055
:101A1000B0E0B093830039C0B0E09B1611F4B6E09B
:101A20008B1669F4B4E5B0938000B8E6B0938100FA
:101A3000B5E7B0938200B0E0B093830026C0B0E079
:101A40009B1611F4B7E08B1669F4B6E4B0938000EE
:101A5000B2E7B0938100B9E6B0938200B0E0B093F2
:101A6000830013C0B0E09B1611F4B1E08B1669F44B
:101A7000B3E5B0938000B1E6B0938100B4E7B093D2
:101A80008200B0E0B093830000C07F926F925F92BB
:101A90004F923F922F92B0E84B2EB0E05B2EB1E018
:101AA0003B2EB1E02B2E0E941A262F903F904F9094
:101AB0005F905F924F923F922F924AE050E08201F6
:101AC0000E9466018B01005D402EB6E03B2EB1E026
:101AD0002B2E8BD82F903F904F905F903F922F925C
:101AE0004AE050E082010E9466018C01005D402EB8
:101AF000B7E03B2EB1E02B2E78D82F903F903F924D
:101B00002F924AE050E081010E9466018B01005D46
:101B1000402EB9E03B2EB1E02B2E67D82F903F909E
:101B20004AE050E081010E9466018C01005D402E78
:101B3000BAE03B2EB1E02B2E58D86F907F907F9269
:101B40006F9248EE53E083010E9466018B01005DB5
:101B5000402EBCE03B2EB1E02B2E47D86F907F90FB
:101B60007F926F9248EE53E083010E9466018C01E0
:101B700044E650E00E9466018B01005D402EBDE00E
:101B80003B2EB1E02B2E31D86F907F907F926F92D9
:101B900048EE53E083010E9466018C0144E650E068
:101BA0000E9466018C014AE050E00E9466018B01B0
:101BB000005D402EBEE03B2EB1E02B2E16D86F907C
:101BC0007F9048EE53E083010E9466018C0144E659
:101BD00050E00E9466018C014AE050E00E946601DC
:101BE0008C01005D402EBFE03B2EB1E02B2E0E9409
:101BF000F5054AE050E0088119810E9466018B01D9
:101C0000005D402EB6E03B2EB2E02B2E0E94F50583
:101C10004AE050E0088119810E9466018C01005D54
:101C2000402EB7E03B2EB2E02B2E0E94F5054AE095
:101C300050E00A811B810E9466018B01005D402EED
:101C4000B9E03B2EB2E02B2E0E94F5054AE050E0B1
:101C50000A811B810E9466018C01005D402EBAE062
:101C60003B2EB2E02B2E0E94F5054AE050E00C819D
:101C70001D810E9466018B01005D402EBCE03B2E61
:101C8000B2E02B2E0E94F5054AE050E00C811D8148
:101C90000E9466018C01005D402EBDE03B2EB2E04B
:101CA0002B2E0E94F5055F904F903F902F90DF9173
:101CB000CF910895CF93DF93CDB7DEB725962F92BE
:101CC0003F924F925F9208811981088319830A819C
:101CD0001B810A831B830C811D810C831D839F92B2
:101CE0008F927F926F925F924F923F922F920E94BB
:101CF0007F172F903F904F905F906F907F90ADD85F
:101D00008F909F90B0E09B1611F4B2E08B1669F4AF
:101D1000B3E5B0938000B5E7B0938100BEE6B09321
:101D20008200B0E0B093830072C0B0E09B1611F463
:101D3000B3E08B1669F4BDE4B0938000BFE6B093C6
:101D40008100BEE6B0938200B0E0B09383005FC034
:101D5000B0E09B1611F4B4E08B1669F4B4E5B093CF
:101D60008000B5E7B0938100B5E6B0938200B0E0A3
:101D7000B09383004CC0B0E09B1611F4B5E08B1615
:101D800069F4B7E5B0938000B5E6B0938100B4E69E
:101D9000B0938200B0E0B093830039C0B0E09B16EE
:101DA00011F4B6E08B1669F4B4E5B0938000B8E6A0
:101DB000B0938100B5E7B0938200B0E0B0938300A8
:101DC00026C0B0E09B1611F4B7E08B1669F4B6E4B8
:101DD000B0938000B2E7B0938100B9E6B09382007F
:101DE000B0E0B093830013C0B0E09B1611F4B1E0F3
:101DF0008B1669F4B3E5B0938000B1E6B09381002F
:101E0000B4E7B0938200B0E0B093830000C0B0E8C4
:101E10004B2EB0E05B2EB1E03B2EB1E02B2E0E94AA
:101E20001A264AE050E00091290110912A010E94EF
:101E300066018B01005D402EB6E03B2EB1E02B2EFB
:101E40000E94F5054AE050E00091290110912A0115
:101E50000E9466018C01005D402EB7E03B2EB1E090
:101E60002B2E0E94F5054AE050E0009125011091CB
:101E700026010E9466018B01005D402EB9E03B2ED9
:101E8000B1E02B2E0E94F5054AE050E000912501BB
:101E9000109126010E9466018C01005D402EBAE07F
:101EA0003B2EB1E02B2E0E94F50548EE53E0009149
:101EB0002701109128010E9466018B01005D402ED0
:101EC000BCE03B2EB1E02B2E0E94F50548EE53E01E
:101ED00000912701109128010E9466018C0144E6BF
:101EE00050E00E9466018B01005D402EBDE03B2E5C
:101EF000B1E02B2E0E94F50548EE53E0009127013A
:101F0000109128010E9466018C0144E650E00E9475
:101F100066018C014AE050E00E9466018B01005D81
:101F2000402EBEE03B2EB1E02B2E0E94F50548EE80
:101F300053E000912701109128010E9466018C0155
:101F400044E650E00E9466018C014AE050E00E94A5
:101F500066018C01005D402EBFE03B2EB1E02B2ED0
:101F60000E94F5054AE050E0088119810E9466014F
:101F70008B01005D402EB6E03B2EB2E02B2E0E947E
:101F8000F5054AE050E0088119810E9466018C0144
:101F9000005D402EB7E03B2EB2E02B2E0E94F505EF
:101FA0004AE050E00A811B810E9466018B01005DBE
:101FB000402EB9E03B2EB2E02B2E0E94F5054AE000
:101FC00050E00A811B810E9466018C01005D402E59
:101FD000BAE03B2EB2E02B2E0E94F5054AE050E01D
:101FE0000C811D810E9466018B01005D402EBCE0CA
:101FF0003B2EB2E02B2E0E94F5054AE050E00C810A
:102000001D810E9466018C01005D402EBDE03B2ECB
:10201000B2E02B2E0E94F50529E216E900E80A95A8
:10202000F1F71A95E1F72A95D1F75F904F903F901D
:102030002F90DF91CF910895B1E07B1609F050C049
:10204000B0E0BFBDB0E0BEBDB0E0BDBDB0E0BCBD66
:102050004FBC6BBC5ABC69BC58BCBBE02B1639F4F6
:102060000FB501600FBD0EB5077E0EBD38C0BCE0D8
:102070002B1639F4BFB5B260BFBD0EB5077E0EBDDD
:102080002EC0BDE02B1639F40FB503600FBD0EB5A1
:10209000077E0EBD24C0BEE02B1639F40FB50160DB
:1020A0000FBD0EB508600EBD1AC0BFE02B1639F487
:1020B0000FB502600FBD0EB508600EBD10C0B0E1D7
:1020C0002B1639F40FB503600FBD0EB508600EBDB9
:1020D00006C00FB50C7F0FBD0EB5077E0EBD03C049
:1020E0000FB50C730FBD3092FD000EB503290EBD68
:1020F00008952F920E94780800913B0110E0005350
:10210000184F0093F8001093F90000912E010093EE
:102110002C01B0E0B0932D0100913C01009323010C
:10212000B0E0B093240150D8B1E02B2ED8D12F903D
:102130000895B0917A00B0FD08C0B0B3B064B0BBF0
:10214000B0917A00B160B0937A000895CF93DF9395
:10215000CDB7DEB72197CDBFDEBF2196022D0F7020
:102160000883022D06950695069506954AE00E947D
:10217000FA061881010F202E102F012FCDBFDEBFD0
:10218000DF91CF910895CF93DF93CDB7DEB725963A
:102190002F923F9208811981088319830A811B813C
:1021A0000A831B830C811D810C831D839F928F9258
:1021B0007F926F925F924F923F922F920E945903AB
:1021C000B0ED2B2E0E94560622240E9456060E9435
:1021D0005903B1ED2B2E0E945606B1E02B2EB0E034
:1021E0003B2E0E946C052F903F904F905F906F9018
:1021F0007F90F30100835F924F923F922F92B1E064
:102200002B2EB0E03B2E0E946C052F903F904F90FC
:102210005F90F20100833F922F92B1E02B2EB0E04D
:102220003B2E0E946C052F903F90F1010083B1E09E
:102230002B2EB0E03B2E0E946C05E881F9810083D3
:10224000B1E02B2EB0E03B2E0E946C058F909F904A
:10225000F4010083B1E02B2EB0E03B2E0E946C0510
:10226000EA81FB810083222433240E946C05EC81E7
:10227000FD8100830E942B063F902F90DF91CF912C
:1022800008952F923F924F926F927F92022D10E00D
:10229000212F312F432D542D60E047FC6FEF762F17
:1022A0000E944E050E9451015F924F923F922F92E1
:1022B00040E050E068EC72E40E9403071801290135
:1022C0000E94F0022F903F904F905F90A801B901BB
:1022D0007F936F935F934F935F924F923F922F92B2
:1022E000B6E16B2EB1E07B2E180129010E9480031C
:1022F00006D62F903F904F905F904F915F916F91D6
:102300007F918A019B010E949A0198013F932F932C
:102310005F924F923F922F92B0E84B2EB0E05B2E2F
:102320001801A2DAB6E14B2EB1E05B2EB1E03B2EF4
:10233000B1E02B2E0E941A26B0E84B2EB0E05B2EA7
:10234000B6E03B2EB2E02B2E0E941A262F902F9241
:10235000B0E84B2EB0E05B2EB0E03B2E85DAB0E863
:102360004B2EB0E05B2EB1E03B2EB2E02B2E0E9454
:102370001A262F903F904F905F902F913F91B2E09F
:102380005B1631F4B2E14B2E19010E94E302A1C0A9
:10239000B1E05B1631F4B1E14B2E19010E94E3026A
:1023A00098C0BEE15B16D1F4B0E02B1629F4232CC3
:1023B000342C0E94760811C0022D10E0031514057C
:1023C00029F4222433240E94760807C0032D142DFB
:1023D000021B130B18010E9476087BC0B3E05B164A
:1023E000A9F4B0E02B1641F4032D142D021B130B9E
:1023F00018010E94760809C0032D142D021B130B2F
:102400000150104018010E94760863C0B4E05B16CA
:1024100099F4B0E02B1641F4032D142D021B130B7D
:1024200018010E942B0707C0032D142D021B130B4C
:1024300018010E942B074DC0B7E35B1619F4222E3A
:10244000FAD847C0BDE25B1631F4B2E04B2E190159
:102450000E94E3023EC0B2E35B1619F4222EEBD8D1
:1024600038C0B9E15B1699F4B0E02B1641F4032DA6
:10247000142D021B130B18010E940D0707C0032D1A
:10248000142D021B130B18010E940D0722C0B3E28A
:102490005B1699F4B0E02B1641F4032D142D021BAA
:1024A000130B18010E94F10507C0032D142D021B08
:1024B000130B18010E94F1050CC0B5E05B1609F47E
:1024C00008C0B6E05B1609F404C0B7E05B1609F477
:1024D00000C07F906F904F903F902F90089527FA03
:1024E000B0913500B5F9B093350026FAB0913500BA
:1024F000B4F9B093350025FAB0913500B3F9B09333
:10250000350024FAB0913500B2F9B0933500B0919E
:102510007A0000903500E894B1FF689407F80092C3
:102520003500B0913500B064B09335000E94340599
:10253000B0913500BF7BB093350023FAB0913500E0
:10254000B5F9B093350022FAB0913500B4F9B093E3
:10255000350021FAB0913500B3F9B093350020FA77
:10256000B0913500B2F9B0933500B0917A00009087
:102570003500E894B1FF689407F800923500B091F7
:102580003500B064B09335000E943405B091350039
:10259000BF7BB0933500B0917A00B1FF03C00E94B9
:1025A000E50402C00E94EE04089509E0021580F4DB
:1025B0004AE0022D0E947403000F000F000F000F6D
:1025C000102F4AE0022D0E947403092F012B01C035
:1025D000022D102F012F089516E00BE20A95F1F756
:1025E0001A95E1F7000000000895E32DF42DB0E204
:1025F000B193B0E2B193B0E3B193B0E0B193032DE6
:10260000142D0E5F1F4F9801B0E02B1691F04AE099
:10261000022D0E947403092F005DF90100834AE036
:10262000022D0E947403202E890101501040980150
:10263000EBCF08952F928F927F926F925F924F927D
:102640003F922F920E945903B0ED2B2E0E94560606
:1026500022240E945606B0E82B2E0E9456062F9088
:102660003F902F92232C0E9456062F900E945606D0
:102670004F905F906F905F924F92262C0E9456066B
:102680004F905F904F92252C0E9456064F907F905E
:102690004F92272C0E9456064F908F904F92282CD5
:1026A0000E9456060E942B060E945903B0ED2B2E65
:1026B0000E94560622240E9456064F90042D007058
:1026C000202E0E9456060E942B062F900895B0914E
:1026D0007A00BD7FB0937A0002DFB0917A00B260D9
:1026E000B0937A000895CF93DF93CDB7DEB72A97E2
:1026F000CDBFDEBF219600E010E0B0E1BA83B7E2C3
:10270000BB83B0E0B883B983B0E0BE83BF83B88732
:10271000B987B0E0BC83BD8308811981F801E20D5F
:10272000F31D0081003009F448C008811981F801C7
:10273000E20DF31D00810D3259F4BFEFBC83B0E010
:10274000BD83088119810F5F1F4F08831983E4CF70
:1027500008811981F801E20DF31D00810032E9F0D2
:1027600008811981F801E20DF31D008110E000538A
:10277000104020E0322F4A815B8160E0762F0E947A
:1027800011074E815F8168857985040F151F261F0B
:10279000371F0E831F83288739874AE050E00A815C
:1027A0001B810E943A058C010A831B8308811981D1
:1027B0000F5F1F4F08831983AFCF0C811D81B02F8E
:1027C000B12B29F0B6E0BA83B0E0BB8304C0B5E01A
:1027D000BA83B0E0BB83288139810A811B8120172D
:1027E0003107D9F03F922F924AE050E060E070E06C
:1027F0000E811F81288539850E94F30489019A0181
:102800002F903F900E831F83288739870881198175
:102810000F5F1F4F08831983DECF2E813F810C810C
:102820001D81B02FB12B39F000E010E0021B130B1B
:10283000A8019A0100C089012996CDBFDEBFDF91B2
:10284000CF910895CF93DF93CDB7DEB72197CDBF5A
:10285000DEBF2196B0E0B883B42D11E0BB2319F0A0
:10286000110FBA95E9F7F1010081102300E0103053
:1028700009F001E00615D9F400E0051530F4ACDEEE
:10288000ABDE052D0150502EF7CFB42D11E0BB2348
:1028900019F0110FBA95E9F7F1010081102300E05A
:1028A000103009F001E0061511F4BFEFB88308817C
:1028B000CDBFDEBFDF91CF910895CF93DF93CDB72A
:1028C000DEB72797CDBFDEBF21962F923F924F9262
:1028D0005F92B7E0B1BDB1E02B2E01DEFE01B2E5A3
:1028E000B193B5E6B193B3E7B193B5E6B193B4E76D
:1028F000B193BEE2B193B0E0B1938E012801B2E092
:102900003B2EB2E02B2E0E941A265F904F903F90F4
:102910002F902696CDBFDEBFDF91CF910895CF9344
:10292000DF93CDB7DEB76B97CDBFDEBF21965F9249
:102930004F923F922F92E3D2FE013396B9E4B193C6
:10294000BEE6B193B9E6B193B4E7B193B9E6B193FA
:10295000B1E6B193BCE6B193B3E7B193B9E6B193F5
:10296000B9E6B193BEE6B193B7E6B193B0E2B193E5
:10297000B8E4B193B5E6B193B1E6B193B4E7B193DE
:10298000B5E6B193B2E7B193B0E0B1938E010D5FBC
:102990001F4F2801B1E03B2EB1E02B2E0E941A26DA
:1029A0002F903F904F905F9025E01FE002EF0A9537
:1029B000F1F71A95E1F72A95D1F7B1E0B983B1E0C3
:1029C000BA83B1E0B8830981015010E048E150E0DA
:1029D0000E94540125E930E0020F131F4A81415043
:1029E000098F1A8F0CE010E050E00E945401298DED
:1029F0003A8D200F311F0881015010E0000F111F88
:102A0000000F111FF801E20FF31F2082098101500E
:102A100010E048E150E00E94540125E930E0020F47
:102A2000131F4A814150098F1A8F0CE010E050E0CB
:102A30000E945401298D3A8D200F311F08810150C9
:102A400010E0000F111F000F111F020F131FF801DC
:102A5000319630820981015010E048E150E00E9437
:102A6000540125E930E0020F131F4A814150098FBC
:102A70001A8F0CE010E050E00E945401298D3A8D2D
:102A8000200F311F0881015010E0000F111F000FAF
:102A9000111F020F131FF801329640820981015065
:102AA00010E048E150E00E94540125E930E0020FB7
:102AB000131F4A814150098F1A8F0CE010E050E03B
:102AC0000E945401298D3A8D200F311F0881015039
:102AD00010E0000F111F000F111F020F131FF8014C
:102AE000339650820881033021F008810F5F0883FC
:102AF0006ACF0A81013021F00A810F5F0A8361CF1A
:102B00000981043021F009810F5F098358CF6A964B
:102B1000CDBFDEBFDF91CF910895CF93DF93CDB7C7
:102B2000DEB76B97CDBFDEBF21965F924F923F928B
:102B30002F92E5D1FE013396B9E4B193BEE6B1938D
:102B4000B9E6B193B4E7B193B9E6B193B1E6B19305
:102B5000BCE6B193B3E7B193B9E6B193B9E6B193EB
:102B6000BEE6B193B7E6B193B0E2B193B8E4B193E6
:102B7000B5E6B193B1E6B193B4E7B193B5E6B193DD
:102B8000B2E7B193B0E0B1938E010D5F1F4F280102
:102B9000B1E03B2EB1E02B2E0E941A262F903F90E1
:102BA0004F905F9025E01FE002EF0A95F1F71A952C
:102BB000E1F72A95D1F7B1E0B983B2E0BA83B1E089
:102BC000B8830981015010E048E150E00E945401AF
:102BD00025E930E0020F131F4A814150098F1A8FF7
:102BE0000CE010E050E00E945401298D3A8D200F36
:102BF000311F0881015010E0000F111F000F111F3D
:102C0000F801E20FF31F20820981015010E048E132
:102C100050E00E94540125E930E0020F131F4A8161
:102C20004150098F1A8F0CE010E050E00E945401CF
:102C3000298D3A8D200F311F0881015010E0000FBF
:102C4000111F000F111F020F131FF8013196308260
:102C50000981015010E048E150E00E94540125E94B
:102C600030E0020F131F4A814150098F1A8F0CE088
:102C700010E050E00E945401298D3A8D200F311F41
:102C80000881015010E0000F111F000F111F020FEB
:102C9000131FF801329640820981015010E048E18B
:102CA00050E00E94540125E930E0020F131F4A81D1
:102CB0004150098F1A8F0CE010E050E00E9454013F
:102CC000298D3A8D200F311F0881015010E0000F2F
:102CD000111F000F111F020F131FF80133965082AE
:102CE0000881033021F008810F5F08836ACF0A81D1
:102CF000023021F00A810F5F0A8361CF098104301D
:102D000021F009810F5F098358CF6A96CDBFDEBFDE
:102D1000DF91CF910895CF93DF93CDB7DEB72297A0
:102D2000CDBFDEBF21962F923F924F925F926F925E
:102D30007F92B0E0B2BDB5EFB3BFB0E0B2BFB5EFC8
:102D4000B5BDB0E0B4BDBFEFBCBFBFEFB3BDB1E038
:102D50007B2EBFEF5B2EB0E06B2EB0EA4B2EB5E0C2
:102D60003B2EBBE02B2E68D9B0E0B883B983288115
:102D700039810AE010E0021713070CF454C04881AF
:102D800059810AE0409F002DB1E05B2EBFEF3B2E42
:102D9000B0E04B2E202E75DA488159810AE0409F21
:102DA000002DB2E05B2EBFEF3B2EB0E04B2E202E6D
:102DB00068DA488159810AE0409F002DB3E05B2E1C
:102DC000BFEF3B2EB0E04B2E202E5BDA48815981BD
:102DD0000AE0409F002DB4E05B2EBFEF3B2EB0E039
:102DE0004B2E202E4EDA488159810AE0409F002D5B
:102DF000B5E05B2EBFEF3B2EB0E04B2E202E41DA2C
:102E000018E605EE0A95F1F71A95E1F708811981A0
:102E1000103009F40A3039F0088119810B5F1F4F17
:102E200008831983A4CFBAE0B883B0E0B9832881BE
:102E3000398100E010E0201731070CF454C04881BC
:102E400059810AE0409F002DB1E05B2EBFEF3B2E81
:102E5000B0E04B2E202E15DA488159810AE0409FC0
:102E6000002DB2E05B2EBFEF3B2EB0E04B2E202EAC
:102E700008DA488159810AE0409F002DB3E05B2EBB
:102E8000BFEF3B2EB0E04B2E202EFBD9488159815D
:102E90000AE0409F002DB4E05B2EBFEF3B2EB0E078
:102EA0004B2E202EEED9488159810AE0409F002DFB
:102EB000B5E05B2EBFEF3B2EB0E04B2E202EE1D9CC
:102EC00018E605EE0A95F1F71A95E1F708811981E0
:102ED000103009F4003039F0088119810550104094
:102EE00008831983A4CF7F906F905F904F903F909D
:102EF0002F902196CDBFDEBFDF91CF9108952F9205
:102F00000E941D0BB1E02B2EEADABCE02B2EE7DA93
:102F10002F900895CF93DF93CDB7DEB72297CDBF23
:102F2000DEBF21962F92B0E0B9830981000F000F18
:102F3000000F005C202ED3DAB0E0B88309810030A6
:102F400059F41AE424E50881E02FF0E0E10FF21FC4
:102F50000491202EBCDB38C00981013059F412E500
:102F600024E50881E02FF0E0E10FF21F0491202E0C
:102F7000AEDB2AC00981023059F41AE524E5088144
:102F8000E02FF0E0E10FF21F0491202EA0DB1CC027
:102F90000981033059F412E324E50881E02FF0E0C1
:102FA000E10FF21F0491202E92DB0EC00981043044
:102FB00059F41AE324E50881E02FF0E0E10FF21F55
:102FC0000491202E84DB00C00881073021F00881A5
:102FD0000F5F0883B3CF0981043021F009810F5FAF
:102FE0000983A3CF2F902196CDBFDEBFDF91CF9174
:102FF00008954F923F922F92B8E72B2E70DA2F90C0
:103000003F9020E002E414E5E22FF0E0E00FF11F32
:1030100004912F933F922F92202E59DB2F903F90B7
:103020002F91273021F0022F0F5F202FEBCF3F92FF
:103030002F92B2E02B2E53DA2F903F903F922F9297
:10304000B7E04B2E0E94F5052F903F904F900895CA
:10305000B4B3B460B4BBB4B3B860B4BBB4B3B06120
:10306000B4BBB4B3B062B4BBB4B3B064B4BBB4B3B8
:10307000B068B4BB0895CF93DF93CDB7DEB7AE97FA
:10308000CDBFDEBF21964F925F926F927F928F925B
:103090009F92B1E0B883B0917A00B064B0937A00A7
:1030A000B0917A00BF77B0937A0020923401B1E0FA
:1030B000B0933201B1E0B0933101B0917A00B6FF24
:1030C00038C1B0E03B1689F53F922F92B1E06B2EEC
:1030D0005524B2E04B2EB6E32B2EB0E03B2EB2DBF4
:1030E0002F903F90002329F0B0917A00B068B09300
:1030F0007A003F922F9266245524B2E04B2EB6E31D
:103100002B2EB0E03B2E9EDB2F903F9000907A005C
:10311000112707FC1395012339F0B1E03B2EB09144
:103120007A00BF7BB0937A0078C0B0917A00BF7B01
:10313000B0937A003F922F92E2DEFE013596B7E51A
:10314000B193B1E6B193B4E7B193B9E6B193BEE6FA
:10315000B193B7E6B193B0E2B193B6E6B193BFE6EF
:10316000B193B2E7B193B0E2B193BAE3B193B0E0F7
:10317000B1938E010B5F1F4F2801B1E03B2EB1E0F0
:103180002B2E0E941A26FE013596B0E5B193B2E7C8
:10319000B193B5E6B193B3E7B193B3E7B193B9E6B1
:1031A000B193BEE6B193B7E6B193B0E2B193B8E4A0
:1031B000B193B5E6B193B1E6B193B4E7B193B5E697
:1031C000B193B2E7B193B0E2B193BDE6B193B9E682
:1031D000B193B3E6B193B2E7B193BFE6B193B0E276
:1031E000B193B3E5B193B7E5B193B0E0B1938E017C
:1031F0000B5F1F4F2801B1E03B2EB2E02B2E0E9447
:103200001A262F903F9029E01EE105EE0A95F1F76E
:103210001A95E1F72A95D1F700003F922F92BEE26E
:103220008B2EB1E09B2EBFE26B2EB1E07B2EB0E384
:103230004B2EB1E05B2EB3E32B2EB1E03B2EB1E081
:10324000BF93BBE3BF93B1E0BF93BCE3BF93B1E0D7
:10325000BF93B2E3BF930E94C310ADB7BEB716963B
:10326000ADBFBEBF0E94791080903201B0E09B2EAE
:103270006090390170903A0140903D0150903E01BC
:1032800020903F013090400100912F01B0E0BF93AA
:103290000F9300913001B0E0BF930F930091330181
:1032A000B0E0BF930F930E94AB0CADB7BEB71696BC
:1032B000ADBFBEBF2DE01DE208ED0A95F1F71A95EE
:1032C000E1F72A95D1F70000000080903201B0E0CC
:1032D0009B2E6090390170903A0140903D015090D2
:1032E0003E0120903F013090400100912F01B0E05D
:1032F000BF930F9300913001B0E0BF930F93009103
:103300003301B0E0BF930F930E945A0EADB7BEB722
:103310001696ADBFBEBF2F903F902DE01DE208ED89
:103320000A95F1F71A95E1F72A95D1F70000000008
:10333000C4CEB1E03B1609F05DC6FE013596B8E497
:10334000B193B5E6B193B1E6B193B4E7B193B5E605
:10335000B193B2E7B193B0E2B193B2E7B193B5E7FD
:10336000B193BEE6B193BEE6B193B9E6B193BEE6C2
:10337000B193B7E6B193B0E0B1938E010B5F1F4FED
:103380003F922F922801B9E03B2EB2E02B2E0E94F3
:103390001A26FE013596B6E5B193B1E6B193BCE6C7
:1033A000B193B5E7B193B5E6B193BAE3B193B0E2A7
:1033B000B193B0E0B1938E010B5F1F4F2801B1E0D4
:1033C0003B2EB2E02B2E0E941A2625E01FE002EFD2
:1033D0000A95F1F71A95E1F72A95D1F7B7E38B2E05
:1033E000B1E09B2EB8E36B2EB1E07B2EB5E34B2E04
:1033F000B1E05B2EB6E32B2EB1E03B2EB0E0BF93E5
:10340000BDE7BF93B0E0BF93BFE7BF93B0E0BF930A
:10341000BEE7BF930E94C310ADB7BEB71696ADBF4F
:10342000BEBFB1E02B2EC1D80DA72224BED80CA759
:103430002224BBD80BA7B1E02B2EB7D80AA7B1E046
:103440002B2EB3D808A7B1E02B2EAFD80EA3209017
:103450007D00ABD86DA55CA54BA53AA528A51EA1FE
:10346000802E712E622E532E442E352E262EE2D81B
:10347000B1E0B0933301B0E0B0933001B0E0B0936D
:103480002F01B2E0B0932E01B2E0B0933201B1E16E
:10349000B0933C01B6E1B0933B01B6E18B2EB1E1B4
:1034A0007B2EB2E06B2EB3E15B2E44243324B1E0DB
:1034B0002B2EC0D8BEE28B2EB1E09B2EBFE26B2E2E
:1034C000B1E07B2EB0E34B2EB1E05B2EB3E32B2EAD
:1034D000B1E03B2EB1E0BF93BBE3BF93B1E0BF933C
:1034E000BCE3BF93B1E0BF93B2E3BF930E94C310AC
:1034F000ADB7BEB71696ADBFBEBF2F903F90B1E03F
:10350000B0937B00B1E0B0937C00E0E8F0E0B8E479
:10351000B193B5E6B193B1E6B193B4E7B193B5E633
:10352000B193B2E7B193B0E0B19300913001009351
:10353000F60000912F010093F70000913401015033
:1035400010E048E150E00E94540125E930E0020F0C
:10355000131F488141500EA31FA30CE010E050E060
:103560000E9454012EA13FA1200F311F00917B002A
:10357000015010E0000F111F000F111F020F131F49
:10358000F801329620818E010F5F1F4F3F922F92DC
:10359000302E412E222E29D88E010F5F1F4F180189
:1035A000A2D8ADDCFE013596B7E5B193B1E6B19393
:1035B000B4E7B193B9E6B193BEE6B193B7E6B19380
:1035C000B0E2B193B6E6B193BFE6B193B2E7B1937F
:1035D000B0E2B193BAE3B193B0E0B1938E010B5F67
:1035E0001F4F2801B1E03B2EB1E02B2E0E941A267E
:1035F0008E010F5F1F4F2801B1E03B2EB2E02B2E52
:103600000E941A2622E51BE200E00A95F1F71A95BE
:10361000E1F72A95D1F700000000000000006FDC00
:1036200000913401015010E048E150E00E94540143
:1036300025E930E0020F131F488141500EA31FA35C
:103640000CE010E050E00E9454012EA13FA1200F99
:10365000311F00917B00015010E0000F111F000F7F
:10366000111F020F131FF8013396008110E0B0E81C
:103670004B2EB0E05B2E18010E94340C20903001DC
:103680000E94A610B0E84B2EB0E05B2E202EB0E0DA
:103690003B2E0E94340CB0E84B2EB0E05B2EB1E024
:1036A0003B2EB2E02B2E0E941A26FE013596BDE677
:1036B000B193B9E6B193BEE6B193B0E2B193B9E686
:1036C000B193BEE6B193B0E2B193B1E6B193B0E28B
:1036D000B193B9E6B193B3E7B193B0E2B193BAE372
:1036E000B193B0E0B1938E010B5F1F4F2801B1E0A1
:1036F0003B2EB1E02B2E0E941A2629E216E900E8A3
:103700000A95F1F71A95E1F72A95D1F7B7E38B2ED1
:10371000B1E09B2EB8E36B2EB1E07B2EB5E34B2ED0
:10372000B1E05B2EB6E32B2EB1E03B2EB0E0BF93B1
:10373000BDE7BF93B0E0BF93BFE7BF93B0E0BF93D7
:10374000BEE7BF930E94C310ADB7BEB71696ADBF1C
:10375000BEBFB1E02B2E0E94D5120DA722240E94DD
:10376000D5120CA722240E94D5120BA7B1E02B2E54
:103770000E94D5120AA7B1E02B2E0E94D51208A7ED
:10378000B1E02B2E0E94D5120EA320907D000E9446
:10379000D5126DA55CA54BA53AA528A51EA1802E26
:1037A000712E622E532E442E352E262E0E941A1371
:1037B000B1E0B0933301B0E0B0933001B0E0B0932A
:1037C0002F01B2E0B0932E01B2E0B0933201B1E12B
:1037D000B0933C01B6E1B0933B01B6E18B2EB1E171
:1037E0007B2EB2E06B2EB3E15B2E44243324B1E098
:1037F0002B2E0E941A13BEE28B2EB1E09B2EBFE24D
:103800006B2EB1E07B2EB0E34B2EB1E05B2EB3E329
:103810002B2EB1E03B2EB1E0BF93BBE3BF93B1E0F1
:10382000BF93BCE3BF93B1E0BF93B2E3BF930E94E9
:10383000C310ADB7BEB71696ADBFBEBF2F903F90B9
:10384000B0917A00B064B0937A00009134010150D5
:1038500010E048E150E00E94540108A719A725E9AB
:1038600030E0020F131F488141500EA31FA30CE04C
:1038700010E050E00E9454012EA13FA1A801420F88
:10388000531F20917B002150722F80E0770F881FFB
:10389000770F881F272F382F240F351FF9013196F6
:1038A000308120913001321740E008F04FEF25E9D8
:1038B00030E058A569A5250F361F200F311F270FAF
:1038C000381FF9013296308120912F01321720E004
:1038D00008F02FEF422325E930E0250F361F020FB5
:1038E000131FE72FF82FE00FF11F00810030B0E029
:1038F00009F0BFEF0B2F042309F4A6C00091340197
:10390000015010E048E150E00E94540125E930E008
:10391000020F131F488141500EA31FA30CE010E0BB
:1039200050E00E9454012EA13FA1200F311F0091B1
:103930007B00015010E0000F111F000F111F020F3C
:10394000131FF8013396008110E03F922F92B0E8E8
:103950004B2EB0E05B2E18010E94340CB0E84B2EC9
:10396000B0E05B2E20903001B0E03B2E0E94340C82
:10397000B0E84B2EB0E05B2EB1E03B2EB2E02B2E38
:103980000E941A26FE013596B1E3B193B0E2B193DD
:10399000B3E6B193B8E6B193B3E6B193BBE6B193A6
:1039A000B5E6B193B4E6B193BAE3B193B0E0B193A5
:1039B0008E010B5F1F4F2801B1E03B2EB1E02B2E93
:1039C0000E941A2625E01FE002EF0A95F1F71A95EA
:1039D000E1F72A95D1F7B1E06B2E5524B3E04B2ED9
:1039E000B0E32B2EB0E03B2E0E9422142F903F908C
:1039F000002369F0B0917A00B068B0937A00B0917A
:103A00007A00BF7BB0937A00B0B3BF7BB0BB3F926C
:103A10002F9266245524B3E04B2EB0E32B2EB0E05A
:103A20003B2E0E9422142F903F9000907A00112785
:103A300007FC1395012341F0B0917A00BF7BB0934E
:103A40007A00B0B3BF7BB0BB3F922F92B1E02B2E78
:103A50000E94D5120DA722240E94D5120CA7222461
:103A60000E94D5120BA7B1E02B2E0E94D5120AA7F7
:103A7000B1E02B2E0E94D51208A7B1E02B2E0E9498
:103A8000D5120EA320907D000E94D5126DA55CA5D5
:103A90004BA53AA528A51EA1802E712E622E532E6D
:103AA000442E352E262E0E941A13B1E0B093330116
:103AB000B0E0B0933001B0E0B0932F01B2E0B0932A
:103AC0002E01B2E0B0933201B1E1B0933C01B6E116
:103AD000B0933B01B6E18B2EB1E17B2EB2E06B2EB1
:103AE000B3E15B2E44243324B1E02B2E0E941A1341
:103AF000BEE28B2EB1E09B2EBFE26B2EB1E07B2E9F
:103B0000B0E34B2EB1E05B2EB3E32B2EB1E03B2EA6
:103B1000B1E0BF93BBE3BF93B1E0BF93BCE3BF93FE
:103B2000B1E0BF93B2E3BF930E94C310ADB7BEB77D
:103B30001696ADBFBEBF2F903F90B0917A00BF7771
:103B4000B0937A00B0B3BF7BB0BBB0917A00BF77BF
:103B5000B0937A00B0917A00B064B0937A00B091DB
:103B60007A00BE7FB0937A00B0917A00B6FF3DC272
:103B700000913401015010E048E150E00E945401EE
:103B800008A719A725E930E0020F131F488141500B
:103B90000EA31FA30CE010E050E00E9454012EA1E0
:103BA0003FA1A801420F531F20917B002150722F8B
:103BB00080E0770F881F770F881F272F382F240F5B
:103BC000351FF9013196308120913001321760E0C4
:103BD00008F06FEF45E950E028A539A5240F351FFF
:103BE000020F131F070F181FF80132961081009162
:103BF0002F01101700E008F00FEF062309F44AC167
:103C00003F922F92B0E84B2EB0E05B2EB1E03B2EFE
:103C1000B1E02B2E0E941A26FE013596B9E6B1932B
:103C2000B3E7B193B0E2B193B1E4B193B3E4B1932C
:103C3000B4E5B193B9E4B193B6E5B193B5E4B1930A
:103C4000BAE3B193B0E0B1938E010B5F1F4F28012F
:103C5000B8E03B2EB1E02B2EEDD7B0E84B2EB0E014
:103C60005B2E20903401B0E03B2E0E94340CFE010C
:103C70003596B0E5B193B2E7B193BFE6B193B7E63D
:103C8000B193B0E2B193BEE6B193B5E7B193BDE6AF
:103C9000B193BAE3B193B0E0B1938E010B5F1F4FC4
:103CA0002801B1E03B2EB2E02B2EC4D7B0E84B2E5A
:103CB000B0E05B2EBAE03B2EB2E02B2EBBD729E062
:103CC0001EE105EE0A95F1F71A95E1F72A95D1F76D
:103CD0000000FE013596BFE4B193BEE6B193B0E2B9
:103CE000B193B0E7B193B7E7B193BDE6B193B0E25A
:103CF000B193B8E6B193B5E6B193B1E6B193B4E749
:103D0000B193B5E6B193B2E7B193B0E2B193BDE63A
:103D1000B193BFE6B193B4E6B193B5E6B193B0E029
:103D2000B1938E010B5F1F4F2801B1E03B2EB1E034
:103D30002B2E80D700913401015010E048E150E073
:103D40000E94540125E930E0020F131F48814150C1
:103D50000EA31FA30CE010E050E00E9454012EA11E
:103D60003FA1200F311F00917B00015010E0000F98
:103D7000111F000F111F020F131FF801339600814E
:103D800050907B00BFEF3B2EB0E04B2E202E0E94C8
:103D900041112F903F900E9499103F922F92B1E0D5
:103DA0006B2E5524B3E04B2EB0E32B2EB0E03B2E10
:103DB0000E9422142F903F900023D1F0B0917A00FE
:103DC000B068B0937A00B0917A00BF7BB0937A006C
:103DD000B0B3BF7BB0BB3F922F9250907B00BFEF40
:103DE0003B2EB0E04B2E22240E9441112F903F9099
:103DF0003F922F9266245524B3E04B2EB0E32B2E36
:103E0000B0E03B2E0E9422142F903F9000907A0049
:103E1000112707FC13950123A9F0B0917A00BF7B0D
:103E2000B0937A003F922F9250907B00BFEF3B2ED1
:103E3000B0E04B2E22240E9441112F903F90B0B34E
:103E4000BF7BB0BB3F922F92BEE28B2EB1E09B2E88
:103E5000BFE26B2EB1E07B2EB0E34B2EB1E05B2EC8
:103E6000B3E32B2EB1E03B2EB1E0BF93BBE3BF9396
:103E7000B1E0BF93BCE3BF93B1E0BF93B2E3BF93A4
:103E80000E94C310ADB7BEB71696ADBFBEBF2F9090
:103E90003F90AAC03F922F9232D8B0E84B2EB0E0AC
:103EA0005B2E20903401B0E03B2E0E94340CB0E831
:103EB0004B2EB0E05B2EB1E03B2EB1E02B2EBAD6FC
:103EC000FE013596B9E6B193B3E7B193B0E2B19391
:103ED000BFE4B193B6E6B193B6E6B193BAE3B1935A
:103EE000B0E0B1938E010B5F1F4F2801B8E03B2E6D
:103EF000B1E02B2E9FD6FE013596B0E5B193B2E727
:103F0000B193BFE6B193B7E6B193B0E2B193BEE629
:103F1000B193B5E7B193BDE6B193BAE3B193B0E025
:103F2000B1938E010B5F1F4F2801B1E03B2EB2E031
:103F30002B2E80D6B0E84B2EB0E05B2EBAE03B2EA5
:103F4000B2E02B2E77D62DE01DE208ED0A95F1F7B1
:103F50001A95E1F72A95D1F700000000FE01359689
:103F6000BFE4B193B6E6B193B6E6B193B0E2B193D4
:103F7000B0E7B193B7E7B193BDE6B193B0E2B193C7
:103F8000B8E6B193B5E6B193B1E6B193B4E7B193B6
:103F9000B5E6B193B2E7B193B0E2B193BDE6B193A8
:103FA000BFE6B193B4E6B193B5E6B193B0E0B19397
:103FB0008E010B5F1F4F2801B1E03B2EB1E02B2E8D
:103FC00039D6B0B3BF7BB0BB50907B00BFEF3B2E68
:103FD000B0E04B2E22240E9441112F903F90B091CF
:103FE0007A00BF7BB0937A00BFCDB0917A00BF7BDF
:103FF000B0937A00B2E0B883B2E0B0937B00B091A6
:104000007A00B064B0937A00B2E0B0937C00B091D3
:104010007A00B160B0937A003F922F920E947F178E
:10402000FE013596B7E5B193B1E6B193B4E7B1932C
:10403000B9E6B193BEE6B193B7E6B193B0E2B193FE
:10404000B6E6B193BFE6B193B2E7B193B0E2B193F4
:10405000BAE3B193B0E0B1938E010B5F1F4F28011B
:10406000B1E03B2EB1E02B2EE5D5FE013596B0E553
:10407000B193B2E7B193B5E6B193B3E7B193B3E7C8
:10408000B193B9E6B193BEE6B193B7E6B193B0E2AE
:10409000B193BDE4B193BFE6B193B4E7B193BFE68A
:1040A000B193B2E7B193B0E2B193BDE6B193B9E693
:1040B000B193B3E6B193B2E7B193BFE6B193B0E287
:1040C000B193B3E5B193B7E5B193B0E0B1938E018D
:1040D0000B5F1F4F2801B1E03B2EB2E02B2EAAD57B
:1040E0002F903F9029E01EE105EE0A95F1F71A9511
:1040F000E1F72A95D1F70000B0917A00B7FF05C02B
:10410000B0917A00BE7FB0937A00B0917A00B0FF90
:10411000A4C03F922F92B1E06B2E5524B3E04B2EFA
:10412000B0E32B2EB0E03B2E0E9422142F903F9044
:10413000002351F0B0917A00B068B0937A00B0914A
:104140007A00BE7FB0937A003F922F926624552466
:10415000B3E04B2EB0E32B2EB0E03B2E0E94221496
:104160002F903F9000907A00112707FC13950123B0
:1041700029F0B0917A00BE7FB0937A00FE013596A7
:10418000B7E5B193B1E6B193B4E7B193B9E6B193B2
:10419000BEE6B193B7E6B193B0E2B193B6E6B193A0
:1041A000BFE6B193B2E7B193B0E2B193BAE3B19392
:1041B000B0E0B1938E010B5F1F4F3F922F92280109
:1041C000B1E03B2EB1E02B2E35D5FE013596B0E5A2
:1041D000B193B2E7B193B5E6B193B3E7B193B3E767
:1041E000B193B9E6B193BEE6B193B7E6B193B0E24D
:1041F000B193BDE4B193BFE6B193B4E7B193BFE629
:10420000B193B2E7B193B0E2B193BDE6B193B9E631
:10421000B193B3E6B193B2E7B193BFE6B193B0E225
:10422000B193B3E5B193B7E5B193B0E0B1938E012B
:104230000B5F1F4F2801B1E03B2EB2E02B2EFAD4CA
:104240002F903F9029E01EE105EE0A95F1F71A95AF
:10425000E1F72A95D1F7000058CFB0917A00B1600C
:10426000B0937A000E949910FE013596BDE6B19395
:10427000BFE6B193B4E7B193BFE6B193B2E7B193B0
:10428000B0E2B193B2E7B193B5E7B193BEE6B193B3
:10429000BEE6B193B9E6B193BEE6B193B7E6B1938A
:1042A000B0E0B1938E010B5F1F4F3F922F92280118
:1042B000B9E03B2EB2E02B2EBDD4FE013596B6E51B
:1042C000B193B1E6B193BCE6B193B5E7B193B5E66E
:1042D000B193BAE3B193B0E2B193B0E0B1938E0180
:1042E0000B5F1F4F2801B1E03B2EB2E02B2EA2D472
:1042F00025E01FE002EF0A95F1F71A95E1F72A95FC
:10430000D1F7B7E38B2EB1E09B2EB5E66B2EB0E074
:104310007B2EB4E64B2EB0E05B2EB6E32B2EB1E045
:104320003B2EB0E0BF93BDE7BF93B0E0BF93BFE7C4
:10433000BF93B0E0BF93BEE7BF930E94C310ADB779
:10434000BEB71696ADBFBEBFB1E02B2E0E94D512F0
:104350000DA722240E94D5120CA722240E94D51258
:104360000BA7B1E02B2E0E94D5120AA7B1E02B2E8D
:104370000E94D51208A7B1E02B2E0E94D5120EA3E1
:1043800020907D000E94D5126DA55CA54BA53AA595
:1043900028A51EA1802E712E622E532E442E352E5E
:1043A000262E0E941A132F903F90B1E0B093320155
:1043B0002092340100917B000130C9F4E0E8F0E084
:1043C000B8E4B193B5E6B193B1E6B193B4E7B19374
:1043D000B5E6B193B2E7B193B0E0B193009130018B
:1043E0000093F60000912F010093F7001AC000918E
:1043F0007B000230B1F4E0E8F0E0BDE4B193BFE649
:10440000B193B4E7B193BFE6B193B2E7B193B0E033
:10441000B193009130010093F50000912F010093BA
:1044200094003F922F92B1E02B2E0E94D5120DA73F
:1044300022240E94D5120CA722240E94D5120BA779
:10444000B1E02B2E0E94D5120AA7B1E02B2E0E94BC
:10445000D51208A7B1E02B2E0E94D5120EA32090F2
:104460007D000E94D5126DA55CA54BA53AA528A597
:104470001EA1802E712E622E532E442E352E262EF6
:104480000E941A13B1E0B0933301B0E0B093300151
:10449000B0E0B0932F01B2E0B0932E01B2E0B09340
:1044A0003201B1E1B0933C01B6E1B0933B01B6E11A
:1044B0008B2EB1E17B2EB2E06B2EB3E15B2E442458
:1044C0003324B1E02B2E0E941A13B0917A00B0640D
:1044D000B0937A00BEE28B2EB1E09B2EBFE26B2E32
:1044E000B1E07B2EB0E34B2EB1E05B2EB3E32B2E7D
:1044F000B1E03B2EB1E0BF93BBE3BF93B1E0BF930C
:10450000BCE3BF93B1E0BF93B2E3BF930E94C3107B
:10451000ADB7BEB71696ADBFBEBF2F903F90B1E00E
:10452000B0933101B0917A00B064B0937A00BAE0F0
:10453000B0936300B0917A00B6FF41C2009134019C
:10454000015010E048E150E00E94540108A719A76B
:1045500025E930E0020F131F488141500EA31FA32D
:104560000CE010E050E00E9454012EA13FA1A801F0
:10457000420F531F20917B002150722F80E0770F54
:10458000881F770F881F272F382F240F351FF90119
:104590003196308120913001321740E008F04FEF22
:1045A00025E930E058A569A5250F361F200F311FDA
:1045B000270F381FF9013296308120912F013217D1
:1045C00020E008F02FEF422325E930E0250F361FC9
:1045D000020F131FE72FF82FE00FF11F00810030AB
:1045E000B0E009F0BFEF0B2F042309F442C13F9262
:1045F0002F920E947F17B0E84B2EB0E05B2EB1E007
:104600003B2EB1E02B2E16D3FE013596B9E6B193C1
:10461000B3E7B193B0E2B193B1E4B193B3E4B19332
:10462000B4E5B193B9E4B193B6E5B193B5E4B19310
:10463000BAE3B193B0E0B1938E010B5F1F4F280135
:10464000B8E03B2EB1E02B2EF5D2B0E84B2EB0E017
:104650005B2E20906000B0E03B2E0E94340CFE01E7
:104660003596B0E5B193B2E7B193BFE6B193B7E643
:10467000B193B0E2B193BEE6B193B5E7B193BDE6B5
:10468000B193BAE3B193B0E0B1938E010B5F1F4FCA
:104690002801B1E03B2EB2E02B2ECCD2B0E84B2E5D
:1046A000B0E05B2EBAE03B2EB2E02B2EC3D229E065
:1046B0001EE105EE0A95F1F71A95E1F72A95D1F773
:1046C0000000FE013596BFE4B193BEE6B193B0E2BF
:1046D000B193B0E7B193B7E7B193BDE6B193B0E260
:1046E000B193BDE4B193BFE6B193B4E7B193BFE634
:1046F000B193B2E7B193B0E2B193BDE6B193BFE637
:10470000B193B4E6B193B5E6B193B0E0B1938E0145
:104710000B5F1F4F2801B1E03B2EB1E02B2E8AD258
:10472000B0E84B2EB0E05B2E20903401B0E03B2E81
:104730000E94340C2F903F90B1E0B0936100B0E044
:10474000B09362002091610030916200009163009B
:1047500010E0021713079CF1409161005091620034
:104760000AE0409F002D3F922F9250907B00BFEFB8
:104770003B2EB0E04B2E202E0E9441112F903F90F7
:1047800025E11BE40FEB0A95F1F71A95E1F72A955D
:10479000D1F7000010916100209162000091630048
:1047A0001017B0E02B0759F00091610010916200E2
:1047B0000F5F1F4F0093610010936200C3CFB0E002
:1047C000B093630000913401015010E048E150E0E3
:1047D0000E94540125E930E0020F131F4881415027
:1047E0000EA31FA30CE010E050E00E9454012EA184
:1047F0003FA1200F311F00917B00015010E0000FFE
:10480000111F000F111F020F131FF80133960081B3
:104810003F922F9250907B00BFEF3B2EB0E04B2E8B
:10482000202E0E944111BEE28B2EB1E09B2EBFE2F2
:104830006B2EB1E07B2EB0E34B2EB1E05B2EB3E3E9
:104840002B2EB1E03B2EB1E0BF93BBE3BF93B1E0B1
:10485000BF93BCE3BF93B1E0BF93B2E3BF930E94A9
:10486000C310ADB7BEB71696ADBFBEBF2F903F9079
:10487000A5C03F922F920E947F17B0E84B2EB0E068
:104880005B2EB1E03B2EB1E02B2ED4D1FE0135964C
:10489000B9E6B193B3E7B193B0E2B193BFE4B1939A
:1048A000B6E6B193B6E6B193BAE3B193B0E0B19393
:1048B0008E010B5F1F4F2801B8E03B2EB1E02B2E7D
:1048C000B9D1FE013596B0E5B193B2E7B193BFE639
:1048D000B193B7E6B193B0E2B193BEE6B193B5E759
:1048E000B193BDE6B193BAE3B193B0E0B1938E0159
:1048F0000B5F1F4F2801B1E03B2EB2E02B2E9AD167
:10490000B0E84B2EB0E05B2EBAE03B2EB2E02B2E8F
:1049100091D129E01EE105EE0A95F1F71A95E1F72C
:104920002A95D1F70000FE013596BFE4B193B6E6B3
:10493000B193B6E6B193B0E2B193B0E7B193B7E704
:10494000B193BDE6B193B0E2B193BDE4B193BFE6DC
:10495000B193B4E7B193BFE6B193B2E7B193B0E2DC
:10496000B193BDE6B193BFE6B193B4E6B193B5E6BA
:10497000B193B0E0B1938E010B5F1F4F2801B1E0FE
:104980003B2EB1E02B2E56D1B0E84B2EB0E05B2E83
:1049900020903401B0E03B2E0E94340C50907B00FC
:1049A000BFEF3B2EB0E04B2E22240E9441112F90EE
:1049B0003F90B0917A00BF7BB0937A00BBCD00915D
:1049C0003101013031F0009131010F5F009331016D
:1049D000A9CD3F922F92BEE28B2EB1E09B2EBFE27B
:1049E0006B2EB1E07B2EB0E34B2EB1E05B2EB3E338
:1049F0002B2EB1E03B2EB1E0BF93BBE3BF93B1E000
:104A0000BF93BCE3BF93B1E0BF93B2E3BF930E94F7
:104A1000C310ADB7BEB71696ADBFBEBFB0917A009A
:104A2000BF7BB0937A00B7E38B2EB1E09B2EBDE63F
:104A30006B2EB0E07B2EB6E64B2EB0E05B2EB6E3DD
:104A40002B2EB1E03B2EB0E0BF93BDE7BF93B0E0AB
:104A5000BF93BFE7BF93B0E0BF93BEE7BF930E9491
:104A6000C310ADB7BEB71696ADBFBEBF209036011E
:104A70000E94D5120DA71091350100916600010F1B
:104A8000202E0E94D5120CA71091380100916D00C4
:104A9000010F202E0E94D5120BA7209037010E94F3
:104AA000D5120AA720907E000E94D51208A7209058
:104AB0007F000E94D5120EA320907D000E94D51287
:104AC0006DA55CA54BA53AA528A51EA1802E712E2B
:104AD000622E532E442E352E262E0E941A130E942B
:104AE0007F17B0E84B2EB0E05B2E20906D00B0E059
:104AF0003B2E0E94340CFE013596B3E5B193B5E62A
:104B0000B193B3E6B193B0E2B193B5E6B193BEE62B
:104B1000B193B4E6B193B5E6B193B4E6B193B0E224
:104B2000B193B9E6B193B3E7B193B0E2B193BAE30D
:104B3000B193B0E0B1938E010B5F1F4F2801B1E03C
:104B40003B2EB1E02B2E76D0B0E84B2EB0E05B2EA2
:104B5000BAE03B2EB1E02B2E6DD0B0E84B2EB0E08A
:104B60005B2E20906600B0E03B2E0E94340CFE01CC
:104B70003596BDE4B193B9E6B193BEE6B193B0E228
:104B8000B193B5E6B193BEE6B193B4E6B193B5E6A1
:104B9000B193B4E6B193B0E2B193B9E6B193B3E7A0
:104BA000B193B0E2B193BAE3B193B0E0B1938E01A7
:104BB0000B5F1F4F2801B1E03B2EB2E02B2E3AD005
:104BC000B0E84B2EB0E05B2EBAE03B2EB2E02B2ECD
:104BD00031D02F903F9029E01EE105EE0A95F1F7C4
:104BE0001A95E1F72A95D1F700009F908F907F905A
:104BF0006F905F904F90AD96CDBFDEBFDF91CF91AC
:104C00000895B7B3BF7EB7BBB7B3BB7FB7BBB7B36E
:104C1000BE7FB7BBB7B3BD7FB7BBB1B3BB7FB1BBC3
:104C2000B1B3B77FB1BBB1B3BF7DB1BBB1B3B064FA
:104C3000B1BB08952F92B1E02B1619F4B0E82B2EDA
:104C400014C0B2E02B1619F4B0EC2B2E0EC0B3E05A
:104C50002B1619F4B4E92B2E08C0B4E02B1619F466
:104C6000B4ED2B2E02C0B0E82B2E032D0150020D07
:104C7000202E202E0E946F12B0917A00BD7FB0933B
:104C80007A009201F9010081002381F0F90100818D
:104C90003F932F932F92202E0E9467132F902F91D6
:104CA0003F9189010F5F1F4F9801ECCFB0917A00BF
:104CB000B260B0937A002F900895B7B3B860B7BBD5
:104CC000B1B3B068B1BBB1B3B061B1BBB1B3B062A5
:104CD000B1BB08950F921F922F923F924F925F9215
:104CE0006F927F928F929F92AF92BF92CF92DF92FC
:104CF000EF92FF920F931F932F933F934F935F93E6
:104D00006F937F938F939F93AF93BF93CF93DF93D3
:104D1000EF93FF93EF93FF93BF93BFB7BF932F9290
:104D20003F924F925F92BFB7BF77BFBF0E945D14A3
:104D3000BBB7BF7DBBBFB1E0B0933401B1E03B2E48
:104D4000B1E02B2E0E943B18BEEF4B2EB0E05B2E45
:104D5000B1E03B2EB1E02B2E6DDFB0E0B1BDBBB7B3
:104D6000B062BBBFBFB7B068BFBF5F904F903F900E
:104D70002F90BF91BFBFBF91FF91EF91FF91EF9136
:104D8000DF91CF91BF91AF919F918F917F916F9163
:104D90005F914F913F912F911F910F91FF90EF9055
:104DA000DF90CF90BF90AF909F908F907F906F904B
:104DB0005F904F903F902F901F900F9018950F92FB
:104DC0002F925F920F931F932F933F93EF93FF9335
:104DD000EF93FF93BF93BFB7BF93CF93DF93CDB74D
:104DE000DEB76697CDBFDEBF21962F923F924F92DE
:104DF0005F926F920091FB00003009F043C0B1E078
:104E0000B093FB000E947F17FE01B9E4B193BEE6A8
:104E1000B193B4E7B193B5E6B193B2E7B193B5E717
:104E2000B193B0E7B193B4E7B193BFE5B193B6E600
:104E3000B193B9E6B193B2E7B193B3E7B193B4E7F5
:104E4000B193BFE5B193B4E7B193B9E6B193BDE6D1
:104E5000B193B5E6B193BDE3B193B0E3B193B0E0E4
:104E6000B1938E012801B1E03B2EB1E02B2EE2DEA2
:104E700029E216E900E80A95F1F71A95E1F72A9573
:104E8000D1F79CC0BFB7BF77BFBF0E945D14BBB74F
:104E9000BF7BBBBFB0917A00BE7FB0937A00B09168
:104EA0007A00B160B0937A00EEEFF0E0BCE3B1932A
:104EB000B9E6B193BEE6B193B4E7B193B0E2B19372
:104EC000B9E6B193B3E7B193B0E2B193B3E7B1936D
:104ED000B5E6B193BCE6B193B5E6B193B3E6B19351
:104EE000B4E7B193B5E6B193B4E6B193B0E0B19352
:104EF000BEEF4B2EB0E05B2EB1E03B2EB1E02B2E8F
:104F000099DEB1E06B2E5524B2E04B2EB0E32B2E90
:104F1000B0E03B2E0E942214003081F0B0917A0064
:104F2000B860B0937A000E947F1721E11CE30CEC7B
:104F30000A95F1F71A95E1F72A95D1F766245524D9
:104F4000B2E04B2EB0E32B2EB0E03B2E0E94221499
:104F500000907A00112703FC1395012339F1B091D9
:104F60007A00B77FB0937A00EEEFF0E0BCE3B19344
:104F7000B7E6B193BFE6B193BFE6B193B4E6B193A0
:104F8000BEE3B193B0E0B193BEEF4B2EB0E05B2E29
:104F9000B1E03B2EB1E02B2E4DDE21E11CE30CEC09
:104FA0000A95F1F71A95E1F72A95D1F7B0E0B1BD6E
:104FB000BBB7B064BBBFBFB7B068BFBF6F905F90F7
:104FC0004F903F902F906596CDBFDEBFDF91CF9180
:104FD000BF91BFBFBF91FF91EF91FF91EF913F91C3
:104FE0002F911F910F915F902F900F901895BFE513
:104FF000BDBFB8E0BEBFCDB7DEB72697CDBFDEBF21
:1050000021962F923F924F925F926F927F928F9252
:105010009F92B7B3B160B7BBBAB3B460BABBBAB30F
:10502000B062BABBBAB3B061BABBBAB3B860BABB0C
:10503000B4B3B460B4BBB4B3B860B4BBB4B3B06120
:10504000B4BBB4B3B062B4BBB4B3B064B4BBB4B3B8
:10505000B068B4BBB1B3BB7FB1BBB1B3B77FB1BBB9
:10506000B1B3BF7EB1BBB1B3BF7DB1BBB1B3BF7B89
:10507000B1BBB1B3BF77B1BBB7B3B260B7BBB7B366
:10508000B860B7BBBAB3B160BABBBAB3B260BABBAF
:10509000BAB3B460BABBBAB3B860BABBB7B3B061A5
:1050A000B7BBB7B3B062B7BBB7B3B064B7BBB7B346
:1050B000B068B7BBB4B3B460B4BBB4B3B860B4BB8E
:1050C000B4B3B061B4BBB4B3B062B4BBB4B3B06496
:1050D000B4BBB4B3B068B4BBB7B3BF7EB7BBB7B3F0
:1050E000BB7FB7BBB1B3BB7FB1BBB1B3B77FB1BB04
:1050F000B1B3BF7DB1BBB1B3BF7BB1BBB7B3B86018
:10510000B7BBB1B3B068B1BBB1B3B061B1BBB0B301
:10511000BF77B0BB0E94281874DDCFDD0E941D0B45
:10512000B1E02B2E0E946F12BCE02B2E0E946F125A
:10513000FE01B4E5B193B5E4B193B3E5B193B4E541
:10514000B193B0E0B1938E012801B1E03B2EB2E003
:105150002B2E70DDB0E0B0933301B0E0B09330019E
:10516000B0E0B0932F01B2E0B0932E01B2E0B09363
:105170003201B1E1B0933C01B5E1B0933B01B5E13F
:105180008B2EB1E17B2EB2E06B2EB3E15B2E44247B
:10519000332422240E941A13B0917A00B064B09391
:1051A0007A00B0917A00BB7FB0937A00B1E0B093FF
:1051B0003401B1E0B0937C00B1E0B09331010091D3
:1051C00032010093FC00B1E0B09360000E947F17B1
:1051D0000E948A17B1E03B2EB1E02B2E0E94F917F6
:1051E000B3E04B2EB5E03B2EB1E02B2E0E94F5052F
:1051F0004424B2E03B2EB2E02B2E0E94F505B4E031
:105200004B2EB4E03B2EB2E02B2E0E94F5052DE391
:1052100011EE00E40A95F1F71A95E1F72A95D1F716
:1052200000000000BAE55B2EB5E04B2E3324B1E060
:105230002B2E0E948F14B2E15B2EB5E04B2E33244F
:10524000B1E02B2E0E948D15BEE28B2EB1E09B2E7D
:10525000BFE26B2EB1E07B2EB0E34B2EB1E05B2EB4
:10526000B3E32B2EB1E03B2EB1E0BF93BBE3BF9382
:10527000B1E0BF93BCE3BF93B1E0BF93B2E3BF9390
:105280000E94C310ADB7BEB71696ADBFBEBF0E9499
:10529000791080903201B0E09B2E609039017090BF
:1052A0003A0140903D0150903E0120903F013090E6
:1052B000400100912F01B0E0BF930F9300913001A6
:1052C000B0E0BF930F9300913301B0E0BF930F9311
:1052D0000E94AB0CADB7BEB71696ADBFBEBF8090F7
:1052E0003201B0E09B2E6090390170903A014090FD
:1052F0003D0150903E0120903F01309040010091CF
:105300002F01B0E0BF930F9300913001B0E0BF9345
:105310000F9300913301B0E0BF930F930E945A0E98
:10532000ADB7BEB71696ADBFBEBF0E948B16B0E03C
:10533000B093FB00B0E0B093FA00B4B7B064B4BF70
:10534000B5B7B160B5BFBAB7BF7DBABFBFB7BF779A
:10535000BFBF25E01FE002EF0A95F1F71A95E1F7CC
:105360002A95D1F7BBB7B062BBBFBBB7B064BBBFB8
:10537000BFB7BF77BFBFB1E0B09334010E947F17C2
:10538000FE01BDE6B193B1E6B193B9E6B193BEE6D5
:10539000B193B0E2B193B0E0B1938E012801B1E0D6
:1053A0003B2EB1E02B2E46DCB1E03B2EB1E02B2EA4
:1053B0000E943B18E5CF9F908F907F906F905F90F9
:1053C0004F903F902F90FFCF0F931F93EF93FF933A
:1053D000BF93BFB7BF9300911401109115010F5FE8
:1053E0001F4F0093140110931501B8B7BE7FB8BFCB
:1053F000BF91BFBFBF91FF91EF911F910F91189582
:105400000F931F93EF93FF93BF93BFB7BF93009189
:105410001201109113010F5F1F4F0093120110939F
:105420001301BF91BFBFBF91FF91EF911F910F91EA
:1054300018950000000F080E0800000011111F0051
:105440000400010E140404040400000A15110A04E7
:1054500000000000000F09090F00000000090D0BFB
:105460000900FFFFFFFFFFFFFFFFFFFFFFFFFFFF41
:00000001FF
