:100000000C947F3B0C9400000C9400000C940000B6
:100010000C944A3B0C9400000C9400000C940000DB
:100020000C9400000C9400000C9400000C94633BB2
:100030000C9400000C9400000C9400000C94000040
:100040000C9400000C9400000C9400000C94000030
:100050000C940000C3D021F0662309F0D4D098940A
:100060000895F8DF09F441C0E62ED52EC42EB32E34
:10007000A22E912E802E002D112D222D332DEADF60
:1000800009F43DC0842F952F8C199D09B9F072F4A5
:100090009095809501964C2D5D2D883180F5359594
:1000A0002795179507950197D1F708C08831E8F48F
:1000B000B594A794979487940197D1F766272EF06B
:1000C000080D191D2A1D3B1D09C0801A910AA20A9C
:1000D000B30A082D192D2A2D3B2D332312F493D06A
:1000E00060E82FD001C018D016C0002D112D222D90
:1000F000332DD6F71ED0C1F340E83427F5CF082DB5
:10010000192D2A2D3B2D4C2D5D2D6E2D33235AF7A5
:100110007AD060E8E8CF08950CD039F041585F4FAD
:10012000342F220F36952795362B0895689499DF42
:100130000895002329F4112319F4222309F4332309
:100140000895F7DF11F19F938F938EE790E03323AB
:1001500051F0369527951795079548175907B4F428
:100160004F5F5F4FF4CF80959095019622239AF0D0
:10017000000F111F221F481759071CF04150504013
:10018000F5CF002711272227332708C033270FEF89
:10019000102F2FE7322F8F919F91BEDF0895C6DF7A
:1001A000332332F0C6DF11F001E003C0002701C0A5
:1001B0000FEF0895042E152E262E372EF0DF002384
:1001C0000895E8944EDF089547E16627552726F005
:1001D000332312F418D060E8B4DF0895AADF79F071
:1001E000632F6078220F331F432F5FE7451B55278E
:1001F0005040269530E8232B3327989403C044279A
:1002000055276627089500951095209530950F5F26
:100210001F4F2F4F3F4F0895C9019A01AB01B801FD
:1002200097FB092E05260ED057FD04D014D00AD016
:10023000001C38F450954095309521953F4F4F4F15
:100240005F4F0895F6F790958095709561957F4F73
:100250008F4F9F4F0895A1E21A2EAA1BBB1BFD01D1
:100260000DC0AA1FBB1FEE1FFF1FA217B307E40795
:10027000F50720F0A21BB30BE40BF50B661F771FED
:10028000881F991F1A9469F76095709580959095CD
:100290009B01AC01BD01CF010895A0DF81F1E62EE5
:1002A000D52EC42EB32EA22E912E802E002D112DD0
:1002B000222D332D93DF19F16E254C0D5D1D403835
:1002C0005307F4F441387FEF5707FCF0882799274C
:1002D000AA27BB2770E2B695A7959795879537957E
:1002E00027951795079520F4880D991DAA1DBB1D0C
:1002F0007A9589F7032F3A2F292F182F22DF0AC06A
:100300000FEF102F2FE73FE7FACF0027102F202FF6
:10031000302FF5CF0895E89457DF0895042E152E59
:10032000262E372EBADF002E112E222E332E0895C0
:10033000C801BA0197FB092E07260AD077FD04D021
:100340000CD006D000201AF4709561957F4F089567
:10035000F6F7909581959F4F0895AA1BBB1B51E11D
:1003600007C0AA1FBB1FA617B70710F0A61BB70B25
:10037000881F991F5A95A9F780959095BC01CD01CA
:10038000089508952BDFF1F05523C2F04F31A8F402
:100390004731C1F050F44195495E05C03595279528
:1003A000179507954A95D1F70DC04751000F111FBA
:1003B000221F331F4A95D1F705C03FE7232F132F84
:1003C000032F03C0662309F01EDF0895002E112EAF
:1003D000222E332E042F152F262F372FE0DE002359
:1003E0001CF00024039401C000240895CF93DF93F0
:1003F000CDB7DEB72397CDBFDEBF2196B0E85B1641
:1004000041F4B0E04B1629F4B0E03B1611F4B0E033
:100410002B16D1F4F301BDE2B193B2E3B193B1E392
:10042000B193B4E3B193B7E3B193B4E3B193B8E359
:10043000B193B3E3B193B6E3B193B4E3B193B8E34B
:10044000B193B0E0B1937BC0B0E0BA8300E010E0BC
:1004500020E030E0201631064206530664F4BFEF78
:10046000BA8300E010E020E030E00219130924090B
:10047000350918012901F301B0E2B193B0E2B1935B
:10048000B0E2B193B0E2B193B0E2B193B0E2B19314
:10049000B0E2B193B0E2B193B0E2B193B0E2B19304
:1004A000B0E3B193B0E0B1938301065F1F4F0883BF
:1004B0001983B0E05B1641F4B0E04B1629F4B0E0CC
:1004C0003B1611F4B0E02B1699F17F926F925F9278
:1004D0004F923F922F924AE050E060E070E081013D
:1004E00092019ADE8B019C012F903F904F905F907C
:1004F000005DE881F98100835F924F923F922F92D5
:100500004AE050E060E070E08101920185DE8901FF
:100510009A012F903F904F905F906F907F901801BD
:100520002901088119810150104008831983C1CF26
:100530000A81002321F0E881F981BDE2B08322968F
:10054000CDBFDEBFDF91CF910895042E152E262E4C
:10055000372E37DE002E112E222E332E08952ADE5E
:100560001CF40024039401C000240895042E152EC9
:10057000262E372EDBDD002E112E222E332E08954F
:100580002CBE089523BC089523BC0895B1E14B16F9
:1005900019F43BBC2ABC06C0B2E14B1619F439BCB5
:1005A00028BC00C00895CF93DF93CDB7DEB7A197E5
:1005B000CDBFDEBF2196B0E0BE8F81019201E2DEA9
:1005C000088319832A833B835F924F923F922F9235
:1005D00040E050E060E070E081019201C0DF00285F
:1005E00000E009F00FEF2F903F904F905F900023B5
:1005F00011F0BFEFBE8F8E010A5F1F4F7F926F9287
:100600005F924F923F922F923801288039804A8022
:100610005B80ECDE2F903F904F905F906F907F90CB
:10062000088119812A813B8176DE5F924F923F9249
:100630002F92A801B9018101920198DF40E050E5B5
:1006400063EC77E46BDE2F903F904F905F909ADEE3
:10065000088319832A833B8340E050E060E070E028
:10066000041715072607370784F40880198000E06F
:1006700010E0001911090A801B8020E030E02009F9
:100680003109088319832A833B838E010E5E1F4F35
:100690007F926F925F924F923F922F923801288003
:1006A00039804A805B80A2DE2F903F904F905F9010
:1006B0006F907F9040E050E0B0E0BC83BD83F301D9
:1006C000B0E2B193B0E2B193B0E2B193B0E2B193D2
:1006D000B0E2B193B0E2B193B0E2B193B0E2B193C2
:1006E000B0E2B193B0E2B193B0E3B193B0E0B193B3
:1006F0005F934F938101920145DE303029F4203021
:1007000019F4103009F40030B0E009F4BFEF0B2FFA
:1007100008A340E050E060E070E0810192011FDF3B
:10072000002800E009F00FEF4F915F9118A101231D
:10073000002341F0F301BDE2B08311E020E0412F3E
:10074000522F00C02E81203281F40C811D8198012E
:100750002F5F3F4F2C833D838E010A5F1F4FF901AE
:10076000E00FF11F0081202FEECF022F0030D1F0DB
:10077000FA01E60DF71D00830C811D8198012F5FA2
:100780003F4F2C833D838A010F5F1F4FB8018E01BD
:100790000A5F1F4FF901E00FF11F0081202F022F88
:1007A000AB01E4CF0E8D003010E009F41FEF5030A4
:1007B00009F4403000E009F40FEF012351F0FA0191
:1007C000E60DF71DB0E3B0838A010F5F1F4F98015C
:1007D00001C09A01303009F4213010E009F41FEF14
:1007E0000E8D012359F0F901E60DF71DB0E3B0833A
:1007F00089010F5F1F4FA8019A0100C0F901E60DA2
:10080000F71DBEE2B08389010F5F1F4FA801B6E05C
:10081000BC83B0E0BD83288D2030F9F0203219F47C
:1008200020E3022F01C0022FFA01E60DF71D00831D
:100830000C811D8198012F5F3F4F2C833D838A01DE
:100840000F5F1F4FB8018E010E5E1F4FF901E00FC1
:10085000F11F0081AB01202FDFCFFA01E60DF71D5C
:10086000B0E0B083A096CDBFDEBFDF91CF910895F9
:10087000CF93DF93CDB7DEB72497CDBFDEBF2196F0
:10088000152D110FB7E0042D0695BA95E9F7010F64
:100890000F57202F30E007FD3FEF00E010E020175A
:1008A0003107DCF440E050E060E070E0810192014B
:1008B0008DDD002800E009F00FEF002331F0B0E0FB
:1008C000B883B983BA83BB8307C0B0E0B883B98368
:1008D000B0E8BA83BFE3BB832AC008E1021728F45B
:1008E000288239824A825B8222C0810192014ADDDC
:1008F00012DD088319832A833B83A101B201088199
:1009000019812A813B812BDE002800E009F00FEFDE
:10091000002369F0088119812A813B8140E050E081
:1009200060E87FE312DE088319832A833B83088112
:1009300019812A813B812396CDBFDEBFDF91CF9104
:100940000895CF93DF93CDB7DEB72397CDBFDEBF3A
:100950002196B0E83B1611F4B0E02B1681F4F201B9
:10096000BDE2B193B3E3B193B2E3B193B7E3B19313
:10097000B6E3B193B8E3B193B0E0B19351C0B0E046
:10098000BA8300E010E0201631063CF4BFEFBA83D2
:1009900000E010E0021913091801F201B0E2B1936E
:1009A000B0E2B193B0E2B193B0E2B193B0E2B193EF
:1009B000B0E3B193B0E0B19382010B5F1F4F0883A6
:1009C0001983B0E03B1611F4B0E02B1611F15F92E1
:1009D0004F923F922F924AE050E08101A9DC8C01B6
:1009E0002F903F90005DE881F98100833F922F9224
:1009F0004AE050E081019CDC8B012F903F904F90AA
:100A00005F901801088119810150104008831983F3
:100A1000D8CF0A81002321F0E881F981BDE2B083BB
:100A20002296CDBFDEBFDF91CF910895C801BA01F4
:100A3000AA1BBB1B51E107C0AA1FBB1FA617B70704
:100A400010F0A61BB70B881F991F5A95A9F7809520
:100A5000909508956894B8DB0895B0E0B9BD28BCBE
:100A60000895B0E0BBBD2ABC0895CF93DF93CDB706
:100A7000DEB725962F923F924F925F92088119819F
:100A8000088319830A811B810A831B830C810C83D1
:100A90000D811E810F81013071F42101B1E03B2EE7
:100AA000262C0E94483348805980B1E03B2E2C8090
:100AB0000E9448330CC0B1E03B2E262C0E944833E4
:100AC0004A805B80B1E03B2E2C800E9448335F90CF
:100AD0004F903F902F90DF91CF910895CF93DF9368
:100AE000CDB7DEB72797CDBFDEBF2196B1E0B88383
:100AF000B1E0BA83B1E0B9830981201608F4DEC001
:100B00000881015010E04AEC52E00E94E3152BE509
:100B100031E0020F131F4A8141500D831E8305E609
:100B200011E050E00E94E3152D813E81020F131F5A
:100B3000498141500D831E8303E310E050E00E9481
:100B4000E3152D813E81F801E20FF31FB0E2B1936E
:100B5000B0E2B193B0E2B193B0E2B193B0E2B1933D
:100B6000B0E2B193B0E2B193B0E2B193B0E2B1932D
:100B7000B0E2B193B0E2B193B0E2B193B0E2B1931D
:100B8000B0E2B193B0E2B193B0E2B193B0E0B1930F
:100B90000881015010E04AEC52E00E94E3152BE579
:100BA00031E0020F131F4A8141500D831E8305E679
:100BB00011E050E00E94E3152D813E81020F131FCA
:100BC000498141500D831E8303E310E050E00E94F1
:100BD000E3152D813E81020F131FF8017196B0E2DB
:100BE000B193B0E2B193B0E2B193B0E2B193B0E2AD
:100BF000B193B0E2B193B0E2B193B0E2B193B0E29D
:100C0000B193B0E2B193B0E2B193B0E2B193B0E28C
:100C1000B193B0E2B193B0E2B193B0E2B193B0E07E
:100C2000B1930881015010E04AEC52E00E94E315B4
:100C30002BE531E0020F131F4A8141500D831E83C3
:100C400005E611E050E00E94E3152D813E81020F80
:100C5000131F498141500D831E8303E310E050E0D0
:100C60000E94E3152D813E81020F131FF801B296F9
:100C7000B1E3B193B0E0B1930A810150202F30E08D
:100C8000220F331F05E511E0F901E00FF11FB0E07D
:100C9000B0830A810150202F30E0220F331F05E579
:100CA00011E0020F131FF8013196B0E0B083098103
:100CB000021521F009810F5F09831ECF0A810230DE
:100CC00021F00A810F5F0A8315CF0881023021F0DD
:100CD00008810F5F08830CCF2696CDBFDEBFDF9162
:100CE000CF9108950190002011F00D92D9F7089549
:100CF000CF93DF93CDB7DEB72C97CDBFDEBF219664
:100D00002F923F924F925F926F927F928F92B0E0BC
:100D10002B1609F4A4C000917000015010E04AECB9
:100D200052E00E94E3150A871B872BE531E0020F92
:100D3000131F4091710041500883198305E611E0AB
:100D400050E00E94E315288139810A831B83020F3A
:100D5000131F452D41500883198303E310E050E031
:100D60000E94E31528813981200F311F2887398798
:100D70002BE531E06A857B85260F371F4A815B8131
:100D8000240F351F200F311F2F5E3F4F2E833F83CF
:100D90002BE531E0260F371F240F351F020F131FDD
:100DA0000E5D1F4F0C831D830BE511E0060F171F0F
:100DB0000883198305E611E04091710050E00E941C
:100DC000E315288139810A831B83020F131F422DEB
:100DD00041500883198303E310E050E00E94E315BB
:100DE000288139814801820E931E2BE531E06A8506
:100DF0007B85260F371F4A815B81240F351F200F0B
:100E0000311F922FA32F9F5EAF4F20917100822F31
:100E10008F5F2BE531E0260F371F240F351F020FA0
:100E2000131FB8016E5D7F4F488559852E813F8124
:100E30000C811D817F927F936F938F93AF939F93CC
:100E40009F928F926090710029011A01702E812E5D
:100E50000CDEADB7BEB71896ADBFBEBFF0C00091F7
:100E60007000015010E04AEC52E00E94E3150A873E
:100E70001B872BE531E0020F131F40917100415099
:100E80000883198305E611E050E00E94E3152881EC
:100E900039810A831B83020F131F452D415008839C
:100EA000198303E310E050E00E94E31528813981A3
:100EB00008871987200F311F2E833F832BE531E0F0
:100EC0006A857B85260F371F4A815B81240F351F7A
:100ED000200F311F2F5E3F4F2C833D832BE531E0E8
:100EE000260F371F240F351F020F131F0E5D1F4FD4
:100EF0000A831B830BE511E0060F171F0883198374
:100F000005E611E04091710050E00E94E315288150
:100F10003981200F311F688579854B01820E931E20
:100F20002BE531E04A855B85240F351F200F311FEB
:100F3000260F371F922FA32F9F5EAF4F2091710076
:100F4000822F8F5F2BE531E0240F351F020F131F17
:100F5000060F171FB8016E5D7F4F4E815F812C8198
:100F60003D810A811B814F923F927F927F936F93C5
:100F70008F93AF939F939F928F92609071002901FE
:100F80001A01702E812E71DDADB7BEB71896ADBFB8
:100F9000BEBF3F904F90232CBFE83B2EB0E04B2EBE
:100FA0000E94E824009171000150202F30E0220FB0
:100FB000331F05E511E0020F131FF8013196008180
:100FC0000030B9F0009171000150202F30E0220F65
:100FD000331F05E511E0020F131FF8013196008160
:100FE000BFE84B2EB0E05B2E302E209071000E94A7
:100FF000483300917100202F30E0220F331F05E5A8
:1010000011E0020F131FF801319600810030B9F092
:1010100000917100402F4F5F202F30E0220F331FCF
:1010200005E511E0020F131FF80131960081BFE8BA
:101030004B2EB0E05B2E302E242E0E9448338F9032
:101040007F906F905F904F903F902F902B96CDBFE9
:10105000DEBFDF91CF910895CF93DF93CDB7DEB799
:101060002297CDBFDEBF2196022D015010E04AEC41
:1010700052E00E94E3152BE531E0020F131F432DD0
:1010800041500883198305E611E050E00E94E31502
:1010900028813981020F131FF8017196B0E5B193D1
:1010A000B2E7B193BAE3B193B0E2B193B0E2B193D6
:1010B000B2E3B193B0E2B193B3E3B193B0E2B193D1
:1010C000B4E3B193B0E2B193B5E3B193B0E2B193BD
:1010D000B6E3B193B0E2B193B7E3B193B0E0B193AB
:1010E000022D015010E04AEC52E00E94E3152BE57E
:1010F00031E0020F131F432D41500883198305E689
:1011000011E050E00E94E31528813981020F131F7E
:101110000D5C1F4FF8017196B0E5B193B2E7B19342
:10112000BAE3B193B1E3B193B0E2B193B0E2B1935A
:10113000B0E2B193B3E3B193B0E2B193B4E3B1934E
:10114000B0E2B193B5E3B193B0E2B193B6E3B1933A
:10115000B0E2B193B7E3B193B0E0B193022D015087
:1011600010E04AEC52E00E94E3152BE531E0020F5B
:10117000131F432D41500883198305E611E050E009
:101180000E94E31528813981020F131F0A591F4F4E
:10119000F8017196B0E5B193B2E7B193BAE3B193B8
:1011A000B1E3B193B0E2B193B2E3B193B0E2B193E2
:1011B000B0E2B193B0E2B193B4E3B193B0E2B193D2
:1011C000B5E3B193B0E2B193B6E3B193B0E2B193BA
:1011D000B7E3B193B0E0B193022D015010E04AECB7
:1011E00052E00E94E3152BE531E0020F131F432D5F
:1011F00041500883198305E611E050E00E94E31591
:1012000028813981020F131F07561F4FF80171966D
:10121000B0E5B193B2E7B193BAE3B193B1E3B1935F
:10122000B0E2B193B2E3B193B0E2B193B3E3B1935F
:10123000B0E2B193B0E2B193B0E2B193B5E3B19350
:10124000B0E2B193B6E3B193B0E2B193B7E3B19337
:10125000B0E0B193022D015010E04AEC52E00E9440
:10126000E3152BE531E0020F131F432D4150088396
:10127000198305E611E050E00E94E31528813981C9
:10128000020F131F04531F4FF8017196B0E5B1937D
:10129000B2E7B193BAE3B193B1E3B193B0E2B193E2
:1012A000B2E3B193B0E2B193B3E3B193B0E2B193DF
:1012B000B4E3B193B0E2B193B0E2B193B0E2B193D1
:1012C000B6E3B193B0E2B193B7E3B193B0E0B193B9
:1012D000022D015010E04AEC52E00E94E3152BE58C
:1012E00031E0020F131F432D41500883198305E697
:1012F00011E050E00E94E31528813981020F131F8D
:1013000001501F4FF8017196B0E5B193B2E7B19368
:10131000BAE3B193B1E3B193B0E2B193B2E3B19365
:10132000B0E2B193B3E3B193B0E2B193B4E3B1935C
:10133000B0E2B193B5E3B193B0E2B193B0E2B1934F
:10134000B0E2B193B7E3B193B0E0B193022D015095
:1013500010E04AEC52E00E94E3152BE531E0020F69
:10136000131F432D41500883198305E611E050E017
:101370000E94E31528813981020F131F0E5C1E4F56
:10138000F8017196B0E5B193B2E7B193BAE3B193C6
:10139000B1E3B193B0E2B193B2E3B193B0E2B193F0
:1013A000B3E3B193B0E2B193B4E3B193B0E2B193DC
:1013B000B5E3B193B0E2B193B6E3B193B0E2B193C8
:1013C000B0E2B193B0E0B1932196CDBFDEBFDF9123
:1013D000CF910895BB27AA279927882700FF04C02B
:1013E000840F951FA61FB71F440F551F661F771F39
:1013F000369527951795079589F7305020401007A7
:1014000069F79D018C0108952F92B1E02B1619F414
:10141000B0E82B2E14C0B2E02B1619F4B0EC2B2E32
:101420000EC0B3E02B1619F4B4E92B2E08C0B4E0BB
:101430002B1619F4B4ED2B2E02C0B0E82B2E032D81
:101440000150020D202EB0916400B061B093640091
:10145000202E0E945939B0916400BF7EB093640081
:10146000242C0E945939B0916400B061B09364009B
:101470002F900895CF93DF93CDB7DEB72697CDBFDA
:10148000DEBF21962F923F924F925F926F927F9292
:10149000022D10E0432D50E00E94E31544E650E099
:1014A000C5DA8C0120E0322FD5DA4F923F922F928D
:1014B00018012901DDD90A831B832C833D83B7E8FA
:1014C0006B2EB0E07B2E180129016DD80A811B819B
:1014D0002C813D810E94C20108831983BFE84B2EF5
:1014E000B0E05B2E18012DDA2F903F904F90B2E0C4
:1014F0004B16A1F52F920E949A33B7E84B2EB0E01D
:101500005B2EB1E03B2EB1E02B2E0E944833BFE8AA
:101510004B2EB0E05B2EB6E03B2EB2E02B2E0E94AD
:1015200048332F90BFE84B2EB0E05B2EB0E03B2E4F
:1015300008DABFE84B2EB0E05B2EB1E03B2EB2E004
:101540002B2E0E944833B2E14B2E288039801ED8C2
:10155000B2E14B2E2880398019D8CAC0B1E04B16B1
:10156000B1F52F920E949A33B7E84B2EB0E05B2E74
:10157000B1E03B2EB1E02B2E0E944833BFE84B2E4A
:10158000B0E05B2EB6E03B2EB2E02B2E0E9448333B
:101590002F90BFE84B2EB0E05B2EB0E03B2ED1D9B0
:1015A000BFE84B2EB0E05B2EB1E03B2EB2E02B2E1D
:1015B0000E944833B1E14B2E288039800E94C60238
:1015C000B1E14B2E288039800E94C60291C0BEE155
:1015D0004B16D1F4B0E02B1631F4232CB0E03B2EA7
:1015E0000E94C00210C0231429F4222433240E9434
:1015F000C00209C008801980032D10E000191109EC
:1016000018010E94C00274C0B1E24B1669F4B0E048
:101610002B1629F4288039800E94C00204C028803B
:1016200039800E94C00264C0B4E04B1669F4B0E097
:101630002B1629F4222433240E94C20204C02880DD
:1016400039800E94C20254C0B7E34B1621F42880AF
:101650000E94C4024DC0BDE24B1639F4B2E04B2EDD
:10166000288039800E94C60243C0B2E34B1621F4A1
:1016700028800E94C4023CC0B9E14B16A9F4B0E036
:101680002B1649F408801980032D10E00019110968
:101690001801E7D908C008801980032D10E000194F
:1016A00011091801DED924C0B3E24B16A9F4B0E049
:1016B0002B1649F408801980032D10E00019110938
:1016C0001801CBD908C008801980032D10E000193B
:1016D00011091801C2D90CC0B5E04B1609F408C0B5
:1016E000B6E04B1609F404C0B7E04B1609F400C08D
:1016F0007F906F905F904F903F902F902596CDBF39
:10170000DEBFDF91CF910895B0913400BD7FB093DB
:1017100034000E94A8240E94A824B0913400BE7F07
:10172000B09334000E94A8240E94A824B0913400F1
:10173000B260B09334000E94A8240E94A824B09103
:101740003400B160B09334000895CF93DF93CDB7E8
:10175000DEB72297CDBFDEBF2196B0915401B160B4
:10176000B0935401B0916400BF7BB0936400B1E0CA
:10177000B0937000B1E0B09371002F92232CAED9DA
:101780002F90B1E02B2E321408F4E0C000917000CD
:10179000015010E04AEC52E00E94E3152BE531E0E5
:1017A000020F131F4091710041500883198305E611
:1017B00011E050E00E94E31528813981020F131FC8
:1017C000422D41500883198303E310E050E00E944A
:1017D000E31528813981F801E20FF31FB0E5B193D9
:1017E000BCE6B193B3E7B193B0E2B193B3E4B19384
:1017F000B8E6B193B3E7B193B0E2B193B0E5B1937A
:10180000B2E7B193B7E6B193B0E2B193BEE4B1935E
:10181000B5E7B193BDE6B193B0E0B193009170002C
:10182000015010E04AEC52E00E94E3152BE531E054
:10183000020F131F4091710041500883198305E680
:1018400011E050E00E94E31528813981020F131F37
:10185000422D41500883198303E310E050E00E94B9
:10186000E31528813981020F131FF8017196B0E545
:10187000B193BCE6B193B3E7B193B0E2B193B3E4F3
:10188000B193B8E6B193B3E7B193B0E2B193B0E5E9
:10189000B193B2E7B193B7E6B193B0E2B193BEE4CE
:1018A000B193B5E7B193BDE6B193B0E0B1930091C8
:1018B0007000015010E04AEC52E00E94E3152BE565
:1018C00031E0020F131F0883198305E611E04091F0
:1018D000710050E00E94E31528813981020F131F27
:1018E000422D41500883198303E310E050E00E9429
:1018F000E31528813981F801E20FF31FB0E5B193B8
:10190000B2E7B193BAE3B193B1E3B193B0E2B1936B
:10191000B2E3B193B0E2B193B3E3B193B0E2B19368
:10192000B4E3B193B0E2B193B5E3B193B0E2B19354
:10193000B6E3B193B0E2B193B7E3B193B0E0B19342
:10194000231421F0022D0F5F202E1DCFB2E0B093A3
:1019500071003F922F92B2E03B2E209070007CDB12
:101960002F903F90B2E0B0937000B1E0B09371005F
:10197000B1E02B2E321408F4B0C000917000015079
:1019800010E04AEC52E00E94E3152BE531E0020F33
:10199000131F4091710041500883198305E611E03F
:1019A00050E00E94E31528813981020F131F422D58
:1019B00041500883198303E310E050E00E94E315CF
:1019C00028813981F801E20FF31FB0E5B193B2E746
:1019D000B193BFE6B193B7E6B193B2E7B193B1E685
:1019E000B193BDE6B193B0E2B193B0E2B193B0E28E
:1019F000B193B0E2B193B0E2B193B9E6B193B3E77A
:101A0000B193B0E2B193B3E7B193B5E6B193BCE65D
:101A1000B193B3E6B193B4E7B193B5E6B193B4E64D
:101A2000B193B0E0B19300917000015010E04AEC26
:101A300052E00E94E3152BE531E0020F131F4091A5
:101A4000710041500883198305E611E050E00E94BF
:101A5000E31528813981020F131F422D415008835D
:101A6000198303E310E050E00E94E31528813981D7
:101A7000F801E20FF31FB7E4B193BFE6B193B9E603
:101A8000B193BEE6B193B7E6B193B0E2B193B4E7D8
:101A9000B193BFE6B193B0E2B193B9E4B193B4E7C7
:101AA000B193B7E2B193B3E7B193B0E2B193B3E5C9
:101AB000B193B5E6B193B4E7B193B4E7B193B9E6A6
:101AC000B193BEE6B193B7E6B193B0E0B1932314FE
:101AD00021F0022D0F5F202E4DCF0091710001509B
:101AE000202F30E0220F331F05E511E0F901E00F50
:101AF000F11FBAE0B083B1E02B2E2196CDBFDEBF3F
:101B0000DF91CF910895B0916400BF7EB0936400DF
:101B10000E945939B0916400B061B0936400089597
:101B2000CF93DF93CDB7DEB72A97CDBFDEBF219627
:101B300000E010E0B0E1BA83B7E2BB83B0E0B88365
:101B4000B983B0E0BE83BF83B887B987B0E0BC83F8
:101B5000BD8308811981F801E20DF31D0081003079
:101B600009F447C008811981F801E20DF31D0081D5
:101B70000D3259F4BFEFBC83B0E0BD8308811981F9
:101B80000F5F1F4F08831983E4CF08811981F80183
:101B9000E20DF31D00810032E1F008811981F801A6
:101BA000E20DF31D008110E00053104020E0322FC1
:101BB0004A815B8160E0762F0DDC4E815F81688514
:101BC0007985040F151F261F371F0E831F83288753
:101BD00039874AE050E00A811B810E9416058C017A
:101BE0000A831B83088119810F5F1F4F08831983A4
:101BF000B0CF0C811D81B02FB12B29F0B6E0BA8394
:101C0000B0E0BB8304C0B5E0BA83B0E0BB832881F9
:101C100039810A811B8120173107D9F03F922F9219
:101C20004AE050E060E070E00E811F812885398530
:101C30000E940C0189019A012F903F900E831F830F
:101C400028873987088119810F5F1F4F08831983FF
:101C5000DECF2E813F810C811D81B02FB12B39F059
:101C600000E010E0021B130BA8019A0100C08901DB
:101C70002996CDBFDEBFDF91CF910895992779E0F6
:101C800004C0991F941708F0941B001F7A95C9F798
:101C900000950895CF93DF93CDB7DEB72397CDBFDF
:101CA000DEBF2196B0E0B883B0E8B983B0E0BA8374
:101CB00009811A81103009F4003009F439C00E94FA
:101CC000A8240E94A824B0913400BD7FB0933400B2
:101CD0000E94A8240E94A824B0913400BE7FB09333
:101CE0003400B0916400BF7DB0936400B0913300C4
:101CF000B0FD06C0B0916400B5FF01C001C0F6CFD1
:101D0000B0913300B1FF04C018810981012B088311
:101D10000E94A8240E94A824B0913400B160B0931E
:101D2000340009811A811695079509831A83C0CF5B
:101D3000B0913400BD7FB09334000E94A8240E946B
:101D4000A824B0E03B1611F4B0E02B1629F0B091B6
:101D50003400B260B09334000E94A8240E94A824EA
:101D6000B0913400BE7FB0933400B0916400BF7D69
:101D7000B0936400B0913300B0FD06C0B091640030
:101D8000B5FF01C001C0F6CF0E94A8240E94A8247C
:101D9000B0913400B160B09334000E94A8240E9436
:101DA000A824B0913400B260B09334000881229628
:101DB000CDBFDEBFDF91CF91089516E00BE20A950B
:101DC000F1F71A95E1F70000000008952F923F9275
:101DD0004F92B1E02B16C9F4B3E04B2EBFEF3B2E70
:101DE000B4E62B2E47DB2DE01DE208ED0A95F1F756
:101DF0001A95E1F72A95D1F700000000B3E04B2EC9
:101E0000BFEF3B2E222436DB18C0B3E04B2EBFEFD2
:101E10003B2E22242FDB2DE01DE208ED0A95F1F781
:101E20001A95E1F72A95D1F700000000B3E04B2E98
:101E3000BFEF3B2EB4E62B2E1DDB4F903F902F9033
:101E40000895CF93DF93CDB7DEB76297CDBFDEBFE6
:101E50002196B0915401B160B0935401B0916400E7
:101E6000BF7BB0936400B1E0B0937000B1E0B09379
:101E700071002F92B7E02B2E0E946E052F90B1E0DB
:101E80002B2E321408F4D6C000917000015010E0DF
:101E90004AEC52E098D62BE531E0020F131F409137
:101EA00071004150088B198B05E611E050E08BD68C
:101EB00028893989020F131F422D4150088B198B35
:101EC00003E310E050E07FD628893989020F131F01
:101ED0009801AC2FBD2FF2010E9472060AE30D9308
:101EE0000EE30D930EE30D930EE30D93F3010E94A9
:101EF00072060CE30D930CE30D930CE30D9300E0DD
:101F00000D93A22FB32FFE010E94720600E00D93E5
:101F100000917000015010E04AEC52E054D62BE5DD
:101F200031E0020F131F409171004150088B198B53
:101F300005E611E050E047D628893989020F131FC2
:101F4000422D4150088B198B03E310E050E03BD643
:101F500028893989020F131F98012F5E3F4FAC2F3C
:101F6000BD2FF2010E9472060AE30D930EE30D935A
:101F70000EE30D930EE30D93F3010E9472060CE342
:101F80000D930CE30D930CE30D9300E00D93A22F42
:101F9000B32FFE010E94720600E00D9300917000C5
:101FA000015010E04AEC52E00ED62BE531E0020F72
:101FB000131F088B198B05E611E04091710050E06A
:101FC00002D628893989020F131F422D4150088BF0
:101FD000198B03E310E050E0F6D528893989F80120
:101FE000E20FF31FB0E2B193B0E2B193B0E2B1936C
:101FF000B0E2B193B0E2B193B0E2B193B0E2B19389
:10200000B0E2B193B0E2B193B0E2B193B0E2B19378
:10201000B0E2B193B0E2B193B0E2B193B0E2B19368
:10202000B0E2B193B0E0B193231421F0022D0F5F21
:10203000202E27CFB2E0B0937000B1E0B0937100D2
:10204000B1E02B2E321408F485C0009170000150CD
:1020500010E04AEC52E0B7D52BE531E0020F131F38
:10206000409171004150088B198B05E611E050E05A
:10207000AAD528893989020F131F422D4150088B98
:10208000198B03E310E050E09ED528893989020FAF
:10209000131FA02FB12FF2010E94720600E20D93D0
:1020A00004E50D9309E60D930DE60D9305E60D93FA
:1020B00002E70D9300E20D9303E50D9305E60D9302
:1020C00004E70D9304E70D9300E00D930091700079
:1020D000015010E04AEC52E076D52BE531E0020FDA
:1020E000131F088B198B05E611E04091710050E039
:1020F0006AD528893989020F131F422D4150088B58
:10210000198B03E310E050E05ED528893989F80186
:10211000E20FF31FB9E6B193BEE6B193B7E6B19310
:10212000B0E2B193B9E6B193B3E7B193B0E2B19342
:10213000B3E7B193B5E6B193B4E7B193B5E6B19324
:10214000B4E6B193B0E0B193231421F0022D0F5FF8
:10215000202E78CF00917100202F30E0220F331F06
:1021600005E511E0F901E00FF11FB1E0B083009146
:102170007100202F30E0220F331F05E511E0020F20
:10218000131FF8013196B9E0B083B1E02B2E6196B0
:10219000CDBFDEBFDF91CF910895CF93DF93CDB751
:1021A000DEB72D97CDBFDEBF21962F923F924F9283
:1021B0005F926F927F928F929F923F922F92B2E6A0
:1021C0008B2EB0E09B2EBCE66B2EB0E07B2EB3E7EF
:1021D0004B2EB0E05B2EB2E72B2EB0E03B2EB0E0F2
:1021E000BF93B1E6BF93B0E0BF93B0E6BF93B0E05A
:1021F000BF93B3E6BF930E94B621ADB7BEB71696A4
:10220000ADBFBEBFB1E02B2EE1DD0E949A332F900F
:102210003F902101B1E03B2EB1E02B2E0E944833CC
:10222000FE01B0E2B193BFE4B193BEE6B193B0E278
:10223000B193B4E7B193B8E6B193B1E6B193BBE61D
:10224000B193B5E6B193B3E7B193B0E2B193BAE31A
:10225000B193B0E0B1938E012801B6E03B2EB1E01E
:102260002B2E0E944833FE01BDE4B193B9E6B19331
:10227000BEE6B193BAE3B193B0E0B1938E01280109
:10228000B1E03B2EB2E02B2E0E944833FE01BCE2AF
:10229000B193B3E7B193B5E6B193B3E6B193BAE3C3
:1022A000B193B0E0B1938E012801B8E03B2EB2E0CB
:1022B0002B2E0E94483300916C0010916D00007F1E
:1022C0001070B4E015950795BA95E1F74AE050E033
:1022D0007AD420916C0030916D002F703070020F15
:1022E000131F00936C0010936D0000917300109108
:1022F0007400007F1070B4E015950795BA95E1F76A
:102300004AE050E060D420917300309174002F7047
:102310003070200F311F2093730030937400122F00
:1023200050916C004AE0022FA9DC005D5F931F937F
:10233000402EB5E03B2EB2E02B2E66D81F914AE02E
:10234000012F9CDC092F005D402EB6E03B2EB2E051
:102350002B2E5AD85F914AE0052F90DC005D5F93E9
:10236000402EBCE03B2EB2E02B2E4ED85F914AE0CF
:10237000052F84DC092F005D402EBDE03B2EB2E02E
:102380002B2E42D89F908F907F906F905F904F90B0
:102390003F902F902C96CDBFDEBFDF91CF91089557
:1023A000CF93DF93CDB7DEB7A597CDBFDEBF219624
:1023B0008F92B1E0B0937000B1E0B09371007F9262
:1023C0006F925F924F923F922F920E949A332F907A
:1023D0003F904F905F906F907F90B0E03B1611F46C
:1023E000B0E02B1631F481010F5F1F4F0F83188768
:1023F00002C02F823886B0915401B160B09354016D
:10240000B0E0BC87B0E0BB87B0916400BF7BB09305
:102410006400B0915401B0FFC1C3B1E0B09370004B
:10242000B1E0B0937100062D10E002151305A4F47D
:102430007F926F925F924F923F922F92462D50E083
:1024400081010E9498018C012F903F904F905F90E6
:102450006F907F900F8318870F811885103009F4D3
:10246000003021F4B1E0BF83B0E0B8870C850230C2
:1024700011F4B0E0BC870C850F5F0C877F926F92E0
:102480005F924F923F922F925F806884432C322C50
:10249000272C702E0E9478062F903F904F905F90CF
:1024A0006F907F90B1E0B0936E0010916E0005E0E8
:1024B000011708F470C300916E000F5F00936E0067
:1024C0007F926F925F924F923F922F92B1E06B2E6C
:1024D000B5E05B2EB1E04B2EB6E32B2EB0E03B2EE9
:1024E0000E944D232F903F904F905F906F907F9070
:1024F000002309F4C3C0B1E0B9877F926F925F9265
:102500004F923F922F92B1E02B2E60DC2F903F90A4
:102510004F905F906F907F90B6E0B0936E00B1E007
:10252000BB83B0E0BC83B0E0BD83BE83B0E0B983C1
:10253000BA8309811A81103009F4003009F09EC075
:102540000D811E810F5F1F4F0D831E837F926F923F
:102550005F924F923F922F92B1E06B2EB4E65B2ECA
:10256000B1E04B2EB6E32B2EB0E03B2E0E944D2364
:102570002F903F904F905F906F907F900023A9F035
:102580007F926F925F924F923F922F92442D50E034
:102590000D811E810E9498018C012F903F904F90D9
:1025A0005F906F907F900B831C830B811C8198013F
:1025B000220D331D1901042D10E00217130724F416
:1025C000252CB0E03B2E00C02F8138850B811C816B
:1025D000200F311F2F833887062D10E002171307B5
:1025E0002CF4B1E0BF83B0E0B88700C00F8118853C
:1025F000103009F4003021F4B1E0BF83B0E0B887B7
:102600000C85023010F0B0E0BC870C850F5F0C87A2
:102610007F926F925F924F923F922F925F80688479
:10262000432C322C272C702E0E9478066624B3E0AF
:102630005B2EB1E04B2EB6E32B2EB0E03B2E0E947A
:102640004D232F903F904F905F906F907F90198512
:10265000012349F0B0E0B987B6E0B0936E00B1E075
:10266000B983B0E0BA8329E01EE105EE0A95F1F7DF
:102670001A95E1F72A95D1F700005BCF7F926F9210
:102680005F924F923F922F92B1E06B2EB5E05B2E9E
:10269000B4E04B2EB6E32B2EB0E03B2E0E944D2330
:1026A0002F903F904F905F906F907F90002309F4A0
:1026B000C1C0B1E0BA877F926F925F924F923F9212
:1026C0002F92B1E02B2E82DB2F903F904F905F90A6
:1026D0006F907F90B6E0B0936E00B1E0BB83B0E046
:1026E000BC83B0E0BD83BE83B0E0B983BA83098107
:1026F0001A81103009F4003009F09CC00D811E8150
:102700000F5F1F4F0D831E837F926F925F924F92D8
:102710003F922F92B1E06B2EB4E65B2EB4E04B2ECD
:10272000B6E32B2EB0E03B2E0E944D232F903F901E
:102730004F905F906F907F900023A9F07F926F92EF
:102740005F924F923F922F92442D50E00D811E8157
:102750000E9498018C012F903F904F905F906F9056
:102760007F900B831C830B801C8081010019110951
:1027700018010515B0E01B0724F4242CB0E03B2E13
:1027800000C00B801C802F813885201931092F83D0
:10279000388701E010E02017310724F46F82B0E0A1
:1027A000B88700C00F811885103009F4003021F47B
:1027B000B1E0BF83B0E0B8870C85023010F0B0E024
:1027C000BC870C850F5F0C877F926F925F924F9250
:1027D0003F922F925F806884432C322C272C702EDE
:1027E0000E9478066624B3E05B2EB4E04B2EB6E37D
:1027F0002B2EB0E03B2E0E944D232F903F904F9008
:102800005F906F907F901A85012349F0B0E0BA87FE
:10281000B6E0B0936E00B1E0B983B0E0BA8329E0CE
:102820001EE105EE0A95F1F71A95E1F72A95D1F721
:1028300000005DCF20926F00B2E0B0937000B091C5
:102840006400BF7BB09364007F926F925F924F925F
:102850003F922F926624B5E05B2EB2E04B2EB6E39A
:102860002B2EB0E03B2E0E944D230030B0E009F04B
:10287000BFEF0B2F098F6624B5E05B2E4424B6E32F
:102880002B2EB0E03B2E0E944D232F903F904F9077
:102890005F906F907F90003010E009F01FEF098D7E
:1028A000012BA1F0B1E0BB877F926F925F924F92B4
:1028B0003F922F92B1E02B2E89DA2F903F904F90CC
:1028C0005F906F907F90B6E0B0936E007F926F92B2
:1028D0005F924F923F922F92B1E06B2EB5E05B2E4C
:1028E000B2E04B2EB6E32B2EB0E03B2E0E944D23E0
:1028F0001B850123098F1090540100906400E89417
:1029000010FC01FE01C0689440F8B1E06B2EB5E008
:102910005B2E4424B6E32B2EB0E03B2E0E944D23C9
:102920002F903F904F905F906F907F90112740FCC9
:1029300013951023098D012B09F426C1B0E0BB8744
:10294000B0915401BE7FB0935401B6E0B0936E00D5
:1029500000917500102F1F5F109375000091760095
:10296000101719F4B1E0B093750000917000015098
:1029700010E04AEC52E027D10BA31CA32BE531E079
:10298000020F131F409171004150098F1A8F05E605
:1029900011E050E018D1298D3A8D0B8F1C8F020F5A
:1029A000131F4F814150098F1A8F03E310E050E04D
:1029B0000AD1298D3A8D09A31AA3200F311F2F8F19
:1029C00038A32BE531E06BA17CA1260F371F4B8D7F
:1029D0005C8D240F351F200F311F2F5E3F4F2D8F31
:1029E0003E8F2BE531E0260F371F240F351F020FD6
:1029F000131F0E5D1F4F0B8F1C8F0BE511E0060F91
:102A0000171F098F1A8F05E611E04091710050E001
:102A1000DAD0298D3A8D200F311F69A17AA14B019F
:102A2000820E931E2BE531E04BA15CA1240F351FD4
:102A3000200F311F260F371F922FA32F9F5EAF4FFE
:102A400020917100822F8F5F2BE531E0240F351F1D
:102A5000020F131F060F171FB8016E5D7F4F4F8DBA
:102A600058A12D8D3E8D0B8D1C8D7F926F925F92A4
:102A70004F923F922F920C850F937F936F938F937A
:102A8000AF939F939F928F92702E812E60907100D2
:102A900029011A010E943505ADB7BEB71896ADBF22
:102AA000BEBF2F903F904F905F906F907F900091AE
:102AB00071000150202F30E0220F331F05E511E097
:102AC000F901E00FF11F0081003041F17F926F9218
:102AD0005F924F923F922F92BFE83B2EB0E04B2E79
:102AE0000E94E824009171000150202F30E0220F55
:102AF000331F05E511E0F901E00FF11F0081BFE888
:102B00004B2EB0E05B2E302E209071000E94483397
:102B10002F903F904F905F906F907F900091710049
:102B2000202F30E0220F331F05E511E0F901E00FFF
:102B3000F11F0081003041F17F926F925F924F92BE
:102B40003F922F92BFE83B2EB0E04B2E0E94E8242C
:102B500000917100402F4F5F202F30E0220F331F74
:102B600005E511E0F901E00FF11F0081BFE84B2EF0
:102B7000B0E05B2E302E242E0E9448332F903F90E1
:102B80004F905F906F907F9018E605EE0A95F1F7F1
:102B90001A95E1F78ACC20926F003BCC00916F0030
:102BA000088325E11BE40FEB0A95F1F71A95E1F78D
:102BB0002A95D1F7000008818F90A496CDBFDEBF83
:102BC000DF91CF9108959801249F8001259F100DDA
:102BD000349F100D0895B0916400B0FD08C0B0B3EB
:102BE000B064B0BBB0916400B160B093640008956C
:102BF000CF93DF93CDB7DEB72397CDBFDEBF21964E
:102C0000B1E0B883B0E8B983B0E0BA8309811A8132
:102C1000103009F4003009F443C00E94A8240E9437
:102C2000A8240E94A8240E94A824B0913400B16076
:102C3000B09334000E94A8240E94A82409811A811C
:102C400002211070103009F4003031F0B0913400DE
:102C5000BD7FB093340005C0B0913400B260B09332
:102C600034000E94A8240E94A824B0913400BE7FA2
:102C7000B0933400B0916400BF7DB0936400B09114
:102C80003300B0FD06C0B0916400B5FF01C001C0C3
:102C9000F6CF09811A811695079509831A83B6CF55
:102CA000B0E0B8830E94A8240E94A824B091340008
:102CB000B160B09334000E94A8240E94A824B0916F
:102CC0003400BD7FB09334000E94A8240E94A82441
:102CD0000E94A8240E94A824B0913400BE7FB09323
:102CE0003400B0916400BF7DB0936400B0913300B4
:102CF000B0FD06C0B0916400B5FF01C001C0F6CFC1
:102D0000B0E0B8830E94A8240E94A824B0913300A8
:102D1000B1FF03C00881016008830E94A8240E94BB
:102D2000A8240E94A8240E94A8240E94A8240E94EB
:102D3000A8240E94A8240E94A8240E94A8240E94DB
:102D4000A8240E94A8240E94A8240E94A8240E94CB
:102D5000A8240E94A8240E94A824B0913400B16045
:102D6000B0933400B0913400B260B0933400088165
:102D70002296CDBFDEBFDF91CF910895B091340090
:102D8000B260B09334000E94A8240E94A824B0919D
:102D90003400BE7FB0933400B0916400BF7DB09327
:102DA0006400B0913300B0FD06C0B0916400B5FF7F
:102DB00001C001C0F6CF0E94A8240E94A8240E944E
:102DC000A8240E94A8240E94A8240E94A8240E944B
:102DD000A8240E94A824B0913400BD7FB093340091
:102DE0000E94A8240E94A8240895CF93DF93CDB712
:102DF000DEB76397CDBFDEBF2196B0915401B160BD
:102E0000B0935401B0916400BF7BB0936400B1E013
:102E1000B0937000B1E0B09371002F92232C0E9408
:102E20006E052F90B1E02B2E321408F482C0009171
:102E30007000015010E04AEC52E0C5DE2BE531E0B5
:102E4000020F131F409171004150098B1A8B05E648
:102E500011E050E0B8DE29893A89020F131F422D94
:102E60004150098B1A8B03E310E050E0ACDE298956
:102E70003A89020F131F9801AC2FBD2FF2010E9457
:102E8000720600E20D93F3010E94720600E20D93B8
:102E9000F4010E94720600E00D93A22FB32FFE01F1
:102EA0000E94720600E00D9300917000015010E046
:102EB0004AEC52E088DE2BE531E0020F131F40910F
:102EC00071004150098B1A8B05E611E050E07BDE62
:102ED00029893A89020F131F422D4150098B1A8B01
:102EE00003E310E050E06FDE29893A89020F131FD7
:102EF00098012F5E3F4FAC2FBD2FF2010E9472064A
:102F000000E20D93F3010E94720600E20D93F401BA
:102F10000E94720600E00D93A22FB32FFE010E94C3
:102F2000720600E00D93231421F0022D0F5F202E76
:102F30007BCFB2E0B0937100B1E02B2E0091700016
:102F4000015010E04AEC52E03EDE2BE531E0020F8A
:102F5000131F0B591E4FF8017196BEE5B193BEE5E4
:102F6000B193BEE5B193BEE5B193B0E2B193B0E2E7
:102F7000B193B0E2B193B0E2B193B0E2B193B0E2F9
:102F8000B193B0E2B193B0E2B193B0E2B193B0E2E9
:102F9000B193B0E2B193B0E2B193B0E0B193B2E0DB
:102FA0002B2E00917000015010E04AEC52E00BDE35
:102FB0002BE531E0020F131F409171004150098B46
:102FC0001A8B05E611E050E0FEDD29893A89020FEF
:102FD000131F0D5C1F4FF8017196B0E2B193B0E280
:102FE000B193B0E2B193B0E2B193B0E2B193BEE578
:102FF000B193BEE5B193BEE5B193BEE5B193B0E246
:10300000B193B0E2B193B0E2B193B0E2B193B0E268
:10301000B193B0E2B193B0E2B193B0E0B193B3E059
:103020002B2E00917000015010E04AEC52E0CBDDF5
:103030002BE531E0020F131F409171004150098BC5
:103040001A8B05E611E050E0BEDD29893A89020FAE
:10305000131F0A591F4FF8017196B0E2B193B0E205
:10306000B193B0E2B193B0E2B193B0E2B193B0E208
:10307000B193B0E2B193B0E2B193B0E2B193B0E2F8
:10308000B193B0E2B193BEE5B193BEE5B193BEE5B5
:10309000B193BEE5B193B0E2B193B0E0B193B2E0C9
:1030A000B0937000B1E0B0937100B1E02B2E3214F8
:1030B00008F442C000917000015010E04AEC52E068
:1030C00082DD2BE531E0020F131F098B1A8B05E619
:1030D00011E04091710050E076DD29893A89020FB4
:1030E000131F422D4150098B1A8B03E310E050E06F
:1030F0006ADD29893A89F801E20FF31FB0E2B19342
:10310000B9E6B193B3E7B193B0E2B193B3E7B1934A
:10311000B5E6B193BCE6B193B3E6B193B4E7B1932E
:10312000B5E6B193B4E6B193B0E0B193231421F0C6
:10313000022D0F5F202EBBCFB1E02B2E009170002F
:10314000015010E04AEC52E03EDD2BE531E0020F89
:10315000131F409171004150098B1A8B05E611E055
:1031600050E031DD29893A89020F131FA02FB12FBA
:10317000F2010E94720600E20D9300E20D9303E754
:103180000D9305E60D9304E70D9304E70D9309E60F
:103190000D930EE60D9307E60D9300E20D9300E20A
:1031A0000D9300E20D9300E20D9300E00D93B2E069
:1031B0002B2E00917000015010E04AEC52E003DD2C
:1031C0002BE531E0020F131F409171004150098B34
:1031D0001A8B05E611E050E0F6DC29893A89020FE6
:1031E000131F0D5C1F4FA02FB12FF3010E94720619
:1031F00000E20D9303E70D9305E60D9304E70D93AD
:1032000004E70D9309E60D930EE60D9307E60D9383
:1032100000E20D9300E20D9300E20D9300E20D93A6
:1032200000E00D93B3E02B2E00917000015010E0F0
:103230004AEC52E0C8DC2BE531E0020F131F40914D
:1032400071004150098B1A8B05E611E050E0BBDCA0
:1032500029893A89020F131FF801EA59FF4FB5E493
:10326000B193B8E7B193B9E6B193B4E7B193B9E6D6
:10327000B193BEE6B193B7E6B193B0E2B193B0E2D9
:10328000B193B0E2B193B0E2B193B0E2B193B0E2E6
:10329000B193B0E2B193B0E2B193B0E2B193B0E2D6
:1032A000B193B0E0B193B1E02B2E6296CDBFDEBFFB
:1032B000DF91CF9108950091A500007F102F169502
:1032C0001695169516950AE0109F102D0091A500F1
:1032D0000F70010F0093A5000091A300007F102F35
:1032E00016951695169516950AE0109F102D0091CB
:1032F000A3000F70010F0093A30000918E00007FC8
:10330000102F16951695169516950AE0109F102DFC
:1033100000918E000F70010F00938E0000915A01F2
:10332000077000935A010091A400007F102F16959A
:103330001695169516950AE0109F102D0091A40081
:103340000F70010F0093A400009159010071102F1C
:1033500016951695169516950AE0109F102D00915A
:1033600059010F70010F009359010091EF06007F82
:10337000102F16951695169516950AE0109F102D8C
:103380000091EF060F70010F0093EF060895CF93A1
:10339000DF93CDB7DEB7A097CDBFDEBF21963F92BA
:1033A0004F925F926F927F928F929F92B3E0B09311
:1033B0005301B1E0B093A900B3E0B0935201209261
:1033C000A600FE013896BCE3B193B5E4B193B8E72B
:1033D000B193BEE3B193B0E0B193AE01485F5F4FEC
:1033E000FE013D96B3E5B193B5E6B193B4E7B19371
:1033F000BEE6B193B7E6B193B0E0B1939E01235F0F
:103400003F4FFE017396B0E5B193B2E7B193BFE6CB
:10341000B193B7E6B193B0E0B1938E010D5E1F4F4B
:103420002F924A013901280130905301B1E02B2E2F
:10343000DCDC772460905301B1E05B2E40905301B7
:10344000B2E02B2EB0E03B2E0E94D0112F900883CB
:10345000B0916400B068B0936400B0916400B7FFAD
:103460007CC50881013009F040C0B7E0B09353013A
:10347000B0916400BF77B0936400B2E0B093A9004C
:10348000B3E0B09352012092A6002F92B7E03B2EFA
:10349000B1E02B2E0E94A50B2F902F9277246090E5
:1034A0005301B1E05B2E40905301B0E03B2E0E94EF
:1034B000D0110A830091A900015010E04CE050E0C7
:1034C00082DB2AE331E0200F311F009152010150CD
:1034D00010E0000F111F000F111FF801E20FF31F82
:1034E0000A810083C1D72F9037C50881023009F0C7
:1034F000B3C4B3E0B0935301B0916400BF77B0930D
:103500006400B2E0B093A900B3E0B09352012092FE
:10351000A600FE013896BCE3B193B5E4B193B8E7D9
:10352000B193BEE3B193B0E0B193AE01485F5F4F9A
:10353000FE013D96BDE4B193B1E6B193BEE6B19311
:10354000B5E7B193BCE6B193B0E0B1939E01235FC0
:103550003F4FFE017396B1E4B193B5E7B193B4E781
:10356000B193BFE6B193B0E0B1938E010D5E1F4FF2
:103570002F924A013901280130905301B1E02B2EDE
:1035800034DC772460905301B1E05B2E409053010E
:10359000B2E02B2EB0E03B2E0E94D0112F90098379
:1035A000B0915401B160B0935401B0915401B0FF97
:1035B00009C40981013009F003C1B7E0B093530198
:1035C000B0915401BE7FB0935401B2E0B093A90012
:1035D000B3E0B09352012092A6002F92B7E03B2EA9
:1035E000B1E02B2E0E94A50B2F902F927724609094
:1035F0005301B1E05B2E40905301B0E03B2E0E949E
:10360000D0110A830091A900015010E04CE050E075
:10361000DADA2AE331E0200F311F00915201015024
:1036200010E0000F111F000F111FF801E20FF31F30
:103630000A810083B2E0B093A900B2E0B0935201D6
:103640000A810093A6000E949A33FE013896B0E5E5
:10365000B193BCE6B193B3E7B193B0E2B193B4E4F4
:10366000B193BFE6B193B0E2B193BEE6B193BFE6CA
:10367000B193B2E7B193BDE6B193B1E6B193BCE6C5
:10368000B193B0E2B193B7E5B193BFE6B193B0E0C7
:10369000B1938E01085F1F4F2801B1E03B2EB1E0CE
:1036A0002B2E0E944833FE013896B2E7B193BBE659
:1036B000B193B0E2B193B7E7B193B5E6B193B0E29D
:1036C000B193B3E7B193B1E6B193B6E7B193B5E681
:1036D000B193B0E2B193B4E7B193B9E6B193BDE66B
:1036E000B193B5E6B193B3E7B193B1E2B193B1E26F
:1036F000B193B1E2B193B0E0B1938E01085F1F4F77
:103700002801B1E03B2EB2E02B2E0E94483329E085
:103710001EE105EE0A95F1F71A95E1F72A95D1F722
:103720000000B1E04B2E33242A800E948A250E949B
:103730009A33FE013896B3E5B193B1E6B193B6E79B
:10374000B193B9E6B193BEE6B193B7E6B193B0E2F7
:10375000B193B9E6B193BEE6B193B0E0B1938E01F7
:10376000085F1F4F2801B1E03B2EB1E02B2E0E94D5
:103770004833FE013896B5E4B193B5E4B193B0E5B2
:10378000B193B2E5B193BFE4B193BDE4B193B0E0BE
:10379000B1938E01085F1F4F2801B1E03B2EB2E0CC
:1037A0002B2E0E94483329E01EE105EE0A95F1F721
:1037B0001A95E1F72A95D1F7000056D62F9001C34C
:1037C0000981023009F07DC2B7E0B09353012F9216
:1037D000B7E03B2EB1E02B2E0E94A50B2F902F922D
:1037E000772460905301B1E05B2E40905301B0E02C
:1037F0003B2E0E94D0112F900A83B2E0B093A90013
:10380000B3E0B09352012092A6002CE030E00AE32E
:1038100011E0020F131FF80138960A810083B2E00D
:10382000B0935301B2E0B093A900B1E0B09352015C
:103830000A810093A600BDE4B887B9E6B987BEE661
:10384000BA87B0E0BB879E01285F3F4FFE013C96E0
:10385000B8E4B193B5E6B193B1E6B193B4E7B193EF
:10386000B5E6B193B2E7B193B0E0B1938E01045FD6
:103870001F4F2F923901280130905301B1E02B2EB8
:103880000E94210F0091A600015010E048E150E095
:103890009AD92AEA30E0020F131F4091A900415043
:1038A0000E8F1F8F0CE010E050E08DD92E8D3F8DD4
:1038B000200F311F00915201015010E0000F111F25
:1038C000000F111F020F131FF8013196008110E045
:1038D0007724609053015524BBE34B2E18010E94BE
:1038E000D0110B83B3E5B887B5E6B987B3E6BA87DD
:1038F000B0E0BB879E01285F3F4FFE013C96B8E4D5
:10390000B193B5E6B193B1E6B193B4E7B193B5E63F
:10391000B193B2E7B193B0E0B1938E01045F1F4F52
:103920003901280130905301B1E02B2E0E94210F64
:103930000091A600015010E048E150E044D92AEA85
:1039400030E0020F131F4091A90041500E8F1F8FCE
:103950000CE010E050E037D92E8D3F8D200F311F45
:1039600000915201015010E0000F111F000F111FB4
:10397000020F131FF8013296008110E07724609047
:1039800053015524BBE34B2E18010E94D0110C8328
:103990000091A600015010E048E150E014D92AEA55
:1039A00030E0020F131F4091A90041500E8F1F8F6E
:1039B0000CE010E050E007D92E8D3F8D200F311F15
:1039C00000915201015010E0000F111F000F111F54
:1039D000020F131FF80131960B8100830091A6009E
:1039E000015010E048E150E0EED82AEA30E0020F42
:1039F000131F4091A90041500E8F1F8F0CE010E063
:103A000050E0E1D82E8D3F8D200F311F00915201E3
:103A1000015010E0000F111F000F111F020F131FA4
:103A2000F80132960C810083B2E0B093A900B2E0B5
:103A3000B09352010A810093A600BDE4B887B9E6AD
:103A4000B987BEE6BA87B0E0BB879E01285F3F4FCB
:103A5000FE013C96BDE4B193BFE6B193B4E7B193E8
:103A6000BFE6B193B2E7B193B0E0B1938E01045FCA
:103A70001F4F3901280130905301B1E02B2E0E94D5
:103A8000210F0091A600015010E048E150E09BD8C2
:103A90002AEA30E0020F131F4091A90041500E8F17
:103AA0001F8F0CE010E050E08ED82E8D3F8D200F40
:103AB000311F00915201015010E0000F111F000F43
:103AC000111F020F131FF8013196008110E07724B7
:103AD000609053015524BBE34B2E18010E94D01176
:103AE0000D83B3E5B887B5E6B987B3E6BA87B0E02A
:103AF000BB879E01285F3F4FFE013C96BDE4B1931A
:103B0000BFE6B193B4E7B193BFE6B193B2E7B19327
:103B1000B0E0B1938E01045F1F4F3901280130904E
:103B20005301B1E02B2E0E94210F0091A6000150FD
:103B300010E048E150E047D82AEA30E0020F131FB6
:103B40004091A90041500E8F1F8F0CE010E050E013
:103B50003AD82E8D3F8D200F311F00915201015018
:103B600010E0000F111F000F111F020F131FF801AB
:103B70003296008110E07724609053015524BBE316
:103B80004B2E18010E94D0110E830091A600015007
:103B900010E048E150E017D82AEA30E0020F131F86
:103BA0004091A90041500E8F1F8F0CE010E050E0B3
:103BB0000AD82E8D3F8D200F311F009152010150E8
:103BC00010E0000F111F000F111F020F131FF8014B
:103BD00031960D8100830091A600015010E048E16C
:103BE00050E00E94E3152AEA30E0020F131F4091D3
:103BF000A90041500E8F1F8F0CE010E050E00E9492
:103C0000E3152E8D3F8D200F311F00915201015081
:103C100010E0000F111F000F111F020F131FF801FA
:103C200032960E8100830E949A33FE013896B3E5E6
:103C3000B193B1E6B193B6E7B193B9E6B193BEE6FD
:103C4000B193B7E6B193B0E2B193B9E6B193BEE6F2
:103C5000B193B0E0B1938E01085F1F4F2801B1E02E
:103C60003B2EB1E02B2E0E944833FE013896B5E47E
:103C7000B193B5E4B193B0E5B193B2E5B193BFE4CC
:103C8000B193BDE4B193B0E0B1938E01085F1F4FD3
:103C90002801B1E03B2EB2E02B2E0E94483329E0F0
:103CA0001EE105EE0A95F1F71A95E1F72A95D1F78D
:103CB0000000DAD32F90B0915401BE7FB09354012D
:103CC00080C00981033009F07CC0B0915401BE7FEF
:103CD000B09354012F920E949A33FE013896B5E4B6
:103CE000B193B8E7B193B9E6B193B4E7B193B0E259
:103CF000B193B6E4B193B2E7B193BFE6B193BDE639
:103D0000B193B0E2B193B3E5B193B5E6B193B4E743
:103D1000B193B4E7B193B9E6B193BEE6B193B7E618
:103D2000B193B0E0B1938E01085F1F4F2801B1E05D
:103D30003B2EB1E02B2E0E944833FE013896B0E5B1
:103D4000B193BCE6B193B3E7B193B0E2B193B0E500
:103D5000B193B2E7B193B5E6B193B3E7B193B3E7EB
:103D6000B193B0E2B193B8E4B193B4E7B193B0E2E8
:103D7000B193BDE6B193B9E6B193B3E6B193B2E7BF
:103D8000B193BFE6B193B0E2B193B3E5B193B7E5B8
:103D9000B193B0E0B1938E01085F1F4F2801B1E0ED
:103DA0003B2EB2E02B2E0E9448332F9029E01EE1DB
:103DB00005EE0A95F1F71A95E1F72A95D1F700007B
:103DC00000C0F3CB2F920E949A33FE013896B5E4DF
:103DD000B193BEE4B193B4E4B193B0E2B193BBE666
:103DE000B193B5E6B193B9E7B193B0E7B193B1E65A
:103DF000B193B4E6B193B0E0B1938E01085F1F4F69
:103E00002801B1E03B2EB1E02B2E0E944833FE0189
:103E10003896B5E4B193B5E4B193B0E5B193B2E5AA
:103E2000B193BFE4B193BDE4B193B0E0B1938E011F
:103E3000085F1F4F2801B1E03B2EB2E02B2E0E94FD
:103E400048332F9029E216E900E80A95F1F71A9510
:103E5000E1F72A95D1F780C00881033009F07CC0D2
:103E6000B0916400BF77B09364002F920E949A33A0
:103E7000FE013896B5E4B193B8E7B193B9E6B193D2
:103E8000B4E7B193B0E2B193B6E4B193B2E7B193C2
:103E9000BFE6B193BDE6B193B0E2B193B3E5B193A0
:103EA000B5E6B193B4E7B193B4E7B193B9E6B19392
:103EB000BEE6B193B7E6B193B0E0B1938E01085F6F
:103EC0001F4F2801B1E03B2EB1E02B2E0E9448335A
:103ED000FE013896B0E5B193BCE6B193B3E7B19378
:103EE000B0E2B193B0E5B193B2E7B193B5E6B19367
:103EF000B3E7B193B3E7B193B0E2B193B8E4B19350
:103F0000B4E7B193B0E2B193BDE6B193B9E6B19332
:103F1000B3E6B193B2E7B193BFE6B193B0E2B19328
:103F2000B3E5B193B7E5B193B0E0B1938E01085F0B
:103F30001F4F2801B1E03B2EB2E02B2E0E944833E8
:103F40002F9029E01EE105EE0A95F1F71A95E1F7A9
:103F50002A95D1F7000000C080CA9F908F907F9073
:103F60006F905F904F903F906F96CDBFDEBFDF9117
:103F7000CF910895CF93DF93CDB7DEB76A97CDBFCA
:103F8000DEBF21965F924F923F922F920E949A330A
:103F9000FE013396B9E4B193BEE6B193B9E6B193AD
:103FA000B4E7B193B9E6B193B1E6B193BCE6B1938E
:103FB000B3E7B193B9E6B193B9E6B193BEE6B19375
:103FC000B7E6B193B0E2B193BDE4B193BFE6B1936C
:103FD000B4E7B193BFE6B193B2E7B193B0E0B19368
:103FE0008E010D5F1F4F2801B1E03B2EB1E02B2E5B
:103FF0000E9448332F903F904F905F9025E01FE044
:1040000002EF0A95F1F71A95E1F72A95D1F7B1E099
:10401000B983B2E0BA83B2E0B8830981015010E0FD
:1040200048E150E00E94E3152AEA30E0020F131F36
:104030004A814150088F198F0CE010E050E00E9437
:10404000E315288D398D200F311F0881015010E0B4
:10405000000F111F000F111FF801E20FF31F208244
:104060000981015010E048E150E00E94E3152AEA7E
:1040700030E0020F131F4A814150088F198F0CE066
:1040800010E050E00E94E315288D398D200F311F7C
:104090000881015010E0000F111F000F111F020FC7
:1040A000131FF801319630820981015010E048E178
:1040B00050E00E94E3152AEA30E0020F131F4A8104
:1040C0004150088F198F0CE010E050E00E94E3157A
:1040D000288D398D200F311F0881015010E0000F0D
:1040E000111F000F111F020F131FF801329640829B
:1040F0000981015010E048E150E00E94E3152AEAEE
:1041000030E0020F131F4A814150088F198F0CE0D5
:1041100010E050E00E94E315288D398D200F311FEB
:104120000881015010E0000F111F000F111F020F36
:10413000131FF801339650820881033021F0088163
:104140000F5F08836ACF0A81023021F00A810F5F76
:104150000A8361CF0981073021F009810F5F09834C
:1041600058CF6996CDBFDEBFDF91CF910895CF9331
:10417000DF93CDB7DEB76B97CDBFDEBF21965F92E1
:104180004F923F922F920E949A33FE013396B9E4E8
:10419000B193BEE6B193B9E6B193B4E7B193B9E692
:1041A000B193B1E6B193BCE6B193B3E7B193B9E68D
:1041B000B193B9E6B193BEE6B193B7E6B193B0E27D
:1041C000B193B8E4B193B5E6B193B1E6B193B4E776
:1041D000B193B5E6B193B2E7B193B0E0B1938E017C
:1041E0000D5F1F4F2801B1E03B2EB1E02B2E0E9446
:1041F00048332F903F904F905F9025E01FE002EFF3
:104200000A95F1F71A95E1F72A95D1F7B1E0B9834C
:10421000B1E0BA83B1E0B8830981015010E048E110
:1042200050E00E94E3152AEA30E0020F131F4A8192
:104230004150098F1A8F0CE010E050E00E94E31506
:10424000298D3A8D200F311F0881015010E0000F99
:10425000111F000F111FF801E20FF31F20820981C7
:10426000015010E048E150E00E94E3152AEA30E0F6
:10427000020F131F4A814150098F1A8F0CE010E082
:1042800050E00E94E315298D3A8D200F311F0881DF
:10429000015010E0000F111F000F111F020F131F1C
:1042A000F801319630820981015010E048E150E078
:1042B0000E94E3152AEA30E0020F131F4A814150A1
:1042C000098F1A8F0CE010E050E00E94E315298D51
:1042D0003A8D200F311F0881015010E0000F111F8F
:1042E000000F111F020F131FF8013296408209813F
:1042F000015010E048E150E00E94E3152AEA30E066
:10430000020F131F4A814150098F1A8F0CE010E0F1
:1043100050E00E94E315298D3A8D200F311F08814E
:10432000015010E0000F111F000F111F020F131F8B
:10433000F801339650820881033021F008810F5F25
:1043400008836ACF0A81023021F00A810F5F0A8355
:1043500061CF0981073021F009810F5F098358CFB0
:104360006A96CDBFDEBFDF91CF910895CF93DF93E3
:10437000CDB7DEB725962F923F9208811981088329
:1043800019830A811B810A831B830C811D810C8385
:104390001D839F928F927F926F925F924F923F9276
:1043A0002F920E94840BB0ED2B2E0E94F815222430
:1043B0000E94F8150E94840BB1ED2B2E0E94F81577
:1043C000B1E02B2EB0E03B2E0E944A0E2F903F9082
:1043D0004F905F906F907F90F30100835F924F92B8
:1043E0003F922F92B1E02B2EB0E03B2E0E944A0E5E
:1043F0002F903F904F905F90F20100833F922F9259
:10440000B1E02B2EB0E03B2E0E944A0E2F903F9041
:10441000F1010083B1E02B2EB0E03B2E0E944A0E4A
:10442000E881F9810083B1E02B2EB0E03B2E0E94A1
:104430004A0E8F909F90F4010083B1E02B2EB0E0E4
:104440003B2E0E944A0EEA81FB8100832224332402
:104450000E944A0EEC81FD8100830E94BE163F90AF
:104460002F90DF91CF910895CF93DF93CDB7DEB733
:104470002497CDBFDEBF21962F923F924F92B0E09E
:10448000B093A700B093A800B1E0B093A600B1E04C
:10449000B093A900B1E0B09352010091A700109130
:1044A000A8000F5F1F4F0A831B830091A6000150D5
:1044B00010E048E150E00E94E3152AEA30E0020FE4
:1044C000131F4091A9004150088319830CE010E0AC
:1044D00050E00E94E31528813981200F311F00919F
:1044E0005201015010E0000F111F000F111FF801C1
:1044F000E20FF31F20810A811B81422E180196D200
:104500000091A7001091A8000E5F1F4F0A831B8324
:104510000091A600015010E048E150E00E94E31530
:104520002AEA30E0020F131F4091A900415008838E
:1045300019830CE010E050E00E94E31528813981D6
:10454000200F311F00915201015010E0000F111F88
:10455000000F111F020F131FF801319620810A81ED
:104560001B81422E180162D20091A7001091A80071
:104570000D5F1F4F0A831B830091A600015010E0BE
:1045800048E150E00E94E3152AEA30E0020F131FD1
:104590004091A9004150088319830CE010E050E0DD
:1045A0000E94E31528813981200F311F00915201AB
:1045B000015010E0000F111F000F111F020F131FF9
:1045C000F801329620810A811B81422E18012ED2D9
:1045D0000091A7001091A8000C5F1F4F0A831B8356
:1045E0000091A600015010E048E150E00E94E31560
:1045F0002AEA30E0020F131F4091A90041500883BE
:1046000019830CE010E050E00E94E3152881398105
:10461000200F311F00915201015010E0000F111FB7
:10462000000F111F020F131FF801339620810A811A
:104630001B81422E1801FAD10091A7001091A80009
:104640000C5F1F4F0093A7001093A8000091520128
:10465000033031F0009152010F5F009352011DCFE2
:104660000091A900023031F00091A9000F5F009382
:10467000A90010CF0091A600073031F00091A600EC
:104680000F5F0093A60003CF4F903F902F9023968B
:10469000CDBFDEBFDF91CF910895CF93DF93CDB72C
:1046A000DEB72197CDBFDEBF2196B0E0B883B42D31
:1046B00011E0BB2319F0110FBA95E9F7F101008160
:1046C000102300E0103009F001E00615E9F400E0E5
:1046D000051540F40E94DD0E0E94DD0E052D0150EF
:1046E000502EF5CFB42D11E0BB2319F0110FBA9560
:1046F000E9F7F1010081102300E0103009F001E03A
:10470000061511F4BFEFB8830881CDBFDEBFDF917E
:10471000CF910895CF93DF93CDB7DEB72297CDBF6A
:10472000DEBF21962F923F92B0E0B093A700B093E6
:10473000A800B1E0B093A600B1E0B093A900B1E049
:10474000B09352010091A600015010E048E150E002
:104750000E94E3152AEA30E0020F131F4091A900DE
:104760004150088319830CE010E050E00E94E315EB
:1047700028813981200F311F00915201015010E032
:10478000000F111F000F111F020F131F0883198341
:104790000091A7001091A8000F5F1F4F18010E9401
:1047A0008A3318812981E12FF22F00830091A6001E
:1047B000015010E048E150E00E94E3152AEA30E0A1
:1047C000020F131F4091A9004150088319830CE088
:1047D00010E050E00E94E31528813981200F311F3D
:1047E00000915201015010E0000F111F000F111F26
:1047F000020F131F0F5F1F4F088319830091A7003B
:104800001091A8000E5F1F4F18010E948A33188173
:104810002981E12FF22F00830091A600015010E0C2
:1048200048E150E00E94E3152AEA30E0020F131F2E
:104830004091A9004150088319830CE010E050E03A
:104840000E94E31528813981200F311F0091520108
:10485000015010E0000F111F000F111F020F131F56
:104860000E5F1F4F088319830091A7001091A800C5
:104870000D5F1F4F18010E948A3318812981E12F93
:10488000F22F00830091A600015010E048E150E0B3
:104890000E94E3152AEA30E0020F131F4091A9009D
:1048A0004150088319830CE010E050E00E94E315AA
:1048B00028813981200F311F00915201015010E0F1
:1048C000000F111F000F111F020F131F0D5F1F4F4D
:1048D000088319830091A7001091A8000C5F1F4F57
:1048E00018010E948A3318812981E12FF22F008359
:1048F0000091A7001091A8000C5F1F4F0093A70024
:104900001093A80000915201033031F00091520140
:104910000F5F0093520116CF0091A900023031F0D1
:104920000091A9000F5F0093A90009CF0091A60094
:10493000073031F00091A6000F5F0093A600FCCE77
:104940003F902F902196CDBFDEBFDF91CF9108958C
:1049500002E00A95F1F70000000008952F928F926F
:104960007F926F925F924F923F922F920E94840BA0
:10497000B0ED2B2E0E94F81522240E94F8152F90DE
:104980003F904F903F922F92242C0E94F8152F9029
:104990003F902F92232C0E94F8152F900E94F8151B
:1049A0005F906F905F92262C0E94F8155F90252CE7
:1049B0000E94F8157F90272C0E94F8158F90282CC4
:1049C0000E94F8150E94BE160E94BE162F900895F0
:1049D000E32DF42DB0E2B193B0E2B193B0E3B19323
:1049E000B0E0B193032D142D0E5F1F4F9801B0E07E
:1049F0002B1691F04AE0022D0E943E0E092F005D19
:104A0000F90100834AE0022D0E943E0E202E89010A
:104A1000015010409801EBCF08951AE303E20A9584
:104A2000F1F71A95E1F70000000008950FB6BCB346
:104A3000B1FF02C00000FBCFF8943FBA2EBA4DBAC6
:104A4000BCB3B460BCBBBCB3B260BCBB0FBE08950A
:104A5000B1E07B1609F050C0B0E0BFBDB0E0BEBD14
:104A6000B0E0BDBDB0E0BCBD4FBC6BBC5ABC69BCC6
:104A700058BCBBE02B1639F40FB501600FBD0EB565
:104A8000077E0EBD38C0BCE02B1639F4BFB5B2604E
:104A9000BFBD0EB5077E0EBD2EC0BDE02B1639F48E
:104AA0000FB503600FBD0EB5077E0EBD24C0BEE07E
:104AB0002B1639F40FB501600FBD0EB508600EBDA1
:104AC0001AC0BFE02B1639F40FB502600FBD0EB54A
:104AD00008600EBD10C0B0E12B1639F40FB50360AD
:104AE0000FBD0EB508600EBD06C00FB50C7F0FBD23
:104AF0000EB5077E0EBD03C00FB50C730FBD30920F
:104B00007F000EB503290EBD089505E80A95F1F75B
:104B100000000895CF93DF93CDB7DEB7A097CDBF48
:104B2000DEBF21965F926F927F928F929F92B1E04B
:104B3000B093A9002092A600B1E0B0935201B091C9
:104B40005401B160B0935401B0916400BD7FB09343
:104B500064002092A600B1E0B0935A01B1E0B09396
:104B60006A00B0915401B0FFC8C0B0E03B1609F034
:104B700048C04F923F922F926624B5E05B2EB3E07F
:104B80004B2EB0E32B2EB0E03B2E87DD2F903F90D5
:104B90004F900023B1F0B0916400B260B093640014
:104BA000B1E03B2EB0915401BE7FB09354014F92BF
:104BB0003F922F92B1E02B2E0E94E60E2F903F9055
:104BC0004F904F923F922F92B1E06B2EB5E05B2E4B
:104BD000B3E04B2EB0E32B2EB0E03B2E5EDD2F90EA
:104BE0003F904F9000906400112701FC1395012322
:104BF00039F0B1E03B2EB0915401BE7FB093540127
:104C00007BC0B0915401BE7FB09354014F923F924C
:104C10002F920E949A33FE013296B7E5B193B1E626
:104C2000B193B4E7B193B9E6B193BEE6B193B7E6F9
:104C3000B193B0E2B193B6E6B193BFE6B193B2E7F8
:104C4000B193B0E2B193BAE3B193B0E0B1938E0106
:104C50000E5F1F4F2801B1E03B2EB1E02B2E0E94CA
:104C60004833FE013296B0E5B193B2E7B193B5E6B1
:104C7000B193B3E7B193B3E7B193B9E6B193BEE6AD
:104C8000B193B7E6B193B0E2B193B8E4B193B5E6AE
:104C9000B193B1E6B193B4E7B193B5E6B193B2E79E
:104CA000B193B0E2B193BDE6B193B9E6B193B3E687
:104CB000B193B2E7B193BFE6B193B0E2B193B3E57C
:104CC000B193B7E5B193B0E0B1938E010E5F1F4F82
:104CD0002801B1E03B2EB2E02B2E0E9448332F90EA
:104CE0003F904F9029E01EE105EE0A95F1F71A95E5
:104CF000E1F72A95D1F7000034CFB1E03B1609F077
:104D000082C6B1E0B093A9002092A600B1E0B093B2
:104D100052014F923F922F920E949A33B2E68B2E0D
:104D2000B0E09B2EB5E66B2EB0E07B2EBBE64B2EA3
:104D3000B0E05B2EB2E72B2EB0E03B2EB0E0BF938D
:104D4000B1E6BF93B0E0BF93B0E6BF93B0E0BF93CE
:104D5000B3E6BF930BDBADB7BEB71696ADBFBEBF14
:104D6000B4EA8B2EB0E09B2EB5EA6B2EB0E07B2E22
:104D7000B3EA4B2EB0E05B2EBEE82B2EB0E03B2E0C
:104D8000B6E0BF93BFEEBF93B1E0BF93B9E5BF9369
:104D9000B1E0BF93BAE5BF93E9DAADB7BEB71696F7
:104DA000ADBFBEBF2F903F904F90B0915401B16006
:104DB000B0935401B1E04B1609F091C0B1E0B0934B
:104DC0005201B1E0B093A9000091A600015010E09B
:104DD00048E150E00E94E3152AEA30E0020F131F79
:104DE0004091A90041500B8F1C8F0CE010E050E067
:104DF0000E94E3152B8D3C8D200F311F0091520135
:104E0000015010E0000F111F000F111F020F131FA0
:104E1000F8013196BCE3B0830091A600015010E088
:104E200048E150E00E94E3152AEA30E0020F131F28
:104E30004091A90041500B8F1C8F0CE010E050E016
:104E40000E94E3152B8D3C8D200F311F00915201E4
:104E5000015010E0000F111F000F111F020F131F50
:104E6000F8013296BCE3B0830091A600015010E037
:104E700048E150E00E94E3152AEA30E0020F131FD8
:104E80004091A90041500B8F1C8F0CE010E050E0C6
:104E90000E94E3152B8D3C8D200F311F0091520194
:104EA000015010E0000F111F000F111FF801E20F59
:104EB000F31FB1E0B0830091A900023031F00091FE
:104EC000A9000F5F0093A9007FCF0091520103302A
:104ED00031F0009152010F5F0093520172CFB2E0A6
:104EE000B093A9002092A600B1E0B0935201022D28
:104EF000015010E048E150E00E94E3152AEA30E05A
:104F0000020F131F045F1F4FF801339600814F9269
:104F10003F922F92B6E63B2EB0E04B2E202E58DD6E
:104F2000B6E62B2EB0E03B2E0E94900D2F903F90C6
:104F30004F9008831983B0915401B160B09354012C
:104F4000B0916400BE7FB0936400B1E0B09377008D
:104F5000B1E04B1600E009F40FEF0F8F0091A600AF
:104F6000015010E048E150E00E94E3150D8F1E8FC4
:104F70002AEA30E0020F131F4091A90041500B8F25
:104F80001C8F0CE010E050E00E94E3152B8D3C8D4F
:104F9000A801420F531F209152012150722F80E02F
:104FA000770F881F770F881F272F382F240F351F63
:104FB000F901319630812091A300321740E008F0CA
:104FC0004FEF2AEA30E05D8D6E8D250F361F200FE2
:104FD000311F270F381FF901329630812091A5002B
:104FE000321720E008F02FEF42232AEA30E0250FA5
:104FF000361F020F131FE72FF82FE00FF11F00815C
:105000000030B0E009F0BFEF0B2F142F10230F8DED
:10501000012B09F4E0C04F923F922F92BFE84B2E34
:10502000B0E05B2E288039800E94A104BFE84B2E9F
:10503000B0E05B2E2090A300B0E03B2E0E94A104C4
:10504000BFE84B2EB0E05B2EB1E03B2EB2E02B2E42
:105050000E944833FE013296B1E3B193B0E2B193BE
:10506000B3E6B193B8E6B193B3E6B193BBE6B193BF
:10507000B5E6B193B4E6B193BAE3B193B0E0B193BE
:105080008E010E5F1F4F2801B1E03B2EB1E02B2EA9
:105090000E9448332F903F904F9025E11BE40FEB87
:1050A0000A95F1F71A95E1F72A95D1F700000091DA
:1050B00077000030B1F50091A600015010E048E102
:1050C00050E00E94E3152AEA30E0020F131F0B8F15
:1050D0001C8F0CE010E04091A90050E00E94E31505
:1050E0002B8D3C8D200F311F00915201015010E09B
:1050F000000F111F000F111F020F131FF80133962D
:1051000000814F923F922F9240905201BFEF3B2E71
:10511000202E0E943A0A2F903F904F90B1E0B0931A
:10512000770025E01FE002EF0A95F1F71A95E1F705
:105130002A95D1F74F923F922F926624B5E05B2ECD
:10514000B2E04B2EB0E32B2EB0E03B2EA6DA2F9030
:105150003F904F90002391F0B0916400B260B09303
:105160006400B0915401BE7FB0935401B0B3BF7BD3
:10517000B0BBB0915401BE7FB09354014F923F92A7
:105180002F92B1E06B2EB5E05B2EB2E04B2EB0E378
:105190002B2EB0E03B2E81DA2F903F904F90009065
:1051A0006400112701FC13950123A9F0B09154016B
:1051B000BE7FB09354014F923F922F924090520184
:1051C000BFEF3B2E22240E943A0A2F903F904F902F
:1051D000B0B3BF7BB0BB4F923F922F924090520131
:1051E000BFEF3B2E22240E943A0A8090EF06709077
:1051F000590160905A015090A40044243324209017
:105200008E00ACDBB4EA8B2EB0E09B2EB5EA6B2EA1
:10521000B0E07B2EB3EA4B2EB0E05B2EBEE82B2E27
:10522000B0E03B2EB6E0BF93BFEEBF93B1E0BF93BB
:10523000B9E5BF93B1E0BF93BAE5BF9397D8ADB7D7
:10524000BEB71696ADBFBEBF2F903F904F90B091A6
:105250006400BD7FB0936400B0E0B0937700B2E02B
:10526000B093A900B0B3BF7BB0BBB0916400BD7F69
:10527000B0936400B0915401B160B0935401B09107
:105280006400BE7FB0936400B0915401B0FFB6C318
:105290000091A600015010E048E150E00E94E315A3
:1052A0000D8F1E8F2AEA30E0020F131F4091A900D4
:1052B00041500B8F1C8F0CE010E050E00E94E31572
:1052C0002B8D3C8DA801420F531F2091520121507C
:1052D000722F80E0770F881F770F881F272F382FB6
:1052E000240F351FF901319630812091A300321728
:1052F00060E009F46FEF4AEA50E02D8D3E8D240FF7
:10530000351F020F131F070F181FF8013296108167
:105310000091A500101700E008F40FEF062329F014
:10532000B0915401BE7FB0935401B0915401B0FBD1
:1053300090F9B1E04B1600E009F40FEF0F8F0091E8
:10534000A600015010E048E150E00E94E3150D8FE7
:105350001E8F2AEA30E0020F131F4091A90041502E
:105360000B8F1C8F0CE010E050E00E94E3152B8D9A
:105370003C8DA801420F531F209152012150722FE2
:1053800080E0770F881F770F881F272F382F240F73
:10539000351FF901319630812091A3003217B0E01A
:1053A00008F0BFEF3B2F2F8D622F632B4AEA50E0AE
:1053B0002D8D3E8D240F351F020F131F070F181F51
:1053C000F801329610810091A5000117B0E008F4B1
:1053D000BFEF0B2F162F102B002790FD03950123F5
:1053E00009F4ECC14F923F922F92B4EA8B2EB0E0B9
:1053F0009B2EB5EA6B2EB0E07B2EB3EA4B2EB0E0CD
:105400005B2EBEE82B2EB0E03B2EB6E0BF93BFEE86
:10541000BF93B1E0BF93B9E5BF93B1E0BF93BAE5E5
:10542000BF930E94B621ADB7BEB71696ADBFBEBF43
:105430002F903F904F900E945B194F923F922F9276
:10544000BFE84B2EB0E05B2E2090A600B0E03B2ED4
:105450000E94A1042F903F904F9000917700003060
:10546000B9F50091A600015010E048E150E00E941B
:10547000E3152AEA30E0020F131F4091A9004150C2
:105480000B8F1C8F0CE010E050E00E94E3152B8D79
:105490003C8D200F311F00915201015010E0000F90
:1054A000111F000F111F020F131FF8013396008107
:1054B0004F923F922F9240905201BFEF3B2E202EF1
:1054C0000E943A0A2F903F904F90B1E0B09377003E
:1054D0000E94EB15B1E04B1609F085C04F923F9248
:1054E0002F92B1E06B2EB5E05B2EB3E04B2EB0E314
:1054F0002B2EB0E03B2ED1D82F903F904F90002321
:1055000009F470C0B0916400B260B0936400B091CF
:105510005401BE7FB09354014F923F922F9240901E
:105520005201BFEF3B2E22240E943A0AB0B3BF7B48
:10553000B0BB0091A600015010E048E150E00E948D
:10554000E3152AEA30E0020F131F4091A9004150F1
:105550000B8F1C8F0CE010E050E00E94E3152B8DA8
:105560003C8D200F311F00915201015010E0000FBF
:10557000111F000F111F020F131FF8013196009128
:10558000A30000830091A600015010E048E150E024
:105590000E94E3152AEA30E0020F131F4091A90090
:1055A00041500B8F1C8F0CE010E050E00E94E3157F
:1055B0002B8D3C8D200F311F00915201015010E0C6
:1055C000000F111F000F111F020F131FF801329659
:1055D0000091A5000083B1E02B2E0E94E60E2F90D3
:1055E0003F904F905DC04F923F922F926624B5E05E
:1055F0005B2EB2E04B2EB0E32B2EB0E03B2E4DD80D
:105600002F903F904F900023F1F0B0916400B26072
:10561000B0936400B0915401BE7FB0935401B0B315
:10562000BF7BB0BB4F923F922F9240905201BFEF91
:105630003B2E22240E943A0AB1E02B2E0E94E60E55
:105640002F903F904F904F923F922F92B1E06B2E50
:10565000B5E05B2EB2E04B2EB0E32B2EB0E03B2E3C
:105660001CD82F903F904F9000906400112701FCB0
:1056700013950123A9F0B0915401BE7FB09354015A
:105680004F923F922F9240905201BFEF3B2E222427
:105690000E943A0A2F903F904F90B0B3BF7BB0BBAF
:1056A0004F923F922F92BFE84B2EB0E05B2EB1E0BD
:1056B0003B2EB1E02B2EECD7FE013296B9E6B1932A
:1056C000B3E7B193B0E2B193B1E4B193B3E4B19372
:1056D000B4E5B193B9E4B193B6E5B193B5E4B19350
:1056E000BAE3B193B0E0B1938E010E5F1F4F280172
:1056F000B8E03B2EB1E02B2ECBD7BFE84B2EB0E06D
:105700005B2E2090A600B0E03B2E0E94A104FE017B
:105710003296B0E5B193B2E7B193BFE6B193B7E685
:10572000B193B0E2B193BEE6B193B5E7B193BDE6F4
:10573000B193BAE3B193B0E0B1938E010E5F1F4F06
:105740002801B1E03B2EB2E02B2EA2D7BFE84B2EB2
:10575000B0E05B2EBAE03B2EB2E02B2E99D729E0C9
:105760001EE105EE0A95F1F71A95E1F72A95D1F7B2
:105770000000FE013296B8E4B193B5E6B193B1E60C
:10578000B193B4E7B193B5E6B193B2E7B193B0E0AA
:10579000B1938E010E5F1F4F18010E94CD102F9004
:1057A0003F904F902DE01DE208ED0A95F1F71A9514
:1057B000E1F72A95D1F7000000001FC1B0B3BF7B0D
:1057C000B0BB4F923F922F9240905201BFEF3B2EC1
:1057D00022240E943A0AFE013296B8E4B193B5E65B
:1057E000B193B1E6B193B4E7B193B5E6B193B2E743
:1057F000B193B0E0B1938E010E5F1F4F18010E946C
:10580000CD1025E01FE002EF0A95F1F71A95E1F7B8
:105810002A95D1F78FD7BFE84B2EB0E05B2E2090B2
:10582000A600B0E03B2E0E94A104BFE84B2EB0E0E2
:105830005B2EB1E03B2EB1E02B2E2AD7FE01329633
:10584000B9E6B193B3E7B193B0E2B193BFE4B193DA
:10585000B6E6B193B6E6B193BAE3B193B0E0B193D3
:105860008E010E5F1F4F2801B8E03B2EB1E02B2EBA
:105870000FD72F903F904F90009177000130D9F5CE
:10588000FE013296B8E4B193B5E6B193B1E6B193B7
:10589000B4E7B193B5E6B193B2E7B193B0E2B19397
:1058A000BFE6B193B6E6B193B6E6B193B0E0B1937B
:1058B0008E010E5F1F4F4F923F922F922801B1E051
:1058C0003B2EB2E02B2EE4D6BFE84B2EB0E05B2E91
:1058D000BAE03B2EB2E02B2EDBD62F903F904F90BC
:1058E0002DE01DE208ED0A95F1F71A95E1F72A95EA
:1058F000D1F70000000000917700003009F03FC0B0
:10590000FE013296B8E4B193B5E6B193B1E6B19336
:10591000B4E7B193B5E6B193B2E7B193B0E2B19316
:10592000B5E4B193B2E7B193B2E7B193BFE6B193F7
:10593000B2E7B193B0E0B1938E010E5F1F4F4F926B
:105940003F922F922801B1E03B2EB2E02B2EA0D641
:10595000BFE84B2EB0E05B2EBAE03B2EB2E02B2E20
:1059600097D62F903F904F902DE01DE208ED0A95BD
:10597000F1F71A95E1F72A95D1F700000000FE0132
:105980003296BFE4B193B6E6B193B6E6B193B0E216
:10599000B193B0E7B193B7E7B193BDE6B193B0E28D
:1059A000B193B8E6B193B5E6B193B1E6B193B4E77C
:1059B000B193B5E6B193B2E7B193B0E2B193BDE66E
:1059C000B193BFE6B193B4E6B193B5E6B193B0E05D
:1059D000B1938E010E5F1F4F4F923F922F9228017D
:1059E000B1E03B2EB1E02B2E53D62F903F904F903D
:1059F000B0915401BE7FB093540146CCB091540194
:105A0000BE7FB0935401B2E0B093A900B2E0B0936E
:105A10005201B0915401B160B0935401B2E0B0931F
:105A20008300B0916400B160B09364004F923F92E4
:105A30002F9280D6FE013296B7E5B193B1E6B193CD
:105A4000B4E7B193B9E6B193BEE6B193B7E6B193CB
:105A5000B0E2B193B6E6B193BFE6B193B2E7B193CA
:105A6000B0E2B193BAE3B193B0E0B1938E010E5FAF
:105A70001F4F2801B1E03B2EB1E02B2E09D6FE01CD
:105A80003296B0E5B193B2E7B193B5E6B193B3E71F
:105A9000B193B3E7B193B9E6B193BEE6B193B7E67C
:105AA000B193B0E2B193BDE4B193BFE6B193B4E773
:105AB000B193BFE6B193B2E7B193B0E2B193BDE663
:105AC000B193B9E6B193B3E6B193B2E7B193BFE650
:105AD000B193B0E2B193B3E5B193B7E5B193B0E060
