:100000000C94763D0C9400000C9400000C940000BD
:100010000C94413D0C9400000C9400000C940000E2
:100020000C9400000C9400000C9400000C945A3DB9
:100030000C9400000C9400000C9400000C94000040
:100040000C9400000C9400000C9400000C94000030
:100050000C940000F6D021F0662309F0ABD0989400
:100060000895F8DF09F441C0E62ED52EC42EB32E34
:10007000A22E912E802E002D112D222D332DEADF60
:1000800009F43DC0842F952F8C199D09B9F072F4A5
:100090009095809501964C2D5D2D883180F5359594
:1000A0002795179507950197D1F708C08831E8F48F
:1000B000B594A794979487940197D1F766272EF06B
:1000C000080D191D2A1D3B1D09C0801A910AA20A9C
:1000D000B30A082D192D2A2D3B2D332312F46AD093
:1000E00060E82FD001C01BD016C0002D112D222D8D
:1000F000332DD6F71ED0C1F340E83427F5CF082DB5
:10010000192D2A2D3B2D4C2D5D2D6E2D33235AF7A5
:1001100051D060E8E8CF08956894A3DF089509D02E
:1001200039F041585F4F342F220F36952795362BE3
:100130000895002329F4112319F4222309F4332309
:100140000895F7DF11F19F938F938EE790E03323AB
:1001500051F0369527951795079548175907B4F428
:100160004F5F5F4FF4CF80959095019622239AF0D0
:10017000000F111F221F481759071CF04150504013
:10018000F5CF002711272227332708C033270FEF89
:10019000102F2FE7322F8F919F91C1DF0895BCDF81
:1001A000332332F0C6DF11F001E003C0002701C0A5
:1001B0000FEF089500951095209530950F5F1F4F14
:1001C0002F4F3F4F08953DD081F1E62ED52EC42EFE
:1001D000B32EA22E912E802E002D112D222D332DE7
:1001E00030D019F16E254C0D5D1D40385307F4F4E5
:1001F00041387FEF5707FCF088279927AA27BB27AC
:1002000070E2B695A7959795879537952795179599
:10021000079520F4880D991DAA1DBB1D7A9589F7B5
:10022000032F3A2F292F182F8CDF0AC00FEF102F22
:100230002FE73FE7FACF0027102F202F302FF5CFE1
:10024000089577DF79F0632F6078220F331F432FF3
:100250005FE7451B55275040269530E8232B332771
:10026000989403C0442755276627089547E16627D9
:10027000552726F0332312F49DDF60E862DF0895EE
:10028000042E152E262E372E8ADF00230895E8949B
:10029000E8DE0895C9019A01AB01B80197FB092E68
:1002A00005260ED057FD04D014D00AD0001C38F417
:1002B00050954095309521953F4F4F4F5F4F089592
:1002C000F6F790958095709561957F4F8F4F9F4F72
:1002D0000895A1E21A2EAA1BBB1BFD010DC0AA1F87
:1002E000BB1FEE1FFF1FA217B307E407F50720F09F
:1002F000A21BB30BE40BF50B661F771F881F991F1A
:100300001A9469F760957095809590959B01AC0162
:10031000BD01CF010895B4DF1CF40024039401C093
:1003200000240895042E152E262E372EB0DF002E21
:10033000112E222E332E089584DFF1F05523C2F0C2
:100340004F31A8F44731C1F050F44195495E05C0E2
:1003500035952795179507954A95D1F70DC04751C3
:10036000000F111F221F331F4A95D1F705C03FE729
:10037000232F132F032F03C0662309F01BDF0895DB
:10038000E89474DF0895042E152E262E372EC4DE31
:10039000002E112E222E332E0895042E152E262ED9
:1003A000372E11DF002E112E222E332E0895002E0F
:1003B000112E222E332E042F152F262F372FEFDE4E
:1003C00000231CF00024039401C000240895CF935F
:1003D000DF93CDB7DEB72397CDBFDEBF2196B0E860
:1003E0005B1641F4B0E04B1629F4B0E03B1611F473
:1003F000B0E02B16D1F4F301BDE2B193B2E3B193B7
:10040000B1E3B193B4E3B193B7E3B193B4E3B19380
:10041000B8E3B193B3E3B193B6E3B193B4E3B1936B
:10042000B8E3B193B0E0B1937BC0B0E0BA8300E031
:1004300010E020E030E0201631064206530664F456
:10044000BFEFBA8300E010E020E030E002191309AA
:100450002409350918012901F301B0E2B193B0E292
:10046000B193B0E2B193B0E2B193B0E2B193B0E234
:10047000B193B0E2B193B0E2B193B0E2B193B0E224
:10048000B193B0E3B193B0E0B1938301065F1F4F26
:1004900008831983B0E05B1641F4B0E04B1629F4F1
:1004A000B0E03B1611F4B0E02B1699F17F926F92F9
:1004B0005F924F923F922F924AE050E060E070E0EE
:1004C00081019201E7DE8B019C012F903F904F90BC
:1004D0005F90005DE881F98100835F924F923F92C7
:1004E0002F924AE050E060E070E081019201D2DE9C
:1004F00089019A012F903F904F905F906F907F906D
:1005000018012901088119810150104008831983BD
:10051000C1CF0A81002321F0E881F981BDE2B083D7
:100520002296CDBFDEBFDF91CF910895CF93DF93A9
:10053000CDB7DEB72397CDBFDEBF2196B0E83B161F
:1005400011F4B0E02B1681F4F201BDE2B193B3E3F4
:10055000B193B2E3B193B7E3B193B6E3B193B8E328
:10056000B193B0E0B19351C0B0E0BA8300E010E0C5
:10057000201631063CF4BFEFBA8300E010E0021908
:1005800013091801F201B0E2B193B0E2B193B0E205
:10059000B193B0E2B193B0E2B193B0E3B193B0E004
:1005A000B19382010B5F1F4F08831983B0E03B16A4
:1005B00011F4B0E02B1611F15F924F923F922F92FF
:1005C0004AE050E081017FD68C012F903F90005D82
:1005D000E881F98100833F922F924AE050E0810147
:1005E00072D68B012F903F904F905F901801088139
:1005F00019810150104008831983D8CF0A81002344
:1006000021F0E881F981BDE2B0832296CDBFDEBF43
:10061000DF91CF910895B0E0BBBD2ABC0895CF9380
:10062000DF93CDB7DEB7A197CDBFDEBF2196B0E097
:10063000BE8F8101920180DE088319832A833B8368
:100640005F924F923F922F9240E050E060E070E066
:100650008101920160DE002800E009F00FEF2F9089
:100660003F904F905F90002311F0BFEFBE8F8E013F
:100670000A5F1F4F7F926F925F924F923F922F922D
:100680003801288039804A805B80A1DE2F903F901E
:100690004F905F906F907F90088119812A813B81F4
:1006A0006FDE5F924F923F922F92A801B9018101B4
:1006B000920169DE40E050E563EC77E46EDE2F9056
:1006C0003F904F905F9038DE088319832A833B83E5
:1006D00040E050E060E070E0041715072607370798
:1006E00084F40880198000E010E0001911090A80E4
:1006F0001B8020E030E020093109088319832A8318
:100700003B838E010E5E1F4F7F926F925F924F92DE
:100710003F922F923801288039804A805B8057DED3
:100720002F903F904F905F906F907F9040E050E00F
:10073000B0E0BC83BD83F301B0E2B193B0E2B1930A
:10074000B0E2B193B0E2B193B0E2B193B0E2B19351
:10075000B0E2B193B0E2B193B0E2B193B0E2B19341
:10076000B0E3B193B0E0B1935F934F9381019201F5
:10077000E3DD303029F4203019F4103009F4003072
:10078000B0E009F4BFEF0B2F08A340E050E060E0B9
:1007900070E081019201BFDD002800E009F00FEF59
:1007A0004F915F9118A10123002341F0F301BDE2B5
:1007B000B08311E020E0412F522F00C02E81203263
:1007C00081F40C811D8198012F5F3F4F2C833D8365
:1007D0008E010A5F1F4FF901E00FF11F0081202FEA
:1007E000EECF022F0030D1F0FA01E60DF71D0083A5
:1007F0000C811D8198012F5F3F4F2C833D838A011F
:100800000F5F1F4FB8018E010A5F1F4FF901E00F04
:10081000F11F0081202F022FAB01E4CF0E8D00309D
:1008200010E009F41FEF503009F4403000E009F403
:100830000FEF012351F0FA01E60DF71DB0E3B0838D
:100840008A010F5F1F4F980101C09A01303009F4EF
:10085000213010E009F41FEF0E8D012359F0F9014A
:10086000E60DF71DB0E3B08389010F5F1F4FA801AC
:100870009A0100C0F901E60DF71DBEE2B0838901BF
:100880000F5F1F4FA801B6E0BC83B0E0BD83288D89
:100890002030F9F0203219F420E3022F01C0022F9A
:1008A000FA01E60DF71D00830C811D8198012F5F71
:1008B0003F4F2C833D838A010F5F1F4FB8018E018C
:1008C0000E5E1F4FF901E00FF11F0081AB01202FD9
:1008D000DFCFFA01E60DF71DB0E0B083A096CDBFE3
:1008E000DEBFDF91CF91089523BC08952CBE0895FB
:1008F00023BC0895B1E14B1619F43BBC2ABC06C0D9
:10090000B2E14B1619F439BC28BC00C00895B0E020
:10091000B9BD28BC08956894A9DC0895C801BA013E
:10092000AA1BBB1B51E107C0AA1FBB1FA617B70715
:1009300010F0A61BB70B881F991F5A95A9F7809531
:1009400090950895CF93DF93CDB7DEB72497CDBFB1
:10095000DEBF2196152D110FB7E0042D0695BA952F
:10096000E9F7010F0F57202F30E007FD3FEF00E0C0
:1009700010E020173107DCF440E050E060E070E068
:100980008101920114DD002800E009F00FEF00233F
:1009900031F0B0E0B883B983BA83BB8307C0B0E05D
:1009A000B883B983B0E8BA83BFE3BB832AC008E148
:1009B000021728F4288239824A825B8222C0810190
:1009C0009201BADCDDDC088319832A833B83A10111
:1009D000B201088119812A813B819DDC002800E059
:1009E00009F00FEF002369F0088119812A813B810A
:1009F00040E050E060E87FE395DC088319832A83B8
:100A00003B83088119812A813B812396CDBFDEBFBC
:100A1000DF91CF9108950190002011F00D92D9F748
:100A20000895CF93DF93CDB7DEB72797CDBFDEBF55
:100A30002196B1E0B883B1E0BA83B1E0B98309810E
:100A4000201608F4DEC00881015010E04AEC52E0A4
:100A50000E94091325EB30E0020F131F4A81415019
:100A60000D831E8305E611E050E00E9409132D81DD
:100A70003E81020F131F498141500D831E8303E302
:100A800010E050E00E9409132D813E81F801E20F31
:100A9000F31FB0E2B193B0E2B193B0E2B193B0E230
:100AA000B193B0E2B193B0E2B193B0E2B193B0E2EE
:100AB000B193B0E2B193B0E2B193B0E2B193B0E2DE
:100AC000B193B0E2B193B0E2B193B0E2B193B0E2CE
:100AD000B193B0E0B1930881015010E04AEC52E0CC
:100AE0000E94091325EB30E0020F131F4A81415089
:100AF0000D831E8305E611E050E00E9409132D814D
:100B00003E81020F131F498141500D831E8303E371
:100B100010E050E00E9409132D813E81020F131F47
:100B2000F8017196B0E2B193B0E2B193B0E2B19343
:100B3000B0E2B193B0E2B193B0E2B193B0E2B1935D
:100B4000B0E2B193B0E2B193B0E2B193B0E2B1934D
:100B5000B0E2B193B0E2B193B0E2B193B0E2B1933D
:100B6000B0E2B193B0E0B1930881015010E04AECDB
:100B700052E00E94091325EB30E0020F131F4A8157
:100B800041500D831E8305E611E050E00E940913D9
:100B90002D813E81020F131F498141500D831E8319
:100BA00003E310E050E00E9409132D813E81020F03
:100BB000131FF801B296B1E3B193B0E0B1930A818B
:100BC0000150202F30E0220F331F01EB10E0F9011C
:100BD000E00FF11FB0E0B0830A810150202F30E018
:100BE000220F331F01EB10E0020F131FF8013196A3
:100BF000B0E0B0830981021521F009810F5F0983FC
:100C00001ECF0A81023021F00A810F5F0A8315CFBF
:100C10000881023021F008810F5F08830CCF2696EF
:100C2000CDBFDEBFDF91CF910895CF93DF93CDB7D6
:100C3000DEB72297CDBFDEBF2196022D015010E016
:100C40004AEC52E00E94091325EB30E0020F131F1B
:100C5000432D41500883198305E611E050E00E94BE
:100C6000091328813981020F131FF8017196B0E52D
:100C7000B193B2E7B193BAE3B193B0E2B193B0E20A
:100C8000B193B2E3B193B0E2B193B3E3B193B0E205
:100C9000B193B4E3B193B0E2B193B5E3B193B0E2F1
:100CA000B193B6E3B193B0E2B193B7E3B193B0E0DF
:100CB000B193022D015010E04AEC52E00E9409135A
:100CC00025EB30E0020F131F432D41500883198399
:100CD00005E611E050E00E94091328813981020FD6
:100CE000131F0D5C1F4FF8017196B0E5B193B2E789
:100CF000B193BAE3B193B1E3B193B0E2B193B0E28F
:100D0000B193B0E2B193B3E3B193B0E2B193B4E382
:100D1000B193B0E2B193B5E3B193B0E2B193B6E36E
:100D2000B193B0E2B193B7E3B193B0E0B193022DC8
:100D3000015010E04AEC52E00E94091325EB30E02C
:100D4000020F131F432D41500883198305E611E05C
:100D500050E00E94091328813981020F131F0A599C
:100D60001F4FF8017196B0E5B193B2E7B193BAE3C2
:100D7000B193B1E3B193B0E2B193B2E3B193B0E216
:100D8000B193B0E2B193B0E2B193B4E3B193B0E206
:100D9000B193B5E3B193B0E2B193B6E3B193B0E2EE
:100DA000B193B7E3B193B0E0B193022D015010E0DD
:100DB0004AEC52E00E94091325EB30E0020F131FAA
:100DC000432D41500883198305E611E050E00E944D
:100DD000091328813981020F131F07561F4FF8018D
:100DE0007196B0E5B193B2E7B193BAE3B193B1E3D1
:100DF000B193B0E2B193B2E3B193B0E2B193B3E394
:100E0000B193B0E2B193B0E2B193B0E2B193B5E384
:100E1000B193B0E2B193B6E3B193B0E2B193B7E36B
:100E2000B193B0E0B193022D015010E04AEC52E0D2
:100E30000E94091325EB30E0020F131F432D415090
:100E40000883198305E611E050E00E940913288108
:100E50003981020F131F04531F4FF8017196B0E53B
:100E6000B193B2E7B193BAE3B193B1E3B193B0E216
:100E7000B193B2E3B193B0E2B193B3E3B193B0E213
:100E8000B193B4E3B193B0E2B193B0E2B193B0E205
:100E9000B193B6E3B193B0E2B193B7E3B193B0E0ED
:100EA000B193022D015010E04AEC52E00E94091368
:100EB00025EB30E0020F131F432D415008831983A7
:100EC00005E611E050E00E94091328813981020FE4
:100ED000131F01501F4FF8017196B0E5B193B2E7AF
:100EE000B193BAE3B193B1E3B193B0E2B193B2E39A
:100EF000B193B0E2B193B3E3B193B0E2B193B4E391
:100F0000B193B0E2B193B5E3B193B0E2B193B0E283
:100F1000B193B0E2B193B7E3B193B0E0B193022DD6
:100F2000015010E04AEC52E00E94091325EB30E03A
:100F3000020F131F432D41500883198305E611E06A
:100F400050E00E94091328813981020F131F0E5CA3
:100F50001E4FF8017196B0E5B193B2E7B193BAE3D1
:100F6000B193B1E3B193B0E2B193B2E3B193B0E224
:100F7000B193B3E3B193B0E2B193B4E3B193B0E210
:100F8000B193B5E3B193B0E2B193B6E3B193B0E2FC
:100F9000B193B0E2B193B0E0B1932196CDBFDEBF83
:100FA000DF91CF910895BB27AA279927882700FFB3
:100FB00004C0840F951FA61FB71F440F551F661F3F
:100FC000771F369527951795079589F7305020405C
:100FD000100769F79D018C010895CF93DF93CDB77A
:100FE000DEB72697CDBFDEBF21962F923F924F925C
:100FF0005F926F927F92022D10E0432D50E00E948D
:10100000091344E650E08ADC8C0120E0322F83DCB7
:101010004F923F922F921801290194DC0A831B837F
:101020002C833D83B3E96B2EB0E07B2E18012901A0
:10103000F6DA0A811B812C813D817ED908831983D0
:10104000B9E44B2EB6E05B2E180170DA2F903F907A
:101050004F90B2E04B16A1F52F920E94F429B3E90C
:101060004B2EB0E05B2EB1E03B2EB1E02B2E0E9468
:101070009A39B9E44B2EB6E05B2EB6E03B2EB2E0D7
:101080002B2E0E949A392F90B9E44B2EB6E05B2E9E
:10109000B0E03B2E4BDAB9E44B2EB6E05B2EB1E06C
:1010A0003B2EB2E02B2E0E949A39B2E14B2E2880C3
:1010B000398020DCB2E14B2E288039801BDCBEC099
:1010C000B1E04B16A1F52F920E94F429B3E94B2E03
:1010D000B0E05B2EB1E03B2EB1E02B2E0E949A399E
:1010E000B9E44B2EB6E05B2EB6E03B2EB2E02B2EE1
:1010F0000E949A392F90B9E44B2EB6E05B2EB0E0F7
:101100003B2E14DAB9E44B2EB6E05B2EB1E03B2E59
:10111000B2E02B2E0E949A39B1E14B2E2880398003
:10112000E9DBB1E14B2E28803980E4DB87C0BEE1EA
:101130004B16B9F4B0E02B1629F4232CB0E03B2E6B
:10114000D5DB0EC0231421F422243324CFDB08C0C6
:1011500008801980032D10E0001911091801C6DB61
:101160006DC0B1E24B1659F4B0E02B1621F4288083
:101170003980BCDB03C028803980B8DB5FC0B4E0B5
:101180004B1659F4B0E02B1621F422243324B0DBA3
:1011900003C028803980ACDB51C0B7E34B1619F48B
:1011A0002880A2DB4BC0BDE24B1631F4B2E04B2EDF
:1011B000288039809FDB42C0B2E34B1619F42880A7
:1011C00093DB3CC0B9E14B16A9F4B0E02B1649F40F
:1011D00008801980032D10E00019110918011BDA8D
:1011E00008C008801980032D10E0001911091801AA
:1011F00012DA24C0B3E24B16A9F4B0E02B1649F47E
:1012000008801980032D10E00019110918017FDBF7
:1012100008C008801980032D10E000191109180179
:1012200076DB0CC0B5E04B1609F408C0B6E04B16EF
:1012300009F404C0B7E04B1609F400C07F906F902A
:101240005F904F903F902F902596CDBFDEBFDF91EE
:10125000CF910895CF93DF93CDB7DEB725962F9228
:101260003F924F925F9208811981088319830A8106
:101270001B810A831B830C810C830D811E810F81CE
:10128000013071F42101B1E03B2E262C0E949A39E5
:1012900048805980B1E03B2E2C800E949A390CC0C6
:1012A000B1E03B2E262C0E949A394A805B80B1E047
:1012B0003B2E2C800E949A395F904F903F902F9048
:1012C000DF91CF910895C801BA0197FB092E072637
:1012D0000AD077FD04D00CD006D000201AF4709507
:1012E00061957F4F0895F6F7909581959F4F0895EA
:1012F000AA1BBB1B51E107C0AA1FBB1FA617B7073C
:1013000010F0A61BB70B881F991F5A95A9F7809557
:101310009095BC01CD0108950895B0916900B1FD8B
:1013200008C0B0B3B064B0BBB0916900B260B09314
:1013300069000895CF93DF93CDB7DEB76397CDBF34
:10134000DEBF2196B0916900B062B0936900B091A0
:101350006900BF7BB0936900B1E0B093AF00B1E02A
:10136000B093AE002F92232C5CDB2F90B1E02B2E9C
:10137000321408F480C00091AF00015010E04AEC34
:1013800052E00E94091325EB30E0020F131F409139
:10139000AE004150098B1A8B05E611E050E00E9427
:1013A000091329893A89020F131F422D4150098BD5
:1013B0001A8B03E310E050E00E94091329893A894F
:1013C000020F131F9801AC2FBD2FF20124DB00E2A6
:1013D0000D93F30120DB00E20D93F4011CDB00E030
:1013E0000D93A22FB32FFE0116DB00E00D930091A9
:1013F000AF00015010E04AEC52E00E94091325EBC7
:1014000030E0020F131F4091AE004150098B1A8B40
:1014100005E611E050E00E94091329893A89020F7C
:10142000131F422D4150098B1A8B03E310E050E04B
:101430000E94091329893A89020F131F98012F5E10
:101440003F4FAC2FBD2FF201E6DA00E20D93F3011E
:10145000E2DA00E20D93F401DEDA00E00D93A22F50
:10146000B32FFE01D8DA00E00D93231421F0022DF2
:101470000F5F202E7DCFB2E0B093AE00B1E02B2EF7
:101480000091AF00015010E04AEC52E00E940913B5
:1014900025EB30E0020F131F0B591E4FF801719618
:1014A000BEE5B193BEE5B193BEE5B193BEE5B193A0
:1014B000B0E2B193B0E2B193B0E2B193B0E2B193D4
:1014C000B0E2B193B0E2B193B0E2B193B0E2B193C4
:1014D000B0E2B193B0E2B193B0E2B193B0E2B193B4
:1014E000B0E0B193B2E02B2E0091AF00015010E0BC
:1014F0004AEC52E00E94091325EB30E0020F131F63
:101500004091AE004150098B1A8B05E611E050E086
:101510000E94091329893A89020F131F0D5C1F4F7E
:10152000F8017196B0E2B193B0E2B193B0E2B19339
:10153000B0E2B193B0E2B193BEE5B193BEE5B19331
:10154000BEE5B193BEE5B193B0E2B193B0E2B19321
:10155000B0E2B193B0E2B193B0E2B193B0E2B19333
:10156000B0E2B193B0E0B193B3E02B2E0091AF00A5
:10157000015010E04AEC52E00E94091325EB30E0E4
:10158000020F131F4091AE004150098B1A8B05E6E4
:1015900011E050E00E94091329893A89020F131FB4
:1015A0000A591F4FF8017196B0E2B193B0E2B193BE
:1015B000B0E2B193B0E2B193B0E2B193B0E2B193D3
:1015C000B0E2B193B0E2B193B0E2B193B0E2B193C3
:1015D000B0E2B193BEE5B193BEE5B193BEE5B19380
:1015E000BEE5B193B0E2B193B0E0B193B2E0B09395
:1015F000AF00B1E0B093AE00B1E02B2E321408F48E
:1016000043C00091AF00015010E04AEC52E00E944C
:10161000091325EB30E0020F131F098B1A8B05E627
:1016200011E04091AE0050E0F4D729893A89020FC9
:10163000131F422D4150098B1A8B03E310E050E039
:10164000E8D729893A89F801E20FF31FB0E2B19394
:10165000B9E6B193B3E7B193B0E2B193B3E7B19315
:10166000B5E6B193BCE6B193B3E6B193B4E7B193F9
:10167000B5E6B193B4E6B193B0E0B193231421F091
:10168000022D0F5F202EBACFB1E02B2E0091AF00BC
:10169000015010E04AEC52E0BCD725EB30E0020FDD
:1016A000131F4091AE004150098B1A8B05E611E0E3
:1016B00050E0AFD729893A89020F131FA02FB12F0D
:1016C000F201A9D900E20D9300E20D9303E70D9317
:1016D00005E60D9304E70D9304E70D9309E60D93DA
:1016E0000EE60D9307E60D9300E20D9300E20D93D5
:1016F00000E20D9300E20D9300E00D93B2E02B2E7B
:101700000091AF00015010E04AEC52E082D725EB87
:1017100030E0020F131F4091AE004150098B1A8B2D
:1017200005E611E050E075D729893A89020F131FA9
:101730000D5C1F4FA02FB12FF3016DD900E20D9367
:1017400003E70D9305E60D9304E70D9304E70D936E
:1017500009E60D930EE60D9307E60D9300E20D9357
:1017600000E20D9300E20D9300E20D9300E00D9373
:10177000B3E02B2E0091AF00015010E04AEC52E094
:1017800048D725EB30E0020F131F4091AE004150C7
:10179000098B1A8B05E611E050E03BD729893A897D
:1017A000020F131FF801EA59FF4FB5E4B193B8E7F0
:1017B000B193B9E6B193B4E7B193B9E6B193BEE69C
:1017C000B193B7E6B193B0E2B193B0E2B193B0E2B6
:1017D000B193B0E2B193B0E2B193B0E2B193B0E2B1
:1017E000B193B0E2B193B0E2B193B0E2B193B0E0A3
:1017F000B193B1E02B2E6296CDBFDEBFDF91CF91CA
:101800000895CF93DF93CDB7DEB76E97CDBFDEBF20
:1018100021967F928F92B1E0B093AF00B1E0B09388
:10182000AE006F925F924F923F922F920E94F429E6
:101830002F903F904F905F906F90B0E02B1621F467
:10184000022D0F5F0C8301C02C82B0916900B06241
:10185000B0936900B0E0B983B0E0BA83B0E0BD8373
:10186000B0E0BB83B0916900BF7BB0936900B091D9
:101870006900B5FF34C4B1E0B093AF00B1E0B093FC
:10188000AE00521428F4452D022D7AD7092F0C836F
:101890000C81003011F4B1E0BC830D81023011F4F1
:1018A000B0E0BD830D810F5F0D83B0E06B1609F4CE
:1018B000ABC00091AF00015010E04AEC52E0A9D655
:1018C0000C8F1D8F25EB30E0020F131F4091AE00EF
:1018D00041500A8B1B8B05E611E050E09AD62A890D
:1018E0003B890C8B1D8B020F131F4C8141500A8BBF
:1018F0001B8B03E310E050E08CD62A893B89200F34
:10190000311F2A8F3B8F25EB30E06C8D7D8D260FAC
:10191000371F4C895D89240F351F200F311F2F5E23
:101920003F4F288F398F25EB30E0260F371F240FCC
:10193000351F020F131F0E5D1F4F0E8B1F8B05EB04
:1019400010E0060F171F0A8B1B8B05E611E0409174
:10195000AE0050E05ED62A893B890C8B1D8B020FAE
:10196000131F462D41500A8B1B8B03E310E050E000
:1019700050D62A893B89702E812E720E831E25EB4C
:1019800030E06C8D7D8D260F371F4C895D89240FCB
:10199000351F200F311F922FA32F9F5EAF4F209135
:1019A000AE00822F8F5F25EB30E0260F371F240F0C
:1019B000351F020F131FB8016E5D7F4F4A8D5B8D7F
:1019C000288D398D0E891F896F925F924F923F92B9
:1019D0002F920D810F937F936F938F93AF939F936C
:1019E0008F927F92702E812E6090AE0029011A0195
:1019F00031DCADB7BEB71896ADBFBEBF2F903F90DC
:101A00004F905F906F900DC10091AF00015010E0BA
:101A10004AEC52E0FED50C8F1D8F25EB30E0020F13
:101A2000131F4091AE0041500A8B1B8B05E611E05D
:101A300050E0EFD52A893B890C8B1D8B020F131FB9
:101A40004C8141500A8B1B8B03E310E050E0E1D541
:101A50002A893B890A8F1B8F200F311F288F398FCE
:101A600025EB30E06C8D7D8D260F371F4C895D890D
:101A7000240F351F200F311F2F5E3F4F2E8B3F8BC2
:101A800025EB30E0260F371F240F351F020F131FE1
:101A90000E5D1F4F0C8B1D8B05EB10E0060F171F03
:101AA0000A8B1B8B05E611E04091AE0050E0B1D5EA
:101AB0002A893B89200F311F6A8D7B8D762E872ED8
:101AC000720E831E25EB30E04C8D5D8D240F351F8B
:101AD000200F311F260F371F922FA32F9F5EAF4F6E
:101AE0002091AE00822F8F5F25EB30E0240F351F51
:101AF000020F131F060F171FB8016E5D7F4F488D31
:101B0000598D2E893F890C891D896F925F924F9262
:101B10003F922F920D810F937F936F938F93AF938B
:101B20009F938F927F92702E812E6090AE0029013C
:101B30001A0190DBADB7BEB71896ADBFBEBF2F90F0
:101B40003F904F905F906F900091AE000150202F1A
:101B500030E0220F331F01EB10E0020F131FF801DA
:101B600031960081003039F16F925F924F923F922F
:101B70002F92B9E43B2EB6E04B2E0E94A126009195
:101B8000AE000150202F30E0220F331F01EB10E098
:101B9000020F131FF80131960081B9E44B2EB6E015
:101BA0005B2E302E2090AE000E949A392F903F90ED
:101BB0004F905F906F900091AE00202F30E0220F89
:101BC000331F01EB10E0020F131FF8013196008163
:101BD000003039F16F925F924F923F922F92B9E4A9
:101BE0003B2EB6E04B2E0E94A1260091AE00402F66
:101BF0004F5F202F30E0220F331F01EB10E0020F68
:101C0000131FF80131960081B9E44B2EB6E05B2E2C
:101C1000302E242E0E949A392F903F904F905F9043
:101C20006F90B1E0B093B0001091B00005E00117E3
:101C300008F452C20091B0000F5F0093B0006F92A1
:101C40005F924F923F922F92B1E06B2E5524B1E0FC
:101C50004B2EB6E32B2EB0E03B2E0E9490242F900B
:101C60003F904F905F906F90002399F0B1E0B9835F
:101C70006F925F924F923F922F92B1E02B2E0E9473
:101C8000BA182F903F904F905F906F90B6E0B0934E
:101C9000B0006F925F924F923F922F92662455242C
:101CA000B1E04B2EB6E32B2EB0E03B2E0E949024E9
:101CB0002F903F904F905F906F9019810123A9F072
:101CC000231411F4242C03C0022D0F5F202E0C814D
:101CD000051519F4B1E0BC8303C00C810F5F0C83C0
:101CE000B0E0B983B6E0B093B0006F925F924F92CC
:101CF0003F922F92B1E06B2E5524B4E04B2EB6E309
:101D00002B2EB0E03B2E0E9490242F903F904F90BE
:101D10005F906F90002399F0B1E0BA836F925F9269
:101D20004F923F922F92B1E02B2E0E94BA182F9023
:101D30003F904F905F906F90B6E0B093B0006F927D
:101D40005F924F923F922F9266245524B4E04B2E1F
:101D5000B6E32B2EB0E03B2E0E9490242F903F90B4
:101D60004F905F906F901A810123A1F0241411F419
:101D7000232C03C0022D0150202E0C81013011F4C0
:101D80005C8203C00C8101500C83B0E0BA83B6E0E2
:101D9000B093B00020921907B2E0B093AF00B091B9
:101DA0006900BF7BB09369006F925F924F923F9240
:101DB0002F9266245524B2E04B2EB6E32B2EB0E0D2
:101DC0003B2E0E9490240030B0E009F0BFEF0B2FB3
:101DD0000A8B662455244424B6E32B2EB0E03B2E18
:101DE0000E9490242F903F904F905F906F90003012
:101DF00010E009F01FEF0A89012B99F0B1E0BB83D5
:101E00006F925F924F923F922F92B1E02B2E0E94E1
:101E1000BA182F903F904F905F906F90B6E0B093BC
:101E2000B0006F925F924F923F922F92B1E06B2E73
:101E30005524B2E04B2EB6E32B2EB0E03B2E0E9491
:101E400090241B8101230A8B1090690000901807D1
:101E5000E89415FC00FE01C0689430F8B1E06B2EE8
:101E600055244424B6E32B2EB0E03B2E0E94902450
:101E70002F903F904F905F906F90112730FC1395FB
:101E800010230A89012B09F420C1B0E0BB83B09173
:101E90006900BF7DB0936900B6E0B093B0000091D7
:101EA0001707102F1F5F1093170700911A071017BD
:101EB00019F4B1E0B09317070091AF00015010E0A2
:101EC0004AEC52E0A6D30C8F1D8F25EB30E0020FB9
:101ED000131F4091AE0041500A8B1B8B05E611E0A9
:101EE00050E097D32A893B890C8B1D8B020F131F5F
:101EF0004C8141500A8B1B8B03E310E050E089D3E7
:101F00002A893B890A8F1B8F200F311F288F398F19
:101F100025EB30E06C8D7D8D260F371F4C895D8958
:101F2000240F351F200F311F2F5E3F4F2E8B3F8B0D
:101F300025EB30E0260F371F240F351F020F131F2C
:101F40000E5D1F4F0C8B1D8B05EB10E0060F171F4E
:101F50000A8B1B8B05E611E04091AE0050E059D38F
:101F60002A893B89200F311F6A8D7B8D762E872E23
:101F7000720E831E25EB30E04C8D5D8D240F351FD6
:101F8000200F311F260F371F922FA32F9F5EAF4FB9
:101F90002091AE00822F8F5F25EB30E0240F351F9C
:101FA000020F131F060F171FB8016E5D7F4F488D7C
:101FB000598D2E893F890C891D896F925F924F92AE
:101FC0003F922F920D810F937F936F938F93AF93D7
:101FD0009F938F927F92702E812E6090AE00290188
:101FE0001A0138D9ADB7BEB71896ADBFBEBF2F9096
:101FF0003F904F905F906F900091AE000150202F66
:1020000030E0220F331F01EB10E0F901E00FF11F68
:102010000081003031F16F925F924F923F922F9288
:10202000B9E43B2EB6E04B2E0E94A1260091AE00F3
:102030000150202F30E0220F331F01EB10E0F90197
:10204000E00FF11F0081B9E44B2EB6E05B2E302E7D
:102050002090AE000E949A392F903F904F905F9051
:102060006F900091AE00202F30E0220F331F01EB64
:1020700010E0F901E00FF11F0081003031F16F92A3
:102080005F924F923F922F92B9E43B2EB6E04B2ED7
:102090000E94A1260091AE00402F4F5F202F30E01C
:1020A000220F331F01EB10E0F901E00FF11F008157
:1020B000B9E44B2EB6E05B2E302E242E0E949A39C6
:1020C0002F903F904F905F906F9018E605EE0A9525
:1020D000F1F71A95E1F7A8CD20921907C8CB009126
:1020E0001907088325E11BE40FEB0A95F1F71A9510
:1020F000E1F72A95D1F7000008818F907F906D96C7
:10210000CDBFDEBFDF91CF910895CF93DF93CDB7E1
:10211000DEB72C97CDBFDEBF21963F924F925F92E4
:10212000B1E02B1609F09BC051E00091630601500D
:102130005F9310E048E150E06CD25F9124E636E016
:10214000020F131F452F41500A871B875F930CE036
:1021500010E050E05ED22A853B85200F311F0091B0
:102160000C07015010E0000F111F000F111F020F8C
:10217000131FF801319600917000008300916306EF
:10218000015010E048E150E044D25F9124E636E08F
:10219000020F131F452F41500A871B875F930CE0E6
:1021A00010E050E036D25F912A853B85200F311F29
:1021B00000910C07015010E0000F111F000F111FBC
:1021C000020F131FF8013296009174000083523001
:1021D00021F0052F0F5F502FA8CF2F920E94F429D6
:1021E000FE01B3E5B193B1E6B193B6E7B193B9E6B9
:1021F000B193BEE6B193B7E6B193B0E0B1938E016F
:102200002801B1E03B2EB1E02B2E0E949A39FE014D
:10221000BFE4B193BEE6B193B0E2B193B5E4B1933C
:10222000B5E4B193B0E5B193B2E5B193BFE4B19336
:10223000BDE4B193B0E0B1938E012801B1E03B2E33
:10224000B2E02B2E0E949A392F9029E01EE105EE74
:102250000A95F1F71A95E1F72A95D1F700005F90FA
:102260004F903F902B96CDBFDEBFDF91CF91089569
:10227000CF93DF93CDB7DEB72297CDBFDEBF2196D8
:10228000B0916900B062B0936900B0916900BF7B02
:10229000B0936900B1E0B093AF00B1E0B093AE008D
:1022A0002F92232C0E9411052F90B1E02B2E321477
:1022B00008F4D7C00091AF00015010E04AEC52E0A2
:1022C000A8D125EB30E0020F131F4091AE00415022
:1022D0000883198305E611E050E09BD128813981FC
:1022E000020F131F422D41500883198303E310E0AE
:1022F00050E08FD128813981F801E20FF31FB0E55A
:10230000B193BCE6B193B3E7B193B0E2B193B3E458
:10231000B193B8E6B193B3E7B193B0E2B193B0E54E
:10232000B193B2E7B193B7E6B193B0E2B193BEE433
:10233000B193B5E7B193BDE6B193B0E0B19300912D
:10234000AF00015010E04AEC52E063D125EB30E0E1
:10235000020F131F4091AE0041500883198305E618
:1023600011E050E056D128813981020F131F422D10
:1023700041500883198303E310E050E04AD12881DB
:102380003981020F131FF8017196B0E5B193BCE6D5
:10239000B193B3E7B193B0E2B193B3E4B193B8E6CC
:1023A000B193B3E7B193B0E2B193B0E5B193B2E7C3
:1023B000B193B7E6B193B0E2B193BEE4B193B5E7A0
:1023C000B193BDE6B193B0E0B1930091AF0001507D
:1023D00010E04AEC52E01DD125EB30E0020F131F54
:1023E0000883198305E611E04091AE0050E011D159
:1023F00028813981020F131F422D41500883198310
:1024000003E310E050E005D128813981F801E20FA3
:10241000F31FB0E5B193B2E7B193BAE3B193B1E37F
:10242000B193B0E2B193B2E3B193B0E2B193B3E34D
:10243000B193B0E2B193B4E3B193B0E2B193B5E339
:10244000B193B0E2B193B6E3B193B0E2B193B7E325
:10245000B193B0E0B193231421F0022D0F5F202E31
:1024600026CFB2E0B093AE003F922F92B2E03B2E67
:102470002090AF000E9415062F903F90B2E0B093DD
:10248000AF00B1E0B093AE00B1E02B2E321408F4EF
:10249000AAC00091AF00015010E04AEC52E0B9D060
:1024A00025EB30E0020F131F4091AE00415008832E
:1024B000198305E611E050E0ACD028813981020F84
:1024C000131F422D41500883198303E310E050E0AD
:1024D000A0D028813981F801E20FF31FB0E5B19354
:1024E000B2E7B193BFE6B193B7E6B193B2E7B19368
:1024F000B1E6B193BDE6B193B0E2B193B0E2B1936E
:10250000B0E2B193B0E2B193B0E2B193B9E6B19366
:10251000B3E7B193B0E2B193B3E7B193B5E6B1934A
:10252000BCE6B193B3E6B193B4E7B193B5E6B1932A
:10253000B4E6B193B0E0B1930091AF00015010E068
:102540004AEC52E066D025EB30E0020F131F4091B9
:10255000AE0041500883198305E611E050E059D0E0
:1025600028813981020F131F422D4150088319839E
:1025700003E310E050E04DD028813981F801E20FEB
:10258000F31FB7E4B193BFE6B193B9E6B193BEE6EA
:10259000B193B7E6B193B0E2B193B4E7B193BFE6BC
:1025A000B193B0E2B193B9E4B193B4E7B193B7E2B8
:1025B000B193B3E7B193B0E2B193B3E5B193B5E6AC
:1025C000B193B4E7B193B4E7B193B9E6B193BEE682
:1025D000B193B7E6B193B0E0B193231421F0022D8B
:1025E0000F5F202E53CF0091AE000150202F30E01E
:1025F000220F331F01EB10E0F901E00FF11FBAE0E9
:10260000B083B1E02B2E2196CDBFDEBFDF91CF91FD
:1026100008959801249F8001259F100D349F100D6F
:102620000895CF93DF93CDB7DEB72A97CDBFDEBF36
:10263000219600E010E0B0E1BA83B7E2BB83B0E0DE
:10264000B883B983B0E0BE83BF83B887B987B0E0F1
:10265000BC83BD8308811981F801E20DF31D00815F
:10266000003009F448C008811981F801E20DF31D1A
:1026700000810D3259F4BFEFBC83B0E0BD83088107
:1026800019810F5F1F4F08831983E4CF08811981D7
:10269000F801E20DF31D00810032E9F00881198193
:1026A000F801E20DF31D008110E00053104020E01E
:1026B000322F4A815B8160E0762F0E94D3074E81E2
:1026C0005F8168857985040F151F261F371F0E83CC
:1026D0001F83288739874AE050E00A811B810E94C6
:1026E0008E048C010A831B83088119810F5F1F4FA1
:1026F00008831983AFCF0C811D81B02FB12B29F036
:10270000B6E0BA83B0E0BB8304C0B5E0BA83B0E002
:10271000BB83288139810A811B8120173107D9F0B9
:102720003F922F924AE050E060E070E00E811F81FE
:10273000288539850E944A0189019A012F903F908E
:102740000E831F8328873987088119810F5F1F4FE8
:1027500008831983DECF2E813F810C811D81B02F2C
:10276000B12B39F000E010E0021B130BA8019A0115
:1027700000C089012996CDBFDEBFDF91CF910895BA
:10278000992779E004C0991F941708F0941B001F43
:102790007A95C9F70095089500917400007F102F75
:1027A00016951695169516950AE0109F102D009116
:1027B00074000F70010F0093740000917000007F8F
:1027C000102F16951695169516950AE0109F102D48
:1027D000009170000F70010F0093700000916F0066
:1027E000007F102F16951695169516950AE0109FE6
:1027F000102D00916F000F70010F00936F0000917A
:102800000E07077000930E0700917700007F102FCE
:1028100016951695169516950AE0109F102D0091A5
:1028200077000F70010F009377000091780000711E
:10283000102F16951695169516950AE0109F102DD7
:10284000009178000F70010F0093780000917600DE
:10285000007F102F16951695169516950AE0109F75
:10286000102D009176000F70010F009376000895EF
:10287000CF93DF93CDB7DEB76297CDBFDEBF219692
:10288000B0916900B062B0936900B0916900BF7BFC
:10289000B0936900B1E0B093AF00B1E0B093AE0087
:1028A0002F92B7E02B2E0E9411052F90B1E02B2E16
:1028B000321408F4D6C00091AF00015010E04AEC89
:1028C00052E0A7DE25EB30E0020F131F4091AE006F
:1028D0004150088B198B05E611E050E09ADE2889FB
:1028E0003989020F131F422D4150088B198B03E3C6
:1028F00010E050E08EDE28893989020F131F9801FD
:10290000AC2FBD2FF2010E940B050AE30D930EE3DD
:102910000D930EE30D930EE30D93F3010E940B054F
:102920000CE30D930CE30D930CE30D9300E00D937A
:10293000A22FB32FFE010E940B0500E00D93009122
:10294000AF00015010E04AEC52E063DE25EB30E0CE
:10295000020F131F4091AE004150088B198B05E602
:1029600011E050E056DE28893989020F131F422DED
:102970004150088B198B03E310E050E04ADE2889B0
:102980003989020F131F98012F5E3F4FAC2FBD2FC7
:10299000F2010E940B050AE30D930EE30D930EE383
:1029A0000D930EE30D93F3010E940B050CE30D93C1
:1029B0000CE30D930CE30D9300E00D93A22FB32FC6
:1029C000FE010E940B0500E00D930091AF00015045
:1029D00010E04AEC52E01DDE25EB30E0020F131F41
:1029E000088B198B05E611E04091AE0050E011DE36
:1029F00028893989020F131F422D4150088B198BEA
:102A000003E310E050E005DE28893989F801E20F80
:102A1000F31FB0E2B193B0E2B193B0E2B193B0E290
:102A2000B193B0E2B193B0E2B193B0E2B193B0E24E
:102A3000B193B0E2B193B0E2B193B0E2B193B0E23E
:102A4000B193B0E2B193B0E2B193B0E2B193B0E22E
:102A5000B193B0E0B193231421F0022D0F5F202E2B
:102A600027CFB2E0B093AF00B1E0B093AE00B1E0D9
:102A70002B2E321408F485C00091AF00015010E0F5
:102A80004AEC52E0C6DD25EB30E0020F131F409107
:102A9000AE004150088B198B05E611E050E0B9DD1E
:102AA00028893989020F131F422D4150088B198B39
:102AB00003E310E050E0ADDD28893989020F131FD0
:102AC000A02FB12FF2010E940B0500E20D9304E547
:102AD0000D9309E60D930DE60D9305E60D9302E7C0
:102AE0000D9300E20D9303E50D9305E60D9304E7C6
:102AF0000D9304E70D9300E00D930091AF0001509A
:102B000010E04AEC52E085DD25EB30E0020F131FA8
:102B1000088B198B05E611E04091AE0050E079DD9D
:102B200028893989020F131F422D4150088B198BB8
:102B300003E310E050E06DDD28893989F801E20FE8
:102B4000F31FB9E6B193BEE6B193B7E6B193B0E235
:102B5000B193B9E6B193B3E7B193B0E2B193B3E700
:102B6000B193B5E6B193B4E7B193B5E6B193B4E6EA
:102B7000B193B0E0B193231421F0022D0F5F202E0A
:102B800078CF0091AE00202F30E0220F331F01EBF1
:102B900010E0F901E00FF11FB1E0B0830091AE0049
:102BA000202F30E0220F331F01EB10E0020F131F24
:102BB000F8013196B9E0B083B1E02B2E6196CDBF1C
:102BC000DEBFDF91CF910895CF93DF93CDB7DEB70E
:102BD0002397CDBFDEBF2196B0E0B883B0E8B983BC
:102BE000B0E0BA8309811A81103009F4003009F489
:102BF00039C00E94EE290E94EE29B0913400BD7FB9
:102C0000B09334000E94EE290E94EE29B091340066
:102C1000BE7FB0933400B0916900BE7FB09369006D
:102C2000B0913300B0FD06C0B0916900B0FF01C0A3
:102C300001C0F6CFB0913300B1FF04C01881098103
:102C4000012B08830E94EE290E94EE29B0913400E6
:102C5000B160B093340009811A81169507950983F4
:102C60001A83C0CFB0913400BD7FB09334000E946E
:102C7000EE290E94EE29B0E03B1611F4B0E02B16CD
:102C800029F0B0913400B260B09334000E94EE2974
:102C90000E94EE29B0913400BE7FB0933400B09111
:102CA0006900BE7FB0936900B0913300B0FD06C0EB
:102CB000B0916900B0FF01C001C0F6CF0E94EE29BB
:102CC0000E94EE29B0913400B160B09334000E94AC
:102CD000EE290E94EE29B0913400B260B093340026
:102CE00008812296CDBFDEBFDF91CF910895BFE16D
:102CF000B0937900BCE1B0937A00BFE1B0937B0060
:102D0000BEE1B0937C00BFE1B0937D00BEE1B09323
:102D10007E00BFE1B0937F00BFE1B0938000BEE1D1
:102D2000B0938100BFE1B0938200BEE1B093830015
:102D3000BFE1B0938400BDE6B093A000B1E0B093D2
:102D4000A100B0E0B093A200B093A30044E050E033
:102D500000919A0010919B000E9463098C010093DE
:102D60009E0010939F0044E650E000919A0010915D
:102D70009B000E9463098C0100939C0010939D00AE
:102D800040E951E000919A0010919B000E94630974
:102D90008C010093A4001093A50040919E005091D7
:102DA0009F0020919C0030919D0024233523209387
:102DB000A9003093AA00303009F42030B0E009F0C7
:102DC000BFEF2B2F103009F40030B0E009F4BFEF53
:102DD0000B2F022B21F0BCE1B0937A0003C0BDE1C0
:102DE000B0937A0000919A0010919B00015010401E
:102DF0000093AB001093AC0044E050E00E946309E4
:102E00008C0100939E0010939F0044E650E00091D7
:102E1000AB001091AC000E9463098C0100939C00F0
:102E200010939D0040E951E00091AB001091AC007F
:102E30000E9463098C010093A4001093A5004091A7
:102E40009E0050919F0020919C0030919D00242372
:102E500035232093A9003093AA00303009F42030A4
:102E6000B0E009F0BFEF2B2F103009F40030B0E0D4
:102E700009F4BFEF0B2F022B31F0B0916900BF7E38
:102E8000B093690005C0B0916900B061B09369006A
:102E90000091A6001091A7000150104000939E00E1
:102EA00010939F00B1E0B093A8002091A80000917A
:102EB0009E0010919F000217B0E01B072CF120919B
:102EC000A800215009E710E0E22FF0E0E00FF11F29
:102ED00020810091A2001091A300020FB0E01B1FFF
:102EE0000093A2001093A3000091A80020919E00DF
:102EF00030919F0010E00217130731F00091A800F5
:102F00000F5F0093A800D1CF2091980030919900D5
:102F10000091A2001091A300200F311F2093A20066
:102F20003093A3000FE410E0021713070CF0AAC0BF
:102F30002091A2003091A3002F54304020939E0096
:102F400030939F0000919A0010919B000D56124003
:102F500000938B0010938C000AEB10E020173107D0
:102F60000CF044C04FE150E000919E0010919F0092
:102F70000E9463098C0100939C0010939D004FE117
:102F800050E000919E0010919F000E9463098B0108
:102F90000093A4001093A50000919C0010919D0047
:102FA000103009F4003079F40091A4001091A500CC
:102FB00000938D0010938E00BFE1B0938900B0E0C4
:102FC000B0938A0012C00091A4001091A5000F5F79
:102FD0001F4F00938D0010938E0000919C00109164
:102FE0009D000093890010938A004BC000919E00C1
:102FF00010919F000A5B104000939C0010939D006D
:103000004EE150E00E9463098C010093A4001093EC
:10301000A5004EE150E000919C0010919D000E949F
:1030200063098B010093A9001093AA000091A400EA
:103030001091A500103009F4003089F40091A90026
:103040001091AA000A5F1F4F00938D0010938E000D
:10305000BEE1B0938900B0E0B0938A0012C0009145
:10306000A9001091AA00095F1F4F00938D001093D3
:103070008E000091A4001091A50000938900109388
:103080008A006EC000919A0010919B000E5612406B
:1030900000938B0010938C00B0916900B4FF0BC0BB
:1030A0000091A2001091A300055F1F4F0093A200A2
:1030B0001093A3000AC00091A2001091A300065F24
:1030C0001F4F0093A2001093A3004EE150E0009127
:1030D000A2001091A3000E9463098C0100939C0040
:1030E00010939D004EE150E00091A2001091A300CA
:1030F0000E9463098B010093A4001093A500009126
:103100009C0010919D00103009F4003089F400916A
:10311000A4001091A500075F1F4F00938D0010932E
:103120008E00BEE1B0938900B0E0B0938A0012C077
:103130000091A4001091A500065F1F4F00938D0021
:1031400010938E0000919C0010919D0000938900C7
:1031500010938A001BE003E60A95F1F71A95E1F750
:10316000089516E00BE20A95F1F71A95E1F70000D1
:10317000000008952F923F924F92B1E02B16D9F4A0
:10318000B3E04B2EBFEF3B2EB4E62B2E0E94ED0793
:103190002DE01DE208ED0A95F1F71A95E1F72A9561
:1031A000D1F700000000B3E04B2EBFEF3B2E2224EE
:1031B0000E94ED071AC0B3E04B2EBFEF3B2E222436
:1031C0000E94ED072DE01DE208ED0A95F1F71A9532
:1031D000E1F72A95D1F700000000B3E04B2EBFEFD6
:1031E0003B2EB4E62B2E0E94ED074F903F902F9080
:1031F0000895CF93DF93CDB7DEB76497CDBFDEBF21
:103200002196BEE1B887BFE1B987BEE1BA87BFE1C9
:10321000BB87BFE1BC87BEE1BD87BFE1BE87BEE122
:10322000BF87BFE1B88BBFE1B98BBCE1BA8BBFE10F
:10323000BB8B830103591D4F0A831B8308831983AA
:103240005F924F923F922F9244E050E00E946309B8
:103250008C0100939E0010939F0044E650E008818B
:1032600019810E9463098C0100939C0010939D00BA
:1032700040E951E0088119810E9463098C012F9077
:103280003F904F905F900093A4001093A500509141
:103290009C0060919D00603009F4503040E009F0DE
:1032A0004FEF20919E0030919F00303009F4203084
:1032B000B0E009F4BFEF2B2F24232093A900B0E046
:1032C000B093AA00603009F4503020E009F42FEFE9
:1032D000103009F40030B0E009F4BFEF0B2F0223E7
:1032E000202F30E00091A9001091AA00022B132B8F
:1032F000B02FB12B29F0BCE0BC83B0E0BD8304C08B
:10330000BBE0BC83B0E0BD830A811B81302F412F1D
:103310003F5F4F4F403009F4303010E009F01FEFAD
:10332000403009F4303000E009F40FEF212F202362
:1033300010E003231423103009F40030B0E009F446
:10334000BFEF0B2F022B19F00A890F5F0A8B01E0E8
:1033500010E02016310620E00CF02FEF06E010E020
:1033600002151305B0E00CF0BFEF0B2F022351F054
:103370008101015010404FE150E04BD9040D151D63
:1033800098010BC08101075010404EE150E041D937
:1033900006541F4F040D151D98010C811D81021745
:1033A0001307CCF00C801D800FE110E0001911090B
:1033B000020F131F0093850010938600B3E0B093B3
:1033C0008700B0E0B09388000A811B8100938F00D2
:1033D0001093900007C00C801D808901001911090D
:1033E0000E831F8340E050E08E01085F1F4FFA01FB
:1033F000E00FF11F00812E813F8110E002171307BB
:10340000B4F48E01085F1F4FFA01E00FF11F008135
:10341000002EB0E01B2E0E811F81001911090E83B2
:103420001F838A010F5F1F4FB801AB01DDCF0E81F3
:103430001F81009385001093860008E010E00417B8
:10344000150784F48A0108501040009387001093F8
:1034500088000A811B810F5F1F4F00938F0010931C
:1034600090000DC08A010C5F1F4F009387001093DE
:1034700088000A811B8100938F001093900063964F
:10348000CDBFDEBFDF91CF9108952F92B1E02B1613
:1034900019F4B0E82B2E14C0B2E02B1619F4B0ECDE
:1034A0002B2E0EC0B3E02B1619F4B4E92B2E08C056
:1034B000B4E02B1619F4B4ED2B2E02C0B0E82B2E7D
:1034C000032D0150020D202EB0916900B460B0931D
:1034D0006900202E0E940638B0916900BB7FB0932E
:1034E0006900242C0E940638B0916900B460B09342
:1034F00069002F900895CF93DF93CDB7DEB72D9756
:10350000CDBFDEBF21962F923F924F925F926F9276
:103510007F928F929F923F922F92BDEA8B2EB0E0C6
:103520009B2EB5E66B2EB0E07B2EB3E64B2EB0E0C3
:103530005B2EB6E12B2EB7E03B2EB0E0BF93B1E798
:10354000BF93B0E0BF93B3E7BF93B0E0BF93B2E7E0
:10355000BF93B6D7ADB7BEB71696ADBFBEBFB1E08D
:103560002B2E08DE0E94F4292F903F902101B1E01C
:103570003B2EB1E02B2E0E949A39FE01B0E2B193AE
:10358000BFE4B193BEE6B193B0E2B193B4E7B193B7
:10359000B8E6B193B1E6B193BBE6B193B5E6B193AA
:1035A000B3E7B193B0E2B193BAE3B193B0E0B193B2
:1035B0008E012801B6E03B2EB1E02B2E0E949A39F5
:1035C000FE01BDE4B193B9E6B193BEE6B193BAE3AF
:1035D000B193B0E0B1938E012801B1E03B2EB2E08F
:1035E0002B2E0E949A39FE01BCE2B193B3E7B1934E
:1035F000B5E6B193B3E6B193BAE3B193B0E0B1935A
:103600008E012801B8E03B2EB2E02B2E0E949A39A1
:103610000091650010916600007F1070B4E0159570
:103620000795BA95E1F74AE050E00E94091320910E
:103630006500309166002F703070020F131F0093E9
:103640006500109366000091630010916400007F94
:103650001070B4E015950795BA95E1F74AE050E08F
:103660000E94091320916300309164002F70307024
:10367000200F311F2093630030936400122F50916C
:1036800065004AE0022F7CD8005D5F931F93402EB7
:10369000B5E03B2EB2E02B2EF8DE1F914AE0012F61
:1036A0006FD8092F005D402EB6E03B2EB2E02B2EE6
:1036B000ECDE5F914AE0052F63D8005D5F93402EFA
:1036C000BCE03B2EB2E02B2EE0DE5F914AE0052FFE
:1036D00057D8092F005D402EBDE03B2EB2E02B2EC7
:1036E000D4DE9F908F907F906F905F904F903F902F
:1036F0002F902C96CDBFDEBFDF91CF910895B09172
:103700003400B260B09334000E94EE290E94EE298A
:10371000B0913400BE7FB0933400B0916900BE7F99
:10372000B0936900B0913300B0FD06C0B09169005C
:10373000B0FF01C001C0F6CF0E94EE290E94EE2921
:103740000E94EE290E94EE290E94EE290E94EE2995
:103750000E94EE290E94EE29B0913400BD7FB09303
:1037600034000E94EE290E94EE290895CF93DF9342
:10377000CDB7DEB76F97CDBFDEBF21963F924F9298
:103780005F926F927F928F929F92B3E0B0931B07EC
:10379000B1E0B0930D07B3E0B0930C07209263063D
:1037A000FE013796BCE3B193B5E4B193B8E7B193AA
:1037B000BEE3B193B0E0B193AE01495F5F4FFE014C
:1037C0003C96B3E5B193B5E6B193B4E7B193BEE6E9
:1037D000B193B7E6B193B0E0B1939E01245F3F4F40
:1037E000FE017296B0E5B193B2E7B193BFE6B19333
:1037F000B7E6B193B0E0B1938E010E5E1F4F2F92EA
:103800004A013901280130901B07B1E02B2E0E949C
:103810009A09662450901B07B1E04B2E30901B078D
:10382000B2E02B2E0E94010C2F900883B09169000A
:10383000B068B0936900B0916900B7FFB5C5088161
:10384000013009F07FC0B7E0B0931B07B091690069
:10385000BF77B0936900B2E0B0930D07B3E0B093C7
:103860000C07209263062F92B7E03B2EB1E02B2E7F
:103870000E9438112F902F92BFE03B2EB7E04B2EC5
:103880000E94A1260E94F429FE013796B0E5B1936B
:10389000B2E7B193BFE6B193B7E6B193B0E2B193AB
:1038A000B9E6B193B3E7B193BAE3B193B0E0B193A2
:1038B0008E01095F1F4F2801B1E03B2EB1E02B2E96
:1038C0000E949A39BFE04B2EB7E05B2EB1E03B2E51
:1038D000B2E02B2E0E949A392F9022E51BE200E0E5
:1038E0000A95F1F71A95E1F72A95D1F70000000043
:1038F000000000002F92662450901B07B1E04B2E71
:1039000030901B070E94010C0A8300910D070150A3
:1039100010E04CE050E00E94091324EF36E0200F45
:10392000311F00910C07015010E0000F111F000F14
:10393000111FF801E20FF31F0A8100830E94C427C0
:103940002F9031C50881023009F0ADC4B3E0B093C7
:103950001B07B0916900BF77B0936900B2E0B093E4
:103960000D07B3E0B0930C0720926306FE01379673
:10397000BCE3B193B5E4B193B8E7B193BEE3B193BF
:10398000B0E0B193AE01495F5F4FFE013C96BDE4EC
:10399000B193B1E6B193BEE6B193B5E7B193BCE69E
:1039A000B193B0E0B1939E01245F3F4FFE01729648
:1039B000B1E4B193B5E7B193B4E7B193BFE6B19386
:1039C000B0E0B1938E010E5E1F4F2F924A01390174
:1039D000280130901B07B1E02B2E0E949A09662423
:1039E00050901B07B1E04B2E30901B07B2E02B2EFE
:1039F0000E94010C2F900983B0916900B062B093CE
:103A00006900B0916900B5FF04C40981013009F073
:103A1000FAC0B7E0B0931B07B0916900BF7DB093C7
:103A20006900B2E0B0930D07B3E0B0930C072092A9
:103A300063062F92B7E03B2EB1E02B2E0E94381187
:103A40002F902F92662450901B07B1E04B2E3090A0
:103A50001B070E94010C0A8300910D07015010E022
:103A60004CE050E00E94091324EF36E0200F311F94
:103A700000910C07015010E0000F111F000F111FE3
:103A8000F801E20FF31F0A8100830E94F429FE016E
:103A90003796B0E5B193BCE6B193B3E7B193B0E22A
:103AA000B193B4E4B193BFE6B193B0E2B193BEE693
:103AB000B193BFE6B193B2E7B193BDE6B193B1E67E
:103AC000B193BCE6B193B0E2B193B7E5B193BFE671
:103AD000B193B0E0B1938E01095F1F4F2801B1E0AF
:103AE0003B2EB1E02B2E0E949A39FE013796B2E7A9
:103AF000B193BBE6B193B0E2B193B7E7B193B5E64A
:103B0000B193B0E2B193B3E7B193B1E6B193B6E745
:103B1000B193B5E6B193B0E2B193B4E7B193B9E62E
:103B2000B193BDE6B193B5E6B193B3E7B193B1E21A
:103B3000B193B1E2B193B1E2B193B0E0B1938E0130
:103B4000095F1F4F2801B1E03B2EB2E02B2E0E94EF
:103B50009A3929E01EE105EE0A95F1F71A95E1F789
:103B60002A95D1F70000B1E04B2E33242A800E9421
:103B7000AE2A0E94F429FE013796B3E5B193B1E66F
:103B8000B193B6E7B193B9E6B193BEE6B193B7E6A8
:103B9000B193B0E2B193B9E6B193BEE6B193B0E0B0
:103BA000B1938E01095F1F4F2801B1E03B2EB1E0B8
:103BB0002B2E0E949A39FE013796B5E4B193B5E4F5
:103BC000B193B0E5B193B2E5B193BFE4B193BDE475
:103BD000B193B0E0B1938E01095F1F4F2801B1E0AE
:103BE0003B2EB2E02B2E0E949A3929E01EE105EE11
:103BF0000A95F1F71A95E1F72A95D1F700000E948E
:103C0000C4272F9005C30981023009F081C2B7E0B3
:103C1000B0931B072F92B7E03B2EB1E02B2E0E94F2
:103C200038112F902F92662450901B07B1E04B2E35
:103C300030901B070E94010C2F900A83B2E0B093D2
:103C40000D07B3E0B0930C07209263062CE030E040
:103C500004EF16E0020F131FF80138960A81008363
:103C6000B2E0B0931B07B2E0B0930D07B1E0B093A0
:103C70000C070A8100936306BDE4BF83B9E6B887E9
:103C8000BEE6B987B0E0BA879E01295F3F4FFE01CB
:103C90003B96B8E4B193B5E6B193B1E6B193B4E71E
:103CA000B193B5E6B193B2E7B193B0E0B1938E01B1
:103CB000055F1F4F2F923901280130901B07B1E09B
:103CC0002B2E0E94381400916306015010E048E149
:103CD00050E00E94091324E636E0020F131F4091C2
:103CE0000D0741500D8F1E8F0CE010E050E00E9438
:103CF00009132D8D3E8D200F311F00910C070150AF
:103D000010E0000F111F000F111F020F131FF80109
:103D100031960081662450901B074424BBE33B2E60
:103D2000202E0E94010C0B83B3E5BF83B5E6B88754
:103D3000B3E6B987B0E0BA879E01295F3F4FFE0125
:103D40003B96B8E4B193B5E6B193B1E6B193B4E76D
:103D5000B193B5E6B193B2E7B193B0E0B1938E0100
:103D6000055F1F4F3901280130901B07B1E02B2E52
:103D70000E94381400916306015010E048E150E0C1
:103D80000E94091324E636E0020F131F40910D072D
:103D900041500D8F1E8F0CE010E050E00E9409137F
:103DA0002D8D3E8D200F311F00910C07015010E02A
:103DB000000F111F000F111F020F131FF801329681
:103DC0000081662450901B074424BBE33B2E202E29
:103DD0000E94010C0C8300916306015010E048E141
:103DE00050E00E94091324E636E0020F131F4091B1
:103DF0000D0741500D8F1E8F0CE010E050E00E9427
:103E000009132D8D3E8D200F311F00910C0701509D
:103E100010E0000F111F000F111F020F131FF801F8
:103E200031960B81008300916306015010E048E158
:103E300050E00E94091324E636E0020F131F409160
:103E40000D0741500D8F1E8F0CE010E050E00E94D6
:103E500009132D8D3E8D200F311F00910C0701504D
:103E600010E0000F111F000F111F020F131FF801A8
:103E700032960C810083B2E0B0930D07B2E0B093AC
:103E80000C07098100936306BDE4BF83B9E6B887D8
:103E9000BEE6B987B0E0BA879E01295F3F4FFE01B9
:103EA0003B96BDE4B193BFE6B193B4E7B193BFE6EF
:103EB000B193B2E7B193B0E0B1938E01055F1F4FAC
:103EC0003901280130901B07B1E02B2E0E943814D5
:103ED00000916306015010E048E150E00E94091390
:103EE00024E636E0020F131F40910D0741500D8F5D
:103EF0001E8F0CE010E050E00E9409132D8D3E8DC6
:103F0000200F311F00910C0710E0000F111F000F50
:103F1000111F020F131FF801319600816624509083
:103F20001B074424BBE33B2E202E0E94010C0D8373
:103F3000B3E5BF83B5E6B887B3E6B987B0E0BA8723
:103F40009E01295F3F4FFE013B96BDE4B193BFE662
:103F5000B193B4E7B193BFE6B193B2E7B193B0E0E8
:103F6000B1938E01055F1F4F3901280130901B0767
:103F7000B1E02B2E0E94381400916306015010E02E
:103F800048E150E00E94091324E636E0020F131FB7
:103F900040910D0741500D8F1E8F0CE010E050E056
:103FA0000E9409132D8D3E8D200F311F00910C07AB
:103FB00010E0000F111F000F111F020F131FF80157
:103FC00032960081662450901B074424BBE33B2EAD
:103FD000202E0E94010C0E8300916306015010E018
:103FE00048E150E00E94091324E636E0020F131F57
:103FF00040910D0741500D8F1E8F0CE010E050E0F6
:104000000E9409132D8D3E8D200F311F00910C074A
:1040100010E0000F111F000F111F020F131FF801F6
:1040200031960D81008300916306015010E048E154
:1040300050E00E94091324E636E0020F131F40915E
:104040000D0741500D8F1E8F0CE010E050E00E94D4
:1040500009132D8D3E8D200F311F00910C0710E0AC
:10406000000F111F000F111F020F131FF8013296CE
:104070000E8100830E94F429FE013796B3E5B193C7
:10408000B1E6B193B6E7B193B9E6B193BEE6B193A9
:10409000B7E6B193B0E2B193B9E6B193BEE6B1939E
:1040A000B0E0B1938E01095F1F4F2801B1E03B2EB4
:1040B000B1E02B2E0E949A39FE013796B5E4B193F8
:1040C000B5E4B193B0E5B193B2E5B193BFE4B19378
:1040D000BDE4B193B0E0B1938E01095F1F4F280199
:1040E000B1E03B2EB2E02B2E0E949A3929E01EE16E
:1040F00005EE0A95F1F71A95E1F72A95D1F7000038
:1041000043D72F90B0916900BF7DB093690080C004
:104110000981033009F07CC0B0916900BF7DB09384
:1041200069002F920E94F429FE013796B5E4B193FD
:10413000B8E7B193B9E6B193B4E7B193B0E2B19304
:10414000B6E4B193B2E7B193BFE6B193BDE6B193E4
:10415000B0E2B193B3E5B193B5E6B193B4E7B193EF
:10416000B4E7B193B9E6B193BEE6B193B7E6B193C4
:10417000B0E0B1938E01095F1F4F2801B1E03B2EE3
:10418000B1E02B2E0E949A39FE013796B0E5B1932B
:10419000BCE6B193B3E7B193B0E2B193B0E5B193AC
:1041A000B2E7B193B5E6B193B3E7B193B3E7B19397
:1041B000B0E2B193B8E4B193B4E7B193B0E2B19394
:1041C000BDE6B193B9E6B193B3E6B193B2E7B1936B
:1041D000BFE6B193B0E2B193B3E5B193B7E5B19364
:1041E000B0E0B1938E01095F1F4F2801B1E03B2E73
:1041F000B2E02B2E0E949A392F9029E01EE105EEA5
:104200000A95F1F71A95E1F72A95D1F7000000C059
:10421000F8CB2F920E94F429FE013796B5E4B193B2
:10422000BEE4B193B4E4B193B0E2B193BBE6B19311
:10423000B5E6B193B9E7B193B0E7B193B1E6B19305
:10424000B4E6B193B0E0B1938E01095F1F4F28012E
:10425000B1E03B2EB1E02B2E0E949A39FE01379639
:10426000B5E4B193B5E4B193B0E5B193B2E5B193E0
:10427000BFE4B193BDE4B193B0E0B1938E01095FA7
:104280001F4F2801B1E03B2EB2E02B2E0E949A393D
:104290002F9029E216E900E80A95F1F71A95E1F75F
:1042A0002A95D1F780C00881033009F07CC0B09115
:1042B0006900BF77B09369002F920E94F429FE0134
:1042C0003796B5E4B193B8E7B193B9E6B193B4E7E3
:1042D000B193B0E2B193B6E4B193B2E7B193BFE664
:1042E000B193BDE6B193B0E2B193B3E5B193B5E656
:1042F000B193B4E7B193B4E7B193B9E6B193BEE635
:10430000B193B7E6B193B0E0B1938E01095F1F4F4F
:104310002801B1E03B2EB1E02B2E0E949A39FE011C
:104320003796B0E5B193BCE6B193B3E7B193B0E291
:10433000B193B0E5B193B2E7B193B5E6B193B3E70A
:10434000B193B3E7B193B0E2B193B8E4B193B4E7FA
:10435000B193B0E2B193BDE6B193B9E6B193B3E6E0
:10436000B193B2E7B193BFE6B193B0E2B193B3E5D5
:10437000B193B7E5B193B0E0B1938E01095F1F4FE0
:104380002801B1E03B2EB2E02B2E0E949A392F90EB
:1043900029E01EE105EE0A95F1F71A95E1F72A9555
:1043A000D1F7000000C047CA9F908F907F906F9018
:1043B0005F904F903F906E96CDBFDEBFDF91CF9163
:1043C0000895B1E07B1609F050C0B0E0BFBDB0E089
:1043D000BEBDB0E0BDBDB0E0BCBD4FBC6BBC5ABC07
:1043E00069BC58BCBBE02B1639F40FB501600FBD9A
:1043F0000EB5077E0EBD38C0BCE02B1639F4BFB534
:10440000B260BFBD0EB5077E0EBD2EC0BDE02B163F
:1044100039F40FB503600FBD0EB5077E0EBD24C085
:10442000BEE02B1639F40FB501600FBD0EB5086064
:104430000EBD1AC0BFE02B1639F40FB502600FBDD8
:104440000EB508600EBD10C0B0E12B1639F40FB5E3
:1044500003600FBD0EB508600EBD06C00FB50C7F22
:104460000FBD0EB5077E0EBD03C00FB50C730FBD9B
:10447000309292000EB503290EBD08952F920E942E
:10448000CC130091760010E00053184F00939A006F
:1044900010939B000091770000939800B0E0B093D8
:1044A0009900009178000093A600B0E0B093A700B7
:1044B0000E947716B1E02B2E0E9406382F900895A7
:1044C000CF93DF93CDB7DEB725962F923F92088129
:1044D0001981088319830A811B810A831B830C813C
:1044E0001D810C831D839F928F927F926F925F92AA
:1044F0004F923F922F920E94BB36B0ED2B2E8AD75F
:10450000222488D70E94BB36B1ED2B2E83D7B1E091
:104510002B2EB0E03B2E0E94E4152F903F904F9041
:104520005F906F907F90F30100835F924F923F9274
:104530002F92B1E02B2EB0E03B2E0E94E4152F907D
:104540003F904F905F90F20100833F922F92B1E035
:104550002B2EB0E03B2E0E94E4152F903F90F101EE
:104560000083B1E02B2EB0E03B2E0E94E415E881E1
:10457000F9810083B1E02B2EB0E03B2E0E94E415C0
:104580008F909F90F4010083B1E02B2EB0E03B2E82
:104590000E94E415EA81FB810083222433240E94D7
:1045A000E415EC81FD810083AAD83F902F90DF9124
:1045B000CF910895CF93DF93CDB7DEB725962F9295
:1045C0003F924F925F9208811981088319830A8173
:1045D0001B810A831B830C811D810C831D83B0E02A
:1045E0009B1611F4B2E08B1669F4B3E5B09349065B
:1045F000B5E7B0934A06BEE6B0934B06B0E0B09381
:104600004C0672C0B0E09B1611F4B3E08B1669F44F
:10461000BDE4B0934906BFE6B0934A06BEE6B09348
:104620004B06B0E0B0934C065FC0B0E09B1611F4AF
:10463000B4E08B1669F4B4E5B0934906B5E7B093DE
:104640004A06B5E6B0934B06B0E0B0934C064CC0BA
:10465000B0E09B1611F4B5E08B1669F4B7E5B093A2
:104660004906B5E6B0934A06B4E6B0934B06B0E00F
:10467000B0934C0639C0B0E09B1611F4B6E08B162F
:1046800069F4B4E5B0934906B8E6B0934A06B5E7D5
:10469000B0934B06B0E0B0934C0626C0B0E09B163A
:1046A00011F4B7E08B1669F4B6E4B0934906B2E7AB
:1046B000B0934A06B9E6B0934B06B0E0B0934C060F
:1046C00013C0B0E09B1611F4B1E08B1669F4B3E5AA
:1046D000B0934906B1E6B0934A06B4E7B0934B06EF
:1046E000B0E0B0934C0600C07F926F925F924F9201
:1046F0003F922F92B9E44B2EB6E05B2EB1E03B2EF9
:10470000B1E02B2E0E949A392F903F904F905F90EE
:104710005F924F923F922F924AE050E082010E94B6
:1047200063098B01005D402EB6E03B2EB1E02B2EDD
:104730000E94451A2F903F904F905F903F922F928A
:104740004AE050E082010E9463098C01005D402E26
:10475000B7E03B2EB1E02B2E0E94451A2F903F90E0
:104760003F922F924AE050E081010E9463098B0141
:10477000005D402EB9E03B2EB1E02B2E0E94451A81
:104780002F903F904AE050E081010E9463098C0124
:10479000005D402EBAE03B2EB1E02B2E0E94451A60
:1047A0006F907F907F926F9248EE53E083010E945A
:1047B00063098B01005D402EBCE03B2EB1E02B2E47
:1047C0000E94451A6F907F907F926F9248EE53E05F
:1047D00083010E9463098C0144E650E00E94630952
:1047E0008B01005D402EBDE03B2EB1E02B2E0E94E0
:1047F000451A6F907F907F926F9248EE53E083014D
:104800000E9463098C0144E650E00E9463098C0118
:104810004AE050E00E9463098B01005D402EBEE03B
:104820003B2EB1E02B2E0E94451A6F907F9048EEF0
:1048300053E083010E9463098C0144E650E00E942A
:1048400063098C014AE050E00E9463098C01005D1D
:10485000402EBFE03B2EB1E02B2E0E94451A4AE0CD
:1048600050E0088119810E9463098B01005D402E90
:10487000B6E03B2EB2E02B2E0E94451A4AE050E0F3
:10488000088119810E9463098C01005D402EB7E008
:104890003B2EB2E02B2E0E94451A4AE050E00A81DE
:1048A0001B810E9463098B01005D402EB9E03B2E05
:1048B000B2E02B2E0E94451A4AE050E00A811B818B
:1048C0000E9463098C01005D402EBAE03B2EB2E0ED
:1048D0002B2E0E94451A4AE050E00C811D810E9457
:1048E00063098B01005D402EBCE03B2EB2E02B2E15
:1048F0000E94451A4AE050E00C811D810E94630924
:104900008C01005D402EBDE03B2EB2E02B2E0E94BC
:10491000451A5F904F903F902F90DF91CF9108956F
:10492000CF93DF93CDB7DEB72197CDBFDEBF219602
:10493000B0E0B883B42D11E0BB2319F0110FBA9584
:10494000E9F7F1010081102300E0103009F001E0E7
:104950000615E9F400E0051540F40E94B1180E9424
:10496000B118052D0150502EF5CFB42D11E0BB2309
:1049700019F0110FBA95E9F7F1010081102300E059
:10498000103009F001E0061511F4BFEFB88308817B
:10499000CDBFDEBFDF91CF910895CF93DF93CDB729
:1049A000DEB725962F923F924F925F920881198130
:1049B000088319830A811B810A831B830C811D8153
:1049C0000C831D839F928F927F926F925F924F9282
:1049D0003F922F9209D52F903F904F905F906F900C
:1049E0007F900E94F9188F909F90B0E09B1611F471
:1049F000B2E08B1669F4B3E5B0934906B5E7B0931E
:104A00004A06BEE6B0934B06B0E0B0934C0672C0C7
:104A1000B0E09B1611F4B3E08B1669F4BDE4B093DB
:104A20004906BFE6B0934A06BEE6B0934B06B0E037
:104A3000B0934C065FC0B0E09B1611F4B4E08B1647
:104A400069F4B4E5B0934906B5E7B0934A06B5E614
:104A5000B0934B06B0E0B0934C064CC0B0E09B1650
:104A600011F4B5E08B1669F4B7E5B0934906B5E6E5
:104A7000B0934A06B4E6B0934B06B0E0B0934C0650
:104A800039C0B0E09B1611F4B6E08B1669F4B4E5BA
:104A9000B0934906B8E6B0934A06B5E7B0934B0623
:104AA000B0E0B0934C0626C0B0E09B1611F4B7E01E
:104AB0008B1669F4B6E4B0934906B2E7B0934A06A0
:104AC000B9E6B0934B06B0E0B0934C0613C0B0E02B
:104AD0009B1611F4B1E08B1669F4B3E5B093490667
:104AE000B1E6B0934A06B4E7B0934B06B0E0B0939A
:104AF0004C0600C0B9E44B2EB6E05B2EB1E03B2E75
:104B0000B1E02B2E0E949A394AE050E000918500D6
:104B1000109186000E9463098B01005D402EB6E073
:104B20003B2EB1E02B2E0E94451A4AE050E0009146
:104B30008500109186000E9463098C01005D402E63
:104B4000B7E03B2EB1E02B2E0E94451A4AE050E020
:104B500000918700109188000E9463098B01005D1D
:104B6000402EB9E03B2EB1E02B2E0E94451A4AE0C0
:104B700050E000918700109188000E9463098C0129
:104B8000005D402EBAE03B2EB1E02B2E0E94451A6C
:104B900048EE53E000918F00109190000E9463094D
:104BA0008B01005D402EBCE03B2EB1E02B2E0E941D
:104BB000451A48EE53E000918F00109190000E943A
:104BC00063098C0144E650E00E9463098B01005D9B
:104BD000402EBDE03B2EB1E02B2E0E94451A48EE40
:104BE00053E000918F00109190000E9463098C01A6
:104BF00044E650E00E9463098C014AE050E00E94C4
:104C000063098B01005D402EBEE03B2EB1E02B2EF0
:104C10000E94451A48EE53E000918F0010919000D9
:104C20000E9463098C0144E650E00E9463098C01F4
:104C30004AE050E00E9463098C01005D402EBFE015
:104C40003B2EB1E02B2E0E94451A4AE050E008812D
:104C500019810E9463098B01005D402EB6E03B2E56
:104C6000B2E02B2E0E94451A4AE050E008811981DB
:104C70000E9463098C01005D402EB7E03B2EB2E03C
:104C80002B2E0E94451A4AE050E00A811B810E94A7
:104C900063098B01005D402EB9E03B2EB2E02B2E64
:104CA0000E94451A4AE050E00A811B810E94630974
:104CB0008C01005D402EBAE03B2EB2E02B2E0E940C
:104CC000451A4AE050E00C811D810E9463098B0166
:104CD000005D402EBCE03B2EB2E02B2E0E94451A18
:104CE0004AE050E00C811D810E9463098C01005D47
:104CF000402EBDE03B2EB2E02B2E0E94451A29E249
:104D000016E900E80A95F1F71A95E1F72A95D1F727
:104D10005F904F903F902F90DF91CF9108950FB605
:104D2000BCB3B1FF02C00000FBCFF8943FBA2EBA6B
:104D30004DBABCB3B460BCBBBCB3B260BCBB0FBEAD
:104D40000895E32DF42DB0E2B193B0E2B193B0E356
:104D5000B193B0E0B193032D142D0E5F1F4F980156
:104D6000B0E02B1691F04AE0022D0E94C013092FEB
:104D7000005DF90100834AE0022D0E94C013202E3D
:104D80008901015010409801EBCF0895CF93DF9334
:104D9000CDB7DEB76B97CDBFDEBF21965F924F9246
:104DA0003F922F9221D3FE013396B9E4B193BEE630
:104DB000B193B9E6B193B4E7B193B9E6B193B1E673
:104DC000B193BCE6B193B3E7B193B9E6B193B9E659
:104DD000B193BEE6B193B7E6B193B0E2B193B8E454
:104DE000B193B5E6B193B1E6B193B4E7B193B5E64B
:104DF000B193B2E7B193B0E0B1938E010D5F1F4F55
:104E00002801B1E03B2EB1E02B2E0E949A392F9061
:104E10003F904F905F9025E01FE002EF0A95F1F779
:104E20001A95E1F72A95D1F7B1E0B983B1E0BA83D9
:104E3000B1E0B8830981015010E048E150E00E94E0
:104E4000091324E636E0020F131F4A814150098FEF
:104E50001A8F0CE010E050E00E940913298D3A8D62
:104E6000200F311F0881015010E0000F111F000FAB
:104E7000111FF801E20FF31F20820981015010E099
:104E800048E150E00E94091324E636E0020F131FA8
:104E90004A814150098F1A8F0CE010E050E00E94C7
:104EA0000913298D3A8D200F311F0881015010E020
:104EB000000F111F000F111F020F131FF801319671
:104EC00030820981015010E048E150E00E9409134E
:104ED00024E636E0020F131F4A814150098F1A8FD2
:104EE0000CE010E050E00E940913298D3A8D200F4C
:104EF000311F0881015010E0000F111F000F111F1A
:104F0000020F131FF801329640820981015010E010
:104F100048E150E00E94091324E636E0020F131F17
:104F20004A814150098F1A8F0CE010E050E00E9436
:104F30000913298D3A8D200F311F0881015010E08F
:104F4000000F111F000F111F020F131FF8013396DE
:104F500050820881033021F008810F5F08836ACFF7
:104F60000A81023021F00A810F5F0A8361CF098133
:104F7000073021F009810F5F098358CF6A96CDBFB2
:104F8000DEBFDF91CF910895CF93DF93CDB7DEB72A
:104F90002497CDBFDEBF21962F923F924F92B0E073
:104FA000B0935D06B0935E06B1E0B0936306B1E0E6
:104FB000B0930D07B1E0B0930C0700915D0610911E
:104FC0005E060F5F1F4F0A831B830091630601502B
:104FD00010E048E150E00E94091324E636E0020F99
:104FE000131F40910D074150088319830CE010E016
:104FF00050E00E94091328813981200F311F009150
:105000000C07015010E0000F111F000F111FF801D5
:10501000E20FF31F20810A811B81422E18017FDEDF
:1050200000915D0610915E060E5F1F4F0A831B8381
:1050300000916306015010E048E150E00E9409131E
:1050400024E636E0020F131F40910D0741500883FC
:1050500019830CE010E050E00E9409132881398187
:10506000200F311F00910C07015010E0000F111F9D
:10507000000F111F020F131FF801319620810A81C2
:105080001B81422E18014BDE00915D0610915E06D9
:105090000D5F1F4F0A831B8300916306015010E0D0
:1050A00048E150E00E94091324E636E0020F131F86
:1050B00040910D074150088319830CE010E050E047
:1050C0000E94091328813981200F311F00910C079C
:1050D000015010E0000F111F000F111F020F131FCE
:1050E000F801329620810A811B81422E180117DEB9
:1050F00000915D0610915E060C5F1F4F0A831B83B3
:1051000000916306015010E048E150E00E9409134D
:1051100024E636E0020F131F40910D07415008832B
:1051200019830CE010E050E00E94091328813981B6
:10513000200F311F00910C07015010E0000F111FCC
:10514000000F111F020F131FF801339620810A81EF
:105150001B81422E1801E3DD00915D0610915E0671
:105160000C5F1F4F00935D0610935E0600910C07C5
:10517000033031F000910C070F5F00930C071DCF37
:1051800000910D07023031F000910D070F5F009381
:105190000D0710CF00916306073031F000916306D0
:1051A0000F5F0093630603CF4F903F902F9023969D
:1051B000CDBFDEBFDF91CF910895CF93DF93CDB701
:1051C000DEB76A97CDBFDEBF21965F924F923F92C6
:1051D0002F920AD1FE013396B9E4B193BEE6B193A2
:1051E000B9E6B193B4E7B193B9E6B193B1E6B1933F
:1051F000BCE6B193B3E7B193B9E6B193B9E6B19325
:10520000BEE6B193B7E6B193B0E2B193BDE4B1931A
:10521000BFE6B193B4E7B193BFE6B193B2E7B19300
:10522000B0E0B1938E010D5F1F4F2801B1E03B2E1E
:10523000B1E02B2E0E949A392F903F904F905F90B3
:1052400025E01FE002EF0A95F1F71A95E1F72A959C
:10525000D1F7B1E0B983B2E0BA83B2E0B883098193
:10526000015010E048E150E00E94091324E636E0C6
:10527000020F131F4A814150088F198F0CE010E074
:1052800050E00E940913288D398D200F311F0881AD
:10529000015010E0000F111F000F111FF801E20F65
:1052A000F31F20820981015010E048E150E00E9484
:1052B000091324E636E0020F131F4A814150088F7C
:1052C000198F0CE010E050E00E940913288D398DF1
:1052D000200F311F0881015010E0000F111F000F37
:1052E000111F020F131FF8013196308209810150FE
:1052F00010E048E150E00E94091324E636E0020F76
:10530000131F4A814150088F198F0CE010E050E0C4
:105310000E940913288D398D200F311F08810150FB
:1053200010E0000F111F000F111F020F131FF801D3
:10533000329640820981015010E048E150E00E941D
:10534000091324E636E0020F131F4A814150088FEB
:10535000198F0CE010E050E00E940913288D398D60
:10536000200F311F0881015010E0000F111F000FA6
:10537000111F020F131FF80133965082088103306A
:1053800021F008810F5F08836ACF0A81023021F083
:105390000A810F5F0A8361CF0981073021F00981FB
:1053A0000F5F098358CF6996CDBFDEBFDF91CF91E4
:1053B00008950FB6BCB3B1FF02C00000FBCFF89454
:1053C0003FBA2EBABCB3B160BCBB0FBE1DB3012F38
:1053D000089505E80A95F1F70000089502E00A959E
:1053E000F1F70000000008952F920E946C38B1E0A0
:1053F0002B2E0E940638BCE02B2E0E9406382F90E0
:1054000008951AE303E20A95F1F71A95E1F700000F
:1054100000000895CF93DF93CDB7DEB72397CDBFBC
:10542000DEBF2196B1E0B883B0E8B983B0E0BA83BB
:1054300009811A81103009F4003009F43BC0CEDF35
:10544000CDDFCCDFCBDFB0913400B160B09334005E
:10545000C5DFC4DF09811A8102211070103009F400
:10546000003031F0B0913400BD7FB093340005C0FE
:10547000B0913400B260B0933400B0DFAFDFB091D0
:105480003400BE7FB0933400B0916900BE7FB0930A
:105490006900B0913300B0FD06C0B0916900B0FF63
:1054A00001C001C0F6CF09811A81169507950983BD
:1054B0001A83BECFB0E0B88391DF90DFB0913400A3
:1054C000B160B09334008ADF89DFB0913400BD7FD2
:1054D000B093340083DF82DF81DF80DFB09134005E
:1054E000BE7FB0933400B0916900BE7FB093690075
:1054F000B0913300B0FD06C0B0916900B0FF01C0AB
:1055000001C0F6CFB0E0B88369DF68DFB091330047
:10551000B1FF03C008810160088360DF5FDF5EDFE9
:105520005DDF5CDF5BDF5ADF59DF58DF57DF56DFB7
:1055300055DF54DF53DF52DF51DFB0913400B160EB
:10554000B0933400B0913400B260B093340008815D
:105550002296CDBFDEBFDF91CF910895CF93DF9329
:10556000CDB7DEB76E97CDBFDEBF21965F926F924B
:105570007F928F929F92B1E0B0930D0720926306C5
:10558000B1E0B0930C07B0916900B062B0936900CC
:10559000B0911807BE7FB093180720926306B1E060
:1055A000B0930E07B1E0B0931307B0916900B5FF57
:1055B000BFC0B0E03B1609F046C04F923F922F9219
:1055C000B1E06B2E5524B3E04B2EB0E32B2EB0E0B0
:1055D0003B2EA6D92F903F904F900023B1F0B09171
:1055E0001807B160B0931807B1E03B2EB091690085
:1055F000BF7DB09369004F923F922F92B1E02B2E66
:105600000E94BA182F903F904F904F923F922F9246
:1056100066245524B3E04B2EB0E32B2EB0E03B2E96
:105620007FD92F903F904F9000901807112700FCD2
:105630001395012339F0B1E03B2EB0916900BF7D95
:10564000B093690074C0B0916900BF7DB0936900E8
:105650004F923F922F92C8DEFE01B7E5B193B1E6BB
:10566000B193B4E7B193B9E6B193BEE6B193B7E6AF
:10567000B193B0E2B193B6E6B193BFE6B193B2E7AE
:10568000B193B0E2B193BAE3B193B0E0B1938E01BC
:105690002801B1E03B2EB1E02B2E0E949A39FE0189
:1056A000B0E5B193B2E7B193B5E6B193B3E7B19387
:1056B000B3E7B193B9E6B193BEE6B193B7E6B19360
:1056C000B0E2B193B8E4B193B5E6B193B1E6B1936A
:1056D000B4E7B193B5E6B193B2E7B193B0E2B19359
:1056E000BDE6B193B9E6B193B3E6B193B2E7B19336
:1056F000BFE6B193B0E2B193B3E5B193B7E5B1932F
:10570000B0E0B1938E012801B1E03B2EB2E02B2E28
:105710000E949A392F903F904F9029E01EE105EEAC
:105720000A95F1F71A95E1F72A95D1F700003DCFD8
:10573000B1E03B1609F061C5B1E0B0930D072092CE
:105740006306B1E0B0930C074F923F922F924CDE6C
:10575000BDEA8B2EB0E09B2EB4E16B2EB7E07B2E22
:10576000B5E14B2EB7E05B2EB6E12B2EB7E03B2E1A
:10577000B0E0BF93B1E7BF93B0E0BF93B3E7BF938F
:10578000B0E0BF93B2E7BF930E946022ADB7BEB74F
:105790001696ADBFBEBFB7E78B2EB0E09B2EB4E729
:1057A0006B2EB0E07B2EB0E74B2EB0E05B2EBFE659
:1057B0002B2EB0E03B2EB0E0BF93B6E7BF93B0E036
:1057C000BF93B8E7BF93B7E0BF93BEE0BF930E941B
:1057D0006022ADB7BEB71696ADBFBEBF2F903F904B
:1057E0004F90B0916900B062B0936900B1E04B1680
:1057F00009F084C0B1E0B0930C070091630601503A
:1058000010E048E150E00E94091324E636E0020F60
:10581000131F40910D074150098F1A8F0CE010E0C3
:1058200050E00E940913298D3A8D200F311F0091FD
:105830000C07015010E0000F111F000F111F020F85
:10584000131FF8013196BCE3B08300916306015049
:1058500010E048E150E00E94091324E636E0020F10
:10586000131F40910D074150098F1A8F0CE010E073
:1058700050E00E940913298D3A8D200F311F0091AD
:105880000C07015010E0000F111F000F111F020F35
:10589000131FF8013296BCE3B083009163060150F8
:1058A00010E048E150E00E94091324E636E0020FC0
:1058B000131F40910D074150098F1A8F0CE010E023
:1058C00050E00E940913298D3A8D200F311F00915D
:1058D0000C07015010E0000F111F000F111FF801FD
:1058E000E20FF31FB1E0B08300910C07033031F0F9
:1058F00000910C070F5F00930C077FCFB2E0B093CD
:105900000D0720926306B1E0B0930C07022D015001
:1059100010E048E150E00E94091324E636E0020F4F
:10592000131F045F1F4FF801339600814F923F927F
:105930002F92BFE03B2EB7E04B2E202E02DABFE0C5
:105940002B2EB7E03B2E0E9411132F903F904F90CB
:10595000902FA12FB0916900B062B0936900B0910F
:105960006900BD7FB0936900B1E0B0937500B1E00C
:105970004B1600E009F40FEF0D8F00916306015004
:1059800010E048E150E00E9409130B8F1C8F24E6C1
:1059900036E0020F131F40910D074150098F1A8FF7
:1059A0000CE010E050E00E940913298D3A8DA80107
:1059B000420F531F20910C072150722F80E0770F68
:1059C000881F770F881F272F382F240F351FF901C5
:1059D0003196308120917000321740E008F04FEF8F
:1059E00024E636E05B8D6C8D250F361F200F311FAE
:1059F000270F381FF9013296308120917400321739
:105A000020E008F02FEF422324E636E0250F361F72
:105A1000020F131FE72FF82FE00FF11F0081003056
:105A2000B0E009F0BFEF0B2F142F10230D8D012BC9
:105A300009F4DDC04F923F922F92B9E44B2EB6E0AD
:105A40005B2E292E3A2E0E949602B9E44B2EB6E028
:105A50005B2E20907000B0E03B2E0E949602B9E4CD
:105A60004B2EB6E05B2EB1E03B2EB2E02B2E0E9417
:105A70009A39FE01B1E3B193B0E2B193B3E6B193C9
:105A8000B8E6B193B3E6B193BBE6B193B5E6B19393
:105A9000B4E6B193BAE3B193B0E0B1938E012801BB
:105AA000B1E03B2EB1E02B2E0E949A392F903F900F
:105AB0004F9025E11BE40FEB0A95F1F71A95E1F7FA
:105AC0002A95D1F70000009175000030B1F50091E2
:105AD0006306015010E048E150E00E94091324E6FB
