:100000000C94143D0C9400000C9400000C9400001F
:100010000C94DF3C0C9400000C9400000C94000045
:100020000C9400000C9400000C9400000C94F83C1C
:100030000C9400000C9400000C9400000C94000040
:100040000C9400000C9400000C9400000C94000030
:100050000C940000B9D021F0662309F0CAD098941E
:100060000895F8DF09F441C0E62ED52EC42EB32E34
:10007000A22E912E802E002D112D222D332DEADF60
:1000800009F43DC0842F952F8C199D09B9F072F4A5
:100090009095809501964C2D5D2D883180F5359594
:1000A0002795179507950197D1F708C08831E8F48F
:1000B000B594A794979487940197D1F766272EF06B
:1000C000080D191D2A1D3B1D09C0801A910AA20A9C
:1000D000B30A082D192D2A2D3B2D332312F489D074
:1000E00060E832D001C018D016C0002D112D222D8D
:1000F000332DD6F757D0C1F340E83427F5CF082D7C
:10010000192D2A2D3B2D4C2D5D2D6E2D33235AF7A5
:1001100070D060E8E8CF089545D039F041585F4F7E
:10012000342F220F36952795362B0895689499DF42
:100130000895FCDF332332F035D011F001E003C025
:10014000002701C00FEF08952DD011F19F938F93D9
:100150008EE790E0332351F0369527951795079554
:1001600048175907B4F44F5F5F4FF4CF80959095CF
:10017000019622239AF0000F111F221F48175907DA
:100180001CF041505040F5CF00271127222733277C
:1001900008C033270FEF102F2FE7322F8F919F9139
:1001A000BBDF0895002329F4112319F4222309F455
:1001B00033230895E89455DF0895042E152E262E36
:1001C000372EB7DF00230895EDDF79F0632F6078D5
:1001D000220F331F432F5FE7451B552750402695BD
:1001E00030E8232B3327989403C0442755276627EC
:1001F000089500951095209530950F5F1F4F2F4F54
:100200003F4F089547E16627552726F0332312F420
:10021000F0DF60E899DF0895D7DF81F1E62ED52E73
:10022000C42EB32EA22E912E802E002D112D222D04
:10023000332DCADF19F16E254C0D5D1D4038530773
:10024000F4F441387FEF5707FCF088279927AA2755
:10025000BB2770E2B695A795979587953795279513
:100260001795079520F4880D991DAA1DBB1D7A9539
:1002700089F7032F3A2F292F182F66DF0AC00FEFB7
:10028000102F2FE73FE7FACF0027102F202F302F16
:10029000F5CF0895042E152E262E372E8BDF002E37
:1002A000112E222E332E0895042E152E262E372E93
:1002B000B3DF002E112E222E332E08957EDF1CF484
:1002C0000024039401C0002408957EDFF1F055233B
:1002D000C2F04F31A8F44731C1F050F44195495E66
:1002E00005C035952795179507954A95D1F70DC007
:1002F0004751000F111F221F331F4A95D1F705C028
:100300003FE7232F132F032F03C0662309F071DF6C
:100310000895042E152E262E372E08DF002E112EBE
:10032000222E332E0895CF93DF93CDB7DEB72397D8
:10033000CDBFDEBF2196B0E85B1641F4B0E04B16AE
:1003400029F4B0E03B1611F4B0E02B16D1F4F30120
:10035000BDE2B193B2E3B193B1E3B193B4E3B1932E
:10036000B7E3B193B4E3B193B8E3B193B3E3B1931B
:10037000B6E3B193B4E3B193B8E3B193B0E0B19312
:100380007BC0B0E0BA8300E010E020E030E020164F
:1003900031064206530664F4BFEFBA8300E010E072
:1003A00020E030E002191309240935091801290158
:1003B000F301B0E2B193B0E2B193B0E2B193B0E235
:1003C000B193B0E2B193B0E2B193B0E2B193B0E2D5
:1003D000B193B0E2B193B0E2B193B0E3B193B0E0C6
:1003E000B1938301065F1F4F08831983B0E05B164A
:1003F00041F4B0E04B1629F4B0E03B1611F4B0E044
:100400002B1699F17F926F925F924F923F922F92AB
:100410004AE050E060E070E081019201B7D08B01CA
:100420009C012F903F904F905F90005DE881F98193
:1004300000835F924F923F922F924AE050E060E03B
:1004400070E081019201A2D089019A012F903F9022
:100450004F905F906F907F9018012901088119815A
:100460000150104008831983C1CF0A81002321F075
:10047000E881F981BDE2B0832296CDBFDEBFDF9176
:10048000CF910895002E112E222E332E042F152FDA
:10049000262F372F4EDE00231CF00024039401C0CA
:1004A00000240895E894AEDE0895B0E0BBBD2ABCF8
:1004B0000895B0E0B9BD28BC0895CF93DF93CDB7C0
:1004C000DEB72497CDBFDEBF2196152D110FB7E003
:1004D000042D0695BA95E9F7010F0F57202F30E04C
:1004E00007FD3FEF00E010E020173107DCF440E0AB
:1004F00050E060E070E081019201C4DF002800E07C
:1005000009F00FEF002331F0B0E0B883B983BA836C
:10051000BB8307C0B0E0B883B983B0E8BA83BFE358
:10052000BB832AC008E1021728F4288239824A8254
:100530005B8222C081019201C8DEB4DF0883198387
:100540002A833B83A101B201088119812A813B8161
:10055000B5DE002800E009F00FEF002369F0088104
:1005600019812A813B8140E050E060E87FE392DE20
:10057000088319832A833B83088119812A813B815F
:100580002396CDBFDEBFDF91CF910895C9019A01B7
:10059000AB01B80197FB092E05260ED057FD04D0FC
:1005A00014D00AD0001C38F4509540953095219510
:1005B0003F4F4F4F5F4F0895F6F790958095709598
:1005C00061957F4F8F4F9F4F0895A1E21A2EAA1B6E
:1005D000BB1BFD010DC0AA1FBB1FEE1FFF1FA217F3
:1005E000B307E407F50720F0A21BB30BE40BF50BF0
:1005F000661F771F881F991F1A9469F76095709579
:10060000809590959B01AC01BD01CF010895CF93DA
:10061000DF93CDB7DEB72397CDBFDEBF2196B0E025
:10062000B883B0E8B983B0E0BA8309811A81103089
:1006300009F4003009F439C00E94B72B0E94B72B8F
:10064000B0913400BD7FB09334000E94B72B0E945C
:10065000B72BB0913400BE7FB0933400B091280323
:10066000BB7FB0932803B0913300B0FD06C0B091BA
:100670002803B2FF01C001C0F6CFB0913300B1FF33
:1006800004C018810981012B08830E94B72B0E94A6
:10069000B72BB0913400B160B093340009811A8156
:1006A0001695079509831A83C0CFB0913400BD7F9A
:1006B000B09334000E94B72B0E94B72BB0E03B16DA
:1006C00011F4B0E02B1629F0B0913400B260B09371
:1006D00034000E94B72B0E94B72BB0913400BE7F2C
:1006E000B0933400B0912803BB7FB0932803B0913E
:1006F0003300B0FD06C0B0912803B2FF01C001C0B5
:10070000F6CF0E94B72B0E94B72BB0913400B16096
:10071000B09334000E94B72B0E94B72BB0913400E5
:10072000B260B093340008812296CDBFDEBFDF9166
:10073000CF910895BB27AA279927882700FF04C0D7
:10074000840F951FA61FB71F440F551F661F771FE5
:10075000369527951795079589F730502040100753
:1007600069F79D018C010895CF93DF93CDB7DEB774
:1007700025962F923F924F925F92088119810883AC
:1007800019830A811B810A831B830C810C830D81D1
:100790001E810F81013071F42101B1E03B2E262C26
:1007A0000E94532A48805980B1E03B2E2C800E9441
:1007B000532A0CC0B1E03B2E262C0E94532A4A80BB
:1007C0005B80B1E03B2E2C800E94532A5F904F90BB
:1007D0003F902F90DF91CF910895C801BA01AA1BD5
:1007E000BB1B51E107C0AA1FBB1FA617B70710F01C
:1007F000A61BB70B881F991F5A95A9F7809590954E
:10080000089523BC0895CF93DF93CDB7DEB7A197AA
:10081000CDBFDEBF2196B0E0BE8F8101920155DDD4
:10082000088319832A833B835F924F923F922F92D2
:1008300040E050E060E070E0810192013FDD00287F
:1008400000E009F00FEF2F903F904F905F90002352
:1008500011F0BFEFBE8F8E010A5F1F4F7F926F9224
:100860005F924F923F922F923801288039804A80C0
:100870005B8059DD2F903F904F905F906F907F90FD
:10088000088119812A813B810DDE5F924F923F9250
:100890002F92A801B901810192013BDD40E050E5B2
:1008A00063EC77E401DD2F903F904F905F900DDD7A
:1008B000088319832A833B8340E050E060E070E0C6
:1008C000041715072607370784F40880198000E00D
:1008D00010E0001911090A801B8020E030E0200997
:1008E0003109088319832A833B838E010E5E1F4FD3
:1008F0007F926F925F924F923F922F9238012880A1
:1009000039804A805B800FDD2F903F904F905F9041
:100910006F907F9040E050E0B0E0BC83BD83F30176
:10092000B0E2B193B0E2B193B0E2B193B0E2B1936F
:10093000B0E2B193B0E2B193B0E2B193B0E2B1935F
:10094000B0E2B193B0E2B193B0E3B193B0E0B19350
:100950005F934F9381019201B8DC303029F420304D
:1009600019F4103009F40030B0E009F4BFEF0B2F98
:1009700008A340E050E060E070E0810192019EDC5D
:10098000002800E009F00FEF4F915F9118A10123BB
:10099000002341F0F301BDE2B08311E020E0412FDC
:1009A000522F00C02E81203281F40C811D819801CC
:1009B0002F5F3F4F2C833D838E010A5F1F4FF9014C
:1009C000E00FF11F0081202FEECF022F0030D1F079
:1009D000FA01E60DF71D00830C811D8198012F5F40
:1009E0003F4F2C833D838A010F5F1F4FB8018E015B
:1009F0000A5F1F4FF901E00FF11F0081202F022F26
:100A0000AB01E4CF0E8D003010E009F41FEF503041
:100A100009F4403000E009F40FEF012351F0FA012E
:100A2000E60DF71DB0E3B0838A010F5F1F4F9801F9
:100A300001C09A01303009F4213010E009F41FEFB1
:100A40000E8D012359F0F901E60DF71DB0E3B083D7
:100A500089010F5F1F4FA8019A0100C0F901E60D3F
:100A6000F71DBEE2B08389010F5F1F4FA801B6E0FA
:100A7000BC83B0E0BD83288D2030F9F0203219F41A
:100A800020E3022F01C0022FFA01E60DF71D0083BB
:100A90000C811D8198012F5F3F4F2C833D838A017C
:100AA0000F5F1F4FB8018E010E5E1F4FF901E00F5F
:100AB000F11F0081AB01202FDFCFFA01E60DF71DFA
:100AC000B0E0B083A096CDBFDEBFDF91CF91089597
:100AD000B1E14B1619F43BBC2ABC06C0B2E14B167F
:100AE00019F439BC28BC00C00895CF93DF93CDB76B
:100AF000DEB72397CDBFDEBF2196B0E83B1611F4D9
:100B0000B0E02B1681F4F201BDE2B193B3E3B193EF
:100B1000B2E3B193B7E3B193B6E3B193B8E3B19362
:100B2000B0E0B19351C0B0E0BA8300E010E020160D
:100B300031063CF4BFEFBA8300E010E0021913095C
:100B40001801F201B0E2B193B0E2B193B0E2B19317
:100B5000B0E2B193B0E2B193B0E3B193B0E0B1933E
:100B600082010B5F1F4F08831983B0E03B1611F41D
:100B7000B0E02B1611F15F924F923F922F924AE014
:100B800050E0810118D68C012F903F90005DE881E4
:100B9000F98100833F922F924AE050E081010BD609
:100BA0008B012F903F904F905F9018010881198121
:100BB0000150104008831983D8CF0A81002321F007
:100BC000E881F981BDE2B0832296CDBFDEBFDF911F
:100BD000CF9108952F92B1E02B1619F4B0E82B2E87
:100BE00014C0B2E02B1619F4B0EC2B2E0EC0B3E0FB
:100BF0002B1619F4B4E92B2E08C0B4E02B1619F407
:100C0000B4ED2B2E02C0B0E82B2E032D0150020DA7
:100C1000202EB0912803B860B0932803202E0E94A4
:100C2000EA38B0912803B77FB0932803242C0E94A0
:100C3000EA38B0912803B860B09328032F90089544
:100C40006894E0DA08952CBE089523BC0895CF93EC
:100C5000DF93CDB7DEB72897CDBFDEBF21962F92A9
:100C60003F924F925F926F927F928F929F924F929C
:100C70003F922F92BEE18B2EB3E09B2EB3E36B2EFF
:100C8000B3E07B2EB1E34B2EB3E05B2EBDE12B2E08
:100C9000B3E03B2EB3E0BF93B1E6BF93B3E0BF93A5
:100CA000B1E2BF93B3E0BF93BBE1BF9336D3ADB71F
:100CB000BEB71696ADBFBEBF2F903F904F903F92EC
:100CC0002F92B1E02B2EC5D72F903F904F923F929D
:100CD0002F920E94D42B2F903F902101B1E03B2E08
:100CE000B1E02B2E0E94532AFE013296B0E5B1935B
:100CF000B2E7B193BFE6B193B7E6B193BAE3B1936C
:100D0000B0E0B1938E010E5F1F4F2801B8E03B2E7B
:100D1000B1E02B2E0E94532A4F908E01242C302EAE
:100D2000412E0E94A5348E012801BCE03B2EB1E08B
:100D30002B2E0E94532ABAE3BA83B0E0BB838E0104
:100D40000E5F1F4F2801BCE03B2EB1E02B2E0E940E
:100D5000532AFE013296BDE4B193B9E6B193BEE6E3
:100D6000B193BAE3B193B0E0B1938E010E5F1F4F20
:100D70002801B1E03B2EB2E02B2E0E94532AFE0147
:100D80003296BCE2B193B3E5B193B5E6B193B3E665
:100D9000B193BAE3B193B0E0B1938E010E5F1F4FF0
:100DA0002801B9E03B2EB2E02B2E0E94532A00917D
:100DB000330310913403007F1070B4E0159507954C
:100DC000BA95E1F74AE050E00E94690F20913303A1
:100DD000309134032F703070020F131F00933303D0
:100DE000109334030091310310913203007F10708F
:100DF000B4E015950795BA95E1F74AE050E00E94F6
:100E0000690F20913103309132032F703070020F3F
:100E1000131F009331031093320310911A03209192
:100E2000230300911A034AE022D7005D2F931F93FA
:100E3000402EB5E03B2EB2E02B2ECCDE1F914AE0D7
:100E4000012F15D7092F005D402EB6E03B2EB2E0F2
:100E50002B2EC0DE2F914AE0022F09D7005D2F9381
:100E6000402EBEE03B2EB2E02B2EB4DE2F914AE0A6
:100E7000022FFDD6092F005D402EBFE03B2EB2E0D1
:100E80002B2EA8DE9F908F907F906F905F904F9059
:100E90003F902F902796CDBFDEBFDF91CF91089571
:100EA000CF93DF93CDB7DEB72297CDBFDEBF2196BC
:100EB000022D015010E042E351E00E94690F20E64C
:100EC00030E0020F131F432D41500883198309E9B5
:100ED00010E050E0FED728813981020F131FF8017E
:100EE0007196B0E5B193B2E7B193BAE3B193B0E2D2
:100EF000B193B0E2B193B0E2B193B0E2B193B0E29A
:100F0000B193B0E2B193B2E3B193B0E2B193B0E286
:100F1000B193B0E2B193B3E3B193B0E2B193B0E275
:100F2000B193B0E0B193022D015010E042E351E0E3
:100F3000D0D720E630E0020F131F432D4150088325
:100F4000198309E910E050E0C4D728813981020FE4
:100F5000131F0D5C1F4FF8017196B0E5B193B2E716
:100F6000B193BAE3B193B0E2B193B1E3B193B0E21C
:100F7000B193B0E2B193B0E2B193B0E2B193B0E219
:100F8000B193B0E2B193B0E2B193B0E2B193B3E305
:100F9000B193B0E2B193B0E2B193B0E0B193022D5E
:100FA000015010E042E351E094D720E630E0020F18
:100FB000131F432D41500883198309E910E050E0C5
:100FC00088D728813981020F131F0A591F4FF80152
:100FD0007196B0E5B193B2E7B193BAE3B193B0E2E1
:100FE000B193B1E3B193B0E2B193B0E2B193B0E2A7
:100FF000B193B0E2B193B2E3B193B0E2B193B0E296
:10100000B193B0E2B193B0E2B193B0E2B193B0E288
:10101000B193B0E0B1932196CDBFDEBFDF91CF9108
:10102000089500912403202F2F5FB0E04B1610E0AD
:1010300009F41FEF0B33B0E009F4BFEF0B2F0123CE
:10104000022B401640F0009123030F5F009323030F
:101050004092240306C000912403401611F04092F0
:10106000240300911F03202F2F5FB0E03B1610E0F8
:1010700009F41FEF0B33B0E009F4BFEF0B2F01238E
:10108000022B301618F030921F0306C000911F0388
:10109000301611F030921F03009123030C3340F0FF
:1010A000B0E0B093230300911A030F5F00931A037B
:1010B00000911A030C3358F0B0E0B0931A03B0E07B
:1010C000B0932303009119030F5F0093190300915C
:1010D0001903083148F0B0E0B0931903B0E0B093C1
:1010E0001A03B0E0B0932303089500913E03007FFC
:1010F000102F16951695169516950AE0109F102D2F
:1011000000913E030F70010F00933E0300914403D2
:10111000007F102F16951695169516950AE0109FCC
:10112000102D009144030F70010F009344030091B0
:101130004C03007F102F16951695169516950AE00C
:10114000109F102D00914C030F70010F00934C0362
:1011500000913C03077000933C0300913D03007F26
:10116000102F16951695169516950AE0109F102DBE
:1011700000913D030F70010F00933D0300913F0369
:101180000071102F16951695169516950AE0109F6A
:10119000102D00913F030F70010F00933F0300914A
:1011A0004303007F102F16951695169516950AE0A5
:1011B000109F102D009143030F70010F0093430304
:1011C0000895CF93DF93CDB7DEB72A97CDBFDEBFAB
:1011D000219600E010E0B0E1BA83B7E2BB83B0E053
:1011E000B883B983B0E0BE83BF83B887B987B0E066
:1011F000BC83BD8308811981F801E20DF31D0081D4
:10120000003009F446C008811981F801E20DF31D90
:1012100000810D3259F4BFEFBC83B0E0BD8308817B
:1012200019810F5F1F4F08831983E4CF088119814B
:10123000F801E20DF31D00810032E1F0088119810F
:10124000F801E20DF31D008110E00053104020E092
:10125000322F4A815B8160E0762F6CDA4E815F81AC
:1012600068857985040F151F261F371F0E831F837E
:10127000288739874AE050E00A811B81AEDA8C0169
:101280000A831B83088119810F5F1F4F088319830D
:10129000B1CF0C811D81B02FB12B29F0B6E0BA83FC
:1012A000B0E0BB8304C0B5E0BA83B0E0BB83288163
:1012B00039810A811B8120173107D1F03F922F928B
:1012C0004AE050E060E070E00E811F81288539859A
:1012D0005DD989019A012F903F900E831F83288743
:1012E0003987088119810F5F1F4F08831983DFCF6A
:1012F0002E813F810C811D81B02FB12B39F000E090
:1013000010E0021B130BA8019A0100C08901299665
:10131000CDBFDEBFDF91CF910895CF93DF93CDB7DF
:10132000DEB725962F923F92088119810883198391
:101330000A811B810A831B830C811D810C831D8301
:101340009F928F927F926F925F924F923F922F92D5
:101350009FD5B0ED2B2E9FD422249DD499D5B1EDED
:101360002B2E99D4B1E02B2EB0E03B2E50D92F90EC
:101370003F904F905F906F907F90F30100835F925A
:101380004F923F922F92B1E02B2EB0E03B2E3FD9EF
:101390002F903F904F905F90F20100833F922F92E9
:1013A000B1E02B2EB0E03B2E32D92F903F90F101CF
:1013B0000083B1E02B2EB0E03B2E29D9E881F981E2
:1013C0000083B1E02B2EB0E03B2E21D98F909F906F
:1013D000F4010083B1E02B2EB0E03B2E18D9EA8156
:1013E000FB8100832224332412D9EC81FD81008308
:1013F00018D53F902F90DF91CF9108950190002054
:1014000011F00D92D9F708952F923F924F925F926B
:101410006F927F92022D10E0432D50E05AD544E6A2
:1014200050E0DBD98C0120E0322F0ADC4F923F9252
:101430002F921801290141D82F903F904F90A80179
:10144000B9017F936F935F934F934F923F922F9287
:10145000BBE26B2EB3E07B2E18012901D4D92F906B
:101460003F904F904F915F916F917F918A019B01C7
:101470000E94650198013F932F934F923F922F92C4
:10148000BDE44B2EB3E05B2E18012FDB2F903F9075
:101490004F902F913F91B2E04B1629F4B2E14B2EC1
:1014A000190116DB79C0B1E04B1629F4B1E14B2EDE
:1014B00019010EDB71C0BEE14B16A9F4B0E02B168A
:1014C00029F4232CB0E03B2EBEDB0CC0231421F406
:1014D00022243324B8DB06C0032D10E0021B130BBB
:1014E0001801B1DB59C0B1E24B1649F4B0E02B163C
:1014F00019F41901A8DB02C01901A5DB4DC0B4E045
:101500004B1651F4B0E02B1621F4222433249DDB3A
:1015100002C019019ADB40C0B7E34B1619F4222E22
:1015200070D93AC0BDE24B1629F4B2E04B2E190136
:10153000CFDA32C0B2E34B1619F4222E62D92CC096
:10154000B9E14B1699F4B0E02B1641F4032D10E0ED
:10155000021B130B18010E94550207C0032D10E057
:10156000021B130B18010E94550216C0B3E24B1662
:1015700099F4B0E02B1641F4032D10E0021B130B7D
:1015800018010E94590207C0032D10E0021B130B23
:1015900018010E94590200C07F906F905F904F9099
:1015A0003F902F900895B091CA02B6FD08C0B0B325
:1015B000B064B0BBB091CA02B064B093CA020895DF
:1015C000CF93DF93CDB7DEB72797CDBFDEBF219690
:1015D000B1E0B883B1E0BA83B1E0B98309812016E4
:1015E00008F4D5C00881015010E042E351E071D405
:1015F00020E630E0020F131F4A8141500D831E8305
:1016000009E910E050E065D42D813E81020F131FDF
:10161000498141500D831E8303E310E050E059D40B
:101620002D813E81F801E20FF31FB0E2B193B0E2E9
:10163000B193B0E2B193B0E2B193B0E2B193B0E252
:10164000B193B0E2B193B0E2B193B0E2B193B0E242
:10165000B193B0E2B193B0E2B193B0E2B193B0E232
:10166000B193B0E2B193B0E2B193B0E0B19308812D
:10167000015010E042E351E02CD420E630E0020FAC
:10168000131F4A8141500D831E8309E910E050E089
:1016900020D42D813E81020F131F498141500D83BB
:1016A0001E8303E310E050E014D42D813E81020F2D
:1016B000131FF8017196B0E2B193B0E2B193B0E2BA
:1016C000B193B0E2B193B0E2B193B0E2B193B0E2C2
:1016D000B193B0E2B193B0E2B193B0E2B193B0E2B2
:1016E000B193B0E2B193B0E2B193B0E2B193B0E2A2
:1016F000B193B0E2B193B0E0B1930881015010E032
:1017000042E351E0E6D320E630E0020F131F4A81A6
:1017100041500D831E8309E910E050E0DAD32D819A
:101720003E81020F131F498141500D831E8303E345
:1017300010E050E0CED32D813E81020F131FF8013F
:10174000B296B1E3B193B0E0B1930A810150202F7A
:1017500030E0220F331F06EC12E0F901E00FF11F19
:10176000B0E0B0830A810150202F30E0220F331FF8
:1017700006EC12E0020F131FF8013196B0E0B083BF
:101780000981021521F009810F5F098327CF0A81A2
:10179000023021F00A810F5F0A831ECF08810230D8
:1017A00021F008810F5F088315CF2696CDBFDEBFDD
:1017B000DF91CF910895C801BA0197FB092E072642
:1017C0000AD077FD04D00CD006D000201AF4709512
:1017D00061957F4F0895F6F7909581959F4F0895F5
:1017E000AA1BBB1B51E107C0AA1FBB1FA617B70747
:1017F00010F0A61BB70B881F991F5A95A9F7809563
:101800009095BC01CD0108950895CF93DF93CDB796
:10181000DEB76897CDBFDEBF21962F923F924F92E1
:101820005F92AC2FBD2F0CE30D93F201E7DD00E2D8
:101830000D9304E50D9309E60D930DE60D9309E66E
:101840000D930EE60D9307E60D930EE30D9300E066
:101850000D938E013F922F922801B1E03B2EB1E013
:101860002B2E0E94532A2F90BDE43B2EB3E04B2E2B
:101870000E94A5343F90AC2FBD2F0DE40D9309E6D7
:101880000D930EE60D930AE30D93EDE4F3E0B6DD60
:1018900000E00D938E013F922801B1E03B2EB2E0B3
:1018A0002B2E0E94532A3F90232CBDE43B2EB3E005
:1018B0004B2E0E94A534AC2FBD2F03E50D9305E6FA
:1018C0000D9303E60D930AE30D93EDE4F3E096DD4B
:1018D00000E00D938E012801B9E03B2EB2E02B2EE3
:1018E0000E94532A5F904F903F902F906796CDBFF4
:1018F000DEBFDF91CF910895CF93DF93CDB7DEB7F1
:101900002C97CDBFDEBF21962F923F924F925F92D0
:101910006F927F928F92B0E02B1609F4A1C00091D4
:10192000C502015010E042E351E0D3D20A871B8781
:1019300020E630E0020F131F4091C402415008839B
:10194000198309E910E050E0C4D2288139810A8363
:101950001B83020F131F442D41500883198303E397
:1019600010E050E0B6D228813981200F311F28873E
:10197000398720E630E06A857B85260F371F4A814C
:101980005B81240F351F200F311F2F5E3F4F2E83A9
:101990003F8320E630E0260F371F240F351F020F4C
:1019A000131F0E5D1F4F0C831D8300E610E0060F12
:1019B000171F0883198309E910E04091C40250E021
:1019C00088D2288139810A831B83020F131F422D7D
:1019D00041500883198303E310E050E07AD2288154
:1019E0003981702E812E720E831E20E630E06A85CA
:1019F0007B85260F371F4A815B81240F351F200FFF
:101A0000311F922FA32F9F5EAF4F2091C402822FD0
:101A10008F5F20E630E0260F371F240F351F020F9F
:101A2000131FB8016E5D7F4F488559852E813F8118
:101A30000C811D816F927F936F938F93AF939F93D0
:101A40008F927F92702E812E29011A016090C4021C
:101A50000E94B403ADB7BEB71896ADBFBEBFECC011
:101A60000091C502015010E042E351E032D20A87F2
:101A70001B8720E630E0020F131F4091C402415043
:101A80000883198309E910E050E023D228813981C5
:101A90000A831B83020F131F442D415008831983AF
:101AA00003E310E050E015D22881398108871987B7
:101AB000200F311F2E833F8320E630E06A857B852F
:101AC000260F371F4A815B81240F351F200F311FDE
:101AD0002F5E3F4F2C833D8320E630E0260F371FDB
:101AE000240F351F020F131F0E5D1F4F0A831B8328
:101AF00000E610E0060F171F0883198309E910E0BC
:101B00004091C40250E0E5D128813981200F311F76
:101B100068857985762E872E720E831E20E630E04A
:101B20004A855B85240F351F200F311F260F371F75
:101B3000922FA32F9F5EAF4F2091C402822F8F5F01
:101B400020E630E0240F351F020F131F060F171F6A
:101B5000B8016E5D7F4F4E815F812C813D810A818E
:101B60001B813F926F927F936F938F93AF939F935D
:101B70008F927F92702E812E29011A016090C402EB
:101B80000E94B403ADB7BEB71896ADBFBEBF3F90BD
:101B9000232CBDE43B2EB3E04B2E0E94A5340091D4
:101BA000C4020150202F30E0220F331F06EC12E058
:101BB000020F131FF801319600810030B9F0009137
:101BC000C4020150202F30E0220F331F06EC12E038
:101BD000020F131FF80131960081BDE44B2EB3E0D4
:101BE0005B2E302E2090C4020E94532A0091C40222
:101BF000202F30E0220F331F06EC12E0020F131FDC
:101C0000F801319600810030B9F00091C402402FF4
:101C10004F5F202F30E0220F331F06EC12E0020F3F
:101C2000131FF80131960081BDE44B2EB3E05B2E0B
:101C3000302E242E0E94532A8F907F906F905F90B9
:101C40004F903F902F902B96CDBFDEBFDF91CF916D
:101C500008950895B0912803B77FB09328030E9498
:101C6000EA38B0912803B860B09328030895992703
:101C700079E004C0991F941708F0941B001F7A950F
:101C8000C9F7009508951BE008E50A95F1F71A9544
:101C9000E1F700000895CF93DF93CDB7DEB7239728
:101CA000CDBFDEBF2196B1E0B883B0E8B983B0E024
:101CB000BA8309811A81103009F4003009F443C055
:101CC0000E94B72B0E94B72B0E94B72B0E94B72B04
:101CD000B0913400B160B09334000E94B72B0E94E1
:101CE000B72B09811A8102211070103009F40030DD
:101CF00031F0B0913400BD7FB093340005C0B09195
:101D00003400B260B09334000E94B72B0E94B72B0E
:101D1000B0913400BE7FB0933400B0912803BB7FF4
:101D2000B0932803B0913300B0FD06C0B0912803F2
:101D3000B2FF01C001C0F6CF09811A81169507953F
:101D400009831A83B6CFB0E0B8830E94B72B0E94F4
:101D5000B72BB0913400B160B09334000E94B72B20
:101D60000E94B72BB0913400BD7FB09334000E9425
:101D7000B72B0E94B72B0E94B72B0E94B72BB091B4
:101D80003400BE7FB0933400B0912803BB7FB09382
:101D90002803B0913300B0FD06C0B0912803B2FF14
:101DA00001C001C0F6CFB0E0B8830E94B72B0E94FB
:101DB000B72BB0913300B1FF03C0088101600883E5
:101DC0000E94B72B0E94B72B0E94B72B0E94B72B03
:101DD0000E94B72B0E94B72B0E94B72B0E94B72BF3
:101DE0000E94B72B0E94B72B0E94B72B0E94B72BE3
:101DF0000E94B72B0E94B72B0E94B72B0E94B72BD3
:101E0000B0913400B160B0933400B0913400B2604E
:101E1000B093340008812296CDBFDEBFDF91CF9111
:101E20000895B0913400B260B09334000E94B72B93
:101E30000E94B72BB0913400BE7FB0933400B091B4
:101E40002803BB7FB0932803B0913300B0FD06C0D8
:101E5000B0912803B2FF01C001C0F6CF0E94B72B9A
:101E60000E94B72B0E94B72B0E94B72B0E94B72B62
:101E70000E94B72B0E94B72B0E94B72BB091340061
:101E8000BD7FB09334000E94B72B0E94B72B0895FA
:101E9000B0913400BD7FB09334000E94B72B0E94F4
:101EA000B72BB0913400BE7FB09334000E94B72BA3
:101EB0000E94B72BB0913400B260B09334000E94FE
:101EC000B72B0E94B72BB0913400B160B0933400AF
:101ED00008959801249F8001259F100D349F100DB7
:101EE0000895CF93DF93CDB7DEB7A697CDBFDEBF02
:101EF0002196088319836F925F923F922F920E94DE
:101F0000D42B2F903F905F906F90B091CA02B06237
:101F1000B093CA02B091CA02BB7FB093CA02B0911B
:101F2000CA02BD7FB093CA02B0E0BB83BC83B0914C
:101F3000CA02BE7FB093CA02B091CA02B77FB09303
:101F4000CA02B091CA02B5FF03C46F925F924F926A
:101F50003F922F92452C562C30901503209017035A
:101F600054DC2F903F904F905F906F90B1E0B09312
:101F700014031091140305EF011708F4E8C300914E
:101F800014030F5F00931403B091CA02BB7FB09398
:101F9000CA02B091CA02BD7FB093CA02FE01369652
:101FA000B8E6B193B5E6B193B1E6B193B4E7B193B6
:101FB000B5E6B193B2E7B193B0E0B1938E010A5F99
:101FC0001F4F6F925F924F923F922F92252C362C8B
:101FD00028010E94252A2F903F904F905F906F908C
:101FE000103009F4003089F4B091CA02B460B093A3
:101FF000CA022F92B1E02B2E2CDE2F90B6EFB093B9
:102000001403B1E0BB83B0E0BC83FE013696BDE6AD
:10201000B193BFE6B193B4E7B193BFE6B193B2E732
:10202000B193B0E0B1938E010A5F1F4F6F925F9240
:102030004F923F922F92252C362C28010E94252A60
:102040002F903F904F905F906F90103009F40030C8
:1020500089F4B091CA02B260B093CA022F92B1E083
:102060002B2EF7DD2F90B6EFB0931403B1E0BB83B6
:10207000B0E0BC836F925F924F923F922F92452CBB
:10208000562C3090150320901703BFDB2F903F9004
:102090004F905F906F90B091CA02B2FB51F9B0912E
:1020A000CA02B1FB50F9689451FF50FD01C0E89499
:1020B00050F950FF13C229E01EE105EE0A95F1F731
:1020C0001A95E1F72A95D1F70000B1E0BA83B0E0A4
:1020D000BD83B091CA02BB7FB093CA02B091CA025D
:1020E000BD7FB093CA020A81002309F4F7C1FE0143
:1020F0003696B8E6B193B5E6B193B1E6B193B4E7DD
:10210000B193B5E6B193B2E7B193B0E0B1938E016C
:102110000A5F1F4F6F925F924F923F922F92252C32
:10212000362C28010E94252A2F903F904F905F90D7
:102130006F90103009F4003009F047C06F925F9241
:102140004F923F922F92B1E06B2EB4E65B2EB4E03B
:102150004B2EB6E32B2EB0E03B2E0E943D332F904A
:102160003F904F905F906F90003059F0BFEFBB836E
:10217000BC83B091CA02B260B093CA02B3E0BD831F
:1021800023C06F925F924F923F922F92B1E06B2EDD
:10219000B4E65B2EB1E04B2EB6E32B2EB0E03B2E27
:1021A0000E943D332F903F904F905F906F90003092
:1021B00059F0B1E0BB83B0E0BC83B091CA02B46017
:1021C000B093CA02B3E0BD8346C06F925F924F9254
:1021D0003F922F92B1E06B2EB4E65B2EB1E04B2E16
:1021E000B6E32B2EB0E03B2E0E943D332F903F9064
:1021F0004F905F906F90003061F0B1E0BB83B0E032
:10220000BC83B091CA02B460B093CA02B3E0BD838C
:1022100022C06F925F924F923F922F92B1E06B2E4D
:10222000B4E65B2EB4E04B2EB6E32B2EB0E03B2E93
:102230000E943D332F903F904F905F906F90003001
:1022400051F0BFEFBB83BC83B091CA02B260B093C0
:10225000CA02B3E0BD836F925F924F923F922F927A
:10226000B1E06B2EB1E05B2EB2E04B2EB6E32B2E2D
:10227000B0E03B2E0E943D330030B0E009F0BFEFEC
:102280000B2F0DA3B1E06B2EB1E05B2E4424B6E31F
:102290002B2EB0E03B2E0E943D332F903F904F906D
:1022A0005F906F90003010E009F01FEF0DA1012B3F
:1022B000F9F0B091CA02B160B093CA02B0E0BA833B
:1022C000B091CA02BF7DB093CA02BAEFB0931403B3
:1022D000E881F981B6E6B193B9E6B193BEE6B19370
:1022E000B9E6B193B3E7B193B8E6B193B0E0B19377
:1022F0000D81033009F0ACC0209115033091160315
:102300000B811C81200F311F20931503309316037E
:10231000022D10E0021713077CF4009117031091AF
:1023200018030F5F1F4F0093170310931803309289
:102330001503B0E0B0931603009115031091160336
:102340000315B0E01B077CF40091170310911803EC
:1023500001501040009317031093180320921503A7
:10236000B0E0B0931603FE013696B8E6B193B5E639
:10237000B193B1E6B193B4E7B193B5E6B193B2E7E7
:10238000B193B0E0B1938E010A5F1F4F6F925F92DD
:102390004F923F922F92252C362C28010E94252AFD
:1023A0002F903F904F905F906F90103009F4003065
:1023B00039F520911703309118030AE010E0021755
:1023C000130754F430921703B0E0B093180330921F
:1023D0001503B0E0B0931603009117031091180392
:1023E0000315B0E01B075CF4BAE0B0931703B0E04C
:1023F000B093180330921503B0E0B093160326C0D3
:10240000209117033091180301E010E00217130721
:1024100054F430921703B0E0B093180330921503D0
:10242000B0E0B09316030091170310911803031541
:10243000B0E01B075CF4B1E0B0931703B0E0B093D9
:10244000180330921503B0E0B0931603B0E0BD83DB
:102450006F925F924F923F922F92452C562C309064
:10246000150320901703D1D96624B1E05B2EB1E0AB
:102470004B2EB6E32B2EB0E03B2E0E943D33009056
:10248000CA02112702FC139501230DA36624B1E0B3
:102490005B2EB4E04B2EB6E32B2EB0E03B2E0E9419
:1024A0003D332F903F904F905F906F900090CA0205
:1024B000112701FC139510230DA1012B71F0B09190
:1024C000CA02BB7FB093CA02B091CA02BD7FB0936B
:1024D000CA02B0E0BA83B0E0BD8305CEB2E0B093EB
:1024E000C502B091CA02B77FB093CA026F925F92E1
:1024F0004F923F922F92B1E06B2EB1E05B2EB1E094
:102500004B2EB6E32B2EB0E03B2E0E943D332F9096
:102510003F904F905F906F900030B9F1FE0136967A
:10252000BDE6B193BFE6B193B4E7B193BFE6B19313
:10253000B2E7B193B0E0B1938E010A5F1F4F6F9283
:102540005F924F923F922F92252C362C28010E94A9
:10255000252A2F903F904F905F906F90103009F494
:10256000003099F4BAEFB0931403E881F981B8E62A
:10257000B193B5E6B193B1E6B193B4E7B193B5E6E3
:10258000B193B2E7B193B0E0B1936F925F924F9283
:102590003F922F92B1E06B2EB1E05B2EB4E04B2E58
:1025A000B6E32B2EB0E03B2E0E943D332F903F90A0
:1025B0004F905F906F900030B9F1FE013696B8E60B
:1025C000B193B5E6B193B1E6B193B4E7B193B5E693
:1025D000B193B2E7B193B0E0B1938E010A5F1F4FA0
:1025E0006F925F924F923F922F92252C362C2801AA
:1025F0000E94252A2F903F904F905F906F9010304F
:1026000009F4003089F4BAEFB0931403E881F9813A
:10261000BDE6B193BFE6B193B4E7B193BFE6B19322
:10262000B2E7B193B0E0B1936F925F924F923F9255
:102630002F92B1E06B2EB1E05B2EB2E04B2EB6E3F1
:102640002B2EB0E03B2E0E943D330030B0E009F06D
:10265000BFEF0B2F0DA3B1E06B2EB1E05B2E442436
:10266000B6E32B2EB0E03B2E0E943D332F903F90DF
:102670004F905F906F90003010E009F01FEF0DA1B8
:10268000012B29F0B091CA02B160B093CA026F92D7
:102690005F924F923F922F926624B1E05B2EB2E0A0
:1026A0004B2EB6E32B2EB0E03B2E0E943D33009024
:1026B000CA02112700FC139501230DA31090CA0232
:1026C0000090CA025E7F15FC07FE01C051606624BF
:1026D000B1E05B2E4424B6E32B2EB0E03B2E0E94EB
:1026E0003D332F903F904F905F906F90112750FD9A
:1026F000139510230DA1012BC1F0B091CA02BE7F2A
:10270000B093CA02BAEFB0931403E881F981B6E638
:10271000B193B9E6B193BEE6B193B9E6B193B3E72D
:10272000B193B8E6B193B0E0B193009114030A3FBE
:1027300069F42F92B1E02B2E8CDA2F90B6EFB09384
:102740001403B091CA02BF7DB093CA0212CCF9CB78
:102750006F925F924F923F922F920E94D42BFE0174
:102760003696B6E5B193B1E6B193BCE6B193B5E761
:10277000B193B5E6B193B0E2B193B3E7B193B5E6E7
:10278000B193B4E7B193B0E2B193B6E6B193BFE6CB
:10279000B193B2E7B193BAE3B193B0E0B1938E01D4
:1027A0000A5F1F4F2801B1E03B2EB1E02B2E0E94A3
:1027B000532A2F903F904F905F906F90AC2FBD2F7A
:1027C000AB5EBF4F0EE30D930EE30D930EE30D933F
:1027D00000E20D93E52DF62D0E94FE0900E20D9317
:1027E0000CE30D930CE30D930CE30D9300E00D93BC
:1027F0008E010B5E1F4F6F925F924F923F922F920E
:102800002801B1E03B2EB2E02B2E0E94532A2F90DC
:102810003F904F905F906F90A596CDBFDEBFDF9148
:10282000CF910895CF93DF93CDB7DEB72297CDBF79
:10283000DEBF2196B091CA02B062B093CA02B091D5
:10284000CA02B77FB093CA02B1E0B093C502B1E04B
:10285000B093C4022F92232C0E94E00A2F90B1E083
:102860002B2E321408F4D7C00091C502015010E09D
:1028700042E351E02EDB20E630E0020F131F4091CF
:10288000C40241500883198309E910E050E021DBBC
:1028900028813981020F131F422D4150088319836B
:1028A00003E310E050E015DB28813981F801E20FE5
:1028B000F31FB0E5B193BCE6B193B3E7B193B0E2D7
:1028C000B193B3E4B193B8E6B193B3E7B193B0E297
:1028D000B193B0E5B193B2E7B193B7E6B193B0E28B
:1028E000B193BEE4B193B5E7B193BDE6B193B0E067
:1028F000B1930091C502015010E042E351E0E9DAE2
:1029000020E630E0020F131F4091C40241500883BB
:10291000198309E910E050E0DCDA28813981020FDF
:10292000131F422D41500883198303E310E050E048
:10293000D0DA28813981020F131FF8017196B0E5B2
:10294000B193BCE6B193B3E7B193B0E2B193B3E412
:10295000B193B8E6B193B3E7B193B0E2B193B0E508
:10296000B193B2E7B193B7E6B193B0E2B193BEE4ED
:10297000B193B5E7B193BDE6B193B0E0B1930091E7
:10298000C502015010E042E351E0A3DA20E630E056
:10299000020F131F0883198309E910E04091C40254
:1029A00050E097DA28813981020F131F422D4150E0
:1029B0000883198303E310E050E08BDA2881398122
:1029C000F801E20FF31FB0E5B193B2E7B193BAE3B8
:1029D000B193B0E2B193B0E2B193B0E2B193B0E29F
:1029E000B193B0E2B193B0E2B193B2E3B193B0E28C
:1029F000B193B0E2B193B0E2B193B3E3B193B0E27B
:102A0000B193B0E2B193B0E0B193231421F0022D61
:102A10000F5F202E26CFB2E0B093C4023F922F92D8
:102A2000B2E03B2E2090C5020E9450072F903F90AD
:102A3000B2E0B093C502B1E0B093C402B1E02B2E76
:102A4000321408F4AAC00091C502015010E042E31C
:102A500051E03FDA20E630E0020F131F4091C4023C
:102A600041500883198309E910E050E032DA2881E7
:102A70003981020F131F422D41500883198303E34C
:102A800010E050E026DA28813981F801E20FF31FC7
:102A9000B7E4B193BFE6B193B9E6B193BEE6B193A3
:102AA000B7E6B193B0E2B193B4E7B193BFE6B193A7
:102AB000B0E2B193B9E4B193B4E7B193B7E2B193A3
:102AC000B3E7B193B0E2B193B3E5B193B5E6B19397
:102AD000B4E7B193B4E7B193B9E6B193BEE6B1936D
:102AE000B7E6B193B0E0B1930091C502015010E098
:102AF00042E351E0EED920E630E0020F131F40918F
:102B0000C40241500883198309E910E050E0E1D97B
:102B100028813981020F131F422D415008831983E8
:102B200003E310E050E0D5D928813981F801E20FA4
:102B3000F31FB0E5B193B2E7B193BFE6B193B7E647
:102B4000B193B2E7B193B1E6B193BDE6B193B0E210
:102B5000B193B0E2B193B0E2B193B0E2B193B0E21D
:102B6000B193B9E6B193B3E7B193B0E2B193B3E7F0
:102B7000B193B5E6B193BCE6B193B3E6B193B4E7D4
:102B8000B193B5E6B193B4E6B193B0E0B193231439
:102B900021F0022D0F5F202E53CF0091C40201506F
:102BA000202F30E0220F331F06EC12E0F901E00F76
:102BB000F11FBAE0B083B1E02B2E2196CDBFDEBF6E
:102BC000DF91CF910895CF93DF93CDB7DEB76E97A6
:102BD000CDBFDEBF21965F926F927F928F929F92C0
:102BE000B1E0B093260320924003B1E0B093130309
:102BF000B091CA02B062B093CA02B091CA02BF7764
:102C0000B093CA0220924003B1E0B0933C03B1E01C
:102C1000B0931C03B091CA02B5FFBFC0B0E03B1631
:102C200009F046C04F923F922F926624B5E05B2E8A
:102C3000B3E04B2EB0E32B2EB0E03B2E0E943D3391
:102C40002F903F904F90002391F0B091CA02B0684E
:102C5000B093CA02B1E03B2EB091CA02BF7DB093DF
:102C6000CA022F92B1E02B2E0E94290E2F904F9274
:102C70003F922F92B1E06B2EB5E05B2EB3E04B2E6E
:102C8000B0E32B2EB0E03B2E0E943D332F903F90BF
:102C90004F900090CA02112707FC1395012339F0C9
:102CA000B1E03B2EB091CA02BF7DB093CA0274C09E
:102CB000B091CA02BF7DB093CA024F923F922F9249
:102CC0000E94D42BFE01B7E5B193B1E6B193B4E70E
:102CD000B193B9E6B193BEE6B193B7E6B193B0E272
:102CE000B193B6E6B193BFE6B193B2E7B193B0E268
:102CF000B193BAE3B193B0E0B1938E012801B1E092
:102D00003B2EB1E02B2E0E94532AFE01B0E5B19379
:102D1000B2E7B193B5E6B193B3E7B193B3E7B1933B
:102D2000B9E6B193BEE6B193B7E6B193B0E2B19321
:102D3000B8E4B193B5E6B193B1E6B193B4E7B1931A
:102D4000B5E6B193B2E7B193B0E2B193BDE6B1930A
:102D5000B9E6B193B3E6B193B2E7B193BFE6B193ED
:102D6000B0E2B193B3E5B193B7E5B193B0E0B193FD
:102D70008E012801B1E03B2EB2E02B2E0E94532A97
:102D80002F903F904F9021E11CE30CEC0A95F1F756
:102D90001A95E1F72A95D1F73DCFB1E03B1609F03E
:102DA00033C6B1E0B093260320924003B1E0B09364
:102DB00013034F923F922F920E94D42BBEE18B2E91
:102DC000B3E09B2EB4E26B2EB3E07B2EBFE14B2E23
:102DD000B3E05B2EBDE12B2EB3E03B2EB3E0BF93FF
:102DE000B1E6BF93B3E0BF93B1E2BF93B3E0BF934B
:102DF000BBE1BF930E948D09ADB7BEB71696ADBFBC
:102E0000BEBFB0E0B0932303B0E0B0931A03B0E0CC
:102E1000B0931903BDE38B2EB3E09B2EBEE36B2E64
:102E2000B3E07B2EB4E44B2EB3E05B2EBCE42B2E40
:102E3000B3E03B2EB3E0BF93B3E4BF93B3E0BF93E3
:102E4000BFE3BF93B3E0BF93BCE3BF930E948D0980
:102E5000ADB7BEB71696ADBFBEBF2F903F904F9097
:102E60000E94750800913E030093240300914403DF
:102E700000931F0300914C0300931D034F923F9258
:102E80002F92BDE38B2EB3E09B2EBEE36B2EB3E0FF
:102E90007B2EB4E44B2EB3E05B2EBCE42B2EB3E0D0
:102EA0003B2EB3E0BF93B3E4BF93B3E0BF93BFE364
:102EB000BF93B3E0BF93BCE3BF930E948D09ADB74E
:102EC000BEB71696ADBFBEBF2F903F904F900E94E9
:102ED00075084F923F922F9240903E0330904403EA
:102EE00020904C030E9411082F903F904F90B0917A
:102EF000CA02B062B093CA02B1E04B1609F091C0A9
:102F0000B1E0B0931303B1E0B09326030091400306
:102F1000015010E048E150E00E94690F2BEC32E0D4
:102F2000020F131F409126034150098F1A8F0CE0A6
:102F300010E050E00E94690F298D3A8D200F311F5B
:102F400000911303015010E0000F111F000F111F1B
:102F5000020F131FF8013196BCE3B08300914003C8
:102F6000015010E048E150E00E94690F2BEC32E084
:102F7000020F131F409126034150098F1A8F0CE056
:102F800010E050E00E94690F298D3A8D200F311F0B
:102F900000911303015010E0000F111F000F111FCB
:102FA000020F131FF8013296BCE3B0830091400377
:102FB000015010E048E150E00E94690F2BEC32E034
:102FC000020F131F409126034150098F1A8F0CE006
:102FD00010E050E00E94690F298D3A8D200F311FBB
:102FE00000911303015010E0000F111F000F111F7B
:102FF000F801E20FF31FB1E0B08300912603023025
:1030000031F0009126030F5F009326037FCF0091DC
:103010001303033031F0009113030F5F0093130388
:1030200072CFB2E0B093260320924003B1E0B09398
:103030001303022D015010E048E150E00E94690F97
:103040002BEC32E0020F131F045F1F4FF801339681
:1030500000814F923F922F92B8E43B2EB3E04B2E6B
:10306000202E0E94A534B8E42B2EB3E03B2E0E9404
:10307000E108B091CA02B062B093CA02B091CA022C
:10308000BF7BB093CA02B1E0B0934503BDE38B2E82
:10309000B3E09B2EBEE36B2EB3E07B2EB4E44B2E4D
:1030A000B3E05B2EBCE42B2EB3E03B2EB3E0BF932A
:1030B000B3E4BF93B3E0BF93BFE3BF93B3E0BF9369
:1030C000BCE3BF930E948D09ADB7BEB71696ADBFE6
:1030D000BEBF2F903F904F900E94750800913E0315
:1030E000009324030091440300931F0300914C03B9
:1030F00000931D034F923F922F9240903E033090D9
:10310000440320904C030E9411082F903F904F9051
:10311000B0E0B0932303B0E0B0931A03B0E0B093F3
:103120001903B091CA02BF77B093CA02B0E0B0935E
:103130004603B0E0B0934503B2E0B0932603B0E09D
:10314000B0934703B0E0B0934603B0B3BF7BB0BBCE
:10315000B091CA02BF77B093CA02B091CA02B062FE
:10316000B093CA02B091CA02BF7BB093CA02B091B9
:10317000CA02B5FF44C400914003015010E048E189
:1031800050E00E94690F0B8F1C8F2BEC32E0020F76
:10319000131F409126034150098F1A8F0CE010E055
:1031A00050E00E94690F298D3A8DA801420F531FEC
:1031B000209113032150722F80E0770F881F770F23
:1031C000881F272F382F240F351FF90131963081A2
:1031D00020911A03321760E009F46FEF4BEC52E0D4
:1031E0002B8D3C8D240F351F020F131F070F181F47
:1031F000F80132961081009123030117B0E008F026
:10320000BFEF0B2F062309F455C000911A030030BD
:1032100010E009F01FEF009123030030B0E009F047
:10322000BFEF0B2F012309F445C0B091CA02BF7D47
:10323000B093CA024F923F922F92BDE38B2EB3E020
:103240009B2EBEE36B2EB3E07B2EB4E44B2EB3E09B
:103250005B2EBCE42B2EB3E03B2EB3E0BF93B3E474
:10326000BF93B3E0BF93BFE3BF93B3E0BF93BCE3AF
:10327000BF930E948D09ADB7BEB71696ADBFBEBF56
:103280002F903F904F900E9475084F923F922F923F
:1032900040903E033090440320904C030E9411085C
:1032A00040901303BFEF3B2E22240E94040A2F906C
:1032B0003F904F90B091CA02B5FB90F9B1E04B1628
:1032C00010E009F41FEF002790FD039501230D8FF7
:1032D00000914003015010E048E150E00E94690F66
:1032E0000B8F1C8F2BEC32E0020F131F4091260333
:1032F0004150098F1A8F0CE010E050E00E94690FD6
:10330000298D3A8DA801420F531F2091130321509C
:10331000722F80E0770F881F770F881F272F382F95
:10332000240F351FF9013196308120911A0323179C
:1033300060E008F46FEF4BEC52E02B8D3C8D240FD6
:10334000351F020F131F070F181FF8013296108147
:1033500000912303101700E008F00FEF162F102B39
:103360000D8D012B09F407C24F923F922F92BDE3BE
:103370008B2EB3E09B2EBEE36B2EB3E07B2EB4E42A
:103380004B2EB3E05B2EBCE42B2EB3E03B2EB3E020
:10339000BF93B3E4BF93B3E0BF93BFE3BF93B3E086
:1033A000BF93BCE3BF930E948D09ADB7BEB716961D
:1033B000ADBFBEBF2F903F904F900E9475084F92B7
:1033C0003F922F9240903E033090440320904C0354
:1033D0000E9411082F903F904F901091230310935B
:1033E0004703009146031017F9F00091230300935F
:1033F0004603FE01B8E4B193B5E6B193B1E6B193EB
:10340000B4E7B193B5E6B193B2E7B193B0E0B1934D
:103410008E014F923F922F924090400318010E94DC
:1034200027062F903F904F90009145030030B9F54B
:1034300000914003015010E048E150E00E94690F04
:103440002BEC32E0020F131F409126034150098FED
:103450001A8F0CE010E050E00E94690F298D3A8D20
:10346000200F311F00911303015010E0000F111FB6
:10347000000F111F020F131FF801339600814F92A6
:103480003F922F9240901303BFEF3B2E202E0E94BD
:10349000040A2F903F904F90B1E0B09345034F92B4
:1034A0003F922F926624B5E05B2EB3E04B2EB0E343
:1034B0002B2EB0E03B2E0E943D332F903F904F903B
:1034C000002319F0B2E0B09345034F923F922F9240
:1034D000B1E06B2EB5E05B2EB3E04B2EB0E32B2EAC
:1034E000B0E03B2E0E943D332F903F904F90002341
:1034F00009F44AC0B091CA02BF7DB093CA024F928C
:103500003F922F9240901303BFEF3B2E22240E9444
:10351000040A21E11CE30CEC0A95F1F71A95E1F796
:103520002A95D1F700914003015010E048E150E0A6
:103530000E94690F2BEC32E0020F131F409126030B
:103540004150098F1A8F0CE010E050E00E94690F83
:10355000298D3A8D020F131F0C5F1F4FF801339610
:103560000081B2E04B2EBFEF3B2E202E0E94040ABA
:103570002F903F904F90B0B3BF7BB0BB2F92B1E084
:103580002B2E0E94290E2F900E94D30AB1E04B16D9
:1035900009F088C04F923F922F92B1E06B2EB5E0B8
:1035A0005B2EB3E04B2EB0E32B2EB0E03B2E0E94FF
:1035B0003D332F903F904F90002309F472C0B0919B
:1035C000CA02B068B093CA02B091CA02BF7DB0937C
:1035D000CA024F923F922F9240901303BFEF3B2EAF
:1035E00022240E94040A2F903F904F90B0B3BF7BDB
:1035F000B0BB00914003015010E048E150E00E9450
:10360000690F2BEC32E0020F131F4091260341504B
:10361000098F1A8F0CE010E050E00E94690F298D8D
:103620003A8D200F311F00911303015010E0000F5D
:10363000111F000F111F020F131FF8013196009187
:103640001A03008300914003015010E048E150E06C
:103650000E94690F2BEC32E0020F131F40912603EA
:103660004150098F1A8F0CE010E050E00E94690F62
:10367000298D3A8D200F311F00911303015010E066
:10368000000F111F000F111F020F131FF8013296B8
:103690000091230300832F92B1E02B2E0E94290E6C
:1036A0002F9068C04F923F922F926624B5E05B2E18
:1036B000B2E04B2EB0E32B2EB0E03B2E0E943D3308
:1036C0002F903F904F90109145031230B0E009F4D5
:1036D000BFEF1B2F012301F1B091CA02B068B09374
:1036E000CA02B091CA02BF7DB093CA02B0B3BF7B19
:1036F000B0BB4F923F922F9240901303BFEF3B2EEF
:1037000022240E94040A2F903F904F902F92B1E004
:103710002B2E0E94290E2F904F923F922F92B1E0B4
:103720006B2EB5E05B2EB2E04B2EB0E32B2EB0E05B
:103730003B2E0E943D332F903F904F900090CA0245
:10374000112707FC13950123A9F0B091CA02BF7D90
:10375000B093CA024F923F922F9240901303BFEF53
:103760003B2E22240E94040A2F903F904F90B0B32A
:10377000BF7BB0BB43C1B0B3BF7BB0BB4F923F92E6
:103780002F92BDE38B2EB3E09B2EBEE36B2EB3E0F6
:103790007B2EB4E44B2EB3E05B2EBCE42B2EB3E0C7
:1037A0003B2EB3E0BF93B3E4BF93B3E0BF93BFE35B
:1037B000BF93B3E0BF93BCE3BF930E948D09ADB745
:1037C000BEB71696ADBFBEBF2F903F904F900E94E0
:1037D00075084F923F922F9240903E0330904403E1
:1037E00020904C030E94110840901303BFEF3B2E22
:1037F00022240E94040AFE01B8E4B193B5E6B19315
:10380000B1E6B193B4E7B193B5E6B193B2E7B19342
:10381000B0E0B1938E014090400318010E9427064A
:103820000E94D42BBDE44B2EB3E05B2E20904003CE
:10383000B0E03B2E0E947505BDE44B2EB3E05B2E3D
:10384000B1E03B2EB1E02B2E0E94532AFE01B9E6D7
:10385000B193B3E7B193B0E2B193BFE4B193B6E6ED
:10386000B193B6E6B193BAE3B193B0E0B1938E01F0
:103870002801B8E03B2EB1E02B2E0E94532A2F9056
:103880003F904F90009145030130D1F5FE01B8E41F
:10389000B193B5E6B193B1E6B193B4E7B193B5E6B0
:1038A000B193B2E7B193B0E2B193BFE6B193B6E69C
:1038B000B193B6E6B193B0E0B1938E014F923F92CF
:1038C0002F922801B1E03B2EB2E02B2E0E94532A0A
:1038D000BDE44B2EB3E05B2EBAE03B2EB2E02B2EC4
:1038E0000E94532A2F903F904F9029E11AE502EB56
:1038F0000A95F1F71A95E1F72A95D1F70000000033
:10390000009145030030F1F5FE01B8E4B193B5E64E
:10391000B193B1E6B193B4E7B193B5E6B193B2E731
:10392000B193B0E2B193B5E4B193B2E7B193B2E72A
:10393000B193BFE6B193B2E7B193B0E0B1938E011A
:103940004F923F922F922801B1E03B2EB2E02B2EF6
:103950000E94532ABDE44B2EB3E05B2EBAE03B2E0F
:10396000B2E02B2E0E94532A2F903F904F9029E1D6
:103970001AE502EB0A95F1F71A95E1F72A95D1F7C6
:1039800000000000FE01BFE4B193B6E6B193B6E6D5
:10399000B193B0E2B193B0E7B193B7E7B193BDE6AD
:1039A000B193B0E2B193B8E6B193B5E6B193B1E6A5
:1039B000B193B4E7B193B5E6B193B2E7B193B0E296
:1039C000B193BDE6B193BFE6B193B4E6B193B5E66A
:1039D000B193B0E0B1938E014F923F922F922801A4
:1039E000B1E03B2EB1E02B2E0E94532A2F903F9046
:1039F0004F90B091CA02BF7DB093CA02B8CBB091CC
:103A0000CA02BF7DB093CA02B2E0B0932603B2E00F
:103A1000B0931303B091CA02B062B093CA02B2E08D
:103A2000B0933003B091CA02B064B093CA024F920F
:103A30003F922F920E94D42BFE01B7E5B193B1E6DD
:103A4000B193B4E7B193B9E6B193BEE6B193B7E6EB
:103A5000B193B0E2B193B6E6B193BFE6B193B2E7EA
:103A6000B193B0E2B193BAE3B193B0E0B1938E01F8
:103A70002801B1E03B2EB1E02B2E0E94532AFE011B
:103A8000B0E5B193B2E7B193B5E6B193B3E7B193C3
:103A9000B3E7B193B9E6B193BEE6B193B7E6B1939C
:103AA000B0E2B193BDE4B193BFE6B193B4E7B19393
:103AB000BFE6B193B2E7B193B0E2B193BDE6B19383
:103AC000B9E6B193B3E6B193B2E7B193BFE6B19370
:103AD000B0E2B193B3E5B193B7E5B193B0E0B19380
:103AE0008E012801B1E03B2EB2E02B2E0E94532A1A
:103AF0002F903F904F9021E11CE30CEC0A95F1F7D9
:103B00001A95E1F72A95D1F7B091CA02B7FF13C011
:103B1000B1E04B1659F4B091CA02B064B093CA0236
:103B2000B091CA02BF77B093CA0205C0B091CA0271
:103B3000BF7BB093CA02B091CA02B6FF7BC04F925E
:103B40003F922F92B1E06B2EB5E05B2EB3E04B2E8F
:103B5000B0E32B2EB0E03B2E0E943D332F903F90E0
:103B60004F90002329F0B091CA02BF7BB093CA02E4
:103B7000FE01B7E5B193B1E6B193B4E7B193B9E60D
:103B8000B193BEE6B193B7E6B193B0E2B193B6E6B6
:103B9000B193BFE6B193B2E7B193B0E2B193BAE3A8
:103BA000B193B0E0B1938E014F923F922F922801D2
:103BB000B1E03B2EB1E02B2E0E94532AFE01B4E46B
:103BC000B193BFE6B193B7E7B193BEE6B193B9E65F
:103BD000B193BEE6B193B7E6B193B0E2B193B4E767
:103BE000B193B8E6B193B5E6B193B0E2B193B0E565
:103BF000B193B1E6B193B4E6B193B0E2B193B1E25F
:103C0000B193B1E2B193B0E0B1938E012801B1E07C
:103C10003B2EB2E02B2E0E94532A2F903F904F90C4
:103C200021E11CE30CEC0A95F1F71A95E1F72A95CE
:103C3000D1F781CFB091CA02B064B093CA02B091FB
:103C4000CA02B062B093CA02B0E0B0934503B0E0DC
:103C5000B0932303B0E0B0931A03B0E0B09319031C
:103C6000B1E0B0931C034F923F922F92BDE38B2E95
:103C7000B3E09B2EBEE36B2EB3E07B2EB4E44B2E61
:103C8000B3E05B2EBCE42B2EB3E03B2EB3E0BF933E
:103C9000B3E4BF93B3E0BF93BFE3BF93B3E0BF937D
:103CA000BCE3BF930E948D09ADB7BEB71696ADBFFA
:103CB000BEBF2F903F904F900E94750800913E0329
:103CC000009324030091440300931F0300914C03CD
:103CD00000931D03B1E0B0932303B0E0B0931A0347
:103CE000B0E0B0931903B1E0B0934603B091CA02BB
:103CF000B062B093CA02B091CA02B5FFC6C40091C7
:103D00004003015010E048E150E00E94690F0B8F22
:103D10001C8F2BEC32E0020F131F40912603415001
:103D2000098F1A8F0CE010E050E00E94690F298D76
:103D30003A8DA801420F531F209113032150722F77
:103D400080E0770F881F770F881F272F382F240FC9
:103D5000351FF9013196308120911A03321760E046
:103D600009F46FEF4BEC52E02B8D3C8D240F351F87
:103D7000020F131F070F181FF801329610810091D0
:103D800023030117B0E008F0BFEF0B2F062309F45F
:103D900077C100914503023009F0BDC04F923F92B8
:103DA0002F9240901303BFEF3B2E22240E94040A5F
:103DB000FE01BDE4B193BFE6B193B4E7B193BFE6B2
:103DC000B193B2E7B193B0E0B1938E01409040035C
:103DD00018010E94270621E11CE30CEC0A95F1F77B
:103DE0001A95E1F72A95D1F70E94D42BBDE44B2E0A
:103DF000B3E05B2EB1E03B2EB1E02B2E0E94532AA4
:103E0000FE01B9E6B193B3E7B193B0E2B193BFE479
:103E1000B193B6E6B193B6E6B193BAE3B193B0E02D
:103E2000B1938E012801B8E03B2EB1E02B2E0E9409
:103E3000532AFE01B0E5B193B2E7B193BFE6B19367
:103E4000B7E6B193B0E2B193BEE6B193B5E7B193F3
:103E5000BDE6B193BAE3B193B0E0B1938E0128010E
:103E6000B1E03B2EB2E02B2E0E94532ABDE44B2E34
:103E7000B3E05B2EBAE03B2EB2E02B2E0E94532A19
:103E800021E11CE30CEC0A95F1F71A95E1F72A956C
:103E9000D1F7FE01BFE4B193B6E6B193B6E6B193B4
:103EA000B0E2B193B0E7B193B7E7B193BDE6B19398
:103EB000B0E2B193BDE4B193BFE6B193B4E7B1937F
:103EC000BFE6B193B2E7B193B0E2B193BDE6B1936F
:103ED000BFE6B193B4E6B193B5E6B193B0E0B19368
:103EE0008E012801B1E03B2EB1E02B2E0E94532A17
:103EF000BDE44B2EB3E05B2E20904003B0E03B2EA0
:103F00000E9475052F903F904F90B091CA02BF7DDF
:103F1000B093CA0275C04F923F922F920E94D42B49
:103F2000FE01B7E5B193B1E6B193B4E7B193B9E659
:103F3000B193BEE6B193B7E6B193B0E2B193B6E602
:103F4000B193BFE6B193B2E7B193B0E2B193BAE3F4
:103F5000B193B0E0B1938E012801B1E03B2EB1E006
:103F60002B2E0E94532AFE01B4E4B193BFE6B19315
:103F7000B7E7B193BEE6B193B9E6B193BEE6B193AC
:103F8000B7E6B193B0E2B193B4E7B193B8E6B193B9
:103F9000B5E6B193B0E2B193B0E5B193B1E6B193B8
:103FA000B4E6B193B0E2B193B1E2B193B1E2B193AF
:103FB000B0E0B1938E012801B1E03B2EB2E02B2E90
:103FC0000E94532A29E11AE502EB0A95F1F71A95A6
:103FD000E1F72A95D1F7000000006624B5E05B2EDA
:103FE000B2E04B2EB0E32B2EB0E03B2E0E943D33CF
:103FF0002F903F904F90002319F0B2E0B09345030B
:104000004F923F922F92BDE38B2EB3E09B2EBEE3E7
:104010006B2EB3E07B2EB4E44B2EB3E05B2EBCE4FE
:104020002B2EB3E03B2EB3E0BF93B3E4BF93B3E0DA
:10403000BF93BFE3BF93B3E0BF93BCE3BF930E94C2
:104040008D09ADB7BEB71696ADBFBEBF2F903F90DE
:104050004F900E94750800913E0300932403009145
:10406000440300931F0300914C0300931D03B1E030
:10407000B0932303B0E0B0931A03B0E0B0931903F8
:10408000B091CA02B5FB90F9B1E04B1610E009F40B
:104090001FEF002790FD039501230D8F0091400332
:1040A000015010E048E150E00E94690F0B8F1C8F17
:1040B0002BEC32E0020F131F409126034150098F71
:1040C0001A8F0CE010E050E00E94690F298D3A8DA4
:1040D000A801420F531F209113032150722F80E03B
:1040E000770F881F770F881F272F382F240F351F32
:1040F000F9013196308120911A03231760E008F40A
:104100006FEF4BEC52E02B8D3C8D240F351F020FCF
:10411000131F070F181FF801329610810091230317
:10412000101700E008F00FEF162F102B0D8D012B4C
:1041300009F47BC14F923F922F92BDE38B2EB3E0E7
:104140009B2EBEE36B2EB3E07B2EB4E44B2EB3E08C
:104150005B2EBCE42B2EB3E03B2EB3E0BF93B3E465
:10416000BF93B3E0BF93BFE3BF93B3E0BF93BCE3A0
:10417000BF930E948D09ADB7BEB71696ADBFBEBF47
:104180002F903F904F900E9475084F923F922F9230
:1041900040903E033090440320904C030E9411084D
:1041A0002F903F904F90109123031093470300915D
:1041B00046031017E9F00091230300934603FE0124
:1041C000BDE4B193BFE6B193B4E7B193BFE6B19359
:1041D000B2E7B193B0E0B1938E014F923F922F922C
:1041E0004090400318010E9427062F903F904F9067
:1041F00000914003015010E048E150E00E94690F37
:104200002BEC32E0020F131F409126034150098F1F
:104210001A8F0CE010E050E00E94690F298D3A8D52
:10422000200F311F00911303015010E0000F111FE8
:10423000000F111F020F131FF801339600814AE08F
:104240000E94370E10E0212F312F0E9420064F923E
:104250003F922F92180129010E945D022F903F90FA
:104260004F90009145030030B9F500914003015093
:1042700010E048E150E00E94690F2BEC32E0020FA1
:10428000131F409126034150098F1A8F0CE010E054
:1042900050E00E94690F298D3A8D200F311F009147
:1042A0001303015010E0000F111F000F111F020F28
:1042B000131FF801339600814F923F922F92409046
:1042C0001303BFEF3B2E202E0E94040A2F903F9035
:1042D0004F90B1E0B09345034F923F922F926624E6
:1042E000B5E05B2EB2E04B2EB0E32B2EB0E03B2EC0
:1042F0000E943D332F903F904F90002319F0B2E081
:10430000B0934503B1E04B1609F08EC04F923F9237
:104310002F92B1E06B2EB5E05B2EB2E04B2EB0E3F6
:104320002B2EB0E03B2E0E943D332F903F904F90BC
:1043300010913E031330B0E008F0BFEF1B2F0123B4
:1043400009F472C0B091CA02B068B093CA02B091C9
:10435000CA02BF7DB093CA02B0B3BF7BB0BB4F925D
:104360003F922F9240901303BFEF3B2E22240E94D6
:10437000040A2F903F904F9000914003015010E0AD
:1043800048E150E00E94690F2BEC32E0020F131F4E
:10439000409126034150098F1A8F0CE010E050E045
:1043A0000E94690F298D3A8D200F311F0091130350
:1043B000015010E0000F111F000F111F020F131FFB
:1043C000F8013196009144030083009140030150AD
:1043D00010E048E150E00E94690F2BEC32E0020F40
:1043E000131F409126034150098F1A8F0CE010E0F3
:1043F00050E00E94690F298D3A8D200F311F0091E6
:104400001303015010E0000F111F000F111F020FC6
:10441000131FF801329600913E0300832F92B1E002
:104420002B2E0E94290E2F902FC1009145030230A0
:1044300009F0B9C04F923F922F9240901303BFEF03
:104440003B2E22240E94040AFE01BDE4B193BFE684
:10445000B193B4E7B193BFE6B193B2E7B193B0E0E3
:10446000B1938E014090400318010E94270621E17C
:104470001CE30CEC0A95F1F71A95E1F72A95D1F7B0
:104480000E94D42BBDE44B2EB3E05B2EB1E03B2E5B
:10449000B1E02B2E0E94532AFE01B9E6B193B3E797
:1044A000B193B0E2B193BFE4B193B6E6B193B6E68F
:1044B000B193BAE3B193B0E0B1938E012801B8E0B3
:1044C0003B2EB1E02B2EEFD7FE01B0E5B193B2E762
:1044D000B193BFE6B193B7E6B193B0E2B193BEE654
:1044E000B193B5E7B193BDE6B193BAE3B193B0E050
:1044F000B1938E012801B1E03B2EB2E02B2ED3D731
:10450000BDE44B2EB3E05B2EBAE03B2EB2E02B2E87
:10451000CAD721E11CE30CEC0A95F1F71A95E1F7F3
:104520002A95D1F7FE01BFE4B193B6E6B193B6E6A2
:10453000B193B0E2B193B0E7B193B7E7B193BDE601
:10454000B193B0E2B193BDE4B193BFE6B193B4E7E8
:10455000B193BFE6B193B2E7B193B0E2B193BDE6D8
:10456000B193BFE6B193B4E6B193B5E6B193B0E0D1
:10457000B1938E012801B1E03B2EB1E02B2E93D7F1
:10458000BDE44B2EB3E05B2E20904003B0E03B2E09
:104590000E9475052F903F904F90B091CA02BF7D49
:1045A000B093CA0271C04F923F922F920E94D42BB7
:1045B000FE01B7E5B193B1E6B193B4E7B193B9E6C3
:1045C000B193BEE6B193B7E6B193B0E2B193B6E66C
:1045D000B193BFE6B193B2E7B193B0E2B193BAE35E
:1045E000B193B0E0B1938E012801B1E03B2EB1E070
:1045F0002B2E59D7FE01B4E4B193BFE6B193B7E7D0
:10460000B193BEE6B193B9E6B193BEE6B193B7E616
:10461000B193B0E2B193B4E7B193B8E6B193B5E624
:10462000B193B0E2B193B0E5B193B1E6B193B4E622
:10463000B193B0E2B193B1E2B193B1E2B193B0E022
:10464000B1938E012801B1E03B2EB2E02B2E2BD787
:1046500029E216E900E80A95F1F71A95E1F72A959B
:10466000D1F76624B5E05B2EB2E04B2EB0E32B2EE3
:10467000B0E03B2E0E943D332F903F904F9000239F
:1046800019F0B2E0B093450336CB00911C03013022
:1046900031F000911C030F5F00931C03E4CA4F929A
:1046A0003F922F92BDE38B2EB3E09B2EBEE36B2E89
:1046B000B3E07B2EB4E44B2EB3E05B2EBCE42B2E98
:1046C000B3E03B2EB3E0BF93B3E4BF93B3E0BF933B
:1046D000BFE3BF93B3E0BF93BCE3BF930E948D09D8
:1046E000ADB7BEB71696ADBFBEBF2F903F904F90EF
:1046F000B091CA02BF7DB093CA029F908F907F9005
:104700006F905F906D96CDBFDEBFDF91CF91089522
:10471000CF93DF93CDB7DEB7A297CDBFDEBF219693
:104720008F92B1E0B093C502B1E0B093C4027F9222
:104730006F925F924F923F922F920E94D42B2F90B4
:104740003F904F905F906F907F90B0E03B1611F4D8
:10475000B0E02B1631F481010F5F1F4F0F831887D4
:1047600002C02F823886B091CA02B062B093CA02EA
:10477000B091CA02BB7FB093CA02B091CA02BD7F9A
:10478000B093CA02B0E0B987B091CA02BE7FB093BD
:10479000CA02B091CA02B77FB093CA02B091CA02EE
:1047A000B5FFC3C3B1E0B093C502B1E0B093C4029A
:1047B000062D10E002151305A4F47F926F925F920C
:1047C0004F923F922F92462D50E081010E94DB0BC9
:1047D0008C012F903F904F905F906F907F900F8350
:1047E00018870F811885103009F4003021F4B1E0EA
:1047F000BF83B0E0B8870985023011F4B0E0B98713
:1048000009850F5F09877F926F925F924F923F9267
:104810002F92602E4F805884322C272C0E947C0CC3
:104820002F903F904F905F906F907F90B1E0B0934A
:1048300014031091140305EF011708F473C30091DA
:1048400014030F5F009314037F926F925F924F9255
:104850003F922F92B1E06B2EB1E05B2EB1E04B2E78
:10486000B6E32B2EB0E03B2E0E943D332F903F90BD
:104870004F905F906F907F90002309F4C5C0B09176
:10488000CA02B460B093CA023F922F92B1E02B2EBD
:104890000E94290E2F903F90B6EFB0931403B1E021
:1048A000BB83B0E0BC83B0E0BD83BE83B0E0B9831E
:1048B000BA8329E01EE105EE0A95F1F71A95E1F7B2
:1048C0002A95D1F7000009811A81103009F40030CF
:1048D00009F09AC00D811E810F5F1F4F0D831E834B
:1048E0007F926F925F924F923F922F92B1E06B2E28
:1048F000B4E65B2EB1E04B2EB6E32B2EB0E03B2EA0
:104900000E943D332F903F904F905F906F907F902B
:104910000023A9F07F926F925F924F923F922F9265
:10492000442D50E00D811E810E94DB0B8C012F90E5
:104930003F904F905F906F907F900B831C830B8113
:104940001C819801220D331D1901042D10E002175E
:10495000130724F4252CB0E03B2E00C02F813885AE
:104960000B811C81200F311F2F833887062D10E00B
:10497000021713072CF4B1E0BF83B0E0B88700C082
:104980000F811885103009F4003021F4B1E0BF83A5
:10499000B0E0B8870985023010F0B0E0B98709852A
:1049A0000F5F09877F926F925F924F923F922F9293
:1049B000602E4F805884322C272C0E947C0C662459
:1049C000B1E05B2EB1E04B2EB6E32B2EB0E03B2ED8
:1049D0000E943D332F903F904F905F906F907F905B
:1049E0000090CA02112702FC1395012361F0B091D7
:1049F000CA02BB7FB093CA02B8E3B0931403B1E01C
:104A0000B983B0E0BA835FCF7F926F925F924F928B
:104A10003F922F92B1E06B2EB1E05B2EB4E04B2EB3
:104A2000B6E32B2EB0E03B2E0E943D332F903F90FB
:104A30004F905F906F907F90002309F4C3C0B091B6
:104A4000CA02B260B093CA023F922F92B1E02B2EFD
:104A50000E94290E2F903F90B6EFB0931403B1E05F
:104A6000BB83B0E0BC83B0E0BD83BE83B0E0B9835C
:104A7000BA8329E01EE105EE0A95F1F71A95E1F7F0
:104A80002A95D1F7000009811A81103009F400300D
:104A900009F098C00D811E810F5F1F4F0D831E838B
:104AA0007F926F925F924F923F922F92B1E06B2E66
:104AB000B4E65B2EB4E04B2EB6E32B2EB0E03B2EDB
:104AC0000E943D332F903F904F905F906F907F906A
:104AD0000023A9F07F926F925F924F923F922F92A4
:104AE000442D50E00D811E810E94DB0B8C012F9024
:104AF0003F904F905F906F907F900B831C830B8053
:104B00001C8081010019110918010515B0E01B076F
:104B100024F4242CB0E03B2E00C00B801C802F819D
:104B20003885201931092F83388701E010E02017DC
:104B3000310724F46F82B0E0B88700C00F81188578
:104B4000103009F4003021F4B1E0BF83B0E0B88741
:104B50000985023010F0B0E0B98709850F5F098739
:104B60007F926F925F924F923F922F92602E4F8072
:104B70005884322C272C0E947C0C6624B1E05B2EDA
:104B8000B4E04B2EB6E32B2EB0E03B2E0E943D331B
:104B90002F903F904F905F906F907F900090CA024F
:104BA000112701FC1395012361F0B091CA02BD7F6A
:104BB000B093CA02B6EFB0931403B1E0B983B0E08A
:104BC000BA8361CF20922003B2E0B093C502B091C6
:104BD000CA02B77FB093CA027F926F925F924F92E0
:104BE0003F922F926624B1E05B2EB2E04B2EB6E3EB
:104BF0002B2EB0E03B2E0E943D330030B0E009F098
:104C0000BFEF0B2F0E8B6624B1E05B2E4424B6E37E
:104C10002B2EB0E03B2E0E943D332F903F904F90C3
:104C20005F906F907F90003010E009F01FEF0E89C9
:104C3000012B81F0B091CA02B160B093CA023F92D9
:104C40002F92B1E02B2E0E94290E2F903F90B6EFAD
:104C5000B09314037F926F925F924F923F922F9284
:104C6000B1E06B2EB1E05B2EB2E04B2EB6E32B2E03
:104C7000B0E03B2E0E943D330090CA02112700FC99
:104C8000139501230E8B1090CA020090CA02E8947B
:104C900015FC07FE01C0689440F8B1E06B2EB1E04E
:104CA0005B2E4424B6E32B2EB0E03B2E0E943D3316
:104CB0002F903F904F905F906F907F90112740FC16
:104CC000139510230E89012B09F42BC1B091CA0250
:104CD000BE7FB093CA02B091CA02BF7DB093CA0230
:104CE000B6EFB093140300912203102F1F5F1093AF
:104CF000220300912503101719F4B1E0B0932203A9
:104D00000091C502015010E042E351E00E94690F9A
:104D100008A319A320E630E0020F131F4091C4023C
:104D200041500E8B1F8B09E910E050E00E94690F83
:104D30002E893F89088F198F020F131F4F81415011
:104D40000E8B1F8B03E310E050E00E94690F2E8949
:104D50003F890E8F1F8F200F311F2C8F3D8F20E634
:104D600030E068A179A1260F371F488D598D240F97
:104D7000351F200F311F2F5E3F4F2A8F3B8F20E6BC
:104D800030E0260F371F240F351F020F131F0E5D53
:104D90001F4F088F198F00E610E0060F171F0E8BAC
:104DA0001F8B09E910E04091C40250E00E94690F96
:104DB0002E893F89200F311F6E8D7F8D4B01820E12
:104DC000931E20E630E048A159A1240F351F200F83
:104DD000311F260F371F922FA32F9F5EAF4F2091B9
:104DE000C402822F8F5F20E630E0240F351F020FB0
:104DF000131F060F171FB8016E5D7F4F4C8D5D8D21
:104E00002A8D3B8D088D198D7F926F925F924F9204
:104E10003F922F9209850F937F936F938F93AF9358
:104E20009F939F928F92702E812E6090C4022901D1
:104E30001A010E94B403ADB7BEB71896ADBFBEBF8E
:104E40002F903F904F905F906F907F900091C402A1
:104E50000150202F30E0220F331F06EC12E0F90141
:104E6000E00FF11F0081003039F17F926F925F9265
:104E70004F923F922F92BDE43B2EB3E04B2E0E9407
:104E8000A5340091C4020150202F30E0220F331FBF
:104E900006EC12E0F901E00FF11F0081BDE44B2E9A
:104EA000B3E05B2E302E2090C402FDD22F903F90B5
:104EB0004F905F906F907F900091C402202F30E060
:104EC000220F331F06EC12E0F901E00FF11F008101
:104ED000003039F17F926F925F924F923F922F9202
:104EE000BDE43B2EB3E04B2E0E94A5340091C402DA
:104EF000402F4F5F202F30E0220F331F06EC12E0CF
:104F0000F901E00FF11F0081BDE44B2EB3E05B2EF1
:104F1000302E242EC8D22F903F904F905F906F90EC
:104F20007F9087CC2092200339CC00912003088306
:104F300029E216E900E80A95F1F71A95E1F72A95B2
:104F4000D1F708818F90A196CDBFDEBFDF91CF91C1
:104F50000895CF93DF93CDB7DEB76397CDBFDEBFA4
:104F60002196B091CA02B062B093CA02B091CA024F
:104F7000B77FB093CA02B1E0B093C502B1E0B0937D
:104F8000C4022F92232C0E94E00A2F90B1E02B2E16
:104F9000321408F488C00091C502015010E042E3C9
:104FA00051E00E94690F20E630E0020F131F40918C
:104FB000C4024150098B1A8B09E910E050E00E94AD
:104FC000690F29893A89020F131F422D4150098B1D
:104FD0001A8B03E310E050E00E94690F29893A8997
:104FE000020F131F9801AC2FBD2FF2010E94FE0982
:104FF00000E20D93F3010E94FE0900E20D93F4011B
:105000000E94FE0900E00D93A22FB32FFE010E9423
:10501000FE0900E00D930091C502015010E042E34B
:1050200051E00E94690F20E630E0020F131F40910B
:10503000C4024150098B1A8B09E910E050E00E942C
:10504000690F29893A89020F131F422D4150098B9C
:105050001A8B03E310E050E00E94690F29893A8916
:10506000020F131F98012F5E3F4FAC2FBD2FF2018F
:105070000E94FE0900E20D93F3010E94FE0900E286
:105080000D93F4010E94FE0900E00D93A22FB32FAF
:10509000FE010E94FE0900E00D93231421F0022D71
:1050A0000F5F202E75CFB2E0B093C402B1E02B2E7B
:1050B0000091C502015010E042E351E00E94690FE7
:1050C00020E630E0020F131F07561F4FF8017196BC
:1050D000BEE5B193BEE5B193BEE5B193BEE5B19334
:1050E000B0E2B193B0E2B193B0E2B193B0E2B19368
:1050F000B0E2B193B0E2B193B0E2B193B0E2B19358
:10510000B0E2B193B0E2B193B0E2B193B0E2B19347
:10511000B0E0B193B2E02B2E0091C502015010E037
:1051200042E351E00E94690F20E630E0020F131FB6
:105130004091C4024150098B1A8B09E910E050E0FC
:105140000E94690F29893A89020F131F0D5C1F4FB6
:10515000F8017196B0E2B193B0E2B193B0E2B193CD
:10516000B0E2B193B0E2B193B0E2B193BEE5B193D6
:10517000BEE5B193BEE5B193BEE5B193B0E2B193A4
:10518000B0E2B193B0E2B193B0E2B193B0E2B193C7
:10519000B0E2B193B0E2B193B0E0B193B3E02B2EA3
:1051A0000091C502015010E042E351E00E94690FF6
:1051B00020E630E0020F131F4091C4024150098BDA
:1051C0001A8B09E910E050E00E94690F29893A8999
:1051D000020F131F0A591F4FF8017196B0E2B193E5
:1051E000B0E2B193B0E2B193B0E2B193B0E2B19367
:1051F000B0E2B193B0E2B193B0E2B193B0E2B19357
:10520000B0E2B193B0E2B193BEE5B193BEE5B19324
:10521000BEE5B193BEE5B193B0E2B193B0E0B19316
:10522000B2E0B093C502B1E0B093C402B1E02B2E5E
:10523000321408F445C00091C502015010E042E369
:1052400051E00E94690F20E630E0020F131F098B26
:105250001A8B09E910E04091C40250E00E94690FE6
:1052600029893A89020F131F422D4150098B1A8B4D
:1052700003E310E050E00E94690F29893A89F801A0
:10528000E20FF31FB0E2B193B9E6B193B3E7B19384
:10529000B0E2B193B3E7B193B5E6B193BCE6B19395
:1052A000B3E6B193B4E7B193B5E6B193B4E6B19385
:1052B000B0E0B193231421F0022D0F5F202EB8CF60
:1052C000B1E02B2E0091C502015010E042E351E005
:1052D0000E94690F20E630E0020F131F4091C402C4
:1052E0004150098B1A8B09E910E050E00E94690FC8
:1052F00029893A89020F131FA02FB12FF2010E94B2
:10530000FE0900E20D9300E20D9303E70D9305E61D
:105310000D9304E70D9304E70D9309E60D930EE654
:105320000D9307E60D9300E20D9300E20D9300E26A
:105330000D9300E20D9300E00D93B2E02B2E00914F
:10534000C502015010E042E351E00E94690F20E6DF
:1053500030E0020F131F4091C4024150098B1A8B99
:1053600009E910E050E00E94690F29893A89020F8B
:10537000131F0D5C1F4FA02FB12FF3010E94FE09D8
:1053800000E20D9303E70D9305E60D9304E70D93FB
:1053900004E70D9309E60D930EE60D9307E60D93D2
:1053A00000E20D9300E20D9300E20D9300E20D93F5
:1053B00000E00D93B3E02B2E0091C502015010E0E8
:1053C00042E351E00E94690F20E630E0020F131F14
:1053D0004091C4024150098B1A8B09E910E050E05A
:1053E0000E94690F29893A89020F131FF801EA59AF
:1053F000FF4FB5E4B193B8E7B193B9E6B193B4E721
:10540000B193B9E6B193BEE6B193B7E6B193B0E21A
:10541000B193B0E2B193B0E2B193B0E2B193B0E234
:10542000B193B0E2B193B0E2B193B0E2B193B0E224
:10543000B193B0E2B193B0E0B193B1E02B2E62969C
:10544000CDBFDEBFDF91CF9108959101A20100E0B1
:1054500010E05F934F93A9012F913F91F9011081C3
:10546000FA010081011710E009F41FEF0030B0E0ED
:1054700009F0BFEF0B2F012349F08A010F5F1F4F87
:10548000A80189010F5F1F4F9801E8CFF901108132
:10549000FA010081012EB0E01B2E10E00019110965
:1054A0009801890108952F92B1E02B1619F4B0E804
:1054B0002B2E14C0B2E02B1619F4B0EC2B2E0EC01C
:1054C000B3E02B1619F4B4E92B2E08C0B4E02B1668
:1054D00019F4B4ED2B2E02C0B0E82B2E032D015091
:1054E000020D202E202E0E94EA38B0912803B77FAB
:1054F000B09328039201F9010081002381F0F901A2
:1055000000813F932F932F92202E0E942A0E2F90DE
:105510002F913F9189010F5F1F4F9801ECCFB09100
:105520002803B860B09328032F900895CF93DF939A
:10553000CDB7DEB72297CDBFDEBF21962F923F9227
:10554000B0E0B0934103B0934203B1E0B0934003A5
:10555000B1E0B0932603B1E0B09313030091400390
:10556000015010E048E150E00E94690F2BEC32E05E
:10557000020F131F409126034150088319830CE04A
:1055800010E050E00E94690F28813981200F311FFF
:1055900000911303015010E0000F111F000F111FA5
:1055A000020F131F088319830091410310914203D6
:1055B0000F5F1F4F1801E8D018812981E12FF22FCA
:1055C000008300914003015010E048E150E00E9448
:1055D000690F2BEC32E0020F131F4091260341505C
:1055E000088319830CE010E050E00E94690F2881C5
:1055F0003981200F311F00911303015010E0000F7B
:10560000111F000F111F020F131F0F5F1F4F088381
:10561000198300914103109142030E5F1F4F18013F
:10562000B3D018812981E12FF22F0083009140032C
:10563000015010E048E150E00E94690F2BEC32E08D
:10564000020F131F409126034150088319830CE079
:1056500010E050E00E94690F28813981200F311F2E
:1056600000911303015010E0000F111F000F111FD4
:10567000020F131F0E5F1F4F088319830091410310
:10568000109142030D5F1F4F18017ED018812981B0
:10569000E12FF22F008300914003015010E048E118
:1056A00050E00E94690F2BEC32E0020F131F409173
:1056B00026034150088319830CE010E050E00E945B
:1056C000690F28813981200F311F00911303015088
:1056D00010E0000F111F000F111F020F131F0D5FAD
:1056E0001F4F0883198300914103109142030C5FFF
:1056F0001F4F180149D018812981E12FF22F008313
:1057000000914103109142030C5F1F4F009341032E
:105710001093420300911303033031F000911303FF
:105720000F5F009313031ACF00912603023031F06C
:10573000009126030F5F009326030DCF00914003D5
:10574000033031F0009140030F5F0093400300CF1E
:105750003F902F902196CDBFDEBFDF91CF9108956E
:1057600012E009E00A95F1F71A95E1F7089505E0CE
:105770000A95F1F70000089513E708E40A95F1F798
:105780001A95E1F7000008950FB6BCB3B1FF02C04F
:105790000000FBCFF8943FBA2EBABCB3B160BCBBDB
:1057A0000FBE1DB3012F08952F920E940436B1E061
:1057B0002B2E0E94EA38BCE02B2E0E94EA382F9054
:1057C0000895B1E07B1609F050C0B0E0BFBDB0E075
:1057D000BEBDB0E0BDBDB0E0BCBD4FBC6BBC5ABCF3
:1057E00069BC58BCBBE02B1639F40FB501600FBD86
:1057F0000EB5077E0EBD38C0BCE02B1639F4BFB520
:10580000B260BFBD0EB5077E0EBD2EC0BDE02B162B
:1058100039F40FB503600FBD0EB5077E0EBD24C071
:10582000BEE02B1639F40FB501600FBD0EB5086050
:105830000EBD1AC0BFE02B1639F40FB502600FBDC4
:105840000EB508600EBD10C0B0E12B1639F40FB5CF
:1058500003600FBD0EB508600EBD06C00FB50C7F0E
:105860000FBD0EB5077E0EBD03C00FB50C730FBD87
:10587000309239030EB503290EBD0895CF93DF93FF
:10588000CDB7DEB7A897CDBFDEBF21965F926F92EE
:105890007F928F929F92B3E0B887B1E0B0932603D6
:1058A000B3E0B093130320924003B2E0B093260319
:1058B000B1E0B0931303022D015010E048E150E035
:1058C0000E94690F2BEC32E0020F131F045F1F4F81
:1058D000F801319600814F923F922F92BDE43B2E0A
:1058E000B3E04B2E202E0E94A534FE013996BCE376
:1058F000B193B5E4B193B8E7B193BEE3B193B0E02F
:10590000B193AE01475F5F4FFE013E96B0E5B193A4
:10591000B2E7B193BFE6B193B7E6B193B0E0B1930C
:105920009E01225F3F4FFE017396B3E5B193B5E64A
:10593000B193B4E7B193BEE6B193B7E6B193B0E0EB
:10594000B1938E010D5E1F4F4A0139012801388441
:10595000B1E02B2EFEDA2F903F904F90FE0139964A
:10596000B1E6B193B4E6B193B6E7B193B1E6B193C2
:10597000BEE6B193B3E6B193B5E6B193B0E0B193AF
:105980008E01075F1F4F4F923F922F92232C342C92
:1059900028015BDD2F903F904F90103009F40030CC
:1059A00099F44F923F922F9277246884B1E05B2E56
:1059B0004884B1E02B2EB0E03B2E0E9488232F902C
:1059C0003F904F9008834BC0FE013996B8E6B193E3
:1059D000B5E6B193B1E6B193B4E7B193B5E6B1934F
:1059E000B2E7B193B0E0B1938E01075F1F4F4F92C2
:1059F0003F922F92232C342C280127DD2F903F90AB
:105A00004F90103009F40030B0E009F4BFEF0B2FD5
:105A10000EA3FE017096BDE6B193BFE6B193B4E765
:105A2000B193BFE6B193B2E7B193B0E0B1938E0109
:105A3000005F1F4F4F923F922F92232C342C28014E
:105A400004DD2F903F904F90103009F4003010E0AB
:105A500009F41FEF0EA1012B11F0B4E0B883B0914F
:105A6000CA02B061B093CA02B091CA02B4FFFBC4CB
:105A70000881043009F033C22A82ADE4B3E0E32D9B
:105A8000F42D0E94FE0900E00D93B1E0B0931403E1
:105A900000911403002309F4DCC1FE013996BDE630
:105AA000B193BFE6B193B4E7B193BFE6B193B2E768
:105AB000B193B0E0B1938E01075F1F4F4F923F92B9
:105AC0002F922801BDE42B2EB3E03B2EBEDC2F909D
:105AD0003F904F90103009F4003009F0B9C0B2E0A7
