:100000000C94563C0C9400000C9400000C940000DE
:100010000C94213C0C9400000C9400000C94000003
:100020000C9400000C9400000C9400000C943A3CDA
:100030000C9400000C9400000C9400000C94000040
:100040000C9400000C9400000C9400000C94000030
:100050000C940000B9D021F0662309F0CAD098941E
:100060000895F8DF09F441C0E62ED52EC42EB32E34
:10007000A22E912E802E002D112D222D332DEADF60
:1000800009F43DC0842F952F8C199D09B9F072F4A5
:100090009095809501964C2D5D2D883180F5359594
:1000A0002795179507950197D1F708C08831E8F48F
:1000B000B594A794979487940197D1F766272EF06B
:1000C000080D191D2A1D3B1D09C0801A910AA20A9C
:1000D000B30A082D192D2A2D3B2D332312F489D074
:1000E00060E83AD001C018D016C0002D112D222D85
:1000F000332DD6F729D0C1F340E83427F5CF082DAA
:10010000192D2A2D3B2D4C2D5D2D6E2D33235AF7A5
:1001100070D060E8E8CF089517D039F041585F4FAC
:10012000342F220F36952795362B0895689499DF42
:100130000895FCDF332332F007D011F001E003C053
:10014000002701C00FEF0895002329F4112319F4AB
:10015000222309F433230895F7DF11F19F938F933E
:100160008EE790E0332351F0369527951795079544
:1001700048175907B4F44F5F5F4FF4CF80959095BF
:10018000019622239AF0000F111F221F48175907CA
:100190001CF041505040F5CF00271127222733276C
:1001A00008C033270FEF102F2FE7322F8F919F9129
:1001B000B3DF089547E16627552726F0332312F46D
:1001C00018D060E8C9DF0895BFDF79F0632F607849
:1001D000220F331F432F5FE7451B552750402695BD
:1001E00030E8232B3327989403C0442755276627EC
:1001F000089500951095209530950F5F1F4F2F4F54
:100200003F4F0895C9019A01AB01B80197FB092E30
:1002100005260ED057FD04D014D00AD0001C38F4A7
:1002200050954095309521953F4F4F4F5F4F089522
:10023000F6F790958095709561957F4F8F4F9F4F02
:100240000895A1E21A2EAA1BBB1BFD010DC0AA1F17
:10025000BB1FEE1FFF1FA217B307E407F50720F02F
:10026000A21BB30BE40BF50B661F771F881F991FAA
:100270001A9469F760957095809590959B01AC01F3
:10028000BD01CF010895A0DF81F1E62ED52EC42E49
:10029000B32EA22E912E802E002D112D222D332D26
:1002A00093DF19F16E254C0D5D1D40385307F4F4B2
:1002B00041387FEF5707FCF088279927AA27BB27EB
:1002C00070E2B695A79597958795379527951795D9
:1002D000079520F4880D991DAA1DBB1D7A9589F7F5
:1002E000032F3A2F292F182F37DF0AC00FEF102FB7
:1002F0002FE73FE7FACF0027102F202F302FF5CF21
:100300000895042E152E262E372E13DF0023089570
:10031000E894A7DE0895F5DF1CF40024039401C0DF
:1003200000240895042E152E262E372EF1DF002EE0
:10033000112E222E332E089547DFF1F05523C2F0FF
:100340004F31A8F44731C1F050F44195495E05C0E2
:1003500035952795179507954A95D1F70DC04751C3
:10036000000F111F221F331F4A95D1F705C03FE729
:10037000232F132F032F03C0662309F03ADF0895BC
:10038000E89418DF0895002E112E222E332E042F0C
:10039000152F262F372FCDDE00231CF000240394C9
:1003A00001C000240895042E152E262E372E6BDF53
:1003B000002E112E222E332E0895C801BA0197FB6C
:1003C000092E07260AD077FD04D00CD006D00020D5
:1003D0001AF4709561957F4F0895F6F79095819581
:1003E0009F4F0895AA1BBB1B51E107C0AA1FBB1F4B
:1003F000A617B70710F0A61BB70B881F991F5A95B1
:10040000A9F780959095BC01CD0108950895CF93EB
:10041000DF93CDB7DEB72397CDBFDEBF2196B0E81F
:100420005B1641F4B0E04B1629F4B0E03B1611F432
:10043000B0E02B16D1F4F301BDE2B193B2E3B19376
:10044000B1E3B193B4E3B193B7E3B193B4E3B19340
:10045000B8E3B193B3E3B193B6E3B193B4E3B1932B
:10046000B8E3B193B0E0B1937BC0B0E0BA8300E0F1
:1004700010E020E030E0201631064206530664F416
:10048000BFEFBA8300E010E020E030E0021913096A
:100490002409350918012901F301B0E2B193B0E252
:1004A000B193B0E2B193B0E2B193B0E2B193B0E2F4
:1004B000B193B0E2B193B0E2B193B0E2B193B0E2E4
:1004C000B193B0E3B193B0E0B1938301065F1F4FE6
:1004D00008831983B0E05B1641F4B0E04B1629F4B1
:1004E000B0E03B1611F4B0E02B1699F17F926F92B9
:1004F0005F924F923F922F924AE050E060E070E0AE
:10050000810192017FDE8B019C012F903F904F90E3
:100510005F90005DE881F98100835F924F923F9286
:100520002F924AE050E060E070E0810192016ADEC3
:1005300089019A012F903F904F905F906F907F902C
:10054000180129010881198101501040088319837D
:10055000C1CF0A81002321F0E881F981BDE2B08397
:100560002296CDBFDEBFDF91CF910895042E152EC8
:10057000262E372EDBDD002E112E222E332E08954F
:10058000B0E0B9BD28BC0895B0E0BBBD2ABC089559
:10059000C801BA01AA1BBB1B51E107C0AA1FBB1FA0
:1005A000A617B70710F0A61BB70B881F991F5A95FF
:1005B000A9F7809590950895CF93DF93CDB7DEB7D7
:1005C0002497CDBFDEBF2196152D110FB7E0042D66
:1005D0000695BA95E9F7010F0F57202F30E007FD78
:1005E0003FEF00E010E020173107DCF440E050E07E
:1005F00060E070E081019201C6DE002800E009F0B1
:100600000FEF002331F0B0E0B883B983BA83BB8326
:1006100007C0B0E0B883B983B0E8BA83BFE3BB8357
:100620002AC008E1021728F4288239824A825B82B4
:1006300022C08101920180DEA3DE088319832A8310
:100640003B83A101B201088119812A813B8163DECC
:10065000002800E009F00FEF002369F008811981FC
:100660002A813B8140E050E060E87FE35BDE088365
:1006700019832A833B83088119812A813B81239630
:10068000CDBFDEBFDF91CF910895689493DD0895CB
:1006900023BC0895CF93DF93CDB7DEB72397CDBFAB
:1006A000DEBF2196B0E83B1611F4B0E02B1681F4C2
:1006B000F201BDE2B193B3E3B193B2E3B193B7E317
:1006C000B193B6E3B193B8E3B193B0E0B19351C045
:1006D000B0E0BA8300E010E0201631063CF4BFEF32
:1006E000BA8300E010E0021913091801F201B0E228
:1006F000B193B0E2B193B0E2B193B0E2B193B0E2A2
:10070000B193B0E3B193B0E0B19382010B5F1F4F9F
:1007100008831983B0E03B1611F4B0E02B1611F1F9
:100720005F924F923F922F924AE050E0810145DE66
:100730008C012F903F90005DE881F98100833F920A
:100740002F924AE050E0810138DE8B012F903F90DC
:100750004F905F9018010881198101501040088363
:100760001983D8CF0A81002321F0E881F981BDE205
:10077000B0832296CDBFDEBFDF91CF910895CF9396
:10078000DF93CDB7DEB7A197CDBFDEBF2196B0E036
:10079000BE8F81019201D0DD088319832A833B83B8
:1007A0005F924F923F922F9240E050E060E070E005
:1007B00081019201B0DD002800E009F00FEF2F90D9
:1007C0003F904F905F90002311F0BFEFBE8F8E01DE
:1007D0000A5F1F4F7F926F925F924F923F922F92CC
:1007E0003801288039804A805B8011DE2F903F904D
:1007F0004F905F906F907F90088119812A813B8193
:10080000BFDD5F924F923F922F92A801B901810103
:100810009201ACDE40E050E563EC77E4C4DD2F905C
:100820003F904F905F9088DD088319832A833B8334
:1008300040E050E060E070E0041715072607370736
:1008400084F40880198000E010E0001911090A8082
:100850001B8020E030E020093109088319832A83B6
:100860003B838E010E5E1F4F7F926F925F924F927D
:100870003F922F923801288039804A805B80C7DD03
:100880002F903F904F905F906F907F9040E050E0AE
:10089000B0E0BC83BD83F301B0E2B193B0E2B193A9
:1008A000B0E2B193B0E2B193B0E2B193B0E2B193F0
:1008B000B0E2B193B0E2B193B0E2B193B0E2B193E0
:1008C000B0E3B193B0E0B1935F934F938101920194
:1008D00033DD303029F4203019F4103009F40030C1
:1008E000B0E009F4BFEF0B2F08A340E050E060E058
:1008F00070E0810192010FDD002800E009F00FEFA8
:100900004F915F9118A10123002341F0F301BDE253
:10091000B08311E020E0412F522F00C02E81203201
:1009200081F40C811D8198012F5F3F4F2C833D8303
:100930008E010A5F1F4FF901E00FF11F0081202F88
:10094000EECF022F0030D1F0FA01E60DF71D008343
:100950000C811D8198012F5F3F4F2C833D838A01BD
:100960000F5F1F4FB8018E010A5F1F4FF901E00FA3
:10097000F11F0081202F022FAB01E4CF0E8D00303C
:1009800010E009F41FEF503009F4403000E009F4A2
:100990000FEF012351F0FA01E60DF71DB0E3B0832C
:1009A0008A010F5F1F4F980101C09A01303009F48E
:1009B000213010E009F41FEF0E8D012359F0F901E9
:1009C000E60DF71DB0E3B08389010F5F1F4FA8014B
:1009D0009A0100C0F901E60DF71DBEE2B08389015E
:1009E0000F5F1F4FA801B6E0BC83B0E0BD83288D28
:1009F0002030F9F0203219F420E3022F01C0022F39
:100A0000FA01E60DF71D00830C811D8198012F5F0F
:100A10003F4F2C833D838A010F5F1F4FB8018E012A
:100A20000E5E1F4FF901E00FF11F0081AB01202F77
:100A3000DFCFFA01E60DF71DB0E0B083A096CDBF81
:100A4000DEBFDF91CF910895B1E14B1619F43BBCA5
:100A50002ABC06C0B2E14B1619F439BC28BC00C050
:100A6000089523BC08952CBE08952F92B1E02B1653
:100A700019F4B0E82B2E14C0B2E02B1619F4B0EC28
:100A80002B2E0EC0B3E02B1619F4B4E92B2E08C0A0
:100A9000B4E02B1619F4B4ED2B2E02C0B0E82B2EC7
:100AA000032D0150020D202EB0916E00B062B09364
:100AB0006E00202E0E942D3AB0916E00BF7DB09343
:100AC0006E00242C0E942D3AB0916E00B062B0935B
:100AD0006E002F900895BB27AA279927882700FF2B
:100AE00004C0840F951FA61FB71F440F551F661F14
:100AF000771F369527951795079589F73050204031
:100B0000100769F79D018C0108950190002011F0F4
:100B10000D92D9F70895CF93DF93CDB7DEB727971E
:100B2000CDBFDEBF2196B1E0B883B1E0BA83B1E0BA
:100B3000B9830981201608F4DEC00881015010E055
:100B40004AEC52E00E94ED0E2BE531E0020F131F3C
:100B50004A8141500D831E8305E611E050E00E945A
:100B6000ED0E2D813E81020F131F498141500D83EF
:100B70001E8303E310E050E00E94ED0E2D813E81C4
:100B8000F801E20FF31FB0E2B193B0E2B193B0E22B
:100B9000B193B0E2B193B0E2B193B0E2B193B0E2FD
:100BA000B193B0E2B193B0E2B193B0E2B193B0E2ED
:100BB000B193B0E2B193B0E2B193B0E2B193B0E2DD
:100BC000B193B0E2B193B0E0B1930881015010E06D
:100BD0004AEC52E00E94ED0E2BE531E0020F131FAC
:100BE0004A8141500D831E8305E611E050E00E94CA
:100BF000ED0E2D813E81020F131F498141500D835F
:100C00001E8303E310E050E00E94ED0E2D813E8133
:100C1000020F131FF8017196B0E2B193B0E2B193E5
:100C2000B0E2B193B0E2B193B0E2B193B0E2B1936C
:100C3000B0E2B193B0E2B193B0E2B193B0E2B1935C
:100C4000B0E2B193B0E2B193B0E2B193B0E2B1934C
:100C5000B0E2B193B0E2B193B0E0B193088101503A
:100C600010E04AEC52E00E94ED0E2BE531E0020F5D
:100C7000131F4A8141500D831E8305E611E050E0A9
:100C80000E94ED0E2D813E81020F131F49814150BC
:100C90000D831E8303E310E050E00E94ED0E2D81D2
:100CA0003E81020F131FF801B296B1E3B193B0E099
:100CB000B1930A810150202F30E0220F331F0FE43F
:100CC00011E0F901E00FF11FB0E0B0830A8101509B
:100CD000202F30E0220F331F0FE411E0020F131F0B
:100CE000F8013196B0E0B0830981021521F0098145
:100CF0000F5F09831ECF0A81023021F00A810F5F46
:100D00000A8315CF0881023021F008810F5F088324
:100D10000CCF2696CDBFDEBFDF91CF910895CF9344
:100D2000DF93CDB7DEB725962F923F924F925F9219
:100D300008811981088319830A811B810A831B8317
:100D40000C810C830D811E810F81013071F4210112
:100D5000B1E03B2E262C0E94FE3248805980B1E043
:100D60003B2E2C800E94FE320CC0B1E03B2E262C84
:100D70000E94FE324A805B80B1E03B2E2C800E94B4
:100D8000FE325F904F903F902F90DF91CF9108956A
:100D9000CF93DF93CDB7DEB72297CDBFDEBF2196CD
:100DA000022D015010E04AEC52E00E94ED0E2BE5BE
:100DB00031E0020F131F432D41500883198305E6CC
:100DC00011E050E00E94ED0E28813981020F131FBF
:100DD000F8017196B0E5B193B2E7B193BAE3B1937C
:100DE000B0E2B193B0E2B193B2E3B193B0E2B193A8
:100DF000B3E3B193B0E2B193B4E3B193B0E2B19392
:100E0000B5E3B193B0E2B193B6E3B193B0E2B1937D
:100E1000B7E3B193B0E0B193022D015010E04AEC7A
:100E200052E0DBD72BE531E0020F131F432D415079
:100E30000883198305E611E050E0CFD72881398176
:100E4000020F131F0D5C1F4FF8017196B0E5B193AF
:100E5000B2E7B193BAE3B193B1E3B193B0E2B19326
:100E6000B0E2B193B0E2B193B3E3B193B0E2B19326
:100E7000B4E3B193B0E2B193B5E3B193B0E2B1930F
:100E8000B6E3B193B0E2B193B7E3B193B0E0B193FD
:100E9000022D015010E04AEC52E09FD72BE531E0E3
:100EA000020F131F432D41500883198305E611E0FB
:100EB00050E093D728813981020F131F0A591F4F21
:100EC000F8017196B0E5B193B2E7B193BAE3B1938B
:100ED000B1E3B193B0E2B193B2E3B193B0E2B193B5
:100EE000B0E2B193B0E2B193B4E3B193B0E2B193A5
:100EF000B5E3B193B0E2B193B6E3B193B0E2B1938D
:100F0000B7E3B193B0E0B193022D015010E04AEC89
:100F100052E063D72BE531E0020F131F432D415000
:100F20000883198305E611E050E057D728813981FD
:100F3000020F131F07561F4FF8017196B0E5B193CA
:100F4000B2E7B193BAE3B193B1E3B193B0E2B19335
:100F5000B2E3B193B0E2B193B3E3B193B0E2B19332
:100F6000B0E2B193B0E2B193B5E3B193B0E2B19323
:100F7000B6E3B193B0E2B193B7E3B193B0E0B1930C
:100F8000022D015010E04AEC52E027D72BE531E06A
:100F9000020F131F432D41500883198305E611E00A
:100FA00050E01BD728813981020F131F04531F4FB4
:100FB000F8017196B0E5B193B2E7B193BAE3B1939A
:100FC000B1E3B193B0E2B193B2E3B193B0E2B193C4
:100FD000B3E3B193B0E2B193B4E3B193B0E2B193B0
:100FE000B0E2B193B0E2B193B6E3B193B0E2B193A2
:100FF000B7E3B193B0E0B193022D015010E04AEC99
:1010000052E0EBD62BE531E0020F131F432D415088
:101010000883198305E611E050E0DFD62881398185
:10102000020F131F01501F4FF8017196B0E5B193E5
:10103000B2E7B193BAE3B193B1E3B193B0E2B19344
:10104000B2E3B193B0E2B193B3E3B193B0E2B19341
:10105000B4E3B193B0E2B193B5E3B193B0E2B1932D
:10106000B0E2B193B0E2B193B7E3B193B0E0B19322
:10107000022D015010E04AEC52E0AFD62BE531E0F2
:10108000020F131F432D41500883198305E611E019
:1010900050E0A3D628813981020F131F0E5C1E4F2A
:1010A000F8017196B0E5B193B2E7B193BAE3B193A9
:1010B000B1E3B193B0E2B193B2E3B193B0E2B193D3
:1010C000B3E3B193B0E2B193B4E3B193B0E2B193BF
:1010D000B5E3B193B0E2B193B6E3B193B0E2B193AB
:1010E000B0E2B193B0E0B1932196CDBFDEBFDF9106
:1010F000CF910895CF93DF93CDB7DEB72C97CDBFB7
:10110000DEBF21962F923F924F925F926F927F9215
:101110008F92B0E02B1609F49FC000916F00015030
:1011200010E04AEC52E059D60A871B872BE531E0E4
:10113000020F131F40916C0041500883198305E68C
:1011400011E050E04AD6288139810A831B83020FBF
:10115000131F452D41500883198303E310E050E02D
:101160003CD628813981200F311F288739872BE50C
:1011700031E06A857B85260F371F4A815B81240F0A
:10118000351F200F311F2F5E3F4F2E833F832BE5EE
:1011900031E0260F371F240F351F020F131F0E5D7E
:1011A0001F4F0C831D830BE511E0060F171F0883EB
:1011B000198305E611E040916C0050E00ED62881BD
:1011C00039810A831B83020F131F422D415008836C
:1011D000198303E310E050E000D6288139814801EB
:1011E000820E931E2BE531E06A857B85260F371F23
:1011F0004A815B81240F351F200F311F922FA32FAF
:101200009F5EAF4F20916C00822F8F5F2BE531E006
:10121000260F371F240F351F020F131FB8016E5DF5
:101220007F4F488559852E813F810C811D817F929A
:101230007F936F938F93AF939F939F928F926090C2
:101240006C0029011A01702E812E69DDADB7BEB781
:101250001896ADBFBEBFECC000916F00015010E00A
:101260004AEC52E0BAD50A871B872BE531E0020F22
:10127000131F40916C0041500883198305E611E06B
:1012800050E0ABD5288139810A831B83020F131FDD
:10129000452D41500883198303E310E050E09DD5AC
:1012A0002881398108871987200F311F2E833F83BA
:1012B0002BE531E06A857B85260F371F4A815B81EC
:1012C000240F351F200F311F2F5E3F4F2C833D838E
:1012D0002BE531E0260F371F240F351F020F131F98
:1012E0000E5D1F4F0A831B830BE511E0060F171FCE
:1012F0000883198305E611E040916C0050E06DD53C
:1013000028813981200F311F688579854B01820E34
:10131000931E2BE531E04A855B85240F351F200F96
:10132000311F260F371F922FA32F9F5EAF4F2091A3
:101330006C00822F8F5F2BE531E0240F351F020FE9
:10134000131F060F171FB8016E5D7F4F4E815F811F
:101350002C813D810A811B814F923F927F927F9326
:101360006F938F93AF939F939F928F9260906C0037
:1013700029011A01702E812ED2DCADB7BEB71896A6
:10138000ADBFBEBF3F904F90232CBAE83B2EB0E0DC
:101390004B2E0E94D33200916C000150202F30E080
:1013A000220F331F0FE411E0020F131FF8013196D3
:1013B00000810030B9F000916C000150202F30E026
:1013C000220F331F0FE411E0020F131FF8013196B3
:1013D0000081BAE84B2EB0E05B2E302E20906C00DE
:1013E0000E94FE3200916C00202F30E0220F331F4C
:1013F0000FE411E0020F131FF80131960081003055
:10140000B9F000916C00402F4F5F202F30E0220F89
:10141000331F0FE411E0020F131FF8013196008112
:10142000BAE84B2EB0E05B2E302E242E0E94FE3206
:101430008F907F906F905F904F903F902F902B9662
:10144000CDBFDEBFDF91CF910895CF93DF93CDB7AE
:10145000DEB72697CDBFDEBF21962F923F924F92E7
:101460005F926F927F92022D10E0432D50E0B5D431
:1014700044E650E08DD88C0120E0322F06D94F92FF
:101480003F922F921801290197D80A831B832C833E
:101490003D83B2E86B2EB0E07B2E180129016FD995
:1014A0000A811B812C813D810E949C010883198344
:1014B000BAE84B2EB0E05B2E1801ECD82F903F908D
:1014C0004F90B2E04B16A1F52F920E94CA1CB2E8D1
:1014D0004B2EB0E05B2EB1E03B2EB1E02B2E0E94F4
:1014E000FE32BAE84B2EB0E05B2EB6E03B2EB2E007
:1014F0002B2E0E94FE322F90BAE84B2EB0E05B2ECE
:10150000B0E03B2EC7D8BAE84B2EB0E05B2EB1E07E
:101510003B2EB2E02B2E0E94FE32B2E14B2E2880F1
:10152000398092DAB2E14B2E288039808DDAC2C040
:10153000B1E04B16A1F52F920E94CA1CB2E84B2EC7
:10154000B0E05B2EB1E03B2EB1E02B2E0E94FE32CC
:10155000BAE84B2EB0E05B2EB6E03B2EB2E02B2E6D
:101560000E94FE322F90BAE84B2EB0E05B2EB0E026
:101570003B2E90D8BAE84B2EB0E05B2EB1E03B2E6C
:10158000B2E02B2E0E94FE32B1E14B2E2880398032
:101590005BDAB1E14B2E2880398056DA8BC0BEE190
:1015A0004B16B9F4B0E02B1629F4232CB0E03B2EF7
:1015B0005ADA0EC0231421F42224332454DA08C04A
:1015C00008801980032D10E00019110918014BDA69
:1015D00071C0B1E24B1659F4B0E02B1621F428800B
:1015E000398041DA03C0288039803DDA63C0B4E035
:1015F0004B1659F4B0E02B1621F42224332431DAAF
:1016000003C0288039802DDA55C0B7E34B1619F492
:1016100028803ED84FC0BDE24B1631F4B2E04B2ECD
:101620002880398011DA46C0B2E34B1619F42880BD
:101630002FD840C0B9E14B16B9F4B0E02B1651F4E5
:1016400008801980032D10E00019110918010E946B
:10165000C40209C008801980032D10E00019110987
:1016600018010E94C40226C0B3E24B16B9F4B0E0E0
:101670002B1651F408801980032D10E00019110970
:1016800018010E94C00209C008801980032D10E0D3
:101690000019110918010E94C0020CC0B5E04B16D8
:1016A00009F408C0B6E04B1609F404C0B7E04B16C5
:1016B00009F400C07F906F905F904F903F902F9003
:1016C0002596CDBFDEBFDF91CF910895CF93DF93F5
:1016D000CDB7DEB72297CDBFDEBF2196B0915301C3
:1016E000B260B0935301B0916E00BE7FB0936E00B4
:1016F000B1E0B0936F00B1E0B0936C002F92232C57
:101700000ADA2F90B1E02B2E321408F4D7C00091E2
:101710006F00015010E04AEC52E05FD32BE531E05E
:10172000020F131F40916C0041500883198305E696
:1017300011E050E052D328813981020F131F422D4E
:1017400041500883198303E310E050E046D3288119
:101750003981F801E20FF31FB0E5B193BCE6B19314
:10176000B3E7B193B0E2B193B3E4B193B8E6B19308
:10177000B3E7B193B0E2B193B0E5B193B2E7B193FF
:10178000B7E6B193B0E2B193BEE4B193B5E7B193DC
:10179000BDE6B193B0E0B19300916F00015010E04D
:1017A0004AEC52E01AD32BE531E0020F131F4091AF
:1017B0006C0041500883198305E611E050E00DD319
:1017C00028813981020F131F422D4150088319834C
:1017D00003E310E050E001D328813981020F131F89
:1017E000F8017196B0E5B193BCE6B193B3E7B1935C
:1017F000B0E2B193B3E4B193B8E6B193B3E7B19378
:10180000B0E2B193B0E5B193B2E7B193B7E6B1936B
:10181000B0E2B193BEE4B193B5E7B193BDE6B19345
:10182000B0E0B19300916F00015010E04AEC52E03B
:10183000D4D22BE531E0020F131F0883198305E68C
:1018400011E040916C0050E0C8D228813981020F2C
:10185000131F422D41500883198303E310E050E029
:10186000BCD228813981F801E20FF31FB0E5B193B2
:10187000B2E7B193BAE3B193B1E3B193B0E2B193FC
:10188000B2E3B193B0E2B193B3E3B193B0E2B193F9
:10189000B4E3B193B0E2B193B5E3B193B0E2B193E5
:1018A000B6E3B193B0E2B193B7E3B193B0E0B193D3
:1018B000231421F0022D0F5F202E26CFB2E0B0932B
:1018C0006C003F922F92B2E03B2E20906F0060DAC6
:1018D0002F903F90B2E0B0936F00B1E0B0936C00F6
:1018E000B1E02B2E321408F4AAC000916F00015011
:1018F00010E04AEC52E071D22BE531E0020F131FE9
:1019000040916C0041500883198305E611E050E0D6
:1019100064D228813981020F131F422D4150088360
:10192000198303E310E050E058D228813981F8018F
:10193000E20FF31FB0E5B193B2E7B193BFE6B19305
:10194000B7E6B193B2E7B193B1E6B193BDE6B19317
:10195000B0E2B193B0E2B193B0E2B193B0E2B1932F
:10196000B0E2B193B9E6B193B3E7B193B0E2B1930A
:10197000B3E7B193B5E6B193BCE6B193B3E6B193E7
:10198000B4E7B193B5E6B193B4E6B193B0E0B193E7
:1019900000916F00015010E04AEC52E01ED22BE59E
:1019A00031E0020F131F40916C00415008831983EE
:1019B00005E611E050E011D228813981020F131F92
:1019C000422D41500883198303E310E050E005D213
:1019D00028813981F801E20FF31FB7E4B193BFE624
:1019E000B193B9E6B193BEE6B193B7E6B193B0E275
:1019F000B193B4E7B193BFE6B193B0E2B193B9E468
:101A0000B193B4E7B193B7E2B193B3E7B193B0E266
:101A1000B193B3E5B193B5E6B193B4E7B193B4E74D
:101A2000B193B9E6B193BEE6B193B7E6B193B0E036
:101A3000B193231421F0022D0F5F202E53CF00917C
:101A40006C000150202F30E0220F331F0FE411E013
:101A5000F901E00FF11FBAE0B083B1E02B2E21961F
:101A6000CDBFDEBFDF91CF910895B0916E00B1FD83
:101A700008C0B0B3B064B0BBB0916E00B260B093B8
:101A80006E000895CF93DF93CDB7DEB76297CDBFD9
:101A9000DEBF2196B0915301B260B0935301B09173
:101AA0006E00BE7FB0936E00B1E0B0936F00B1E006
:101AB000B0936C002F92B7E02B2E2DD82F90B1E071
:101AC0002B2E321408F4D6C000916F00015010E0A4
:101AD0004AEC52E082D12BE531E0020F131F409116
:101AE0006C004150088B198B05E611E050E075D170
:101AF00028893989020F131F422D4150088B198BF9
:101B000003E310E050E069D128893989020F131FDF
:101B10009801AC2FBD2FF2010E9485050AE30D93B9
:101B20000EE30D930EE30D930EE30D93F3010E946C
:101B300085050CE30D930CE30D930CE30D9300E08E
:101B40000D93A22FB32FFE010E94850500E00D9397
:101B500000916F00015010E04AEC52E03ED12BE5BD
:101B600031E0020F131F40916C004150088B198B1C
:101B700005E611E050E031D128893989020F131FA1
:101B8000422D4150088B198B03E310E050E025D122
:101B900028893989020F131F98012F5E3F4FAC2F00
:101BA000BD2FF2010E9485050AE30D930EE30D930C
:101BB0000EE30D930EE30D93F3010E9485050CE3F4
:101BC0000D930CE30D930CE30D9300E00D93A22F06
:101BD000B32FFE010E94850500E00D9300916F0078
:101BE000015010E04AEC52E0F8D02BE531E0020F52
:101BF000131F088B198B05E611E040916C0050E033
:101C0000ECD028893989020F131F422D4150088BCF
:101C1000198B03E310E050E0E0D028893989F801FE
:101C2000E20FF31FB0E2B193B0E2B193B0E2B1932F
:101C3000B0E2B193B0E2B193B0E2B193B0E2B1934C
:101C4000B0E2B193B0E2B193B0E2B193B0E2B1933C
:101C5000B0E2B193B0E2B193B0E2B193B0E2B1932C
:101C6000B0E2B193B0E0B193231421F0022D0F5FE5
:101C7000202E27CFB2E0B0936F00B1E0B0936C009C
:101C8000B1E02B2E321408F485C000916F00015092
:101C900010E04AEC52E0A1D02BE531E0020F131F17
:101CA00040916C004150088B198B05E611E050E023
:101CB00094D028893989020F131F422D4150088B77
:101CC000198B03E310E050E088D028893989020F8E
:101CD000131FA02FB12FF2010E94850500E20D9382
:101CE00004E50D9309E60D930DE60D9305E60D93BE
:101CF00002E70D9300E20D9303E50D9305E60D93C6
:101D000004E70D9304E70D9300E00D9300916F003D
:101D1000015010E04AEC52E060D02BE531E0020FB8
:101D2000131F088B198B05E611E040916C0050E001
:101D300054D028893989020F131F422D4150088B36
:101D4000198B03E310E050E048D028893989F80165
:101D5000E20FF31FB9E6B193BEE6B193B7E6B193D4
:101D6000B0E2B193B9E6B193B3E7B193B0E2B19306
:101D7000B3E7B193B5E6B193B4E7B193B5E6B193E8
:101D8000B4E6B193B0E0B193231421F0022D0F5FBC
:101D9000202E78CF00916C00202F30E0220F331FCF
:101DA0000FE411E0F901E00FF11FB1E0B083009101
:101DB0006C00202F30E0220F331F0FE411E0020FE0
:101DC000131FF8013196B9E0B083B1E02B2E619674
:101DD000CDBFDEBFDF91CF9108959801249F800190
:101DE000259F100D349F100D0895B0916E00BF7D9A
:101DF000B0936E000E942D3AB0916E00B062B09325
:101E00006E000895CF93DF93CDB7DEB72A97CDBF8D
:101E1000DEBF219600E010E0B0E1BA83B7E2BB83F9
:101E2000B0E0B883B983B0E0BE83BF83B887B98719
:101E3000B0E0BC83BD8308811981F801E20DF31D78
:101E40000081003009F448C008811981F801E20DD1
:101E5000F31D00810D3259F4BFEFBC83B0E0BD83A8
:101E6000088119810F5F1F4F08831983E4CF088110
:101E70001981F801E20DF31D00810032E9F00881BB
:101E80001981F801E20DF31D008110E000531040AC
:101E900020E0322F4A815B8160E0762F0E946B0543
:101EA0004E815F8168857985040F151F261F371FB6
:101EB0000E831F83288739874AE050E00A811B81FF
:101EC0000E94C8028C010A831B83088119810F5F5D
:101ED0001F4F08831983AFCF0C811D81B02FB12B09
:101EE00029F0B6E0BA83B0E0BB8304C0B5E0BA83A2
:101EF000B0E0BB83288139810A811B81201731071B
:101F0000D9F03F922F924AE050E060E070E00E81FD
:101F10001F81288539850E94020189019A012F902D
:101F20003F900E831F8328873987088119810F5FAF
:101F30001F4F08831983DECF2E813F810C811D81C5
:101F4000B02FB12B39F000E010E0021B130BA801F9
:101F50009A0100C089012996CDBFDEBFDF91CF91E4
:101F60000895CF93DF93CDB7DEB76397CDBFDEBFC4
:101F70002196B0915301B260B0935301B0916E00BD
:101F8000BE7FB0936E00B1E0B0936F00B1E0B0934C
:101F90006C002F92232C0E948B052F90B1E02B2EEA
:101FA000321408F482C000916F00015010E04AEC36
:101FB00052E013DF2BE531E0020F131F40916C005C
:101FC0004150098B1A8B05E611E050E006DF2989A4
:101FD0003A89020F131F422D4150098B1A8B03E3DC
:101FE00010E050E0FADE29893A89020F131F9801A8
:101FF000AC2FBD2FF2010E94850500E20D93F30185
:102000000E94850500E20D93F4010E94850500E021
:102010000D93A22FB32FFE010E94850500E00D93C2
:1020200000916F00015010E04AEC52E0D6DE2BE543
:1020300031E0020F131F40916C004150098B1A8B45
:1020400005E611E050E0C9DE29893A89020F131F25
:10205000422D4150098B1A8B03E310E050E0BDDEA6
:1020600029893A89020F131F98012F5E3F4FAC2F29
:10207000BD2FF2010E94850500E20D93F3010E943D
:10208000850500E20D93F4010E94850500E00D93A3
:10209000A22FB32FFE010E94850500E00D932314AB
:1020A00021F0022D0F5F202E7BCFB2E0B0936C00A9
:1020B000B1E02B2E00916F00015010E04AEC52E08D
:1020C0008CDE2BE531E0020F131F0B591E4FF80178
:1020D0007196BEE5B193BEE5B193BEE5B193BEE5A1
:1020E000B193B0E2B193B0E2B193B0E2B193B0E298
:1020F000B193B0E2B193B0E2B193B0E2B193B0E288
:10210000B193B0E2B193B0E2B193B0E2B193B0E277
:10211000B193B0E0B193B2E02B2E00916F0001506B
:1021200010E04AEC52E059DE2BE531E0020F131FBC
:1021300040916C004150098B1A8B05E611E050E08C
:102140004CDE29893A89020F131F0D5C1F4FF801DD
:102150007196B0E2B193B0E2B193B0E2B193B0E264
:10216000B193B0E2B193BEE5B193BEE5B193BEE5E4
:10217000B193BEE5B193B0E2B193B0E2B193B0E2F6
:10218000B193B0E2B193B0E2B193B0E2B193B0E2F7
:10219000B193B0E0B193B3E02B2E00916F000150EA
:1021A00010E04AEC52E019DE2BE531E0020F131F7C
:1021B00040916C004150098B1A8B05E611E050E00C
:1021C0000CDE29893A89020F131F0A591F4FF801A3
:1021D0007196B0E2B193B0E2B193B0E2B193B0E2E4
:1021E000B193B0E2B193B0E2B193B0E2B193B0E297
:1021F000B193B0E2B193B0E2B193B0E2B193BEE576
:10220000B193BEE5B193BEE5B193BEE5B193B0E243
:10221000B193B0E0B193B2E0B0936F00B1E0B0938E
:102220006C00B1E02B2E321408F442C000916F0014
:10223000015010E04AEC52E0D0DD2BE531E0020F16
:10224000131F098B1A8B05E611E040916C0050E0DA
:10225000C4DD29893A89020F131F422D4150098B91
:102260001A8B03E310E050E0B8DD29893A89F801C0
:10227000E20FF31FB0E2B193B9E6B193B3E7B193C4
:10228000B0E2B193B3E7B193B5E6B193BCE6B193D5
:10229000B3E6B193B4E7B193B5E6B193B4E6B193C5
:1022A000B0E0B193231421F0022D0F5F202EBBCF9D
:1022B000B1E02B2E00916F00015010E04AEC52E08B
:1022C0008CDD2BE531E0020F131F40916C00415073
:1022D000098B1A8B05E611E050E07FDD29893A89E8
:1022E000020F131FA02FB12FF2010E94850500E2FB
:1022F0000D9300E20D9303E70D9305E60D9304E7BC
:102300000D9304E70D9309E60D930EE60D9307E692
:102310000D9300E20D9300E20D9300E20D9300E2B5
:102320000D9300E00D93B2E02B2E00916F00015051
:1023300010E04AEC52E051DD2BE531E0020F131FB3
:1023400040916C004150098B1A8B05E611E050E07A
:1023500044DD29893A89020F131F0D5C1F4FA02FFE
:10236000B12FF3010E94850500E20D9303E70D9361
:1023700005E60D9304E70D9304E70D9309E60D932D
:102380000EE60D9307E60D9300E20D9300E20D9328
:1023900000E20D9300E20D9300E00D93B3E02B2ECD
:1023A00000916F00015010E04AEC52E016DD2BE581
:1023B00031E0020F131F40916C004150098B1A8BC2
:1023C00005E611E050E009DD29893A89020F131F63
:1023D000F801EA59FF4FB5E4B193B8E7B193B9E614
:1023E000B193B4E7B193B9E6B193BEE6B193B7E662
:1023F000B193B0E2B193B0E2B193B0E2B193B0E285
:10240000B193B0E2B193B0E2B193B0E2B193B0E274
:10241000B193B0E2B193B0E2B193B0E0B193B1E067
:102420002B2E6296CDBFDEBFDF91CF910895009134
:10243000A000007F102F16951695169516950AE0A8
:10244000109F102D0091A0000F70010F0093A000AD
:1024500000919E00007F102F1695169516951695E3
:102460000AE0109F102D00919E000F70010F009345
:102470009E0000918900007F102F169516951695E5
:1024800016950AE0109F102D009189000F70010F22
:102490000093890000915901077000935901009140
:1024A0009F00007F102F16951695169516950AE039
:1024B000109F102D00919F000F70010F00939F003F
:1024C000009158010071102F1695169516951695C6
:1024D0000AE0109F102D009158010F70010F00931A
:1024E000580100915A01007F102F169516951695E8
:1024F00016950AE0109F102D00915A010F70010FE0
:1025000000935A010895CF93DF93CDB7DEB72D978F
:10251000CDBFDEBF21962F923F924F925F926F9276
:102520007F928F929F923F922F92B0E68B2EB0E0D7
:102530009B2EB4E66B2EB0E07B2EB2E64B2EB0E0C5
:102540005B2EBBE62B2EB0E03B2EB0E0BF93B9E68E
:10255000BF93B0E0BF93B6E6BF93B0E0BF93B1E6E0
:10256000BF930E943430ADB7BEB71696ADBFBEBFA5
:10257000B1E02B2E0E94FC1A0E94CA1C2F903F90A3
:102580002101B1E03B2EB1E02B2E0E94FE32FE0174
:10259000B0E2B193BFE4B193BEE6B193B0E2B193C0
:1025A000B4E7B193B8E6B193B1E6B193BBE6B193AA
:1025B000B5E6B193B3E7B193B0E2B193BAE3B193A7
:1025C000B0E0B1938E012801B6E03B2EB1E02B2E96
:1025D0000E94FE32FE01BDE4B193B9E6B193BEE6BE
:1025E000B193BAE3B193B0E0B1938E012801B1E0A9
:1025F0003B2EB2E02B2E0E94FE32FE01BCE2B193D4
:10260000B3E7B193B5E6B193B3E6B193BAE3B1934F
:10261000B0E0B1938E012801B8E03B2EB2E02B2E42
:102620000E94FE320091640010916500007F1070DE
:10263000B4E015950795BA95E1F74AE050E0CDDB97
:1026400020916400309165002F703070020F131FCD
:102650000093640010936500009162001091630084
:10266000007F1070B4E015950795BA95E1F74AE040
:1026700050E0B3DB20916200309163002F70307026
:10268000200F311F2093620030936300122F50916E
:1026900064004AE0022F0E94EF1B005D5F931F93CE
:1026A000402EB5E03B2EB2E02B2E0E9435051F9147
:1026B0004AE0012F0E94EF1B092F005D402EB6E07B
:1026C0003B2EB2E02B2E0E9435055F914AE0052F8C
:1026D0000E94EF1B005D5F93402EBCE03B2EB2E0FA
:1026E0002B2E0E9435055F914AE0052F0E94EF1BBB
:1026F000092F005D402EBDE03B2EB2E02B2E0E9444
:1027000035059F908F907F906F905F904F903F9096
:102710002F902C96CDBFDEBFDF91CF910895CF9340
:10272000DF93CDB7DEB7A597CDBFDEBF21968F92E1
:10273000B1E0B0936F00B1E0B0936C007F926F9204
:102740005F924F923F922F920E94CA1C2F903F900F
:102750004F905F906F907F90B0E03B1611F4B0E027
:102760002B1631F481010F5F1F4F0F83188702C0B2
:102770002F823886B0915301B260B0935301B0E01C
:10278000BC87B0E0BB87B0916E00BE7FB0936E0097
:10279000B0915301B1FF68C5B1E0B0936F00B1E0F3
:1027A000B0936C00062D10E002151305A4F47F927F
:1027B0006F925F924F923F922F92462D50E081018F
:1027C0000E94DD018C012F903F904F905F906F90A1
:1027D0007F900F8318870F811885103009F400301F
:1027E00021F4B1E0BF83B0E0B8870C85023011F46A
:1027F000B0E0BC870C850F5F0C87B0E07B1609F456
:10280000ADC000916F00015010E04AEC52E0E5DAF3
:102810000BA31CA32BE531E0020F131F40916C00AA
:102820004150098F1A8F05E611E050E0D6DA298D64
:102830003A8D0B8F1C8F020F131F4F814150098F50
:102840001A8F03E310E050E0C8DA298D3A8D200F8B
:10285000311F29A33AA32BE531E06BA17CA1260F00
:10286000371F4B8D5C8D240F351F200F311F2F5EBE
:102870003F4F2F8F38A32BE531E0260F371F240F52
:10288000351F020F131F0E5D1F4F0D8F1E8F0BE59F
:1028900011E0060F171F098F1A8F05E611E040910E
:1028A0006C0050E09ADA298D3A8D0B8F1C8F020F45
:1028B000131F472D4150098F1A8F03E310E050E09A
:1028C0008CDA298D3A8D4801820E931E2BE531E07A
:1028D0006BA17CA1260F371F4B8D5C8D240F351FFC
:1028E000200F311F922FA32F9F5EAF4F20916C00BE
:1028F000822F8F5F2BE531E0260F371F240F351F06
:10290000020F131FB8016E5D7F4F49A15AA12F8D91
:1029100038A10D8D1E8D7F926F925F924F923F92E4
:102920002F920C850F937F936F938F93AF939F9309
:102930009F928F92702E812E60906C0029011A0157
:102940000E948F06ADB7BEB71896ADBFBEBF2F9021
:102950003F904F905F906F907F9013C100916F00F8
:10296000015010E04AEC52E038DA0BA31CA32BE52F
:1029700031E0020F131F40916C004150098F1A8FF4
:1029800005E611E050E029DA298D3A8D0B8F1C8F76
:10299000020F131F4F814150098F1A8F03E310E07C
:1029A00050E01BDA298D3A8D09A31AA3200F311F9D
:1029B0002F8F38A32BE531E06BA17CA1260F371FA9
:1029C0004B8D5C8D240F351F200F311F2F5E3F4F25
:1029D0002D8F3E8F2BE531E0260F371F240F351F3B
:1029E000020F131F0E5D1F4F0B8F1C8F0BE511E0A5
:1029F000060F171F098F1A8F05E611E040916C0032
:102A000050E0EBD9298D3A8D200F311F69A17AA1B1
:102A10004B01820E931E2BE531E04BA15CA1240FEC
:102A2000351F200F311F260F371F922FA32F9F5EB8
:102A3000AF4F20916C00822F8F5F2BE531E0240F88
:102A4000351F020F131F060F171FB8016E5D7F4F52
:102A50004F8D58A12D8D3E8D0B8D1C8D7F926F92C9
:102A60005F924F923F922F920C850F937F936F93BB
:102A70008F93AF939F939F928F92702E812E609031
:102A80006C0029011A010E948F06ADB7BEB71896D7
:102A9000ADBFBEBF2F903F904F905F906F907F90E3
:102AA00000916C000150202F30E0220F331F0FE403
:102AB00011E0020F131FF80131960081003049F137
:102AC0007F926F925F924F923F922F92BAE83B2E85
:102AD000B0E04B2E0E94D33200916C000150202FA9
:102AE00030E0220F331F0FE411E0020F131FF80133
:102AF00031960081BAE84B2EB0E05B2E302E20904C
:102B00006C000E94FE322F903F904F905F906F902C
:102B10007F9000916C00202F30E0220F331F0FE4D4
:102B200011E0020F131FF80131960081003049F1C6
:102B30007F926F925F924F923F922F92BAE83B2E14
:102B4000B0E04B2E0E94D33200916C00402F4F5FBB
:102B5000202F30E0220F331F0FE411E0020F131F6C
:102B6000F80131960081BAE84B2EB0E05B2E302E92
:102B7000242E0E94FE322F903F904F905F906F90D6
:102B80007F90B1E0B0936D0010916D0005E00117EA
:102B900008F467C300916D000F5F00936D007F9292
:102BA0006F925F924F923F922F92B1E06B2EB5E001
:102BB0005B2EB1E04B2EB6E32B2EB0E03B2E24D69D
:102BC0002F903F904F905F906F907F90002309F47B
:102BD000BEC0B1E0B9877F926F925F924F923F92F1
:102BE0002F92B1E02B2E08D52F903F904F905F9001
:102BF0006F907F90B6E0B0936D00B1E0BB83B0E022
:102C0000BC83B0E0BD83BE83B0E0B983BA830981E1
:102C10001A81103009F4003009F099C00D811E812D
:102C20000F5F1F4F0D831E837F926F925F924F92B3
:102C30003F922F92B1E06B2EB4E15B2EB1E04B2EB0
:102C4000B6E32B2EB0E03B2EDFD52F903F904F9078
:102C50005F906F907F900023A9F07F926F925F92B8
:102C60004F923F922F92442D50E00D811E810E9481
:102C7000DD018C012F903F904F905F906F907F907F
:102C80000B831C830B811C81020D131D180104157D
:102C9000B0E01B0724F0252CB0E03B2E00C02F81B4
:102CA00038850B811C81200F311F2F833887062D1B
:102CB00010E0021713072CF4B1E0BF83B0E0B8872F
:102CC00000C00F811885103009F4003021F4B1E004
:102CD000BF83B0E0B8870C85023010F0B0E0BC874D
:102CE0000C850F5F0C877F926F925F924F923F929D
:102CF0002F925F806884432C322C272C702E0E94E8
:102D00007A0866245524B1E04B2EB6E32B2EB0E0B2
:102D10003B2E7AD52F903F904F905F906F907F9091
:102D20001985012349F0B0E0B987B6E0B0936D0092
:102D3000B1E0B983B0E0BA8329E01EE105EE0A955F
:102D4000F1F71A95E1F72A95D1F7000060CF7F924D
:102D50006F925F924F923F922F92B1E06B2EB5E04F
:102D60005B2EB4E04B2EB6E32B2EB0E03B2E4CD5C1
:102D70002F903F904F905F906F907F90002309F4C9
:102D8000BFC0B1E0BA877F926F925F924F923F923D
:102D90002F92B1E02B2E30D42F903F904F905F9028
:102DA0006F907F90B6E0B0936D00B1E0BB83B0E070
:102DB000BC83B0E0BD83BE83B0E0B983BA83098130
:102DC0001A81103009F4003009F09AC00D811E817B
:102DD0000F5F1F4F0D831E837F926F925F924F9202
:102DE0003F922F92B1E06B2EB4E15B2EB4E04B2EFC
:102DF000B6E32B2EB0E03B2E07D52F903F904F909F
:102E00005F906F907F900023A9F07F926F925F9206
:102E10004F923F922F92442D50E00D811E810E94CF
:102E2000DD018C012F903F904F905F906F907F90CD
:102E30000B831C830B801C8091012019310919011F
:102E4000052D10E00217130724F0242CB0E03B2ED0
:102E500000C00B801C802F813885201931092F83F9
:102E6000388701E010E02017310724F46F82B0E0CA
:102E7000B88700C00F811885103009F4003021F4A4
:102E8000B1E0BF83B0E0B8870C85023010F0B0E04D
:102E9000BC870C850F5F0C877F926F925F924F9279
:102EA0003F922F925F806884432C322C272C702E07
:102EB0000E947A0866245524B4E04B2EB6E32B2EEC
:102EC000B0E03B2EA1D42F903F904F905F906F9039
:102ED0007F901A85012349F0B0E0BA87B6E0B0933D
:102EE0006D00B1E0B983B0E0BA8329E01EE105EEE0
:102EF0000A95F1F71A95E1F72A95D1F700005FCF0F
:102F000020927000B2E0B0936F00B0916E00BE7F6F
:102F1000B0936E007F926F925F924F923F922F928A
:102F20006624B5E05B2EB2E04B2EB6E32B2EB0E06C
:102F30003B2E6AD40030B0E009F0BFEF0B2F098FB1
:102F40006624B5E05B2E4424B6E32B2EB0E03B2E86
:102F50005BD42F903F904F905F906F907F900030A8
:102F600010E009F01FEF098D012BA1F0B1E0BB8744
:102F70007F926F925F924F923F922F92B1E02B2EF1
:102F80003BD32F903F904F905F906F907F90B6E033
:102F9000B0936D007F926F925F924F923F922F920B
:102FA000B1E06B2EB5E05B2EB2E04B2EB6E32B2EDC
:102FB000B0E03B2E29D41B850123098F10905301CB
:102FC00000906E00E89411FC02FE01C0689440F885
:102FD000B1E06B2EB5E05B2E4424B6E32B2EB0E0BF
:102FE0003B2E12D42F903F904F905F906F907F9028
:102FF000112740FC13951023098D012B09F42AC1D8
:10300000B0E0BB87B0915301BD7FB0935301B6E0F0
:10301000B0936D0000917200102F1F5F109372002B
:1030200000917100101719F4B1E0B0937200009193
:103030006F00015010E04AEC52E00E94ED0E0BA32D
:103040001CA32BE531E0020F131F40916C0041508F
:10305000098F1A8F05E611E050E00E94ED0E298DD0
:103060003A8D0B8F1C8F020F131F4F814150098F18
:103070001A8F03E310E050E00E94ED0E298D3A8D87
:1030800009A31AA3200F311F2F8F38A32BE531E09E
:103090006BA17CA1260F371F4B8D5C8D240F351F34
:1030A000200F311F2F5E3F4F2D8F3E8F2BE531E0DC
:1030B000260F371F240F351F020F131F0E5D1F4FE2
:1030C0000B8F1C8F0BE511E0060F171F098F1A8F4E
:1030D00005E611E040916C0050E00E94ED0E298D54
:1030E0003A8D200F311F69A17AA14B01820E931EE8
:1030F0002BE531E04BA15CA1240F351F200F311FC0
:10310000260F371F922FA32F9F5EAF4F20916C0089
:10311000822F8F5F2BE531E0240F351F020F131F25
:10312000060F171FB8016E5D7F4F4F8D58A12D8D73
:103130003E8D0B8D1C8D7F926F925F924F923F92CE
:103140002F920C850F937F936F938F93AF939F93E1
:103150009F928F92702E812E60906C0029011A012F
:103160000E948F06ADB7BEB71896ADBFBEBF2F90F9
:103170003F904F905F906F907F9000916C00015056
:10318000202F30E0220F331F0FE411E0F901E00F90
:10319000F11F0081003041F17F926F925F924F9258
:1031A0003F922F92BAE83B2EB0E04B2E0E94D332D2
:1031B00000916C000150202F30E0220F331F0FE4EC
:1031C00011E0F901E00FF11F0081BAE84B2EB0E0E9
:1031D0005B2E302E20906C000E94FE322F903F908C
:1031E0004F905F906F907F9000916C00202F30E0A7
:1031F000220F331F0FE411E0F901E00FF11F0081EE
:10320000003041F17F926F925F924F923F922F92E6
:10321000BAE83B2EB0E04B2E0E94D33200916C00F6
:10322000402F4F5F202F30E0220F331F0FE411E0BB
:10323000F901E00FF11F0081BAE84B2EB0E05B2EE0
:10324000302E242E0E94FE322F903F904F905F90A0
:103250006F907F9018E605EE0A95F1F71A95E1F761
:1032600093CC2092700094CA00917000088325E1ED
:103270001BE40FEB0A95F1F71A95E1F72A95D1F7C0
:10328000000008818F90A496CDBFDEBFDF91CF9163
:103290000895CF93DF93CDB7DEB72C97CDBFDEBFB8
:1032A00021963F924F925F92B1E02B1609F09EC09B
:1032B00051E00091A10001505F9310E048E150E01F
:1032C0000E94ED0E5F9125EA30E0020F131F452F9B
:1032D00041500A871B875F930CE010E050E00E948A
:1032E000ED0E2A853B85200F311F00914D010150C5
:1032F00010E0000F111F000F111F020F131FF80124
:10330000319600919E0000830091A100015010E0D1
:1033100048E150E00E94ED0E5F9125EA30E0020F97
:10332000131F452F41500A871B875F930CE010E065
:1033300050E00E94ED0E5F912A853B85200F311FE2
:1033400000914D01015010E0000F111F000F111FDF
:10335000020F131FF80132960091A0000083523033
:1033600021F0052F0F5F502FA4CF2F9213D3FE0112
:10337000B3E5B193B1E6B193B6E7B193B9E6B193D2
:10338000BEE6B193B7E6B193B0E0B1938E012801E8
:10339000B1E03B2EB1E02B2E0E94FE32FE01BFE4D5
:1033A000B193BEE6B193B0E2B193B5E4B193B5E4A5
:1033B000B193B0E5B193B2E5B193BFE4B193BDE48D
:1033C000B193B0E0B1938E012801B1E03B2EB2E0A1
:1033D0002B2E0E94FE322F9029E01EE105EE0A9569
:1033E000F1F71A95E1F72A95D1F700005F904F9019
:1033F0003F902B96CDBFDEBFDF91CF910895B09166
:103400003400B260B09334000E94F8320E94F83267
:10341000B0913400BE7FB0933400B0916E00BF7B9A
:10342000B0936E00B0913300B0FD06C0B0916E0055
:10343000B6FF01C001C0F6CF0E94F8320E94F832F8
:103440000E94F8320E94F8320E94F8320E94F8324C
:103450000E94F8320E94F832B0913400BD7FB093E0
:1034600034000E94F8320E94F8320895CF93DF931F
:10347000CDB7DEB72397CDBFDEBF2196B1E0B883CD
:10348000B0E8B983B0E0BA8309811A81103009F439
:10349000003009F443C00E94F8320E94F8320E94C2
:1034A000F8320E94F832B0913400B160B093340029
:1034B0000E94F8320E94F83209811A8102211070AC
:1034C000103009F4003031F0B0913400BD7FB0937A
:1034D000340005C0B0913400B260B09334000E9453
:1034E000F8320E94F832B0913400BE7FB0933400BD
:1034F000B0916E00BF7BB0936E00B0913300B0FD11
:1035000006C0B0916E00B6FF01C001C0F6CF0981C0
:103510001A811695079509831A83B6CFB0E0B88350
:103520000E94F8320E94F832B0913400B160B0933A
:1035300034000E94F8320E94F832B0913400BD7F0E
:10354000B09334000E94F8320E94F8320E94F832A0
:103550000E94F832B0913400BE7FB0933400B09135
:103560006E00BF7BB0936E00B0913300B0FD06C01B
:10357000B0916E00B6FF01C001C0F6CFB0E0B883D5
:103580000E94F8320E94F832B0913300B1FF03C0BC
:103590000881016008830E94F8320E94F8320E947C
:1035A000F8320E94F8320E94F8320E94F8320E94EB
:1035B000F8320E94F8320E94F8320E94F8320E94DB
:1035C000F8320E94F8320E94F8320E94F8320E94CB
:1035D000F8320E94F832B0913400B160B0933400F8
:1035E000B0913400B260B093340008812296CDBF10
:1035F000DEBFDF91CF9108952F923F924F92B1E0BD
:103600002B16D9F4B3E04B2EBFEF3B2EB4E62B2E96
:103610000E94250A2DE01DE208ED0A95F1F71A95A2
:10362000E1F72A95D1F700000000B3E04B2EBFEF81
:103630003B2E22240E94250A1AC0B3E04B2EBFEF76
:103640003B2E22240E94250A2DE01DE208ED0A955A
:10365000F1F71A95E1F72A95D1F700000000B3E0E1
:103660004B2EBFEF3B2EB4E62B2E0E94250A4F9027
:103670003F902F900895CF93DF93CDB7DEB7239778
:10368000CDBFDEBF2196B0E0B883B0E8B983B0E02B
:10369000BA8309811A81103009F4003009F439C065
:1036A0000E94F8320E94F832B0913400BD7FB0938E
:1036B00034000E94F8320E94F832B0913400BE7F8C
:1036C000B0933400B0916E00BF7BB0936E00B091A8
:1036D0003300B0FD06C0B0916E00B6FF01C001C05E
:1036E000F6CFB0913300B1FF04C018810981012BDE
:1036F00008830E94F8320E94F832B0913400B16021
:10370000B093340009811A811695079509831A83AD
:10371000C0CFB0913400BD7FB09334000E94F83226
:103720000E94F832B0E03B1611F4B0E02B1629F0FD
:10373000B0913400B260B09334000E94F8320E941D
:10374000F832B0913400BE7FB0933400B0916E0077
:10375000BF7BB0936E00B0913300B0FD06C0B09156
:103760006E00B6FF01C001C0F6CF0E94F8320E9481
:10377000F832B0913400B160B09334000E94F83256
:103780000E94F832B0913400B260B09334000881E6
:103790002296CDBFDEBFDF91CF910895B091340066
:1037A000BD7FB09334000E94F8320E94F832B0918D
:1037B0003400BE7FB09334000E94F8320E94F83289
:1037C000B0913400B260B09334000E94F8320E948D
:1037D000F832B0913400B160B09334000895992765
:1037E00079E004C0991F941708F0941B001F7A9584
:1037F000C9F70095089516E00BE20A95F1F71A95BE
:10380000E1F7000000000895CF93DF93CDB7DEB756
:103810002197CDBFDEBF2196B0E0B883B42D11E073
:10382000BB2319F0110FBA95E9F7F10100811023BC
:1038300000E0103009F001E00615D9F400E00515AC
:1038400030F4D9DFD8DF052D0150502EF7CFB42D3D
:1038500011E0BB2319F0110FBA95E9F7F1010081CE
:10386000102300E0103009F001E0061511F4BFEF5D
:10387000B8830881CDBFDEBFDF91CF9108952F922D
:103880008F927F926F925F924F923F922F9286DF3C
:10389000B0ED2B2EEBDD2224E9DD2F903F904F90F1
:1038A0003F922F92242CE2DD2F903F902F92232CD9
:1038B000DDDD2F90DBDD5F906F905F92262CD6DDF3
:1038C0005F90252CD3DD7F90272CD0DD8F90282C86
:1038D000CDDD95DD94DD2F900895B1E07B1609F0E4
:1038E00050C0B0E0BFBDB0E0BEBDB0E0BDBDB0E017
:1038F000BCBD4FBC6BBC5ABC69BC58BCBBE02B16F2
:1039000039F40FB501600FBD0EB5077E0EBD38C08E
:10391000BCE02B1639F4BFB5B260BFBD0EB5077E53
:103920000EBD2EC0BDE02B1639F40FB503600FBDE0
:103930000EB5077E0EBD24C0BEE02B1639F40FB5C0
:1039400001600FBD0EB508600EBD1AC0BFE02B169A
:1039500039F40FB502600FBD0EB508600EBD10C082
:10396000B0E12B1639F40FB503600FBD0EB508603A
:103970000EBD06C00FB50C7F0FBD0EB5077E0EBD88
:1039800003C00FB50C730FBD30927B000EB5032939
:103990000EBD08952F920E941639B1E02B2E0E9481
:1039A0002D3ABCE02B2E0E942D3A2F900895CF93F4
:1039B000DF93CDB7DEB76E97CDBFDEBF21965F92A6
:1039C0006F927F928F929F92B1E0B093A400209269
:1039D000A100B1E0B0934D01B0915301B260B0933A
:1039E0005301B0916E00BB7FB0936E002092A10096
:1039F000B1E0B0935901B1E0B0936A00B0915301C6
:103A0000B1FFC0C0B0E03B1609F047C04F923F92F3
:103A10002F926624B5E05B2EB3E04B2EB0E32B2E45
:103A2000B0E03B2EF1DE2F903F904F900023A9F0A5
:103A3000B0916E00B460B0936E00B1E03B2EB091D7
:103A40005301BD7FB09353014F923F922F92B1E04B
:103A50002B2ED2DD2F903F904F904F923F922F927E
:103A6000B1E06B2EB5E05B2EB3E04B2EB0E32B2E16
:103A7000B0E03B2EC9DE2F903F904F9000906E003B
:103A8000112702FC1395012339F0B1E03B2EB091D0
:103A90005301BD7FB093530174C0B0915301BD7FFA
:103AA000B09353014F923F922F9274DFFE01B7E51E
:103AB000B193B1E6B193B4E7B193B9E6B193BEE681
:103AC000B193B7E6B193B0E2B193B6E6B193BFE676
:103AD000B193B2E7B193B0E2B193BAE3B193B0E07E
:103AE000B1938E012801B1E03B2EB1E02B2E0E9454
:103AF000FE32FE01B0E5B193B2E7B193B5E6B19302
:103B0000B3E7B193B3E7B193B9E6B193BEE6B1932E
:103B1000B7E6B193B0E2B193B8E4B193B5E6B1932F
:103B2000B1E6B193B4E7B193B5E6B193B2E7B1931F
:103B3000B0E2B193BDE6B193B9E6B193B3E6B19308
:103B4000B2E7B193BFE6B193B0E2B193B3E5B193FD
:103B5000B7E5B193B0E0B1938E012801B1E03B2EFF
:103B6000B2E02B2E0E94FE322F903F904F9029E022
:103B70001EE105EE0A95F1F71A95E1F72A95D1F7BE
:103B800000003CCFB1E03B1609F061C5B1E0B09355
:103B9000A4002092A100B1E0B0934D014F923F925A
:103BA0002F92F8DEB0E68B2EB0E09B2EB8E66B2E9F
:103BB000B0E07B2EB7E64B2EB0E05B2EBBE62B2EA3
:103BC000B0E03B2EB0E0BF93B9E6BF93B0E0BF9347
:103BD000B6E6BF93B0E0BF93B1E6BF930E94343026
:103BE000ADB7BEB71696ADBFBEBFBFE98B2EB0E076
:103BF0009B2EB0EA6B2EB0E07B2EBEE94B2EB0E0E0
:103C00005B2EB9E82B2EB0E03B2EB1E0BF93BAE5B6
:103C1000BF93B1E0BF93B8E5BF93B1E0BF93B9E5FF
:103C2000BF930E943430ADB7BEB71696ADBFBEBFCE
:103C30002F903F904F90B0915301B260B0935301D9
:103C4000B1E04B1609F084C0B1E0B0934D01009192
:103C5000A100015010E048E150E00E94ED0E25EA7D
:103C600030E0020F131F4091A4004150098F1A8FBA
:103C70000CE010E050E00E94ED0E298D3A8D200FEF
:103C8000311F00914D01015010E0000F111F000F76
:103C9000111F020F131FF8013196BCE3B08300918E
:103CA000A100015010E048E150E00E94ED0E25EA2D
:103CB00030E0020F131F4091A4004150098F1A8F6A
:103CC0000CE010E050E00E94ED0E298D3A8D200F9F
:103CD000311F00914D01015010E0000F111F000F26
:103CE000111F020F131FF8013296BCE3B08300913D
:103CF000A100015010E048E150E00E94ED0E25EADD
:103D000030E0020F131F4091A4004150098F1A8F19
:103D10000CE010E050E00E94ED0E298D3A8D200F4E
:103D2000311F00914D01015010E0000F111F000FD5
:103D3000111FF801E20FF31FB1E0B08300914D01B4
:103D4000033031F000914D010F5F00934D017FCFA3
:103D5000B2E0B093A4002092A100B1E0B0934D0175
:103D6000022D015010E048E150E00E94ED0E25EADE
:103D700030E0020F131F045F1F4FF80133960081DC
:103D80004F923F922F92B4E53B2EB1E04B2E202E66
:103D90000E94D332B4E52B2EB1E03B2E0E94020FDD
:103DA0002F903F904F90902FA12FB0915301B26070
:103DB000B0935301B0916E00BD7FB0936E00B1E03F
:103DC000B0937300B1E04B1600E009F40FEF0D8FD4
:103DD0000091A100015010E048E150E00E94ED0E7A
:103DE0000B8F1C8F25EA30E0020F131F4091A400B7
:103DF0004150098F1A8F0CE010E050E00E94ED0E48
:103E0000298D3A8DA801420F531F20914D01215059
:103E1000722F80E0770F881F770F881F272F382F8A
:103E2000240F351FF9013196308120919E00321701
:103E300040E008F04FEF25EA30E05B8D6C8D250FF8
:103E4000361F200F311F270F381FF901329630819E
:103E50002091A000321720E008F02FEF422325EA3E
:103E600030E0250F361F020F131FE72FF82FE00F4A
:103E7000F11F00810030B0E009F0BFEF0B2F142FCD
:103E800010230D8D012B09F4DDC04F923F922F922C
:103E9000BAE84B2EB0E05B2E292E3A2E0E944A0340
:103EA000BAE84B2EB0E05B2E20909E00B0E03B2E97
:103EB0000E944A03BAE84B2EB0E05B2EB1E03B2EE5
:103EC000B2E02B2E0E94FE32FE01B1E3B193B0E2CC
:103ED000B193B3E6B193B8E6B193B3E6B193BBE661
:103EE000B193B5E6B193B4E6B193BAE3B193B0E060
:103EF000B1938E012801B1E03B2EB1E02B2E0E9440
:103F0000FE322F903F904F9025E11BE40FEB0A9576
:103F1000F1F71A95E1F72A95D1F7000000917300A7
:103F20000030B1F50091A100015010E048E150E0EF
:103F30000E94ED0E25EA30E0020F131F098F1A8F41
:103F40000CE010E04091A40050E00E94ED0E298D9D
:103F50003A8D200F311F00914D01015010E0000FEC
:103F6000111F000F111F020F131FF801339600815C
:103F70004F923F922F9240904D01BFEF3B2E202E4B
:103F80000E94250A2F903F904F90B1E0B0937300AC
:103F900025E01FE002EF0A95F1F71A95E1F72A955F
:103FA000D1F74F923F922F926624B5E05B2EB2E09C
:103FB0004B2EB0E32B2EB0E03B2E26DC2F903F9013
:103FC0004F90002391F0B0916E00B460B0936E00FA
:103FD000B0915301BD7FB0935301B0B3BF7BB0BB71
:103FE000B0915301BD7FB09353014F923F922F92F6
:103FF000B1E06B2EB5E05B2EB2E04B2EB0E32B2E82
:10400000B0E03B2E01DC2F903F904F9000906E006F
:10401000112702FC13950123A9F0B0915301BD7F34
:10402000B09353014F923F922F9240904D01BFEFBA
:104030003B2E22240E94250A2F903F904F90B0B330
:10404000BF7BB0BB4F923F922F9240904D01BFEF8C
:104050003B2E22240E94250A80905A01709058011C
:104060006090590150909F0044243324209089008F
:1040700006DCBFE98B2EB0E09B2EB0EA6B2EB0E0E1
:104080007B2EBEE94B2EB0E05B2EB9E82B2EB0E0C4
:104090003B2EB1E0BF93BAE5BF93B1E0BF93B8E563
:1040A000BF93B1E0BF93B9E5BF930E943430ADB781
:1040B000BEB71696ADBFBEBF2F903F904F90B09148
:1040C0006E00BB7FB0936E00B0E0B0937300B2E0BF
:1040D000B093A400B0B3BF7BB0BBB0916E00BB7F08
:1040E000B0936E00B0915301B260B0935301B091A0
:1040F0006E00BD7FB0936E00B0915301B1FFA2C2BC
:10410000B1E04B1600E009F40FEF0D8F0091A10014
:10411000015010E048E150E00E94ED0E0B8F1C8F23
:1041200025EA30E0020F131F4091A4004150098F8F
:104130001A8F0CE010E050E00E94ED0E298D3A8DB0
:10414000A801420F531F20914D012150722F80E092
:10415000770F881F770F881F272F382F240F351FC1
:10416000F9013196308120919E00321760E008F00D
:104170006FEF45EA50E02B8D3C8D240F351F020F69
:10418000131F070F181FF801329610810091A0002D
:10419000101700E008F00FEF162F10230D8D012BE4
:1041A00009F48BC14F923F922F92BAE84B2EB0E0A8
:1041B0005B2EB1E03B2EB1E02B2E0E94FE32FE01C1
:1041C000B9E6B193B3E7B193B0E2B193B1E4B1937F
:1041D000B3E4B193B4E5B193B9E4B193B6E5B19367
:1041E000B5E4B193BAE3B193B0E0B1938E01280185
:1041F000B8E03B2EB1E02B2E0E94FE32BAE84B2EE7
:10420000B0E05B2E2090A100B0E03B2E0E944A035C
:10421000FE01B0E5B193B2E7B193BFE6B193B7E663
:10422000B193B0E2B193BEE6B193B5E7B193BDE609
:10423000B193BAE3B193B0E0B1938E012801B1E03C
:104240003B2EB2E02B2E0E94FE32BAE84B2EB0E09D
:104250005B2EBAE03B2EB2E02B2E0E94FE3229E00C
:104260001EE105EE0A95F1F71A95E1F72A95D1F7C7
:104270000000FE01B8E4B193B5E6B193B1E6B193A5
:10428000B4E7B193B5E6B193B2E7B193B0E0B193BF
:104290008E0118010E9483122F903F904F902DE0C5
:1042A0001DE208ED0A95F1F71A95E1F72A95D1F785
:1042B00000000000009173000030B9F50091A100EA
:1042C000015010E048E150E00E94ED0E25EA30E098
:1042D000020F131F4091A4004150098F1A8F0CE068
:1042E00010E050E00E94ED0E298D3A8D200F311F15
:1042F00000914D01015010E0000F111F000F111F20
:10430000020F131FF801339600814F923F922F92B4
:1043100040904D01BFEF3B2E202E0E94250A2F908A
:104320003F904F90B1E0B09373000E94350DB1E023
:104330004B1609F03AC04F923F922F92B1E06B2E8C
:10434000B5E05B2EB3E04B2EB0E32B2EB0E03B2E5E
:104350005BDA2F903F904F90002331F1B0916E00C7
:10436000B460B0936E00B0915301BD7FB093530120
:104370004F923F922F9240904D01BFEF3B2E22244F
:104380000E94250A2F903F904F90B0B3BF7BB0BBE7
:104390004F923F922F92242C0E944919B1E02B2E6C
:1043A0002BD92F903F904F905CC04F923F922F920D
:1043B0006624B5E05B2EB2E04B2EB0E32B2EB0E0CE
:1043C0003B2E22DA2F903F904F900023E9F0B091DE
:1043D0006E00B460B0936E00B0915301BD7FB09396
:1043E0005301B0B3BF7BB0BB4F923F922F9240902E
:1043F0004D01BFEF3B2E22240E94250AB1E02B2E57
:10440000FBD82F903F904F904F923F922F92B1E068
:104410006B2EB5E05B2EB2E04B2EB0E32B2EB0E05E
:104420003B2EF2D92F903F904F9000906E001127B5
:1044300002FC13950123A9F0B0915301BD7FB09305
:1044400053014F923F922F9240904D01BFEF3B2E70
:1044500022240E94250A2F903F904F90B0B3BF7B3B
:10446000B0BB4F923F922F92BFE98B2EB0E09B2EB4
:10447000B0EA6B2EB0E07B2EBEE94B2EB0E05B2E97
:10448000B9E82B2EB0E03B2EB1E0BF93BAE5BF9365
:10449000B1E0BF93B8E5BF93B1E0BF93B9E5BF9377
:1044A0000E943430ADB7BEB71696ADBFBEBF2F90D9
:1044B0003F904F900E941712C4C0B0B3BF7BB0BBF7
:1044C0004F923F922F9240904D01BFEF3B2E2224FE
:1044D0000E94250AFE01B8E4B193B5E6B193B1E6B6
:1044E000B193B4E7B193B5E6B193B2E7B193B0E05D
:1044F000B1938E0118010E9483122AE711EC02E8A1
:104500000A95F1F71A95E1F72A95D1F70000000016
:1045100041DABAE84B2EB0E05B2E2090A100B0E06B
:104520003B2E0E944A03BAE84B2EB0E05B2EB1E06E
:104530003B2EB1E02B2E0E94FE32FE01B9E6B19374
:10454000B3E7B193B0E2B193BFE4B193B6E6B193F0
:10455000B6E6B193BAE3B193B0E0B1938E0128010E
:10456000B8E03B2EB1E02B2E0E94FE32FE01B0E5FA
:10457000B193B2E7B193BFE6B193B7E6B193B0E2BE
:10458000B193BEE6B193B5E7B193BDE6B193BAE39B
:10459000B193B0E0B1938E012801B1E03B2EB2E0BF
:1045A0002B2E0E94FE32BAE84B2EB0E05B2EBAE012
:1045B0003B2EB2E02B2E0E94FE322DE01DE208EDD4
:1045C0000A95F1F71A95E1F72A95D1F70000000056
:1045D000FE01BFE4B193B6E6B193B6E6B193B0E2A3
:1045E000B193B0E7B193B7E7B193BDE6B193B0E251
:1045F000B193B8E6B193B5E6B193B1E6B193B4E740
:10460000B193B5E6B193B2E7B193B0E2B193BDE631
:10461000B193BFE6B193B4E6B193B5E6B193B0E020
:10462000B1938E012801B1E03B2EB1E02B2E0E9408
:10463000FE322F903F904F90B0915301BD7FB093C9
:1046400053015ACDB0915301BD7FB0935301B2E0F5
:10465000B093A400B2E0B0934D01B0915301B260A9
:10466000B0935301B2E0B0937E00B0916E00B2609F
:10467000B0936E004F923F922F928CD9FE01B7E516
:10468000B193B1E6B193B4E7B193B9E6B193BEE6A5
:10469000B193B7E6B193B0E2B193B6E6B193BFE69A
:1046A000B193B2E7B193B0E2B193BAE3B193B0E0A2
:1046B000B1938E012801B1E03B2EB1E02B2E0E9478
:1046C000FE32FE01B0E5B193B2E7B193B5E6B19326
:1046D000B3E7B193B3E7B193B9E6B193BEE6B19353
:1046E000B7E6B193B0E2B193BDE4B193BFE6B19345
:1046F000B4E7B193BFE6B193B2E7B193B0E2B1933F
:10470000BDE6B193B9E6B193B3E6B193B2E7B19325
:10471000BFE6B193B0E2B193B3E5B193B7E5B1931E
:10472000B0E0B1938E012801B1E03B2EB2E02B2E18
:104730000E94FE322F903F904F9029E01EE105EE3F
:104740000A95F1F71A95E1F72A95D1F70000B09193
:104750006E00B2FF13C0B1E04B1659F4B0916E0079
:10476000B260B0936E00B0916E00BB7FB0936E00EC
:1047700005C0B0916E00BD7FB0936E00B0916E0029
:10478000B1FFB0C04F923F922F926624B5E05B2EEE
:10479000B2E04B2EB0E32B2EB0E03B2E35D82F905D
:1047A0003F904F900023A1F0B0916E00B460B093A1
:1047B0006E00B0916E00BD7FB0936E004F923F923D
:1047C0002F92B1E02B2E0E94FC1A2F903F904F9019
:1047D0004F923F922F92B1E06B2EB5E05B2EB2E08C
:1047E0004B2EB0E32B2EB0E03B2E0ED82F903F90F7
:1047F0004F9000906E00112702FC1395012329F0C1
:10480000B0916E00BD7FB0936E00FE01B7E5B1932D
:10481000B1E6B193B4E7B193B9E6B193BEE6B19313
:10482000B7E6B193B0E2B193B6E6B193BFE6B19308
:10483000B2E7B193B0E2B193BAE3B193B0E0B19310
:104840008E014F923F922F922801B1E03B2EB1E0B2
:104850002B2E0E94FE32FE01B0E5B193B2E7B19378
:10486000B5E6B193B3E7B193B3E7B193B9E6B193CA
:10487000BEE6B193B7E6B193B0E2B193BDE4B193B4
:10488000BFE6B193B4E7B193BFE6B193B2E7B1939A
:10489000B0E2B193BDE6B193B9E6B193B3E6B1939B
:1048A000B2E7B193BFE6B193B0E2B193B3E5B19390
:1048B000B7E5B193B0E0B1938E012801B1E03B2E92
:1048C000B2E02B2E0E94FE322F903F904F9029E0B5
:1048D0001EE105EE0A95F1F71A95E1F72A95D1F751
:1048E00000004CCFB0916E00B260B0936E00FE013C
:1048F000BDE6B193BFE6B193B4E7B193BFE6B19320
:10490000B2E7B193B0E2B193B2E7B193B5E7B19337
:10491000BEE6B193BEE6B193B9E6B193BEE6B193FC
:10492000B7E6B193B0E0B1938E014F923F922F92D0
:104930002801B9E03B2EB2E02B2E0E94FE32FE0190
:10494000B6E5B193B1E6B193BCE6B193B5E7B193E7
:10495000B5E6B193BAE3B193B0E2B193B0E0B193ED
:104960008E012801B1E03B2EB2E02B2E0E94FE32D8
:1049700025E01FE002EF0A95F1F71A95E1F72A9575
:10498000D1F7B0E68B2EB0E09B2EB4E66B2EB0E0F4
:104990007B2EB2E64B2EB0E05B2EBBE62B2EB0E0BA
:1049A0003B2EB0E0BF93B9E6BF93B0E0BF93B6E64D
:1049B000BF93B0E0BF93B1E6BF930E943430ADB770
:1049C000BEB71696ADBFBEBF2F903F904F90B1E0DF
:1049D000B09359012092A10000914D010130C9F41A
:1049E000EAE8F0E0B8E4B193B5E6B193B1E6B1938B
:1049F000B4E7B193B5E6B193B2E7B193B0E0B19348
:104A000000919E0000937F000091A00000937C0025
:104A10001AC000914D010230B1F4EAE8F0E0BDE4C3
:104A2000B193BFE6B193B4E7B193BFE6B193B2E7F8
:104A3000B193B0E0B19300919E0000937D0000918E
:104A4000A000009380004F923F922F9280905A01D5
:104A5000709058016090590150909F004424332475
:104A6000209089000E943F1CB0915301B260B09326
:104A70005301B0E0B0937300BFE98B2EB0E09B2EE2
:104A8000B0EA6B2EB0E07B2EBEE94B2EB0E05B2E81
:104A9000B9E82B2EB0E03B2EB1E0BF93BAE5BF934F
:104AA000B1E0BF93B8E5BF93B1E0BF93B9E5BF9361
:104AB0000E943430ADB7BEB71696ADBFBEBF2F90C3
:104AC0003F904F90B1E0B0936A00B0915301B26053
:104AD000B0935301B0915301B1FF7EC2B1E04B16C8
:104AE00000E009F40FEF0D8F0091A100015010E0DC
:104AF00048E150E00E94ED0E0B8F1C8F25EA30E05C
:104B0000020F131F4091A4004150098F1A8F0CE02F
:104B100010E050E00E94ED0E298D3A8DA801420F61
:104B2000531F20914D012150722F80E0770F881F75
:104B3000770F881F272F382F240F351FF901319643
:104B4000308120919E00321760E008F06FEF45EA57
:104B500050E02B8D3C8D240F351F020F131F070FC4
:104B6000181FF801329610810091A000101700E084
:104B700008F00FEF162F10230D8D012B09F46CC1D7
:104B80004F923F922F920E94CA1CBAE84B2EB0E07F
:104B90005B2EB1E03B2EB1E02B2E0E94FE32FE01D7
:104BA000B9E6B193B3E7B193B0E2B193B1E4B19395
:104BB000B3E4B193B4E5B193B9E4B193B6E5B1937D
:104BC000B5E4B193BAE3B193B0E0B1938E0128019B
:104BD000B8E03B2EB1E02B2E0E94FE32BAE84B2EFD
:104BE000B0E05B2E20908700B0E03B2E0E944A038D
:104BF000FE01B0E5B193B2E7B193BFE6B193B7E67A
:104C0000B193B0E2B193BEE6B193B5E7B193BDE61F
:104C1000B193BAE3B193B0E0B1938E012801B1E052
:104C20003B2EB2E02B2E0E94FE32BAE84B2EB0E0B3
:104C30005B2EBAE03B2EB2E02B2E0E94FE3229E022
:104C40001EE105EE0A95F1F71A95E1F72A95D1F7DD
:104C50000000FE01BDE4B193BFE6B193B4E7B193A8
:104C6000BFE6B193B2E7B193B0E0B1938E01180102
:104C70000E9483122DE01DE208ED0A95F1F71A95C6
:104C8000E1F72A95D1F700000000BAE84B2EB0E01A
:104C90005B2E2090A100B0E03B2E0E944A030091C1
:104CA000A100015010E048E150E00E94ED0E25EA1D
:104CB00030E0020F131F4091A4004150098F1A8F5A
:104CC0000CE010E050E00E94ED0E298D3A8D200F8F
:104CD000311F00914D01015010E0000F111F000F16
:104CE000111F020F131FF801339600814AE00E9442
:104CF000EF1B10E0212F312F0E94450318012901DD
:104D00000E94DC022F903F904F900E949C010091E6
:104D100073000030B9F50091A100015010E048E1A6
:104D200050E00E94ED0E25EA30E0020F131F409183
:104D3000A4004150098F1A8F0CE010E050E00E944F
:104D4000ED0E298D3A8D200F311F00914D0101503C
:104D500010E0000F111F000F111F020F131FF801A9
:104D6000339600814F923F922F9240904D01BFEFBA
:104D70003B2E202E0E94250A2F903F904F90B1E0AD
:104D8000B09373004F923F922F92BFE98B2EB0E009
:104D90009B2EB0EA6B2EB0E07B2EBEE94B2EB0E02E
:104DA0005B2EB9E82B2EB0E03B2EB1E0BF93BAE505
:104DB000BF93B1E0BF93B8E5BF93B1E0BF93B9E54E
:104DC000BF930E943430ADB7BEB71696ADBFBEBF1D
:104DD0002F903F904F900E941712B1E04B16D9F5DB
:104DE0004F923F922F92B1E06B2EB5E05B2EB2E076
:104DF0004B2EB0E32B2EB0E03B2E0E94041C2F90D4
:104E00003F904F90002339F1B0916E00B460B093A1
:104E10006E00B0915301BD7FB0935301B0B3BF7B1F
:104E2000B0BB4F923F922F9240904D01BFEF3B2E6F
:104E300022240E94250A2F903F904F904F923F923C
:104E40002F92242C0E944919B1E02B2E0E94FC1AAB
:104E50002F903F904F90BFC04F923F922F92409023
:104E60004D01BFEF3B2E22240E94250AFE01BDE426
:104E7000B193BFE6B193B4E7B193BFE6B193B2E7A4
:104E8000B193B0E0B1938E0118010E94831222E524
:104E90001BE200E00A95F1F71A95E1F72A95D1F7A0
:104EA00000000000000000000E94CA1CBAE84B2E5F
:104EB000B0E05B2EB1E03B2EB1E02B2E0E94FE3223
:104EC000FE01B9E6B193B3E7B193B0E2B193BFE4A9
:104ED000B193B6E6B193B6E6B193BAE3B193B0E05D
:104EE000B1938E012801B8E03B2EB1E02B2E0E9439
:104EF000FE32FE01B0E5B193B2E7B193BFE6B193E4
:104F0000B7E6B193B0E2B193BEE6B193B5E7B19322
:104F1000BDE6B193BAE3B193B0E0B1938E0128013D
:104F2000B1E03B2EB2E02B2E0E94FE32BAE84B2EAF
:104F3000B0E05B2EBAE03B2EB2E02B2E0E94FE3298
:104F400029E01EE105EE0A95F1F71A95E1F72A9599
:104F5000D1F70000FE01BFE4B193B6E6B193B6E627
:104F6000B193B0E2B193B0E7B193B7E7B193BDE6C7
:104F7000B193B0E2B193BDE4B193BFE6B193B4E7AE
:104F8000B193BFE6B193B2E7B193B0E2B193BDE69E
:104F9000B193BFE6B193B4E6B193B5E6B193B0E097
:104FA000B1938E012801B1E03B2EB1E02B2E0E947F
:104FB000FE32BAE84B2EB0E05B2E2090A100B0E0AC
:104FC0003B2E0E944A032F903F904F90B091530187
:104FD000BD7FB09353017ECD00916A00013031F066
:104FE00000916A000F5F00936A006FCD4F923F926D
:104FF0002F92BFE98B2EB0E09B2EB0EA6B2EB0E073
:105000007B2EBEE94B2EB0E05B2EB9E82B2EB0E034
:105010003B2EB1E0BF93BAE5BF93B1E0BF93B8E5D3
:10502000BF93B1E0BF93B9E5BF930E943430ADB7F1
:10503000BEB71696ADBFBEBFB0915301BD7FB09352
:105040005301B0E68B2EB0E09B2EB1E86B2EB0E0A2
:105050007B2EB8E84B2EB0E05B2EBBE62B2EB0E0EB
:105060003B2EB0E0BF93B9E6BF93B0E0BF93B6E686
:10507000BF93B0E0BF93B1E6BF93F6D7ADB7BEB76D
:105080001696ADBFBEBF1091670000918800212F1A
:10509000200F1091680000918100010F809069003D
:1050A000709066006090610050906000402E322E3B
:1050B00020906B000E943F1C0E94CA1CBAE84B2E35
:1050C000B0E05B2E20908100B0E03B2E0E944A03AE
:1050D000FE01B3E5B193B5E6B193B3E6B193B0E2A7
:1050E000B193B5E6B193BEE6B193B4E6B193B5E63C
:1050F000B193B4E6B193B0E2B193B9E6B193B3E73B
:10510000B193B0E2B193BAE3B193B0E0B1938E0141
:105110002801B1E03B2EB1E02B2E0E94FE32BAE80E
:105120004B2EB0E05B2EBAE03B2EB1E02B2E0E945E
:10513000FE32BAE84B2EB0E05B2E20908800B0E043
:105140003B2E0E944A03FE01BDE4B193B9E6B19340
:10515000BEE6B193B0E2B193B5E6B193BEE6B193CA
:10516000B4E6B193B5E6B193B4E6B193B0E2B193CE
:10517000B9E6B193B3E7B193B0E2B193BAE3B193B7
:10518000B0E0B1938E012801B1E03B2EB2E02B2EAE
:105190000E94FE32BAE84B2EB0E05B2EBAE03B2E06
:1051A000B2E02B2E0E94FE322F903F904F9029E0CC
:1051B0001EE105EE0A95F1F71A95E1F72A95D1F768
:1051C00000009F908F907F906F905F906D96CDBF05
:1051D000DEBFDF91CF910895CF93DF93CDB7DEB7D8
:1051E000A097CDBFDEBF21963F924F925F926F9204
:1051F0007F928F929F92B3E0B0934E01B1E0B09353
:10520000A400B3E0B0934D012092A100FE013896B6
:10521000BCE3B193B5E4B193B8E7B193BEE3B19306
:10522000B0E0B193AE01485F5F4FFE013D96B3E53C
:10523000B193B5E6B193B4E7B193BEE6B193B7E6E7
:10524000B193B0E0B1939E01235F3F4FFE0173968F
:10525000B0E5B193B2E7B193BFE6B193B7E6B193CE
:10526000B0E0B1938E010D5E1F4F2F924A013901BC
:10527000280130904E01B1E02B2E0E94B10F77240F
:1052800060904E01B1E05B2E40904E01B2E02B2EBB
:10529000B0E03B2E0E948F132F900883B0915301F2
:1052A000B160B0935301B0915301B0FFC0C6088103
:1052B000013009F081C0B7E0B0934E01B0915301C5
:1052C000BE7FB0935301B2E0B093A400B3E0B093BB
:1052D0004D012092A1002F92B7E03B2EB1E02B2E82
:1052E0000E94660B2F902F92B4E53B2EB1E04B2E1F
:1052F0000E94D3320E94CA1CFE013896B0E5B193D9
:10530000B2E7B193BFE6B193B7E6B193B0E2B19320
:10531000B9E6B193B3E7B193BAE3B193B0E0B19317
:105320008E01085F1F4F2801B1E03B2EB1E02B2E0C
:105330000E94FE32B4E54B2EB1E05B2EB1E03B2E75
:10534000B2E02B2E0E94FE322F9022E51BE200E0FD
:105350000A95F1F71A95E1F72A95D1F700000000B8
:10536000000000002F92772460904E01B1E05B2E88
:1053700040904E01B0E03B2E0E948F130A830091B3
:10538000A400015010E04CE050E00E94ED0E25E337
:1053900031E0200F311F00914D01015010E0000F4E
:1053A000111F000F111FF801E20FF31F0A81008384
:1053B0000E9453342F903AC60881023009F0B8C5D4
:1053C000B3E0B0934E01B0915301BE7FB09353014F
:1053D000B2E0B093A400B3E0B0934D012092A100DD
:1053E000FE013896BCE3B193B5E4B193B8E7B1934D
:1053F000BEE3B193B0E0B193AE01485F5F4FFE01F1
:105400003D96BDE4B193B1E6B193BEE6B193B5E785
:10541000B193BCE6B193B0E0B1939E01235F3F4FDF
:10542000FE017396B1E4B193B5E7B193B4E7B193DC
:10543000BFE6B193B0E0B1938E010D5E1F4F2F9286
:105440004A013901280130904E01B1E02B2E0E9413
:10545000B10F772460904E01B1E05B2E40904E0179
:10546000B2E02B2EB0E03B2E0E948F132F900983C9
:10547000B0915301B260B0935301B0915301B1FFA9
:105480000FC50981013009F080C1B7E0B0934E012A
:10549000B0915301BD7FB0935301B2E0B093A4002B
:1054A000B3E0B0934D012092A1002F92B7E03B2EC4
:1054B000B1E02B2E0E94660B2F902F9277246090E4
:1054C0004E01B1E05B2E40904E01B0E03B2E0E94B9
:1054D0008F130A830091A400015010E04CE050E0CB
:1054E0000E94ED0E25E331E0200F311F00914D01A8
:1054F000015010E0000F111F000F111FF801E20F03
:10550000F31F0A810083B2E0B093A400B2E0B0932D
:105510004D010A810093A100B0E5B887B7E5B987CE
:10552000B2E5BA87B0E0BB879E01285F3F4FFE011E
:105530003C96BDE4B193BFE6B193B4E7B193BFE647
:10554000B193B2E7B193B0E0B1938E01045F1F4F06
:105550003901280130904E01B1E02B2E0E94420DFE
:105560000091A100015010E048E150E00E94ED0ED2
:1055700025EA30E0020F131F4091A40041500E8F26
:105580001F8F0CE010E050E00E94ED0E2E8D3F8D3D
:10559000200F311F00914D01015010E0000F111F2D
:1055A000000F111F020F131FF8013396008110E046
:1055B000772460904E01B1E05B2EB4E64B2E1801CB
:1055C0000E948F130F830091A100015010E048E169
:1055D00050E00E94ED0E25EA30E0020F131F4091CB
:1055E000A40041500E8F1F8F0CE010E050E00E948D
:1055F000ED0E2E8D3F8D200F311F00914D0101507A
:1056000010E0000F111F000F111F020F131FF801F0
:1056100033960F8100830E94CA1CFE013896B0E5C4
:10562000B193BCE6B193B3E7B193B0E2B193B4E404
:10563000B193BFE6B193B0E2B193BEE6B193BFE6DA
:10564000B193B2E7B193BDE6B193B1E6B193BCE6D5
:10565000B193B0E2B193B7E5B193BFE6B193B0E0D7
:10566000B1938E01085F1F4F2801B1E03B2EB1E0DE
:105670002B2EC4D7FE013896B2E7B193BBE6B193A7
:10568000B0E2B193B7E7B193B5E6B193B0E2B193AD
:10569000B3E7B193B1E6B193B6E7B193B5E6B19391
:1056A000B0E2B193B4E7B193B9E6B193BDE6B1937B
:1056B000B5E6B193B3E7B193B1E2B193B1E2B1937F
:1056C000B1E2B193B0E0B1938E01085F1F4F2801A2
:1056D000B1E03B2EB2E02B2E91D729E01EE105EE82
:1056E0000A95F1F71A95E1F72A95D1F70000B1E094
:1056F0004B2E33242A800E94D71C0E94CA1CFE0114
:105700003896B3E5B193B1E6B193B6E7B193B9E694
:10571000B193BEE6B193B7E6B193B0E2B193B9E607
:10572000B193BEE6B193B0E0B1938E01085F1F4F15
:105730002801B1E03B2EB1E02B2E60D7FE01389658
:10574000B5E4B193B5E4B193B0E5B193B2E5B193EB
:10575000BFE4B193BDE4B193B0E0B1938E01085FB3
:105760001F4F2801B1E03B2EB2E02B2E47D729E096
:105770001EE105EE0A95F1F71A95E1F72A95D1F7A2
:1057800000000E9453342F908AC30981023009F02F
:1057900008C3B7E0B0934E012F92B7E03B2EB1E0C3
:1057A0002B2E0E94660B2F902F92772460904E0133
:1057B000B1E05B2E40904E01B0E03B2E0E948F1373
:1057C0002F900A83B2E0B093A400B3E0B0934D01F0
:1057D0002092A1002CE030E005E311E0020F131F3E
:1057E000F80138960A810083B2E0B0934E01B2E02E
:1057F000B093A400B1E0B0934D010A810093A100E1
:10580000BDE4B887B9E6B987BEE6BA87B0E0BB8722
:105810009E01285F3F4FFE013C96B8E4B193B5E688
:10582000B193B1E6B193B4E7B193B5E6B193B2E702
:10583000B193B0E0B1938E01045F1F4F2F923901F5
:10584000280130904E01B1E02B2E0E94420D0091B4
:10585000A100015010E048E150E00E94ED0E25EA61
:1058600030E0020F131F4091A40041500E8F1F8F94
:105870000CE010E050E00E94ED0E2E8D3F8D200FC9
:10588000311F00914D01015010E0000F111F000F5A
:10589000111F020F131FF8013196008110E07724C9
:1058A00060904E015524BBE34B2E18010E948F13CC
:1058B0000B83B3E5B887B5E6B987B3E6BA87B0E03E
:1058C000BB879E01285F3F4FFE013C96B8E4B19331
:1058D000B5E6B193B1E6B193B4E7B193B5E6B19350
:1058E000B2E7B193B0E0B1938E01045F1F4F39016D
:1058F000280130904E01B1E02B2E0E94420D009104
:10590000A100015010E048E150E00E94ED0E25EAB0
:1059100030E0020F131F4091A40041500E8F1F8FE3
:105920000CE010E050E00E94ED0E2E8D3F8D200F18
:10593000311F00914D01015010E0000F111F000FA9
:10594000111F020F131FF8013296008110E0772417
:1059500060904E015524BBE34B2E18010E948F131B
:105960000C830091A100015010E048E150E00E943A
:10597000ED0E25EA30E0020F131F4091A4004150C4
:105980000E8F1F8F0CE010E050E00E94ED0E2E8D68
:105990003F8D200F311F00914D01015010E0000F8D
:1059A000111F000F111F020F131FF80131960B81F9
:1059B00000830091A100015010E048E150E00E94F6
:1059C000ED0E25EA30E0020F131F4091A400415074
:1059D0000E8F1F8F0CE010E050E00E94ED0E2E8D18
:1059E0003F8D200F311F00914D01015010E0000F3D
:1059F000111F000F111F020F131FF80132960C81A7
:105A00000083B2E0B093A400B2E0B0934D010981ED
:105A10000093A100BDE4B887B9E6B987BEE6BA87AE
:105A2000B0E0BB879E01285F3F4FFE013C96BDE47E
:105A3000B193BFE6B193B4E7B193BFE6B193B2E7D8
:105A4000B193B0E0B1938E01045F1F4F390128017B
:105A500030904E01B1E02B2E0E94420D0091A1002A
:105A6000015010E048E150E00E94ED0E25EA30E0E0
:105A7000020F131F4091A40041500E8F1F8F0CE0A6
:105A800010E050E00E94ED0E2E8D3F8D200F311F53
:105A900000914D01015010E0000F111F000F111F68
:105AA000020F131FF8013196008110E077246090F7
:105AB0004E015524BBE34B2E18010E948F130D831A
:105AC000B3E5B887B5E6B987B3E6BA87B0E0BB8778
:105AD0009E01285F3F4FFE013C96BDE4B193BFE6B7
