:100000000C9438270C94AD250C9400000C94C32656
:100010000C9494250C9400000C9400000C940000A7
:100020000C9400000C9400000C9400000C94172910
:100030000C9400000C9400000C9400000C94000040
:100040000C9400000C9400000C9400000C94000030
:100050000C94000001D121F0662309F012D198948C
:100060000895F8DF09F441C0E62ED52EC42EB32E34
:10007000A22E912E802E002D112D222D332DEADF60
:1000800009F43DC0842F952F8C199D09B9F072F4A5
:100090009095809501964C2D5D2D883180F5359594
:1000A0002795179507950197D1F708C08831E8F48F
:1000B000B594A794979487940197D1F766272EF06B
:1000C000080D191D2A1D3B1D09C0801A910AA20A9C
:1000D000B30A082D192D2A2D3B2D332312F4D1D02C
:1000E00060E82FD001C018D016C0002D112D222D90
:1000F000332DD6F71ED0C1F340E83427F5CF082DB5
:10010000192D2A2D3B2D4C2D5D2D6E2D33235AF7A5
:10011000B8D060E8E8CF08950CD039F041585F4F6F
:10012000342F220F36952795362B0895689499DF42
:100130000895002329F4112319F4222309F4332309
:100140000895F7DF11F19F938F938EE790E03323AB
:1001500051F0369527951795079548175907B4F428
:100160004F5F5F4FF4CF80959095019622239AF0D0
:10017000000F111F221F481759071CF04150504013
:10018000F5CF002711272227332708C033270FEF89
:10019000102F2FE7322F8F919F91BEDF0895C6DF7A
:1001A000332332F0C6DF11F001E003C0002701C0A5
:1001B0000FEF089551D081F1E62ED52EC42EB32E27
:1001C000A22E912E802E002D112D222D332D44D0C4
:1001D00019F16E254C0D5D1D40385307F4F441387C
:1001E0007FEF5707FCF088279927AA27BB2770E2E3
:1001F000B695A79597958795379527951795079560
:1002000020F4880D991DAA1DBB1D7A9589F7032F2F
:100210003A2F292F182F95DF0AC00FEF102F2FE745
:100220003FE7FACF0027102F202F302FF5CF08956A
:1002300047E16627552726F0332312F422D060E8E1
:1002400080DF0895E8940DDF0895042E152E262EE4
:10025000372EA5DF002308956CDF79F0632F6078D7
:10026000220F331F432F5FE7451B5527504026952C
:1002700030E8232B3327989403C04427552766275B
:10028000089500951095209530950F5F1F4F2F4FC3
:100290003F4F0895CF93DF93CDB7DEB72397CDBF00
:1002A000DEBF2196B0E85B1641F4B0E04B1629F4AE
:1002B000B0E03B1611F4B0E02B16D1F4F301BDE22F
:1002C000B193B2E3B193B1E3B193B4E3B193B7E3C4
:1002D000B193B4E3B193B8E3B193B3E3B193B6E3AD
:1002E000B193B4E3B193B8E3B193B0E0B1937BC001
:1002F000B0E0BA8300E010E020E030E020163106E4
:100300004206530664F4BFEFBA8300E010E020E039
:1003100030E0021913092409350918012901F301F4
:10032000B0E2B193B0E2B193B0E2B193B0E2B19375
:10033000B0E2B193B0E2B193B0E2B193B0E2B19365
:10034000B0E2B193B0E2B193B0E3B193B0E0B19356
:100350008301065F1F4F08831983B0E05B1641F4E9
:10036000B0E04B1629F4B0E03B1611F4B0E02B16C8
:1003700099F17F926F925F924F923F922F924AE053
:1003800050E060E070E081019201CCD28B019C01D1
:100390002F903F904F905F90005DE881F98100833E
:1003A0005F924F923F922F924AE050E060E070E0FF
:1003B00081019201B7D289019A012F903F904F900D
:1003C0005F906F907F901801290108811981015079
:1003D000104008831983C1CF0A81002321F0E881EE
:1003E000F981BDE2B0832296CDBFDEBFDF91CF9110
:1003F0000895002E112E222E332E042F152F262F76
:10040000372FCDDE00231CF00024039401C000240C
:100410000895042E152E262E372E14DF002E112EB1
:10042000222E332E0895E89403DF089515DFF1F0AE
:100430005523C2F04F31A8F44731C1F050F4419533
:10044000495E05C035952795179507954A95D1F7CB
:100450000DC04751000F111F221F331F4A95D1F7BE
:1004600005C03FE7232F132F032F03C0662309F096
:1004700008DF0895C801BA0197FB092E07260AD0A4
:1004800077FD04D00CD006D000201AF47095619549
:100490007F4F0895F6F7909581959F4F0895AA1B79
:1004A000BB1B51E107C0AA1FBB1FA617B70710F05F
:1004B000A61BB70B881F991F5A95A9F78095909591
:1004C000BC01CD0108950895C0DE1CF400240394FE
:1004D00001C0002408959801249F8001259F100DDC
:1004E000349F100D0895042E152E262E372E1EDE55
:1004F000002E112E222E332E0895042E152E262E78
:10050000372E58DE002E112E222E332E08953F93C3
:100510002F931F930F93002D112D222D332D9CDE31
:1005200009F44BC0E62ED52EC42EB32EA22E912E4A
:10053000802E0F911F912F913F918EDE61F16E25DC
:100540004C195D09403853073CF541387FEF570798
:100550007CF180E27724632E522E412E302F222709
:1005600011270027000F111F221F331F441C551C89
:10057000661C771C28F0481859086A087B0804C0D4
:10058000480C591C6A1C7B1C0AF001608A9551F7C3
:1005900041505040D6DD16C00FEF102F2FE73FE738
:1005A0006623C9F3C6DDB9F3342D30E83425F3CF23
:1005B0000027102F202F302FEECF0F900F900F908D
:1005C0000F90EACF08952CBE0895B0E0B9BD28BCC5
:1005D0000895049FD001159FF001249FE00DF11DA7
:1005E000069FE00DF11D349FF00D259FF00D169F25
:1005F000F00D079FF00D3327149FB00DE11DF31F81
:10060000059FB00DE11DF31F8D019F010895042E7C
:10061000152E262E372E7BDF002E112E222E332E66
:10062000089502E00A95F1F70000000008951AE32A
:1006300003E20A95F1F71A95E1F70000000008952A
:10064000B1E14B1619F43BBC2ABC06C0B2E14B1613
:1006500019F439BC28BC00C00895CF93DF93CDB7FF
:10066000DEB7A197CDBFDEBF2196B0E0BE8F81017E
:100670009201DCDE088319832A833B835F924F92C9
:100680003F922F9240E050E060E070E081019201E3
:100690001BDF002800E009F00FEF2F903F904F90F4
:1006A0005F90002311F0BFEFBE8F8E010A5F1F4FD6
:1006B0007F926F925F924F923F922F9238012880E3
:1006C00039804A805B80E6DD2F903F904F905F90AD
:1006D0006F907F90088119812A813B81A4DE5F920F
:1006E0004F923F922F92A801B90181019201FBDE46
:1006F00040E050E563EC77E400DF2F903F904F90AF
:100700005F9094DE088319832A833B8340E050E0A6
:1007100060E070E0041715072607370784F40880A7
:10072000198000E010E0001911090A801B8020E008
:1007300030E020093109088319832A833B838E0125
:100740000E5E1F4F7F926F925F924F923F922F9259
:100750003801288039804A805B809CDD2F903F9053
:100760004F905F906F907F9040E050E0B0E0BC838E
:10077000BD83F301B0E2B193B0E2B193B0E2B193C3
:10078000B0E2B193B0E2B193B0E2B193B0E2B19311
:10079000B0E2B193B0E2B193B0E2B193B0E3B19300
:1007A000B0E0B1935F934F93810192013FDE30300F
:1007B00029F4203019F4103009F40030B0E009F4C5
:1007C000BFEF0B2F08A340E050E060E070E0810134
:1007D00092017ADE002800E009F00FEF4F915F915F
:1007E00018A10123002341F0F301BDE2B08311E021
:1007F00020E0412F522F00C02E81203281F40C8145
:100800001D8198012F5F3F4F2C833D838E010A5F2E
:100810001F4FF901E00FF11F0081202FEECF022FB3
:100820000030D1F0FA01E60DF71D00830C811D8127
:1008300098012F5F3F4F2C833D838A010F5F1F4F2D
:10084000B8018E010A5F1F4FF901E00FF11F00810F
:10085000202F022FAB01E4CF0E8D003010E009F401
:100860001FEF503009F4403000E009F40FEF01238E
:1008700051F0FA01E60DF71DB0E3B0838A010F5F76
:100880001F4F980101C09A01303009F4213010E067
:1008900009F41FEF0E8D012359F0F901E60DF71D44
:1008A000B0E3B08389010F5F1F4FA8019A0100C018
:1008B000F901E60DF71DBEE2B08389010F5F1F4FFE
:1008C000A801B6E0BC83B0E0BD83288D2030F9F0EC
:1008D000203219F420E3022F01C0022FFA01E60DA5
:1008E000F71D00830C811D8198012F5F3F4F2C83E2
:1008F0003D838A010F5F1F4FB8018E010E5E1F4FAF
:10090000F901E00FF11F0081AB01202FDFCFFA01C9
:10091000E60DF71DB0E0B083A096CDBFDEBFDF913E
:10092000CF910895C9019A01AB01B80197FB092E37
:1009300005260ED057FD04D014D00AD0001C38F480
:1009400050954095309521953F4F4F4F5F4F0895FB
:10095000F6F790958095709561957F4F8F4F9F4FDB
:100960000895A1E21A2EAA1BBB1BFD010DC0AA1FF0
:10097000BB1FEE1FFF1FA217B307E407F50720F008
:10098000A21BB30BE40BF50B661F771F881F991F83
:100990001A9469F760957095809590959B01AC01CC
:1009A000BD01CF010895B0E0BBBD2ABC089523BCB2
:1009B000089523BC0895B0913400B260B093340020
:1009C00030DE2FDEB0913400BE7FB0933400B091A2
:1009D0006100BB7FB0936100B0913300B0FD06C0F1
:1009E000B0916100B2FF01C001C0F6CF1ADE19DE7E
:1009F00018DE17DE16DE15DE14DE13DEB0913400CD
:100A0000BD7FB09334000DDE0CDE08950091CD0063
:100A10000077102F16951695169516950AE0109FDB
:100A2000102D0091CD000F70010F0093CD000091AB
:100A3000CB00007F102F16951695169516950AE097
:100A4000109F102D0091CB000F70010F0093CB0071
:100A50000091CC000073102F1695169516951695DB
:100A60000AE0109F102D0091CC000F70010F009331
:100A7000CC000091D20007700093D2000091DA0000
:100A8000007F102F16951695169516950AE0109F63
:100A9000102D0091DA000F70010F0093DA00009121
:100AA000DB000071102F16951695169516950AE025
:100AB000109F102D0091DB000F70010F0093DB00E1
:100AC0000091D900007F102F169516951695169552
:100AD0000AE0109F102D0091D9000F70010F0093B4
:100AE000D9000895B0913400BD7FB093340099DDF2
:100AF00098DDB0913400BE7FB093340092DD91DD7B
:100B0000B0913400B260B09334008BDD8ADDB091D7
:100B10003400B160B09334000895CF93DF93CDB724
:100B2000DEB72397CDBFDEBF2196B1E0B883B0E832
:100B3000B983B0E0BA8309811A81103009F400301A
:100B400009F43BC06EDD6DDD6CDD6BDDB091340012
:100B5000B160B093340065DD64DD09811A81022142
:100B60001070103009F4003031F0B0913400BD7FC6
:100B7000B093340005C0B0913400B260B09334003B
:100B800050DD4FDDB0913400BE7FB0933400B091A2
:100B90006100BB7FB0936100B0913300B0FD06C02F
:100BA000B0916100B2FF01C001C0F6CF09811A8186
:100BB0001695079509831A83BECFB0E0B88331DD5F
:100BC00030DDB0913400B160B09334002ADD29DD0E
:100BD000B0913400BD7FB093340023DD22DD21DDF0
:100BE00020DDB0913400BE7FB0933400B09161003D
:100BF000BB7FB0936100B0913300B0FD06C0B091EF
:100C00006100B2FF01C001C0F6CFB0E0B88309DDDA
:100C100008DDB0913300B1FF03C008810160088393
:100C200000DDFFDCFEDCFDDCFCDCFBDCFADCF9DCFF
:100C3000F8DCF7DCF6DCF5DCF4DCF3DCF2DCF1DC30
:100C4000B0913400B160B0933400B0913400B26020
:100C5000B093340008812296CDBFDEBFDF91CF91E3
:100C60000895BB27AA279927882700FF04C0840F6F
:100C7000951FA61FB71F440F551F661F771F369578
:100C800027951795079589F730502040100769F789
:100C90009D018C0108952F92B1E02B1619F4B0E854
:100CA0002B2E14C0B2E02B1619F4B0EC2B2E0EC074
:100CB000B3E02B1619F4B4E92B2E08C0B4E02B16C0
:100CC00019F4B4ED2B2E02C0B0E82B2E032D0150E9
:100CD000020D202EB0916100B860B0936100202E0B
:100CE000A6D4B0916100B77FB0936100242C9FD44B
:100CF000B0916100B860B09361002F900895CF93D8
:100D0000DF93CDB7DEB72397CDBFDEBF2196B0E02E
:100D1000B883B0E8B983B0E0BA8309811A81103092
:100D200009F4003009F433C07CDC7BDCB091340082
:100D3000BD7FB093340075DC74DCB0913400BE7FAD
:100D4000B0933400B0916100BB7FB0936100B0916B
:100D50003300B0FD06C0B0916100B2FF01C001C018
:100D6000F6CFB0913300B1FF04C018810981012B87
:100D7000088357DC56DCB0913400B160B093340086
:100D800009811A811695079509831A83C6CFB091F8
:100D90003400BD7FB093340044DC43DCB0E03B164C
:100DA00011F4B0E02B1629F0B0913400B260B0938A
:100DB000340037DC36DCB0913400BE7FB0933400B1
:100DC000B0916100BB7FB0936100B0913300B0FD82
:100DD00006C0B0916100B2FF01C001C0F6CF21DCB6
:100DE00020DCB0913400B160B09334001ADC19DC1F
:100DF000B0913400B260B093340008812296CDBF28
:100E0000DEBFDF91CF910895C801BA01AA1BBB1BB9
:100E100051E107C0AA1FBB1FA617B70710F0A61BFA
:100E2000B70B881F991F5A95A9F78095909508953B
:100E3000BFE1B0930501BCE1B0930601BFE1B093FF
:100E40000701BEE1B0930801BFE1B0930901BEE123
:100E5000B0930A01BFE1B0930B01BFE1B0930C0165
:100E6000BEE1B0930D01BFE1B0930E01BEE1B093BE
:100E70000F01BFE1B0931001BDE6B0931501B1E0E1
:100E8000B0931601B0E0B0931301B093140144E0A5
:100E900050E00091390110913A01ECDA8C01009395
:100EA00030011093310144E650E000913901109176
:100EB0003A01E0DA8C0100933B0110933C0140E9D8
:100EC00051E00091390110913A01D4DA8C0100937C
:100ED0003F01109340014091300150913101209128
:100EE0003B0130913C012423352320933D01309375
:100EF0003E01303009F42030B0E009F0BFEF2B2F75
:100F0000103009F40030B0E009F4BFEF0B2F022BD2
:100F100021F0BCE1B093060103C0BDE1B09306012E
:100F20000091390110913A010150104000933701AE
:100F30001093380144E050E09DDA8C0100933001B9
:100F40001093310144E650E00091370110913801CF
:100F500091DA8C0100933B0110933C0140E951E090
:100F6000009137011091380185DA8C0100933F011F
:100F700010934001409130015091310120913B018B
:100F800030913C012423352320933D0130933E01D1
:100F9000303009F42030B0E009F0BFEF2B2F1030D3
:100FA00009F40030B0E009F4BFEF0B2F022B31F051
:100FB000B0916100BF77B093610005C0B09161004E
:100FC000B068B09361000091350110913601015075
:100FD00010400093300110933101B1E0B093320121
:100FE0002091320100913001109131010217B0E0DF
:100FF0001B072CF120913201215005E011E0E22F76
:10100000F0E0E00FF11F2081009113011091140115
:10101000020FB0E01B1F0093130110931401009105
:101020003201209130013091310110E00217130795
:1010300031F0009132010F5F00933201D1CF209146
:101040003301309134010091130110911401200FEC
:10105000311F20931301309314010FE410E00217A5
:1010600013070CF0A6C020911301309114012F54E6
:1010700030402093300130933101009139011091BB
:101080003A010D56124000930301109304010AEB3C
:1010900010E0201731070CF042C04FE150E0009102
:1010A000300110913101E6D98C0100933B0110937E
:1010B0003C014FE150E00091300110913101DAD94B
:1010C0008B0100933F011093400100913B0110916F
:1010D0003C01103009F4003079F400913F01109187
:1010E00040010093CE001093CF00BFE1B093D00039
:1010F000B0E0B093D10012C000913F0110914001C7
:101100000F5F1F4F0093CE001093CF0000913B0163
:1011100010913C010093D0001093D10049C0009180
:101120003001109131010A5B104000933B01109394
:101130003C014EE150E09ED98C0100933F01109399
:1011400040014EE150E000913B0110913C0192D9E9
:101150008B0100933D0110933E0100913F011091DE
:101160004001103009F4003089F400913D011091E4
:101170003E010A5F1F4F0093CE001093CF00BEE1E7
:10118000B093D000B0E0B093D10012C000913D0107
:1011900010913E01095F1F4F0093CE001093CF00C6
:1011A00000913F01109140010093D0001093D100B5
:1011B0006CC00091390110913A010E561240009313
:1011C000030110930401B0916100B7FF0BC00091BF
:1011D000130110911401055F1F4F00931301109329
:1011E00014010AC00091130110911401065F1F4FF2
:1011F00000931301109314014EE150E0009113018C
:101200001091140137D98C0100933B0110933C01DC
:101210004EE150E000911301109114012BD98B0184
:1012200000933F011093400100913B0110913C015C
:10123000103009F4003089F400913F011091400111
:10124000075F1F4F0093CE001093CF00BEE1B09315
:10125000D000B0E0B093D10012C000913F011091D6
:101260004001065F1F4F0093CE001093CF00009106
:101270003B0110913C010093D0001093D1001BE082
:1012800003E60A95F1F71A95E1F70895992779E0B1
:1012900004C0991F941708F0941B001F7A95C9F792
:1012A00000950895CF93DF93CDB7DEB76497CDBF98
:1012B000DEBF2196BEE1B887BFE1B987BEE1BA873C
:1012C000BFE1BB87BFE1BC87BEE1BD87BFE1BE8791
:1012D000BEE1BF87BFE1B88BBFE1B98BBCE1BA8B80
:1012E000BFE1BB8B830103591D4F0A831B83088316
:1012F00019835F924F923F922F9244E050E0BAD808
:101300008C01009330011093310144E650E00881D4
:101310001981B0D88C0100933B0110933C0140E946
:1013200051E008811981A6D88C012F903F904F90F1
:101330005F9000933F011093400150913B016091F9
:101340003C01603009F4503040E009F04FEF20914B
:10135000300130913101303009F42030B0E009F42F
:10136000BFEF2B2F242320933D01B0E0B0933E012B
:10137000603009F4503020E009F42FEF103009F408
:101380000030B0E009F4BFEF0B2F0223202F30E034
:1013900000913D0110913E01022B132BB02FB12B78
:1013A00029F0BCE0BC83B0E0BD8304C0BBE0BC83DB
:1013B000B0E0BD830A811B81302F412F3F5F4F4F2B
:1013C000403009F4303010E009F01FEF403009F4EC
:1013D000303000E009F40FEF212F202310E0032329
:1013E0001423103009F40030B0E009F4BFEF0B2FE4
:1013F000022B19F00A890F5F0A8B01E010E020161A
:10140000310620E00CF02FEF06E010E00215130586
:10141000B0E00CF0BFEF0B2F022351F0810101501F
:1014200010404FE150E057D8040D151D98010BC036
:101430008101075010404EE150E04DD806541F4F37
:10144000040D151D98010C811D8102171307CCF0A6
:101450000C801D800FE110E000191109020F131F0D
:1014600000931A0110931B01B3E0B0931701B0E091
:10147000B09318010A811B8100931101109312018E
:1014800007C00C801D808901001911090E831F837C
:1014900040E050E08E01085F1F4FFA01E00FF11F9E
:1014A00000812E813F8110E002171307B4F48E01F2
:1014B000085F1F4FFA01E00FF11F0081002EB0E01E
:1014C0001B2E0E811F81001911090E831F838A01B3
:1014D0000F5F1F4FB801AB01DDCF0E811F8100935D
:1014E0001A0110931B0108E010E00417150784F49B
:1014F0008A010850104000931701109318010A81C7
:101500001B810F5F1F4F00931101109312010DC03B
:101510008A010C5F1F4F00931701109318010A8175
:101520001B8100931101109312016396CDBFDEBFA2
:10153000DF91CF910895CF93DF93CDB7DEB7249796
:10154000CDBFDEBF2196152D110FB7E0042D0695F6
:10155000BA95E9F7010F0F57202F30E007FD3FEF55
:1015600000E010E020173107E4F440E050E060E0D4
:1015700070E0810192010E94F901002800E009F069
:101580000FEF002331F0B0E0B883B983BA83BB8397
:1015900007C0B0E0B883B983B0E8BA83BFE3BB83C8
:1015A0002EC008E1021728F4288239824A825B8221
:1015B00026C0810192010E9416020E941302088334
:1015C00019832A833B83A101B201088119812A81F1
:1015D0003B810E946402002800E009F00FEF002325
:1015E00071F0088119812A813B8140E050E060E878
:1015F0007FE30E940902088319832A833B830881C1
:1016000019812A813B812396CDBFDEBFDF91CF9127
:10161000089505E80A95F1F700000895002400FDFB
:10162000040E440F11F00695D1F7002D089527FA06
:10163000B0913500B5F9B093350026FAB091350078
:10164000B4F9B093350025FAB0913500B3F9B093F1
:10165000350024FAB0913500B2F9B0933500B0915D
:10166000610000903500E894B3FF689407F8009299
:101670003500B0913500B064B09335000E9411037D
:10168000B0913500BF7BB093350023FAB09135009F
:10169000B5F9B093350022FAB0913500B4F9B093A2
:1016A000350021FAB0913500B3F9B093350020FA36
:1016B000B0913500B2F9B0933500B091610000905F
:1016C0003500E894B3FF689407F800923500B091B4
:1016D0003500B064B09335000E941103B09135001D
:1016E000BF7BB0933500B0916100B3FF03C00E948F
:1016F000170301C08EDF08952F928F927F926F9211
:101700005F924F923F922F92EDD9B0ED2B2E05DADA
:10171000222403DAB0E82B2E00DA2F903F902F928C
:10172000232CFBD92F90F9D94F905F906F905F9247
:101730004F92262CF2D94F905F904F92252CEDD9E5
:101740004F907F904F92272CE8D94F908F904F92D7
:10175000282CE3D930D9C6D9B0ED2B2EDED92224DE
:10176000DCD94F90042D0070202ED7D924D92F908A
:101770000895B0916100B77FB093610058DFB091D8
:101780006100B860B09361000895CF93DF93CDB747
:10179000DEB72397CDBFDEBF2196B0E83B1611F42C
:1017A000B0E02B1681F4F201BDE2B193B3E3B19343
:1017B000B2E3B193B7E3B193B6E3B193B8E3B193B6
:1017C000B0E0B19353C0B0E0BA8300E010E020165F
:1017D00031063CF4BFEFBA8300E010E002191309B0
:1017E0001801F201B0E2B193B0E2B193B0E2B1936B
:1017F000B0E2B193B0E2B193B0E3B193B0E0B19392
:1018000082010B5F1F4F08831983B0E03B1611F470
:10181000B0E02B1621F15F924F923F922F924AE057
:1018200050E081010E943A028C012F903F90005DB0
:10183000E881F98100833F922F924AE050E08101D4
:101840000E943A028B012F903F904F905F901801B9
:10185000088119810150104008831983D6CF0A816D
:10186000002321F0E881F981BDE2B0832296CDBF4B
:10187000DEBFDF91CF910895CF93DF93CDB7DEB771
:101880002197CDBFDEBF2196022D0F700883022D58
:1018900006950695069506954AE0C0DE1881010F6B
:1018A000202E102F012FCDBFDEBFDF91CF910895E5
:1018B000B0913500BF7BB0933500B0913500BF7754
:1018C000B0933500B0913500BF7DB0933500B09135
:1018D0003500BF7EB0933500B0913500B77FB0932F
:1018E0003500B0913500BB7FB0933500B091340026
:1018F000B064B0933400B0913400B068B093340059
:10190000B0913400B460B0933400B0913400B8604A
:10191000B0933400B0913400B061B0933400B09112
:101920003400B062B09334000E9417030E94170382
:101930000E941703B0913500B860B0933500B091A4
:101940003500B460B0933500B0913500B064B09309
:1019500035000E941103B0913500BF7BB093350074
:101960000E941703B0913500B064B09335000E9417
:101970001103B0913500BF7BB09335000E9417036F
:10198000B0913500B064B09335000E941103B0915E
:101990003500BF7BB09335000E941703B09135002E
:1019A000BB7FB0933500B0913500B064B093350083
:1019B0000E941103B0913500BF7BB09335000E94A7
:1019C0001703B0913500B064B09335000E94110345
:1019D000B0913500BF7BB0933500B0913500B77F33
:1019E000B0933500B0913500B062B0933500B0913E
:1019F0003500B064B09335000E941103B0913500FA
:101A0000BF7BB09335000E941703B0913500BF7DB6
:101A1000B0933500B0913500B460B0933500B0910B
:101A20003500B064B09335000E941103B0913500C9
:101A3000BF7BB0933500B0913500BB7FB0933500CC
:101A4000B0913500B064B09335000E941103B0919D
:101A50003500BF7BB09335000E941703B09135006D
:101A6000B064B09335000E941103B0913500BF7B84
:101A7000B0933500B0913500B460B0933500B091AB
:101A80003500B064B09335000E941103B091350069
:101A9000BF7BB09335000E941703B0913500BB7F28
:101AA000B0933500B0913500B064B09335000E941A
:101AB0001103B0913500BF7BB0933500B091350074
:101AC000B062B0933500B0913500B061B09335008D
:101AD000B0913500B860B0933500B0913500B46076
:101AE000B0933500B0913500B064B09335000E94DA
:101AF0001103B0913500BF7BB09335000E941703EE
:101B0000B0916100B860B09361000895CF93DF9306
:101B1000CDB7DEB725962F923F924F925F92088104
:101B20001981088319830A811B810A831B830C8115
:101B30001D810C831D83B0E09B1611F4B2E08B165F
:101B400069F4B3E5B0931C01B5E7B0931D01BEE69F
:101B5000B0931E01B0E0B0931F0172C0B0E09B16BD
:101B600011F4B3E08B1669F4BDE4B0931C01BFE639
:101B7000B0931D01BEE6B0931E01B0E0B0931F010B
:101B80005FC0B0E09B1611F4B4E08B1669F4B4E5C5
:101B9000B0931C01B5E7B0931D01B5E6B0931E01EB
:101BA000B0E0B0931F014CC0B0E09B1611F4B5E05B
:101BB0008B1669F4B7E5B0931C01B5E6B0931D012F
:101BC000B4E6B0931E01B0E0B0931F0139C0B0E09D
:101BD0009B1611F4B6E08B1669F4B4E5B0931C01C2
:101BE000B8E6B0931D01B5E7B0931E01B0E0B09325
:101BF0001F0126C0B0E09B1611F4B7E08B1669F404
:101C0000B6E4B0931C01B2E7B0931D01B9E6B093FE
:101C10001E01B0E0B0931F0113C0B0E09B1611F499
:101C2000B1E08B1669F4B3E5B0931C01B1E6B09353
:101C30001D01B4E7B0931E01B0E0B0931F0100C0D6
:101C40007F926F925F924F923F922F92BCE14B2E08
:101C5000B1E05B2EB1E03B2EB1E02B2E0E94992427
:101C60002F903F904F905F905F924F923F922F92B4
:101C70004AE050E082010E943A028B01005D402E52
:101C8000B6E03B2EB1E02B2E06D82F903F904F9020
:101C90005F903F922F924AE050E082010E943A0208
:101CA0008C01005D402EB7E03B2EB1E02B2E0E9450
:101CB0004B062F903F903F922F924AE050E08101D7
:101CC0000E943A028B01005D402EB9E03B2EB1E04C
:101CD0002B2E0E944B062F903F904AE050E081014E
:101CE0000E943A028C01005D402EBAE03B2EB1E02A
:101CF0002B2E0E944B066F907F907F926F9248EE42
:101D000053E083010E943A028B01005D402EBCE04B
:101D10003B2EB1E02B2E0E944B066F907F907F925E
:101D20006F9248EE53E083010E943A028C0144E630
:101D300050E00E943A028B01005D402EBDE03B2E38
:101D4000B1E02B2E0E944B066F907F907F926F9296
:101D500048EE53E083010E943A028C0144E650E0D1
:101D60000E943A028C014AE050E00E943A028B0144
:101D7000005D402EBEE03B2EB1E02B2E0E944B06B4
:101D80006F907F9048EE53E083010E943A028C01ED
:101D900044E650E00E943A028C014AE050E00E9482
:101DA0003A028C01005D402EBFE03B2EB1E02B2EAD
:101DB0000E944B064AE050E0088119810E943A02D5
:101DC0008B01005D402EB6E03B2EB2E02B2E0E9430
:101DD0004B064AE050E0088119810E943A028C01CA
:101DE000005D402EB7E03B2EB2E02B2E0E944B064A
:101DF0004AE050E00A811B810E943A028B01005D9B
:101E0000402EB9E03B2EB2E02B2E0E944B064AE05A
:101E100050E00A811B810E943A028C01005D402E35
:101E2000BAE03B2EB2E02B2E0E944B064AE050E077
:101E30000C811D810E943A028B01005D402EBCE0A6
:101E40003B2EB2E02B2E0E944B064AE050E00C8164
:101E50001D810E943A028C01005D402EBDE03B2EA8
:101E6000B2E02B2E0E944B065F904F903F902F9038
:101E7000DF91CF91089509E0021570F44AE0022D38
:101E800005DA000F000F000F000F102F4AE0022D9F
:101E9000FDD9092F012B01C0022D102F012F08950C
:101EA0002F923F924F926F927F92022D10E0212F3E
:101EB000312F432D542D60E047FC6FEF762F0E94A9
:101EC000E9020E9413025F924F923F922F9240E0EC
:101ED00050E068EC72E40E940703180129012BDB33
:101EE0002F903F904F905F90A801B9017F936F931F
:101EF0005F934F935F924F923F922F92B4ED6B2E70
:101F0000B0E07B2E180129010E942D030E94DC24E1
:101F10002F903F904F905F904F915F916F917F9185
:101F20008A019B010E94160298013F932F935F92B2
:101F30004F923F922F92BCE14B2EB1E05B2E1801E5
:101F400024DCB4ED4B2EB0E05B2EB1E03B2EB1E0D3
:101F50002B2E0E949924BCE14B2EB1E05B2EB6E003
:101F60003B2EB2E02B2E0E9499242F902F92BCE1A1
:101F70004B2EB1E05B2EB0E03B2E07DCBCE14B2EDC
:101F8000B1E05B2EB1E03B2EB2E02B2E0E949924F3
:101F90002F903F904F905F902F913F91BBE05B1649
:101FA00031F4B1E14B2E19010E9420037DC0B2E053
:101FB0005B1631F4B2E14B2E19010E94200374C06C
:101FC000B4E05B1699F4B0E02B1641F4032D142D08
:101FD000021B130B18010E94D90407C0032D142DF6
:101FE000021B130B18010E94D9045EC0BDE25B16F0
:101FF00031F4B2E04B2E19010E94200355C0BCE21F
:102000005B1621F4222E0E94D7044EC0B9E15B1664
:1020100099F4B0E02B1641F4032D142D021B130B81
:1020200018010E94D30407C0032D142D021B130BAB
:1020300018010E94D30438C0B3E25B1699F4B0E0F3
:102040002B1641F4032D142D021B130B18010E94B3
:10205000E50207C0032D142D021B130B18010E946B
:10206000E50222C0B1E05B1699F4B0E02B1641F412
:10207000032D142D021B130B18010E94E30207C04D
:10208000032D142D021B130B18010E94E3020CC038
:10209000B5E05B1609F408C0B6E05B1609F404C0AD
:1020A000B7E05B1609F400C07F906F904F903F90AF
:1020B0002F900895B1E07B1609F050C0B0E0BFBD8D
:1020C000B0E0BEBDB0E0BDBDB0E0BCBD4FBC6BBCC0
:1020D0005ABC69BC58BCBBE02B1639F40FB5016083
:1020E0000FBD0EB5077E0EBD38C0BCE02B1639F40F
:1020F000BFB5B260BFBD0EB5077E0EBD2EC0BDE040
:102100002B1639F40FB503600FBD0EB5077E0EBD5B
:1021100024C0BEE02B1639F40FB501600FBD0EB51B
:1021200008600EBD1AC0BFE02B1639F40FB502606F
:102130000FBD0EB508600EBD10C0B0E12B1639F40E
:102140000FB503600FBD0EB508600EBD06C00FB51C
:102150000C7F0FBD0EB5077E0EBD03C00FB50C730F
:102160000FBD3092F5000EB503290EBD0895CF9333
:10217000DF93CDB7DEB725962F923F924F925F92B5
:1021800008811981088319830A811B810A831B83B3
:102190000C811D810C831D839F928F927F926F9281
:1021A0005F924F923F922F920E94DC242F903F909B
:1021B0004F905F906F907F9075D88F909F90B0E018
:1021C0009B1611F4B2E08B1669F4B3E5B0931C01D1
:1021D000B5E7B0931D01BEE6B0931E01B0E0B09329
:1021E0001F0172C0B0E09B1611F4B3E08B1669F4C6
:1021F000BDE4B0931C01BFE6B0931D01BEE6B093F1
:102200001E01B0E0B0931F015FC0B0E09B1611F457
:10221000B4E08B1669F4B4E5B0931C01B5E7B09354
:102220001D01B5E6B0931E01B0E0B0931F014CC094
:10223000B0E09B1611F4B5E08B1669F4B7E5B093E6
:102240001C01B5E6B0931D01B4E6B0931E01B0E0E9
:10225000B0931F0139C0B0E09B1611F4B6E08B16A5
:1022600069F4B4E5B0931C01B8E6B0931D01B5E77D
:10227000B0931E01B0E0B0931F0126C0B0E09B16E2
:1022800011F4B7E08B1669F4B6E4B0931C01B2E721
:10229000B0931D01B9E6B0931E01B0E0B0931F01E9
:1022A00013C0B0E09B1611F4B1E08B1669F4B3E5EE
:1022B000B0931C01B1E6B0931D01B4E7B0931E01C9
:1022C000B0E0B0931F0100C0BCE14B2EB1E05B2E2B
:1022D000B1E03B2EB1E02B2E0E9499244AE050E061
:1022E00000911A0110911B010E943A028B01005DBE
:1022F000402EB6E03B2EB1E02B2E0E944B064AE06A
:1023000050E000911A0110911B010E943A028C01C9
:10231000005D402EB7E03B2EB1E02B2E0E944B0615
:102320004AE050E000911701109118010E943A0212
:102330008B01005D402EB9E03B2EB1E02B2E0E94B8
:102340004B064AE050E000911701109118010E94DD
:102350003A028C01005D402EBAE03B2EB1E02B2EFC
:102360000E944B0648EE53E00091110110911201BA
:102370000E943A028B01005D402EBCE03B2EB1E092
:102380002B2E0E944B0648EE53E000911101109154
:1023900012010E943A028C0144E650E00E943A0287
:1023A0008B01005D402EBDE03B2EB1E02B2E0E9444
:1023B0004B0648EE53E000911101109112010E946A
:1023C0003A028C0144E650E00E943A028C014AE055
:1023D00050E00E943A028B01005D402EBEE03B2E91
:1023E000B1E02B2E0E944B0648EE53E00091110104
:1023F000109112010E943A028C0144E650E00E94C2
:102400003A028C014AE050E00E943A028C01005DE1
:10241000402EBFE03B2EB1E02B2E0E944B064AE03F
:1024200050E0088119810E943A028B01005D402E24
:10243000B6E03B2EB2E02B2E0E944B064AE050E065
:10244000088119810E943A028C01005D402EB7E09C
:102450003B2EB2E02B2E0E944B064AE050E00A8150
:102460001B810E943A028B01005D402EB9E03B2E99
:10247000B2E02B2E0E944B064AE050E00A811B81FD
:102480000E943A028C01005D402EBAE03B2EB2E081
:102490002B2E0E944B064AE050E00C811D810E94C9
:1024A0003A028B01005D402EBCE03B2EB2E02B2EA9
:1024B0000E944B064AE050E00C811D810E943A02C6
:1024C0008C01005D402EBDE03B2EB2E02B2E0E9421
:1024D0004B0629E216E900E80A95F1F71A95E1F7AB
:1024E0002A95D1F75F904F903F902F90DF91CF9139
:1024F000089516E00BE20A95F1F71A95E1F700004E
:1025000000000895CF93DF93CDB7DEB725962F92C5
:102510003F9208811981088319830A811B810A83EC
:102520001B830C811D810C831D839F928F927F9250
:102530006F925F924F923F922F920E947205B0ED80
:102540002B2E0E948D0522240E948D050E9472056B
:10255000B1ED2B2E0E948D05B1E02B2EB0E03B2E6D
:102560000E947F062F903F904F905F906F907F90DA
:10257000F30100835F924F923F922F92B1E02B2E96
:10258000B0E03B2E0E947F062F903F904F905F90CF
:10259000F20100833F922F92B1E02B2EB0E03B2E50
:1025A0000E947F062F903F90F1010083B1E02B2E17
:1025B000B0E03B2E0E947F06E881F9810083B1E004
:1025C0002B2EB0E03B2E0E947F068F909F90F4014F
:1025D0000083B1E02B2EB0E03B2E0E947F06EA8103
:1025E000FB810083222433240E947F06EC81FD813D
:1025F00000830E94DB043F902F90DF91CF910895DC
:10260000E32DF42DB0E2B193B0E2B193B0E3B19316
:10261000B0E0B193032D142D0E5F1F4F9801B0E071
:102620002B1691F04AE0022D0E944609092F005D09
:10263000F90100834AE0022D0E944609202E8901FB
:10264000015010409801EBCF0895CF93DF93CDB7A1
:10265000DEB72A97CDBFDEBF219600E010E0B0E1E3
:10266000BA83B7E2BB83B0E0B883B983B0E0BE837E
:10267000BF83B887B987B0E0BC83BD830881198167
:10268000F801E20DF31D0081003009F448C0088113
:102690001981F801E20DF31D00810D3259F4BFEFED
:1026A000BC83B0E0BD83088119810F5F1F4F088391
:1026B0001983E4CF08811981F801E20DF31D00812F
:1026C0000032E9F008811981F801E20DF31D008163
:1026D00010E00053104020E0322F4A815B8160E01F
:1026E000762F0E9431064E815F8168857985040FBF
:1026F000151F261F371F0E831F83288739874AE03F
:1027000050E00A811B810E9404078C010A831B830D
:10271000088119810F5F1F4F08831983AFCF0C8188
:102720001D81B02FB12B29F0B6E0BA83B0E0BB8396
:1027300004C0B5E0BA83B0E0BB83288139810A8147
:102740001B8120173107D9F03F922F924AE050E0C9
:1027500060E070E00E811F81288539850E94920417
:1027600089019A012F903F900E831F832887398714
:10277000088119810F5F1F4F08831983DECF2E81D7
:102780003F810C811D81B02FB12B39F000E010E0AA
:10279000021B130BA8019A0100C089012996CDBF25
:1027A000DEBFDF91CF9108952F920E940605009120
:1027B000D90010E00053184F0093390110933A01EB
:1027C0000091DA0000933301B0E0B093340100913E
:1027D000DB0000933501B0E0B09336010E9418078A
:1027E000B1E02B2E0E94170B2F900895CF93DF930B
:1027F000CDB7DEB72797CDBFDEBF21962F923F9290
:102800004F925F92B7E0B1BDB1E02B2E0E94170B43
:10281000FE01B2E5B193B5E6B193B3E7B193B5E686
:10282000B193B4E7B193BEE2B193B0E0B1938E013E
:102830002801B2E03B2EB2E02B2E0E9499245F903B
:102840004F903F902F902696CDBFDEBFDF91CF9166
:102850000895CF93DF93CDB7DEB72197CDBFDEBF0D
:102860002196B0E0B883B42D11E0BB2319F0110F0D
:10287000BA95E9F7F1010081102300E0103009F06A
:1028800001E00615D9F400E0051530F432DE31DE42
:10289000052D0150502EF7CFB42D11E0BB2319F0B8
:1028A000110FBA95E9F7F1010081102300E0103013
:1028B00009F001E0061511F4BFEFB8830881CDBF20
:1028C000DEBFDF91CF910895CF93DF93CDB7DEB711
:1028D000AE97CDBFDEBF21964F925F926F927F92EF
:1028E0008F929F92B1E0B883B0916100B061B093D4
:1028F0006100B0916100BD7FB09361002092FD0046
:10290000B1E0B093D200B1E0B0930201B0916100A8
:10291000B4FF35C1B0E03B1689F53F922F92662493
:102920005524B2E04B2EB6E32B2EB0E03B2E91DFC8
:102930002F903F90002329F0B0916100B260B093D6
:1029400061003F922F92B1E06B2E5524B2E04B2EE6
:10295000B6E32B2EB0E03B2E7CDF2F903F90009013
:102960006100112701FC1395012339F0B1E03B2EE2
:10297000B0916100BF7EB093610079C0B0916100F9
:10298000BF7EB09361003F922F920E94DC24FE0133
:102990003596B7E5B193B1E6B193B4E7B193B9E633
:1029A000B193BEE6B193B7E6B193B0E2B193B6E6A8
:1029B000B193BFE6B193B2E7B193B0E2B193BAE39A
:1029C000B193B0E0B1938E010B5F1F4F2801B1E0CE
:1029D0003B2EB1E02B2E0E949924FE013596B0E5E6
:1029E000B193B2E7B193B5E6B193B3E7B193B3E76F
:1029F000B193B9E6B193BEE6B193B7E6B193B0E255
:102A0000B193B8E4B193B5E6B193B1E6B193B4E74D
:102A1000B193B5E6B193B2E7B193B0E2B193BDE63D
:102A2000B193B9E6B193B3E6B193B2E7B193BFE620
:102A3000B193B0E2B193B3E5B193B7E5B193B0E030
:102A4000B1938E010B5F1F4F2801B1E03B2EB2E026
:102A50002B2E0E9499242F903F9029E01EE105EE35
:102A60000A95F1F71A95E1F72A95D1F700003F9200
:102A70002F92BAED8B2EB0E09B2EBDEC6B2EB0E00A
:102A80007B2EBBEC4B2EB0E05B2EBCEC2B2EB0E0D3
:102A90003B2EB0E0BF93B9EDBF93B0E0BF93BBED69
:102AA000BF93B0E0BF93B2EDBF932CDDADB7BEB71F
:102AB0001696ADBFBEBF78DE8090D200B0E09B2EF0
:102AC00060900301709004014090D0005090D100BC
:102AD0002090CE003090CF000091CD00B0E0BF93A9
:102AE0000F930091CB00B0E0BF930F930091CC0007
:102AF000B0E0BF930F930AD8ADB7BEB71696ADBF7F
:102B0000BEBF2DE01DE208ED0A95F1F71A95E1F739
:102B10002A95D1F7000000008090D200B0E09B2EF3
:102B200060900301709004014090D0005090D1005B
:102B30002090CE003090CF000091CD00B0E0BF9348
:102B40000F930091CB00B0E0BF930F930091CC00A6
:102B5000B0E0BF930F930BDBADB7BEB71696ADBF1A
:102B6000BEBF2F903F902DE01DE208ED0A95F1F7D2
:102B70001A95E1F72A95D1F700000000C7CEB1E021
:102B80003B1609F015C6FE013596B8E4B193B5E6DB
:102B9000B193B1E6B193B4E7B193B5E6B193B2E7BF
:102BA000B193B0E2B193B2E7B193B5E7B193BEE6AA
:102BB000B193BEE6B193B9E6B193BEE6B193B7E681
:102BC000B193B0E0B1938E010B5F1F4F3F922F92F4
:102BD0002801B9E03B2EB2E02B2E0E949924FE0181
:102BE0003596B6E5B193B1E6B193BCE6B193B5E7DE
:102BF000B193B5E6B193BAE3B193B0E2B193B0E06B
:102C0000B1938E010B5F1F4F2801B1E03B2EB2E064
:102C10002B2E0E94992425E01FE002EF0A95F1F780
:102C20001A95E1F72A95D1F7BAEF8B2EB0E09B2EDB
:102C3000B0EE6B2EB0E07B2EBEED4B2EB0E05B2EE7
:102C4000BDED2B2EB0E03B2EB0E0BF93BCEDBF93AB
:102C5000B0E0BF93BBEFBF93B0E0BF93BCEFBF93B7
:102C600051DCADB7BEB71696ADBFBEBFB1E02B2EDF
:102C700002D90DA72224FFD80CA72224FCD80BA729
:102C8000B1E02B2EF8D80AA7B1E02B2EF4D808A774
:102C9000B1E02B2EF0D80EA32090DC00ECD86DA56F
:102CA0005CA54BA53AA528A51EA1802E712E622EEB
:102CB000532E442E352E262E0E947C0BB1E0B0936D
:102CC000CC00B0E0B093CB00B0E0B093CD00B2E068
:102CD000B093DA00B2E0B093D200B1E1B093DB0080
:102CE000B6E1B093D900B6E18B2EB1E17B2EB2E014
:102CF0006B2EB3E15B2E44243324B1E02B2E0E94D3
:102D00007C0BBAED8B2EB0E09B2EBDEC6B2EB0E0B1
:102D10007B2EBBEC4B2EB0E05B2EBCEC2B2EB0E040
:102D20003B2EB0E0BF93B9EDBF93B0E0BF93BBEDD6
:102D3000BF93B0E0BF93B2EDBF93E4DBADB7BEB7D6
:102D40001696ADBFBEBF2F903F90B1E0B093680024
:102D5000B1E0B0930101ECE1F1E0B8E4B193B5E684
:102D6000B193B1E6B193B4E7B193B5E6B193B2E7ED
:102D7000B193B0E0B1930091CB0000936700009154
:102D8000CD000093CA000091FD00015010E048E121
:102D900050E00E946B0229E630E0020F131F4881C9
:102DA00041500EA31FA30CE010E050E00E946B0204
:102DB0002EA13FA1200F311F00916800015010E0AB
:102DC000000F111F000F111F020F131FF801329681
:102DD00020818E010F5F1F4F3F922F92302E412E88
:102DE000222E0EDC8E010F5F1F4F18012EDC0E9479
:102DF000DC24FE013596B7E5B193B1E6B193B4E7B3
:102E0000B193B9E6B193BEE6B193B7E6B193B0E240
:102E1000B193B6E6B193BFE6B193B2E7B193B0E236
:102E2000B193BAE3B193B0E0B1938E010B5F1F4F42
:102E30002801B1E03B2EB1E02B2E0E9499248E0197
:102E40000F5F1F4F2801B1E03B2EB2E02B2E0E94F6
:102E5000992422E51BE200E00A95F1F71A95E1F7C3
:102E60002A95D1F700000000000000000E94DC2439
:102E70000091FD00015010E048E150E00E946B021B
:102E800029E630E0020F131F488141500EA31FA313
:102E90000CE010E050E00E946B022EA13FA1200F39
:102EA000311F00916800015010E0000F111F000F4A
:102EB000111F020F131FF8013396008110E0BCE1CF
:102EC0004B2EB1E05B2E18010E94C50B2090CB0069
:102ED0000E943C0CBCE14B2EB1E05B2E202EB0E0FA
:102EE0003B2E0E94C50BBCE14B2EB1E05B2EB1E046
:102EF0003B2EB2E02B2E0E949924FE013596BDE6B2
:102F0000B193B9E6B193BEE6B193B0E2B193B9E63D
:102F1000B193BEE6B193B0E2B193B1E6B193B0E242
:102F2000B193B9E6B193B3E7B193B0E2B193BAE329
:102F3000B193B0E0B1938E010B5F1F4F2801B1E058
:102F40003B2EB1E02B2E0E94992429E216E900E8DD
:102F50000A95F1F71A95E1F72A95D1F7BAEF8B2E7A
:102F6000B0E09B2EB0EE6B2EB0E07B2EBEED4B2E74
:102F7000B0E05B2EBDED2B2EB0E03B2EB0E0BF935A
:102F8000BCEDBF93B0E0BF93BBEFBF93B0E0BF9386
:102F9000BCEFBF93B7DAADB7BEB71696ADBFBEBF35
:102FA000B1E02B2E0E943B0F0DA722240E943B0F65
:102FB0000CA722240E943B0F0BA7B1E02B2E0E94EE
:102FC0003B0F0AA7B1E02B2E0E943B0F08A7B1E0F0
:102FD0002B2E0E943B0F0EA32090DC000E943B0F83
:102FE0006DA55CA54BA53AA528A51EA1802E712E26
:102FF000622E532E442E352E262E0E947C0BB1E0DD
:10300000B093CC00B0E0B093CB00B0E0B093CD0073
:10301000B2E0B093DA00B2E0B093D200B1E1B09385
:10302000DB00B6E1B093D900B6E18B2EB1E17B2E87
:10303000B2E06B2EB3E15B2E44243324B1E02B2E9F
:103040000E947C0BBAED8B2EB0E09B2EBDEC6B2E5C
:10305000B0E07B2EBBEC4B2EB0E05B2EBCEC2B2EFD
:10306000B0E03B2EB0E0BF93B9EDBF93B0E0BF93AB
:10307000BBEDBF93B0E0BF93B2EDBF9343DAADB702
:10308000BEB71696ADBFBEBF2F903F90B091610006
:10309000B061B09361000091FD00015010E048E183
:1030A00050E00E946B0208A719A729E630E0020F42
:1030B000131F488141500EA31FA30CE010E050E005
:1030C0000E946B022EA13FA1A801420F531F209125
:1030D00068002150722F80E0770F881F770F881FBC
:1030E000272F382F240F351FF90131963081209179
:1030F000CB00321740E008F04FEF29E630E058A54A
:1031000069A5250F361F200F311F270F381FF90122
:10311000329630812091CD00321720E008F02FEF59
:10312000422329E630E0250F361F020F131FE72F39
:10313000F82FE00FF11F00810030B0E009F0BFEF81
:103140000B2F042309F4A4C00091FD00015010E0EE
:1031500048E150E00E946B0229E630E0020F131FA5
:10316000488141500EA31FA30CE010E050E00E94E4
:103170006B022EA13FA1200F311F0091680001506A
:1031800010E0000F111F000F111F020F131FF80195
:103190003396008110E03F922F92BCE14B2EB1E0BC
:1031A0005B2E18010E94C50BBCE14B2EB1E05B2EDB
:1031B0002090CB00B0E03B2E0E94C50BBCE14B2E13
:1031C000B1E05B2EB1E03B2EB2E02B2E0E949924A1
:1031D000FE013596B1E3B193B0E2B193B3E6B1939A
:1031E000B8E6B193B3E6B193BBE6B193B5E6B1935C
:1031F000B4E6B193BAE3B193B0E0B1938E010B5F43
:103200001F4F2801B1E03B2EB1E02B2E0E949924E4
:1032100025E01FE002EF0A95F1F71A95E1F72A95EC
:10322000D1F7B1E06B2E5524B3E04B2EB0E32B2E3B
:10323000B0E03B2E0EDB2F903F90002369F0B09161
:103240006100B260B0936100B0916100BF7EB09345
:103250006100B0B3BF7BB0BB3F922F926624552470
:10326000B3E04B2EB0E32B2EB0E03B2EF2DA2F90E2
:103270003F9000906100112701FC1395012341F05C
:10328000B0916100BF7EB0936100B0B3BF7BB0BBB3
:103290003F922F92B1E02B2E0E943B0F0DA72224CC
:1032A0000E943B0F0CA722240E943B0F0BA7B1E00A
:1032B0002B2E0E943B0F0AA7B1E02B2E0E943B0F42
:1032C00008A7B1E02B2E0E943B0F0EA32090DC003C
:1032D0000E943B0F6DA55CA54BA53AA528A51EA194
:1032E000802E712E622E532E442E352E262E0E94B5
:1032F0007C0BB1E0B093CC00B0E0B093CB00B0E079
:10330000B093CD00B2E0B093DA00B2E0B093D20057
:10331000B1E1B093DB00B6E1B093D900B6E18B2EFA
:10332000B1E17B2EB2E06B2EB3E15B2E442433245B
:10333000B1E02B2E0E947C0BBAED8B2EB0E09B2EC1
:10334000BDEC6B2EB0E07B2EBBEC4B2EB0E05B2EC9
:10335000BCEC2B2EB0E03B2EB0E0BF93B9EDBF9399
:10336000B0E0BF93BBEDBF93B0E0BF93B2EDBF93AE
:10337000C9D8ADB7BEB71696ADBFBEBF2F903F90B0
:10338000B0916100BD7FB0936100B0B3BF7BB0BBB3
:10339000B0916100B061B0936100B0916100BE7FF7
:1033A000B0936100B0916100B4FFFDC10091FD00D8
:1033B000015010E048E150E00E946B0208A719A7F5
:1033C00029E630E0020F131F488141500EA31FA3CE
:1033D0000CE010E050E00E946B022EA13FA1A8017A
:1033E000420F531F209168002150722F80E0770F09
:1033F000881F770F881F272F382F240F351FF901BB
:10340000319630812091CB00321760E008F06FEFE9
:1034100049E650E028A539A5240F351F020F131FD8
:10342000070F181FF801329610810091CD00101778
:1034300000E008F00FEF062309F40DC13F922F9230
:10344000BCE14B2EB1E05B2EB1E03B2EB1E02B2E68
:103450000E949924FE013596B9E6B193B3E7B19382
:10346000B0E2B193B1E4B193B3E4B193B4E5B193F5
:10347000B9E4B193B6E5B193B5E4B193BAE3B193CE
:10348000B0E0B1938E010B5F1F4F2801B8E03B2ED7
:10349000B1E02B2E0E949924BCE14B2EB1E05B2EB3
:1034A0002090FD00B0E03B2E0E94C50BFE0135963A
:1034B000B0E5B193B2E7B193BFE6B193B7E6B1938C
:1034C000B0E2B193BEE6B193B5E7B193BDE6B19377
:1034D000BAE3B193B0E0B1938E010B5F1F4F2801A7
:1034E000B1E03B2EB2E02B2E0E949924BCE14B2E82
:1034F000B1E05B2EBAE03B2EB2E02B2E0E94992465
:1035000029E01EE105EE0A95F1F71A95E1F72A95F3
:10351000D1F70000FE013596BFE4B193BEE6B1934A
:10352000B0E2B193B0E7B193B7E7B193BDE6B19321
:10353000B0E2B193B8E6B193B5E6B193B1E6B19319
:10354000B4E7B193B5E6B193B2E7B193B0E2B1930A
:10355000BDE6B193BFE6B193B4E6B193B5E6B193DE
:10356000B0E0B1938E010B5F1F4F2801B1E03B2EFD
:10357000B1E02B2E0E9499242F903F90B0916100D2
:10358000B0FD08C0B0B3B064B0BBB0916100B16031
:10359000B09361003F922F92B1E06B2E5524B3E0BF
:1035A0004B2EB0E32B2EB0E03B2E53D92F903F9003
:1035B000002369F0B0916100B260B0936100B091F6
:1035C0006100BF7EB0936100B0B3BF7BB0BB3F92E0
:1035D0002F9266245524B3E04B2EB0E32B2EB0E09F
:1035E0003B2E37D92F903F9000906100112701FCAE
:1035F0001395012341F0B0916100BF7EB09361004B
:10360000B0B3BF7BB0BB3F922F92BAED8B2EB0E030
:103610009B2EBDEC6B2EB0E07B2EBBEC4B2EB0E0B6
:103620005B2EBCEC2B2EB0E03B2EB0E0BF93B9ED8F
:10363000BF93B0E0BF93BBEDBF93B0E0BF93B2EDDB
:10364000BF930E948212ADB7BEB71696ADBFBEBF84
:103650002F903F90A7C03F922F920E94DC24BCE1A4
:103660004B2EB1E05B2E2090FD00B0E03B2E0E947F
:10367000C50BBCE14B2EB1E05B2EB1E03B2EB1E0BF
:103680002B2E0E949924FE013596B9E6B193B3E73B
:10369000B193B0E2B193BFE4B193B6E6B193B6E6AD
:1036A000B193BAE3B193B0E0B1938E010B5F1F4FBA
:1036B0002801B8E03B2EB1E02B2E0E949924FE0198
:1036C0003596B0E5B193B2E7B193BFE6B193B7E6F3
:1036D000B193B0E2B193BEE6B193B5E7B193BDE665
:1036E000B193BAE3B193B0E0B1938E010B5F1F4F7A
:1036F0002801B1E03B2EB2E02B2E0E949924BCE1C0
:103700004B2EB1E05B2EBAE03B2EB2E02B2E0E9496
:1037100099242DE01DE208ED0A95F1F71A95E1F7DD
:103720002A95D1F700000000FE013596BFE4B19361
:10373000B6E6B193B6E6B193B0E2B193B0E7B19318
:10374000B7E7B193BDE6B193B0E2B193B8E6B193F8
:10375000B5E6B193B1E6B193B4E7B193B5E6B193F1
:10376000B2E7B193B0E2B193BDE6B193BFE6B193D6
:10377000B4E6B193B5E6B193B0E0B1938E010B5FBF
:103780001F4F2801B1E03B2EB1E02B2E0E9499245F
:103790002F903F90B0B3BF7BB0BBB0916100BF7EB4
:1037A000B0936100FFCDB0916100BF7EB093610026
:1037B000B2E0B883B2E0B0936800B0916100B0614C
:1037C000B0936100B2E0B0930101B0916100B160CB
:1037D000B09361003F922F920E94DC24FE01359647
:1037E000B7E5B193B1E6B193B4E7B193B9E6B1935C
:1037F000BEE6B193B7E6B193B0E2B193B6E6B1934A
:10380000BFE6B193B2E7B193B0E2B193BAE3B1933B
:10381000B0E0B1938E010B5F1F4F2801B1E03B2E4A
:10382000B1E02B2E0E949924FE013596B0E5B193AC
:10383000B2E7B193B5E6B193B3E7B193B3E7B19310
:10384000B9E6B193BEE6B193B7E6B193B0E2B193F6
:10385000BDE4B193BFE6B193B4E7B193BFE6B193D2
:10386000B2E7B193B0E2B193BDE6B193B9E6B193DB
:10387000B3E6B193B2E7B193BFE6B193B0E2B193CF
:10388000B3E5B193B7E5B193B0E0B1938E010B5FAF
:103890001F4F2801B1E03B2EB2E02B2E0E9499244D
:1038A0002F903F9029E01EE105EE0A95F1F71A9559
:1038B000E1F72A95D1F70000B0916100B1FF05C092
:1038C000B0916100BE7FB0936100B0916100B0FF24
:1038D000A4C03F922F92B1E06B2E5524B3E04B2E43
:1038E000B0E32B2EB0E03B2E0E9429142F903F9086
:1038F000002351F0B0916100B260B0936100B091CB
:103900006100BE7FB09361003F922F9266245524E0
:10391000B3E04B2EB0E32B2EB0E03B2E0E942914D7
:103920002F903F9000906100112701FC1395012317
:1039300029F0B0916100BE7FB0936100FE01359621
:10394000B7E5B193B1E6B193B4E7B193B9E6B193FA
:10395000BEE6B193B7E6B193B0E2B193B6E6B193E8
:10396000BFE6B193B2E7B193B0E2B193BAE3B193DA
:10397000B0E0B1938E010B5F1F4F3F922F92280151
:10398000B1E03B2EB1E02B2ED4D7FE013596B0E549
:10399000B193B2E7B193B5E6B193B3E7B193B3E7AF
:1039A000B193B9E6B193BEE6B193B7E6B193B0E295
:1039B000B193BDE4B193BFE6B193B4E7B193BFE671
:1039C000B193B2E7B193B0E2B193BDE6B193B9E67A
:1039D000B193B3E6B193B2E7B193BFE6B193B0E26E
:1039E000B193B3E5B193B7E5B193B0E0B1938E0174
:1039F0000B5F1F4F2801B1E03B2EB2E02B2E99D771
:103A00002F903F9029E01EE105EE0A95F1F71A95F7
:103A1000E1F72A95D1F7000058CFFE013596BDE6B3
:103A2000B193BFE6B193B4E7B193BFE6B193B2E708
:103A3000B193B0E2B193B2E7B193B5E7B193BEE60B
:103A4000B193BEE6B193B9E6B193BEE6B193B7E6E2
:103A5000B193B0E0B1938E010B5F1F4F3F922F9255
:103A60002801B9E03B2EB2E02B2E63D7FE0135963C
:103A7000B6E5B193B1E6B193BCE6B193B5E7B193C6
:103A8000B5E6B193BAE3B193B0E2B193B0E0B193CC
:103A90008E010B5F1F4F2801B1E03B2EB2E02B2EB1
:103AA00048D725E01FE002EF0A95F1F71A95E1F7F4
:103AB0002A95D1F7BAEF8B2EB0E09B2EB2E66B2E93
:103AC000B0E07B2EB0E64B2EB0E05B2EBDED2B2E92
:103AD000B0E03B2EB0E0BF93BCEDBF93B0E0BF932E
:103AE000BBEFBF93B0E0BF93BCEFBF930E948212C5
:103AF000ADB7BEB71696ADBFBEBFB1E02B2E0E94CC
:103B00003B0F0DA722240E943B0F0CA722240E94EA
:103B10003B0F0BA7B1E02B2E0E943B0F0AA7B1E091
:103B20002B2E0E943B0F08A7B1E02B2E0E943B0FCB
:103B30000EA32090DC000E943B0F6DA55CA54BA559
:103B40003AA528A51EA1802E712E622E532E442E3A
:103B5000352E262E0E947C0B2F903F90B1E0B09323
:103B6000D2002092FD00009168000130C9F4ECE120
:103B7000F1E0B8E4B193B5E6B193B1E6B193B4E73F
:103B8000B193B5E6B193B2E7B193B0E0B1930091D0
:103B9000CB00009367000091CD000093CA001AC0CB
:103BA000009168000230B1F4ECE1F1E0BDE4B193C2
:103BB000BFE6B193B4E7B193BFE6B193B2E7B19377
:103BC000B0E0B1930091CB000093C9000091CD000B
:103BD000009366003F922F92B1E02B2E0E943B0F84
:103BE0000DA722240E943B0F0CA722240E943B0F0A
:103BF0000BA7B1E02B2E0E943B0F0AA7B1E02B2EA2
:103C00000E943B0F08A7B1E02B2E0E943B0F0EA392
:103C10002090DC000E943B0F6DA55CA54BA53AA54A
:103C200028A51EA1802E712E622E532E442E352ED5
:103C3000262E0E947C0BB1E0B093CC00B0E0B09394
:103C4000CB00B0E0B093CD00B2E0B093DA00B2E0C8
:103C5000B093D200B1E1B093DB00B6E1B093D900EC
:103C6000B6E18B2EB1E17B2EB2E06B2EB3E15B2E81
:103C700044243324B1E02B2E0E947C0BB0916100D0
:103C8000B061B0936100BAED8B2EB0E09B2EBDEC1D
:103C90006B2EB0E07B2EBBEC4B2EB0E05B2EBCEC71
:103CA0002B2EB0E03B2EB0E0BF93B9EDBF93B0E058
:103CB000BF93BBEDBF93B0E0BF93B2EDBF930E9443
:103CC0008212ADB7BEB71696ADBFBEBF2F903F9064
:103CD000B1E0B0930201B0916100B061B0936100B6
:103CE000BAE0B0936500B0916100B4FF3FC20091AB
:103CF000FD00015010E048E150E00E946B0208A76F
:103D000019A729E630E0020F131F488141500EA386
:103D10001FA30CE010E050E00E946B022EA13FA117
:103D2000A801420F531F209168002150722F80E09C
:103D3000770F881F770F881F272F382F240F351FE5
:103D4000F901319630812091CB00321740E008F024
:103D50004FEF29E630E058A569A5250F361F200F43
:103D6000311F270F381FF901329630812091CD0085
:103D7000321720E008F02FEF422329E630E0250F2C
:103D8000361F020F131FE72FF82FE00FF11F0081DE
:103D90000030B0E009F0BFEF0B2F042309F441C15C
:103DA0003F922F9209D6BCE14B2EB1E05B2EB1E0E1
:103DB0003B2EB1E02B2EBDD5FE013596B9E6B19371
:103DC000B3E7B193B0E2B193B1E4B193B3E4B1938B
:103DD000B4E5B193B9E4B193B6E5B193B5E4B19369
:103DE000BAE3B193B0E0B1938E010B5F1F4F28018E
:103DF000B8E03B2EB1E02B2E9CD5BCE14B2EB1E0C0
:103E00005B2E2090FE00B0E03B2E0E94C50BFE0111
:103E10003596B0E5B193B2E7B193BFE6B193B7E69B
:103E2000B193B0E2B193BEE6B193B5E7B193BDE60D
:103E3000B193BAE3B193B0E0B1938E010B5F1F4F22
:103E40002801B1E03B2EB2E02B2E73D5BCE14B2E06
:103E5000B1E05B2EBAE03B2EB2E02B2E6AD529E012
:103E60001EE105EE0A95F1F71A95E1F72A95D1F7CB
:103E70000000FE013596BFE4B193BEE6B193B0E217
:103E8000B193B0E7B193B7E7B193BDE6B193B0E2B8
:103E9000B193BDE4B193BFE6B193B4E7B193BFE68C
:103EA000B193B2E7B193B0E2B193BDE6B193BFE68F
:103EB000B193B4E6B193B5E6B193B0E0B1938E019E
:103EC0000B5F1F4F2801B1E03B2EB1E02B2E31D507
:103ED000BCE14B2EB1E05B2E2090FD00B0E03B2E0C
:103EE0000E94C50B2F903F90B1E0B0936300B0E00B
:103EF000B0936400209163003091640000916500EC
:103F000010E0021713079CF1409163005091640088
:103F10000AE0409F002D3F922F9250906800BFEF23
:103F20003B2EB0E04B2E202E0E94500F2F903F9042
:103F300025E11BE40FEB0A95F1F71A95E1F72A95B5
:103F4000D1F700001091630020916400009165009A
:103F50001017B0E02B0759F0009163001091640036
:103F60000F5F1F4F0093630010936400C3CFB0E056
:103F7000B09365000091FD00015010E048E150E071
:103F80000E946B0229E630E0020F131F4881415066
:103F90000EA31FA30CE010E050E00E946B022EA1C4
:103FA0003FA1200F311F00916800015010E0000F69
:103FB000111F000F111F020F131FF801339600810C
:103FC0003F922F9250906800BFEF3B2EB0E04B2EF7
:103FD000202E0E94500FBAED8B2EB0E09B2EBDEC30
:103FE0006B2EB0E07B2EBBEC4B2EB0E05B2EBCEC1E
:103FF0002B2EB0E03B2EB0E0BF93B9EDBF93B0E005
:10400000BF93BBEDBF93B0E0BF93B2EDBF930E94EF
:104010008212ADB7BEB71696ADBFBEBF2F903F9010
:10402000A4C03F922F92C8D4BCE14B2EB1E05B2ECE
:10403000B1E03B2EB1E02B2E7CD4FE013596B9E6E3
:10404000B193B3E7B193B0E2B193BFE4B193B6E6F5
:10405000B193B6E6B193BAE3B193B0E0B1938E01F8
:104060000B5F1F4F2801B8E03B2EB1E02B2E61D42F
:10407000FE013596B0E5B193B2E7B193BFE6B193D7
:10408000B7E6B193B0E2B193BEE6B193B5E7B193B1
:10409000BDE6B193BAE3B193B0E0B1938E010B5F8B
:1040A0001F4F2801B1E03B2EB2E02B2E42D4BCE1E1
:1040B0004B2EB1E05B2EBAE03B2EB2E02B2E39D472
:1040C00029E01EE105EE0A95F1F71A95E1F72A9528
:1040D000D1F70000FE013596BFE4B193B6E6B19387
:1040E000B6E6B193B0E2B193B0E7B193B7E7B1935D
:1040F000BDE6B193B0E2B193BDE4B193BFE6B19335
:10410000B4E7B193BFE6B193B2E7B193B0E2B19334
:10411000BDE6B193BFE6B193B4E6B193B5E6B19312
:10412000B0E0B1938E010B5F1F4F2801B1E03B2E31
:10413000B1E02B2EFED3BCE14B2EB1E05B2E2090E4
:10414000FD00B0E03B2E0E94C50B50906800BFEF11
:104150003B2EB0E04B2E22240E94500F2F903F9018
:10416000B0916100BF7EB0936100BDCD00910201AE
:10417000013031F0009102010F5F00930201ABCDDD
:104180003F922F92BAED8B2EB0E09B2EBDEC6B2EA2
:10419000B0E07B2EBBEC4B2EB0E05B2EBCEC2B2EAC
:1041A000B0E03B2EB0E0BF93B9EDBF93B0E0BF935A
:1041B000BBEDBF93B0E0BF93B2EDBF930E948212FC
:1041C000ADB7BEB71696ADBFBEBFB0916100BF7EA2
:1041D000B0936100BAEF8B2EB0E09B2EB9E16B2E4D
:1041E000B1E07B2EB3ED4B2EB0E05B2EBDED2B2E60
:1041F000B0E03B2EB0E0BF93BCEDBF93B0E0BF9307
:10420000BBEFBF93B0E0BF93BCEFBF930E9482129D
:10421000ADB7BEB71696ADBFBEBF2090DD000E9401
:104220003B0F0DA71091DE000091D300010F202E4F
:104230000E943B0F0CA71091E00000911901010FA3
:10424000202E0E943B0F0BA72090FA000E943B0FEC
:104250000AA72090FC000E943B0F08A72090FB00BB
:104260000E943B0F0EA32090DC000E943B0F6DA527
:104270005CA54BA53AA528A51EA1802E712E622E05
:10428000532E442E352E262E0E947C0B95D3BCE156
:104290004B2EB1E05B2E20901901B0E03B2E0E9426
:1042A000C50BFE013596B3E5B193B5E6B193B3E620
:1042B000B193B0E2B193B5E6B193BEE6B193B4E683
:1042C000B193B5E6B193B4E6B193B0E2B193B9E678
:1042D000B193B3E7B193B0E2B193BAE3B193B0E075
:1042E000B1938E010B5F1F4F2801B1E03B2EB1E06F
:1042F0002B2E1FD3BCE14B2EB1E05B2EBAE03B2E40
:10430000B1E02B2E16D3BCE14B2EB1E05B2E2090FA
:10431000D300B0E03B2E0E94C50BFE013596BDE4F4
:10432000B193B9E6B193BEE6B193B0E2B193B5E60D
:10433000B193BEE6B193B4E6B193B5E6B193B4E6FA
:10434000B193B0E2B193B9E6B193B3E7B193B0E200
:10435000B193BAE3B193B0E0B1938E010B5F1F4FFD
:104360002801B1E03B2EB2E02B2EE3D2BCE14B2E74
:10437000B1E05B2EBAE03B2EB2E02B2EDAD22F90CA
:104380003F9029E01EE105EE0A95F1F71A95E1F755
:104390002A95D1F700009F908F907F906F905F904B
:1043A0004F90AD96CDBFDEBFDF91CF910895CF93F3
:1043B000DF93CDB7DEB76B97CDBFDEBF21965F929F
:1043C0004F923F922F92F8D2FE013396B9E4B19307
:1043D000BEE6B193B9E6B193B4E7B193B9E6B19350
:1043E000B1E6B193BCE6B193B3E7B193B9E6B1934B
:1043F000B9E6B193BEE6B193B7E6B193B0E2B1933B
:10440000B8E4B193B5E6B193B1E6B193B4E7B19333
:10441000B5E6B193B2E7B193B0E0B1938E010D5F11
:104420001F4F2801B1E03B2EB1E02B2E82D22F90FE
:104430003F904F905F9025E01FE002EF0A95F1F763
:104440001A95E1F72A95D1F7B1E0B983B1E0BA83C3
:10445000B1E0B8830981015010E048E150E00E94CA
:104460006B0229E630E0020F131F4A814150098F89
:104470001A8F0CE010E050E00E946B02298D3A8DFB
:10448000200F311F0881015010E0000F111F000F95
:10449000111FF801E20FF31F20820981015010E083
:1044A00048E150E00E946B0229E630E0020F131F42
:1044B0004A814150098F1A8F0CE010E050E00E94B1
:1044C0006B02298D3A8D200F311F0881015010E0B9
:1044D000000F111F000F111F020F131FF80131965B
:1044E00030820981015010E048E150E00E946B02E7
:1044F00029E630E0020F131F4A814150098F1A8FBD
:104500000CE010E050E00E946B02298D3A8D200FE4
:10451000311F0881015010E0000F111F000F111F03
:10452000020F131FF801329640820981015010E0FA
:1045300048E150E00E946B0229E630E0020F131FB1
:104540004A814150098F1A8F0CE010E050E00E9420
:104550006B02298D3A8D200F311F0881015010E028
:10456000000F111F000F111F020F131FF8013396C8
:1045700050820881033021F008810F5F08836ACFE1
:104580000A81013021F00A810F5F0A8361CF09811E
:10459000043021F009810F5F098358CF6A96CDBF9F
:1045A000DEBFDF91CF910895CF93DF93CDB7DEB714
:1045B0006B97CDBFDEBF21965F924F923F922F92B5
:1045C000FBD1FE013396B9E4B193BEE6B193B9E6EF
:1045D000B193B4E7B193B9E6B193B1E6B193BCE658
:1045E000B193B3E7B193B9E6B193B9E6B193BEE63F
:1045F000B193B7E6B193B0E2B193B8E4B193B5E645
:10460000B193B1E6B193B4E7B193B5E6B193B2E734
:10461000B193B0E0B1938E010D5F1F4F2801B1E05F
:104620003B2EB1E02B2E85D12F903F904F905F9085
:1046300025E01FE002EF0A95F1F71A95E1F72A95B8
:10464000D1F7B1E0B983B2E0BA83B1E0B8830981B0
:10465000015010E048E150E00E946B0229E630E092
:10466000020F131F4A814150098F1A8F0CE010E08E
:1046700050E00E946B02298D3A8D200F311F088176
:10468000015010E0000F111F000F111FF801E20F81
:10469000F31F20820981015010E048E150E00E94A0
:1046A0006B0229E630E0020F131F4A814150098F47
:1046B0001A8F0CE010E050E00E946B02298D3A8DB9
:1046C000200F311F0881015010E0000F111F000F53
:1046D000111F020F131FF80131963082098101501A
:1046E00010E048E150E00E946B0229E630E0020F42
:1046F000131F4A814150098F1A8F0CE010E050E0DF
:104700000E946B02298D3A8D200F311F08810150C4
:1047100010E0000F111F000F111F020F131FF801EF
:10472000329640820981015010E048E150E00E9439
:104730006B0229E630E0020F131F4A814150098FB6
:104740001A8F0CE010E050E00E946B02298D3A8D28
:10475000200F311F0881015010E0000F111F000FC2
:10476000111F020F131FF801339650820881033086
:1047700021F008810F5F08836ACF0A81023021F09F
:104780000A810F5F0A8361CF0981043021F009811A
:104790000F5F098358CF6A96CDBFDEBFDF91CF91FF
:1047A0000895CF93DF93CDB7DEB72297CDBFDEBF9D
:1047B00021962F923F924F925F926F927F92BDE728
:1047C000B3BFB0E0B2BFB0E0BCBFB0E0B3BDB0E0DB
:1047D000B2BDB7E2B5BDB0E0B4BDB1E07B2EBFEF76
:1047E0005B2EB0E06B2EB0EA4B2EB2E03B2EBBE06E
:1047F0002B2E0E945A10BAE0B883B0E0B98328810A
:10480000398100E010E0201731070CF44BC04881DB
:1048100059810AE0409F002DB1E05B2EBFEF3B2E97
:10482000B0E04B2E202E0E94500F488159810AE0A3
:10483000409F002DB2E05B2EBFEF3B2EB0E04B2E31
:10484000202E0E94500F488159810AE0409F002D80
:10485000B3E05B2EBFEF3B2EB0E04B2E202E0E942C
:10486000500F488159810AE0409F002DB4E05B2E33
:10487000BFEF3B2EB0E04B2E202E0E94500F18E6CB
:1048800005EE0A95F1F71A95E1F7088119811030C4
:1048900009F4003039F0088119810550104008836F
:1048A0001983ADCFB4E05B2EBFEF3B2EB0E04B2EB3
:1048B00022240E94500F7F906F905F904F903F9006
:1048C0002F902196CDBFDEBFDF91CF9108954F92FB
:1048D0003F922F92B8E72B2E0E94170B2F903F90FC
:1048E00020E006E712E5E22FF0E0E00FF11F04916F
:1048F0002F933F922F92202E0E94B90B2F903F9022
:104900002F91273021F0022F0F5F202FEACF3F9207
:104910002F92B2E02B2E0E94170B2F903F903F92C8
:104920002F92B7E04B2E0E944B062F903F904F9056
:1049300008952F92B1E02B1619F4B0E82B2E14C075
:10494000B2E02B1619F4B0EC2B2E0EC0B3E02B16F0
:1049500019F4B4E92B2E08C0B4E02B1619F4B4ED09
:104960002B2E02C0B0E82B2E032D0150020D202E5D
:10497000202E0E94170BB0916100B77FB0936100A9
:104980009201F9010081002381F0F90100813F9338
:104990002F932F92202E0E94B90B2F902F913F9191
:1049A00089010F5F1F4F9801ECCFB0916100B86093
:1049B000B09361002F9008952F920E94580CB1E09F
:1049C0002B2E0E94170BBCE02B2E0E94170B2F9052
:1049D0000895CF93DF93CDB7DEB72297CDBFDEBF6B
:1049E00021962F92B0E0B9830981000F000F000FCC
:1049F000005C202E0E94170BB0E0B88309810030C4
:104A000061F41EE722E50881E02FF0E0E10FF21FDC
:104A10000491202E0E94B90B3CC00981013061F441
:104A200016E822E50881E02FF0E0E10FF21F049183
:104A3000202E0E94B90B2DC00981023061F41EE8BE
:104A400022E50881E02FF0E0E10FF21F0491202E13
:104A50000E94B90B1EC00981033061F416E622E5FD
:104A60000881E02FF0E0E10FF21F0491202E0E9458
:104A7000B90B0FC00981043061F41EE622E50881FC
:104A8000E02FF0E0E10FF21F0491202E0E94B90BFD
:104A900000C00881073021F008810F5F0883AECF86
:104AA0000981043021F009810F5F09839DCF2F9088
:104AB0002196CDBFDEBFDF91CF910895B4B3B4602E
:104AC000B4BBB4B3B860B4BBB4B3B061B4BBB4B33B
:104AD000B062B4BBB4B3B064B4BBB4B3B068B4BB7D
:104AE0000895B7B3BF7EB7BBB7B3BB7FB7BBB7B390
:104AF000BE7FB7BBB7B3BD7FB7BBB1B3BB7FB1BBE5
:104B0000B1B3B77FB1BBB1B3BF7DB1BBB1B3B0641B
:104B1000B1BB0895B7B3B860B7BBB1B3B068B1BBB0
:104B2000B1B3B061B1BB08950F931F93EF93FF939F
:104B3000BF93BFB7BF930091F8001091F9000F5FCA
:104B40001F4F0093F8001093F900BF91BFBFBF91B2
:104B5000FF91EF911F910F9118950F922F925F92F5
:104B60000F931F932F933F93EF93FF93EF93FF9335
:104B7000BF93BFB7BF93CF93DF93CDB7DEB7669731
:104B8000CDBFDEBF21962F923F924F925F926F92E0
:104B90000091FF00003009F042C0B1E0B093FF0087
:104BA0000BDFFE01B9E4B193BEE6B193B4E7B19374
:104BB000B5E6B193B2E7B193B5E7B193B0E7B1937E
:104BC000B4E7B193BFE5B193B6E6B193B9E6B1935B
:104BD000B2E7B193B3E7B193B4E7B193BFE5B19353
:104BE000B4E7B193B9E6B193BDE6B193B5E6B1933D
:104BF000BDE3B193B0E3B193B0E0B1938E0128016E
:104C0000B1E03B2EB1E02B2E94DE29E216E900E85C
:104C10000A95F1F71A95E1F72A95D1F79BC0BFB72E
:104C2000BF77BFBF0E94F613BBB7BF7BBBBFB091BE
:104C30006100BE7FB0936100B0916100B160B0933C
:104C40006100E1EEF0E0BCE3B193B9E6B193BEE6FA
:104C5000B193B4E7B193B0E2B193B9E6B193B3E7DE
:104C6000B193B0E2B193B3E7B193B5E6B193BCE6CB
:104C7000B193B5E6B193B3E6B193B4E7B193B5E6BA
:104C8000B193B4E6B193B0E0B193B1EE4B2EB0E086
:104C90005B2EB1E03B2EB1E02B2E4BDEB1E06B2E54
:104CA0005524B2E04B2EB0E32B2EB0E03B2E0E94F9
:104CB0002914003079F0B0916100B064B0936100C4
:104CC0007BDE21E11CE30CEC0A95F1F71A95E1F784
:104CD0002A95D1F766245524B2E04B2EB0E32B2E53
:104CE000B0E03B2E0E94291400906100112706FCC1
:104CF0001395012339F1B0916100BF7BB09361003E
:104D0000E1EEF0E0BCE3B193B7E6B193BFE6B19357
:104D1000BFE6B193B4E6B193BEE3B193B0E0B19313
:104D2000B1EE4B2EB0E05B2EB1E03B2EB1E02B2E6E
:104D300000DE21E11CE30CEC0A95F1F71A95E1F78E
:104D40002A95D1F7B0E0B1BDBBB7B064BBBFBFB768
:104D5000B068BFBF6F905F904F903F902F90659667
:104D6000CDBFDEBFDF91CF91BF91BFBFBF91FF919C
:104D7000EF91FF91EF913F912F911F910F915F90D4
:104D80002F900F9018950F921F922F923F924F9253
:104D90005F926F927F928F929F92AF92BF92CF92CB
:104DA000DF92EF92FF920F931F932F933F934F93B6
:104DB0005F936F937F938F939F93AF93BF93CF93A3
:104DC000DF93EF93FF93EF93FF93BF93BFB7BF932F
:104DD0002F923F924F925F92BFB7BF77BFBF0E94A3
:104DE000F613BBB7BF7DBBBFB1E0B093FD00B1E030
:104DF0003B2EB1E02B2E0E946414B1EE4B2EB0E09E
:104E00005B2EB1E03B2EB1E02B2E93DDB0E0B1BDC7
:104E1000BBB7B062BBBFBFB7B068BFBF5F904F90BA
:104E20003F902F90BF91BFBFBF91FF91EF91FF9136
:104E3000EF91DF91CF91BF91AF919F918F917F9132
:104E40006F915F914F913F912F911F910F91FF9023
:104E5000EF90DF90CF90BF90AF909F908F907F901A
:104E60006F905F904F903F902F901F900F901895EC
:104E7000BFE5BDBFB8E0BEBFCDB7DEB72697CDBF9B
:104E8000DEBF21962F923F924F925F926F927F9258
:104E90008F929F92B7B3B160B7BBBAB3B460BABBDD
:104EA000BAB3B062BABBBAB3B061BABBBAB3B86096
:104EB000BABBB4B3B460B4BBB4B3B860B4BBB4B33E
:104EC000B061B4BBB4B3B062B4BBB4B3B064B4BB90
:104ED000B4B3B068B4BBB1B3BB7FB1BBB1B3B77F40
:104EE000B1BBB1B3BF7EB1BBB1B3BF7DB1BBB1B3D9
:104EF000BF7BB1BBB1B3BF77B1BBB7B3B260B7BB18
:104F0000B7B3B860B7BBBAB3B160BABBBAB3B2603B
:104F1000BABBBAB3B460BABBBAB3B860BABBB7B3C2
:104F2000B061B7BBB7B3B062B7BBB7B3B064B7BB20
:104F3000B7B3B068B7BBB4B3B460B4BBB4B3B86014
:104F4000B4BBB4B3B061B4BBB4B3B062B4BBB4B3BC
:104F5000B064B4BBB4B3B068B4BBB7B3BF7EB7BBC7
:104F6000B7B3BB7FB7BBB1B3BB7FB1BBB1B3B77F87
:104F7000B1BBB1B3BF7DB1BBB1B3BF7BB1BBB7B345
:104F8000B860B7BBB1B3B068B1BBB1B3B061B1BBCE
:104F9000B0B3BF77B0BB92DDA4DDBCDD0E94580C7E
:104FA000B1E02B2E0E94170BBCE02B2E0E94170B9A
:104FB000FE01B4E5B193B5E4B193B3E5B193B4E5C3
:104FC000B193B0E0B1938E012801B1E03B2EB2E085
:104FD0002B2EAFDCB0E0B093CC00B0E0B093CB00B0
:104FE000B0E0B093CD00B2E0B093DA00B2E0B0939D
:104FF000D200B1E1B093DB00B5E1B093D900B5E1E7
:105000008B2EB1E17B2EB2E06B2EB3E15B2E4424FC
:10501000332422240E947C0BB0916100B061B093D4
:105020006100B0916100BF7DB0936100B1E0B093C9
:10503000FD00B1E0B0930101B1E0B0930201009135
:10504000D20000930001B1E0B093FE00B5DCC1DCFA
:10505000B1E03B2EB1E02B2E3ADCB3E04B2EB5E0B5
:105060003B2EB1E02B2E0E944B064424B2E03B2E97
:10507000B2E02B2E0E944B06B4E04B2EB4E03B2E48
:10508000B2E02B2E0E944B062DE311EE00E40A95B0
:10509000F1F71A95E1F72A95D1F700000000B4E680
:1050A0005B2EBAE04B2E3324B1E02B2E80D9B2E137
:1050B0005B2EBAE04B2E3324B1E02B2E75DABAED1D
:1050C0008B2EB0E09B2EBDEC6B2EB0E07B2EBBECAC
:1050D0004B2EB0E05B2EBCEC2B2EB0E03B2EB0E0B4
:1050E000BF93B9EDBF93B0E0BF93BBEDBF93B0E00A
:1050F000BF93B2EDBF930E948212ADB7BEB71696B2
:10510000ADBFBEBF0E94D4138090D200B0E09B2EF2
:1051100060900301709004014090D0005090D10045
:105120002090CE003090CF000091CD00B0E0BF9332
:105130000F930091CB00B0E0BF930F930091CC0090
:10514000B0E0BF930F930E94860DADB7BEB7169621
:10515000ADBFBEBF8090D200B0E09B2E6090030137
:10516000709004014090D0005090D1002090CE006B
:105170003090CF000091CD00B0E0BF930F9300912D
:10518000CB00B0E0BF930F930091CC00B0E0BF9391
:105190000F930E94B710ADB7BEB71696ADBFBEBF96
:1051A00000DBB0E0B093FF00B0E0B093DF00B4B735
:1051B000B064B4BFB5B7B160B5BFBAB7BF7DBABF51
:1051C000BFB7BF77BFBF25E01FE002EF0A95F1F739
:1051D0001A95E1F72A95D1F7BBB7B062BBBFBBB751
:1051E000B064BBBFBFB7B068BFBFB1E0B093FD0054
:1051F000E3DBFE01BDE6B193B1E6B193B9E6B1934D
:10520000BEE6B193B0E2B193B0E0B1938E01280154
:10521000B1E03B2EB1E02B2E8CDBEBCF9F908F903B
:105220007F906F905F904F903F902F90FFCF0F93A4
:105230001F93EF93FF93BF93BFB7BF930091F60007
:105240001091F7000F5F1F4F0093F6001093F700C7
:10525000B8B7BE7FB8BFBF91BFBFBF91FF91EF91FD
:105260001F910F9118950000000F080E0800000014
:1052700011111F000400010E140404040400000AAC
:1052800015110A0400000000000F09090F000000BA
:1052900000090D0B0900FFFFFFFFFFFFFFFFFFFFEE
:00000001FF
