:100000000C94113B0C9400000C9400000C94000024
:100010000C94DC3A0C9400000C9400000C9400004A
:100020000C9400000C9400000C9400000C94F53A21
:100030000C9400000C9400000C9400000C94000040
:100040000C9400000C9400000C9400000C94000030
:100050000C940000F6D021F0662309F0ABD0989400
:100060000895F8DF09F441C0E62ED52EC42EB32E34
:10007000A22E912E802E002D112D222D332DEADF60
:1000800009F43DC0842F952F8C199D09B9F072F4A5
:100090009095809501964C2D5D2D883180F5359594
:1000A0002795179507950197D1F708C08831E8F48F
:1000B000B594A794979487940197D1F766272EF06B
:1000C000080D191D2A1D3B1D09C0801A910AA20A9C
:1000D000B30A082D192D2A2D3B2D332312F46AD093
:1000E00060E82FD001C01BD016C0002D112D222D8D
:1000F000332DD6F71ED0C1F340E83427F5CF082DB5
:10010000192D2A2D3B2D4C2D5D2D6E2D33235AF7A5
:1001100051D060E8E8CF08956894A3DF089509D02E
:1001200039F041585F4F342F220F36952795362BE3
:100130000895002329F4112319F4222309F4332309
:100140000895F7DF11F19F938F938EE790E03323AB
:1001500051F0369527951795079548175907B4F428
:100160004F5F5F4FF4CF80959095019622239AF0D0
:10017000000F111F221F481759071CF04150504013
:10018000F5CF002711272227332708C033270FEF89
:10019000102F2FE7322F8F919F91C1DF0895BCDF81
:1001A000332332F0C6DF11F001E003C0002701C0A5
:1001B0000FEF089500951095209530950F5F1F4F14
:1001C0002F4F3F4F08953DD081F1E62ED52EC42EFE
:1001D000B32EA22E912E802E002D112D222D332DE7
:1001E00030D019F16E254C0D5D1D40385307F4F4E5
:1001F00041387FEF5707FCF088279927AA27BB27AC
:1002000070E2B695A7959795879537952795179599
:10021000079520F4880D991DAA1DBB1D7A9589F7B5
:10022000032F3A2F292F182F8CDF0AC00FEF102F22
:100230002FE73FE7FACF0027102F202F302FF5CFE1
:10024000089577DF79F0632F6078220F331F432FF3
:100250005FE7451B55275040269530E8232B332771
:10026000989403C0442755276627089547E16627D9
:10027000552726F0332312F49DDF60E862DF0895EE
:10028000042E152E262E372E8ADF00230895E8949B
:10029000E8DE0895C9019A01AB01B80197FB092E68
:1002A00005260ED057FD04D014D00AD0001C38F417
:1002B00050954095309521953F4F4F4F5F4F089592
:1002C000F6F790958095709561957F4F8F4F9F4F72
:1002D0000895A1E21A2EAA1BBB1BFD010DC0AA1F87
:1002E000BB1FEE1FFF1FA217B307E407F50720F09F
:1002F000A21BB30BE40BF50B661F771F881F991F1A
:100300001A9469F760957095809590959B01AC0162
:10031000BD01CF010895042E152E262E372EFCDEAA
:10032000002E112E222E332E0895CF93DF93CDB7BA
:10033000DEB72397CDBFDEBF2196B0E85B1641F450
:10034000B0E04B1629F4B0E03B1611F4B0E02B16E8
:10035000D1F4F301BDE2B193B2E3B193B1E3B19350
:10036000B4E3B193B7E3B193B4E3B193B8E3B1931A
:10037000B3E3B193B6E3B193B4E3B193B8E3B1930C
:10038000B0E0B1937BC0B0E0BA8300E010E020E0C1
:1003900030E0201631064206530664F4BFEFBA83FC
:1003A00000E010E020E030E00219130924093509CB
:1003B00018012901F301B0E2B193B0E2B193B0E2C8
:1003C000B193B0E2B193B0E2B193B0E2B193B0E2D5
:1003D000B193B0E2B193B0E2B193B0E2B193B0E3C4
:1003E000B193B0E0B1938301065F1F4F0883198377
:1003F000B0E05B1641F4B0E04B1629F4B0E03B16D8
:1004000011F4B0E02B1699F17F926F925F924F92A8
:100410003F922F924AE050E060E070E0810192014B
:1004200039DF8B019C012F903F904F905F90005DD2
:10043000E881F98100835F924F923F922F924AE0C8
:1004400050E060E070E08101920124DF89019A01AF
:100450002F903F904F905F906F907F9018012901EF
:10046000088119810150104008831983C1CF0A8186
:10047000002321F0E881F981BDE2B0832296CDBF4F
:10048000DEBFDF91CF910895C801BA0197FB092E15
:1004900007260AD077FD04D00CD006D000201AF42D
:1004A000709561957F4F0895F6F7909581959F4FD0
:1004B0000895AA1BBB1B51E107C0AA1FBB1FA617AB
:1004C000B70710F0A61BB70B881F991F5A95A9F7FD
:1004D00080959095BC01CD0108950895042E152EA8
:1004E000262E372E70DE002E112E222E332E08954A
:1004F000002E112E222E332E042F152F262F372FAC
:100500004EDE00231CF00024039401C00024089553
:10051000E894ACDE0895B4DE1CF40024039401C01A
:10052000002408958EDEF1F05523C2F04F31A8F477
:100530004731C1F050F44195495E05C03595279586
:10054000179507954A95D1F70DC04751000F111F18
:10055000221F331F4A95D1F705C03FE7232F132FE2
:10056000032F03C0662309F025DE0895042E152EFF
:10057000262E372E8CDE002E112E222E332E08959D
:10058000689474DE0895C801BA01AA1BBB1B51E12F
:1005900007C0AA1FBB1FA617B70710F0A61BB70BF3
:1005A000881F991F5A95A9F7809590950895B0E0F6
:1005B000B9BD28BC0895CF93DF93CDB7DEB725969C
:1005C0002F923F924F925F9208811981088319837D
:1005D0000A811B810A831B830C810C830D811E8180
:1005E0000F81013071F42101B1E03B2E262C0E94D5
:1005F000E71F48805980B1E03B2E2C800E94E71F06
:100600000CC0B1E03B2E262C0E94E71F4A805B8085
:10061000B1E03B2E2C800E94E71F5F904F903F90EF
:100620002F90DF91CF910895CF93DF93CDB7DEB7B1
:100630002497CDBFDEBF2196152D110FB7E0042DF5
:100640000695BA95E9F7010F0F57202F30E007FD07
:100650003FEF00E010E020173107DCF440E050E00D
:1006600060E070E08101920143DF002800E009F0C2
:100670000FEF002331F0B0E0B883B983BA83BB83B6
:1006800007C0B0E0B883B983B0E8BA83BFE3BB83E7
:100690002AC008E1021728F4288239824A825B8244
:1006A00022C0810192013EDF33DF088319832A8350
:1006B0003B83A101B201088119812A813B812BDF93
:1006C000002800E009F00FEF002369F0088119818C
:1006D0002A813B8140E050E060E87FE347DF088308
:1006E00019832A833B83088119812A813B812396C0
:1006F000CDBFDEBFDF91CF910895CF93DF93CDB70C
:10070000DEB7A197CDBFDEBF2196B0E0BE8F8101DD
:10071000920108DF088319832A833B835F924F92FB
:100720003F922F9240E050E060E070E08101920142
:10073000F2DE002800E009F00FEF2F903F904F907D
:100740005F90002311F0BFEFBE8F8E010A5F1F4F35
:100750007F926F925F924F923F922F923801288042
:1007600039804A805B80E1DD2F903F904F905F9011
:100770006F907F90088119812A813B81C9DE5F9249
:100780004F923F922F92A801B90181019201C3DDDE
:1007900040E050E563EC77E4A1DE2F903F904F906E
:1007A0005F90C0DE088319832A833B8340E050E0DA
:1007B00060E070E0041715072607370784F4088007
:1007C000198000E010E0001911090A801B8020E068
:1007D00030E020093109088319832A833B838E0185
:1007E0000E5E1F4F7F926F925F924F923F922F92B9
:1007F0003801288039804A805B8097DD2F903F90B8
:100800004F905F906F907F9040E050E0B0E0BC83ED
:10081000BD83F301B0E2B193B0E2B193B0E2B19322
:10082000B0E2B193B0E2B193B0E2B193B0E2B19370
:10083000B0E2B193B0E2B193B0E2B193B0E3B1935F
:10084000B0E0B1935F934F93810192016BDE303042
:1008500029F4203019F4103009F40030B0E009F424
:10086000BFEF0B2F08A340E050E060E070E0810193
:10087000920151DE002800E009F00FEF4F915F91E7
:1008800018A10123002341F0F301BDE2B08311E080
:1008900020E0412F522F00C02E81203281F40C81A4
:1008A0001D8198012F5F3F4F2C833D838E010A5F8E
:1008B0001F4FF901E00FF11F0081202FEECF022F13
:1008C0000030D1F0FA01E60DF71D00830C811D8187
:1008D00098012F5F3F4F2C833D838A010F5F1F4F8D
:1008E000B8018E010A5F1F4FF901E00FF11F00816F
:1008F000202F022FAB01E4CF0E8D003010E009F461
:100900001FEF503009F4403000E009F40FEF0123ED
:1009100051F0FA01E60DF71DB0E3B0838A010F5FD5
:100920001F4F980101C09A01303009F4213010E0C6
:1009300009F41FEF0E8D012359F0F901E60DF71DA3
:10094000B0E3B08389010F5F1F4FA8019A0100C077
:10095000F901E60DF71DBEE2B08389010F5F1F4F5D
:10096000A801B6E0BC83B0E0BD83288D2030F9F04B
:10097000203219F420E3022F01C0022FFA01E60D04
:10098000F71D00830C811D8198012F5F3F4F2C8341
:100990003D838A010F5F1F4FB8018E010E5E1F4F0E
:1009A000F901E00FF11F0081AB01202FDFCFFA0129
:1009B000E60DF71DB0E0B083A096CDBFDEBFDF919E
:1009C000CF910895B1E14B1619F43BBC2ABC06C087
:1009D000B2E14B1619F439BC28BC00C008952CBEF6
:1009E000089523BC089523BC0895CF93DF93CDB71A
:1009F000DEB72397CDBFDEBF2196B0E83B1611F4DA
:100A0000B0E02B1681F4F201BDE2B193B3E3B193F0
:100A1000B2E3B193B7E3B193B6E3B193B8E3B19363
:100A2000B0E0B19351C0B0E0BA8300E010E020160E
:100A300031063CF4BFEFBA8300E010E0021913095D
:100A40001801F201B0E2B193B0E2B193B0E2B19318
:100A5000B0E2B193B0E2B193B0E3B193B0E0B1933F
:100A600082010B5F1F4F08831983B0E03B1611F41E
:100A7000B0E02B1611F15F924F923F922F924AE015
:100A800050E0810101DD8C012F903F90005DE881F5
:100A9000F98100833F922F924AE050E08101F4DC1B
:100AA0008B012F903F904F905F9018010881198122
:100AB0000150104008831983D8CF0A81002321F008
:100AC000E881F981BDE2B0832296CDBFDEBFDF9120
:100AD000CF910895B0E0BBBD2ABC0895BB27AA27DB
:100AE0009927882700FF04C0840F951FA61FB71FF2
:100AF000440F551F661F771F369527951795079545
:100B000089F730502040100769F79D018C01089546
:100B10002F92B1E02B1619F4B0E82B2E14C0B2E0DE
:100B20002B1619F4B0EC2B2E0EC0B3E02B1619F4D3
:100B3000B4E92B2E08C0B4E02B1619F4B4ED2B2E1B
:100B400002C0B0E82B2E032D0150020D202EB091D3
:100B50007100B860B0937100202E0E946A34B09189
:100B60007100B77FB0937100242C0E946A34B09159
:100B70007100B860B09371002F900895CF93DF9308
:100B8000CDB7DEB72C97CDBFDEBF21962F923F9217
:100B90004F925F926F927F928F92B0E02B1609F482
:100BA000A4C000916F00015010E04AEC52E00E9496
:100BB0006E160A871B872CE531E0020F131F409148
:100BC000700041500883198305E611E050E00E944F
:100BD0006E16288139810A831B83020F131F452D4E
:100BE00041500883198303E310E050E00E946E1621
:100BF00028813981200F311F288739872CE531E082
:100C00006A857B85260F371F4A815B81240F351F3C
:100C1000200F311F2F5E3F4F2E833F832CE531E0A5
:100C2000260F371F240F351F020F131F0E5D1F4F96
:100C30000C831D830CE511E0060F171F0883198331
:100C400005E611E04091700050E00E946E16288188
:100C500039810A831B83020F131F422D41500883E1
:100C6000198303E310E050E00E946E162881398159
:100C70004801820E931E2CE531E06A857B85260FA4
:100C8000371F4A815B81240F351F200F311F922FA0
:100C9000A32F9F5EAF4F20917000822F8F5F2CE5B6
:100CA00031E0260F371F240F351F020F131FB80125
:100CB0006E5D7F4F488559852E813F810C811D8156
:100CC0007F927F936F938F93AF939F939F928F9217
:100CD0006090700029011A01702E812E6CDCADB776
:100CE000BEB71896ADBFBEBFF0C000916F000150F7
:100CF00010E04AEC52E00E946E160A871B872CE532
:100D000031E0020F131F4091700041500883198396
:100D100005E611E050E00E946E16288139810A83B1
:100D20001B83020F131F452D41500883198303E3D2
:100D300010E050E00E946E162881398108871987DB
:100D4000200F311F2E833F832CE531E06A857B85A0
:100D5000260F371F4A815B81240F351F200F311F5B
:100D60002F5E3F4F2C833D832CE531E0260F371F4C
:100D7000240F351F020F131F0E5D1F4F0A831B83A5
:100D80000CE511E0060F171F0883198305E611E033
:100D90004091700050E00E946E1628813981200F2A
:100DA000311F688579854B01820E931E2CE531E059
:100DB0004A855B85240F351F200F311F260F371FF3
:100DC000922FA32F9F5EAF4F20917000822F8F5FD5
:100DD0002CE531E0240F351F020F131F060F171FDC
:100DE000B8016E5D7F4F4E815F812C813D810A810C
:100DF0001B814F923F927F927F936F938F93AF931C
:100E00009F939F928F926090700029011A01702E1B
:100E1000812ED1DBADB7BEB71896ADBFBEBF3F9038
:100E20004F90232CBFE83B2EB0E04B2E0E940919B7
:100E3000009170000150202F30E0220F331F05E594
:100E400011E0020F131FF801319600810030B9F054
:100E5000009170000150202F30E0220F331F05E574
:100E600011E0020F131FF80131960081BFE84B2EED
:100E7000B0E05B2E302E209070000E94E71F0091A2
:100E80007000202F30E0220F331F05E511E0020F24
:100E9000131FF801319600810030B9F00091700005
:100EA000402F4F5F202F30E0220F331F05E511E068
:100EB000020F131FF80131960081BFE84B2EB0E0FE
:100EC0005B2E302E242E0E94E71F8F907F906F9014
:100ED0005F904F903F902F902B96CDBFDEBFDF915C
:100EE000CF910895CF93DF93CDB7DEB72297CDBFD3
:100EF000DEBF2196022D015010E04AEC52E00E9424
:100F00006E162CE531E0020F131F432D415008836C
:100F1000198305E611E050E00E946E1628813981A0
:100F2000020F131FF8017196B0E5B193B2E7B193C8
:100F3000BAE3B193B0E2B193B0E2B193B2E3B1934B
:100F4000B0E2B193B3E3B193B0E2B193B4E3B19340
:100F5000B0E2B193B5E3B193B0E2B193B6E3B1932C
:100F6000B0E2B193B7E3B193B0E0B193022D015079
:100F700010E04AEC52E00E946E162CE531E0020FC0
:100F8000131F432D41500883198305E611E050E0FB
:100F90000E946E1628813981020F131F0D5C1F4FAE
:100FA000F8017196B0E5B193B2E7B193BAE3B193AA
:100FB000B1E3B193B0E2B193B0E2B193B0E2B193D7
:100FC000B3E3B193B0E2B193B4E3B193B0E2B193C0
:100FD000B5E3B193B0E2B193B6E3B193B0E2B193AC
:100FE000B7E3B193B0E0B193022D015010E04AECA9
:100FF00052E00E946E162CE531E0020F131F432DC4
:1010000041500883198305E611E050E00E946E16F6
:1010100028813981020F131F0A591F4FF801719659
:10102000B0E5B193B2E7B193BAE3B193B1E3B19351
:10103000B0E2B193B2E3B193B0E2B193B0E2B19355
:10104000B0E2B193B4E3B193B0E2B193B5E3B1933D
:10105000B0E2B193B6E3B193B0E2B193B7E3B19329
:10106000B0E0B193022D015010E04AEC52E00E9432
:101070006E162CE531E0020F131F432D41500883FB
:10108000198305E611E050E00E946E16288139812F
:10109000020F131F07561F4FF8017196B0E5B19369
:1010A000B2E7B193BAE3B193B1E3B193B0E2B193D4
:1010B000B2E3B193B0E2B193B3E3B193B0E2B193D1
:1010C000B0E2B193B0E2B193B5E3B193B0E2B193C2
:1010D000B6E3B193B0E2B193B7E3B193B0E0B193AB
:1010E000022D015010E04AEC52E00E946E162CE5F1
:1010F00031E0020F131F432D41500883198305E689
:1011000011E050E00E946E1628813981020F131FF2
:1011100004531F4FF8017196B0E5B193B2E7B19354
:10112000BAE3B193B1E3B193B0E2B193B2E3B19357
:10113000B0E2B193B3E3B193B0E2B193B4E3B1934E
:10114000B0E2B193B0E2B193B0E2B193B6E3B19340
:10115000B0E2B193B7E3B193B0E0B193022D015087
:1011600010E04AEC52E00E946E162CE531E0020FCE
:10117000131F432D41500883198305E611E050E009
:101180000E946E1628813981020F131F01501F4FD4
:10119000F8017196B0E5B193B2E7B193BAE3B193B8
:1011A000B1E3B193B0E2B193B2E3B193B0E2B193E2
:1011B000B3E3B193B0E2B193B4E3B193B0E2B193CE
:1011C000B5E3B193B0E2B193B0E2B193B0E2B193C1
:1011D000B7E3B193B0E0B193022D015010E04AECB7
:1011E00052E00E946E162CE531E0020F131F432DD2
:1011F00041500883198305E611E050E00E946E1605
:1012000028813981020F131F0E5C1E4FF801719661
:10121000B0E5B193B2E7B193BAE3B193B1E3B1935F
:10122000B0E2B193B2E3B193B0E2B193B3E3B1935F
:10123000B0E2B193B4E3B193B0E2B193B5E3B1934B
:10124000B0E2B193B6E3B193B0E2B193B0E2B1933F
:10125000B0E0B1932196CDBFDEBFDF91CF9108956D
:101260000190002011F00D92D9F70895CF93DF93EC
:10127000CDB7DEB72797CDBFDEBF2196B1E0B883EB
:10128000B1E0BA83B1E0B9830981201608F4DEC069
:101290000881015010E04AEC52E00E946E162CE5E5
:1012A00031E0020F131F4A8141500D831E8305E672
:1012B00011E050E00E946E162D813E81020F131F37
:1012C000498141500D831E8303E310E050E00E94EA
:1012D0006E162D813E81F801E20FF31FB0E2B1934B
:1012E000B0E2B193B0E2B193B0E2B193B0E2B193A6
:1012F000B0E2B193B0E2B193B0E2B193B0E2B19396
:10130000B0E2B193B0E2B193B0E2B193B0E2B19385
:10131000B0E2B193B0E2B193B0E2B193B0E0B19377
:101320000881015010E04AEC52E00E946E162CE554
:1013300031E0020F131F4A8141500D831E8305E6E1
:1013400011E050E00E946E162D813E81020F131FA6
:10135000498141500D831E8303E310E050E00E9459
:101360006E162D813E81020F131FF8017196B0E2B7
:10137000B193B0E2B193B0E2B193B0E2B193B0E215
:10138000B193B0E2B193B0E2B193B0E2B193B0E205
:10139000B193B0E2B193B0E2B193B0E2B193B0E2F5
:1013A000B193B0E2B193B0E2B193B0E2B193B0E0E7
:1013B000B1930881015010E04AEC52E00E946E1691
:1013C0002CE531E0020F131F4A8141500D831E832B
:1013D00005E611E050E00E946E162D813E81020F5D
:1013E000131F498141500D831E8303E310E050E039
:1013F0000E946E162D813E81020F131FF801B296D6
:10140000B1E3B193B0E0B1930A810150202F30E0F5
:10141000220F331F05E511E0F901E00FF11FB0E0E5
:10142000B0830A810150202F30E0220F331F05E5E1
:1014300011E0020F131FF8013196B0E0B08309816B
:10144000021521F009810F5F09831ECF0A81023046
:1014500021F00A810F5F0A8315CF0881023021F045
:1014600008810F5F08830CCF2696CDBFDEBFDF91CA
:10147000CF9108952F923F924F925F926F927F92F9
:10148000022D10E0432D50E00E946E1644E650E01D
:101490007AD88C0120E0322F73D84F923F922F924E
:1014A00018012901C1D82F903F904F90A801B90190
:1014B0007F936F935F934F934F923F922F92B6E833
:1014C0006B2EB0E07B2E1801290117D92F903F9089
:1014D0004F904F915F916F917F918A019B0122D82C
:1014E00098013F932F934F923F922F92BFE84B2E3C
:1014F000B0E05B2E180179DA2F903F904F902F913A
:101500003F91B2E04B1649F4B2E14B2E19015ADA81
:10151000B2E14B2E190156DA87C0B1E04B1649F4FF
:10152000B1E14B2E19014EDAB1E14B2E19014ADA25
:101530007BC0BEE14B16A9F4B0E02B1629F4232C96
:10154000B0E03B2E4CDA0CC0231421F422243324C7
:1015500046DA06C0032D10E0021B130B18013FDA18
:1015600063C0B1E24B1649F4B0E02B1619F419012F
:1015700036DA02C0190133DA57C0B4E04B1651F421
:10158000B0E02B1621F4222433242BDA02C01901F7
:1015900028DA4AC0B7E34B1619F4222E24DA44C0E5
:1015A000BDE24B1629F4B2E04B2E19010BDA3CC018
:1015B000B2E34B1619F4222E16DA36C0B9E14B16F7
:1015C00089F4B0E02B1639F4032D10E0021B130B45
:1015D000180180DA06C0032D10E0021B130B18015E
:1015E00079DA22C0B3E24B1699F4B0E02B1641F43D
:1015F000032D10E0021B130B18010E94D70207C035
:10160000032D10E0021B130B18010E94D7020CC01F
:10161000B5E04B1609F408C0B6E04B1609F404C057
:10162000B7E04B1609F400C07F906F905F904F9029
:101630003F902F900895CF93DF93CDB7DEB72A97D1
:10164000CDBFDEBF219600E010E0B0E1BA83B7E283
:10165000BB83B0E0B883B983B0E0BE83BF83B887F3
:10166000B987B0E0BC83BD8308811981F801E20D20
:10167000F31D0081003009F447C008811981F80189
:10168000E20DF31D00810D3259F4BFEFBC83B0E0D1
:10169000BD83088119810F5F1F4F08831983E4CF31
:1016A00008811981F801E20DF31D00810032E1F09B
:1016B00008811981F801E20DF31D008110E000534B
:1016C000104020E0322F4A815B8160E0762F06DAFD
:1016D0004E815F8168857985040F151F261F371F8E
:1016E0000E831F83288739874AE050E00A811B81D7
:1016F0000E94C3028C010A831B83088119810F5F3A
:101700001F4F08831983B0CF0C811D81B02FB12BDF
:1017100029F0B6E0BA83B0E0BB8304C0B5E0BA8379
:10172000B0E0BB83288139810A811B8120173107F2
:10173000D9F03F922F924AE050E060E070E00E81D5
:101740001F81288539850E944A0189019A012F90BD
:101750003F900E831F8328873987088119810F5F87
:101760001F4F08831983DECF2E813F810C811D819D
:10177000B02FB12B39F000E010E0021B130BA801D1
:101780009A0100C089012996CDBFDEBFDF91CF91BC
:101790000895CF93DF93CDB7DEB76397CDBFDEBF9C
:1017A0002196B0915901B160B0935901B091710087
:1017B000BF77B0937100B1E0B0936F00B1E0B09328
:1017C00070002F92232C52DD2F90B1E02B2E32147B
:1017D00008F480C000916F00015010E04AEC52E024
:1017E0000E946E162CE531E0020F131F409170002D
:1017F0004150098B1A8B05E611E050E00E946E16ED
:1018000029893A89020F131F422D4150098B1A8BE7
:1018100003E310E050E00E946E1629893A89020F16
:10182000131F9801AC2FBD2FF2011ADD00E20D93BA
:10183000F30116DD00E20D93F40112DD00E00D93DB
:10184000A22FB32FFE010CDD00E00D9300916F007D
:10185000015010E04AEC52E00E946E162CE531E097
:10186000020F131F409170004150098B1A8B05E63F
:1018700011E050E00E946E1629893A89020F131F69
:10188000422D4150098B1A8B03E310E050E00E9477
:101890006E1629893A89020F131F98012F5E3F4F58
:1018A000AC2FBD2FF201DCDC00E20D93F301D8DC9C
:1018B00000E20D93F401D4DC00E00D93A22FB32FCE
:1018C000FE01CEDC00E00D93231421F0022D0F5F0A
:1018D000202E7DCFB2E0B0937000B1E02B2E0091AE
:1018E0006F00015010E04AEC52E00E946E162CE5A9
:1018F00031E0020F131F0B591E4FF8017196BEE520
:10190000B193BEE5B193BEE5B193BEE5B193B0E24C
:10191000B193B0E2B193B0E2B193B0E2B193B0E26F
:10192000B193B0E2B193B0E2B193B0E2B193B0E25F
:10193000B193B0E2B193B0E2B193B0E2B193B0E051
:10194000B193B2E02B2E00916F00015010E04AECF1
:1019500052E00E946E162CE531E0020F131F4091F9
:1019600070004150098B1A8B05E611E050E00E948F
:101970006E1629893A89020F131F0D5C1F4FF8015B
:101980007196B0E2B193B0E2B193B0E2B193B0E23C
:10199000B193B0E2B193BEE5B193BEE5B193BEE5BC
:1019A000B193BEE5B193B0E2B193B0E2B193B0E2CE
:1019B000B193B0E2B193B0E2B193B0E2B193B0E2CF
:1019C000B193B0E0B193B3E02B2E00916F000150C2
:1019D00010E04AEC52E00E946E162CE531E0020F56
:1019E000131F409170004150098B1A8B05E611E0DE
:1019F00050E00E946E1629893A89020F131F0A5976
:101A00001F4FF8017196B0E2B193B0E2B193B0E22A
:101A1000B193B0E2B193B0E2B193B0E2B193B0E26E
:101A2000B193B0E2B193B0E2B193B0E2B193B0E25E
:101A3000B193BEE5B193BEE5B193BEE5B193BEE50A
:101A4000B193B0E2B193B0E0B193B2E0B0936F0064
:101A5000B1E0B0937000B1E02B2E321408F445C011
:101A600000916F00015010E04AEC52E00E946E16A7
:101A70002CE531E0020F131F098B1A8B05E611E0EC
:101A80004091700050E00E946E1629893A89020F39
:101A9000131F422D4150098B1A8B03E310E050E0D5
:101AA0000E946E1629893A89F801E20FF31FB0E20D
:101AB000B193B9E6B193B3E7B193B0E2B193B3E7B1
:101AC000B193B5E6B193BCE6B193B3E6B193B4E795
:101AD000B193B5E6B193B4E6B193B0E0B1932314FA
:101AE00021F0022D0F5F202EB8CFB1E02B2E0091F8
:101AF0006F00015010E04AEC52E00E946E162CE597
:101B000031E0020F131F409170004150098B1A8B76
:101B100005E611E050E00E946E1629893A89020F0D
:101B2000131FA02FB12FF2019BDB00E20D9300E207
:101B30000D9303E70D9305E60D9304E70D9304E77A
:101B40000D9309E60D930EE60D9307E60D9300E263
:101B50000D9300E20D9300E20D9300E20D9300E07F
:101B60000D93B2E02B2E00916F00015010E04AEC73
:101B700052E00E946E162CE531E0020F131F4091D7
:101B800070004150098B1A8B05E611E050E00E946D
:101B90006E1629893A89020F131F0D5C1F4FA02F63
:101BA000B12FF3015DDB00E20D9303E70D9305E632
:101BB0000D9304E70D9304E70D9309E60D930EE6EC
:101BC0000D9307E60D9300E20D9300E20D9300E202
:101BD0000D9300E20D9300E00D93B3E02B2E0091E6
:101BE0006F00015010E04AEC52E00E946E162CE5A6
:101BF00031E0020F131F409170004150098B1A8B86
:101C000005E611E050E00E946E1629893A89020F1C
:101C1000131FF801EA59FF4FB5E4B193B8E7B19348
:101C2000B9E6B193B4E7B193B9E6B193BEE6B19327
:101C3000B7E6B193B0E2B193B0E2B193B0E2B19341
:101C4000B0E2B193B0E2B193B0E2B193B0E2B1933C
:101C5000B0E2B193B0E2B193B0E2B193B0E0B1932E
:101C6000B1E02B2E6296CDBFDEBFDF91CF910895FC
:101C7000CF93DF93CDB7DEB7A597CDBFDEBF21965B
:101C80008F92B1E0B0936F00B1E0B09370007F929B
:101C90006F925F924F923F922F920E940E322F903E
:101CA0003F904F905F906F907F90B0E03B1611F4A3
:101CB000B0E02B1631F481010F5F1F4F0F8318879F
:101CC00002C02F823886B0915901B160B09359019A
:101CD000B0E0BC87B0E0BB87B0917100BF77B09334
:101CE0007100B0915901B0FFAFC3B1E0B0936F0084
:101CF000B1E0B0937000062D10E002151305A4F4B6
:101D00007F926F925F924F923F922F92462D50E0BA
:101D100081010E9444028C012F903F904F905F9070
:101D20006F907F900F8318870F811885103009F40A
:101D3000003021F4B1E0BF83B0E0B8870C850230F9
:101D400011F4B0E0BC870C850F5F0C877F926F9217
:101D50005F924F923F922F925F806884432C322C87
:101D6000272C702E0E94BE052F903F904F905F90C1
:101D70006F907F90B1E0B0936D0010916D0005EF12
:101D8000011708F45EC300916D000F5F00936D00B2
:101D90007F926F925F924F923F922F92B1E06B2EA3
:101DA0005524B1E04B2EB6E32B2EB0E03B2E0E9423
:101DB0009E202F903F904F905F906F907F900023D8
:101DC00009F4C1C0B1E0B9877F926F925F924F92E0
:101DD0003F922F92B1E02B2EBDD72F903F904F9086
:101DE0005F906F907F90B6EFB0936D00B1E0BB83D2
:101DF000B0E0BC83B0E0BD83BE83B0E0B983BA83FA
:101E000025E01FE002EF0A95F1F71A95E1F72A9510
:101E1000D1F709811A81103009F4003009F093C01C
:101E20000D811E810F5F1F4F0D831E837F926F9266
:101E30005F924F923F922F92B1E06B2EB4E65B2EF1
:101E4000B1E04B2EB6E32B2EB0E03B2E0E949E203D
:101E50002F903F904F905F906F907F900023A9F05C
:101E60007F926F925F924F923F922F92442D50E05B
:101E70000D811E810E9444028C012F903F904F9053
:101E80005F906F907F900B831C830B811C81980166
:101E9000220D331D1901042D10E00217130724F43D
:101EA000252CB0E03B2E00C02F8138850B811C8192
:101EB000200F311F2F833887062D10E002171307DC
:101EC0002CF4B1E0BF83B0E0B88700C00F81188563
:101ED000103009F4003021F4B1E0BF83B0E0B887DE
:101EE0000C85023010F0B0E0BC870C850F5F0C87CA
:101EF0007F926F925F924F923F922F925F806884A1
:101F0000432C322C272C702E0E94BE0566245524AB
:101F1000B1E04B2EB6E32B2EB0E03B2E0E949E206C
:101F20002F903F904F905F906F907F901985012385
:101F300049F0B0E0B987B8E3B0936D00B1E0B98380
:101F4000B0E0BA8366CF7F926F925F924F923F92DA
:101F50002F92B1E06B2E5524B4E04B2EB6E32B2E1E
:101F6000B0E03B2E0E949E202F903F904F905F90BC
:101F70006F907F90002309F4BFC0B1E0BA877F92D1
:101F80006F925F924F923F922F92B1E02B2EE2D64A
:101F90002F903F904F905F906F907F90B6EFB093EF
:101FA0006D00B1E0BB83B0E0BC83B0E0BD83BE8315
:101FB000B0E0B983BA8325E01FE002EF0A95F1F79C
:101FC0001A95E1F72A95D1F709811A81103009F4A1
:101FD000003009F091C00D811E810F5F1F4F0D83EE
:101FE0001E837F926F925F924F923F922F92B1E049
:101FF0006B2EB4E65B2EB4E04B2EB6E32B2EB0E096
:102000003B2E0E949E202F903F904F905F906F90AC
:102010007F900023A9F07F926F925F924F923F9240
:102020002F92442D50E00D811E810E9444028C01AC
:102030002F903F904F905F906F907F900B831C8309
:102040000B801C8081010019110918010515B0E0F1
:102050001B0724F4242CB0E03B2E00C00B801C8016
:102060002F813885201931092F83388701E010E04E
:102070002017310724F46F82B0E0B88700C00F81C9
:102080001885103009F4003021F4B1E0BF83B0E0CE
:10209000B8870C85023010F0B0E0BC870C850F5F6C
:1020A0000C877F926F925F924F923F922F925F8048
:1020B0006884432C322C272C702E0E94BE05662487
:1020C0005524B4E04B2EB6E32B2EB0E03B2E0E94FD
:1020D0009E202F903F904F905F906F907F901A8539
:1020E000012349F0B0E0BA87B6EFB0936D00B1E0DC
:1020F000B983B0E0BA8368CF20926E00B2E0B093AB
:102100006F00B0917100BF77B09371007F926F92B2
:102110005F924F923F922F9266245524B2E04B2E4D
:10212000B6E32B2EB0E03B2E0E949E200030B0E0A4
:1021300009F0BFEF0B2F098F662455244424B6E322
:102140002B2EB0E03B2E0E949E202F903F904F9070
:102150005F906F907F90003010E009F01FEF098DC5
:10216000012BA1F0B1E0BB877F926F925F924F92FB
:102170003F922F92B1E02B2EEDD52F903F904F90B4
:102180005F906F907F90B6EFB0936D007F926F92EB
:102190005F924F923F922F92B1E06B2E5524B2E0A6
:1021A0004B2EB6E32B2EB0E03B2E0E949E201B85CB
:1021B0000123098F1090590100907100E89410FCE0
:1021C00000FE01C0689440F8B1E06B2E5524442411
:1021D000B6E32B2EB0E03B2E0E949E202F903F9026
:1021E0004F905F906F907F90112740FC13951023C4
:1021F000098D012B09F424C1B0E0BB87B0915901CE
:10220000BE7FB0935901B6EFB0936D00009173009B
:10221000102F1F5F1093730000917400101719F4B2
:10222000B1E0B093730000916F00015010E04AECF0
:1022300052E054D50BA31CA32CE531E0020F131F71
:10224000409170004150098F1A8F05E611E050E06F
:1022500045D5298D3A8D0B8F1C8F020F131F4F818F
:102260004150098F1A8F03E310E050E037D5298DD4
:102270003A8D09A31AA3200F311F2F8F38A32CE505
:1022800031E06BA17CA1260F371F4B8D5C8D240F95
:10229000351F200F311F2F5E3F4F2D8F3E8F2CE5B6
:1022A00031E0260F371F240F351F020F131F0E5D5D
:1022B0001F4F0B8F1C8F0CE511E0060F171F098FA6
:1022C0001A8F05E611E04091700050E007D5298D86
:1022D0003A8D200F311F69A17AA14B01820E931E06
:1022E0002CE531E04BA15CA1240F351F200F311FDD
:1022F000260F371F922FA32F9F5EAF4F20917000A4
:10230000822F8F5F2CE531E0240F351F020F131F42
:10231000060F171FB8016E5D7F4F4F8D58A12D8D91
:102320003E8D0B8D1C8D7F926F925F924F923F92EC
:102330002F920C850F937F936F938F93AF939F93FF
:102340009F928F92702E812E6090700029011A0149
:102350000E94DB02ADB7BEB71896ADBFBEBF2F90CF
:102360003F904F905F906F907F9000917000015070
:10237000202F30E0220F331F05E511E0F901E00FB7
:10238000F11F0081003039F17F926F925F924F927E
:102390003F922F92BFE83B2EB0E04B2E3AD70091F0
:1023A00070000150202F30E0220F331F05E511E0AF
:1023B000F901E00FF11F0081BFE84B2EB0E05B2E6A
:1023C000302E209070000E94E71F2F903F904F907A
:1023D0005F906F907F9000917000202F30E0220F6F
:1023E000331F05E511E0F901E00FF11F0081003016
:1023F00039F17F926F925F924F923F922F92BFE896
:102400003B2EB0E04B2E05D700917000402F4F5F60
:10241000202F30E0220F331F05E511E0F901E00F16
:10242000F11F0081BFE84B2EB0E05B2E302E242E32
:102430000E94E71F2F903F904F905F906F907F908A
:102440009CCC20926E004DCC00916E00088325E15B
:102450001BE40FEB0A95F1F71A95E1F72A95D1F7EE
:10246000000008818F90A496CDBFDEBFDF91CF9191
:102470000895B0917100B1FD08C0B0B3B064B0BBB5
:10248000B0917100B260B09371000895CF93DF9363
:10249000CDB7DEB72897CDBFDEBF21962F923F92F2
:1024A0004F925F926F927F928F929F924F923F9244
:1024B0002F92B0E68B2EB0E09B2EBFE76B2EB0E0E4
:1024C0007B2EB3E84B2EB0E05B2EBCE62B2EB0E0AB
:1024D0003B2EB0E0BF93B7E6BF93B0E0BF93B4E646
:1024E000BF93B0E0BF93B1E6BF930E94DB20ADB7CE
:1024F000BEB71696ADBFBEBFB1E02B2E2BD40E9447
:102500000E322F903F902101B1E03B2EB1E02B2EF7
:102510000E94E71FFE013296B0E5B193B2E7B19396
:10252000BFE6B193B7E6B193BAE3B193B0E0B1932C
:102530008E010E5F1F4F2801B8E03B2EB1E02B2E1D
:102540000E94E71F4F908E01242C302E412E61D621
:102550008E012801BCE03B2EB1E02B2E0E94E71F2C
:10256000BAE3BA83B0E0BB838E010E5F1F4F280130
:10257000BCE03B2EB1E02B2E0E94E71FFE013296FD
:10258000BDE4B193B9E6B193BEE6B193BAE3B193BA
:10259000B0E0B1938E010E5F1F4F2801B1E03B2EDA
:1025A000B2E02B2E0E94E71FFE013296BCE2B193EF
:1025B000B3E5B193B5E6B193B3E6B193BAE3B193A2
:1025C000B0E0B1938E010E5F1F4F2801B9E03B2EA2
:1025D000B2E02B2E0E94E71F00917F001091800037
:1025E000007F1070B4E015950795BA95E1F74AE0C1
:1025F00050E074D320917F00309180002F703070B4
:10260000020F131F00937F0010938000009183003E
:1026100010918400007F1070B4E015950795BA956D
:10262000E1F74AE050E05AD32091830030918400D2
:102630002F703070200F311F20938300309384005F
:10264000122F50917F004AE0022F78D3005D5F93F4
:102650001F93402EB5E03B2EB2E02B2E0E94880542
:102660001F914AE0012F6AD3092F005D402EB6E08A
:102670003B2EB2E02B2E0E9488055F914AE0052F89
:102680005DD3005D5F93402EBEE03B2EB2E02B2E6B
:102690000E9488055F914AE0052F50D3092F005D05
:1026A000402EBFE03B2EB2E02B2E0E9488059F906B
:1026B0008F907F906F905F904F903F902F902796D4
:1026C000CDBFDEBFDF91CF910895CF93DF93CDB71C
:1026D000DEB76297CDBFDEBF2196B0915901B160E0
:1026E000B0935901B0917100BF77B0937100B1E020
:1026F000B0936F00B1E0B09370002F92B7E02B2E33
:102700000E9436092F90B1E02B2E321408F4D6C067
:1027100000916F00015010E04AEC52E0DFD22CE54E
:1027200031E0020F131F409170004150088B198B4C
:1027300005E611E050E0D2D228893989020F131F33
:10274000422D4150088B198B03E310E050E0C6D2B4
:1027500028893989020F131F9801AC2FBD2FF20170
:102760000E9430090AE30D930EE30D930EE30D93DF
:102770000EE30D93F3010E9430090CE30D930CE37B
:102780000D930CE30D9300E00D93A22FB32FFE01E8
:102790000E94300900E00D9300916F00015010E09D
:1027A0004AEC52E09BD22CE531E0020F131F40911E
:1027B00070004150088B198B05E611E050E08ED275
:1027C00028893989020F131F422D4150088B198B1C
:1027D00003E310E050E082D228893989020F131FE9
:1027E00098012F5E3F4FAC2FBD2FF2010E943009A0
:1027F0000AE30D930EE30D930EE30D930EE30D9399
:10280000F3010E9430090CE30D930CE30D930CE3EC
:102810000D9300E00D93A22FB32FFE010E9430090B
:1028200000E00D9300916F00015010E04AEC52E07F
:1028300055D22CE531E0020F131F088B198B05E6EA
:1028400011E04091700050E049D228893989020F87
:10285000131F422D4150088B198B03E310E050E009
:102860003DD228893989F801E20FF31FB0E2B19314
:10287000B0E2B193B0E2B193B0E2B193B0E2B19300
:10288000B0E2B193B0E2B193B0E2B193B0E2B193F0
:10289000B0E2B193B0E2B193B0E2B193B0E2B193E0
:1028A000B0E2B193B0E2B193B0E2B193B0E0B193D2
:1028B000231421F0022D0F5F202E27CFB2E0B0931A
:1028C0006F00B1E0B0937000B1E02B2E321408F429
:1028D00085C000916F00015010E04AEC52E0FED13B
:1028E0002CE531E0020F131F409170004150088B1E
:1028F000198B05E611E050E0F1D128893989020FE2
:10290000131F422D4150088B198B03E310E050E058
:10291000E5D128893989020F131FA02FB12FF201A9
:102920000E94300900E20D9304E50D9309E60D9332
:102930000DE60D9305E60D9302E70D9300E20D936E
:1029400003E50D9305E60D9304E70D9304E70D935E
:1029500000E00D9300916F00015010E04AEC52E04E
:10296000BDD12CE531E0020F131F088B198B05E652
:1029700011E04091700050E0B1D128893989020FEF
:10298000131F422D4150088B198B03E310E050E0D8
:10299000A5D128893989F801E20FF31FB9E6B1936F
:1029A000BEE6B193B7E6B193B0E2B193B9E6B193A5
:1029B000B3E7B193B0E2B193B3E7B193B5E6B193A6
:1029C000B4E7B193B5E6B193B4E6B193B0E0B19397
:1029D000231421F0022D0F5F202E78CF009170007C
:1029E000202F30E0220F331F05E511E0F901E00F41
:1029F000F11FB1E0B08300917000202F30E0220F72
:102A0000331F05E511E0020F131FF8013196B9E0FD
:102A1000B083B1E02B2E6196CDBFDEBFDF91CF91A9
:102A20000895B0913400B260B0933400B5D3B4D3FC
:102A3000B0913400BE7FB0933400B0917100BF7E7E
:102A4000B0937100B0913300B0FD06C0B091710039
:102A5000B4FF01C001C0F6CF9FD39ED39DD39CD3BA
:102A60009BD39AD399D398D3B0913400BD7FB093C0
:102A7000340092D391D30895CF93DF93CDB7DEB7CF
:102A80002397CDBFDEBF2196B0E0B883B0E8B9830D
:102A9000B0E0BA8309811A81103009F4003009F4DA
:102AA00033C07AD379D3B0913400BD7FB093340072
:102AB00073D372D3B0913400BE7FB0933400B09121
:102AC0007100BF7EB0937100B0913300B0FD06C0BD
:102AD000B0917100B4FF01C001C0F6CFB0913300D6
:102AE000B1FF04C018810981012B088355D354D349
:102AF000B0913400B160B093340009811A81169509
:102B0000079509831A83C6CFB0913400BD7FB09377
:102B1000340042D341D3B0E03B1611F4B0E02B16A1
:102B200029F0B0913400B260B093340035D334D37F
:102B3000B0913400BE7FB0933400B0917100BF7E7D
:102B4000B0937100B0913300B0FD06C0B091710038
:102B5000B4FF01C001C0F6CF1FD31ED3B091340023
:102B6000B160B093340018D317D3B0913400B26081
:102B7000B093340008812296CDBFDEBFDF91CF91A4
:102B8000089516E00BE20A95F1F71A95E1F70000B7
:102B900000000895CF93DF93CDB7DEB72397CDBF65
:102BA000DEBF2196B1E0B883B0E8B983B0E0BA8364
:102BB00009811A81103009F4003009F43BC0ECD2CD
:102BC000EBD2EAD2E9D2B0913400B160B0933400D4
:102BD000E3D2E2D209811A8102211070103009F487
:102BE000003031F0B0913400BD7FB093340005C0A7
:102BF000B0913400B260B0933400CED2CDD2B09157
:102C00003400BE7FB0933400B0917100BF7EB093AA
:102C10007100B0913300B0FD06C0B0917100B4FFF7
:102C200001C001C0F6CF09811A8116950795098365
:102C30001A83BECFB0E0B883AFD2AED2B091340029
:102C4000B160B0933400A8D2A7D2B0913400BD7F58
:102C5000B0933400A1D2A0D29FD29ED2B0913400C2
:102C6000BE7FB0933400B0917100BF7EB09371000D
:102C7000B0913300B0FD06C0B0917100B4FF01C047
:102C800001C0F6CFB0E0B88387D286D2B0913300CE
:102C9000B1FF03C00881016008837ED27DD27CD25F
:102CA0007BD27AD279D278D277D276D275D274D2D8
:102CB00073D272D271D270D26FD2B0913400B1603F
:102CC000B0933400B0913400B260B0933400088106
:102CD0002296CDBFDEBFDF91CF9108959801249F4A
:102CE0008001259F100D349F100D0895B091710043
:102CF000B77FB09371000E946A34B0917100B860E0
:102D0000B09371000895B0913400BD7FB09334004A
:102D100043D242D2B0913400BE7FB09334003CD253
:102D20003BD2B0913400B260B093340035D234D28B
:102D3000B0913400B160B09334000895992779E0E0
:102D400004C0991F941708F0941B001F7A95C9F7C7
:102D5000009508952F923F924F92B1E02B16D9F42F
:102D6000B3E04B2EBFEF3B2EB4E62B2E0E943A0A67
:102D70002DE01DE208ED0A95F1F71A95E1F72A9585
:102D8000D1F700000000B3E04B2EBFEF3B2E222412
:102D90000E943A0A1AC0B3E04B2EBFEF3B2E22240A
:102DA0000E943A0A2DE01DE208ED0A95F1F71A9506
:102DB000E1F72A95D1F700000000B3E04B2EBFEFFA
:102DC0003B2EB4E62B2E0E943A0A4F903F902F9054
:102DD0000895CF93DF93CDB7DEB72297CDBFDEBF87
:102DE0002196B0915901B160B0935901B091710031
:102DF000BF77B0937100B1E0B0936F00B1E0B093D2
:102E000070002F92232C0E9436092F90B1E02B2EB8
:102E1000321408F4D7C000916F00015010E04AEC62
:102E200052E05CDF2CE531E0020F131F409170008F
:102E300041500883198305E611E050E04FDF2881F7
:102E40003981020F131F422D41500883198303E378
:102E500010E050E043DF28813981F801E20FF31FD1
:102E6000B0E5B193BCE6B193B3E7B193B0E2B193EF
:102E7000B3E4B193B8E6B193B3E7B193B0E2B193E1
:102E8000B0E5B193B2E7B193B7E6B193B0E2B193D5
:102E9000BEE4B193B5E7B193BDE6B193B0E0B193B1
:102EA00000916F00015010E04AEC52E017DF2CE572
:102EB00031E0020F131F40917000415008831983C5
:102EC00005E611E050E00ADF28813981020F131F67
:102ED000422D41500883198303E310E050E0FEDEE9
:102EE00028813981020F131FF8017196B0E5B19363
:102EF000BCE6B193B3E7B193B0E2B193B3E4B1935D
:102F0000B8E6B193B3E7B193B0E2B193B0E5B19352
:102F1000B2E7B193B7E6B193B0E2B193BEE4B19337
:102F2000B5E7B193BDE6B193B0E0B19300916F0006
:102F3000015010E04AEC52E0D1DE2CE531E0020F06
:102F4000131F0883198305E611E04091700050E0DB
:102F5000C5DE28813981020F131F422D415008839D
:102F6000198303E310E050E0B9DE28813981F801CC
:102F7000E20FF31FB0E5B193B2E7B193BAE3B193B7
:102F8000B1E3B193B0E2B193B2E3B193B0E2B193E4
:102F9000B3E3B193B0E2B193B4E3B193B0E2B193D0
:102FA000B5E3B193B0E2B193B6E3B193B0E2B193BC
:102FB000B7E3B193B0E0B193231421F0022D0F5F7A
:102FC000202E26CFB2E0B09370003F922F92B2E055
:102FD0003B2E20906F000E9472072F903F90B2E02E
:102FE000B0936F00B1E0B0937000B1E02B2E3214BB
:102FF00008F4AAC000916F00015010E04AEC52E0C2
:103000006DDE2CE531E0020F131F4091700041503E
:103010000883198305E611E050E060DE28813981DC
:10302000020F131F422D41500883198303E310E060
:1030300050E054DE28813981F801E20FF31FB0E53A
:10304000B193B2E7B193BFE6B193B7E6B193B2E7FC
:10305000B193B1E6B193BDE6B193B0E2B193B0E202
:10306000B193B0E2B193B0E2B193B0E2B193B9E6FB
:10307000B193B3E7B193B0E2B193B3E7B193B5E6DF
:10308000B193BCE6B193B3E6B193B4E7B193B5E6BF
:10309000B193B4E6B193B0E0B19300916F000150E9
:1030A00010E04AEC52E01ADE2CE531E0020F131F6B
:1030B0004091700041500883198305E611E050E00B
:1030C0000DDE28813981020F131F422D41500883E4
:1030D000198303E310E050E001DE28813981F80113
:1030E000E20FF31FB7E4B193BFE6B193B9E6B19332
:1030F000BEE6B193B7E6B193B0E2B193B4E7B19352
:10310000BFE6B193B0E2B193B9E4B193B4E7B19340
:10311000B7E2B193B3E7B193B0E2B193B3E5B19342
:10312000B5E6B193B4E7B193B4E7B193B9E6B1931F
:10313000BEE6B193B7E6B193B0E0B193231421F0AA
:10314000022D0F5F202E53CF009170000150202FD1
:1031500030E0220F331F05E511E0F901E00FF11F08
:10316000BAE0B083B1E02B2E2196CDBFDEBFDF9158
:10317000CF9108950FB6BCB3B1FF02C00000FBCFE2
:10318000F8943FBA2EBA4DBABCB3B460BCBBBCB362
:10319000B260BCBB0FBE089502E00A95F1F70000D3
:1031A000000008951AE303E20A95F1F71A95E1F792
:1031B0000000000008952F928F927F926F925F928D
:1031C0004F923F922F929FDDB0ED2B2EE3DC222415
:1031D000E1DC2F903F904F903F922F92242CDADC2D
:1031E0002F903F902F92232CD5DC2F90D3DC5F9033
:1031F0006F905F92262CCEDC5F90252CCBDC7F90ED
:10320000272CC8DC8F90282CC5DC0BDC0ADC2F9027
:103210000895E32DF42DB0E2B193B0E2B193B0E3A1
:10322000B193B0E0B193032D142D0E5F1F4F9801A1
:10323000B0E02B1681F04AE0022D80DD092F005D01
:10324000F90100834AE0022D79DD202E8901015029
:1032500010409801EDCF0895CF93DF93CDB7DEB73F
:103260002297CDBFDEBF21962F923F92B0E0B09360
:10327000A700B093A800B1E0B093A600B1E0B0936E
:10328000A900B1E0B09352010091A600015010E0F6
:1032900048E150E023DD2AEA30E0020F131F40919D
:1032A000A9004150088319830CE010E050E016DDBE
:1032B00028813981200F311F00915201015010E007
:1032C000000F111F000F111F020F131F0883198316
:1032D0000091A7001091A8000F5F1F4F18010E94D6
:1032E000163318812981E12FF22F00830091A60067
:1032F000015010E048E150E0F1DC2AEA30E0020F32
:10330000131F4091A9004150088319830CE010E07D
:1033100050E0E4DC28813981200F311F00915201F7
:10332000015010E0000F111F000F111F020F131F9B
:103330000F5F1F4F088319830091A7001091A80009
:103340000E5F1F4F18010E94163318812981E12F4B
:10335000F22F00830091A600015010E048E150E0F8
:10336000BDDC2AEA30E0020F131F4091A900415052
:10337000088319830CE010E050E0B0DC288139812B
:10338000200F311F00915201015010E0000F111F5A
:10339000000F111F020F131F0E5F1F4F08831983A9
:1033A0000091A7001091A8000D5F1F4F18010E9407
:1033B000163318812981E12FF22F00830091A60096
:1033C000015010E048E150E089DC2AEA30E0020FC9
:1033D000131F4091A9004150088319830CE010E0AD
:1033E00050E07CDC28813981200F311F009152018F
:1033F000015010E0000F111F000F111F020F131FCB
:103400000D5F1F4F088319830091A7001091A8003A
:103410000C5F1F4F18010E94163318812981E12F7C
:10342000F22F00830091A7001091A8000C5F1F4F9E
:103430000093A7001093A80000915201033031F0CF
:10344000009152010F5F009352011ECF0091A9001D
:10345000023031F00091A9000F5F0093A90011CF55
:103460000091A600073031F00091A6000F5F009395
:10347000A60004CF3F902F902196CDBFDEBFDF91F5
:10348000CF91089505E80A95F1F700000895CF93CC
:10349000DF93CDB7DEB7A097CDBFDEBF21963F92B9
:1034A0004F925F926F927F928F929F92B3E0B09310
:1034B0005401B1E0B093A900B3E0B093520120925F
:1034C000A600FE013896BCE3B193B5E4B193B8E72A
:1034D000B193BEE3B193B0E0B193AE01485F5F4FEB
:1034E000FE013D96B3E5B193B5E6B193B4E7B19370
:1034F000BEE6B193B7E6B193B0E0B1939E01235F0E
:103500003F4FFE017396B0E5B193B2E7B193BFE6CA
:10351000B193B7E6B193B0E0B1938E010D5E1F4F4A
:103520002F924A013901280130905401B1E02B2E2D
:103530000E94C90B772460905401B1E05B2E40904B
:103540005401B2E02B2EB0E03B2E0E94380E2F909B
:103550000883B0917100B064B0937100B0917100B4
:10356000B6FF28C50881013009F040C0B7E0B0932C
:103570005401B0917100BF7BB0937100B2E0B09381
:10358000A900B3E0B09352012092A6002F92B7E0B9
:103590003B2EB1E02B2E1DDC2F902F9277246090D4
:1035A0005401B1E05B2E40905401B0E03B2E0E94EC
:1035B000380E0A830091A900015010E04CE050E061
:1035C0008DDB2AE331E0200F311F009152010150C1
:1035D00010E0000F111F000F111FF801E20FF31F81
:1035E0000A8100830E9426332F90E3C408810230B1
:1035F00009F061C4B3E0B0935401B0917100BF7B96
:10360000B0937100B2E0B093A900B3E0B09352015F
:103610002092A600FE013896BCE3B193B5E4B193C5
:10362000B8E7B193BEE3B193B0E0B193AE01485FA8
:103630005F4FFE013D96B1E4B193B5E7B193B4E7B6
:10364000B193BFE6B193B0E0B1939E01235F3F4FCA
:10365000FE017296BDE4B193B1E6B193BEE6B193BB
:10366000B5E7B193BCE6B193B0E0B1938E010E5EC5
:103670001F4F2F924A013901280130905401B1E0C7
:103680002B2E0E94C90B772460905401B1E05B2E71
:1036900040905401B1E02B2EB0E03B2E0E94380E3A
:1036A0002F900983B0915901B160B0935901B09145
:1036B0005901B0FFFFC30981023009F0FEC0B7E035
:1036C000B0935401B0915901BE7FB0935901B2E05B
:1036D000B093A900B3E0B09352012092A6002F92BC
:1036E000B7E03B2EB1E02B2E74DB2F902F92772486
:1036F00060905401B1E05B2E40905401B0E03B2E4D
:103700000E94380E0A830091A900015010E04CE09D
:1037100050E0E4DA2AE331E0200F311F009152013A
:10372000015010E0000F111F000F111FF801E20FF0
:10373000F31F0A810083B2E0B093A900B2E0B09316
:1037400052010A810093A6000E940E32FE013896B3
:10375000B0E5B193BCE6B193B3E7B193B0E2B193F6
:10376000B4E4B193BFE6B193B0E2B193BEE6B193D6
:10377000BFE6B193B2E7B193BDE6B193B1E6B193C1
:10378000BCE6B193B0E2B193B7E5B193BFE6B193B4
:10379000B0E0B1938E01085F1F4F2801B1E03B2ECE
:1037A000B1E02B2E14D4FE013896B2E7B193BBE6FC
:1037B000B193B0E2B193B7E7B193B5E6B193B0E29C
:1037C000B193B3E7B193B1E6B193B6E7B193B5E680
:1037D000B193B0E2B193B4E7B193B9E6B193BDE66A
:1037E000B193B5E6B193B3E7B193B1E2B193B1E26E
:1037F000B193B1E2B193B0E0B1938E01085F1F4F76
:103800002801B1E03B2EB2E02B2EE1D329E01EE1EE
:1038100005EE0A95F1F71A95E1F72A95D1F7000020
:10382000B1E04B2E33242A80B0D50E940E32FE0127
:103830003896B3E5B193B1E6B193B6E7B193B9E683
:10384000B193BEE6B193B7E6B193B0E2B193B9E6F6
:10385000B193BEE6B193B0E0B1938E01085F1F4F04
:103860002801B1E03B2EB1E02B2EB1D3FE013896FA
:10387000BDE4B193B5E6B193BDE6B193BFE6B193B4
:10388000B2E7B193B9E7B193B0E0B1938E01085FAD
:103890001F4F2801B1E03B2EB2E02B2E98D329E038
:1038A0001EE105EE0A95F1F71A95E1F72A95D1F791
:1038B00000000E9426332F90FCC20981013009F0DC
:1038C0007AC2B7E0B09354012F92B7E03B2EB1E03B
:1038D0002B2E7FDA2F902F92772460905401B1E045
:1038E0005B2E40905401B0E03B2E0E94380E2F908A
:1038F0000A83B2E0B093A900B3E0B09352012092E2
:10390000A6002CE030E00AE311E0020F131FF801DB
:1039100038960A810083B2E0B0935401B2E0B093CC
:10392000A900B1E0B09352010A810093A600BDE462
:10393000B887B9E6B987BEE6BA87B0E0BB879E0113
:10394000285F3F4FFE013C96B8E4B193B5E6B193D2
:10395000B1E6B193B4E7B193B5E6B193B2E7B193F1
:10396000B0E0B1938E01045F1F4F2F9239012801FF
:1039700030905401B1E02B2E0E9465130091A600F7
:10398000015010E048E150E0A9D92AEA30E0020FE6
:10399000131F4091A90041500E8F1F8F0CE010E0C3
:1039A00050E09CD92E8D3F8D200F311F0091520188
:1039B000015010E0000F111F000F111F020F131F05
:1039C000F8013196008110E077246090540155246D
:1039D000BBE34B2E18010E94380E0B83B3E5B8876A
:1039E000B5E6B987B3E6BA87B0E0BB879E01285F2A
:1039F0003F4FFE013C96B8E4B193B5E6B193B1E612
:103A0000B193B4E7B193B5E6B193B2E7B193B0E047
:103A1000B1938E01045F1F4F39012801309054018A
:103A2000B1E02B2E0E9465130091A600015010E01A
:103A300048E150E053D92AEA30E0020F131F4091C9
:103A4000A90041500E8F1F8F0CE010E050E046D9C6
:103A50002E8D3F8D200F311F00915201015010E03B
:103A6000000F111F000F111F020F131FF8013296D4
:103A7000008110E07724609054015524BBE34B2E65
:103A800018010E94380E0C830091A600015010E02E
:103A900048E150E023D92AEA30E0020F131F409199
:103AA000A90041500E8F1F8F0CE010E050E016D996
:103AB0002E8D3F8D200F311F00915201015010E0DB
:103AC000000F111F000F111F020F131FF801319675
:103AD0000B8100830091A600015010E048E150E006
:103AE000FDD82AEA30E0020F131F4091A90041508F
:103AF0000E8F1F8F0CE010E050E0F0D82E8D3F8D20
:103B0000200F311F00915201015010E0000F111FD2
:103B1000000F111F020F131FF80132960C81008352
:103B2000B2E0B093A900B2E0B09352010A810093D1
:103B3000A600BDE4B887B9E6B987BEE6BA87B0E0AB
:103B4000BB879E01285F3F4FFE013C96BDE4B193C9
:103B5000BFE6B193B4E7B193BFE6B193B2E7B193D7
:103B6000B0E0B1938E01045F1F4F390128013090FE
:103B70005401B1E02B2E0E9465130091A600015064
:103B800010E048E150E0AAD82AEA30E0020F131F03
:103B90004091A90041500E8F1F8F0CE010E050E0C3
:103BA0009DD82E8D3F8D200F311F00915201015065
:103BB00010E0000F111F000F111F020F131FF8015B
:103BC0003196008110E07724609054015524BBE3C6
:103BD0004B2E18010E94380E0D83B3E5B887B5E669
:103BE000B987B3E6BA87B0E0BB879E01285F3F4F35
:103BF000FE013C96BDE4B193BFE6B193B4E7B19347
:103C0000BFE6B193B2E7B193B0E0B1938E01045F28
:103C10001F4F3901280130905401B1E02B2E0E9432
:103C200065130091A600015010E048E150E056D81D
:103C30002AEA30E0020F131F4091A90041500E8F75
:103C40001F8F0CE010E050E049D82E8D3F8D200FE3
:103C5000311F00915201015010E0000F111F000FA1
:103C6000111F020F131FF8013296008110E0772414
:103C7000609054015524BBE34B2E18010E94380E6E
:103C80000E830091A600015010E048E150E026D8D4
:103C90002AEA30E0020F131F4091A90041500E8F15
:103CA0001F8F0CE010E050E019D82E8D3F8D200FB3
:103CB000311F00915201015010E0000F111F000F41
:103CC000111F020F131FF80131960D81008300911F
:103CD000A600015010E048E150E000D82AEA30E0A8
:103CE000020F131F4091A90041500E8F1F8F0CE04F
:103CF00010E050E00E946E162E8D3F8D200F311F78
:103D000000915201015010E0000F111F000F111F10
:103D1000020F131FF80132960E8100830E940E32AB
:103D2000FE013896B3E5B193B1E6B193B6E7B1932E
:103D3000B9E6B193BEE6B193B7E6B193B0E2B19301
:103D4000B9E6B193BEE6B193B0E0B1938E01085FDE
:103D50001F4F2801B1E03B2EB1E02B2E38D1FE01E0
:103D60003896BDE4B193B5E6B193BDE6B193BFE635
:103D7000B193B2E7B193B9E7B193B0E0B1938E01DB
:103D8000085F1F4F2801B1E03B2EB2E02B2E1FD160
:103D900029E01EE105EE0A95F1F71A95E1F72A955B
:103DA000D1F700000E9426332F90B0915901BE7FB9
:103DB000B09359017EC00981033009F07AC0B091F7
:103DC0005901BE7FB09359012F920E940E32FE011D
:103DD0003896B5E4B193B8E7B193B9E6B193B4E7D7
:103DE000B193B0E2B193B6E4B193B2E7B193BFE659
:103DF000B193BDE6B193B0E2B193B3E5B193B5E64B
:103E0000B193B4E7B193B4E7B193B9E6B193BEE629
:103E1000B193B7E6B193B0E0B1938E01085F1F4F45
:103E20002801B1E03B2EB1E02B2ED1D0FE01389617
:103E3000B0E5B193BCE6B193B3E7B193B0E2B1930F
:103E4000B0E5B193B2E7B193B5E6B193B3E7B193FF
:103E5000B3E7B193B0E2B193B8E4B193B4E7B193EF
:103E6000B0E2B193BDE6B193B9E6B193B3E6B193D5
:103E7000B2E7B193BFE6B193B0E2B193B3E5B193CA
:103E8000B7E5B193B0E0B1938E01085F1F4F2801F1
:103E9000B1E03B2EB2E02B2E9AD02F9029E01EE10C
:103EA00005EE0A95F1F71A95E1F72A95D1F700008A
:103EB00000C0FDCB7EC00881033009F07AC0B0910C
:103EC0007100BF7BB09371002F920E940E32FE01F1
:103ED0003896B5E4B193B8E7B193B9E6B193B4E7D6
:103EE000B193B0E2B193B6E4B193B2E7B193BFE658
:103EF000B193BDE6B193B0E2B193B3E5B193B5E64A
:103F0000B193B4E7B193B4E7B193B9E6B193BEE628
:103F1000B193B7E6B193B0E0B1938E01085F1F4F44
:103F20002801B1E03B2EB1E02B2E51D0FE01389696
:103F3000B0E5B193BCE6B193B3E7B193B0E2B1930E
:103F4000B0E5B193B2E7B193B5E6B193B3E7B193FE
:103F5000B3E7B193B0E2B193B8E4B193B4E7B193EE
:103F6000B0E2B193BDE6B193B9E6B193B3E6B193D4
:103F7000B2E7B193BFE6B193B0E2B193B3E5B193C9
:103F8000B7E5B193B0E0B1938E01085F1F4F2801F0
:103F9000B1E03B2EB2E02B2E1AD02F9029E01EE18B
:103FA00005EE0A95F1F71A95E1F72A95D1F7000089
:103FB00000C0D4CA9F908F907F906F905F904F9079
:103FC0003F906F96CDBFDEBFDF91CF9108952F92C6
:103FD000B1E02B1619F4B0E82B2E14C0B2E02B166A
:103FE00019F4B0EC2B2E0EC0B3E02B1619F4B4E983
:103FF0002B2E08C0B4E02B1619F4B4ED2B2E02C002
:10400000B0E82B2E032D0150020D202E202E0E94F1
:104010006A34B0917100B77FB09371009201F901D9
:104020000081002381F0F90100813F932F932F92AB
:10403000202E0E9476162F902F913F9189010F5FBD
:104040001F4F9801ECCFB0917100B860B093710030
:104050002F900895B1E07B1609F050C0B0E0BFBDCD
:10406000B0E0BEBDB0E0BDBDB0E0BCBD4FBC6BBC00
:104070005ABC69BC58BCBBE02B1639F40FB50160C3
:104080000FBD0EB5077E0EBD38C0BCE02B1639F44F
:10409000BFB5B260BFBD0EB5077E0EBD2EC0BDE080
:1040A0002B1639F40FB503600FBD0EB5077E0EBD9C
:1040B00024C0BEE02B1639F40FB501600FBD0EB55C
:1040C00008600EBD1AC0BFE02B1639F40FB50260B0
:1040D0000FBD0EB508600EBD10C0B0E12B1639F44F
:1040E0000FB503600FBD0EB508600EBD06C00FB55D
:1040F0000C7F0FBD0EB5077E0EBD03C00FB50C7350
:104100000FBD30927E000EB503290EBD089509E063
:10411000021580F44AE0022D0E949E16000F000F47
:10412000000F000F102F4AE0022D0E949E16092F4B
:10413000012B01C0022D102F012F0895CF93DF9383
:10414000CDB7DEB72197CDBFDEBF2196B0E0B883F3
:10415000B42D11E0BB2319F0110FBA95E9F7F10165
:104160000081102300E0103009F001E00615E9F4A9
:1041700000E0051540F40E94C1150E94C115052DEF
:104180000150502EF5CFB42D11E0BB2319F0110FC3
:10419000BA95E9F7F1010081102300E0103009F031
:1041A00001E0061511F4BFEFB8830881CDBFDEBF73
:1041B000DF91CF910895CF93DF93CDB7DEB72596EA
:1041C0002F923F9208811981088319830A811B81EC
:1041D0000A831B830C811D810C831D839F928F9208
:1041E0007F926F925F924F923F922F920E9483161E
:1041F000B0ED2B2E0E94CA1522240E94CA150E94DF
:104200008316B1ED2B2E0E94CA15B1E02B2EB0E023
:104210003B2E0E943C152F903F904F905F906F90E7
:104220007F90F30100835F924F923F922F92B1E013
:104230002B2EB0E03B2E0E943C152F903F904F90CC
:104240005F90F20100833F922F92B1E02B2EB0E0FD
:104250003B2E0E943C152F903F90F1010083B1E06E
:104260002B2EB0E03B2E0E943C15E881F9810083A3
:10427000B1E02B2EB0E03B2E0E943C158F909F901A
:10428000F4010083B1E02B2EB0E03B2E0E943C15E0
:10429000EA81FB810083222433240E943C15EC81B7
:1042A000FD8100830E9411153F902F90DF91CF91E7
:1042B00008950091A500007F102F1695169516956C
:1042C00016950AE0109F102D0091A5000F70010FA8
:1042D0000093A5000091A300007F102F169516955E
:1042E000169516950AE0109F102D0091A3000F70EF
:1042F000010F0093A30000918E00007F102F1695F0
:104300001695169516950AE0109F102D00918E00B7
:104310000F70010F00938E000091530107700093FE
:1043200053010091A400007F102F16951695169545
:1043300016950AE0109F102D0091A4000F70010F38
:104340000093A40000915A010071102F1695169544
:10435000169516950AE0109F102D00915A010F70C6
:10436000010F00935A0100915B01007F102F1695F9
:104370001695169516950AE0109F102D00915B0179
:104380000F70010F00935B010895CF93DF93CDB7BA
:10439000DEB7A097CDBFDEBF21965F926F927F926E
:1043A0008F929F92B1E0B093A9002092A600B1E055
:1043B000B0935201B0915901B160B0935901B091DD
:1043C0007100BE7FB09371002092A600B1E0B0935F
:1043D0005301B1E0B0937200B0915901B0FFC6C073
:1043E000B0E03B1609F048C04F923F922F926624EE
:1043F000B5E05B2EB3E04B2EB0E32B2EB0E03B2EAE
:104400009DDE2F903F904F900023B1F0B09171004E
:10441000B160B0937100B1E03B2EB0915901BE7F05
:10442000B09359014F923F922F92B1E02B2E0E94F0
:10443000AA162F903F904F904F923F922F92B1E04B
:104440006B2EB5E05B2EB3E04B2EB0E32B2EB0E02D
:104450003B2E74DE2F903F904F90009071001127FB
:1044600000FC1395012339F0B1E03B2EB0915901C6
:10447000BE7FB093590179C0B0915901BE7FB0930E
:1044800059014F923F922F920E940E32FE013296B6
:10449000B7E5B193B1E6B193B4E7B193B9E6B1939F
:1044A000BEE6B193B7E6B193B0E2B193B6E6B1938D
:1044B000BFE6B193B2E7B193B0E2B193BAE3B1937F
:1044C000B0E0B1938E010E5F1F4F2801B1E03B2E8B
:1044D000B1E02B2E7CDDFE013296B0E5B193B2E760
:1044E000B193B5E6B193B3E7B193B3E7B193B9E64E
:1044F000B193BEE6B193B7E6B193B0E2B193B8E43D
:10450000B193B5E6B193B1E6B193B4E7B193B5E633
:10451000B193B2E7B193B0E2B193BDE6B193B9E61E
:10452000B193B3E6B193B2E7B193BFE6B193B0E212
:10453000B193B3E5B193B7E5B193B0E0B1938E0118
:104540000E5F1F4F2801B1E03B2EB2E02B2E3FDD66
:104550002F903F904F9029E01EE105EE0A95F1F76C
:104560001A95E1F72A95D1F7000036CFB1E03B1656
:1045700009F07AC6B1E0B093A9002092A600B1E09C
:10458000B09352014F923F922F920E940E32B0E6AA
:104590008B2EB0E09B2EB3E66B2EB0E07B2EB2E606
:1045A0004B2EB0E05B2EBCE62B2EB0E03B2EB0E0F5
:1045B000BF93B7E6BF93B0E0BF93B4E6BF93B0E05C
:1045C000BF93B1E6BF93F7DDADB7BEB71696ADBFEB
:1045D000BEBFB4EA8B2EB0E09B2EB5EA6B2EB0E0E6
:1045E0007B2EB3EA4B2EB0E05B2EBEE82B2EB0E064
:1045F0003B2EB1E0BF93BBE5BF93B1E0BF93BAE5FB
:10460000BF93B1E0BF93B3E5BF93D5DDADB7BEB700
:104610001696ADBFBEBF2F903F904F90B0915901FD
:10462000B160B0935901B1E04B1609F091C0B1E00F
:10463000B0935201B1E0B093A9000091A6000150DF
:1046400010E048E150E00E946E162AEA30E0020FC6
:10465000131F4091A90041500B8F1C8F0CE010E0FC
:1046600050E00E946E162B8D3C8D200F311F009163
:104670005201015010E0000F111F000F111F020F17
:10468000131FF8013196BCE3B0830091A6000150DE
:1046900010E048E150E00E946E162AEA30E0020F76
:1046A000131F4091A90041500B8F1C8F0CE010E0AC
:1046B00050E00E946E162B8D3C8D200F311F009113
:1046C0005201015010E0000F111F000F111F020FC7
:1046D000131FF8013296BCE3B0830091A60001508D
:1046E00010E048E150E00E946E162AEA30E0020F26
:1046F000131F4091A90041500B8F1C8F0CE010E05C
:1047000050E00E946E162B8D3C8D200F311F0091C2
:104710005201015010E0000F111F000F111FF8018E
:10472000E20FF31FB1E0B0830091A900023031F035
:104730000091A9000F5F0093A9007FCF0091520163
:10474000033031F0009152010F5F0093520172CF9C
:10475000B2E0B093A9002092A600B1E0B09352015C
:10476000022D015010E048E150E00E946E162AEA46
:1047700030E0020F131F045F1F4FF80133960081D2
:104780004F923F922F92B8E63B2EB0E04B2E202E58
:104790000E940919B8E62B2EB0E03B2E0E941B0B9D
:1047A0002F903F904F9008831983B0915901B160C9
:1047B000B0935901B0917100BD7FB0937100B1E029
:1047C000B0936500B1E04B1600E009F40FEF0F8FD6
:1047D0000091A600015010E048E150E00E946E16E2
:1047E0000D8F1E8F2AEA30E0020F131F4091A9009F
:1047F00041500B8F1C8F0CE010E050E00E946E16B1
:104800002B8D3C8DA801420F531F20915201215046
:10481000722F80E0770F881F770F881F272F382F80
:10482000240F351FF901319630812091A3003217F2
:1048300040E008F04FEF2AEA30E05D8D6E8D250FE5
:10484000361F200F311F270F381FF9013296308194
:104850002091A500321720E008F02FEF42232AEA2A
:1048600030E0250F361F020F131FE72FF82FE00F40
:10487000F11F00810030B0E009F0BFEF0B2F142FC3
:1048800010230F8D012B09F4ACC04F923F922F9251
:10489000BFE84B2EB0E05B2E288039800E94F504E3
:1048A000BFE84B2EB0E05B2E2090A300B0E03B2E83
:1048B0000E94F5042F903F904F90009165000030CA
:1048C000B1F50091A600015010E048E150E00E94CF
:1048D0006E162AEA30E0020F131F0B8F1C8F0CE0BC
:1048E00010E04091A90050E00E946E162B8D3C8D87
:1048F000200F311F00915201015010E0000F111FD5
:10490000000F111F020F131FF801339600814F9201
:104910003F922F9240905201BFEF3B2E202E0E94DB
:104920003A0A2F903F904F90B1E0B093650025E098
:104930001FE002EF0A95F1F71A95E1F72A95D1F7F2
:104940004F923F922F926624B5E05B2EB2E04B2E41
:10495000B0E32B2EB0E03B2EF1DB2F903F904F9039
:10496000002391F0B0917100B160B0937100B091EB
:104970005901BE7FB0935901B0B3BF7BB0BBB091BA
:104980005901BE7FB09359014F923F922F92B1E0EF
:104990006B2EB5E05B2EB2E04B2EB0E32B2EB0E0D9
:1049A0003B2ECCDB2F903F904F9000907100112751
:1049B00000FC13950123A9F0B0915901BE7FB0937B
:1049C00059014F923F922F9240905201BFEF3B2EE0
:1049D00022240E943A0A2F903F904F90B0B3BF7BA1
:1049E000B0BB4F923F922F9240905201BFEF3B2EAF
:1049F00022240E943A0A80905B0170905A016090D4
:104A000053015090A4004424332420908E000E942F
:104A1000DB18B4EA8B2EB0E09B2EB5EA6B2EB0E02B
:104A20007B2EB3EA4B2EB0E05B2EBEE82B2EB0E01F
:104A30003B2EB1E0BF93BBE5BF93B1E0BF93BAE5B6
:104A4000BF93B1E0BF93B3E5BF93B5DBADB7BEB7DE
:104A50001696ADBFBEBF2F903F904F90B0917100A2
:104A6000BE7FB0937100B0E0B0936500B2E0B09348
:104A7000A900B0E0B0936600B0E0B0937500B0B3A9
:104A8000BF7BB0BBB0917100BE7FB0937100B0919D
:104A90005901B160B0935901B0917100BD7FB093DD
:104AA0007100B0915901B0FFDAC30091A600015026
:104AB00010E048E150E00E946E160D8F1E8F2AEA2A
:104AC00030E0020F131F4091A90041500B8F1C8F43
:104AD0000CE010E050E00E946E162B8D3C8DA8017A
:104AE000420F531F209152012150722F80E0770F07
:104AF000881F770F881F272F382F240F351FF901A4
:104B0000319630812091A300321760E009F46FEFF5
:104B10004AEA50E02D8D3E8D240F351F020F131FE2
:104B2000070F181FF801329610810091A500101789
:104B300000E008F40FEF062329F0B0915901BE7F81
:104B4000B0935901B0915901B0FB90F9B1E04B1607
:104B500000E009F40FEF0F8F0091A600015010E064
:104B600048E150E00E946E160D8F1E8F2AEA30E059
:104B7000020F131F4091A90041500B8F1C8F0CE0B6
:104B800010E050E00E946E162B8D3C8DA801420F64
:104B9000531F209152012150722F80E0770F881F00
:104BA000770F881F272F382F240F351FF9013196D3
:104BB00030812091A3003217B0E008F0BFEF3B2F07
:104BC0002F8D622F632B4AEA50E02D8D3E8D240FEE
:104BD000351F020F131F070F181FF801329610819F
:104BE0000091A5000117B0E008F4BFEF0B2F162FBE
:104BF000102B002790FD0395012309F406C24F9264
:104C00003F922F92B4EA8B2EB0E09B2EB5EA6B2E2A
:104C1000B0E07B2EB3EA4B2EB0E05B2EBEE82B2E2D
:104C2000B0E03B2EB1E0BF93BBE5BF93B1E0BF93D3
:104C3000BAE5BF93B1E0BF93B3E5BF93BCDAADB7BC
:104C4000BEB71696ADBFBEBF2F903F904F9031DBE1
:104C50004F923F922F92BFE83B2EB0E04B2E209018
:104C6000A6000E9409192F903F904F900091650077
:104C70000030B9F50091A600015010E048E150E085
:104C80000E946E162AEA30E0020F131F4091A9001D
:104C900041500B8F1C8F0CE010E050E00E946E160C
:104CA0002B8D3C8D200F311F00915201015010E0DF
:104CB000000F111F000F111F020F131FF801339671
:104CC00000814F923F922F9240905201BFEF3B2EB6
:104CD000202E0E943A0A2F903F904F90B1E0B0935F
:104CE00065004F923F922F926624B5E05B2EB3E0B1
:104CF0004B2EB0E32B2EB0E03B2E20DA2F903F90CE
:104D00004F90002319F0B2E0B09365004F923F92AC
:104D10002F92B1E06B2EB5E05B2EB3E04B2EB0E3EB
:104D20002B2EB0E03B2E0ADA2F903F904F900023BD
:104D300009F449C0B0915901BE7FB09359014F9217
:104D40003F922F9240905201BFEF3B2E22240E94AF
:104D50003A0A29E01EE105EE0A95F1F71A95E1F706
:104D60002A95D1F700000091A600015010E048E11B
:104D700050E00E946E162AEA30E0020F131F4091A5
:104D8000A90041500B8F1C8F0CE010E050E00E94F6
:104D90006E162B8D3C8D020F131F0C5F1F4FF801F9
:104DA00033960081B2E04B2EBFEF3B2E202E0E94A7
:104DB0003A0AB0B3BF7BB0BBB1E02B2E0E94AA165B
:104DC0002F903F904F900E943912B1E04B1609F09E
:104DD00085C04F923F922F92B1E06B2EB5E05B2ED3
:104DE000B3E04B2EB0E32B2EB0E03B2EA7D92F9093
:104DF0003F904F90002309F470C0B0917100B160F2
:104E0000B0937100B0915901BE7FB09359014F9298
:104E10003F922F9240905201BFEF3B2E22240E94DE
:104E20003A0AB0B3BF7BB0BB0091A600015010E0BE
:104E300048E150E00E946E162AEA30E0020F131F8C
:104E40004091A90041500B8F1C8F0CE010E050E006
:104E50000E946E162B8D3C8D200F311F0091520148
:104E6000015010E0000F111F000F111F020F131F40
:104E7000F80131960091A30000830091A600015033
:104E800010E048E150E00E946E162AEA30E0020F7E
:104E9000131F4091A90041500B8F1C8F0CE010E0B4
:104EA00050E00E946E162B8D3C8D200F311F00911B
:104EB0005201015010E0000F111F000F111F020FCF
:104EC000131FF80132960091A5000083B1E02B2E4C
:104ED0000E94AA162F903F904F9064C04F923F922D
:104EE0002F926624B5E05B2EB2E04B2EB0E32B2E62
:104EF000B0E03B2E23D92F903F904F90109165004A
:104F00001230B0E009F4BFEF1B2F0123F1F0B09194
:104F10007100B160B0937100B0915901BE7FB09340
:104F20005901B0B3BF7BB0BB4F923F922F924090DC
:104F30005201BFEF3B2E22240E943A0AB1E02B2EF1
:104F40000E94AA162F903F904F904F923F922F921F
:104F5000B1E06B2EB5E05B2EB2E04B2EB0E32B2E12
:104F6000B0E03B2EEBD82F903F904F900090710017
:104F7000112700FC13950123A9F0B0915901BE7FC0
:104F8000B09359014F923F922F9240905201BFEF40
:104F90003B2E22240E943A0A2F903F904F90B0B3AC
:104FA000BF7BB0BB2091A5002093660000917500E7
:104FB000201710E009F01FEF203000E009F40FEF98
:104FC000012B11F10091A50000937500FE013296AE
:104FD000B8E4B193B5E6B193B1E6B193B4E7B19358
:104FE000B5E6B193B2E7B193B0E0B1938E010E5F35
:104FF0001F4F4F923F922F924090A60018010E949F
:1050000046122F903F904F9029C1B0B3BF7BB0BBE9
:105010004F923F922F9240905201BFEF3B2E22249D
:105020000E943A0AFE013296B8E4B193B5E6B19314
:10503000B1E6B193B4E7B193B5E6B193B2E7B193FA
:10504000B0E0B1938E010E5F1F4F4090A600180193
:105050000E94461225E01FE002EF0A95F1F71A952B
:10506000E1F72A95D1F70E940E32BFE84B2EB0E04F
:105070005B2E2090A600B0E03B2E0E94F504BFE816
:105080004B2EB0E05B2EB1E03B2EB1E02B2E0E9408
:10509000E71FFE013296B9E6B193B3E7B193B0E2F0
:1050A000B193BFE4B193B6E6B193B6E6B193BAE378
:1050B000B193B0E0B1938E010E5F1F4F2801B8E0AD
:1050C0003B2EB1E02B2E0E94E71F2F903F904F9078
:1050D000009165000130E9F5FE013296B8E4B19324
:1050E000B5E6B193B1E6B193B4E7B193B5E6B19348
:1050F000B2E7B193B0E2B193BFE6B193B6E6B19334
:10510000B6E6B193B0E0B1938E010E5F1F4F4F92A0
:105110003F922F922801B1E03B2EB2E02B2E0E944D
:10512000E71FBFE84B2EB0E05B2EBAE03B2EB2E0AB
:105130002B2E0E94E71F2F903F904F902DE01DE2F5
:1051400008ED0A95F1F71A95E1F72A95D1F70000D5
:10515000000000916500003009F041C0FE01329668
:10516000B8E4B193B5E6B193B1E6B193B4E7B193C6
:10517000B5E6B193B2E7B193B0E2B193B5E4B193C0
:10518000B2E7B193B2E7B193BFE6B193B2E7B1939F
:10519000B0E0B1938E010E5F1F4F4F923F922F925E
:1051A0002801B1E03B2EB2E02B2E0E94E71FBFE8A2
:1051B0004B2EB0E05B2EBAE03B2EB2E02B2E0E94CD
:1051C000E71F2F903F904F902DE01DE208ED0A95CC
:1051D000F1F71A95E1F72A95D1F700000000FE01DA
:1051E0003296BFE4B193B6E6B193B6E6B193B0E2BE
:1051F000B193B0E7B193B7E7B193BDE6B193B0E235
:10520000B193B8E6B193B5E6B193B1E6B193B4E723
:10521000B193B5E6B193B2E7B193B0E2B193BDE615
:10522000B193BFE6B193B4E6B193B5E6B193B0E004
:10523000B1938E010E5F1F4F4F923F922F92280124
:10524000B1E03B2EB1E02B2E0E94E71F2F903F9044
:105250004F90B0915901BE7FB093590122CCB091CB
:105260005901BE7FB0935901B2E0B093A900B2E0FA
:10527000B0935201B0915901B160B0935901B2E0BD
:10528000B0938200B0917100B260B09371004F9200
:105290003F922F920E940E32FE013296B7E5B193F3
:1052A000B1E6B193B4E7B193B9E6B193BEE6B19379
:1052B000B7E6B193B0E2B193B6E6B193BFE6B1936E
:1052C000B2E7B193B0E2B193BAE3B193B0E0B19376
:1052D0008E010E5F1F4F2801B1E03B2EB1E02B2E57
:1052E0000E94E71FFE013296B0E5B193B2E7B19399
:1052F000B5E6B193B3E7B193B3E7B193B9E6B19330
:10530000BEE6B193B7E6B193B0E2B193BDE4B19319
:10531000BFE6B193B4E7B193BFE6B193B2E7B193FF
:10532000B0E2B193BDE6B193B9E6B193B3E6B19300
:10533000B2E7B193BFE6B193B0E2B193B3E5B193F5
:10534000B7E5B193B0E0B1938E010E5F1F4F280116
:10535000B1E03B2EB2E02B2E0E94E71F2F903F9032
:105360004F9029E01EE105EE0A95F1F71A95E1F755
:105370002A95D1F70000B0917100B0FF13C0B1E0E1
:105380004B1659F4B0917100B260B0937100B091B6
:105390007100BE7FB093710005C0B0917100BD7FF8
:1053A000B0937100B0917100B1FF82C04F923F92F3
:1053B0002F92B1E06B2EB5E05B2EB3E04B2EB0E345
:1053C0002B2EB0E03B2E0E949E202F903F904F90BE
:1053D000002329F0B0917100BD7FB0937100FE01F0
:1053E0003296B7E5B193B1E6B193B4E7B193B9E6BC
:1053F000B193BEE6B193B7E6B193B0E2B193B6E62E
:10540000B193BFE6B193B2E7B193B0E2B193BAE31F
:10541000B193B0E0B1938E010E5F1F4F4F923F9258
:105420002F922801B1E03B2EB1E02B2E0E94E71F06
:10543000FE013296B4E4B193BFE6B193B7E7B193FE
:10544000BEE6B193B9E6B193BEE6B193B7E6B193C8
:10545000B0E2B193B4E7B193B8E6B193B5E6B193D6
:10546000B0E2B193B0E5B193B1E6B193B4E6B193D4
:10547000B0E2B193B1E2B193B1E2B193B0E0B193D4
:105480008E010E5F1F4F2801B1E03B2EB2E02B2EA4
:105490000E94E71F2F903F904F9029E01EE105EEFC
:1054A0000A95F1F71A95E1F72A95D1F700007ACF1E
:1054B000B0917100B260B0937100FE013296BDE60A
:1054C000B193BFE6B193B4E7B193BFE6B193B2E74E
:1054D000B193B0E2B193B2E7B193B5E7B193BEE651
:1054E000B193BEE6B193B9E6B193BEE6B193B7E628
:1054F000B193B0E0B1938E010E5F1F4F4F923F9278
:105500002F922801B9E03B2EB2E02B2E0E94E71F1C
:10551000FE013296B6E5B193B1E6B193BCE6B19324
:10552000B5E7B193B5E6B193BAE3B193B0E2B19305
:10553000B0E0B1938E010E5F1F4F2801B1E03B2E0A
:10554000B2E02B2E0E94E71FB0E68B2EB0E09B2E20
:10555000BFE76B2EB0E07B2EB3E84B2EB0E05B2EA6
:10556000BCE62B2EB0E03B2EB0E0BF93B7E6BF9376
:10557000B0E0BF93B4E6BF93B0E0BF93B1E6BF9392
:105580000E94DB20ADB7BEB71696ADBFBEBF2F9051
:105590003F904F90B1E0B09353012092A60000914C
:1055A00052010130C9F4EFE8F0E0B8E4B193B5E698
:1055B000B193B1E6B193B4E7B193B5E6B193B2E775
:1055C000B193B0E0B1930091A300009375000091F6
:1055D000A500009366001AC0009152010230B1F498
:1055E000EFE8F0E0BDE4B193BFE6B193B4E7B19367
:1055F000BFE6B193B2E7B193B0E0B1930091A300DD
:10560000009381000091A500009385004F923F9286
:105610002F9280905B0170905A01609053015090DE
:10562000A4004424332420908E000E94DB18B09103
:105630005901B160B0935901B0E0B0936500B4EA8C
:105640008B2EB0E09B2EB5EA6B2EB0E07B2EB3EA3A
:105650004B2EB0E05B2EBEE82B2EB0E03B2EB1E02F
:10566000BF93BBE5BF93B1E0BF93BAE5BF93B1E091
:10567000BF93B3E5BF930E94DB20ADB7BEB71696CC
:10568000ADBFBEBF2F903F904F90B1E0B09372007E
:10569000B0915901B160B0935901B0915901B0FF77
:1056A000B9C40091A600015010E048E150E00E940A
:1056B0006E160D8F1E8F2AEA30E0020F131F4091E5
:1056C000A90041500B8F1C8F0CE010E050E00E94AD
:1056D0006E162B8D3C8DA801420F531F2091520155
:1056E0002150722F80E0770F881F770F881F272F98
:1056F000382F240F351FF901319630812091A300F6
:10570000321760E009F46FEF4AEA50E02D8D3E8DCC
:10571000240F351F020F131F070F181FF8013296B1
:1057200010810091A500101700E008F40FEF062388
:1057300009F44CC100916500023009F0CDC04F92D0
:105740003F922F9240905201BFEF3B2E22240E94A5
:105750003A0AFE013296BDE4B193BFE6B193B4E7D5
:10576000B193BFE6B193B2E7B193B0E0B1938E01CC
:105770000E5F1F4F4090A60018010E94461222E5BE
:105780001BE200E00A95F1F71A95E1F72A95D1F7A7
:10579000000000000000000041D6BFE84B2EB0E042
:1057A0005B2EB1E03B2EB1E02B2E0E94E71FFE01E5
:1057B0003296B9E6B193B3E7B193B0E2B193BFE4E7
:1057C000B193B6E6B193B6E6B193BAE3B193B0E064
:1057D000B1938E010E5F1F4F2801B8E03B2EB1E060
:1057E0002B2E0E94E71FFE013296B0E5B193B2E77F
:1057F000B193BFE6B193B7E6B193B0E2B193BEE621
:10580000B193B5E7B193BDE6B193BAE3B193B0E01C
:10581000B1938E010E5F1F4F2801B1E03B2EB2E025
:105820002B2E0E94E71FBFE84B2EB0E05B2EBAE0A4
:105830003B2EB2E02B2E0E94E71F29E01EE105EE71
:105840000A95F1F71A95E1F72A95D1F70000FE01C4
:105850003296BFE4B193B6E6B193B6E6B193B0E247
:10586000B193B0E7B193B7E7B193BDE6B193B0E2BE
:10587000B193BDE4B193BFE6B193B4E7B193BFE692
:10588000B193B2E7B193B0E2B193BDE6B193BFE695
:10589000B193B4E6B193B5E6B193B0E0B1938E01A4
:1058A0000E5F1F4F2801B1E03B2EB1E02B2E0E946E
:1058B000E71FBFE84B2EB0E05B2E2090A600B0E0C3
:1058C0003B2E0E94F5042F903F904F90B0915901CC
:1058D000BE7FB09359017AC04F923F922F929ED5CE
:1058E000FE013296B7E5B193B1E6B193B4E7B19357
:1058F000B9E6B193BEE6B193B7E6B193B0E2B19326
:10590000B6E6B193BFE6B193B2E7B193B0E2B1931B
:10591000BAE3B193B0E0B1938E010E5F1F4F28013F
:10592000B1E03B2EB1E02B2E0E94E71FFE01329624
:10593000B4E4B193BFE6B193B7E7B193BEE6B193D8
:10594000B9E6B193BEE6B193B7E6B193B0E2B193D5
:10595000B4E7B193B8E6B193B5E6B193B0E2B193D1
:10596000B0E5B193B1E6B193B4E6B193B0E2B193CF
:10597000B1E2B193B1E2B193B0E0B1938E010E5FA9
:105980001F4F2801B1E03B2EB2E02B2E0E94E71FF3
:105990002AE711EC02E80A95F1F71A95E1F72A9542
:1059A000D1F7000000006624B5E05B2EB2E04B2E7C
:1059B000B0E32B2EB0E03B2E0E949E202F903F9014
:1059C0004F90002319F0B2E0B0936500B0915901F7
:1059D000B0FB90F9B1E04B1600E009F40FEF0F8F28
:1059E0000091A600015010E048E150E00E946E16C0
:1059F0000D8F1E8F2AEA30E0020F131F4091A9007D
:105A000041500B8F1C8F0CE010E050E00E946E168E
:105A10002B8D3C8DA801420F531F20915201215024
:105A2000722F80E0770F881F770F881F272F382F5E
:105A3000240F351FF901319630812091A3003217D0
:105A4000B0E008F0BFEF3B2F2F8D622F632B4AEAA7
:105A500050E02D8D3E8D240F351F020F131F070FB1
:105A6000181FF801329610810091A5000117B0E0CF
:105A700008F4BFEF0B2F162F102B002790FD039576
:105A8000012309F47AC10091A600015010E048E119
:105A900050E00E946E162AEA30E0020F131F409178
:105AA000A90041500B8F1C8F0CE010E050E00E94C9
:105AB0006E162B8D3C8D200F311F0091520101502D
:105AC00010E0000F111F000F111F020F131FF8012C
:105AD000339600814AE00E949E1610E0212F312F5C
