:100000000C9447A90C944AA60C9400000C940DA7DC
:100010000C9400000C9400000C9400000C94000060
:100020000C9400000C94D8A60C9400000C940000D2
:100030000C9400000C9400000C9400000C94000040
:100040000C94F1A60C9400000C9400000C94000099
:100050000C9400000C9400000C9400000C94000020
:100060000C9400000C9400000C9400000C94000010
:100070000C9400000C9400000C9400000C94000000
:100080000C9400000C9400000C9400000000000F81
:10009000080E0800000011111F000400010E1404D6
:1000A00004040400000A15110A0400000000000FF7
:1000B00009090F00000000090D0B0900F6D021F01E
:1000C000662309F0ABD098940895F8DF09F441C095
:1000D000E62ED52EC42EB32EA22E912E802E002DCC
:1000E000112D222D332DEADF09F43DC0842F952FE9
:1000F0008C199D09B9F072F49095809501964C2D5C
:100100005D2D883180F535952795179507950197D1
:10011000D1F708C08831E8F4B594A79497948794F0
:100120000197D1F766272EF0080D191D2A1D3B1DDA
:1001300009C0801A910AA20AB30A082D192D2A2D86
:100140003B2D332312F46AD060E82FD001C01BD0BE
:1001500016C0002D112D222D332DD6F71ED0C1F340
:1001600040E83427F5CF082D192D2A2D3B2D4C2D95
:100170005D2D6E2D33235AF751D060E8E8CF0895F6
:100180006894A3DF089509D039F041585F4F342FA8
:10019000220F36952795362B0895002329F4112335
:1001A00019F4222309F433230895F7DF11F19F9303
:1001B0008F938EE790E0332351F03695279517956E
:1001C000079548175907B4F44F5F5F4FF4CF8095F8
:1001D0009095019622239AF0000F111F221F4817B5
:1001E00059071CF041505040F5CF00271127222716
:1001F000332708C033270FEF102F2FE7322F8F91AF
:100200009F91C1DF0895BCDF332332F0C6DF11F0C8
:1002100001E003C0002701C00FEF0895009510957D
:10022000209530950F5F1F4F2F4F3F4F08953DD0C2
:1002300081F1E62ED52EC42EB32EA22E912E802E25
:10024000002D112D222D332D30D019F16E254C0D9E
:100250005D1D40385307F4F441387FEF5707FCF039
:1002600088279927AA27BB2770E2B695A795979567
:100270008795379527951795079520F4880D991D33
:10028000AA1DBB1D7A9589F7032F3A2F292F182F06
:100290008CDF0AC00FEF102F2FE73FE7FACF0027C0
:1002A000102F202F302FF5CF089577DF79F0632FAF
:1002B0006078220F331F432F5FE7451B55275040BF
:1002C000269530E8232B3327989403C044275527DD
:1002D0006627089547E16627552726F0332312F451
:1002E0009DDF60E862DF0895042E152E262E372E3E
:1002F0008ADF00230895E894E8DE0895C9019A0191
:10030000AB01B80197FB092E05260ED057FD04D08E
:1003100014D00AD0001C38F45095409530952195A2
:100320003F4F4F4F5F4F0895F6F79095809570952A
:1003300061957F4F8F4F9F4F0895A1E21A2EAA1B00
:10034000BB1BFD010DC0AA1FBB1FEE1FFF1FA21785
:10035000B307E407F50720F0A21BB30BE40BF50B82
:10036000661F771F881F991F1A9469F7609570950B
:10037000809590959B01AC01BD01CF010895CF936D
:10038000DF93CDB7DEB72397CDBFDEBF2196B0E8B0
:100390005B1641F4B0E04B1629F4B0E03B1611F4C3
:1003A000B0E02B16D1F4F301BDE2B193B2E3B19307
:1003B000B1E3B193B4E3B193B7E3B193B4E3B193D1
:1003C000B8E3B193B3E3B193B6E3B193B4E3B193BC
:1003D000B8E3B193B0E0B1937BC0B0E0BA8300E082
:1003E00010E020E030E0201631064206530664F4A7
:1003F000BFEFBA8300E010E020E030E002191309FB
:100400002409350918012901F301B0E2B193B0E2E2
:10041000B193B0E2B193B0E2B193B0E2B193B0E284
:10042000B193B0E2B193B0E2B193B0E2B193B0E274
:10043000B193B0E3B193B0E0B1938301065F1F4F76
:1004400008831983B0E05B1641F4B0E04B1629F441
:10045000B0E03B1611F4B0E02B1699F17F926F9249
:100460005F924F923F922F924AE050E060E070E03E
:100470008101920143DF8B019C012F903F904F90AF
:100480005F90005DE881F98100835F924F923F9217
:100490002F924AE050E060E070E0810192012EDF8F
:1004A00089019A012F903F904F905F906F907F90BD
:1004B000180129010881198101501040088319830E
:1004C000C1CF0A81002321F0E881F981BDE2B08328
:1004D0002296CDBFDEBFDF91CF910895042E152E59
:1004E000262E372E4DDE002E112E222E332E08956D
:1004F0003F932F931F930F93002D112D222D332DFA
:10050000D4DE09F44BC0E62ED52EC42EB32EA22E77
:10051000912E802E0F911F912F913F91C6DE61F198
:100520006E254C195D09403853073CF541387FEF83
:1005300057077CF180E27724632E522E412E302F14
:10054000222711270027000F111F221F331F441CD1
:10055000551C661C771C28F0481859086A087B0847
:1005600004C0480C591C6A1C7B1C0AF001608A9567
:1005700051F74150504019DE16C00FEF102F2FE7F2
:100580003FE76623C9F309DEB9F3342D30E834259B
:10059000F3CF0027102F202F302FEECF0F900F908A
:1005A0000F900F90EACF0895042E152E262E372E89
:1005B000A2DE002E112E222E332E0895002E112E93
:1005C000222E332E042F152F262F372F1CDE00232B
:1005D0001CF00024039401C000240895E8947ADEFE
:1005E000089563DEF1F05523C2F04F31A8F447318E
:1005F000C1F050F44195495E05C035952795179592
:1006000007954A95D1F70DC04751000F111F221FC2
:10061000331F4A95D1F705C03FE7232F132F032F30
:1006200003C0662309F0FADD0895042E152E262E48
:10063000372EFDDD002E112E222E332E089554DE8E
:100640001CF40024039401C000240895CF93DF9389
:10065000CDB7DEB72497CDBFDEBF2196152D110F84
:10066000B7E0042D0695BA95E9F7010F0F57202F33
:1006700030E007FD3FEF00E010E020173107DCF429
:1006800040E050E060E070E08101920197DF0028D7
:1006900000E009F00FEF002331F0B0E0B883B98338
:1006A000BA83BB8307C0B0E0B883B983B0E8BA832C
:1006B000BFE3BB832AC008E1021728F428823982ED
:1006C0004A825B8222C0810192018BDF87DF08832F
:1006D00019832A833B83A101B201088119812A81F0
:1006E0003B81ADDF002800E009F00FEF002369F047
:1006F000088119812A813B8140E050E060E87FE376
:1007000053DF088319832A833B83088119812A8157
:100710003B812396CDBFDEBFDF91CF910895B1E13C
:100720004B1619F43BBC2ABC26C0B2E14B1619F497
:1007300039BC28BC20C0B3E14B1629F430927900B3
:100740002092780018C0B4E14B1629F4309287004B
:100750002092860010C0B5E14B1629F43092850036
:100760002092840008C0B6E14B1629F43092830031
:100770002092820000C0089521BE0895049FD001F8
:10078000159FF001249FE00DF11D069FE00DF11D66
:10079000349FF00D259FF00D169FF00D079FF00D73
:1007A0003327149FB00DE11DF31F059FB00DE11D10
:1007B000F31F8D019F010895CF93DF93CDB7DEB76F
:1007C000A197CDBFDEBF2196B0E0BE8F810192011F
:1007D00008DF088319832A833B835F924F923F92FD
:1007E0002F9240E050E060E070E08101920127DF4D
:1007F000002800E009F00FEF2F903F904F905F909E
:10080000002311F0BFEFBE8F8E010A5F1F4F7F9252
:100810006F925F924F923F922F92380128803980D9
:100820004A805B80ACDD2F903F904F905F906F903F
:100830007F90088119812A813B81D0DE5F924F929F
:100840003F922F92A801B9018101920147DE40E059
:1008500050E563EC77E4E9DE2F903F904F905F9096
:10086000C0DE088319832A833B8340E050E060E0C8
:1008700070E0041715072607370784F408801980ED
:1008800000E010E0001911090A801B8020E030E030
:1008900020093109088319832A833B838E010E5E68
:1008A0001F4F7F926F925F924F923F922F9238012B
:1008B000288039804A805B8062DD2F903F904F9086
:1008C0005F906F907F9040E050E0B0E0BC83BD83CC
:1008D000F301B0E2B193B0E2B193B0E2B193B0E210
:1008E000B193B0E2B193B0E2B193B0E2B193B0E2B0
:1008F000B193B0E2B193B0E2B193B0E3B193B0E0A1
:10090000B1935F934F93810192016BDE303029F4F4
:10091000203019F4103009F40030B0E009F4BFEFD2
:100920000B2F08A340E050E060E070E081019201ED
:1009300086DE002800E009F00FEF4F915F9118A1CB
:100940000123002341F0F301BDE2B08311E020E078
:10095000412F522F00C02E81203281F40C811D8145
:1009600098012F5F3F4F2C833D838E010A5F1F4FFD
:10097000F901E00FF11F0081202FEECF022F003090
:10098000D1F0FA01E60DF71D00830C811D8198015D
:100990002F5F3F4F2C833D838A010F5F1F4FB801AC
:1009A0008E010A5F1F4FF901E00FF11F0081202F18
:1009B000022FAB01E4CF0E8D003010E009F41FEFE1
:1009C000503009F4403000E009F40FEF012351F0FA
:1009D000FA01E60DF71DB0E3B0838A010F5F1F4FE8
:1009E000980101C09A01303009F4213010E009F477
:1009F0001FEF0E8D012359F0F901E60DF71DB0E34D
:100A0000B08389010F5F1F4FA8019A0100C0F9014F
:100A1000E60DF71DBEE2B08389010F5F1F4FA801ED
:100A2000B6E0BC83B0E0BD83288D2030F9F02032E1
:100A300019F420E3022F01C0022FFA01E60DF71D81
:100A400000830C811D8198012F5F3F4F2C833D83D4
:100A50008A010F5F1F4FB8018E010E5E1F4FF90113
:100A6000E00FF11F0081AB01202FDFCFFA01E60D6F
:100A7000F71DB0E0B083A096CDBFDEBFDF91CF9170
:100A80000895042E152E262E372E32DD002E112E1F
:100A9000222E332E08950FB6BCB3B1FF02C0000062
:100AA000FBCFF8943FBA2EBA4DBABCB3B460BCBB0E
:100AB000BCB3B260BCBB0FBE0895CF93DF93CDB77C
:100AC000DEB72697CDBFDEBF21962F923F924F9281
:100AD0006F927F92022D10E0212F312F432D542D44
:100AE00060E047FC6FEF762F49DE78DD5F924F9232
:100AF0003F922F9240E050E068EC72E4C2DF1801B0
:100B00002901A4DD0A831B832C833D83B0E36B2E74
:100B1000B7E07B2E180129014FDE0E945B6B0A8132
:100B20001B812C813D815DDD08831983B3E94B2E48
:100B3000B7E05B2E18010E94EE96B0E34B2EB7E0B3
:100B40005B2EB1E03B2EB1E02B2E0E94D39EB3E989
:100B50004B2EB7E05B2EB6E03B2EB2E02B2E0E9470
:100B6000D39E2F902F92B3E94B2EB7E05B2EB0E0CF
:100B70003B2E0E94EE96B3E94B2EB7E05B2EB1E020
:100B80003B2EB2E02B2E0E94D39E2F903F904F9091
:100B90005F90B1E05B1631F4B1E14B2E28803980D3
:100BA000BEDD36C0B2E05B1631F4B2E14B2E2880D8
:100BB0003980B5DD2DC0B3E05B1631F4B2E04B2EC9
:100BC00028803980ACDD24C0B4E05B16A9F4B0E025
:100BD0002B1649F408801980032D142D00191109D2
:100BE0001801CADD08C008801980032D142D0019D2
:100BF00011091801C1DD0CC0B5E05B1609F408C08D
:100C0000B6E05B1609F404C0B7E05B1609F400C057
:100C10007F906F904F903F902F902596CDBFDEBF75
:100C2000DF91CF910895992779E004C0991F941717
:100C300008F0941B001F7A95C9F700950895B091AC
:100C40003400B260B09334000E9470310E94703161
:100C5000B0913400BE7FB0933400B0910201BD7FEB
:100C6000B0930201B0913300B0FD06C0B091020113
:100C7000B1FF01C001C0F6CF0E9470310E947031F7
:100C80000E9470310E9470310E9470310E94703158
:100C90000E9470310E947031B0913400BD7FB093DA
:100CA00034000E9470310E9470310895B091340078
:100CB000BD7FB09334000E9470310E947031B091BA
:100CC0003400BE7FB09334000E9470310E947031B6
:100CD000B0913400B260B09334000E9470310E9431
:100CE0007031B0913400B160B09334000895CF9367
:100CF000DF93CDB7DEB72397CDBFDEBF2196B1E03E
:100D0000B883B0E8B983B0E0BA8309811A811030A2
:100D100009F4003009F443C00E9470310E94703120
:100D20000E9470310E947031B0913400B160B09374
:100D300034000E9470310E94703109811A810221B1
:100D40001070103009F4003031F0B0913400BD7FE4
:100D5000B093340005C0B0913400B260B093340059
:100D60000E9470310E947031B0913400BE7FB09308
:100D70003400B0910201BD7FB0930201B091330005
:100D8000B0FD06C0B0910201B1FF01C001C0F6CFB5
:100D900009811A811695079509831A83B6CFB0E0A9
:100DA000B8830E9470310E947031B0913400B160FC
:100DB000B09334000E9470310E947031B0913400C1
:100DC000BD7FB09334000E9470310E9470310E9448
:100DD00070310E947031B0913400BE7FB093340006
:100DE000B0910201BD7FB0930201B0913300B0FD1C
:100DF00006C0B0910201B1FF01C001C0F6CFB0E062
:100E0000B8830E9470310E947031B0913300B1FFFD
:100E100003C00881016008830E9470310E94703114
:100E20000E9470310E9470310E9470310E947031B6
:100E30000E9470310E9470310E9470310E947031A6
:100E40000E9470310E9470310E9470310E94703196
:100E50000E9470310E947031B0913400B160B09343
:100E60003400B0913400B260B0933400088122960F
:100E7000CDBFDEBFDF91CF910895CF93DF93CDB784
:100E8000DEB72397CDBFDEBF2196B0E0B883B0E8D0
:100E9000B983B0E0BA8309811A81103009F40030B7
:100EA00009F439C00E9470310E947031B091340051
:100EB000BD7FB09334000E9470310E947031B091B8
:100EC0003400BE7FB0933400B0910201BD7FB09377
:100ED0000201B0913300B0FD06C0B0910201B1FF34
:100EE00001C001C0F6CFB0913300B1FF04C018813A
:100EF0000981012B08830E9470310E947031B091EA
:100F00003400B160B093340009811A8116950795B9
:100F100009831A83C0CFB0913400BD7FB0933400F1
:100F20000E9470310E947031B0E03B1611F4B0E0C5
:100F30002B1629F0B0913400B260B09334000E94B7
:100F400070310E947031B0913400BE7FB093340094
:100F5000B0910201BD7FB0930201B0913300B0FDAA
:100F600006C0B0910201B1FF01C001C0F6CF0E94DE
:100F700070310E947031B0913400B160B093340090
:100F80000E9470310E947031B0913400B260B09311
:100F9000340008812296CDBFDEBFDF91CF91089546
:100FA000E32DF42DB0E2B193B0E2B193B0E3B1938D
:100FB000B0E0B193032D142D0E5F1F4F9801B0E0E8
:100FC0002B1681F04AE0022D2EDE092F005DF9017B
:100FD00000834AE0022D27DE202E890101501040B7
:100FE0009801EDCF0895B0913500B77FB0933500EB
:100FF000B0913500BB7FB0933500B0913500BF771D
:10100000B0933500B0913500BF7BB0933500B091FF
:101010003500BF7DB0933500B0913500BF7EB093F1
:101020003500B0913400B860B0933400B091340012
:10103000B460B0933400B0913400B061B093340028
:10104000B0913400B062B0933400B0913400B06419
:10105000B0933400B0913400B068B09334000E9473
:101060008C270E948C270E948C27B0913500B0629B
:10107000B0933500B0913500B061B0933500B091B8
:101080003500B860B09335000E947031B0913500E2
:10109000B77FB09335000E948C27B0913500B860BF
:1010A000B09335000E947031B0913500B77FB09396
:1010B00035000E948C27B0913500B860B0933500A0
:1010C0000E947031B0913500B77FB09335000E9417
:1010D0008C27B0913500BF7EB0933500B0913500BC
:1010E000B860B09335000E947031B0913500B77F81
:1010F000B09335000E948C27B0913500B860B09352
:1011000035000E947031B0913500B77FB093350043
:10111000B0913500BF7DB0933500B0913500B06817
:10112000B0933500B0913500B860B09335000E949F
:101130007031B0913500B77FB09335000E948C2795
:10114000B0913500BF77B0933500B0913500B061F4
:10115000B0933500B0913500B860B09335000E946F
:101160007031B0913500B77FB0933500B091350044
:10117000BF7EB0933500B0913500B860B0933500B4
:101180000E947031B0913500B77FB09335000E9456
:101190008C27B0913500B860B09335000E94703153
:1011A000B0913500B77FB0933500B0913500B06194
:1011B000B0933500B0913500B860B09335000E940F
:1011C0007031B0913500B77FB09335000E948C2705
:1011D000B0913500BF7EB0933500B0913500B86056
:1011E000B09335000E947031B0913500B77FB09355
:1011F0003500B0913500B068B0933500B09135003E
:10120000B064B0933500B0913500B062B093350052
:10121000B0913500B061B0933500B0913500B86041
:10122000B09335000E947031B0913500B77FB09314
:1012300035000E948C27B0910201B064B093020186
:1012400008959801249F8001259F100D349F100D53
:1012500008952F92B1E02B1619F4B0E82B2E14C08C
:10126000B2E02B1619F4B0EC2B2E0EC0B3E02B1607
:1012700019F4B4E92B2E08C0B4E02B1619F4B4ED20
:101280002B2E02C0B0E82B2E032D0150020D202E74
:10129000B0910201B064B0930201202E0E946597C4
:1012A000B0910201BF7BB0930201242C0E9465978C
:1012B000B0910201B064B09302012F900895CF93D2
:1012C000DF93CDB7DEB76197CDBFDEBF21966F92BA
:1012D000B0910201B061B0930201B0910201BF7DF3
:1012E000B0930201B0910201B4FF0C94D016B1E0AA
:1012F0003B1609F072C5B1E02B1609F0C3C0FE0120
:10130000B8E2B193BFE4B193BEE6B193BAE3B1934F
:10131000BFE4B193B6E6B193B6E6B193B9E2B19347
:10132000B0E2B193B0E2B193B8E2B193B0E5B1935A
:10133000B7E5B193BDE4B193B9E2B193B0E0B19335
:101340008E015F924F923F922F922801B1E03B2E87
:10135000B1E02B2E0E94D39EFE01B0E5B193B2E71F
:10136000B193BAE3B193B1E3B193B0E2B193B2E315
:10137000B193B0E2B193B3E3B193B0E2B193B4E30C
:10138000B193B0E2B193B5E3B193B0E2B193B6E3F8
:10139000B193B0E2B193B7E3B193B0E0B1938E01F2
:1013A0002801B1E03B2EB2E02B2E0E94D39E25E017
:1013B0001FE002EF0A95F1F71A95E1F72A95D1F7A8
:1013C000FE01B8E2B193B0E2B193B0E2B193BAE3F7
:1013D000B193BFE4B193B6E6B193B6E6B193B9E287
:1013E000B193B0E2B193B0E2B193B8E2B193B0E59A
:1013F000B193B7E5B193BDE4B193B9E2B193B0E075
:10140000B1938E012801B1E03B2EB1E02B2E0E945A
:10141000D39EFE01B4E4B193B9E7B193BAE3B193BB
:10142000B0E2B193B0E2B193B2E3B193B0E2B19361
:10143000B3E3B193B0E2B193B4E3B193B0E2B1934B
:10144000B5E3B193B0E2B193B6E3B193B0E2B19337
:10145000B7E3B193B0E0B1938E012801B1E03B2E28
:10146000B2E02B2E0E94D39E2F903F904F905F9022
:1014700025E01FE002EF0A95F1F71A95E1F72A95AA
:10148000D1F7AAC4B2E02B1609F0C3C0FE01B8E23E
:10149000B193BFE4B193BEE6B193BAE3B193BFE4B5
:1014A000B193B6E6B193B6E6B193B9E2B193B0E2C7
:1014B000B193B0E2B193B8E2B193B0E5B193B7E5BF
:1014C000B193BDE4B193B9E2B193B0E0B1938E01B1
:1014D0005F924F923F922F922801B1E03B2EB1E0F4
:1014E0002B2E0E94D39EFE01B0E5B193B2E7B193DB
:1014F000BAE3B193B1E3B193B0E2B193B2E3B19384
:10150000B0E2B193B3E3B193B0E2B193B4E3B1937A
:10151000B0E2B193B5E3B193B0E2B193B6E3B19366
:10152000B0E2B193B7E3B193B0E0B1938E0128017B
:10153000B1E03B2EB2E02B2E0E94D39E25E01FE0AF
:1015400002EF0A95F1F71A95E1F72A95D1F7FE0116
:10155000B8E2B193B0E2B193B0E2B193BAE3B19320
:10156000BFE4B193B6E6B193B6E6B193B9E2B193F5
:10157000B0E2B193B0E2B193B8E2B193B0E5B19308
:10158000B7E5B193BDE4B193B9E2B193B0E0B193E3
:101590008E012801B1E03B2EB1E02B2E0E94D39E9C
:1015A000FE01B0E5B193B2E7B193BAE3B193B1E311
:1015B000B193B0E2B193B0E2B193B0E2B193B3E3CF
:1015C000B193B0E2B193B4E3B193B0E2B193B5E3B8
:1015D000B193B0E2B193B6E3B193B0E2B193B7E3A4
:1015E000B193B0E0B1938E012801B1E03B2EB2E09F
:1015F0002B2E0E94D39E2F903F904F905F9025E01E
:101600001FE002EF0A95F1F71A95E1F72A95D1F755
:10161000E3C3B3E02B1609F0C3C0FE01B8E2B193F7
:10162000BFE4B193BEE6B193BAE3B193BFE4B19323
:10163000B6E6B193B6E6B193B9E2B193B0E2B19335
:10164000B0E2B193B8E2B193B0E5B193B7E5B1932D
:10165000BDE4B193B9E2B193B0E0B1938E015F9272
:101660004F923F922F922801B1E03B2EB1E02B2EFA
:101670000E94D39EFE01B0E5B193B2E7B193BAE305
:10168000B193B1E3B193B0E2B193B2E3B193B0E2FD
:10169000B193B3E3B193B0E2B193B4E3B193B0E2E9
:1016A000B193B5E3B193B0E2B193B6E3B193B0E2D5
:1016B000B193B7E3B193B0E0B1938E012801B1E0EB
:1016C0003B2EB2E02B2E0E94D39E25E01FE002EFBE
:1016D0000A95F1F71A95E1F72A95D1F7FE01B8E2DC
:1016E000B193B0E2B193B0E2B193BAE3B193BFE486
:1016F000B193B6E6B193B6E6B193B9E2B193B0E275
:10170000B193B0E2B193B8E2B193B0E5B193B7E56C
:10171000B193BDE4B193B9E2B193B0E0B1938E015E
:101720002801B1E03B2EB1E02B2E0E94D39EFE019A
:10173000B0E5B193B2E7B193BAE3B193B1E3B1933A
:10174000B0E2B193B2E3B193B0E2B193B0E2B1933E
:10175000B0E2B193B4E3B193B0E2B193B5E3B19326
:10176000B0E2B193B6E3B193B0E2B193B7E3B19312
:10177000B0E0B1938E012801B1E03B2EB2E02B2EF8
:101780000E94D39E2F903F904F905F9025E01FE0E6
:1017900002EF0A95F1F71A95E1F72A95D1F71CC3E4
:1017A000B4E02B1609F0C3C0FE01B8E2B193BFE468
:1017B000B193BEE6B193BAE3B193BFE4B193B6E699
:1017C000B193B6E6B193B9E2B193B0E2B193B0E2AE
:1017D000B193B8E2B193B0E5B193B7E5B193BDE48D
:1017E000B193B9E2B193B0E0B1938E015F924F92A1
:1017F0003F922F922801B1E03B2EB1E02B2E0E94A8
:10180000D39EFE01B0E5B193B2E7B193BAE3B193D1
:10181000B1E3B193B0E2B193B2E3B193B0E2B1936B
:10182000B3E3B193B0E2B193B4E3B193B0E2B19357
:10183000B5E3B193B0E2B193B6E3B193B0E2B19343
:10184000B7E3B193B0E0B1938E012801B1E03B2E34
:10185000B2E02B2E0E94D39E25E01FE002EF0A95F6
:10186000F1F71A95E1F72A95D1F7FE01B8E2B193A5
:10187000B0E2B193B0E2B193BAE3B193BFE4B193F4
:10188000B6E6B193B6E6B193B9E2B193B0E2B193E3
:10189000B0E2B193B8E2B193B0E5B193B7E5B193DB
:1018A000BDE4B193B9E2B193B0E0B1938E012801E8
:1018B000B1E03B2EB1E02B2E0E94D39EFE01B0E59D
:1018C000B193B2E7B193BAE3B193B1E3B193B0E2AC
:1018D000B193B2E3B193B0E2B193B3E3B193B0E2A9
:1018E000B193B0E2B193B0E2B193B5E3B193B0E29A
:1018F000B193B6E3B193B0E2B193B7E3B193B0E083
:10190000B1938E012801B1E03B2EB2E02B2E0E9454
:10191000D39E2F903F904F905F9025E01FE002EF05
:101920000A95F1F71A95E1F72A95D1F755C2B5E076
:101930002B1609F0C3C0FE01B8E2B193BFE4B19326
:10194000BEE6B193BAE3B193BFE4B193B6E6B19307
:10195000B6E6B193B9E2B193B0E2B193B0E2B1931C
:10196000B8E2B193B0E5B193B7E5B193BDE4B193FB
:10197000B9E2B193B0E0B1938E015F924F923F9282
:101980002F922801B1E03B2EB1E02B2E0E94D39E76
:10199000FE01B0E5B193B2E7B193BAE3B193B1E31D
:1019A000B193B0E2B193B2E3B193B0E2B193B3E3D8
:1019B000B193B0E2B193B4E3B193B0E2B193B5E3C4
:1019C000B193B0E2B193B6E3B193B0E2B193B7E3B0
:1019D000B193B0E0B1938E012801B1E03B2EB2E0AB
:1019E0002B2E0E94D39E25E01FE002EF0A95F1F70F
:1019F0001A95E1F72A95D1F7FE01B8E2B193B0E26A
:101A0000B193B0E2B193BAE3B193BFE4B193B6E658
:101A1000B193B6E6B193B9E2B193B0E2B193B0E25B
:101A2000B193B8E2B193B0E5B193B7E5B193BDE43A
:101A3000B193B9E2B193B0E0B1938E012801B1E066
:101A40003B2EB1E02B2E0E94D39EFE01B0E5B19358
:101A5000B2E7B193BAE3B193B1E3B193B0E2B1931A
:101A6000B2E3B193B0E2B193B3E3B193B0E2B19317
:101A7000B4E3B193B0E2B193B0E2B193B0E2B19309
:101A8000B6E3B193B0E2B193B7E3B193B0E0B193F1
:101A90008E012801B1E03B2EB2E02B2E0E94D39E96
:101AA0002F903F904F905F9025E01FE002EF0A9546
:101AB000F1F71A95E1F72A95D1F78EC1B6E02B160A
:101AC00009F0C3C0FE01B8E2B193BFE4B193BEE632
:101AD000B193BAE3B193BFE4B193B6E6B193B6E67E
:101AE000B193B9E2B193B0E2B193B0E2B193B8E28D
:101AF000B193B0E5B193B7E5B193BDE4B193B9E269
:101B0000B193B0E0B1938E015F924F923F922F92CA
:101B10002801B1E03B2EB1E02B2E0E94D39EFE01A6
:101B2000B0E5B193B2E7B193BAE3B193B1E3B19346
:101B3000B0E2B193B2E3B193B0E2B193B3E3B19346
:101B4000B0E2B193B4E3B193B0E2B193B5E3B19332
:101B5000B0E2B193B6E3B193B0E2B193B7E3B1931E
:101B6000B0E0B1938E012801B1E03B2EB2E02B2E04
:101B70000E94D39E25E01FE002EF0A95F1F71A9527
:101B8000E1F72A95D1F7FE01B8E2B193B0E2B19343
:101B9000B0E2B193BAE3B193BFE4B193B6E6B193C7
:101BA000B6E6B193B9E2B193B0E2B193B0E2B193CA
:101BB000B8E2B193B0E5B193B7E5B193BDE4B193A9
:101BC000B9E2B193B0E0B1938E012801B1E03B2EB0
:101BD000B1E02B2E0E94D39EFE01B0E5B193B2E797
:101BE000B193BAE3B193B1E3B193B0E2B193B2E38D
:101BF000B193B0E2B193B3E3B193B0E2B193B4E384
:101C0000B193B0E2B193B5E3B193B0E2B193B0E276
:101C1000B193B0E2B193B7E3B193B0E0B1938E0169
:101C20002801B1E03B2EB2E02B2E0E94D39E2F90D4
:101C30003F904F905F9025E01FE002EF0A95F1F78B
:101C40001A95E1F72A95D1F7C7C0B7E02B1609F02E
:101C5000C3C0FE01B8E2B193BFE4B193BEE6B19355
:101C6000BAE3B193BFE4B193B6E6B193B6E6B193EC
:101C7000B9E2B193B0E2B193B0E2B193B8E2B193FB
:101C8000B0E5B193B7E5B193BDE4B193B9E2B193D7
:101C9000B0E0B1938E015F924F923F922F92280154
:101CA000B1E03B2EB1E02B2E0E94D39EFE01B0E5A9
:101CB000B193B2E7B193BAE3B193B1E3B193B0E2B8
:101CC000B193B2E3B193B0E2B193B3E3B193B0E2B5
:101CD000B193B4E3B193B0E2B193B5E3B193B0E2A1
:101CE000B193B6E3B193B0E2B193B7E3B193B0E08F
:101CF000B1938E012801B1E03B2EB2E02B2E0E9461
:101D0000D39E25E01FE002EF0A95F1F71A95E1F75F
:101D10002A95D1F7FE01B8E2B193B0E2B193B0E2F7
:101D2000B193BAE3B193BFE4B193B6E6B193B6E62B
:101D3000B193B9E2B193B0E2B193B0E2B193B8E23A
:101D4000B193B0E5B193B7E5B193BDE4B193B9E216
:101D5000B193B0E0B1938E012801B1E03B2EB1E028
:101D60002B2E0E94D39EFE01B0E5B193B2E7B19352
:101D7000BAE3B193B1E3B193B0E2B193B2E3B193FB
:101D8000B0E2B193B3E3B193B0E2B193B4E3B193F2
:101D9000B0E2B193B5E3B193B0E2B193B6E3B193DE
:101DA000B0E2B193B0E2B193B0E0B1938E012801FB
:101DB000B1E03B2EB2E02B2E0E94D39E2F903F909D
:101DC0004F905F9025E01FE002EF0A95F1F71A951A
:101DD000E1F72A95D1F700C06DC5B1E02B1609F0E7
:101DE000C3C0FE01B8E2B193BFE4B193BEE6B193C4
:101DF000BAE3B193BFE4B193B6E6B193B6E6B1935B
:101E0000B9E2B193B0E2B193B0E2B193B8E2B19369
:101E1000B0E5B193B7E5B193BDE4B193B9E2B19345
:101E2000B0E0B1938E015F924F923F922F922801C2
:101E3000B1E03B2EB1E02B2E0E94D39EFE01B0E517
:101E4000B193B2E7B193BAE3B193B1E3B193B0E226
:101E5000B193B2E3B193B0E2B193B3E3B193B0E223
:101E6000B193B4E3B193B0E2B193B5E3B193B0E20F
:101E7000B193B6E3B193B0E2B193B7E3B193B0E0FD
:101E8000B1938E012801B1E03B2EB2E02B2E0E94CF
:101E9000D39E25E01FE002EF0A95F1F71A95E1F7CE
:101EA0002A95D1F7FE01B8E2B193BFE4B193BEE643
:101EB000B193BAE3B193B0E2B193B0E2B193B0E2BF
:101EC000B193B9E2B193B0E2B193B0E2B193B8E2A9
:101ED000B193B0E5B193B7E5B193BDE4B193B9E285
:101EE000B193B0E0B1938E012801B1E03B2EB1E097
:101EF0002B2E0E94D39EFE01B4E4B193B9E7B193B7
:101F0000BAE3B193B0E2B193B0E2B193B2E3B1936B
:101F1000B0E2B193B3E3B193B0E2B193B4E3B19360
:101F2000B0E2B193B5E3B193B0E2B193B6E3B1934C
:101F3000B0E2B193B7E3B193B0E0B1938E01280161
:101F4000B1E03B2EB2E02B2E0E94D39E2F903F900B
:101F50004F905F9025E01FE002EF0A95F1F71A9588
:101F6000E1F72A95D1F7A6C4B2E02B1609F0C3C059
:101F7000FE01B8E2B193BFE4B193BEE6B193BAE318
:101F8000B193BFE4B193B6E6B193B6E6B193B9E2CB
:101F9000B193B0E2B193B0E2B193B8E2B193B0E5DE
:101FA000B193B7E5B193BDE4B193B9E2B193B0E0B9
:101FB000B1938E015F924F923F922F922801B1E030
:101FC0003B2EB1E02B2E0E94D39EFE01B0E5B193D3
:101FD000B2E7B193BAE3B193B1E3B193B0E2B19395
:101FE000B2E3B193B0E2B193B3E3B193B0E2B19392
:101FF000B4E3B193B0E2B193B5E3B193B0E2B1937E
:10200000B6E3B193B0E2B193B7E3B193B0E0B1936B
:102010008E012801B1E03B2EB2E02B2E0E94D39E10
:1020200025E01FE002EF0A95F1F71A95E1F72A95EE
:10203000D1F7FE01B8E2B193BFE4B193BEE6B1932C
:10204000BAE3B193B0E2B193B0E2B193B0E2B1932D
:10205000B9E2B193B0E2B193B0E2B193B8E2B19317
:10206000B0E5B193B7E5B193BDE4B193B9E2B193F3
:10207000B0E0B1938E012801B1E03B2EB1E02B2EF0
:102080000E94D39EFE01B0E5B193B2E7B193BAE3EB
:10209000B193B1E3B193B0E2B193B0E2B193B0E2E6
:1020A000B193B3E3B193B0E2B193B4E3B193B0E2CF
:1020B000B193B5E3B193B0E2B193B6E3B193B0E2BB
:1020C000B193B7E3B193B0E0B1938E012801B1E0D1
:1020D0003B2EB2E02B2E0E94D39E2F903F904F902C
:1020E0005F9025E01FE002EF0A95F1F71A95E1F7FE
:1020F0002A95D1F7DFC3B3E02B1609F0C3C0FE0168
:10210000B8E2B193BFE4B193BEE6B193BAE3B19341
:10211000BFE4B193B6E6B193B6E6B193B9E2B19339
:10212000B0E2B193B0E2B193B8E2B193B0E5B1934C
:10213000B7E5B193BDE4B193B9E2B193B0E0B19327
:102140008E015F924F923F922F922801B1E03B2E79
:10215000B1E02B2E0E94D39EFE01B0E5B193B2E711
:10216000B193BAE3B193B1E3B193B0E2B193B2E307
:10217000B193B0E2B193B3E3B193B0E2B193B4E3FE
:10218000B193B0E2B193B5E3B193B0E2B193B6E3EA
:10219000B193B0E2B193B7E3B193B0E0B1938E01E4
:1021A0002801B1E03B2EB2E02B2E0E94D39E25E009
:1021B0001FE002EF0A95F1F71A95E1F72A95D1F79A
:1021C000FE01B8E2B193BFE4B193BEE6B193BAE3C6
:1021D000B193B0E2B193B0E2B193B0E2B193B9E29E
:1021E000B193B0E2B193B0E2B193B8E2B193B0E58C
:1021F000B193B7E5B193BDE4B193B9E2B193B0E067
:10220000B1938E012801B1E03B2EB1E02B2E0E944C
:10221000D39EFE01B0E5B193B2E7B193BAE3B193B7
:10222000B1E3B193B0E2B193B2E3B193B0E2B19351
:10223000B0E2B193B0E2B193B4E3B193B0E2B19341
:10224000B5E3B193B0E2B193B6E3B193B0E2B19329
:10225000B7E3B193B0E0B1938E012801B1E03B2E1A
:10226000B2E02B2E0E94D39E2F903F904F905F9014
:1022700025E01FE002EF0A95F1F71A95E1F72A959C
:10228000D1F718C3B4E02B1609F0C3C0FE01B8E2C1
:10229000B193BFE4B193BEE6B193BAE3B193BFE4A7
:1022A000B193B6E6B193B6E6B193B9E2B193B0E2B9
:1022B000B193B0E2B193B8E2B193B0E5B193B7E5B1
:1022C000B193BDE4B193B9E2B193B0E0B1938E01A3
:1022D0005F924F923F922F922801B1E03B2EB1E0E6
:1022E0002B2E0E94D39EFE01B0E5B193B2E7B193CD
:1022F000BAE3B193B1E3B193B0E2B193B2E3B19376
:10230000B0E2B193B3E3B193B0E2B193B4E3B1936C
:10231000B0E2B193B5E3B193B0E2B193B6E3B19358
:10232000B0E2B193B7E3B193B0E0B1938E0128016D
:10233000B1E03B2EB2E02B2E0E94D39E25E01FE0A1
:1023400002EF0A95F1F71A95E1F72A95D1F7FE0108
:10235000B8E2B193BFE4B193BEE6B193BAE3B193EF
:10236000B0E2B193B0E2B193B0E2B193B9E2B1930C
:10237000B0E2B193B0E2B193B8E2B193B0E5B193FA
:10238000B7E5B193BDE4B193B9E2B193B0E0B193D5
:102390008E012801B1E03B2EB1E02B2E0E94D39E8E
:1023A000FE01B0E5B193B2E7B193BAE3B193B1E303
:1023B000B193B0E2B193B2E3B193B0E2B193B3E3BE
:1023C000B193B0E2B193B0E2B193B0E2B193B5E3AF
:1023D000B193B0E2B193B6E3B193B0E2B193B7E396
:1023E000B193B0E0B1938E012801B1E03B2EB2E091
:1023F0002B2E0E94D39E2F903F904F905F9025E010
:102400001FE002EF0A95F1F71A95E1F72A95D1F747
:1024100051C2B5E02B1609F0C3C0FE01B8E2B1937A
:10242000BFE4B193BEE6B193BAE3B193BFE4B19315
:10243000B6E6B193B6E6B193B9E2B193B0E2B19327
:10244000B0E2B193B8E2B193B0E5B193B7E5B1931F
:10245000BDE4B193B9E2B193B0E0B1938E015F9264
:102460004F923F922F922801B1E03B2EB1E02B2EEC
:102470000E94D39EFE01B0E5B193B2E7B193BAE3F7
:10248000B193B1E3B193B0E2B193B2E3B193B0E2EF
:10249000B193B3E3B193B0E2B193B4E3B193B0E2DB
:1024A000B193B5E3B193B0E2B193B6E3B193B0E2C7
:1024B000B193B7E3B193B0E0B1938E012801B1E0DD
:1024C0003B2EB2E02B2E0E94D39E25E01FE002EFB0
:1024D0000A95F1F71A95E1F72A95D1F7FE01B8E2CE
:1024E000B193BFE4B193BEE6B193BAE3B193B0E266
:1024F000B193B0E2B193B0E2B193B9E2B193B0E27B
:10250000B193B0E2B193B8E2B193B0E5B193B7E55E
:10251000B193BDE4B193B9E2B193B0E0B1938E0150
:102520002801B1E03B2EB1E02B2E0E94D39EFE018C
:10253000B0E5B193B2E7B193BAE3B193B1E3B1932C
:10254000B0E2B193B2E3B193B0E2B193B3E3B1932C
:10255000B0E2B193B4E3B193B0E2B193B0E2B1931E
:10256000B0E2B193B6E3B193B0E2B193B7E3B19304
:10257000B0E0B1938E012801B1E03B2EB2E02B2EEA
:102580000E94D39E2F903F904F905F9025E01FE0D8
:1025900002EF0A95F1F71A95E1F72A95D1F78AC16A
:1025A000B6E02B1609F0BFC0FE01B8E2B193BFE45C
:1025B000B193BEE6B193BAE3B193BFE4B193B6E68B
:1025C000B193B6E6B193B9E2B193B0E2B193B0E2A0
:1025D000B193B8E2B193B0E5B193B7E5B193BDE47F
:1025E000B193B9E2B193B0E0B1938E015F924F9293
:1025F0003F922F922801B1E03B2EB1E02B2E0E949A
:10260000D39EFE01B0E5B193B2E7B193BAE3B193C3
:10261000B1E3B193B0E2B193B2E3B193B0E2B1935D
:10262000B3E3B193B0E2B193B4E3B193B0E2B19349
:10263000B5E3B193B0E2B193B6E3B193B0E2B19335
:10264000B7E3B193B0E0B1938E012801B1E03B2E26
:10265000B2E02B2E0E94D39E25E01FE002EF0A95E8
:10266000F1F71A95E1F72A95D1F7FE01B8E2B19397
:10267000BFE4B193BEE6B193BAE3B193B0E2B193D4
:10268000B0E2B193B0E2B193B9E2B193B0E2B193E9
:10269000B0E2B193B8E2B193B0E5B193B7E5B193CD
:1026A000BDE4B193B9E2B193B0E0B1938E012801DA
:1026B000B1E03B2EB1E02B2E0E94D39EFE01B6E787
:1026C000B193B1E3B193B0E2B193B2E3B193B0E2AD
:1026D000B193B3E3B193B0E2B193B4E3B193B0E299
:1026E000B193B5E3B193B0E2B193B0E2B193B0E28C
:1026F000B193B7E3B193B0E0B1938E012801B1E09B
:102700003B2EB2E02B2E0E94D39E2F903F904F90F5
:102710005F9025E01FE002EF0A95F1F71A95E1F7C7
:102720002A95D1F7C7C0B7E02B1609F0C3C0FE0148
:10273000B8E2B193BFE4B193BEE6B193BAE3B1930B
:10274000BFE4B193B6E6B193B6E6B193B9E2B19303
:10275000B0E2B193B0E2B193B8E2B193B0E5B19316
:10276000B7E5B193BDE4B193B9E2B193B0E0B193F1
:102770008E015F924F923F922F922801B1E03B2E43
:10278000B1E02B2E0E94D39EFE01B0E5B193B2E7DB
:10279000B193BAE3B193B1E3B193B0E2B193B2E3D1
:1027A000B193B0E2B193B3E3B193B0E2B193B4E3C8
:1027B000B193B0E2B193B5E3B193B0E2B193B6E3B4
:1027C000B193B0E2B193B7E3B193B0E0B1938E01AE
:1027D0002801B1E03B2EB2E02B2E0E94D39E25E0D3
:1027E0001FE002EF0A95F1F71A95E1F72A95D1F764
:1027F000FE01B8E2B193BFE4B193BEE6B193BAE390
:10280000B193B0E2B193B0E2B193B0E2B193B9E267
:10281000B193B0E2B193B0E2B193B8E2B193B0E555
:10282000B193B7E5B193BDE4B193B9E2B193B0E030
:10283000B1938E012801B1E03B2EB1E02B2E0E9416
:10284000D39EFE01B0E5B193B2E7B193BAE3B19381
:10285000B1E3B193B0E2B193B2E3B193B0E2B1931B
:10286000B3E3B193B0E2B193B4E3B193B0E2B19307
:10287000B5E3B193B0E2B193B6E3B193B0E2B193F3
:10288000B0E2B193B0E0B1938E012801B1E03B2EEC
:10289000B2E02B2E0E94D39E2F903F904F905F90DE
:1028A00025E01FE002EF0A95F1F71A95E1F72A9566
:1028B000D1F700C05F924F923F922F926624552429
:1028C000B5E04B2EB2E32B2EB0E03B2E0E940670FB
:1028D0002F903F904F905F90002329F0B09102011C
:1028E000B160B09302015F924F923F922F92B1E09C
:1028F0006B2E5524B5E04B2EB0E32B2EB0E03B2ED3
:102900000E9406702F903F904F905F9000900201C0
:10291000112700FC1395012339F0341411F4352CE0
:1029200003C0032D0F5F302EB0910201B160B09350
:1029300002015F924F923F922F9266245524B4E099
:102940004B2EB2E32B2EB0E03B2E0E9406702F9050
:102950003F904F905F90002329F0B0910201B16049
:10296000B09302015F924F923F922F92B1E06B2E93
:102970005524B4E04B2EB0E32B2EB0E03B2E0E944A
:1029800006702F903F904F905F90009002011127AA
:1029900000FC1395012339F0351411F4342C03C0D5
:1029A000032D0150302E309203015F924F923F92DF
:1029B0002F9266245524B2E04B2EB0E32B2EB0E0CC
:1029C0003B2E0E9406702F903F904F905F900030FA
:1029D00029F0B0910201B062B09302015F924F9270
:1029E0003F922F92B1E06B2E5524B2E04B2EB0E314
:1029F0002B2EB0E03B2E0E9406702F903F904F9000
:102A00005F9000900201112705FC1395012309F442
:102A1000C4C0B0910201BF7DB0930201B091020128
:102A2000BF7EB093020100910801102F1F5F109329
:102A3000080100910901101719F4B1E0B0930801E1
:102A40005F924F923F922F920E945B6B2F903F902C
:102A50004F905F90B2E03B1609F051C0FE01BFE419
:102A6000B193B6E6B193B6E6B193B0E2B193B4E7F1
:102A7000B193B9E6B193BDE6B193B5E6B193B0E2D7
:102A8000B193B9E6B193B3E7B193B0E2B193B0E0DB
:102A9000B1938E015F924F923F922F922801B1E045
:102AA0003B2EB1E02B2E0E94D39EFE01B3E7B193E3
:102AB000B5E6B193BCE6B193B5E6B193B3E6B19395
:102AC000B4E7B193B5E6B193B4E6B193B0E0B19396
:102AD0008E012801B1E03B2EB2E02B2E0E94D39E46
:102AE0002F903F904F905F9025E11BE40FEB0A95EC
:102AF000F1F71A95E1F72A95D1F700004EC0FE01D3
:102B0000BFE4B193BEE6B193B0E2B193B4E7B19341
:102B1000B9E6B193BDE6B193B5E6B193B0E2B19336
:102B2000B9E6B193B3E7B193B0E2B193B0E0B1933A
:102B30008E015F924F923F922F922801B1E03B2E7F
:102B4000B1E02B2E0E94D39EFE01B3E7B193B5E610
:102B5000B193BCE6B193B5E6B193B3E6B193B4E7F4
:102B6000B193B5E6B193B4E6B193B0E0B1938E0101
:102B70002801B1E03B2EB2E02B2E0E94D39E2F9075
:102B80003F904F905F9025E11BE40FEB0A95F1F722
:102B90001A95E1F72A95D1F700005F924F923F9284
:102BA0002F9266245524B6E04B2EB0E32B2EB0E0D6
:102BB0003B2E0E9406702F903F904F905F90003008
:102BC00029F0B0910201B160B093020110900201AE
:102BD000009002014E7F14FC00FE01C041605F9234
:102BE0004F923F922F92B1E06B2E5524B6E04B2EC0
:102BF000B0E32B2EB0E03B2E0E9406702F903F904A
:102C00004F905F90112740FD1395012309F4C4C034
:102C1000B0910201BF7EB0930201B0910201BE7F6C
:102C2000B09302015F924F923F922F920E945B6B92
:102C30002F903F904F905F9000910801102F1F5FE1
:102C40001093080100910901101719F4B1E0B09335
:102C50000801B2E03B1609F051C0FE01BFE4B19398
:102C6000B6E6B193B6E6B193B0E2B193B4E7B193EF
:102C7000B9E6B193BDE6B193B5E6B193B0E2B193D5
:102C8000B9E6B193B3E7B193B0E2B193B0E0B193D9
:102C90008E015F924F923F922F922801B1E03B2E1E
:102CA000B1E02B2E0E94D39EFE01B3E7B193B5E6AF
:102CB000B193BCE6B193B5E6B193B3E6B193B4E793
:102CC000B193B5E6B193B4E6B193B0E0B1938E01A0
:102CD0002801B1E03B2EB2E02B2E0E94D39E2F9014
:102CE0003F904F905F9025E11BE40FEB0A95F1F7C1
:102CF0001A95E1F72A95D1F700004EC0FE01BFE416
:102D0000B193BEE6B193B0E2B193B4E7B193B9E643
:102D1000B193BDE6B193B5E6B193B0E2B193B9E634
:102D2000B193B3E7B193B0E2B193B0E0B1938E0148
:102D30005F924F923F922F922801B1E03B2EB1E07B
:102D40002B2E0E94D39EFE01B3E7B193B5E6B1935B
:102D5000BCE6B193B5E6B193B3E6B193B4E7B193F2
:102D6000B5E6B193B4E6B193B0E0B1938E0128011A
:102D7000B1E03B2EB2E02B2E0E94D39E2F903F90CD
:102D80004F905F9025E11BE40FEB0A95F1F71A9540
:102D9000E1F72A95D1F70000309203010C947209F3
:102DA0006F906096CDBFDEBFDF91CF910895CF9336
:102DB000DF93CDB7DEB76497CDBFDEBF2196B0916C
:102DC0000201B061B0930201B0910201BF7DB093E6
:102DD00002016F925F924F923F922F920E945B6B23
:102DE0002F903F904F905F906F9010900201009055
:102DF0003A074E7F14FC07FE01C0416040FFC0C788
:102E00006F925F924F923F922F92232CB1E73B2E0D
:102E1000B7E04B2E0E94D0072F903F904F904F92DB
:102E20003F922F92242CB2E63B2EB7E04B2E0E940D
:102E3000D0078E01302E412E2090B4070E94D0077B
:102E40002F903F904F905F906F90B1E02B1609F05C
:102E5000E8C08E016F925F924F923F922F922801AD
:102E6000B2E03B2EB1E02B2E0E94D39EB3E4BB8395
:102E7000B8E6BC83BAE3BD83B0E0BE838E010D5FCC
:102E80001F4F2801B1E03B2EB1E02B2E0E94D39EB4
:102E9000B1E74B2EB7E05B2EB7E03B2EB1E02B2E17
:102EA0000E94D39EB2E64B2EB7E05B2EBAE03B2EDB
:102EB000B1E02B2E0E94D39EBAE3BB83B0E0BC836B
:102EC0008E010D5F1F4F2801BAE03B2EB1E02B2E83
:102ED0000E94D39EFE013396B0E5B193B2E7B19361
:102EE000BAE3B193B1E3B193B0E2B193B2E3B1937A
:102EF000B0E2B193B3E3B193B0E2B193B4E3B19371
:102F0000B0E2B193B5E3B193B0E2B193B6E3B1935C
:102F1000B0E2B193B7E3B193B0E0B1938E010D5F2E
:102F20001F4F2801B1E03B2EB2E02B2E0E94D39E12
:102F300025E01FE002EF0A95F1F71A95E1F72A95CF
:102F4000D1F7B0E2B0937107B0E2B0937207B0E08E
:102F5000B0937307B0E2BB83B0E2BC83B0E2BD8341
:102F6000B0E0BE838E010D5F1F4F2801B7E03B2EFE
:102F7000B1E02B2E0E94D39EB2E64B2EB7E05B2E23
:102F8000BAE03B2EB1E02B2E0E94D39EBAE3BB8366
:102F9000B0E0BC838E010D5F1F4F2801BAE03B2ECD
:102FA000B1E02B2E0E94D39EFE013396B4E4B19380
:102FB000B9E7B193BAE3B193B0E2B193B0E2B193A0
:102FC000B2E3B193B0E2B193B3E3B193B0E2B193A2
:102FD000B4E3B193B0E2B193B5E3B193B0E2B1938E
:102FE000B6E3B193B0E2B193B7E3B193B0E0B1937C
:102FF0008E010D5F1F4F2801B1E03B2EB2E02B2E5A
:103000000E94D39E2F903F904F905F906F9025E04D
:103010001FE002EF0A95F1F71A95E1F72A95D1F72B
:1030200088C5B2E02B1609F0E8C08E016F925F925E
:103030004F923F922F922801B2E03B2EB1E02B2E0F
:103040000E94D39EB3E4BB83B8E6BC83BAE3BD83DE
:10305000B0E0BE838E010D5F1F4F2801B1E03B2E13
:10306000B1E02B2E0E94D39EB1E74B2EB7E05B2E32
:10307000B7E03B2EB1E02B2E0E94D39EB2E64B2E42
:10308000B7E05B2EBAE03B2EB1E02B2E0E94D39E20
:10309000BAE3BB83B0E0BC838E010D5F1F4F2801F4
:1030A000BAE03B2EB1E02B2E0E94D39EFE01339658
:1030B000B0E5B193B2E7B193BAE3B193B1E3B193A1
:1030C000B0E2B193B2E3B193B0E2B193B3E3B193A1
:1030D000B0E2B193B4E3B193B0E2B193B5E3B1938D
:1030E000B0E2B193B6E3B193B0E2B193B7E3B19379
:1030F000B0E0B1938E010D5F1F4F2801B1E03B2E70
:10310000B2E02B2E0E94D39E25E01FE002EF0A952D
:10311000F1F71A95E1F72A95D1F7B0E2B09371076C
:10312000B0E2B0937207B0E0B0937307B0E2BB8334
:10313000B0E2BC83B0E2BD83B0E0BE838E010D5F20
:103140001F4F2801B7E03B2EB1E02B2E0E94D39EEB
:10315000B2E64B2EB7E05B2EBAE03B2EB1E02B2E51
:103160000E94D39EBAE3BB83B0E0BC838E010D5FA7
:103170001F4F2801BAE03B2EB1E02B2E0E94D39EB8
:10318000FE013396B0E5B193B2E7B193BAE3B193E0
:10319000B1E3B193B0E2B193B0E2B193B0E2B193D5
:1031A000B3E3B193B0E2B193B4E3B193B0E2B193BE
:1031B000B5E3B193B0E2B193B6E3B193B0E2B193AA
:1031C000B7E3B193B0E0B1938E010D5F1F4F2801BB
:1031D000B1E03B2EB2E02B2E0E94D39E2F903F9069
:1031E0004F905F906F9025E01FE002EF0A95F1F796
:1031F0001A95E1F72A95D1F79CC4B3E02B1609F094
:10320000E8C08E016F925F924F923F922F922801F9
:10321000B2E03B2EB1E02B2E0E94D39EB3E4BB83E1
:10322000B8E6BC83BAE3BD83B0E0BE838E010D5F18
:103230001F4F2801B1E03B2EB1E02B2E0E94D39E00
:10324000B1E74B2EB7E05B2EB7E03B2EB1E02B2E63
:103250000E94D39EB2E64B2EB7E05B2EBAE03B2E27
:10326000B1E02B2E0E94D39EBAE3BB83B0E0BC83B7
:103270008E010D5F1F4F2801BAE03B2EB1E02B2ECF
:103280000E94D39EFE013396B0E5B193B2E7B193AD
:10329000BAE3B193B1E3B193B0E2B193B2E3B193C6
:1032A000B0E2B193B3E3B193B0E2B193B4E3B193BD
:1032B000B0E2B193B5E3B193B0E2B193B6E3B193A9
:1032C000B0E2B193B7E3B193B0E0B1938E010D5F7B
:1032D0001F4F2801B1E03B2EB2E02B2E0E94D39E5F
:1032E00025E01FE002EF0A95F1F71A95E1F72A951C
:1032F000D1F7B0E2B0937107B0E2B0937207B0E0DB
:10330000B0937307B0E2BB83B0E2BC83B0E2BD838D
:10331000B0E0BE838E010D5F1F4F2801B7E03B2E4A
:10332000B1E02B2E0E94D39EB2E64B2EB7E05B2E6F
:10333000BAE03B2EB1E02B2E0E94D39EBAE3BB83B2
:10334000B0E0BC838E010D5F1F4F2801BAE03B2E19
:10335000B1E02B2E0E94D39EFE013396B0E5B193CF
:10336000B2E7B193BAE3B193B1E3B193B0E2B193F1
:10337000B2E3B193B0E2B193B0E2B193B0E2B193F2
:10338000B4E3B193B0E2B193B5E3B193B0E2B193DA
:10339000B6E3B193B0E2B193B7E3B193B0E0B193C8
:1033A0008E010D5F1F4F2801B1E03B2EB2E02B2EA6
:1033B0000E94D39E2F903F904F905F906F9025E09A
:1033C0001FE002EF0A95F1F71A95E1F72A95D1F778
:1033D000B0C3B4E02B1609F0E8C08E016F925F9283
:1033E0004F923F922F922801B4E03B2EB1E02B2E5A
:1033F0000E94D39EB3E4BB83B8E6BC83BAE3BD832B
:10340000B0E0BE838E010D5F1F4F2801B1E03B2E5F
:10341000B1E02B2E0E94D39EB1E74B2EB7E05B2E7E
:10342000B7E03B2EB1E02B2E0E94D39EB2E64B2E8E
:10343000B7E05B2EBAE03B2EB1E02B2E0E94D39E6C
:10344000BAE3BB83B0E0BC838E010D5F1F4F280140
:10345000BAE03B2EB1E02B2E0E94D39EFE013396A4
:10346000B0E5B193B2E7B193BAE3B193B1E3B193ED
:10347000B0E2B193B2E3B193B0E2B193B3E3B193ED
:10348000B0E2B193B4E3B193B0E2B193B5E3B193D9
:10349000B0E2B193B6E3B193B0E2B193B7E3B193C5
:1034A000B0E0B1938E010D5F1F4F2801B1E03B2EBC
:1034B000B2E02B2E0E94D39E25E01FE002EF0A957A
:1034C000F1F71A95E1F72A95D1F7B0E2B0937107B9
:1034D000B0E2B0937207B0E0B0937307B0E2BB8381
:1034E000B0E2BC83B0E2BD83B0E0BE838E010D5F6D
:1034F0001F4F2801B7E03B2EB1E02B2E0E94D39E38
:10350000B2E64B2EB7E05B2EBAE03B2EB1E02B2E9D
:103510000E94D39EBAE3BB83B0E0BC838E010D5FF3
:103520001F4F2801BAE03B2EB1E02B2E0E94D39E04
:10353000FE013396B0E5B193B2E7B193BAE3B1932C
:10354000B1E3B193B0E2B193B2E3B193B0E2B1931E
:10355000B3E3B193B0E2B193B0E2B193B0E2B1930F
:10356000B5E3B193B0E2B193B6E3B193B0E2B193F6
:10357000B7E3B193B0E0B1938E010D5F1F4F280107
:10358000B1E03B2EB2E02B2E0E94D39E2F903F90B5
:103590004F905F906F9025E01FE002EF0A95F1F7E2
:1035A0001A95E1F72A95D1F7C4C2B5E02B1609F0B8
:1035B000E8C08E016F925F924F923F922F92280146
:1035C000B2E03B2EB1E02B2E0E94D39EB3E4BB832E
:1035D000B8E6BC83BAE3BD83B0E0BE838E010D5F65
:1035E0001F4F2801B1E03B2EB1E02B2E0E94D39E4D
:1035F000B1E74B2EB7E05B2EB7E03B2EB1E02B2EB0
:103600000E94D39EB2E64B2EB7E05B2EBAE03B2E73
:10361000B1E02B2E0E94D39EBAE3BB83B0E0BC8303
:103620008E010D5F1F4F2801BAE03B2EB1E02B2E1B
:103630000E94D39EFE013396B0E5B193B2E7B193F9
:10364000BAE3B193B1E3B193B0E2B193B2E3B19312
:10365000B0E2B193B3E3B193B0E2B193B4E3B19309
:10366000B0E2B193B5E3B193B0E2B193B6E3B193F5
:10367000B0E2B193B7E3B193B0E0B1938E010D5FC7
:103680001F4F2801B1E03B2EB2E02B2E0E94D39EAB
:1036900025E01FE002EF0A95F1F71A95E1F72A9568
:1036A000D1F7B0E2B0937107B0E2B0937207B0E027
:1036B000B0937307B0E2BB83B0E2BC83B0E2BD83DA
:1036C000B0E0BE838E010D5F1F4F2801B7E03B2E97
:1036D000B1E02B2E0E94D39EB2E64B2EB7E05B2EBC
:1036E000BAE03B2EB1E02B2E0E94D39EBAE3BB83FF
:1036F000B0E0BC838E010D5F1F4F2801BAE03B2E66
:10370000B1E02B2E0E94D39EFE013396B0E5B1931B
:10371000B2E7B193BAE3B193B1E3B193B0E2B1933D
:10372000B2E3B193B0E2B193B3E3B193B0E2B1933A
:10373000B4E3B193B0E2B193B0E2B193B0E2B1932C
:10374000B6E3B193B0E2B193B7E3B193B0E0B19314
:103750008E010D5F1F4F2801B1E03B2EB2E02B2EF2
:103760000E94D39E2F903F904F905F906F9025E0E6
:103770001FE002EF0A95F1F71A95E1F72A95D1F7C4
:10378000D8C1B6E02B1609F0E8C08E016F925F92A7
:103790004F923F922F922801B2E03B2EB1E02B2EA8
:1037A0000E94D39EB3E4BB83B8E6BC83BAE3BD8377
:1037B000B0E0BE838E010D5F1F4F2801B1E03B2EAC
:1037C000B1E02B2E0E94D39EB1E74B2EB7E05B2ECB
:1037D000B7E03B2EB1E02B2E0E94D39EB2E64B2EDB
:1037E000B7E05B2EBAE03B2EB1E02B2E0E94D39EB9
:1037F000BAE3BB83B0E0BC838E010D5F1F4F28018D
:10380000BAE03B2EB1E02B2E0E94D39EFE013396F0
:10381000B0E5B193B2E7B193BAE3B193B1E3B19339
:10382000B0E2B193B2E3B193B0E2B193B3E3B19339
:10383000B0E2B193B4E3B193B0E2B193B5E3B19325
:10384000B0E2B193B6E3B193B0E2B193B7E3B19311
:10385000B0E0B1938E010D5F1F4F2801B1E03B2E08
:10386000B2E02B2E0E94D39E25E01FE002EF0A95C6
:10387000F1F71A95E1F72A95D1F7B0E2B093710705
:10388000B0E2B0937207B0E0B0937307B0E2BB83CD
:10389000B0E2BC83B0E2BD83B0E0BE838E010D5FB9
:1038A0001F4F2801B7E03B2EB1E02B2E0E94D39E84
:1038B000B2E64B2EB7E05B2EBAE03B2EB1E02B2EEA
:1038C0000E94D39EBAE3BB83B0E0BC838E010D5F40
:1038D0001F4F2801BAE03B2EB1E02B2E0E94D39E51
:1038E000FE013396B0E5B193B2E7B193BAE3B19379
:1038F000B1E3B193B0E2B193B2E3B193B0E2B1936B
:10390000B3E3B193B0E2B193B4E3B193B0E2B19356
:10391000B5E3B193B0E2B193B0E2B193B0E2B19349
:10392000B7E3B193B0E0B1938E010D5F1F4F280153
:10393000B1E03B2EB2E02B2E0E94D39E2F903F9001
:103940004F905F906F9025E01FE002EF0A95F1F72E
:103950001A95E1F72A95D1F7ECC0B7E02B1609F0DC
:10396000E8C08E016F925F924F923F922F92280192
:10397000B2E03B2EB1E02B2E0E94D39EB3E4BB837A
:10398000B8E6BC83BAE3BD83B0E0BE838E010D5FB1
:103990001F4F2801B1E03B2EB1E02B2E0E94D39E99
:1039A000B1E74B2EB7E05B2EB7E03B2EB1E02B2EFC
:1039B0000E94D39EB2E64B2EB7E05B2EBAE03B2EC0
:1039C000B1E02B2E0E94D39EBAE3BB83B0E0BC8350
:1039D0008E010D5F1F4F2801BAE03B2EB1E02B2E68
:1039E0000E94D39EFE013396B0E5B193B2E7B19346
:1039F000BAE3B193B1E3B193B0E2B193B2E3B1935F
:103A0000B0E2B193B3E3B193B0E2B193B4E3B19355
:103A1000B0E2B193B5E3B193B0E2B193B6E3B19341
:103A2000B0E2B193B7E3B193B0E0B1938E010D5F13
:103A30001F4F2801B1E03B2EB2E02B2E0E94D39EF7
:103A400025E01FE002EF0A95F1F71A95E1F72A95B4
:103A5000D1F7B0E2B0937107B0E2B0937207B0E073
:103A6000B0937307B0E2BB83B0E2BC83B0E2BD8326
:103A7000B0E0BE838E010D5F1F4F2801B7E03B2EE3
:103A8000B1E02B2E0E94D39EB2E64B2EB7E05B2E08
:103A9000BAE03B2EB1E02B2E0E94D39EBAE3BB834B
:103AA000B0E0BC838E010D5F1F4F2801BAE03B2EB2
:103AB000B1E02B2E0E94D39EFE013396B0E5B19368
:103AC000B2E7B193BAE3B193B1E3B193B0E2B1938A
:103AD000B2E3B193B0E2B193B3E3B193B0E2B19387
:103AE000B4E3B193B0E2B193B5E3B193B0E2B19373
:103AF000B6E3B193B0E2B193B0E2B193B0E0B19369
:103B00008E010D5F1F4F2801B1E03B2EB2E02B2E3E
:103B10000E94D39E2F903F904F905F906F9025E032
:103B20001FE002EF0A95F1F71A95E1F72A95D1F710
:103B300000C06F925F924F923F922F92662455245D
:103B4000B5E04B2EB2E32B2EB0E03B2E0E94067068
:103B50002F903F904F905F906F90002329F0B0918D
:103B60000201B160B09302016F925F924F923F9257
:103B70002F92B1E06B2E5524B5E04B2EB0E32B2EE7
:103B8000B0E03B2E0E9406702F903F904F905F90C8
:103B90006F9000900201112700FC1395012339F06A
:103BA000351410F0362C03C0032D0F5F302EB0916A
:103BB0000201B160B09302016F925F924F923F9207
:103BC0002F9266245524B4E04B2EB2E32B2EB0E0A6
:103BD0003B2E0E9406702F903F904F905F906F9009
:103BE000002329F0B0910201B160B09302016F92FD
:103BF0005F924F923F922F92B1E06B2E5524B4E02A
:103C00004B2EB0E32B2EB0E03B2E0E9406702F907F
:103C10003F904F905F906F9000900201112700FC41
:103C20001395012339F0631410F0352C03C0032DD4
:103C30000150302E309203016F925F924F923F926B
:103C40002F9266245524B2E04B2EB0E32B2EB0E029
:103C50003B2E0E9406702F903F904F905F906F9088
:103C6000003029F0B0910201B062B09302016F926E
:103C70005F924F923F922F92B1E06B2E5524B2E0AB
:103C80004B2EB0E32B2EB0E03B2E0E9406702F90FF
:103C90003F904F905F906F9000900201112705FCBC
:103CA00013950123B1F0B0910201BF7DB0930201E1
:103CB000B0910201BF7EB09302016F925F924F926A
:103CC0003F922F920E945B6B2F903F904F905F909E
:103CD0006F906F925F924F923F922F92662455247D
:103CE000B6E04B2EB0E32B2EB0E03B2E0E940670C8
:103CF0002F903F904F905F906F90003029F0B091DF
:103D00000201B160B0930201109002010090020123
:103D10004E7F14FC00FE01C041606F925F924F9293
:103D20003F922F92B1E06B2E5524B6E04B2EB0E3BC
:103D30002B2EB0E03B2E0E9406702F903F904F90AC
:103D40005F906F90112740FD13950123B1F0B09162
:103D50000201BF7EB0930201B0910201BE7FB09319
:103D600002016F925F924F923F922F920E945B6B83
:103D70002F903F904F905F906F903092030135C825
:103D80006396CDBFDEBFDF91CF91089505E80A9518
:103D9000F1F700000895CF93DF93CDB7DEB76497B6
:103DA000CDBFDEBF2196B0910201B061B093020198
:103DB000B0910201BF7DB09302016F925F924F926A
:103DC0003F922F920E945B6B2F903F904F905F909D
:103DD0006F90B0910201B4FF0C9486276F925F92AE
:103DE0004F923F922F92232CB1E73B2EB7E04B2E00
:103DF0000E94D0072F903F904F904F923F922F926A
:103E0000242CB2E63B2EB7E04B2E0E94D0078E0149
:103E1000302E412E2090B4070E94D0072F903F9063
:103E20004F905F906F90B1E02B1609F0E3C08E01C8
:103E30006F925F924F923F922F922801B2E03B2EF9
:103E4000B1E02B2E0E94D39EB3E4BB83B8E6BC83C3
:103E5000BAE3BD83B0E0BE838E010D5F1F4F280122
:103E6000B1E03B2EB1E02B2E0E94D39EB1E74B2E4A
:103E7000B7E05B2EB7E03B2EB1E02B2E0E94D39E25
:103E8000B2E64B2EB7E05B2EBAE03B2EB1E02B2E14
:103E90000E94D39EBAE3BB83B0E0BC838E010D5F6A
:103EA0001F4F2801BAE03B2EB1E02B2E0E94D39E7B
:103EB000FE013396B0E5B193B2E7B193BAE3B193A3
:103EC000B1E3B193B0E2B193B2E3B193B0E2B19395
:103ED000B3E3B193B0E2B193B4E3B193B0E2B19381
:103EE000B5E3B193B0E2B193B6E3B193B0E2B1936D
:103EF000B7E3B193B0E0B1938E010D5F1F4F28017E
:103F0000B1E03B2EB2E02B2E0E94D39E25E01FE0B5
:103F100002EF0A95F1F71A95E1F72A95D1F7B0E289
:103F2000B0936207B0E2B0936307B0E2B093640766
:103F3000B0E0B0936507B1E74B2EB7E05B2EB7E07A
:103F40003B2EB1E02B2E0E94D39EB2E64B2EB7E063
:103F50005B2EBAE03B2EB1E02B2E0E94D39EBAE33B
:103F6000BB83B0E0BC838E010D5F1F4F2801BAE018
:103F70003B2EB1E02B2E0E94D39EFE013396B4E47B
:103F8000B193B9E7B193BAE3B193B0E2B193B0E2C0
:103F9000B193B2E3B193B0E2B193B3E3B193B0E2C2
:103FA000B193B4E3B193B0E2B193B5E3B193B0E2AE
:103FB000B193B6E3B193B0E2B193B7E3B193B0E09C
:103FC000B1938E010D5F1F4F2801B1E03B2EB2E08F
:103FD0002B2E0E94D39E2F903F904F905F906F901A
:103FE00025E01FE002EF0A95F1F71A95E1F72A950F
:103FF000D1F76AC5B2E02B1609F0E3C08E016F92CB
:104000005F924F923F922F922801B2E03B2EB1E097
:104010002B2E0E94D39EB3E4BB83B8E6BC83BAE3E5
:10402000BD83B0E0BE838E010D5F1F4F2801B1E05C
:104030003B2EB1E02B2E0E94D39EB1E74B2EB7E072
:104040005B2EB7E03B2EB1E02B2E0E94D39EB2E652
:104050004B2EB7E05B2EBAE03B2EB1E02B2E0E9438
:10406000D39EBAE3BB83B0E0BC838E010D5F1F4FCC
:104070002801BAE03B2EB1E02B2E0E94D39EFE0118
:104080003396B0E5B193B2E7B193BAE3B193B1E33C
:10409000B193B0E2B193B2E3B193B0E2B193B3E3C1
:1040A000B193B0E2B193B4E3B193B0E2B193B5E3AD
:1040B000B193B0E2B193B6E3B193B0E2B193B7E399
:1040C000B193B0E0B1938E010D5F1F4F2801B1E0B5
:1040D0003B2EB2E02B2E0E94D39E25E01FE002EF84
:1040E0000A95F1F71A95E1F72A95D1F7B0E2B09366
:1040F0006207B0E2B0936307B0E2B0936407B0E048
:10410000B0936507B1E74B2EB7E05B2EB7E03B2ECF
:10411000B1E02B2E0E94D39EB2E64B2EB7E05B2E71
:10412000BAE03B2EB1E02B2E0E94D39EBAE3BB83B4
:10413000B0E0BC838E010D5F1F4F2801BAE03B2E1B
:10414000B1E02B2E0E94D39EFE013396B0E5B193D1
:10415000B2E7B193BAE3B193B1E3B193B0E2B193F3
:10416000B0E2B193B0E2B193B3E3B193B0E2B193F3
:10417000B4E3B193B0E2B193B5E3B193B0E2B193DC
:10418000B6E3B193B0E2B193B7E3B193B0E0B193CA
:104190008E010D5F1F4F2801B1E03B2EB2E02B2EA8
:1041A0000E94D39E2F903F904F905F906F9025E09C
:1041B0001FE002EF0A95F1F71A95E1F72A95D1F77A
:1041C00083C4B3E02B1609F0E3C08E016F925F92B7
:1041D0004F923F922F922801B2E03B2EB1E02B2E5E
:1041E0000E94D39EB3E4BB83B8E6BC83BAE3BD832D
:1041F000B0E0BE838E010D5F1F4F2801B1E03B2E62
:10420000B1E02B2E0E94D39EB1E74B2EB7E05B2E80
:10421000B7E03B2EB1E02B2E0E94D39EB2E64B2E90
:10422000B7E05B2EBAE03B2EB1E02B2E0E94D39E6E
:10423000BAE3BB83B0E0BC838E010D5F1F4F280142
:10424000BAE03B2EB1E02B2E0E94D39EFE013396A6
:10425000B0E5B193B2E7B193BAE3B193B1E3B193EF
:10426000B0E2B193B2E3B193B0E2B193B3E3B193EF
:10427000B0E2B193B4E3B193B0E2B193B5E3B193DB
:10428000B0E2B193B6E3B193B0E2B193B7E3B193C7
:10429000B0E0B1938E010D5F1F4F2801B1E03B2EBE
:1042A000B2E02B2E0E94D39E25E01FE002EF0A957C
:1042B000F1F71A95E1F72A95D1F7B0E2B0936207CA
:1042C000B0E2B0936307B0E2B0936407B0E0B0939C
:1042D0006507B1E74B2EB7E05B2EB7E03B2EB1E0B0
:1042E0002B2E0E94D39EB2E64B2EB7E05B2EBAE097
:1042F0003B2EB1E02B2E0E94D39EBAE3BB83B0E0ED
:10430000BC838E010D5F1F4F2801BAE03B2EB1E048
:104310002B2E0E94D39EFE013396B0E5B193B2E7F7
:10432000B193BAE3B193B1E3B193B0E2B193B2E325
:10433000B193B0E2B193B0E2B193B0E2B193B4E320
:10434000B193B0E2B193B5E3B193B0E2B193B6E308
:10435000B193B0E2B193B7E3B193B0E0B1938E0102
:104360000D5F1F4F2801B1E03B2EB2E02B2E0E94C3
:10437000D39E2F903F904F905F906F9025E01FE06D
:1043800002EF0A95F1F71A95E1F72A95D1F79CC348
:10439000B4E02B1609F0E3C08E016F925F924F924A
:1043A0003F922F922801B2E03B2EB1E02B2E0E94CB
:1043B000D39EB3E4BB83B8E6BC83BAE3BD83B0E06D
:1043C000BE838E010D5F1F4F2801B1E03B2EB1E08F
:1043D0002B2E0E94D39EB1E74B2EB7E05B2EB7E0A9
:1043E0003B2EB1E02B2E0E94D39EB2E64B2EB7E0BF
:1043F0005B2EBAE03B2EB1E02B2E0E94D39EBAE397
:10440000BB83B0E0BC838E010D5F1F4F2801BAE073
:104410003B2EB1E02B2E0E94D39EFE013396B0E5D9
:10442000B193B2E7B193BAE3B193B1E3B193B0E220
:10443000B193B2E3B193B0E2B193B3E3B193B0E21D
:10444000B193B4E3B193B0E2B193B5E3B193B0E209
:10445000B193B6E3B193B0E2B193B7E3B193B0E0F7
:10446000B1938E010D5F1F4F2801B1E03B2EB2E0EA
:104470002B2E0E94D39E25E01FE002EF0A95F1F754
:104480001A95E1F72A95D1F7B0E2B0936207B0E24E
:10449000B0936307B0E2B0936407B0E0B0936507F0
:1044A000B1E74B2EB7E05B2EB7E03B2EB1E02B2EF1
:1044B0000E94D39EB2E64B2EB7E05B2EBAE03B2EB5
:1044C000B1E02B2E0E94D39EBAE3BB83B0E0BC8345
:1044D0008E010D5F1F4F2801BAE03B2EB1E02B2E5D
:1044E0000E94D39EFE013396BAE3B193B4E4B19334
:1044F000B9E7B193B1E3B193B0E2B193B2E3B19351
:10450000B0E2B193B3E3B193B0E2B193B0E2B1934F
:10451000B0E2B193B5E3B193B0E2B193B6E3B19336
:10452000B0E2B193B7E3B193B0E0B1938E010D5F08
:104530001F4F2801B1E03B2EB2E02B2E0E94D39EEC
:104540002F903F904F905F906F9025E01FE002EF1B
:104550000A95F1F71A95E1F72A95D1F7B5C2B5E0BA
:104560002B1609F0E3C08E016F925F924F923F923B
:104570002F922801B2E03B2EB1E02B2E0E94D39E59
:10458000B3E4BB83B8E6BC83BAE3BD83B0E0BE83CB
:104590008E010D5F1F4F2801B1E03B2EB1E02B2EA5
:1045A0000E94D39EB1E74B2EB7E05B2EB7E03B2EC7
:1045B000B1E02B2E0E94D39EB2E64B2EB7E05B2ECD
:1045C000BAE03B2EB1E02B2E0E94D39EBAE3BB8310
:1045D000B0E0BC838E010D5F1F4F2801BAE03B2E77
:1045E000B1E02B2E0E94D39EFE013396B0E5B1932D
:1045F000B2E7B193BAE3B193B1E3B193B0E2B1934F
:10460000B2E3B193B0E2B193B3E3B193B0E2B1934B
:10461000B4E3B193B0E2B193B5E3B193B0E2B19337
:10462000B6E3B193B0E2B193B7E3B193B0E0B19325
:104630008E010D5F1F4F2801B1E03B2EB2E02B2E03
:104640000E94D39E25E01FE002EF0A95F1F71A952C
:10465000E1F72A95D1F7B0E2B0936207B0E2B093E8
:104660006307B0E2B0936407B0E0B0936507B1E7C9
:104670004B2EB7E05B2EB7E03B2EB1E02B2E0E9415
:10468000D39EB2E64B2EB7E05B2EBAE03B2EB1E0F4
:104690002B2E0E94D39EBAE3BB83B0E0BC838E0175
:1046A0000D5F1F4F2801BAE03B2EB1E02B2E0E9478
:1046B000D39EFE013396B0E5B193B2E7B193BAE36E
:1046C000B193B1E3B193B0E2B193B2E3B193B0E28D
:1046D000B193B3E3B193B0E2B193B4E3B193B0E279
:1046E000B193B0E2B193B0E2B193B6E3B193B0E26B
:1046F000B193B7E3B193B0E0B1938E010D5F1F4F5B
:104700002801B1E03B2EB2E02B2E0E94D39E2F90C9
:104710003F904F905F906F9025E01FE002EF0A9569
:10472000F1F71A95E1F72A95D1F7CEC1B6E02B162D
:1047300009F0E3C08E016F925F924F923F922F92E9
:104740002801B2E03B2EB1E02B2E0E94D39EB3E4B1
:10475000BB83B8E6BC83BAE3BD83B0E0BE838E0101
:104760000D5F1F4F2801B1E03B2EB1E02B2E0E94C0
:10477000D39EB1E74B2EB7E05B2EB7E03B2EB1E006
:104780002B2E0E94D39EB2E64B2EB7E05B2EBAE0F2
:104790003B2EB1E02B2E0E94D39EBAE3BB83B0E048
:1047A000BC838E010D5F1F4F2801BAE03B2EB1E0A4
:1047B0002B2E0E94D39EFE013396B0E5B193B2E753
:1047C000B193BAE3B193B1E3B193B0E2B193B2E381
:1047D000B193B0E2B193B3E3B193B0E2B193B4E378
:1047E000B193B0E2B193B5E3B193B0E2B193B6E364
:1047F000B193B0E2B193B7E3B193B0E0B1938E015E
:104800000D5F1F4F2801B1E03B2EB2E02B2E0E941E
:10481000D39E25E01FE002EF0A95F1F71A95E1F724
:104820002A95D1F7B0E2B0936207B0E2B093630784
:10483000B0E2B0936407B0E0B0936507B1E74B2EE8
:10484000B7E05B2EB7E03B2EB1E02B2E0E94D39E4B
:10485000B2E64B2EB7E05B2EBAE03B2EB1E02B2E3A
:104860000E94D39EBAE3BB83B0E0BC838E010D5F90
:104870001F4F2801BAE03B2EB1E02B2E0E94D39EA1
:10488000FE013396B0E5B193B2E7B193BAE3B193C9
:10489000B1E3B193B0E2B193B2E3B193B0E2B193BB
:1048A000B3E3B193B0E2B193B4E3B193B0E2B193A7
:1048B000B5E3B193B0E2B193B0E2B193B0E2B1939A
:1048C000B7E3B193B0E0B1938E010D5F1F4F2801A4
:1048D000B1E03B2EB2E02B2E0E94D39E2F903F9052
:1048E0004F905F906F9025E01FE002EF0A95F1F77F
:1048F0001A95E1F72A95D1F7E7C0B7E02B1609F032
:10490000E3C08E016F925F924F923F922F922801E7
:10491000B2E03B2EB1E02B2E0E94D39EB3E4BB83CA
:10492000B8E6BC83BAE3BD83B0E0BE838E010D5F01
:104930001F4F2801B1E03B2EB1E02B2E0E94D39EE9
:10494000B1E74B2EB7E05B2EB7E03B2EB1E02B2E4C
:104950000E94D39EB2E64B2EB7E05B2EBAE03B2E10
:10496000B1E02B2E0E94D39EBAE3BB83B0E0BC83A0
:104970008E010D5F1F4F2801BAE03B2EB1E02B2EB8
:104980000E94D39EFE013396B0E5B193B2E7B19396
:10499000BAE3B193B1E3B193B0E2B193B2E3B193AF
:1049A000B0E2B193B3E3B193B0E2B193B4E3B193A6
:1049B000B0E2B193B5E3B193B0E2B193B6E3B19392
:1049C000B0E2B193B7E3B193B0E0B1938E010D5F64
:1049D0001F4F2801B1E03B2EB2E02B2E0E94D39E48
:1049E00025E01FE002EF0A95F1F71A95E1F72A9505
:1049F000D1F7B0E2B0936207B0E2B0936307B0E2E0
:104A0000B0936407B0E0B0936507B1E74B2EB7E011
:104A10005B2EB7E03B2EB1E02B2E0E94D39EB2E678
:104A20004B2EB7E05B2EBAE03B2EB1E02B2E0E945E
:104A3000D39EBAE3BB83B0E0BC838E010D5F1F4FF2
:104A40002801BAE03B2EB1E02B2E0E94D39EFE013E
:104A50003396B0E5B193B2E7B193BAE3B193B1E362
:104A6000B193B0E2B193B2E3B193B0E2B193B3E3E7
:104A7000B193B0E2B193B4E3B193B0E2B193B5E3D3
:104A8000B193B0E2B193B6E3B193B0E2B193B0E2C7
:104A9000B193B0E0B1938E010D5F1F4F2801B1E0DB
:104AA0003B2EB2E02B2E0E94D39E2F903F904F9032
:104AB0005F906F9025E01FE002EF0A95F1F71A95DD
:104AC000E1F72A95D1F700C06F925F924F923F9223
:104AD0002F9266245524B5E04B2EB2E32B2EB0E086
:104AE0003B2E0E9406702F903F904F905F906F90EA
:104AF000002329F0B0910201B160B09302016F92DE
:104B00005F924F923F922F92B1E06B2E5524B5E009
:104B10004B2EB0E32B2EB0E03B2E0E9406702F9060
:104B20003F904F905F906F9000900201112700FC22
:104B30001395012339F0451410F0462C03C0042DC1
:104B40000F5F402EB0910201B160B09302016F92ED
:104B50005F924F923F922F9266245524B4E04B2EE1
:104B6000B2E32B2EB0E03B2E0E9406702F903F90B8
:104B70004F905F906F90002329F0B0910201B160D7
:104B8000B09302016F925F924F923F922F92B1E0E9
:104B90006B2E5524B4E04B2EB0E32B2EB0E03B2E11
:104BA0000E9406702F903F904F905F906F90009002
:104BB0000201112700FC1395012339F0641410F051
:104BC000452C03C0042D0150402E309203016F92FA
:104BD0005F924F923F922F9266245524B2E04B2E63
:104BE000B0E32B2EB0E03B2E0E9406702F903F903A
:104BF0004F905F906F90003029F0B0910201B06249
:104C0000B09302016F925F924F923F922F92B1E068
:104C10006B2E5524B2E04B2EB0E32B2EB0E03B2E92
:104C20000E9406702F903F904F905F906F90009081
:104C30000201112705FC1395012309F48DC0B091E1
:104C40000201BF7DB0930201B0910201BF7EB0931B
:104C5000020100910801102F1F5F109308010091BD
:104C60000901101719F4B1E0B09308016F925F9237
:104C70004F923F922F920E945B6BFE013396BFE4EE
:104C8000B193B6E6B193B6E6B193B0E2B193B4E7AF
:104C9000B193B9E6B193BDE6B193B5E6B193B0E295
:104CA000B193B9E6B193B3E7B193B0E2B193B0E099
:104CB000B1938E010D5F1F4F2801B1E03B2EB1E093
:104CC0002B2E0E94D39E2F903F903F922F92232C09
:104CD000B1E73B2EB7E04B2E0E94D0072F903F90BC
:104CE0004F904F923F922F92242CB2E63B2EB7E08A
:104CF0004B2E0E94D007B1E74B2EB7E05B2EB5E0FC
:104D00003B2EB2E02B2E0E94D39EB2E64B2EB7E094
:104D10005B2EB8E03B2EB2E02B2E0E94D39EBAE36E
:104D2000BB83B0E0BC838E010D5F1F4F2801B8E04C
:104D30003B2EB2E02B2E0E94D39E2F903F904F909F
:104D40005F906F9025E11BE40FEB0A95F1F71A9540
:104D5000E1F72A95D1F700006F925F924F923F9250
:104D60002F9266245524B6E04B2EB0E32B2EB0E0F4
:104D70003B2E0E9406702F903F904F905F906F9057
:104D8000003029F0B0910201B160B093020110909F
:104D90000201009002014E7F14FC00FE01C0416040
:104DA0006F925F924F923F922F92B1E06B2E5524FB
:104DB000B6E04B2EB0E32B2EB0E03B2E0E940670E7
:104DC0002F903F904F905F906F90112740FD13956B
:104DD000012309F497C0B0910201BF7EB093020194
:104DE000B0910201BE7FB09302016F925F924F9229
:104DF0003F922F920E945B6B2F903F904F905F905D
:104E00006F9000910801102F1F5F1093080100910F
:104E10000901101719F4B1E0B0930801FE013396AF
:104E2000BFE4B193B6E6B193B6E6B193B0E2B19305
:104E3000B4E7B193B9E6B193BDE6B193B5E6B193EA
:104E4000B0E2B193B9E6B193B3E7B193B0E2B193F5
:104E5000B0E0B1938E010D5F1F4F6F925F924F9242
:104E60003F922F922801B1E03B2EB1E02B2E0E9401
:104E7000D39E2F903F903F922F92232CB1E73B2E51
:104E8000B7E04B2E0E94D0072F903F904F904F924B
:104E90003F922F92242CB2E63B2EB7E04B2E0E947D
:104EA000D007B1E74B2EB7E05B2EB5E03B2EB2E06A
:104EB0002B2E0E94D39EB2E64B2EB7E05B2EB8E0BD
:104EC0003B2EB2E02B2E0E94D39EBAE3BB83B0E010
:104ED000BC838E010D5F1F4F2801B8E03B2EB2E06E
:104EE0002B2E0E94D39E2F903F904F905F906F90FB
:104EF00025E11BE40FEB0A95F1F71A95E1F72A95E6
:104F0000D1F70000409203010C94E91E6396CDBFD7
:104F1000DEBFDF91CF9108951AE303E20A95F1F71E
:104F20001A95E1F700000000089509E0021580F4E9
:104F30004AE0022D0E941306000F000F000F000F21
:104F4000102F4AE0022D0E941306092F012B01C0E9
:104F5000022D102F012F0895CF93DF93CDB7DEB729
:104F60006B97CDBFDEBF21965F926F92B091020129
:104F7000B061B0930201B0910201BF7DB093020114
:104F8000B0910201B4FF0C941030B1E02B1609F07F
:104F9000EDC0FE01B0E5B193BCE6B193B3E7B193C8
:104FA000B0E2B193B3E4B193B8E6B193BFE6B19385
:104FB000BFE6B193B3E7B193B5E6B193B0E2B19375
:104FC000B0E5B193B2E7B193BFE6B193B7E6B19361
:104FD000B2E7B193B1E6B193BDE6B193B0E2B1935C
:104FE000BEE4B193B5E7B193BDE6B193B2E6B19338
:104FF000B5E6B193B2E7B193BAE3B193B0E0B19340
:105000008E014F923F922F922801B1E03B2EB1E0EA
:105010002B2E0E94D39EFE01B0E5B193B2E7B1936F
:10502000BAE3B193B1E3B193B0E2B193B2E3B19318
:10503000B0E2B193B3E3B193B0E2B193B4E3B1930F
:10504000B0E2B193B5E3B193B0E2B193B6E3B193FB
:10505000B0E2B193B7E3B193B0E0B1938E01280110
:10506000B1E03B2EB2E02B2E0E94D39E25E01FE044
:1050700002EF0A95F1F71A95E1F72A95D1F7FE01AB
:10508000B0E5B193BCE6B193B3E7B193B0E2B193AD
:10509000B3E4B193B8E6B193BFE6B193BFE6B19381
:1050A000B3E7B193B5E6B193B0E2B193B0E5B19394
:1050B000B2E7B193BFE6B193B7E6B193B2E7B1936C
:1050C000B1E6B193BDE6B193B0E2B193BEE4B19362
:1050D000B5E7B193BDE6B193B2E6B193B5E6B1934E
:1050E000B2E7B193BAE3B193B0E0B1938E01280176
:1050F000B1E03B2EB1E02B2E0E94D39EFE01B4E422
:10510000B193B9E7B193BAE3B193B0E2B193B0E22E
:10511000B193B2E3B193B0E2B193B3E3B193B0E230
:10512000B193B4E3B193B0E2B193B5E3B193B0E21C
:10513000B193B6E3B193B0E2B193B7E3B193B0E00A
:10514000B1938E012801B1E03B2EB2E02B2E0E94DC
:10515000D39E2F903F904F9025E01FE002EF0A95DD
:10516000F1F71A95E1F72A95D1F7A6C5B2E02B160B
:1051700009F0EDC0FE01B0E5B193BCE6B193B3E731
:10518000B193B0E2B193B3E4B193B8E6B193BFE6A3
:10519000B193BFE6B193B3E7B193B5E6B193B0E293
:1051A000B193B0E5B193B2E7B193BFE6B193B7E67F
:1051B000B193B2E7B193B1E6B193BDE6B193B0E27A
:1051C000B193BEE4B193B5E7B193BDE6B193B2E656
:1051D000B193B5E6B193B2E7B193BAE3B193B0E05E
:1051E000B1938E014F923F922F922801B1E03B2E56
:1051F000B1E02B2E0E94D39EFE01B0E5B193B2E741
:10520000B193BAE3B193B1E3B193B0E2B193B2E336
:10521000B193B0E2B193B3E3B193B0E2B193B4E32D
:10522000B193B0E2B193B5E3B193B0E2B193B6E319
:10523000B193B0E2B193B7E3B193B0E0B1938E0113
:105240002801B1E03B2EB2E02B2E0E94D39E25E038
:105250001FE002EF0A95F1F71A95E1F72A95D1F7C9
:10526000FE01B0E5B193BCE6B193B3E7B193B0E210
:10527000B193B3E4B193B8E6B193BFE6B193BFE69F
:10528000B193B3E7B193B5E6B193B0E2B193B0E5B2
:10529000B193B2E7B193BFE6B193B7E6B193B2E78A
:1052A000B193B1E6B193BDE6B193B0E2B193BEE480
:1052B000B193B5E7B193BDE6B193B2E6B193B5E66C
:1052C000B193B2E7B193BAE3B193B0E0B1938E0179
:1052D0002801B1E03B2EB1E02B2E0E94D39EFE01AF
:1052E000B0E5B193B2E7B193BAE3B193B1E3B1934F
:1052F000B0E2B193B0E2B193B0E2B193B3E3B19352
:10530000B0E2B193B4E3B193B0E2B193B5E3B1933A
:10531000B0E2B193B6E3B193B0E2B193B7E3B19326
:10532000B0E0B1938E012801B1E03B2EB2E02B2E0C
:105330000E94D39E2F903F904F9025E01FE002EFF8
:105340000A95F1F71A95E1F72A95D1F7B5C4B3E0BC
:105350002B1609F0EDC0FE01B0E5B193BCE6B193A8
:10536000B3E7B193B0E2B193B3E4B193B8E6B193CC
:10537000BFE6B193BFE6B193B3E7B193B5E6B1939E
:10538000B0E2B193B0E5B193B2E7B193BFE6B193A8
:10539000B7E6B193B2E7B193B1E6B193BDE6B1938D
:1053A000B0E2B193BEE4B193B5E7B193BDE6B1937A
:1053B000B2E6B193B5E6B193B2E7B193BAE3B19374
:1053C000B0E0B1938E014F923F922F922801B1E04D
:1053D0003B2EB1E02B2E0E94D39EFE01B0E5B1938F
:1053E000B2E7B193BAE3B193B1E3B193B0E2B19351
:1053F000B2E3B193B0E2B193B3E3B193B0E2B1934E
:10540000B4E3B193B0E2B193B5E3B193B0E2B19339
:10541000B6E3B193B0E2B193B7E3B193B0E0B19327
:105420008E012801B1E03B2EB2E02B2E0E94D39ECC
:1054300025E01FE002EF0A95F1F71A95E1F72A95AA
:10544000D1F7FE01B0E5B193BCE6B193B3E7B193F8
:10545000B0E2B193B3E4B193B8E6B193BFE6B193D0
:10546000BFE6B193B3E7B193B5E6B193B0E2B193C0
:10547000B0E5B193B2E7B193BFE6B193B7E6B193AC
:10548000B2E7B193B1E6B193BDE6B193B0E2B193A7
:10549000BEE4B193B5E7B193BDE6B193B2E6B19383
:1054A000B5E6B193B2E7B193BAE3B193B0E0B1938B
:1054B0008E012801B1E03B2EB1E02B2E0E94D39E3D
:1054C000FE01B0E5B193B2E7B193BAE3B193B1E3B2
:1054D000B193B0E2B193B2E3B193B0E2B193B0E271
:1054E000B193B0E2B193B4E3B193B0E2B193B5E359
:1054F000B193B0E2B193B6E3B193B0E2B193B7E345
:10550000B193B0E0B1938E012801B1E03B2EB2E03F
:105510002B2E0E94D39E2F903F904F9025E01FE0AE
:1055200002EF0A95F1F71A95E1F72A95D1F7C4C36E
:10553000B4E02B1609F0EDC0FE01B0E5B193BCE676
:10554000B193B3E7B193B0E2B193B3E4B193B8E6EA
:10555000B193BFE6B193BFE6B193B3E7B193B5E6BC
:10556000B193B0E2B193B0E5B193B2E7B193BFE6C6
:10557000B193B7E6B193B2E7B193B1E6B193BDE6AB
:10558000B193B0E2B193BEE4B193B5E7B193BDE698
:10559000B193B2E6B193B5E6B193B2E7B193BAE392
:1055A000B193B0E0B1938E014F923F922F922801B8
:1055B000B1E03B2EB1E02B2E0E94D39EFE01B0E560
:1055C000B193B2E7B193BAE3B193B1E3B193B0E26F
:1055D000B193B2E3B193B0E2B193B3E3B193B0E26C
:1055E000B193B4E3B193B0E2B193B5E3B193B0E258
:1055F000B193B6E3B193B0E2B193B7E3B193B0E046
:10560000B1938E012801B1E03B2EB2E02B2E0E9417
:10561000D39E25E01FE002EF0A95F1F71A95E1F716
:105620002A95D1F7FE01B0E5B193BCE6B193B3E79B
:10563000B193B0E2B193B3E4B193B8E6B193BFE6EE
:10564000B193BFE6B193B3E7B193B5E6B193B0E2DE
:10565000B193B0E5B193B2E7B193BFE6B193B7E6CA
:10566000B193B2E7B193B1E6B193BDE6B193B0E2C5
:10567000B193BEE4B193B5E7B193BDE6B193B2E6A1
:10568000B193B5E6B193B2E7B193BAE3B193B0E0A9
:10569000B1938E012801B1E03B2EB1E02B2E0E9488
:1056A000D39EFE01B0E5B193B2E7B193BAE3B193F3
:1056B000B1E3B193B0E2B193B2E3B193B0E2B1938D
:1056C000B3E3B193B0E2B193B0E2B193B0E2B1937E
:1056D000B5E3B193B0E2B193B6E3B193B0E2B19365
:1056E000B7E3B193B0E0B1938E012801B1E03B2E56
:1056F000B2E02B2E0E94D39E2F903F904F9025E03A
:105700001FE002EF0A95F1F71A95E1F72A95D1F714
:10571000D3C2B5E02B1609F0EDC0FE01B0E5B193A0
:10572000BCE6B193B3E7B193B0E2B193B3E4B19304
:10573000B8E6B193BFE6B193BFE6B193B3E7B193D7
:10574000B5E6B193B0E2B193B0E5B193B2E7B193EE
:10575000BFE6B193B7E6B193B2E7B193B1E6B193C7
:10576000BDE6B193B0E2B193BEE4B193B5E7B193B6
:10577000BDE6B193B2E6B193B5E6B193B2E7B193AA
:10578000BAE3B193B0E0B1938E014F923F922F9262
:105790002801B1E03B2EB1E02B2E0E94D39EFE01EA
:1057A000B0E5B193B2E7B193BAE3B193B1E3B1938A
:1057B000B0E2B193B2E3B193B0E2B193B3E3B1938A
:1057C000B0E2B193B4E3B193B0E2B193B5E3B19376
:1057D000B0E2B193B6E3B193B0E2B193B7E3B19362
:1057E000B0E0B1938E012801B1E03B2EB2E02B2E48
:1057F0000E94D39E25E01FE002EF0A95F1F71A956B
:10580000E1F72A95D1F7FE01B0E5B193BCE6B1937B
:10581000B3E7B193B0E2B193B3E4B193B8E6B19317
:10582000BFE6B193BFE6B193B3E7B193B5E6B193E9
:10583000B0E2B193B0E5B193B2E7B193BFE6B193F3
:10584000B7E6B193B2E7B193B1E6B193BDE6B193D8
:10585000B0E2B193BEE4B193B5E7B193BDE6B193C5
:10586000B2E6B193B5E6B193B2E7B193BAE3B193BF
:10587000B0E0B1938E012801B1E03B2EB1E02B2EB8
:105880000E94D39EFE01B0E5B193B2E7B193BAE3B3
:10589000B193B1E3B193B0E2B193B2E3B193B0E2AB
:1058A000B193B3E3B193B0E2B193B4E3B193B0E297
:1058B000B193B0E2B193B0E2B193B6E3B193B0E289
:1058C000B193B7E3B193B0E0B1938E012801B1E099
:1058D0003B2EB2E02B2E0E94D39E2F903F904F90F4
:1058E00025E01FE002EF0A95F1F71A95E1F72A95F6
:1058F000D1F7E2C1B6E02B1609F0EDC0FE01B0E52C
:10590000B193BCE6B193B3E7B193B0E2B193B3E422
:10591000B193B8E6B193BFE6B193BFE6B193B3E7F5
:10592000B193B5E6B193B0E2B193B0E5B193B2E70C
:10593000B193BFE6B193B7E6B193B2E7B193B1E6E5
:10594000B193BDE6B193B0E2B193BEE4B193B5E7D4
:10595000B193BDE6B193B2E6B193B5E6B193B2E7C8
:10596000B193BAE3B193B0E0B1938E014F923F92FD
:105970002F922801B1E03B2EB1E02B2E0E94D39E46
:10598000FE01B0E5B193B2E7B193BAE3B193B1E3ED
:10599000B193B0E2B193B2E3B193B0E2B193B3E3A8
:1059A000B193B0E2B193B4E3B193B0E2B193B5E394
:1059B000B193B0E2B193B6E3B193B0E2B193B7E380
:1059C000B193B0E0B1938E012801B1E03B2EB2E07B
:1059D0002B2E0E94D39E25E01FE002EF0A95F1F7DF
:1059E0001A95E1F72A95D1F7FE01B0E5B193BCE62F
:1059F000B193B3E7B193B0E2B193B3E4B193B8E636
:105A0000B193BFE6B193BFE6B193B3E7B193B5E607
:105A1000B193B0E2B193B0E5B193B2E7B193BFE611
:105A2000B193B7E6B193B2E7B193B1E6B193BDE6F6
:105A3000B193B0E2B193BEE4B193B5E7B193BDE6E3
:105A4000B193B2E6B193B5E6B193B2E7B193BAE3DD
:105A5000B193B0E0B1938E012801B1E03B2EB1E0EB
:105A60002B2E0E94D39EFE01B0E5B193B2E7B19315
:105A7000BAE3B193B1E3B193B0E2B193B2E3B193BE
:105A8000B0E2B193B3E3B193B0E2B193B4E3B193B5
:105A9000B0E2B193B5E3B193B0E2B193B0E2B193A8
:105AA000B0E2B193B7E3B193B0E0B1938E012801B6
:105AB000B1E03B2EB2E02B2E0E94D39E2F903F9060
:105AC0004F9025E01FE002EF0A95F1F71A95E1F7F4
:105AD0002A95D1F7F1C0B7E02B1609F0EDC0FE0111
