:100000000C9412B10C9466B00C9400000C94F2B2F3
:100010000C9400000C9400000C9400000C942BB580
:100020000C9400000C94D9B20C9400000C940000C5
:100030000C9400000C9400000C9400000C94000040
:100040000C94F6B00C9400000C9400000C9400008A
:100050000C9400000C9400000C9400000C94000020
:100060000C9400000C9400000C9400000C94000010
:100070000C9400000C9400000C9400000C94000000
:100080000C9400000C9400000C9400000000000987
:100090000D0B09000000000F080E080000001111F0
:1000A0001F000400010E140404040400000A1511CA
:1000B0000A0400000000000F09090F0042D121F0DE
:1000C000662309F053D198940895F8DF09F441C0EC
:1000D000E62ED52EC42EB32EA22E912E802E002DCC
:1000E000112D222D332DEADF09F43DC0842F952FE9
:1000F0008C199D09B9F072F49095809501964C2D5C
:100100005D2D883180F535952795179507950197D1
:10011000D1F708C08831E8F4B594A79497948794F0
:100120000197D1F766272EF0080D191D2A1D3B1DDA
:1001300009C0801A910AA20AB30A082D192D2A2D86
:100140003B2D332312F412D160E82FD001C018D018
:1001500016C0002D112D222D332DD6F71ED0C1F340
:1001600040E83427F5CF082D192D2A2D3B2D4C2D95
:100170005D2D6E2D33235AF7F9D060E8E8CF08954E
:100180000CD039F041585F4F342F220F3695279508
:10019000362B0895689499DF0895002329F41123DC
:1001A00019F4222309F433230895F7DF11F19F9303
:1001B0008F938EE790E0332351F03695279517956E
:1001C000079548175907B4F44F5F5F4FF4CF8095F8
:1001D0009095019622239AF0000F111F221F4817B5
:1001E00059071CF041505040F5CF00271127222716
:1001F000332708C033270FEF102F2FE7322F8F91AF
:100200009F91BEDF0895C6DF332332F0C6DF11F0C1
:1002100001E003C0002701C00FEF089547E1662702
:10022000552726F0332312F4A1D060E8BEDF0895ED
:10023000E8944BDF0895042E152E262E372EE3DF8B
:10024000002308957ED081F1E62ED52EC42EB32E44
:10025000A22E912E802E002D112D222D332D71D006
:1002600019F16E254C0D5D1D40385307F4F44138EB
:100270007FEF5707FCF088279927AA27BB2770E252
:10028000B695A795979587953795279517950795CF
:1002900020F4880D991DAA1DBB1D7A9589F7032F9F
:1002A0003A2F292F182F81DF0AC00FEF102F2FE7C9
:1002B0003FE7FACF0027102F202F302FF5CF0895DA
:1002C000C9019A01AB01B80197FB092E05260ED092
:1002D00057FD04D014D00AD0001C38F45095409536
:1002E000309521953F4F4F4F5F4F0895F6F790950A
:1002F0008095709561957F4F8F4F9F4F0895A1E234
:100300001A2EAA1BBB1BFD010DC0AA1FBB1FEE1F8F
:10031000FF1FA217B307E407F50720F0A21BB30BDA
:10032000E40BF50B661F771F881F991F1A9469F756
:1003300060957095809590959B01AC01BD01CF01B2
:1003400008952BDF79F0632F6078220F331F432F3E
:100350005FE7451B55275040269530E8232B332770
:10036000989403C044275527662708950095109553
:10037000209530950F5F1F4F2F4F3F4F0895002E50
:10038000112E222E332E042F152F262F372F3BDF31
:1003900000231CF00024039401C000240895E89475
:1003A0003DDF0895CEDFF1F05523C2F04F31A8F4C0
:1003B0004731C1F050F44195495E05C03595279508
:1003C000179507954A95D1F70DC04751000F111F9A
:1003D000221F331F4A95D1F705C03FE7232F132F64
:1003E000032F03C0662309F0C1DF0895042E152EE4
:1003F000262E372E1DDF002E112E222E332E08958D
:100400001ADF1CF40024039401C000240895CF9344
:10041000DF93CDB7DEB72397CDBFDEBF2196B0E81F
:100420005B1641F4B0E04B1629F4B0E03B1611F432
:10043000B0E02B16D1F4F301BDE2B193B2E3B19376
:10044000B1E3B193B4E3B193B7E3B193B4E3B19340
:10045000B8E3B193B3E3B193B6E3B193B4E3B1932B
:10046000B8E3B193B0E0B1937BC0B0E0BA8300E0F1
:1004700010E020E030E0201631064206530664F416
:10048000BFEFBA8300E010E020E030E0021913096A
:100490002409350918012901F301B0E2B193B0E252
:1004A000B193B0E2B193B0E2B193B0E2B193B0E2F4
:1004B000B193B0E2B193B0E2B193B0E2B193B0E2E4
:1004C000B193B0E3B193B0E0B1938301065F1F4FE6
:1004D00008831983B0E05B1641F4B0E04B1629F4B1
:1004E000B0E03B1611F4B0E02B1699F17F926F92B9
:1004F0005F924F923F922F924AE050E060E070E0AE
:1005000081019201DDDE8B019C012F903F904F9085
:100510005F90005DE881F98100835F924F923F9286
:100520002F924AE050E060E070E081019201C8DE65
:1005300089019A012F903F904F905F906F907F902C
:10054000180129010881198101501040088319837D
:10055000C1CF0A81002321F0E881F981BDE2B08397
:100560002296CDBFDEBFDF91CF910895042E152EC8
:10057000262E372E67DE002E112E222E332E0895C2
:100580003F932F931F930F93002D112D222D332D69
:10059000D8DE09F44BC0E62ED52EC42EB32EA22EE3
:1005A000912E802E0F911F912F913F91CADE61F104
:1005B0006E254C195D09403853073CF541387FEFF3
:1005C00057077CF180E27724632E522E412E302F84
:1005D000222711270027000F111F221F331F441C41
:1005E000551C661C771C28F0481859086A087B08B7
:1005F00004C0480C591C6A1C7B1C0AF001608A95D7
:1006000051F741505040D1DD16C00FEF102F2FE7AA
:100610003FE76623C9F3C1DDB9F3342D30E8342553
:10062000F3CF0027102F202F302FEECF0F900F90F9
:100630000F900F90EACF0895042E152E262E372EF8
:10064000A9DD002E112E222E332E0895049FD001F5
:10065000159FF001249FE00DF11D069FE00DF11D97
:10066000349FF00D259FF00D169FF00D079FF00DA4
:100670003327149FB00DE11DF31F059FB00DE11D41
:10068000F31F8D019F010895042E152E262E372E5F
:1006900077DF002E112E222E332E0895CF93DF9375
:1006A000CDB7DEB72497CDBFDEBF2196152D110F34
:1006B000B7E0042D0695BA95E9F7010F0F57202FE3
:1006C00030E007FD3FEF00E010E020173107DCF4D9
:1006D00040E050E060E070E08101920150DE0028CF
:1006E00000E009F00FEF002331F0B0E0B883B983E8
:1006F000BA83BB8307C0B0E0B883B983B0E8BA83DC
:10070000BFE3BB832AC008E1021728F4288239829C
:100710004A825B8222C08101920144DE40DE08836E
:1007200019832A833B83A101B201088119812A819F
:100730003B8166DE002800E009F00FEF002369F03E
:10074000088119812A813B8140E050E060E87FE325
:100750004DDE088319832A833B83088119812A810E
:100760003B812396CDBFDEBFDF91CF910895B1E1EC
:100770004B1619F43BBC2ABC26C0B2E14B1619F447
:1007800039BC28BC20C0B3E14B1629F43092790063
:100790002092780018C0B4E14B1629F430928700FB
:1007A0002092860010C0B5E14B1629F430928500E6
:1007B0002092840008C0B6E14B1629F430928300E1
:1007C0002092820000C00895CF93DF93CDB7DEB7AB
:1007D000A197CDBFDEBF2196B0E0BE8F810192010F
:1007E000E1DD088319832A833B835F924F923F9216
:1007F0002F9240E050E060E070E08101920100DE65
:10080000002800E009F00FEF2F903F904F905F908D
:10081000002311F0BFEFBE8F8E010A5F1F4F7F9242
:100820006F925F924F923F922F92380128803980C9
:100830004A805B80ECDD2F903F904F905F906F90EF
:100840007F90088119812A813B81A9DD5F924F92B7
:100850003F922F92A801B90181019201EDDE40E0A3
:1008600050E563EC77E482DE2F903F904F905F90ED
:1008700099DD088319832A833B8340E050E060E0E0
:1008800070E0041715072607370784F408801980DD
:1008900000E010E0001911090A801B8020E030E020
:1008A00020093109088319832A833B838E010E5E58
:1008B0001F4F7F926F925F924F923F922F9238011B
:1008C000288039804A805B80A2DD2F903F904F9036
:1008D0005F906F907F9040E050E0B0E0BC83BD83BC
:1008E000F301B0E2B193B0E2B193B0E2B193B0E200
:1008F000B193B0E2B193B0E2B193B0E2B193B0E2A0
:10090000B193B0E2B193B0E2B193B0E3B193B0E090
:10091000B1935F934F938101920144DD303029F40C
:10092000203019F4103009F40030B0E009F4BFEFC2
:100930000B2F08A340E050E060E070E081019201DD
:100940005FDD002800E009F00FEF4F915F9118A1E3
:100950000123002341F0F301BDE2B08311E020E068
:10096000412F522F00C02E81203281F40C811D8135
:1009700098012F5F3F4F2C833D838E010A5F1F4FED
:10098000F901E00FF11F0081202FEECF022F003080
:10099000D1F0FA01E60DF71D00830C811D8198014D
:1009A0002F5F3F4F2C833D838A010F5F1F4FB8019C
:1009B0008E010A5F1F4FF901E00FF11F0081202F08
:1009C000022FAB01E4CF0E8D003010E009F41FEFD1
:1009D000503009F4403000E009F40FEF012351F0EA
:1009E000FA01E60DF71DB0E3B0838A010F5F1F4FD8
:1009F000980101C09A01303009F4213010E009F467
:100A00001FEF0E8D012359F0F901E60DF71DB0E33C
:100A1000B08389010F5F1F4FA8019A0100C0F9013F
:100A2000E60DF71DBEE2B08389010F5F1F4FA801DD
:100A3000B6E0BC83B0E0BD83288D2030F9F02032D1
:100A400019F420E3022F01C0022FFA01E60DF71D71
:100A500000830C811D8198012F5F3F4F2C833D83C4
:100A60008A010F5F1F4FB8018E010E5E1F4FF90103
:100A7000E00FF11F0081AB01202FDFCFFA01E60D5F
:100A8000F71DB0E0B083A096CDBFDEBFDF91CF9160
:100A9000089521BE0895E32DF42DB0E2B193B0E2A4
:100AA000B193B0E3B193B0E0B193032D142D0E5F79
:100AB0001F4F9801B0E02B1681F04AE0022D0ED0B6
:100AC000092F005DF90100834AE0022D07D0202E96
:100AD0008901015010409801EDCF0895992779E0E0
:100AE00004C0991F941708F0941B001F7A95C9F74A
:100AF00000950895B0913500B77FB0933500B0915F
:100B00003500BB7FB0933500B0913500BF77B0930F
:100B10003500B0913500BF7BB0933500B091350002
:100B2000BF7DB0933500B0913500BF7EB0933500E6
:100B3000B0913400B860B0933400B0913400B46028
:100B4000B0933400B0913400B061B0933400B091F0
:100B50003400B062B0933400B0913400B064B0930C
:100B60003400B0913400B068B09334000E94136335
:100B70000E9413630E941363B0913500B062B0937A
:100B80003500B0913500B061B0933500B0913500BB
:100B9000B860B09335000E940D63B0913500B77F07
:100BA000B09335000E941363B0913500B860B093E4
:100BB00035000E940D63B0913500B77FB0933500CA
:100BC0000E941363B0913500B860B09335000E9465
:100BD0000D63B0913500B77FB09335000E94136369
:100BE000B0913500BF7EB0933500B0913500B8604C
:100BF000B09335000E940D63B0913500B77FB0937C
:100C000035000E941363B0913500B860B093350091
:100C10000E940D63B0913500B77FB0933500B0915D
:100C20003500BF7DB0933500B0913500B068B0930A
:100C30003500B0913500B860B09335000E940D6367
:100C4000B0913500B77FB09335000E941363B09127
:100C50003500BF77B0933500B0913500B061B093E7
:100C60003500B0913500B860B09335000E940D6337
:100C7000B0913500B77FB0933500B0913500BF7E9D
:100C8000B0933500B0913500B860B09335000E9444
:100C90000D63B0913500B77FB09335000E941363A8
:100CA000B0913500B860B09335000E940D63B091EB
:100CB0003500B77FB0933500B0913500B061B09387
:100CC0003500B0913500B860B09335000E940D63D7
:100CD000B0913500B77FB09335000E941363B09197
:100CE0003500BF7EB0933500B0913500B860B09349
:100CF00035000E940D63B0913500B77FB093350089
:100D0000B0913500B068B0933500B0913500B06453
:100D1000B0933500B0913500B062B0933500B0911A
:100D20003500B061B0933500B0913500B860B09334
:100D300035000E940D63B0913500B77FB093350048
:100D40000E941363B0910B01B460B0930B0108953E
:100D50000FB6BCB3B1FF02C00000FBCFF8943FBA9E
:100D60002EBA4DBABCB3B460BCBBBCB3B260BCBBA2
:100D70000FBE0895B0913400BD7FB09334000E943F
:100D80000D630E940D63B0913400BE7FB0933400B8
:100D90000E940D630E940D63B0913400B260B09365
:100DA00034000E940D630E940D63B0913400B16065
:100DB000B09334000895CF93DF93CDB7DEB7239778
:100DC000CDBFDEBF2196B1E0B883B0E8B983B0E013
:100DD000BA8309811A81103009F4003009F443C044
:100DE0000E940D630E940D630E940D630E940D63BB
:100DF000B0913400B160B09334000E940D630E9442
:100E00000D6309811A8102211070103009F400303D
:100E100031F0B0913400BD7FB093340005C0B09183
:100E20003400B260B09334000E940D630E940D63E1
:100E3000B0913400BE7FB0933400B0910B01BF7706
:100E4000B0930B01B0913300B0FD06C0B0910B011F
:100E5000B7FF01C001C0F6CF09811A811695079529
:100E600009831A83B6CFB0E0B8830E940D630E9455
:100E70000D63B0913400B160B09334000E940D63F3
:100E80000E940D63B0913400BD7FB09334000E9486
:100E90000D630E940D630E940D630E940D63B0916B
:100EA0003400BE7FB0933400B0910B01BF77B09394
:100EB0000B01B0913300B0FD06C0B0910B01B7FF3C
:100EC00001C001C0F6CFB0E0B8830E940D630E945C
:100ED0000D63B0913300B1FF03C008810160088346
:100EE0000E940D630E940D630E940D630E940D63BA
:100EF0000E940D630E940D630E940D630E940D63AA
:100F00000E940D630E940D630E940D630E940D6399
:100F10000E940D630E940D630E940D630E940D6389
:100F2000B0913400B160B0933400B0913400B2603D
:100F3000B093340008812296CDBFDEBFDF91CF9100
:100F40000895B0913400B260B09334000E940D63F4
:100F50000E940D63B0913400BE7FB0933400B09115
:100F60000B01BF77B0930B01B0913300B0FD06C009
:100F7000B0910B01B7FF01C001C0F6CF0E940D6315
:100F80000E940D630E940D630E940D630E940D6319
:100F90000E940D630E940D630E940D63B0913400A6
:100FA000BD7FB09334000E940D630E940D630895CD
:100FB000CF93DF93CDB7DEB72397CDBFDEBF2196AA
:100FC000B0E0B883B0E8B983B0E0BA8309811A8190
:100FD000103009F4003009F439C00E940D630E94FA
:100FE0000D63B0913400BD7FB09334000E940D6357
:100FF0000E940D63B0913400BE7FB0933400B09175
:101000000B01BF77B0930B01B0913300B0FD06C068
:10101000B0910B01B7FF01C001C0F6CFB091330012
:10102000B1FF04C018810981012B08830E940D6360
:101030000E940D63B0913400B160B0933400098117
:101040001A811695079509831A83C0CFB091340091
:10105000BD7FB09334000E940D630E940D63B0E029
:101060003B1611F4B0E02B1629F0B0913400B260B9
:10107000B09334000E940D630E940D63B091340060
:10108000BE7FB0933400B0910B01BF77B0930B01DA
:10109000B0913300B0FD06C0B0910B01B7FF01C0A5
:1010A00001C0F6CF0E940D630E940D63B091340021
:1010B000B160B09334000E940D630E940D63B09143
:1010C0003400B260B093340008812296CDBFDEBFF9
:1010D000DF91CF910895CF93DF93CDB7DEB72697F9
:1010E000CDBFDEBF21962F923F924F926F927F929B
:1010F000022D10E0212F312F432D542D60E047FCAD
:101100006FEF762FA3DA4BD95F924F923F922F92D7
:1011100040E050E068EC72E4B7DA18012901BEDA69
:101120000A831B832C833D83BCED6B2EBDE07B2E9D
:101130001801290149DBFFD30A811B812C813D81E4
:1011400031D908831983B8EC4B2EBDE05B2E180112
:101150000E943397BCED4B2EBDE05B2EB1E03B2EE1
:10116000B1E02B2E0E94A6A2B8EC4B2EBDE05B2E68
:10117000B6E03B2EB2E02B2E0E94A6A22F902F921B
:10118000B8EC4B2EBDE05B2EB0E03B2E0E943397B7
:10119000B8EC4B2EBDE05B2EB1E03B2EB2E02B2E27
:1011A0000E94A6A22F903F904F905F90B1E05B16F7
:1011B00031F4B1E14B2E28803980D9DA36C0B2E063
:1011C0005B1631F4B2E14B2E28803980D0DA2DC085
:1011D000B3E05B1631F4B2E04B2E28803980C7DAD9
:1011E00024C0B4E05B16A9F4B0E02B1649F40880E3
:1011F0001980032D142D0019110918014ADC08C0AB
:1012000008801980032D142D00191109180141DCE3
:101210000CC0B5E05B1609F408C0B6E05B1609F433
:1012200004C0B7E05B1609F400C07F906F904F9048
:101230003F902F902596CDBFDEBFDF91CF910895CF
:101240009801249F8001259F100D349F100D089553
:10125000CF93DF93CDB7DEB72B97CDBFDEBF2196FF
:101260002F923F924F92B0E0B093770DB093780DEC
:10127000B1E0BA83B1E0B093930DB1E0B093960DB5
:10128000B1E0B883B0E0B9830091770D1091780D8B
:101290000F5F1F4F09871A870A81015010E040EE47
:1012A00050E0CEDF25E537E0020F131F4091960D89
:1012B00041500F83188708E310E050E0C1DF2F8111
:1012C0003885200F311F0091930D015010E0000F61
:1012D000111F000F111F000F111F200F311F088158
:1012E000015010E0000F111F000F111FF801E20F55
:1012F000F31F208109851A85422E180129DD0091EE
:10130000770D1091780D0F5F1F4F0F5F1F4F0987EB
:101310001A870A81015010E040EE50E091DF25E588
:1013200037E0020F131F4091960D41500F8318872D
:1013300008E310E050E084DF2F813885200F311F53
:101340000091930D015010E0000F111F000F111FAD
:10135000000F111F200F311F0881015010E0000FF6
:10136000111F000F111F020F131FF801319620816A
:1013700009851A85422E1801EBDC0091770D10913A
:10138000780D0F5F1F4F0E5F1F4F09871A870A8165
:10139000015010E040EE50E053DF25E537E0020F4A
:1013A000131F4091960D41500F83188708E310E0FA
:1013B00050E046DF2F813885200F311F0091930DBB
:1013C000015010E0000F111F000F111F000F111F1F
:1013D000200F311F0881015010E0000F111F000F76
:1013E000111F020F131FF8013296208109851A85FB
:1013F000422E1801ADDC0091770D1091780D0F5F32
:101400001F4F0D5F1F4F09871A870A81015010E097
:1014100040EE50E015DF25E537E0020F131F409145
:10142000960D41500F83188708E310E050E008DF65
:101430002F813885200F311F0091930D015010E04E
:10144000000F111F000F111F000F111F200F311F60
:101450000881015010E0000F111F000F111F020F33
:10146000131FF8013396208109851A85422E180131
:101470006FDC0091770D1091780D0C5F1F4F00937A
:10148000770D1093780D08811981103009F402301E
:1014900039F0088119810F5F1F4F08831983F4CE3B
:1014A0000091960D043031F00091960D0F5F00937E
:1014B000960DE6CE0091930D073031F00091930D1B
:1014C0000F5F0093930DD9CE0A81073021F00A8176
:1014D0000F5F0A83CFCE4F903F902F902A96CDBFBB
:1014E000DEBFDF91CF9108952F92B1E02B1619F452
:1014F000B0E82B2E14C0B2E02B1619F4B0EC2B2E52
:101500000EC0B3E02B1619F4B4E92B2E08C0B4E0DA
:101510002B1619F4B4ED2B2E02C0B0E82B2E032DA0
:101520000150020D202EB0910B01B460B0930B015D
:10153000202E0E948473B0910B01BB7FB0930B01EE
:10154000242C0E948473B0910B01B460B0930B0102
:101550002F900895CF93DF93CDB7DEB72997CDBFF6
:10156000DEBF21965F926F92B0910B01B061B09394
:101570000B01B0910B01BF7DB0930B01B0910B013A
:10158000B4FFD1C14F923F922F926624B2E05B2EFE
:10159000B5E04B2EB2E32B2EB0E03B2E0E94AA9773
:1015A0002F903F904F90002329F0B091A40DB0648C
:1015B000B093A40D4F923F922F92B1E06B2EB2E008
:1015C0005B2EB5E04B2EB0E32B2EB0E03B2E0E94FD
:1015D000AA972F903F904F900090A40D112706FCE2
:1015E0001395012309F443C0231411F4242C03C0E0
:1015F000022D0F5F202E4F923F922F92B9E74B2E74
:10160000BDE05B2EB0E03B2E0E943397B9E74B2E36
:10161000BDE05B2EB9E03B2EB2E02B2E0E94A6A2CD
:10162000FE01B6E5B193B1E6B193BCE6B193B5E77F
:10163000B193B5E6B193B0E2B193BAE3B193B0E23E
:10164000B193B0E0B1938E012801B5E03B2EB2E03A
:101650002B2E0E94A6A22F903F904F9021E11CE3D9
:101660000CEC0A95F1F71A95E1F72A95D1F7B091AC
:10167000A40DB064B093A40D4F923F922F926624B4
:10168000B2E05B2EB4E04B2EB2E32B2EB0E03B2E4B
:101690000E94AA972F903F904F90002329F0B0917D
:1016A000A40DB064B093A40D4F923F922F92B1E07D
:1016B0006B2EB2E05B2EB4E04B2EB0E32B2EB0E0ED
:1016C0003B2E0E94AA972F903F904F900090A40D20
:1016D000112706FC1395012309F443C0241411F4C7
:1016E000232C03C0022D0150202E4F923F922F92A7
:1016F000B9E74B2EBDE05B2EB0E03B2E0E94339746
:10170000B9E74B2EBDE05B2EB9E03B2EB2E02B2EAD
:101710000E94A6A2FE01B6E5B193B1E6B193BCE684
:10172000B193B5E7B193B5E6B193B0E2B193BAE343
:10173000B193B0E2B193B0E0B1938E012801B5E06E
:101740003B2EB2E02B2E0E94A6A22F903F904F90EE
:1017500021E11CE30CEC0A95F1F71A95E1F72A95C3
:10176000D1F72092990D4F923F922F926624B2E0CA
:101770005B2EB2E04B2EB0E32B2EB0E03B2E0E944E
:10178000AA972F903F904F90003029F0B0910B0115
:10179000B062B0930B014F923F922F92B1E06B2E4B
:1017A000B2E05B2EB2E04B2EB0E32B2EB0E03B2E2E
:1017B0000E94AA972F903F904F9000900B01112705
:1017C00005FC1395012301F1B0910B01BF7DB0938E
:1017D0000B01B0910B01BF7EB0930B010091980DEE
:1017E000102F1F5F1093980D0091970D101719F48B
:1017F000B1E0B093980D21E11CE30CEC0A95F1F7F0
:101800001A95E1F72A95D1F74F923F922F926624CD
:10181000B2E05B2EB6E04B2EB0E32B2EB0E03B2EB9
:101820000E94AA972F903F904F90003029F0B091DE
:10183000A40DB064B093A40D10900B010090A40D02
:101840004E7F14FC06FE01C041604F923F922F92E2
:10185000B1E06B2EB2E05B2EB6E04B2EB0E32B2E48
:10186000B0E03B2E0E94AA972F903F904F901127F7
:1018700040FD1395012309F453C0B0910B01BF7EC5
:10188000B0930B01B091A40DBF7BB093A40D4F9208
:101890003F922F92B9E74B2EBDE05B2E2090990D21
:1018A000B0E03B2E0E943397B9E74B2EBDE05B2E94
:1018B000BBE03B2EB2E02B2E0E94A6A2FE01B6E5B5
:1018C000B193B1E6B193BCE6B193B5E7B193B5E698
:1018D000B193B0E2B193BAE3B193B0E0B1938E01AA
:1018E0002801B5E03B2EB2E02B2E0E94A6A22F903D
:1018F0003F904F9021E11CE30CEC0A95F1F71A950B
:10190000E1F72A95D1F70091980D102F1F5F1093E2
:10191000980D0091970D101719F4B1E0B093980D40
:101920002092990D2BCE6F905F902896CDBFDEBF91
:10193000DF91CF9108952F92DDD8B1E02B2E0E9438
:101940008473BCE02B2E0E9484732F900895019025
:101950000D920197E1F70895CF93DF93CDB7DEB7EE
:101960006497CDBFDEBF2196B0910B01B061B093FB
:101970000B01B0910B01BF7DB0930B016F925F9291
:101980004F923F922F92D7DF2F903F904F905F90D2
:101990006F9010900B0100900B014E7F14FC03FE22
:1019A00001C0416040FF0C9465156F925F924F92A9
:1019B0003F922F92232CB7E03B2EB1E04B2E6BD8F9
:1019C0002F903F904F904F923F922F92242CBCE348
:1019D0003B2EB7E04B2E5FD88E01302E412E20904B
:1019E000960D59D82F903F904F905F906F90B1E037
:1019F0002B1609F0E3C08E016F925F924F923F92D7
:101A00002F922801B2E03B2EB1E02B2E0E94A6A21D
:101A1000B3E4BB83B8E6BC83BAE3BD83B0E0BE8366
:101A20008E010D5F1F4F2801B1E03B2EB1E02B2E40
:101A30000E94A6A2B7E04B2EB1E05B2EB7E03B2E92
:101A4000B1E02B2E0E94A6A2BCE34B2EB7E05B2E8A
:101A5000BAE03B2EB1E02B2E0E94A6A2BAE3BB83D4
:101A6000B0E0BC838E010D5F1F4F2801BAE03B2E12
:101A7000B1E02B2E0E94A6A2FE013396B0E5B193F1
:101A8000B2E7B193BAE3B193B1E3B193B0E2B193EA
:101A9000B2E3B193B0E2B193B3E3B193B0E2B193E7
:101AA000B4E3B193B0E2B193B5E3B193B0E2B193D3
:101AB000B6E3B193B0E2B193B7E3B193B0E0B193C1
:101AC0008E010D5F1F4F2801B1E03B2EB2E02B2E9F
:101AD0000E94A6A225E01FE002EF0A95F1F71A95F1
:101AE000E1F72A95D1F7B0E2B0933C07B0E2B093AA
:101AF0003D07B0E2B0933E07B0E0B0933F07B7E0D8
:101B00004B2EB1E05B2EB7E03B2EB1E02B2E0E94B6
:101B1000A6A2BCE34B2EB7E05B2EBAE03B2EB1E0B1
:101B20002B2E0E94A6A2BAE3BB83B0E0BC838E0139
:101B30000D5F1F4F2801BAE03B2EB1E02B2E0E9413
:101B4000A6A2FE013396B4E4B193B9E7B193BAE328
:101B5000B193B0E2B193B0E2B193B2E3B193B0E22A
:101B6000B193B3E3B193B0E2B193B4E3B193B0E214
:101B7000B193B5E3B193B0E2B193B6E3B193B0E200
:101B8000B193B7E3B193B0E0B1938E010D5F1F4FF6
:101B90002801B1E03B2EB2E02B2E0E94A6A22F908E
:101BA0003F904F905F906F9025E01FE002EF0A9505
:101BB000F1F71A95E1F72A95D1F76AC5B2E02B162D
:101BC00009F0E3C08E016F925F924F923F922F9285
:101BD0002801B2E03B2EB1E02B2E0E94A6A2B3E476
:101BE000BB83B8E6BC83BAE3BD83B0E0BE838E019D
:101BF0000D5F1F4F2801B1E03B2EB1E02B2E0E945C
:101C0000A6A2B7E04B2EB1E05B2EB7E03B2EB1E0D1
:101C10002B2E0E94A6A2BCE34B2EB7E05B2EBAE0AF
:101C20003B2EB1E02B2E0E94A6A2BAE3BB83B0E00C
:101C3000BC838E010D5F1F4F2801BAE03B2EB1E03F
:101C40002B2E0E94A6A2FE013396B0E5B193B2E717
:101C5000B193BAE3B193B1E3B193B0E2B193B2E31C
:101C6000B193B0E2B193B3E3B193B0E2B193B4E313
:101C7000B193B0E2B193B5E3B193B0E2B193B6E3FF
:101C8000B193B0E2B193B7E3B193B0E0B1938E01F9
:101C90000D5F1F4F2801B1E03B2EB2E02B2E0E94BA
:101CA000A6A225E01FE002EF0A95F1F71A95E1F7E9
:101CB0002A95D1F7B0E2B0933C07B0E2B0933D076C
:101CC000B0E2B0933E07B0E0B0933F07B7E04B2ED1
:101CD000B1E05B2EB7E03B2EB1E02B2E0E94A6A216
:101CE000BCE34B2EB7E05B2EBAE03B2EB1E02B2ECF
:101CF0000E94A6A2BAE3BB83B0E0BC838E010D5F55
:101D00001F4F2801BAE03B2EB1E02B2E0E94A6A265
:101D1000FE013396B0E5B193B2E7B193BAE3B19364
:101D2000B1E3B193B0E2B193B0E2B193B0E2B19359
:101D3000B3E3B193B0E2B193B4E3B193B0E2B19342
:101D4000B5E3B193B0E2B193B6E3B193B0E2B1932E
:101D5000B7E3B193B0E0B1938E010D5F1F4F28013F
:101D6000B1E03B2EB2E02B2E0E94A6A22F903F9016
:101D70004F905F906F9025E01FE002EF0A95F1F71A
:101D80001A95E1F72A95D1F783C4B3E02B1609F031
:101D9000E3C08E016F925F924F923F922F92280183
:101DA000B2E03B2EB1E02B2E0E94A6A2B3E4BB838F
:101DB000B8E6BC83BAE3BD83B0E0BE838E010D5F9D
:101DC0001F4F2801B1E03B2EB1E02B2E0E94A6A2AE
:101DD000B7E04B2EB1E05B2EB7E03B2EB1E02B2EEF
:101DE0000E94A6A2BCE34B2EB7E05B2EBAE03B2ECE
:101DF000B1E02B2E0E94A6A2BAE3BB83B0E0BC8365
:101E00008E010D5F1F4F2801BAE03B2EB1E02B2E53
:101E10000E94A6A2FE013396B0E5B193B2E7B1935A
:101E2000BAE3B193B1E3B193B0E2B193B2E3B1934A
:101E3000B0E2B193B3E3B193B0E2B193B4E3B19341
:101E4000B0E2B193B5E3B193B0E2B193B6E3B1932D
:101E5000B0E2B193B7E3B193B0E0B1938E010D5FFF
:101E60001F4F2801B1E03B2EB2E02B2E0E94A6A20C
:101E700025E01FE002EF0A95F1F71A95E1F72A95A0
:101E8000D1F7B0E2B0933C07B0E2B0933D07B0E2C7
:101E9000B0933E07B0E0B0933F07B7E04B2EB1E000
:101EA0005B2EB7E03B2EB1E02B2E0E94A6A2BCE336
:101EB0004B2EB7E05B2EBAE03B2EB1E02B2E0E94FA
:101EC000A6A2BAE3BB83B0E0BC838E010D5F1F4FB7
:101ED0002801BAE03B2EB1E02B2E0E94A6A2FE0103
:101EE0003396B0E5B193B2E7B193BAE3B193B1E3FE
:101EF000B193B0E2B193B2E3B193B0E2B193B0E287
:101F0000B193B0E2B193B4E3B193B0E2B193B5E36E
:101F1000B193B0E2B193B6E3B193B0E2B193B7E35A
:101F2000B193B0E0B1938E010D5F1F4F2801B1E076
:101F30003B2EB2E02B2E0E94A6A22F903F904F90F6
:101F40005F906F9025E01FE002EF0A95F1F71A9578
:101F5000E1F72A95D1F79CC3B4E02B1609F0E3C052
:101F60008E016F925F924F923F922F922801B2E0C2
:101F70003B2EB1E02B2E0E94A6A2B3E4BB83B8E6B1
:101F8000BC83BAE3BD83B0E0BE838E010D5F1F4FFB
:101F90002801B1E03B2EB1E02B2E0E94A6A2B7E0B3
:101FA0004B2EB1E05B2EB7E03B2EB1E02B2E0E9412
:101FB000A6A2BCE34B2EB7E05B2EBAE03B2EB1E00D
:101FC0002B2E0E94A6A2BAE3BB83B0E0BC838E0195
:101FD0000D5F1F4F2801BAE03B2EB1E02B2E0E946F
:101FE000A6A2FE013396B0E5B193B2E7B193BAE38E
:101FF000B193B1E3B193B0E2B193B2E3B193B0E284
:10200000B193B3E3B193B0E2B193B4E3B193B0E26F
:10201000B193B5E3B193B0E2B193B6E3B193B0E25B
:10202000B193B7E3B193B0E0B1938E010D5F1F4F51
:102030002801B1E03B2EB2E02B2E0E94A6A225E0A3
:102040001FE002EF0A95F1F71A95E1F72A95D1F70B
:10205000B0E2B0933C07B0E2B0933D07B0E2B0937A
:102060003E07B0E0B0933F07B7E04B2EB1E05B2EE8
:10207000B7E03B2EB1E02B2E0E94A6A2BCE34B2E74
:10208000B7E05B2EBAE03B2EB1E02B2E0E94A6A259
:10209000BAE3BB83B0E0BC838E010D5F1F4F280104
:1020A000BAE03B2EB1E02B2E0E94A6A2FE01339691
:1020B000B0E5B193B2E7B193BAE3B193B1E3B193B1
:1020C000B0E2B193B2E3B193B0E2B193B3E3B193B1
:1020D000B0E2B193B0E2B193B0E2B193B5E3B193A2
:1020E000B0E2B193B6E3B193B0E2B193B7E3B19389
:1020F000B0E0B1938E010D5F1F4F2801B1E03B2E80
:10210000B2E02B2E0E94A6A22F903F904F905F909E
:102110006F9025E01FE002EF0A95F1F71A95E1F7BD
:102120002A95D1F7B5C2B5E02B1609F0E3C08E01B0
:102130006F925F924F923F922F922801B2E03B2E16
:10214000B1E02B2E0E94A6A2B3E4BB83B8E6BC8309
:10215000BAE3BD83B0E0BE838E010D5F1F4F28013F
:10216000B1E03B2EB1E02B2E0E94A6A2B7E04B2E91
:10217000B1E05B2EB7E03B2EB1E02B2E0E94A6A271
:10218000BCE34B2EB7E05B2EBAE03B2EB1E02B2E2A
:102190000E94A6A2BAE3BB83B0E0BC838E010D5FB0
:1021A0001F4F2801BAE03B2EB1E02B2E0E94A6A2C1
:1021B000FE013396B0E5B193B2E7B193BAE3B193C0
:1021C000B1E3B193B0E2B193B2E3B193B0E2B193B2
:1021D000B3E3B193B0E2B193B4E3B193B0E2B1939E
:1021E000B5E3B193B0E2B193B6E3B193B0E2B1938A
:1021F000B7E3B193B0E0B1938E010D5F1F4F28019B
:10220000B1E03B2EB2E02B2E0E94A6A225E01FE0FB
:1022100002EF0A95F1F71A95E1F72A95D1F7B0E2A6
:10222000B0933C07B0E2B0933D07B0E2B0933E07F5
:10223000B0E0B0933F07B7E04B2EB1E05B2EB7E0C4
:102240003B2EB1E02B2E0E94A6A2BCE34B2EB7E0A2
:102250005B2EBAE03B2EB1E02B2E0E94A6A2BAE381
:10226000BB83B0E0BC838E010D5F1F4F2801BAE035
:102270003B2EB1E02B2E0E94A6A2FE013396B0E5C4
:10228000B193B2E7B193BAE3B193B1E3B193B0E2E2
:10229000B193B2E3B193B0E2B193B3E3B193B0E2DF
:1022A000B193B4E3B193B0E2B193B0E2B193B0E2D1
:1022B000B193B6E3B193B0E2B193B7E3B193B0E0B9
:1022C000B1938E010D5F1F4F2801B1E03B2EB2E0AC
:1022D0002B2E0E94A6A22F903F904F905F906F9060
:1022E00025E01FE002EF0A95F1F71A95E1F72A952C
:1022F000D1F7CEC1B6E02B1609F0E3C08E016F9284
:102300005F924F923F922F922801B2E03B2EB1E0B4
:102310002B2E0E94A6A2B3E4BB83B8E6BC83BAE32B
:10232000BD83B0E0BE838E010D5F1F4F2801B1E079
:102330003B2EB1E02B2E0E94A6A2B7E04B2EB1E0BF
:102340005B2EB7E03B2EB1E02B2E0E94A6A2BCE391
:102350004B2EB7E05B2EBAE03B2EB1E02B2E0E9455
:10236000A6A2BAE3BB83B0E0BC838E010D5F1F4F12
:102370002801BAE03B2EB1E02B2E0E94A6A2FE015E
:102380003396B0E5B193B2E7B193BAE3B193B1E359
:10239000B193B0E2B193B2E3B193B0E2B193B3E3DE
:1023A000B193B0E2B193B4E3B193B0E2B193B5E3CA
:1023B000B193B0E2B193B6E3B193B0E2B193B7E3B6
:1023C000B193B0E0B1938E010D5F1F4F2801B1E0D2
:1023D0003B2EB2E02B2E0E94A6A225E01FE002EFCA
:1023E0000A95F1F71A95E1F72A95D1F7B0E2B09383
:1023F0003C07B0E2B0933D07B0E2B0933E07B0E0D7
:10240000B0933F07B7E04B2EB1E05B2EB7E03B2E19
:10241000B1E02B2E0E94A6A2BCE34B2EB7E05B2EB0
:10242000BAE03B2EB1E02B2E0E94A6A2BAE3BB83FA
:10243000B0E0BC838E010D5F1F4F2801BAE03B2E38
:10244000B1E02B2E0E94A6A2FE013396B0E5B19317
:10245000B2E7B193BAE3B193B1E3B193B0E2B19310
:10246000B2E3B193B0E2B193B3E3B193B0E2B1930D
:10247000B4E3B193B0E2B193B5E3B193B0E2B193F9
:10248000B0E2B193B0E2B193B7E3B193B0E0B193EE
:102490008E010D5F1F4F2801B1E03B2EB2E02B2EC5
:1024A0000E94A6A22F903F904F905F906F9025E0E2
:1024B0001FE002EF0A95F1F71A95E1F72A95D1F797
:1024C000E7C0B7E02B1609F0E3C08E016F925F9270
:1024D0004F923F922F922801B2E03B2EB1E02B2E7B
:1024E0000E94A6A2B3E4BB83B8E6BC83BAE3BD8373
:1024F000B0E0BE838E010D5F1F4F2801B1E03B2E7F
:10250000B1E02B2E0E94A6A2B7E04B2EB1E05B2ECD
:10251000B7E03B2EB1E02B2E0E94A6A2BCE34B2ECF
:10252000B7E05B2EBAE03B2EB1E02B2E0E94A6A2B4
:10253000BAE3BB83B0E0BC838E010D5F1F4F28015F
:10254000BAE03B2EB1E02B2E0E94A6A2FE013396EC
:10255000B0E5B193B2E7B193BAE3B193B1E3B1930C
:10256000B0E2B193B2E3B193B0E2B193B3E3B1930C
:10257000B0E2B193B4E3B193B0E2B193B5E3B193F8
:10258000B0E2B193B6E3B193B0E2B193B7E3B193E4
:10259000B0E0B1938E010D5F1F4F2801B1E03B2EDB
:1025A000B2E02B2E0E94A6A225E01FE002EF0A95C2
:1025B000F1F71A95E1F72A95D1F7B0E2B0933C070D
:1025C000B0E2B0933D07B0E2B0933E07B0E0B09305
:1025D0003F07B7E04B2EB1E05B2EB7E03B2EB1E0FA
:1025E0002B2E0E94A6A2BCE34B2EB7E05B2EBAE0D6
:1025F0003B2EB1E02B2E0E94A6A2BAE3BB83B0E033
:10260000BC838E010D5F1F4F2801BAE03B2EB1E065
:102610002B2E0E94A6A2FE013396B0E5B193B2E73D
:10262000B193BAE3B193B1E3B193B0E2B193B2E342
:10263000B193B0E2B193B3E3B193B0E2B193B4E339
:10264000B193B0E2B193B5E3B193B0E2B193B6E325
:10265000B193B0E2B193B0E2B193B0E0B1938E0127
:102660000D5F1F4F2801B1E03B2EB2E02B2E0E94E0
:10267000A6A22F903F904F905F906F9025E01FE0B3
:1026800002EF0A95F1F71A95E1F72A95D1F700C004
:102690006F925F924F923F922F9266245524B5E03D
:1026A0004B2EB2E32B2EB0E03B2E0E94AA972F9028
:1026B0003F904F905F906F90002329F0B091A40D50
:1026C000B064B093A40D6F925F924F923F922F929D
:1026D000B1E06B2E5524B5E04B2EB0E32B2EB0E0CD
:1026E0003B2E0E94AA972F903F904F905F906F9043
:1026F0000090A40D112706FC1395012339F0451411
:1027000010F0462C03C0042D0F5F402EB091A40D95
:10271000B064B093A40D6F925F924F923F922F924C
:1027200066245524B4E04B2EB2E32B2EB0E03B2EB2
:102730000E94AA972F903F904F905F906F90002338
:1027400029F0B091A40DB064B093A40D6F925F9284
:102750004F923F922F92B1E06B2E5524B4E04B2E56
:10276000B0E32B2EB0E03B2E0E94AA972F903F9013
:102770004F905F906F900090A40D112706FC139569
:10278000012339F0641410F0452C03C0042D0150CE
:10279000402E3092990D6F925F924F923F922F92FE
:1027A00066245524B2E04B2EB0E32B2EB0E03B2E36
:1027B0000E94AA972F903F904F905F906F900030AB
:1027C00029F0B0910B01B062B0930B016F925F9250
:1027D0004F923F922F92B1E06B2E5524B2E04B2ED8
:1027E000B0E32B2EB0E03B2E0E94AA972F903F9093
:1027F0004F905F906F9000900B01112705FC13958F
:10280000012309F48AC0B0910B01BF7DB0930B0185
:10281000B0910B01BF7EB0930B010091980D102F6A
:102820001F5F1093980D0091970D101719F4B1E0E8
:10283000B093980D6F925F924F923F922F927BD8F8
:10284000FE013396BFE4B193BEE6B193B0E2B1931B
:10285000B4E7B193B9E6B193BDE6B193B5E6B193F0
:10286000B0E2B193B9E6B193B3E7B193B0E2B193FB
:10287000B0E0B1938E010D5F1F4F2801B1E03B2EF8
:10288000B1E02B2E0E94A6A22F903F903F922F9254
:10289000232CB7E03B2EB1E04B2E0E944B052F902E
:1028A0003F904F904F923F922F92242CBCE33B2EAF
:1028B000B7E04B2E0E944B05B7E04B2EB1E05B2EEC
:1028C000B5E03B2EB2E02B2E0E94A6A2BCE34B2E1D
:1028D000B7E05B2EB8E03B2EB2E02B2E0E94A6A202
:1028E000BAE3BB83B0E0BC838E010D5F1F4F2801AC
:1028F000B8E03B2EB2E02B2E0E94A6A22F903F9074
:102900004F905F906F9025E11BE40FEB0A95F1F774
:102910001A95E1F72A95D1F700006F925F924F92D6
:102920003F922F9266245524B6E04B2EB0E32B2E17
:10293000B0E03B2E0E94AA972F903F904F905F905F
:102940006F90003029F0B091A40DB064B093A40D45
:1029500010900B010090A40D4E7F14FC06FE01C0E8
:1029600041606F925F924F923F922F92B1E06B2E37
:102970005524B6E04B2EB0E32B2EB0E03B2E0E9448
:10298000AA972F903F904F905F906F90112740FD36
:102990001395012309F495C0B0910B01BF7EB0934C
:1029A0000B01B091A40DBF7BB093A40D6F925F9209
:1029B0004F923F922F920E949B0C2F903F904F90EE
:1029C0005F906F900091980D102F1F5F1093980DDE
:1029D0000091970D101719F4B1E0B093980DFE0116
:1029E0003396BFE4B193BEE6B193B0E2B193B4E7DE
:1029F000B193B9E6B193BDE6B193B5E6B193B0E258
:102A0000B193B9E6B193B3E7B193B0E2B193B0E05B
:102A1000B1938E010D5F1F4F6F925F924F923F9265
:102A20002F922801B1E03B2EB1E02B2E0E94A6A2EE
:102A30002F903F903F922F92232CB7E03B2EB1E096
:102A40004B2E0E944B052F903F904F904F923F92FC
:102A50002F92242CBCE33B2EB7E04B2E0E944B055B
:102A6000B7E04B2EB1E05B2EB5E03B2EB2E02B2E53
:102A70000E94A6A2BCE34B2EB7E05B2EB8E03B2E33
:102A8000B2E02B2E0E94A6A2BAE3BB83B0E0BC83C7
:102A90008E010D5F1F4F2801B8E03B2EB2E02B2EB8
:102AA0000E94A6A22F903F904F905F906F9025E1DB
:102AB0001BE40FEB0A95F1F71A95E1F72A95D1F788
:102AC00000004092990D0C94C90C6396CDBFDEBFF7
:102AD000DF91CF910895CF93DF93CDB7DEB76497A1
:102AE000CDBFDEBF2196B0910B01B061B0930B0159
:102AF000B0910B01BF7DB0930B016F925F924F922B
:102B00003F922F920E949B0C2F903F904F905F908E
:102B10006F9010900B0100900B014E7F14FC03FE90
:102B200001C0416040FFC0C76F925F924F923F92D9
:102B30002F92232CB7E03B2EB1E04B2E0E944B0589
:102B40002F903F904F904F923F922F92242CBCE3B6
:102B50003B2EB7E04B2E0E944B058E01302E412EAE
:102B60002090960D0E944B052F903F904F905F90C4
:102B70006F90B1E02B1609F0E8C08E016F925F9262
:102B80004F923F922F922801B2E03B2EB1E02B2EC4
:102B90000E94A6A2B3E4BB83B8E6BC83BAE3BD83BC
:102BA000B0E0BE838E010D5F1F4F2801B1E03B2EC8
:102BB000B1E02B2E0E94A6A2B7E04B2EB1E05B2E17
:102BC000B7E03B2EB1E02B2E0E94A6A2BCE34B2E19
:102BD000B7E05B2EBAE03B2EB1E02B2E0E94A6A2FE
:102BE000BAE3BB83B0E0BC838E010D5F1F4F2801A9
:102BF000BAE03B2EB1E02B2E0E94A6A2FE01339636
:102C0000B0E5B193B2E7B193BAE3B193B1E3B19355
:102C1000B0E2B193B2E3B193B0E2B193B3E3B19355
:102C2000B0E2B193B4E3B193B0E2B193B5E3B19341
:102C3000B0E2B193B6E3B193B0E2B193B7E3B1932D
:102C4000B0E0B1938E010D5F1F4F2801B1E03B2E24
:102C5000B2E02B2E0E94A6A225E01FE002EF0A950B
:102C6000F1F71A95E1F72A95D1F7B0E2B093070191
:102C7000B0E2B0930801B0E0B0930901B0E2BB83C9
:102C8000B0E2BC83B0E2BD83B0E0BE838E010D5FD5
:102C90001F4F2801B7E03B2EB1E02B2E0E94A6A2C9
:102CA000BCE34B2EB7E05B2EBAE03B2EB1E02B2EFF
:102CB0000E94A6A2BAE3BB83B0E0BC838E010D5F85
:102CC0001F4F2801BAE03B2EB1E02B2E0E94A6A296
:102CD000FE013396B4E4B193B9E7B193BAE3B1938B
:102CE000B0E2B193B0E2B193B2E3B193B0E2B19389
:102CF000B3E3B193B0E2B193B4E3B193B0E2B19373
:102D0000B5E3B193B0E2B193B6E3B193B0E2B1935E
:102D1000B7E3B193B0E0B1938E010D5F1F4F28016F
:102D2000B1E03B2EB2E02B2E0E94A6A22F903F9046
:102D30004F905F906F9025E01FE002EF0A95F1F74A
:102D40001A95E1F72A95D1F788C5B2E02B1609F05C
:102D5000E8C08E016F925F924F923F922F922801AE
:102D6000B2E03B2EB1E02B2E0E94A6A2B3E4BB83BF
:102D7000B8E6BC83BAE3BD83B0E0BE838E010D5FCD
:102D80001F4F2801B1E03B2EB1E02B2E0E94A6A2DE
:102D9000B7E04B2EB1E05B2EB7E03B2EB1E02B2E1F
:102DA0000E94A6A2BCE34B2EB7E05B2EBAE03B2EFE
:102DB000B1E02B2E0E94A6A2BAE3BB83B0E0BC8395
:102DC0008E010D5F1F4F2801BAE03B2EB1E02B2E84
:102DD0000E94A6A2FE013396B0E5B193B2E7B1938B
:102DE000BAE3B193B1E3B193B0E2B193B2E3B1937B
:102DF000B0E2B193B3E3B193B0E2B193B4E3B19372
:102E0000B0E2B193B5E3B193B0E2B193B6E3B1935D
:102E1000B0E2B193B7E3B193B0E0B1938E010D5F2F
:102E20001F4F2801B1E03B2EB2E02B2E0E94A6A23C
:102E300025E01FE002EF0A95F1F71A95E1F72A95D0
:102E4000D1F7B0E2B0930701B0E2B0930801B0E06F
:102E5000B0930901B0E2BB83B0E2BC83B0E2BD83B2
:102E6000B0E0BE838E010D5F1F4F2801B7E03B2EFF
:102E7000B1E02B2E0E94A6A2BCE34B2EB7E05B2E46
:102E8000BAE03B2EB1E02B2E0E94A6A2BAE3BB8390
:102E9000B0E0BC838E010D5F1F4F2801BAE03B2ECE
:102EA000B1E02B2E0E94A6A2FE013396B0E5B193AD
:102EB000B2E7B193BAE3B193B1E3B193B0E2B193A6
:102EC000B0E2B193B0E2B193B3E3B193B0E2B193A6
:102ED000B4E3B193B0E2B193B5E3B193B0E2B1938F
:102EE000B6E3B193B0E2B193B7E3B193B0E0B1937D
:102EF0008E010D5F1F4F2801B1E03B2EB2E02B2E5B
:102F00000E94A6A22F903F904F905F906F9025E077
:102F10001FE002EF0A95F1F71A95E1F72A95D1F72C
:102F20009CC4B3E02B1609F0E8C08E016F925F924B
:102F30004F923F922F922801B2E03B2EB1E02B2E10
:102F40000E94A6A2B3E4BB83B8E6BC83BAE3BD8308
:102F5000B0E0BE838E010D5F1F4F2801B1E03B2E14
:102F6000B1E02B2E0E94A6A2B7E04B2EB1E05B2E63
:102F7000B7E03B2EB1E02B2E0E94A6A2BCE34B2E65
:102F8000B7E05B2EBAE03B2EB1E02B2E0E94A6A24A
:102F9000BAE3BB83B0E0BC838E010D5F1F4F2801F5
:102FA000BAE03B2EB1E02B2E0E94A6A2FE01339682
:102FB000B0E5B193B2E7B193BAE3B193B1E3B193A2
:102FC000B0E2B193B2E3B193B0E2B193B3E3B193A2
:102FD000B0E2B193B4E3B193B0E2B193B5E3B1938E
:102FE000B0E2B193B6E3B193B0E2B193B7E3B1937A
:102FF000B0E0B1938E010D5F1F4F2801B1E03B2E71
:10300000B2E02B2E0E94A6A225E01FE002EF0A9557
:10301000F1F71A95E1F72A95D1F7B0E2B0930701DD
:10302000B0E2B0930801B0E0B0930901B0E2BB8315
:10303000B0E2BC83B0E2BD83B0E0BE838E010D5F21
:103040001F4F2801B7E03B2EB1E02B2E0E94A6A215
:10305000BCE34B2EB7E05B2EBAE03B2EB1E02B2E4B
:103060000E94A6A2BAE3BB83B0E0BC838E010D5FD1
:103070001F4F2801BAE03B2EB1E02B2E0E94A6A2E2
:10308000FE013396B0E5B193B2E7B193BAE3B193E1
:10309000B1E3B193B0E2B193B2E3B193B0E2B193D3
:1030A000B0E2B193B0E2B193B4E3B193B0E2B193C3
:1030B000B5E3B193B0E2B193B6E3B193B0E2B193AB
:1030C000B7E3B193B0E0B1938E010D5F1F4F2801BC
:1030D000B1E03B2EB2E02B2E0E94A6A22F903F9093
:1030E0004F905F906F9025E01FE002EF0A95F1F797
:1030F0001A95E1F72A95D1F7B0C3B4E02B1609F081
:10310000E8C08E016F925F924F923F922F922801FA
:10311000B4E03B2EB1E02B2E0E94A6A2B3E4BB8309
:10312000B8E6BC83BAE3BD83B0E0BE838E010D5F19
:103130001F4F2801B1E03B2EB1E02B2E0E94A6A22A
:10314000B7E04B2EB1E05B2EB7E03B2EB1E02B2E6B
:103150000E94A6A2BCE34B2EB7E05B2EBAE03B2E4A
:10316000B1E02B2E0E94A6A2BAE3BB83B0E0BC83E1
:103170008E010D5F1F4F2801BAE03B2EB1E02B2ED0
:103180000E94A6A2FE013396B0E5B193B2E7B193D7
:10319000BAE3B193B1E3B193B0E2B193B2E3B193C7
:1031A000B0E2B193B3E3B193B0E2B193B4E3B193BE
:1031B000B0E2B193B5E3B193B0E2B193B6E3B193AA
:1031C000B0E2B193B7E3B193B0E0B1938E010D5F7C
:1031D0001F4F2801B1E03B2EB2E02B2E0E94A6A289
:1031E00025E01FE002EF0A95F1F71A95E1F72A951D
:1031F000D1F7B0E2B0930701B0E2B0930801B0E0BC
:10320000B0930901B0E2BB83B0E2BC83B0E2BD83FE
:10321000B0E0BE838E010D5F1F4F2801B7E03B2E4B
:10322000B1E02B2E0E94A6A2BCE34B2EB7E05B2E92
:10323000BAE03B2EB1E02B2E0E94A6A2BAE3BB83DC
:10324000B0E0BC838E010D5F1F4F2801BAE03B2E1A
:10325000B1E02B2E0E94A6A2FE013396B0E5B193F9
:10326000B2E7B193BAE3B193B1E3B193B0E2B193F2
:10327000B2E3B193B0E2B193B3E3B193B0E2B193EF
:10328000B0E2B193B0E2B193B5E3B193B0E2B193E0
:10329000B6E3B193B0E2B193B7E3B193B0E0B193C9
:1032A0008E010D5F1F4F2801B1E03B2EB2E02B2EA7
:1032B0000E94A6A22F903F904F905F906F9025E0C4
:1032C0001FE002EF0A95F1F71A95E1F72A95D1F779
:1032D000C4C2B5E02B1609F0E8C08E016F925F9270
:1032E0004F923F922F922801B2E03B2EB1E02B2E5D
:1032F0000E94A6A2B3E4BB83B8E6BC83BAE3BD8355
:10330000B0E0BE838E010D5F1F4F2801B1E03B2E60
:10331000B1E02B2E0E94A6A2B7E04B2EB1E05B2EAF
:10332000B7E03B2EB1E02B2E0E94A6A2BCE34B2EB1
:10333000B7E05B2EBAE03B2EB1E02B2E0E94A6A296
:10334000BAE3BB83B0E0BC838E010D5F1F4F280141
:10335000BAE03B2EB1E02B2E0E94A6A2FE013396CE
:10336000B0E5B193B2E7B193BAE3B193B1E3B193EE
:10337000B0E2B193B2E3B193B0E2B193B3E3B193EE
:10338000B0E2B193B4E3B193B0E2B193B5E3B193DA
:10339000B0E2B193B6E3B193B0E2B193B7E3B193C6
:1033A000B0E0B1938E010D5F1F4F2801B1E03B2EBD
:1033B000B2E02B2E0E94A6A225E01FE002EF0A95A4
:1033C000F1F71A95E1F72A95D1F7B0E2B09307012A
:1033D000B0E2B0930801B0E0B0930901B0E2BB8362
:1033E000B0E2BC83B0E2BD83B0E0BE838E010D5F6E
:1033F0001F4F2801B7E03B2EB1E02B2E0E94A6A262
:10340000BCE34B2EB7E05B2EBAE03B2EB1E02B2E97
:103410000E94A6A2BAE3BB83B0E0BC838E010D5F1D
:103420001F4F2801BAE03B2EB1E02B2E0E94A6A22E
:10343000FE013396B0E5B193B2E7B193BAE3B1932D
:10344000B1E3B193B0E2B193B2E3B193B0E2B1931F
:10345000B3E3B193B0E2B193B4E3B193B0E2B1930B
:10346000B0E2B193B0E2B193B6E3B193B0E2B193FD
:10347000B7E3B193B0E0B1938E010D5F1F4F280108
:10348000B1E03B2EB2E02B2E0E94A6A22F903F90DF
:103490004F905F906F9025E01FE002EF0A95F1F7E3
:1034A0001A95E1F72A95D1F7D8C1B6E02B1609F0A5
:1034B000E8C08E016F925F924F923F922F92280147
:1034C000B2E03B2EB1E02B2E0E94A6A2B3E4BB8358
:1034D000B8E6BC83BAE3BD83B0E0BE838E010D5F66
:1034E0001F4F2801B1E03B2EB1E02B2E0E94A6A277
:1034F000B7E04B2EB1E05B2EB7E03B2EB1E02B2EB8
:103500000E94A6A2BCE34B2EB7E05B2EBAE03B2E96
:10351000B1E02B2E0E94A6A2BAE3BB83B0E0BC832D
:103520008E010D5F1F4F2801BAE03B2EB1E02B2E1C
:103530000E94A6A2FE013396B0E5B193B2E7B19323
:10354000BAE3B193B1E3B193B0E2B193B2E3B19313
:10355000B0E2B193B3E3B193B0E2B193B4E3B1930A
:10356000B0E2B193B5E3B193B0E2B193B6E3B193F6
:10357000B0E2B193B7E3B193B0E0B1938E010D5FC8
:103580001F4F2801B1E03B2EB2E02B2E0E94A6A2D5
:1035900025E01FE002EF0A95F1F71A95E1F72A9569
:1035A000D1F7B0E2B0930701B0E2B0930801B0E008
:1035B000B0930901B0E2BB83B0E2BC83B0E2BD834B
:1035C000B0E0BE838E010D5F1F4F2801B7E03B2E98
:1035D000B1E02B2E0E94A6A2BCE34B2EB7E05B2EDF
:1035E000BAE03B2EB1E02B2E0E94A6A2BAE3BB8329
:1035F000B0E0BC838E010D5F1F4F2801BAE03B2E67
:10360000B1E02B2E0E94A6A2FE013396B0E5B19345
:10361000B2E7B193BAE3B193B1E3B193B0E2B1933E
:10362000B2E3B193B0E2B193B3E3B193B0E2B1933B
:10363000B4E3B193B0E2B193B5E3B193B0E2B19327
:10364000B0E2B193B0E2B193B7E3B193B0E0B1931C
:103650008E010D5F1F4F2801B1E03B2EB2E02B2EF3
:103660000E94A6A22F903F904F905F906F9025E010
:103670001FE002EF0A95F1F71A95E1F72A95D1F7C5
:10368000ECC0B7E02B1609F0E8C08E016F925F9294
:103690004F923F922F922801B2E03B2EB1E02B2EA9
:1036A0000E94A6A2B3E4BB83B8E6BC83BAE3BD83A1
:1036B000B0E0BE838E010D5F1F4F2801B1E03B2EAD
:1036C000B1E02B2E0E94A6A2B7E04B2EB1E05B2EFC
:1036D000B7E03B2EB1E02B2E0E94A6A2BCE34B2EFE
:1036E000B7E05B2EBAE03B2EB1E02B2E0E94A6A2E3
:1036F000BAE3BB83B0E0BC838E010D5F1F4F28018E
:10370000BAE03B2EB1E02B2E0E94A6A2FE0133961A
:10371000B0E5B193B2E7B193BAE3B193B1E3B1933A
:10372000B0E2B193B2E3B193B0E2B193B3E3B1933A
:10373000B0E2B193B4E3B193B0E2B193B5E3B19326
:10374000B0E2B193B6E3B193B0E2B193B7E3B19312
:10375000B0E0B1938E010D5F1F4F2801B1E03B2E09
:10376000B2E02B2E0E94A6A225E01FE002EF0A95F0
:10377000F1F71A95E1F72A95D1F7B0E2B093070176
:10378000B0E2B0930801B0E0B0930901B0E2BB83AE
:10379000B0E2BC83B0E2BD83B0E0BE838E010D5FBA
:1037A0001F4F2801B7E03B2EB1E02B2E0E94A6A2AE
:1037B000BCE34B2EB7E05B2EBAE03B2EB1E02B2EE4
:1037C0000E94A6A2BAE3BB83B0E0BC838E010D5F6A
:1037D0001F4F2801BAE03B2EB1E02B2E0E94A6A27B
:1037E000FE013396B0E5B193B2E7B193BAE3B1937A
:1037F000B1E3B193B0E2B193B2E3B193B0E2B1936C
:10380000B3E3B193B0E2B193B4E3B193B0E2B19357
:10381000B5E3B193B0E2B193B6E3B193B0E2B19343
:10382000B0E2B193B0E0B1938E010D5F1F4F28015C
:10383000B1E03B2EB2E02B2E0E94A6A22F903F902B
:103840004F905F906F9025E01FE002EF0A95F1F72F
:103850001A95E1F72A95D1F700C06F925F924F92C7
:103860003F922F9266245524B5E04B2EB2E32B2EC7
:10387000B0E03B2E0E94AA972F903F904F905F9010
:103880006F90002329F0B091A40DB064B093A40D03
:103890006F925F924F923F922F92B1E06B2E552420
:1038A000B5E04B2EB0E32B2EB0E03B2E0E94AA9742
:1038B0002F903F904F905F906F900090A40D112734
:1038C00006FC1395012339F0351410F0362C03C093
:1038D000032D0F5F302EB091A40DB064B093A40DF2
:1038E0006F925F924F923F922F9266245524B4E0DC
:1038F0004B2EB2E32B2EB0E03B2E0E94AA972F90C6
:103900003F904F905F906F90002329F0B091A40DED
:10391000B064B093A40D6F925F924F923F922F923A
:10392000B1E06B2E5524B4E04B2EB0E32B2EB0E06B
:103930003B2E0E94AA972F903F904F905F906F90E0
:103940000090A40D112706FC1395012339F0631490
:1039500010F0352C03C0032D0150302E3092990DFC
:103960006F925F924F923F922F9266245524B2E05D
:103970004B2EB0E32B2EB0E03B2E0E94AA972F9047
:103980003F904F905F906F90003029F0B0910B0105
:10399000B062B0930B016F925F924F923F922F9261
:1039A000B1E06B2E5524B2E04B2EB0E32B2EB0E0ED
:1039B0003B2E0E94AA972F903F904F905F906F9060
:1039C00000900B01112705FC13950123B1F0B09174
:1039D0000B01BF7DB0930B01B0910B01BF7EB09383
:1039E0000B016F925F924F923F922F920E949B0C1D
:1039F0002F903F904F905F906F906F925F924F9299
:103A00003F922F9266245524B6E04B2EB0E32B2E26
:103A1000B0E03B2E0E94AA972F903F904F905F906E
:103A20006F90003029F0B091A40DB064B093A40D54
:103A300010900B010090A40D4E7F14FC06FE01C0F7
:103A400041606F925F924F923F922F92B1E06B2E46
:103A50005524B6E04B2EB0E32B2EB0E03B2E0E9457
:103A6000AA972F903F904F905F906F90112740FD45
:103A700013950123B1F0B0910B01BF7EB0930B0100
:103A8000B091A40DBF7BB093A40D6F925F924F9243
:103A90003F922F920E949B0C2F903F904F905F90EF
:103AA0006F903092990D35C86396CDBFDEBFDF9120
:103AB000CF910895CF93DF93CDB7DEB76497CDBF95
:103AC000DEBF2196B0910B01B061B0930B01B091B4
:103AD0000B01BF7DB0930B016F925F924F923F92AB
:103AE0002F920E949B0CBFE33B2EB7E04B2E209001
:103AF000960D0E944B052F903F904F905F906F90D6
:103B000010900B0100900B014E7F14FC03FE01C0CE
:103B1000416040FF0C942D2CB1E04B1609F0C6C556
:103B2000B1E02B1609F0CFC0FE01B9E5B193B5E6BF
:103B3000B193B3E7B193BCE7B193BEE4B193BFE6F1
:103B4000B193B0E2B193B3E4B193B8E6B193B1E607
:103B5000B193BEE6B193B5E6B193BCE6B193BAE3D7
:103B6000B193B0E0B1938E016F925F924F923F920A
:103B70002F922801B1E03B2EB1E02B2E0E94A6A28D
:103B8000BFE34B2EB7E05B2EBEE03B2EB1E02B2E09
:103B90000E94A6A2FE01B0E5B193B2E7B193BAE3E9
:103BA000B193B1E3B193B0E2B193B2E3B193B0E2B8
:103BB000B193B3E3B193B0E2B193B4E3B193B0E2A4
:103BC000B193B5E3B193B0E2B193B6E3B193B0E290
:103BD000B193B7E3B193B0E0B1938E012801B1E0A6
:103BE0003B2EB2E02B2E0E94A6A225E01FE002EFA2
:103BF0000A95F1F71A95E1F72A95D1F7FE01B0E29F
:103C0000B193B0E2B193B0E2B193BCE7B193BEE43B
:103C1000B193BFE6B193B0E2B193B3E4B193B8E628
:103C2000B193B1E6B193BEE6B193B5E6B193BCE60C
:103C3000B193BAE3B193B0E2B193B0E2B193B0E023
:103C4000B1938E012801B1E03B2EB1E02B2E0E94F2
:103C5000A6A2FE01B4E4B193B9E7B193BAE3B1937C
:103C6000B0E2B193B0E2B193B2E3B193B0E2B193F9
:103C7000B3E3B193B0E2B193B4E3B193B0E2B193E3
:103C8000B5E3B193B0E2B193B6E3B193B0E2B193CF
:103C9000B7E3B193B0E0B1938E012801B1E03B2EC0
:103CA000B2E02B2E0E94A6A22F903F904F905F90E3
:103CB0006F9025E01FE002EF0A95F1F71A95E1F702
:103CC0002A95D1F7F2C4B2E02B1609F0CFC0FE015D
:103CD000B9E5B193B5E6B193B3E7B193BCE7B1935E
:103CE000BEE4B193BFE6B193B0E2B193B3E4B19354
:103CF000B8E6B193B1E6B193BEE6B193B5E6B19340
:103D0000BCE6B193BAE3B193B0E0B1938E016F9288
:103D10005F924F923F922F922801B1E03B2EB1E08B
:103D20002B2E0E94A6A2BFE34B2EB7E05B2EBEE077
:103D30003B2EB1E02B2E0E94A6A2FE01B0E5B1936E
:103D4000B2E7B193BAE3B193B1E3B193B0E2B19307
:103D5000B2E3B193B0E2B193B3E3B193B0E2B19304
:103D6000B4E3B193B0E2B193B5E3B193B0E2B193F0
:103D7000B6E3B193B0E2B193B7E3B193B0E0B193DE
:103D80008E012801B1E03B2EB2E02B2E0E94A6A2AC
:103D900025E01FE002EF0A95F1F71A95E1F72A9561
:103DA000D1F7FE01B0E2B193B0E2B193B0E2B193CA
:103DB000BCE7B193BEE4B193BFE6B193B0E2B19377
:103DC000B3E4B193B8E6B193B1E6B193BEE6B19373
:103DD000B5E6B193BCE6B193BAE3B193B0E2B19367
:103DE000B0E2B193B0E0B1938E012801B1E03B2E77
:103DF000B1E02B2E0E94A6A2FE01B0E5B193B2E77E
:103E0000B193BAE3B193B1E3B193B0E2B193B0E24D
:103E1000B193B0E2B193B3E3B193B0E2B193B4E341
:103E2000B193B0E2B193B5E3B193B0E2B193B6E32D
:103E3000B193B0E2B193B7E3B193B0E0B1938E0127
:103E40002801B1E03B2EB2E02B2E0E94A6A22F90BB
:103E50003F904F905F906F9025E01FE002EF0A9532
:103E6000F1F71A95E1F72A95D1F71FC4B3E02B16A5
:103E700009F0CFC0FE01B9E5B193B5E6B193B3E760
:103E8000B193BCE7B193BEE4B193BFE6B193B0E2A6
:103E9000B193B3E4B193B8E6B193B1E6B193BEE6A2
:103EA000B193B5E6B193BCE6B193BAE3B193B0E098
:103EB000B1938E016F925F924F923F922F922801A1
:103EC000B1E03B2EB1E02B2E0E94A6A2BFE34B2E09
:103ED000B7E05B2EBEE03B2EB1E02B2E0E94A6A2E7
:103EE000FE01B0E5B193B2E7B193BAE3B193B1E3A8
:103EF000B193B0E2B193B2E3B193B0E2B193B3E363
:103F0000B193B0E2B193B4E3B193B0E2B193B5E34E
:103F1000B193B0E2B193B6E3B193B0E2B193B7E33A
:103F2000B193B0E0B1938E012801B1E03B2EB2E035
:103F30002B2E0E94A6A225E01FE002EF0A95F1F7C2
:103F40001A95E1F72A95D1F7FE01B0E2B193B0E2FC
:103F5000B193B0E2B193BCE7B193BEE4B193BFE6D5
:103F6000B193B0E2B193B3E4B193B8E6B193B1E6E3
:103F7000B193BEE6B193B5E6B193BCE6B193BAE3B3
:103F8000B193B0E2B193B0E2B193B0E0B1938E01DE
:103F90002801B1E03B2EB1E02B2E0E94A6A2FE012B
:103FA000B0E5B193B2E7B193BAE3B193B1E3B193A2
:103FB000B0E2B193B2E3B193B0E2B193B0E2B193A6
:103FC000B0E2B193B4E3B193B0E2B193B5E3B1938E
:103FD000B0E2B193B6E3B193B0E2B193B7E3B1937A
:103FE000B0E0B1938E012801B1E03B2EB2E02B2E60
:103FF0000E94A6A22F903F904F905F906F9025E077
:104000001FE002EF0A95F1F71A95E1F72A95D1F72B
:104010004CC3B4E02B1609F0CFC0FE01B9E5B19353
:10402000B5E6B193B3E7B193BCE7B193BEE4B19306
:10403000BFE6B193B0E2B193B3E4B193B8E6B19304
:10404000B1E6B193BEE6B193B5E6B193BCE6B193E8
:10405000BAE3B193B0E0B1938E016F925F924F9249
:104060003F922F922801B1E03B2EB1E02B2E0E940F
:10407000A6A2BFE34B2EB7E05B2EBEE03B2EB1E025
:104080002B2E0E94A6A2FE01B0E5B193B2E7B19338
:10409000BAE3B193B1E3B193B0E2B193B2E3B193B8
:1040A000B0E2B193B3E3B193B0E2B193B4E3B193AF
:1040B000B0E2B193B5E3B193B0E2B193B6E3B1939B
:1040C000B0E2B193B7E3B193B0E0B1938E012801B0
:1040D000B1E03B2EB2E02B2E0E94A6A225E01FE00D
:1040E00002EF0A95F1F71A95E1F72A95D1F7FE014B
:1040F000B0E2B193B0E2B193B0E2B193BCE7B19357
:10410000BEE4B193BFE6B193B0E2B193B3E4B1932F
:10411000B8E6B193B1E6B193BEE6B193B5E6B1931B
:10412000BCE6B193BAE3B193B0E2B193B0E2B1931C
:10413000B0E0B1938E012801B1E03B2EB1E02B2E0F
:104140000E94A6A2FE01B0E5B193B2E7B193BAE333
:10415000B193B1E3B193B0E2B193B2E3B193B0E202
:10416000B193B3E3B193B0E2B193B0E2B193B0E2F3
:10417000B193B5E3B193B0E2B193B6E3B193B0E2DA
:10418000B193B7E3B193B0E0B1938E012801B1E0F0
:104190003B2EB2E02B2E0E94A6A22F903F904F9074
:1041A0005F906F9025E01FE002EF0A95F1F71A95F6
:1041B000E1F72A95D1F779C2B5E02B1609F0CFC007
:1041C000FE01B9E5B193B5E6B193B3E7B193BCE7AE
:1041D000B193BEE4B193BFE6B193B0E2B193B3E45F
:1041E000B193B8E6B193B1E6B193BEE6B193B5E64B
:1041F000B193BCE6B193BAE3B193B0E0B1938E0151
:104200006F925F924F923F922F922801B1E03B2E26
:10421000B1E02B2E0E94A6A2BFE34B2EB7E05B2E8F
:10422000BEE03B2EB1E02B2E0E94A6A2FE01B0E51F
:10423000B193B2E7B193BAE3B193B1E3B193B0E212
:10424000B193B2E3B193B0E2B193B3E3B193B0E20F
:10425000B193B4E3B193B0E2B193B5E3B193B0E2FB
:10426000B193B6E3B193B0E2B193B7E3B193B0E0E9
:10427000B1938E012801B1E03B2EB2E02B2E0E94BB
:10428000A6A225E01FE002EF0A95F1F71A95E1F7E3
:104290002A95D1F7FE01B0E2B193B0E2B193B0E25A
:1042A000B193BCE7B193BEE4B193BFE6B193B0E282
:1042B000B193B3E4B193B8E6B193B1E6B193BEE67E
:1042C000B193B5E6B193BCE6B193BAE3B193B0E272
:1042D000B193B0E2B193B0E0B1938E012801B1E0A7
:1042E0003B2EB1E02B2E0E94A6A2FE01B0E5B193B9
:1042F000B2E7B193BAE3B193B1E3B193B0E2B19352
:10430000B2E3B193B0E2B193B3E3B193B0E2B1934E
:10431000B4E3B193B0E2B193B0E2B193B0E2B19340
:10432000B6E3B193B0E2B193B7E3B193B0E0B19328
:104330008E012801B1E03B2EB2E02B2E0E94A6A2F6
:104340002F903F904F905F906F9025E01FE002EF1D
:104350000A95F1F71A95E1F72A95D1F7A6C1B6E0CB
:104360002B1609F0CFC0FE01B9E5B193B5E6B193C4
:10437000B3E7B193BCE7B193BEE4B193BFE6B193A9
:10438000B0E2B193B3E4B193B8E6B193B1E6B193BF
:10439000BEE6B193B5E6B193BCE6B193BAE3B1938F
:1043A000B0E0B1938E016F925F924F923F922F9245
:1043B0002801B1E03B2EB1E02B2E0E94A6A2BFE364
:1043C0004B2EB7E05B2EBEE03B2EB1E02B2E0E94C1
:1043D000A6A2FE01B0E5B193B2E7B193BAE3B193FF
:1043E000B1E3B193B0E2B193B2E3B193B0E2B19370
:1043F000B3E3B193B0E2B193B4E3B193B0E2B1935C
:10440000B5E3B193B0E2B193B6E3B193B0E2B19347
:10441000B7E3B193B0E0B1938E012801B1E03B2E38
:10442000B2E02B2E0E94A6A225E01FE002EF0A9523
:10443000F1F71A95E1F72A95D1F7FE01B0E2B193B1
:10444000B0E2B193B0E2B193BCE7B193BEE4B193F3
:10445000BFE6B193B0E2B193B3E4B193B8E6B193E0
:10446000B1E6B193BEE6B193B5E6B193BCE6B193C4
:10447000BAE3B193B0E2B193B0E2B193B0E0B193DB
:104480008E012801B1E03B2EB1E02B2E0E94A6A2A6
:10449000FE01B0E5B193B2E7B193BAE3B193B1E3F2
:1044A000B193B0E2B193B2E3B193B0E2B193B3E3AD
:1044B000B193B0E2B193B4E3B193B0E2B193B5E399
:1044C000B193B0E2B193B0E2B193B0E2B193B7E38C
:1044D000B193B0E0B1938E012801B1E03B2EB2E080
:1044E0002B2E0E94A6A22F903F904F905F906F902E
:1044F00025E01FE002EF0A95F1F71A95E1F72A95FA
:10450000D1F7D3C0B7E02B1609F0CFC0FE01B9E553
:10451000B193B5E6B193B3E7B193BCE7B193BEE411
:10452000B193BFE6B193B0E2B193B3E4B193B8E60F
:10453000B193B1E6B193BEE6B193B5E6B193BCE6F3
:10454000B193BAE3B193B0E0B1938E016F925F92F1
:104550004F923F922F922801B1E03B2EB1E02B2EDB
:104560000E94A6A2BFE34B2EB7E05B2EBEE03B2E1F
:10457000B1E02B2E0E94A6A2FE01B0E5B193B2E7F6
:10458000B193BAE3B193B1E3B193B0E2B193B2E3C3
:10459000B193B0E2B193B3E3B193B0E2B193B4E3BA
:1045A000B193B0E2B193B5E3B193B0E2B193B6E3A6
:1045B000B193B0E2B193B7E3B193B0E0B1938E01A0
:1045C0002801B1E03B2EB2E02B2E0E94A6A225E0EE
:1045D0001FE002EF0A95F1F71A95E1F72A95D1F756
:1045E000FE01B0E2B193B0E2B193B0E2B193BCE7A7
:1045F000B193BEE4B193BFE6B193B0E2B193B3E43B
:10460000B193B8E6B193B1E6B193BEE6B193B5E626
:10461000B193BCE6B193BAE3B193B0E2B193B0E227
:10462000B193B0E0B1938E012801B1E03B2EB1E02F
:104630002B2E0E94A6A2FE01B0E5B193B2E7B19382
:10464000BAE3B193B1E3B193B0E2B193B2E3B19302
:10465000B0E2B193B3E3B193B0E2B193B4E3B193F9
:10466000B0E2B193B5E3B193B0E2B193B6E3B193E5
:10467000B0E2B193B0E2B193B0E0B1938E01280102
:10468000B1E03B2EB2E02B2E0E94A6A22F903F90CD
:104690004F905F906F9025E01FE002EF0A95F1F7D1
:1046A0001A95E1F72A95D1F700C0C5C5B1E02B16E0
:1046B00009F0CFC0FE01B9E5B193B5E6B193B3E718
:1046C000B193BCE7B193BEE4B193BFE6B193B0E25E
:1046D000B193B3E4B193B8E6B193B1E6B193BEE65A
:1046E000B193B5E6B193BCE6B193BAE3B193B0E050
:1046F000B1938E016F925F924F923F922F92280159
:10470000B1E03B2EB1E02B2E0E94A6A2BFE34B2EC0
:10471000B7E05B2EBEE03B2EB1E02B2E0E94A6A29E
:10472000FE01B0E5B193B2E7B193BAE3B193B1E35F
:10473000B193B0E2B193B2E3B193B0E2B193B3E31A
:10474000B193B0E2B193B4E3B193B0E2B193B5E306
:10475000B193B0E2B193B6E3B193B0E2B193B7E3F2
:10476000B193B0E0B1938E012801B1E03B2EB2E0ED
:104770002B2E0E94A6A225E01FE002EF0A95F1F77A
:104780001A95E1F72A95D1F7FE01B4E4B193B9E7A0
:10479000B193BAE3B193B9E5B193B5E6B193B3E799
:1047A000B193BCE7B193B0E2B193B0E2B193B0E2A0
:1047B000B193B3E4B193B8E6B193B1E6B193BEE679
:1047C000B193B5E6B193BCE6B193BAE3B193B0E26D
:1047D000B193B0E2B193B0E0B1938E012801B1E0A2
:1047E0003B2EB1E02B2E0E94A6A2FE01B0E2B193B7
:1047F000B0E2B193B2E3B193B0E2B193B3E3B1935A
:10480000B0E2B193B4E3B193B0E2B193B5E3B19345
:10481000B0E2B193B6E3B193B0E2B193B7E3B19331
:10482000B0E0B1938E012801B1E03B2EB2E02B2E17
:104830000E94A6A22F903F904F905F906F9025E02E
:104840001FE002EF0A95F1F71A95E1F72A95D1F7E3
:10485000F2C4B2E02B1609F0CFC0FE01B9E5B19366
:10486000B5E6B193B3E7B193BCE7B193BEE4B193BE
:10487000BFE6B193B0E2B193B3E4B193B8E6B193BC
:10488000B1E6B193BEE6B193B5E6B193BCE6B193A0
:10489000BAE3B193B0E0B1938E016F925F924F9201
:1048A0003F922F922801B1E03B2EB1E02B2E0E94C7
:1048B000A6A2BFE34B2EB7E05B2EBEE03B2EB1E0DD
:1048C0002B2E0E94A6A2FE01B0E5B193B2E7B193F0
:1048D000BAE3B193B1E3B193B0E2B193B2E3B19370
:1048E000B0E2B193B3E3B193B0E2B193B4E3B19367
:1048F000B0E2B193B5E3B193B0E2B193B6E3B19353
:10490000B0E2B193B7E3B193B0E0B1938E01280167
:10491000B1E03B2EB2E02B2E0E94A6A225E01FE0C4
:1049200002EF0A95F1F71A95E1F72A95D1F7FE0102
:10493000B9E5B193B5E6B193B3E7B193BCE7B193F1
:10494000B0E2B193B0E2B193B0E2B193B3E4B1930A
:10495000B8E6B193B1E6B193BEE6B193B5E6B193D3
:10496000BCE6B193BAE3B193B0E2B193B0E2B193D4
:10497000B0E0B1938E012801B1E03B2EB1E02B2EC7
:104980000E94A6A2FE01B0E5B193B2E7B193BAE3EB
:10499000B193B1E3B193B0E2B193B0E2B193B0E2BD
:1049A000B193B3E3B193B0E2B193B4E3B193B0E2A6
:1049B000B193B5E3B193B0E2B193B6E3B193B0E292
:1049C000B193B7E3B193B0E0B1938E012801B1E0A8
:1049D0003B2EB2E02B2E0E94A6A22F903F904F902C
:1049E0005F906F9025E01FE002EF0A95F1F71A95AE
:1049F000E1F72A95D1F71FC4B3E02B1609F0CFC019
:104A0000FE01B9E5B193B5E6B193B3E7B193BCE765
:104A1000B193BEE4B193BFE6B193B0E2B193B3E416
:104A2000B193B8E6B193B1E6B193BEE6B193B5E602
:104A3000B193BCE6B193BAE3B193B0E0B1938E0108
:104A40006F925F924F923F922F922801B1E03B2EDE
:104A5000B1E02B2E0E94A6A2BFE34B2EB7E05B2E47
:104A6000BEE03B2EB1E02B2E0E94A6A2FE01B0E5D7
:104A7000B193B2E7B193BAE3B193B1E3B193B0E2CA
:104A8000B193B2E3B193B0E2B193B3E3B193B0E2C7
:104A9000B193B4E3B193B0E2B193B5E3B193B0E2B3
:104AA000B193B6E3B193B0E2B193B7E3B193B0E0A1
:104AB000B1938E012801B1E03B2EB2E02B2E0E9473
:104AC000A6A225E01FE002EF0A95F1F71A95E1F79B
:104AD0002A95D1F7FE01B9E5B193B5E6B193B3E7F5
:104AE000B193BCE7B193B0E2B193B0E2B193B0E25D
:104AF000B193B3E4B193B8E6B193B1E6B193BEE636
:104B0000B193B5E6B193BCE6B193BAE3B193B0E229
:104B1000B193B0E2B193B0E0B1938E012801B1E05E
:104B20003B2EB1E02B2E0E94A6A2FE01B0E5B19370
:104B3000B2E7B193BAE3B193B1E3B193B0E2B19309
:104B4000B2E3B193B0E2B193B0E2B193B0E2B1930A
:104B5000B4E3B193B0E2B193B5E3B193B0E2B193F2
:104B6000B6E3B193B0E2B193B7E3B193B0E0B193E0
:104B70008E012801B1E03B2EB2E02B2E0E94A6A2AE
:104B80002F903F904F905F906F9025E01FE002EFD5
:104B90000A95F1F71A95E1F72A95D1F74CC3B4E0DD
:104BA0002B1609F0CFC0FE01B9E5B193B5E6B1937C
:104BB000B3E7B193BCE7B193BEE4B193BFE6B19361
:104BC000B0E2B193B3E4B193B8E6B193B1E6B19377
:104BD000BEE6B193B5E6B193BCE6B193BAE3B19347
:104BE000B0E0B1938E016F925F924F923F922F92FD
:104BF0002801B1E03B2EB1E02B2E0E94A6A2BFE31C
:104C00004B2EB7E05B2EBEE03B2EB1E02B2E0E9478
:104C1000A6A2FE01B0E5B193B2E7B193BAE3B193B6
:104C2000B1E3B193B0E2B193B2E3B193B0E2B19327
:104C3000B3E3B193B0E2B193B4E3B193B0E2B19313
:104C4000B5E3B193B0E2B193B6E3B193B0E2B193FF
:104C5000B7E3B193B0E0B1938E012801B1E03B2EF0
:104C6000B2E02B2E0E94A6A225E01FE002EF0A95DB
:104C7000F1F71A95E1F72A95D1F7FE01B9E5B1935D
:104C8000B5E6B193B3E7B193BCE7B193B0E2B193AA
:104C9000B0E2B193B0E2B193B3E4B193B8E6B193AB
:104CA000B1E6B193BEE6B193B5E6B193BCE6B1937C
:104CB000BAE3B193B0E2B193B0E2B193B0E0B19393
:104CC0008E012801B1E03B2EB1E02B2E0E94A6A25E
:104CD000FE01B0E5B193B2E7B193BAE3B193B1E3AA
:104CE000B193B0E2B193B2E3B193B0E2B193B3E365
:104CF000B193B0E2B193B0E2B193B0E2B193B5E356
:104D0000B193B0E2B193B6E3B193B0E2B193B7E33C
:104D1000B193B0E0B1938E012801B1E03B2EB2E037
:104D20002B2E0E94A6A22F903F904F905F906F90E5
:104D300025E01FE002EF0A95F1F71A95E1F72A95B1
:104D4000D1F779C2B5E02B1609F0CFC0FE01B9E565
:104D5000B193B5E6B193B3E7B193BCE7B193BEE4C9
:104D6000B193BFE6B193B0E2B193B3E4B193B8E6C7
:104D7000B193B1E6B193BEE6B193B5E6B193BCE6AB
:104D8000B193BAE3B193B0E0B1938E016F925F92A9
:104D90004F923F922F922801B1E03B2EB1E02B2E93
:104DA0000E94A6A2BFE34B2EB7E05B2EBEE03B2ED7
:104DB000B1E02B2E0E94A6A2FE01B0E5B193B2E7AE
:104DC000B193BAE3B193B1E3B193B0E2B193B2E37B
:104DD000B193B0E2B193B3E3B193B0E2B193B4E372
:104DE000B193B0E2B193B5E3B193B0E2B193B6E35E
:104DF000B193B0E2B193B7E3B193B0E0B1938E0158
:104E00002801B1E03B2EB2E02B2E0E94A6A225E0A5
:104E10001FE002EF0A95F1F71A95E1F72A95D1F70D
:104E2000FE01B9E5B193B5E6B193B3E7B193BCE741
:104E3000B193B0E2B193B0E2B193B0E2B193B3E415
:104E4000B193B8E6B193B1E6B193BEE6B193B5E6DE
:104E5000B193BCE6B193BAE3B193B0E2B193B0E2DF
:104E6000B193B0E0B1938E012801B1E03B2EB1E0E7
:104E70002B2E0E94A6A2FE01B0E5B193B2E7B1933A
:104E8000BAE3B193B1E3B193B0E2B193B2E3B193BA
:104E9000B0E2B193B3E3B193B0E2B193B4E3B193B1
:104EA000B0E2B193B0E2B193B0E2B193B6E3B193A3
:104EB000B0E2B193B7E3B193B0E0B1938E012801B2
:104EC000B1E03B2EB2E02B2E0E94A6A22F903F9085
:104ED0004F905F906F9025E01FE002EF0A95F1F789
:104EE0001A95E1F72A95D1F7A6C1B6E02B1609F07D
:104EF000CFC0FE01B9E5B193B5E6B193B3E7B19385
:104F0000BCE7B193BEE4B193BFE6B193B0E2B19315
:104F1000B3E4B193B8E6B193B1E6B193BEE6B19311
:104F2000B5E6B193BCE6B193BAE3B193B0E0B19307
:104F30008E016F925F924F923F922F922801B1E0C3
:104F40003B2EB1E02B2E0E94A6A2BFE34B2EB7E072
:104F50005B2EBEE03B2EB1E02B2E0E94A6A2FE01EE
:104F6000B0E5B193B2E7B193BAE3B193B1E3B193D2
:104F7000B0E2B193B2E3B193B0E2B193B3E3B193D2
:104F8000B0E2B193B4E3B193B0E2B193B5E3B193BE
:104F9000B0E2B193B6E3B193B0E2B193B7E3B193AA
:104FA000B0E0B1938E012801B1E03B2EB2E02B2E90
:104FB0000E94A6A225E01FE002EF0A95F1F71A95DC
:104FC000E1F72A95D1F7FE01B9E5B193B5E6B193C2
:104FD000B3E7B193BCE7B193B0E2B193B0E2B19360
:104FE000B0E2B193B3E4B193B8E6B193B1E6B19353
:104FF000BEE6B193B5E6B193BCE6B193BAE3B19323
:10500000B0E2B193B0E2B193B0E0B1938E01280168
:10501000B1E03B2EB1E02B2E0E94A6A2FE01B0E52E
:10502000B193B2E7B193BAE3B193B1E3B193B0E214
:10503000B193B2E3B193B0E2B193B3E3B193B0E211
:10504000B193B4E3B193B0E2B193B5E3B193B0E2FD
:10505000B193B0E2B193B0E2B193B7E3B193B0E0F2
:10506000B1938E012801B1E03B2EB2E02B2E0E94BD
:10507000A6A22F903F904F905F906F9025E01FE089
:1050800002EF0A95F1F71A95E1F72A95D1F7D3C007
:10509000B7E02B1609F0CFC0FE01B9E5B193B5E634
:1050A000B193B3E7B193BCE7B193BEE4B193BFE66C
:1050B000B193B0E2B193B3E4B193B8E6B193B1E682
:1050C000B193BEE6B193B5E6B193BCE6B193BAE352
:1050D000B193B0E0B1938E016F925F924F923F9285
:1050E0002F922801B1E03B2EB1E02B2E0E94A6A208
:1050F000BFE34B2EB7E05B2EBEE03B2EB1E02B2E84
:105100000E94A6A2FE01B0E5B193B2E7B193BAE363
:10511000B193B1E3B193B0E2B193B2E3B193B0E232
:10512000B193B3E3B193B0E2B193B4E3B193B0E21E
:10513000B193B5E3B193B0E2B193B6E3B193B0E20A
:10514000B193B7E3B193B0E0B1938E012801B1E020
:105150003B2EB2E02B2E0E94A6A225E01FE002EF1C
:105160000A95F1F71A95E1F72A95D1F7FE01B9E50D
:10517000B193B5E6B193B3E7B193BCE7B193B0E2B5
:10518000B193B0E2B193B0E2B193B3E4B193B8E6B6
:10519000B193B1E6B193BEE6B193B5E6B193BCE687
:1051A000B193BAE3B193B0E2B193B0E2B193B0E09E
:1051B000B1938E012801B1E03B2EB1E02B2E0E946D
:1051C000A6A2FE01B0E5B193B2E7B193BAE3B19301
:1051D000B1E3B193B0E2B193B2E3B193B0E2B19372
:1051E000B3E3B193B0E2B193B4E3B193B0E2B1935E
:1051F000B5E3B193B0E2B193B6E3B193B0E2B1934A
:10520000B0E2B193B0E0B1938E012801B1E03B2E42
:10521000B2E02B2E0E94A6A22F903F904F905F905D
:105220006F9025E01FE002EF0A95F1F71A95E1F77C
:105230002A95D1F700C06F925F924F923F922F92C2
:1052400066245524B5E04B2EB2E32B2EB0E03B2E66
:105250000E94AA972F903F904F905F906F900023ED
:1052600029F0B091A40DB064B093A40D6F925F9239
:105270004F923F922F92B1E06B2E5524B5E04B2E0A
:10528000B0E32B2EB0E03B2E0E94AA972F903F90C8
:105290004F905F906F900090A40D112706FC13951E
:1052A000012339F0451411F4462C03C0042D0F5F7F
:1052B000402EB091A40DB064B093A40D6F925F9294
:1052C0004F923F922F9266245524B4E04B2EB2E3C6
:1052D0002B2EB0E03B2E0E94AA972F903F904F902C
:1052E0005F906F90002329F0B091A40DB064B0934B
:1052F000A40D6F925F924F923F922F92B1E06B2E6E
:105300005524B4E04B2EB0E32B2EB0E03B2E0E9490
:10531000AA972F903F904F905F906F900090A40DB0
:10532000112706FC1395012339F0461411F4452C7E
:1053300003C0042D0150402E4092990D6F925F9250
:105340004F923F922F9266245524B2E04B2EB0E349
:105350002B2EB0E03B2E0E94AA972F903F904F90AB
:105360005F906F90003029F0B0910B01B062B09364
:105370000B016F925F924F923F922F92B1E06B2E92
:105380005524B2E04B2EB0E32B2EB0E03B2E0E9412
:10539000AA972F903F904F905F906F9000900B01D5
:1053A000112705FC1395012309F40AC1B0910B01E3
:1053B000BF7DB0930B01B0910B01BF7EB0930B0189
:1053C0006F925F924F923F922F920E949B0C2F9070
:1053D0003F904F905F906F90B1E04B1609F087C0FF
:1053E0001091980D12501093980DB1E0B093940D58
:1053F000032D0F5F0093960D0091970D101719F470
:10540000B1E0B093980D6F925F924F923F922F92BE
:10541000B8EC3B2EBDE04B2E2090960D0E944B0524
:10542000FE01B3E4B193B8E6B193B1E6B193BEE641
:10543000B193B5E6B193BCE6B193B0E0B1938E0100
:105440002801B1E03B2EB1E02B2E0E94A6A2B8ECC1
:105450004B2EBDE05B2EB8E03B2EB1E02B2E0E9420
:10546000A6A2FE01B4E7B193B9E6B193BDE6B1934C
:10547000B5E6B193B0E2B193B9E6B193B3E7B193B6
:10548000B0E2B193B0E0B1938E012801B9E03B2EB8
:10549000B1E02B2E0E94A6A2FE01B3E7B193B5E6C0
:1054A000B193BCE6B193B5E6B193B3E6B193B4E77B
:1054B000B193B5E6B193B4E6B193B0E0B1938E0188
:1054C0002801B1E03B2EB2E02B2E0E94A6A22F9025
:1054D0003F904F905F906F9025E11BE40FEB0A9592
:1054E000F1F71A95E1F72A95D1F7000069C01091FC
:1054F000980D0091970D101719F4B1E0B093980D25
:10550000FE01B4E5B193B9E6B193BDE6B193B5E65A
:10551000B193B0E2B193B4E5B193B1E6B193B2E621
:10552000B193BCE6B193B5E6B193B0E2B193B9E6FD
:10553000B193B3E7B193B0E2B193B0E0B1938E0110
:105540006F925F924F923F922F922801B1E03B2ED3
:10555000B1E02B2E0E94A6A2FE01B3E4B193BFE6F8
:10556000B193BDE6B193B0E7B193BCE6B193B5E6B4
:10557000B193B4E7B193B5E6B193B4E6B193B0E2B9
:10558000B193B1E2B193B1E2B193B1E2B193B0E0C2
:10559000B1938E012801B1E03B2EB2E02B2E0E9488
:1055A000A6A22F903F904F905F906F9025E11BE453
:1055B0000FEB0A95F1F71A95E1F72A95D1F700005C
:1055C0006F925F924F923F922F9266245524B6E0DD
:1055D0004B2EB0E32B2EB0E03B2E0E94AA972F90CB
:1055E0003F904F905F906F90003029F0B091A40DE4
:1055F000B064B093A40D10900B010090A40D4E7FE9
:1056000014FC06FE01C041606F925F924F923F9280
:105610002F92B1E06B2E5524B6E04B2EB0E32B2E2B
:10562000B0E03B2E0E94AA972F903F904F905F9042
:105630006F90112740FD1395012309F40AC1B09121
:105640000B01BF7EB0930B01B091A40DBF7BB09353
:10565000A40D6F925F924F923F922F920E949B0CEB
:105660002F903F904F905F906F90B1E04B1609F0F4
:1056700087C01091980D12501093980DB1E0B0931F
:10568000940D032D0F5F0093960D0091970D101749
:1056900019F4B1E0B093980D6F925F924F923F92E0
:1056A0002F92B8EC3B2EBDE04B2E2090960D0E9421
:1056B0004B05FE01B3E4B193B8E6B193B1E6B19303
:1056C000BEE6B193B5E6B193BCE6B193B0E0B19359
:1056D0008E012801B1E03B2EB1E02B2E0E94A6A244
:1056E000B8EC4B2EBDE05B2EB8E03B2EB1E02B2E8C
:1056F0000E94A6A2FE01B4E7B193B9E6B193BDE65C
:10570000B193B5E6B193B0E2B193B9E6B193B3E723
:10571000B193B0E2B193B0E0B1938E012801B9E04A
:105720003B2EB1E02B2E0E94A6A2FE01B3E7B1935F
:10573000B5E6B193BCE6B193B5E6B193B3E6B193E8
:10574000B4E7B193B5E6B193B4E6B193B0E0B193E9
:105750008E012801B1E03B2EB2E02B2E0E94A6A2C2
:105760002F903F904F905F906F9025E11BE40FEBDF
:105770000A95F1F71A95E1F72A95D1F7000069C06B
:105780001091980D0091970D101719F4B1E0B09396
:10579000980DFE01B4E5B193B9E6B193BDE6B193BE
:1057A000B5E6B193B0E2B193B4E5B193B1E6B1938C
:1057B000B2E6B193BCE6B193B5E6B193B0E2B19372
:1057C000B9E6B193B3E7B193B0E2B193B0E0B1936E
:1057D0008E016F925F924F923F922F922801B1E01B
:1057E0003B2EB1E02B2E0E94A6A2FE01B3E4B193A2
:1057F000BFE6B193BDE6B193B0E7B193BCE6B19318
:10580000B5E6B193B4E7B193B5E6B193B4E6B1931D
:10581000B0E2B193B1E2B193B1E2B193B1E2B1932D
:10582000B0E0B1938E012801B1E03B2EB2E02B2E07
:105830000E94A6A22F903F904F905F906F9025E11D
:105840001BE40FEB0A95F1F71A95E1F72A95D1F7CA
:1058500000004092990D0C94801D6396CDBFDEBF71
:10586000DF91CF910895CF93DF93CDB7DEB76197E6
:10587000CDBFDEBF21966F92B0910B01B061B093A6
:105880000B01B0910B01BF7DB0930B0110900B0188
:1058900000900B014E7F14FC03FE01C0416040FFED
:1058A0000C94D339B1E03B1609F08EC5B1E02B164C
:1058B00009F0C7C0FE01B0E2B193B0E2B193B3E525
:1058C000B193B1E6B193B6E7B193B5E6B193BFE258
:1058D000B193BEE4B193BFE6B193B0E2B193B3E547
:1058E000B193B1E6B193B6E7B193B5E6B193B0E247
:1058F000B193B0E2B193B0E0B1938E015F924F9259
:105900003F922F922801B1E03B2EB1E02B2E0E9456
:10591000A6A2FE01B0E5B193B2E7B193BAE3B193A9
:10592000B1E3B193B0E2B193B2E3B193B0E2B1931A
:10593000B3E3B193B0E2B193B4E3B193B0E2B19306
:10594000B5E3B193B0E2B193B6E3B193B0E2B193F2
:10595000B7E3B193B0E0B1938E012801B1E03B2EE3
:10596000B2E02B2E0E94A6A225E01FE002EF0A95CE
:10597000F1F71A95E1F72A95D1F7FE01B0E2B1935C
:10598000B0E2B193B0E2B193B0E2B193B0E2B193BF
:10599000B0E2B193BFE2B193BEE4B193BFE6B1937D
:1059A000B0E2B193B3E5B193B1E6B193B6E7B19389
:1059B000B5E6B193B0E2B193B0E2B193B0E0B19388
:1059C0008E012801B1E03B2EB1E02B2E0E94A6A251
:1059D000FE01B4E4B193B9E7B193BAE3B193B0E295
:1059E000B193B0E2B193B2E3B193B0E2B193B3E358
:1059F000B193B0E2B193B4E3B193B0E2B193B5E344
:105A0000B193B0E2B193B6E3B193B0E2B193B7E32F
:105A1000B193B0E0B1938E012801B1E03B2EB2E02A
:105A20002B2E0E94A6A22F903F904F905F9025E0D2
:105A30001FE002EF0A95F1F71A95E1F72A95D1F7E1
:105A4000C2C4B2E02B1609F0C7C0FE01B0E2B193A8
:105A5000B0E2B193B3E5B193B1E6B193B6E7B193D8
:105A6000B5E6B193BFE2B193BEE4B193BFE6B193A3
:105A7000B0E2B193B3E5B193B1E6B193B6E7B193B8
:105A8000B5E6B193B0E2B193B0E2B193B0E0B193B7
:105A90008E015F924F923F922F922801B1E03B2EF0
:105AA000B1E02B2E0E94A6A2FE01B0E5B193B2E7B1
:105AB000B193BAE3B193B1E3B193B0E2B193B2E37E
:105AC000B193B0E2B193B3E3B193B0E2B193B4E375
:105AD000B193B0E2B193B5E3B193B0E2B193B6E361
